:020000040000FA
:10000000A8140010D1010000D5010000D7010000A4
:1000100000000000000000000000000000000000E0
:10002000000000000000000000000000D9010000F6
:100030009509000000000000DB010000DD01000068
:10004000D5000000D5000000D5000000D50000005C
:10005000D5000000D5000000D5000000D50000004C
:10006000D5000000D5000000D5000000D50000003C
:10007000D5000000E1000000ED000000F9000000E4
:1000800005010000110100001D0100002901000010
:1000900035010000410100004D0100005901000040
:1000A00065010000710100007D0100008901000070
:1000B00095010000A1010000AD010000B9010000A0
:1000C0000348854600F0A4FD004800473B060000B9
:1000D000A814001001480068874600007010000056
:1000E000014800688746000074100000014800685D
:1000F000874600007810000001480068874600002D
:100100007C10000001480068874600008010000055
:10011000014800688746000084100000014800681C
:1001200087460000881000000148006887460000EC
:100130008C10000001480068874600009010000005
:1001400001480068874600009410000001480068DC
:1001500087460000981000000148006887460000AC
:100160009C1000000148006887460000A0100000B5
:100170000148006887460000A4100000014800689C
:1001800087460000A810000001480068874600006C
:10019000AC1000000148006887460000B010000065
:1001A0000148006887460000B4100000014800685C
:1001B00087460000B810000001480068874600002C
:1001C000BC100000016881F30888416808470000FE
:1001D00004480047FEE7FEE7FEE7FEE7FEE70249C8
:1001E00008470000C10000004302000030B502468D
:1001F0000B46180210430146002408E0480001465F
:1002000001252D06284201D003484140641C082CDA
:10021000F4DB0802000C30BD0005800003E0002282
:100220000270401C491E0029F9D17047814207D055
:1002300004E003780B70401C491C521E002AF8D1C0
:10024000704710B50446012C01D100F095F900F07B
:100250006DFC0020C04307490860074A0749084869
:10026000FFF7E4FF07490848FFF7D8FF00F015FA49
:1002700010BD000080E100E011000000000000104F
:100280004C0F0000881400002000001030B5134609
:100290008B408400164D2D5901248C40A4002B5115
:1002A00030BD30B5002A11D08300114CE358012431
:1002B000E4031B191B6801248C40234384000C4D6C
:1002C0002C590125ED036419236010E08300084CCC
:1002D000E3580124E4031B191B6801248C40A34349
:1002E0008400034D2C590125ED036419236030BDB2
:1002F0001C0F000070470000000000007856341208
:1003000001464807800E3922121A88100623184029
:1003100010188A06D20F801AC0B270470146C81062
:100320002722121A0620084080001018CA07920ED1
:10033000801AC0B2704701468648405C704701464B
:100340008548405C704710B50246C810105C4C07E9
:10035000640F80232341184010BD70B50346CD10B3
:10036000E8184E07760F802535412C46002A02D02A
:100370000578254301E00578A543057070BDFEB5FD
:1003800007460D4616461C4600BF601EC4B22046F6
:10039000B047014600902846FFF7D5FF02462146A8
:1003A00001903846FFF7D9FF002CEED1FEBD10B505
:1003B00000BF1378521C0C7863400B70491C431E1D
:1003C000DBB21800F5D110BD10B5062200BF0B78C6
:1003D000491C047863400370401C531EDBB21A00B2
:1003E000F5D110BDF3B586B0044600255B480590F5
:1003F0000420049000BF00270220039000BF0020CB
:100400000190052000905648029000BF01984006D8
:10041000000E019002980278401C02905019C1B25F
:100420000798FFF790FF002803D0012101980843A7
:1004300001900098401E0006000E0090E6D1019940
:100440000598465C281DC1B20798FFF77CFF00287D
:1004500000D136113807070E3007000F0743A81DDB
:10046000C5B20598203005900398401E0006000E86
:100470000390C4D12770641C0498401E0006000E2F
:100480000490B8D108B0F0BD082200BF0B7803700B
:10049000491C401C531EDBB21A00F7D17047F3B55C
:1004A0008BB00F4608AC09AD40232E4A08A80B9923
:1004B000FFF765FF002624E030232B4A294604A8D5
:1004C000FFF75DFF06207043284A811804A8FFF754
:1004D0007BFF04A903A8FFF785FF2023244A03A973
:1004E0000AA8FFF74CFF0AAA21460420FFF75FFF86
:1004F000701CC6B23007000F03D020462C460546BC
:1005000000BF302ED8DB21786846017661784176CD
:10051000A1788176E178C176297801776978417789
:10052000A9788177E978C17701A80B99FFF7ACFF2B
:100530004023104A06A90B98FFF721FF3A460820EE
:100540000B99FFF734FF01A93846FFF79DFF0DB067
:10055000F0BD0000910E0000C10E00008C0D0000E7
:100560008C0E000001030000370300006C0C00003B
:100570003F0300001D0300000020A549896B2022D5
:100580009143A34A91630021A24A116200BF01E096
:1005900000BF401CC828FBDB01219E4A403211608D
:1005A0005160002151600121516000BF99494031E3
:1005B0004968C907C90FF9D02321964A9160944927
:1005C000896B80229143924A916300BF9149C96827
:1005D000C907C90FFAD0A0218E4A51628C49896B94
:1005E000402291438A4A916303218A4A403211632F
:1005F00001215163002151630121516300BF8549ED
:100600004031496BC907C90FF9D00121814A4032F5
:10061000916381497F4A803211600121516191616A
:10062000D161704710207D4948607D48C06BC0078C
:10063000C00F00D170470120FCE7FFF79DFF77480E
:100640004038C06B8121084374494039C8637548FC
:1006500000680221084373490860002072498860DD
:10066000FFF7E0FF002801D1FFF7EBFD00BF0024FA
:100670006E4845680326760300BF28786D1C214626
:10068000FFF7B4FD0446701E0600F6D1002C01D021
:10069000FFF7D7FD00F084F9E9E788B000F0B9F979
:1006A00000F012FA002801D100F080F960480690AD
:1006B000604807900020059000BF00F066FA00F047
:1006C000F6F9050200F0F3F905430598411C800096
:1006D000059159490D5000240395642D01DD574CB7
:1006E00000E0574C0020049000BF00F0E0F90646FF
:1006F0002670641C30460499FFF778FD049000F0E2
:1007000044FA0398401E0004000C0390EDD100F061
:1007100001FA0498002876D1642D01DD474C00E0F1
:10072000474C0026642D01DD444E00E0444EA81ED7
:1007300085B200BF00F029FA06A93046FFF7AFFEE8
:1007400008362846083880B20500F3D1274602CF84
:100750003C48814253D10026002002903C4644E0B0
:1007600000F013FA2178641C0E042178641C08023E
:1007700006432078641C06432178641C080202901A
:100780002078641C0299084302900198030000F04D
:1007900051FA082905060A102329242900BF002040
:1007A0000290641F20E028480460641F002002902B
:1007B0001AE01E484068B04200D915E00720000347
:1007C000864207D2029842001F480168304600F076
:1007D000A8F809E0641F00BF06E0112000F064F9EA
:1007E00000BFFEE7641F00BF00BF2078641C0190BB
:1007F0000028B5D1112000F057F903E003E02220D2
:1008000000F052F902E0222000F04EF955E7000016
:100810000082044000800440DF000100804004406A
:10082000C03F03500080015000000150E40E000062
:1008300007CD6C28D908E86DEC10001020000010DE
:1008400088100010251331900000001062B6704728
:1008500070B504460E46614D31462046A84770BD2E
:1008600072B67047F8B504460D4616461F46009806
:10087000FFF7F6FF33205A49086008464560866056
:10088000C76004615749FFF7E3FF0098FFF7DEFFF9
:10089000F8BD70B504460D46164632205049086032
:1008A000084644608560C6604E49FFF7D1FF70BDC1
:1008B00070B504460D46164634204949086008467E
:1008C00044608560C6604749FFF7C2FF70BD70B5E0
:1008D00006460D463846FFF7C3FF01241AE0A00084
:1008E00041490858A84214D9A00040490858A842D4
:1008F00009D1324621462046FFF7CBFF324621463A
:100900002046FFF7D5FF324621462046FFF7C1FFBC
:1009100002E0641C062CE2D900BF3846FFF796FFC0
:1009200070BDF8B504460D46174631480090200BBF
:1009300006033A4629462F4800F04AF92E48066039
:10094000012000032D4908600846006801210903C1
:1009500088421DD1284801680098FFF7B8FF214858
:100960000068002801D000BFFEE701231B03214AD5
:10097000214801680098FFF775FF1A4800680028B1
:1009800001D000BFFEE700201C4908601A4908603A
:100990000020F8BD10B572B60120FFF752FC10BD63
:1009A00010B512494868FFF70DFC10BD10B50020C6
:1009B000FFF756FF1248062102680020FFF769FF83
:1009C0000F48062102680020FFF772FF0548006803
:1009D000002801D000BFFEE710BD0000F11FFF1F7F
:1009E0007C12001090120010000F0000E40E0000B6
:1009F00080BB000020000010080000100C00001058
:100A000004000010002000E0401C43498842FBDB4A
:100A1000704700B54148406AC008C0003F4948627D
:100A20000846406A012108433C4948620846806AFA
:100A3000C008C00088620846806A0121084337491F
:100A40008862374800680121090308433449086077
:100A50000120886183203349C860FFF7D3FF00205D
:100A6000304948607D2008600320C86041208862CA
:100A7000FFF7C8FF07202B4988600846806840219F
:100A800008432849886000BF264840696021084023
:100A90006028F9D102E02349086800BF2148406975
:100AA000C007C00FF7D100BD1E490860704710B5E0
:100AB00001E000F06AF81B484069C007C00FF8D099
:100AC00018480068C0B210BD08B5FFF7F0FF6946CE
:100AD0004870FFF7ECFF0146684601700088124934
:100AE000884204D11120FFF7DFFF002008BD6846CF
:100AF00000880D497939884207D11120FFF7D4FFCA
:100B00006E20FFF7D1FF0120F0E72220FFF7CCFF96
:100B10000120EBE77047000090D0030080400440C4
:100B20008080044000800040CEAA00002348006876
:100B30000121C9030843214908602148806B4021F5
:100B400088431F49886301201C494031086148617E
:100B5000002048610120486100BF184840304069CA
:100B6000C007C00FF9D001201449403188611548F1
:100B700015494860AA2088605520886008460068AA
:100B80000321084310490860704710B50F480078EA
:100B9000FF2148400D49087008460078002801DC14
:100BA000012000E00020024600210220FFF76EFB3A
:100BB000AA20054988605520886010BD80800440C7
:100BC00000820440001BB7000040004010000010ED
:100BD00010B5431A934209D28318881803E0401EC7
:100BE00001785B1E1970521EF9D210BD03460B43EB
:100BF0009B0703D009E008C9121F08C0042AFAD2D3
:100C000003E00B78491C0370401C521EF9D210BD42
:100C1000064C0125064E05E02046E36807C82B4335
:100C200098471034B442F7D3FFF74EFA2C0F000068
:100C30004C0F000030B47446641E2578641CAB422F
:100C400004D3635D5B00E31830BC18471D46F8E72A
:100C500002E008C8121F08C1002AFAD1704700201C
:100C600001E001C1121F002AFBD170478002BEA41F
:100C7000F1A6C1B8CA5E07B7499E21B29E87C227B6
:100C800009A1A3ED8C6D2CC770D40A68701D481F94
:100C900016184C794FB22C129CABBE34216ACBFD96
:100CA000549989994348EE9E42D329E8CD64CC47B4
:100CB000481FB5608A747407D75B063A60FE88DB0C
:100CC000B41A14642EE730E6C21F69C93892C426EC
:100CD000F35AF11C10CE0DCB44AAD04ED35D16F4BE
:100CE0001653D5E86E0542C89D296AC02DCA7E3CC0
:100CF00089811A795BB8240ABB91583B38D380B9F3
:100D00004FD410194F99C293216055D76605054DF0
:100D1000A4BA23CCD221B1B0F3879D86217626A335
:100D2000C3128EFE294B2026AB6785A78002BEA486
:100D3000F1A6C1B8CA5E07B7499E21B29E87C227F5
:100D400009A1A3ED8C6D2CC770D40A68701D481FD3
:100D500016184C794FB22C129CABBE34216ACBFDD5
:100D6000549989994348EE9E42D329E8CD64CC47F3
:100D7000481FB5608A747407D75B063A60FE88DB4B
:100D8000B41A14642EE730E6C21F69C9E4D12FB843
:100D90003A6C59070F74E2D1A6CB953841E8D62BAF
:100DA000FC973A50FC8249175B3EA06DF18E6B3484
:100DB000972DC05A3D47F28EC01A69B50E7BA4D15B
:100DC00058C6932FD8A13F42B67C05E9A09E63F593
:100DD0001DC7B428D709346A285ECBF1D6498F30B5
:100DE000B12C5AE71AD069874FE3B52C7DE3069AF8
:100DF0001285BC4FD8B56F03472C1AE9A690CB7D5E
:100E0000F13E52843F06A1D8945BC72E2C417AB69E
:100E1000853FD0E9EB2C47D150FA3986421BAD789B
:100E2000F9C5630EB8C71E2D6F09A453C1AF9268F0
:100E30000D34E75BAF427C9561DE0B389EF528C32D
:100E4000704A1DB6432C95FABE17608D4B2EF08D5F
:100E50003C975A61D0B7491AE35C2F8614BDC37E14
:100E6000AF6805926BD814A7950FE23CD2846FB19E
:100E7000A93E50C71FD8A374C56B0E927B419CE25C
:100E800006ADF35821E74A8DFC90356B0005010251
:100E9000031F0001020304030405060708070809ED
:100EA0000A0B0C0B0C0D0E0F100F10111213141354
:100EB00014151617181718191A1B1C1B1C1D1E1F9A
:100EC000000F0613141C0B1B10000E161904111E24
:100ED000090107170D1F1A0208120C1D05150A0338
:100EE00018000000000000000010000000200000BA
:100EF00000300000004000000050000000600000D2
:100F0000FF0F0000FF1F0000FF2F0000FF3F000049
:100F1000FF4F0000FF5F0000FF6F00000000005067
:100F20000000015000000250000003504C0F000070
:100F30000000001014000000500C0000600F0000C2
:100F400014000010941400005E0C0000000000006B
:100F500080BB000000000000000000000000000056
:04000005000000C136
:00000001FF
