:100000000C9434010C9451010C9451010C94510145
:100010000C9451010C9451010C9451010C94301921
:100020000C9451010C9451010C94FF050C94510156
:100030000C9451010C94E9070C9451010C9451015A
:100040000C94C40B0C9451010C94310C0C948B0C3B
:100050000C946D0C0C9451010C9451010C945101B1
:100060000C9451010C94510100C1814001C08041A8
:1000700001C0804100C1814001C0804100C1814078
:1000800000C1814001C0804101C0804100C1814068
:1000900000C1814001C0804100C1814001C0804158
:1000A00001C0804100C1814001C0804100C1814048
:1000B00000C1814001C0804100C1814001C0804138
:1000C00001C0804100C1814000C1814001C0804128
:1000D00001C0804100C1814001C0804100C1814018
:1000E00000C1814001C0804101C0804100C1814008
:1000F00000C1814001C0804100C1814001C08041F8
:1001000001C0804100C1814000C1814001C08041E7
:1001100001C0804100C1814001C0804100C18140D7
:1001200000C1814001C0804100C1814001C08041C7
:1001300001C0804100C1814001C0804100C18140B7
:1001400000C1814001C0804101C0804100C18140A7
:1001500000C1814001C0804100C1814001C0804197
:1001600001C0804100C1814000C0C101C30302C27F
:10017000C60607C705C5C404CC0C0DCD0FCFCE0EE7
:100180000ACACB0BC90908C8D81819D91BDBDA1A57
:100190001EDEDF1FDD1D1CDC14D4D515D71716D6C7
:1001A000D21213D311D1D010F03031F133F3F23237
:1001B00036F6F737F53534F43CFCFD3DFF3F3EFEA7
:1001C000FA3A3BFB39F9F83828E8E929EB2B2AEA17
:1001D000EE2E2FEF2DEDEC2CE42425E527E7E62687
:1001E00022E2E323E12120E0A06061A163A3A262F7
:1001F00066A6A767A56564A46CACAD6DAF6F6EAE67
:10020000AA6A6BAB69A9A86878B8B979BB7B7ABAD6
:10021000BE7E7FBF7DBDBC7CB47475B577B7B67646
:1002200072B2B373B17170B05090915193535292B6
:1002300096565797559594549C5C5D9D5F9F9E5E26
:100240005A9A9B5B99595898884849894B8B8A4A96
:100250004E8E8F4F8D4D4C8C448485458747468606
:10026000824243834181804011241FBECFEFD4E0FE
:10027000DEBFCDBF11E0A0E0B1E0E4E2F9E302C0EF
:1002800005900D92A032B107D9F714E0A0E2B1E0D9
:1002900001C01D92A835B107E1F70E94BE010C9480
:1002A00060190C9400009C01F999FECF32BD21BD6C
:1002B000F89A80B50895AF92BF92CF92DF92EF92F5
:1002C000FF920F931F93609181027091820280913F
:1002D0008302909184020E94DD0F7B018C01A0902B
:1002E0003801B0903901C0903A01D0903B01C6016D
:1002F000B501A80197010E94751A88230CF45D9A34
:10030000C801B7012AE037ED43E25CE30E94111A0D
:100310009B01AC01C601B5010E94BF1B18160CF46D
:100320005D981F910F91FF90EF90DF90CF90BF905D
:10033000AF90089585E792E060E070E048EB51E00F
:1003400023E531E00E94871982E292E290937602DF
:10035000809375020E945E16419A399A5D98559A6B
:100360000E94E40C0E94B7050E94D5180E94B607AF
:100370000E942E020E94A90B789408951F932EE0EC
:1003800088E190E00FB6F894A895809360000FBEC6
:10039000209360000E949A01A8950E945D0B0E9424
:1003A000670F182F609138017091390180913A01DF
:1003B00090913B0120E030E04AE754E40E94C31BE7
:1003C00020E030E04AEF53E40E94111A0E94EA183C
:1003D0000E9482020E945B01812F60E00E94E50C76
:1003E000DBCFE4E6F0E080818B7F8083259A239A3F
:1003F000229A579A5F9A8DB58E7F8DBD8CB58D7F71
:100400008CBD8CB58E7F8CBD8CB580618CBD8CB560
:1004100080648CBD08958EBD0DB407FEFDCF089598
:100420001F93182F5F9881E10E940B02812F0E9479
:100430000B025F9A1F9108950E94F10180E090E005
:10044000ACECB2E480934F0190935001A093510122
:10045000B093520186E60E9410020895E4E6F0E0AF
:100460008081877F8083229AA1E8B0E081E08C932D
:10047000E0E8F0E080818062808380818160808319
:100480008081826080838C9188608C938C91806164
:100490008C938FEF9FEF90938900809388008C91CD
:1004A00088608C938C9180618C9310928B00109259
:1004B0008A00EFE6F0E08081816080830895AC01DE
:1004C00090932301809322012091200130912101FA
:1004D000C9018C599F4F8417950728F02456304046
:1004E0004217530720F45093210140932001F894C0
:1004F00050938B0040938A0078945093210140934D
:100500002001089560918502709186028091870292
:10051000909188020E94DD0F2091380130913901BD
:1005200040913A0150913B010E94C31B20E030E012
:1005300040E751E40E94791A20E03FEF4FE757E48B
:100540000E94C31B0E94E11AAB01709323016093C8
:1005500022012091200130912101C9018C599F4F26
:100560008417950728F0245630404217530720F48B
:100570005093210140932001F89450938B004093B5
:100580008A0078945093210140932001089587BDFB
:1005900008952F923F924F925F926F927F928F9227
:1005A0009F92AF92BF92CF92DF92EF92FF920F9302
:1005B0001F93CF93DF9357E0A52E01C0AA94E0903C
:1005C0003801F090390100913A0110913B01CA2D98
:1005D000D0E0FE01EE0FFF1FEE0FFF1FEB51FC4FAF
:1005E00060817181828193810E94DD0F9B01AC014A
:1005F000C801B7010E94751A882314F4AA20F1F6E5
:10060000FE01EE0FFF1FEE0FFF1FEB51FC4F60814D
:100610007181828193810E94DD0F3B014C01FE01BB
:10062000EE0FFF1FEE0FFF1FE751FC4F608171813E
:10063000828193810E94DD0F1B012C01CC0FDD1FF5
:10064000CC0FDD1FFE01E75FFB4F6081718182816E
:1006500093810E94DD0F5B016C01C35FDB4F6881FA
:1006600079818A819B810E94DD0FA60195010E94FC
:10067000101A7B018C0160913801709139018091D1
:100680003A0190913B01A40193010E94101A9B0131
:10069000AC01C801B7010E94C31B7B018C01C201E0
:1006A000B101A40193010E94101A9B01AC01C80181
:1006B000B7010E94791AA60195010E94111ADF91D3
:1006C000CF911F910F91FF90EF90DF90CF90BF904F
:1006D000AF909F908F907F906F905F904F903F90E2
:1006E0002F90089587E00E945E1720E030E048EAEE
:1006F00051E40E94791A089586E00E945E1720E076
:1007000038ED46ED57E40E94C31B20E030E44CE195
:1007100056E40E94791A0895AF92BF92CF92DF9269
:10072000EF92FF920F931F930E9472036093280130
:100730007093290180932A0190932B010E947C03DE
:100740007B018C0160932401709325018093260125
:10075000909327012FE832EC45E75CE30E94751A7D
:1007600088230CF443C0A0902801B0902901C090C8
:100770002A01D0902B01C601B50127E137EB41EDED
:1007800058E30E94751A8823B4F560915301709163
:10079000540180915501909156012DEC3CEC4CE4B4
:1007A0005DE30E94BF1B87FD21C0609153017091E2
:1007B000540180915501909156012DEC3CEC4CE494
:1007C0005DE30E94101A609353017093540180936B
:1007D000550190935601609153017091540180919D
:1007E0005501909156010E94E11A67BDE0E070E06A
:1007F00080E86FEB1EC0C801B70120E038ED46ED80
:1008000057E40E94791A9B01AC01C601B5010E9410
:10081000111A9B01AC016093280170932901809308
:100820002A0190932B01C801B7010E94791AE62F83
:10083000692F2E2F372F482F562FB901CA011F912C
:100840000F91FF90EF90DF90CF90BF90AF90089501
:100850002F923F924F925F926F927F928F929F92D0
:10086000AF92BF92CF92DF92EF92FF920F931F93BE
:100870005B016C0119012A010E948C0360932C0119
:1008800070932D0180932E0190932F0160912C0184
:1008900070912D0180912E0190912F0120E030E088
:1008A00040E85FEB0E94751A882309F40EC120917D
:1008B0002C0130912D0140912E0150912F01C60144
:1008C000B5010E94101A3B014C01E89497F8C4014D
:1008D000B30120E030E040E05FE30E94751A181693
:1008E0000CF0E0C0C201B1012AE037ED43E25CE365
:1008F0000E94C31B9B01AC01C401B3010E94BF1B3A
:1009000018165CF00F2EFDECEF2EFCECFF2EFCE435
:100910000F2FFDE31F2FF02D0AC00F2EF0E0EF2E5A
:10092000F0E0FF2EF0E00F2FFFE31F2FF02D60917E
:100930002C0170912D0180912E0190912F01A60123
:1009400095010E94751A88230CF03FC0A0904F01BA
:10095000B0905001C0905101D0905201C801B70130
:1009600020E030E040EC50E40E94111A9B01AC0101
:10097000C601B5010E94BF1B88233CF0C601B5012A
:10098000A80197010E94101A4DC060915301709107
:100990005401809155019091560123E333EF4EE7C6
:1009A00053E40E94751A18160CF47EC0609153012E
:1009B0007091540180915501909156012DEC3CECC1
:1009C0004CE45DE30E94111A5AC0C601B50120E053
:1009D00030E04CE052E40E94751A87FD05C060E0EB
:1009E00070E082E593E404C060E070E08BE793E49C
:1009F000A0904F01B0905001C0905101D090520191
:100A0000A80197010E94101A9B01AC01C601B50113
:100A10000E94751A1816ACF0C601B501A80197011D
:100A20000E94111A60934F017093500180935101FD
:100A3000909352010E94E11ADC01CB010E94100246
:100A400031C0609153017091540180915501909192
:100A500056012DEC3CEC4CE45DE30E94BF1B882367
:100A60001CF1609153017091540180915501909156
:100A700056012DEC3CEC4CE45DE30E94101A6093AF
:100A800053017093540180935501909356016091E6
:100A900053017091540180915501909156010E942B
:100AA000E11A67BD10E012C010E0C201B1012DECE7
:100AB0003CEC4CE45EE30E94C31B9B01AC01C4010F
:100AC000B3010E94BF1B18160CF411E0812F1F9177
:100AD0000F91FF90EF90DF90CF90BF90AF909F90DD
:100AE0008F907F906F905F904F903F902F900895E0
:100AF000EF92FF920F931F938091790290917A0267
:100B0000892B11F480E02EC06091290470912A0491
:100B100080912B0490912C040E94DD0F7B018C01AD
:100B20006091090470910A0480910B0490910C0467
:100B30000E94DD0FA80197010E94BF1B181664F4E4
:100B40006091090470910A0480910B0490910C0447
:100B50000E94DD0F7B018C010E94C902A801970150
:100B60000E9428041F910F91FF90EF9008950E941A
:100B70001F170E941C02809164008F7D8093640087
:100B800082E085BD84B5806884BD84B5816084BD04
:100B900084B5826084BD5B9A539A60910904709118
:100BA0000A0480910B0490910C0420912904309147
:100BB0002A0440912B0450912C040E94BF1B18164C
:100BC0002CF480E090E0AFE7B3E404C080E090E074
:100BD000A0E0B0E08093530190935401A09355019D
:100BE000B093560160915301709154018091550169
:100BF000909156010E94E11A67BD569A08951F927E
:100C00000F920FB60F9211248F939F9380915B01E7
:100C1000813019F0823041F50BC0B09911C080913C
:100C200086009091870090935D0180935C011CC0C9
:100C30008091570190915801439728F0B09B03C0D1
:100C400010925B0111C08091590190915A01019657
:100C500090935A018093590180918600909187006A
:100C600090935F0180935E019F918F910F900FBED3
:100C70000F901F901895AF92BF92CF92DF92EF9294
:100C8000FF920F931F9380915B01833029F0E0E086
:100C900070E080E86FEB8CC020915C0130915D01C9
:100CA00040E050E08FEF9FEFA0E0B0E0821B930B9D
:100CB000A40BB50B8093600190936101A093620136
:100CC000B0936301E0906001F090610100916201D6
:100CD00010916301609157017091580180E090E09C
:100CE0002FEF3FEF40E050E00E94261CE60EF71E7B
:100CF000081F191FE0926001F092610100936201E8
:100D00001093630120916001309161014091620173
:100D10005091630180915E0190915F012F5F3F4F81
:100D200040405040A0E0B0E0280F391F4A1F5B1F31
:100D300020936001309361014093620150936301FD
:100D40006091590170915A01A0906001B0906101C9
:100D5000C0906201D090630180E090E00E940D1B82
:100D600020E030E041E65BE40E94C31B7B018C0184
:100D7000C601B5010E940F1B9B01AC01C801B70160
:100D80000E94791AE62F692F10925D0110925C0182
:100D900010925F0110925E0110925801109257015B
:100DA0001092600110926101109262011092630131
:100DB0002E2F372F482F562FB901CA011F910F919F
:100DC000FF90EF90DF90CF90BF90AF90089528B143
:100DD0002F7C28B928B134E0880F991F3A95E1F7A4
:100DE000282B28B90895AF92BF92CF92DF92EF924D
:100DF000FF920F931F938091300190913101892BC5
:100E0000F1F48091320190913301019683709070DA
:100E1000909333018093320128B12F7C28B928B1F7
:100E200044E0880F991F4A95E1F7282B28B91092C2
:100E30005B0181E090E090933101809330018091DB
:100E4000300190913101019799F40E943B0620E016
:100E500030E040E85FEB0E94751A882309F47DC0FA
:100E600082E090E0909331018093300110925B0119
:100E70008091300190913101029759F00F2EF0E0EE
:100E8000EF2EF0E0FF2EF0E00F2FF0E01F2FF02DFF
:100E900011C00E943B067B018C0120E030E040E85D
:100EA0005FEB0E94751A882309F457C01092310134
:100EB00010923001209132013091330186E590E0AB
:100EC000289FF001299FF00D389FF00D1124EB5859
:100ED000FD4F608D718D828D938D0E94DD0F5B01C2
:100EE0006C0120E030E040E050E00E94751A882359
:100EF00029F4EE2D7F2D802F612F14C0C801B7017A
:100F0000A60195010E94101A20E030E040E85EE35F
:100F10000E94C31B9B01AC01C601B5010E94111ABE
:100F2000E62F692F00913201109133012E2F372FB8
:100F3000482F562FB901CA010E94DD0F26E530E087
:100F4000029FF001039FF00D129FF00D1124EB584A
:100F5000FD4F608F718F828F938F1F910F91FF9044
:100F6000EF90DF90CF90BF90AF9008950F931F93B5
:100F70008091890290918A020E94F40F8C0160E0B6
:100F800070E080E090E00E94DD0FAB01BC01EDE875
:100F9000F2E086E590E0089F9001099F300D189FD0
:100FA000300D11242E0F3F1F06C0408351836283F2
:100FB0007383EA5AFF4FE217F307B9F720983C9A78
:100FC0003D9A80916F00806280936F001F910F9116
:100FD00008951F920F920FB60F9211242F933F93F3
:100FE0004F935F936F937F938F939F93AF93BF9331
:100FF000EF93FF9380915B01813029F08130F0F015
:101000008230F9F40AC010925801109257011092E0
:101010005A011092590182E012C0809157019091BB
:101020005801019690935801809357018091570180
:1010300090915801449728F083E001C081E08093AB
:101040005B010E94F30CFF91EF91BF91AF919F91D3
:101050008F917F916F915F914F913F912F910F9061
:101060000FBE0F901F9018950E94EE0B0895FF92EF
:101070000F93CF93DF93F82E062F6D3F90F0809162
:101080006A0190916B01019690936B0180936A01C4
:101090008091780180688093780183E08093790162
:1010A00002E00E949B0BC7E7D1E0F0927701602F2E
:1010B0006F5FCE014FEF5FEF0E94800BE02FF0E0FB
:1010C000EC0FFD1F81839283D0937202C093710253
:1010D0000D5F00933401E0917302F0917402359733
:1010E0008081806280838091C10084FFFCCF109258
:1010F0003501DF91CF910F91FF900895682F809176
:1011000000010E943708089520916A0130916B0117
:101110002F5F3F4F30936B0120936A0190917801CC
:101120009068909378018093790182E00E947E0814
:101130000895DC011296EC9112978E2F8B50883017
:10114000B0F4F0E0EE0FFF1FE05BFE4F81811396DD
:101150008C9313971296EC911297F0E0EE0FFF1F0D
:10116000E05BFE4F808114968C9385E012C0EE23E5
:1011700079F0EA3049F4E6E6F1E01192119281E06B
:10118000E637F807D1F704C081E00E94840808958B
:10119000862F0E947E08089560913401625087E78F
:1011A00091E04FEF5FEF0E94800BE0913401F0E09F
:1011B000EB58FE4F208131818217930711F480E0B4
:1011C000089583E008951F93182F8091340184308F
:1011D00020F1809134018B3F00F50E94CC088823D8
:1011E000E1F4809166019091670101969093670107
:1011F0008093660180917701882311F08117B1F403
:1012000080916C0190916D01019690936D01809396
:101210006C018091340183500AC0809168019091E3
:1012200069010196909369018093680180E01F91A4
:1012300008959C01F999FECF32BD21BDF89A80B581
:1012400008959C01F999FECF1FBA32BD21BD60BD42
:101250000FB6F894FA9AF99A0FBE0895FC016281CC
:10126000738184819581613822E4720720E08207CE
:1012700020E0920720F082E00E9484080895AF01E8
:10128000495F5F4F26810E94B01C87E00E947E0864
:101290000895DF93CF9300D000D0CDB7DEB79C0187
:1012A000DE011196FC013496838189838281119637
:1012B0008C931197818112968C931297F9018481F6
:1012C00013968C9389819A81AB81BC818030FBE439
:1012D0009F07F0E0AF07F0E0BF0709F45BC0813083
:1012E0004BE4940740E0A40740E0B40738F5803CA5
:1012F000E2E19E07E0E0AE07E0E0BE0709F44AC085
:10130000813CF2E19F07F0E0AF07F0E0BF0738F45F
:1013100080569940A040B04009F064C03BC080387E
:10132000E5E29E07E0E0AE07E0E0BE0799F18054F9
:101330009843A040B04009F055C02CC0803041EE29
:10134000940740E0A40740E0B40721F18130E1EECA
:101350009E07E0E0AE07E0E0BE0778F48038F0E7F3
:101360009F07F0E0AF07F0E0BF07A1F0805096497B
:10137000A040B04009F036C00DC08030ECE29E07BE
:10138000E1E0AE07E0E0BE0729F08050924CA140BA
:10139000B04041F5F9018181823020F5428144233A
:1013A00009F183818823F1F0F999FECF1FBA88EB08
:1013B00091E092BD81BD40BD0FB6F894FA9AF99ABA
:1013C0000FBE89EB91E0BE016F5F7F4F44E050E0BC
:1013D00021E239E00E94B9198CE00E947E080E9447
:1013E000A90B03C083E00E9484080F900F900F9018
:1013F0000F90CF91DF910895CF93DF93EC01EE81B1
:10140000E63FC0F58981882319F0813099F517C02E
:101410002A813B814C815D81DA01C9018E0F911DCA
:10142000A11DB11D81589244A040B040B8F4CE0136
:101430000796B9014E2F50E00E9463191FC02A8100
:101440003B814C815D81DA01C9018E0F911DA11D87
:10145000B11D81509240A040B04010F082E00BC01E
:10146000CE010796B9014E2F50E029E139E00E94E4
:10147000871904C083E00E94840804C08E81895FBC
:101480000E947E08DF91CF910895CF93DF93EC0106
:10149000998180E02A81422F50E0482B592B9B8173
:1014A00080E02C8130E0282B392BF901EE0FFF1F53
:1014B000E9834C3D5105C8F4240F351F2D3D3105FE
:1014C00090F49E012E5F3F4F440F551F4B585D4FC8
:1014D000C901BA014E2F50E00E946C1989818E5FBC
:1014E0000E947E0805C083E001C082E00E9484085B
:1014F000DF91CF910895CF92DF92EF92FF920F93F9
:101500001F93CF93DF938C017B01CB010E94F40FDB
:10151000000F111F04311105D9F401970497C0F091
:1015200027C0C7010E94F40F9C01CC9DC001CD9D36
:10153000900DDC9D900D112484599F4F08171907B9
:1015400029F4225030402D31310590F4219605C008
:10155000C0E0D0E026E5C22ED12C80918902909186
:101560008A020E94F40FC817D907D8F281E001C09F
:1015700080E0DF91CF911F910F91FF90EF90DF906E
:10158000CF900895EF92FF920F931F93DF93CF9325
:1015900000D0CDB7DEB7FC01918180E02281022F1F
:1015A00010E0082B192B948180E02381622F70E0DA
:1015B000682B792B7A83698381E0083B180708F050
:1015C00042C00C3D110510F4780106C054E2E52E2E
:1015D0005FEFF52EE00EF11EC7010E947B0A882303
:1015E00011F483E031C0EE0CFF1C0C3D110550F0EE
:1015F000E5E7F2E0EE0EFF1E89819A81F701918303
:10160000808317C0870100501040C801BE016F5F82
:101610007F4F42E050E021E239E00E94B919C70152
:101620008B589D4FB80142E050E029E139E00E941B
:10163000871982E292E2909376028093750285E0A8
:101640000E947E0803C082E00E9484080F900F90E1
:10165000CF91DF911F910F91FF90EF900895FC01C2
:101660008081883011F1893028F4843051F086303F
:1016700001F50BC0863469F0873499F08534C9F4DC
:101680000CC0CF010E94450A0895CF010E94C20AF2
:101690000895CF010E94FC090895CF010E942E09F0
:1016A0000895CF010E9449090895CF010E94990829
:1016B000089581E00E94840808951F9380917B0221
:1016C00090917C02892B31F080918B0290918C0259
:1016D000892BA1F00E94EE0B182F882369F08091CE
:1016E00000010E94E308882339F01092500488E733
:1016F00091E0612F0E942F0B0E9468111F910895A5
:10170000DC010FC0ED91E4272E2F30E0C90188598C
:101710009F4FFC014491452728593E4FF9015491B0
:101720006150662379F7952F80E0242F30E0282B35
:10173000392BC9010895E1ECF0E080818F7E808330
:101740005A9A08955A98E1ECF0E080818061808394
:101750000895E1ECF0E080818869808386EC90E078
:1017600090937402809373025A98529A8FE28093F6
:10177000C40083E68093000181E08BB9EEE6F0E0DF
:1017800080818160808308951F920F920FB60F921F
:1017900011248F939F93AF93BF93809176018F5FB6
:1017A0008093760180912D0490912E04A0912F04B6
:1017B000B09130040196A11DB11D80932D0490932A
:1017C0002E04A0932F04B0933004BF91AF919F914A
:1017D0008F910F900FBE0F901F901895809136013A
:1017E0008130E9F0813028F0823031F18330B9F571
:1017F0002DC080913501882361F4809176018D316F
:1018000070F181E0809336011092340180933501AC
:1018100011C081E0809335011092340109C080919C
:101820003501823021F0809135018530C1F482E0AC
:101830008093360180E00895809176018E3030F0FB
:1018400083E08093360185E08093350180917601B5
:101850008D3128F01092360180913401089580E096
:1018600008951F920F920FB60F9211248F939F939A
:10187000EF93FF93E0917302F09174029081809155
:101880003501853019F4109234011EC08091350164
:101890008823C1F080913401882319F482E0809379
:1018A000350180913401E82FF0E0E958FE4F908334
:1018B0008F5F80933401809134018A3F18F085E076
:1018C0008093350110927601FF91EF919F918F9156
:1018D0000F900FBE0F901F9018951F920F920FB68A
:1018E0000F9211248F93EF93FF93E1ECF0E080814E
:1018F0008F7B80835A9880818061808381E0809390
:10190000350110927601FF91EF918F910F900FBEEC
:101910000F901F9018951F920F920FB60F921124DF
:101920008F939F93AF93BF93EF93FF93A091730215
:10193000B0917402E0917102F091720280818C93F7
:10194000809171029091720201969093720280933D
:10195000710280913401815080933401809134016F
:10196000882369F4E0917302F091740235978081C5
:101970008F7D80838091C10080648093C100FF913E
:10198000EF91BF91AF919F918F910F900FBE0F90EC
:101990001F901895DF93CF9300D000D0CDB7DEB75E
:1019A000BC01CE01019644E050E00E9463192981F8
:1019B0003A814B815C81B901CA010F900F900F9061
:1019C0000F90CF91DF9108950895882319F466232D
:1019D00039F0862F90E0880F991F809301010895B8
:1019E0001092010108958091020190910301892BC9
:1019F00031F08091020190910301019717C088B1E5
:101A000092E0892788B9809137018F5F80933701F1
:101A10009091370180910101981730F04198109210
:101A2000370182EC91E002C083E490E090930301DF
:101A30008093020108958F929F92AF92BF92DF929E
:101A4000EF92FF920F931F93CF93DF93DD240F2E1E
:101A5000F0E0EF2EF0E0FF2EF0E00F2FF0E01F2F70
:101A6000F02D26E5822E912C9CE3A92EB12C28C0C6
:101A7000C89DF001C99DF00DD89DF00D1124EF51C6
:101A8000FD4F808191810E94F40FCA9D9001CB9DF2
:101A9000300DDA9D300D1124280F391F220F331F0E
:101AA000220F331FC9018C58944C0E94CA0C9B0111
:101AB000AC01C801B7010E94111A7B018C01D394BB
:101AC0008091890290918A020E94F40FCD2DD0E07E
:101AD000C817D90768F2B701C801DF91CF911F91EC
:101AE0000F91FF90EF90DF90BF90AF909F908F90FD
:101AF00008950F931F938C0186E590E0089FF001F5
:101B0000099FF00D189FF00D1124EF51FD4F8081BA
:101B100091810E94F40F2CE330E0A901049F900111
:101B2000059F300D149F300D1124280F391F220FEF
:101B3000331F220F331FC9018450954C0E94CA0CD9
:101B40001F910F9108952F923F924F925F926F9243
:101B50007F928F929F92AF92BF92CF92DF92EF923D
:101B6000FF920F931F93DF93CF9300D000D0CDB798
:101B7000DEB75C0186E590E0A89E6001A99ED00CCE
:101B8000B89ED00C11248DE892E0C80ED91EF60143
:101B900060817181828193810E94DD0F69837A83E4
:101BA0008B839C83C5010E94790D7B018C0120E011
:101BB00030E84BEB54E40E94751A882354F40F2E3E
:101BC000F0E0EF2EF0E8FF2EFBEB0F2FF4E41F2FD9
:101BD000F02D80EF90E0A89E4001A99E900CB89E49
:101BE000900C112480E09BE3880E991EC4010E9492
:101BF000CA0C20E030E048E452E40E94101A9B0135
:101C0000AC0169817A818B819C810E94BF1B8823F2
:101C10000CF4D4C0C801B70120E030E048E452E43D
:101C20000E94111A9B01AC0169817A818B819C8190
:101C30000E94751A18160CF4C1C0C4010E94CA0C87
:101C40009B01AC0169817A818B819C810E94751A0C
:101C500088233CF4C4010E94CA0C69837A838B8375
:101C60009C83C5010E94790D9B01AC0169817A8139
:101C70008B819C810E94BF1B18163CF4C5010E94F9
:101C8000790D69837A838B839C83F601EC5AFF4F2D
:101C9000808191810E94F40F082F02508CE390E024
:101CA000A89E6001A99ED00CB89ED00C112401C042
:101CB0000150E02EFF24C7018C0D9D1D880F991F38
:101CC000880F991F8050954C0E94CA0C9B01AC0153
:101CD00069817A818B819C810E94751A882314F412
:101CE000002331F78CE390E0A89E6001A99ED00C00
:101CF000B89ED00C1124EC0CFD1CEE0CFF1CEE0C5D
:101D0000FF1CC7018050954C0E94CA0C3B014C013E
:101D100010E00F5F1F4F0C0D1D1D000F111F000F56
:101D2000111FC8018050954C0E94CA0C1B012C0148
:101D3000C7018858944C0E94CA0C5B016C01C80111
:101D40008858944C0E94CA0CA60195010E94101A52
:101D50007B018C0169817A818B819C81A401930133
:101D60000E94101A9B01AC01C801B7010E94C31B5D
:101D70007B018C01C201B101A40193010E94101AE0
:101D80009B01AC01C801B7010E94791AA601950117
:101D90000E94111A7B018C0120E030E040E85FEBEB
:101DA0000E94BF1B181654F4C801B70120E030E5AB
:101DB00043EC57E40E94751A882354F00F2EF0E08C
:101DC000EF2EF0E0FF2EF0E00F2FF0E01F2FF02DB0
:101DD000B701C8010F900F900F900F90CF91DF9136
:101DE0001F910F91FF90EF90DF90CF90BF90AF9039
:101DF0009F908F907F906F905F904F903F902F902B
:101E00000895DF92EF92FF920F931F93DD240F2E20
:101E1000F0E0EF2EF0E0FF2EF0E00F2FF0E01F2FAC
:101E2000F02D0DC08D2D90E00E94A30D9B01AC0103
:101E3000C801B7010E94111A7B018C01D3948091D3
:101E4000890290918A020E94F40F2D2D30E028170C
:101E5000390740F3B701C8011F910F91FF90EF9030
:101E6000DF900895EF92FF920F931F930E94010F4E
:101E70007B018C010E941B0D9B01AC01C801B701C5
:101E80000E94791A7B018C0120E030E040E85FEB92
:101E90000E94BF1B181654F4C801B70120E030E0BF
:101EA00040E050E40E94751A87FD0AC00F2EF0E052
:101EB000EF2EF0E0FF2EF0E00F2FF0E01F2FF02DBF
:101EC000B701C8011F910F91FF90EF900895BF9245
:101ED000CF92DF92EF92FF920F931F93CF93DF93F6
:101EE0008091890290918A020E94F40F6C010E94F5
:101EF000F306CCE3D1E00DE812E07E01EC0CFD1C12
:101F0000A3E0BA2E14C01882F80160817181828129
:101F100093810E94DD0F20E030E040E85FE30E9403
:101F2000751A88230CF4B88221960A5A1F4FCE15D1
:101F3000DF0549F70E94320F609338017093390131
:101F400080933A0190933B010E94DD0F60937D02E4
:101F500070937E0280937F029093800220E030E0B5
:101F60000BC0F901E45CFE4F8081833019F4822FAD
:101F70008E5F06C02F5F3F4F2C153D0590F380E02C
:101F8000DF91CF911F910F91FF90EF90DF90CF9055
:101F9000BF900895362F3695DC01E62FF0E031979B
:101FA000E80FF91F20E006C09C9180818D939083FB
:101FB0002F5F31972317C0F30895DF93CF9300D09D
:101FC00000D0CDB7DEB769837A838B839C832C8165
:101FD0003B814A815981B901CA010F900F900F903E
:101FE0000F90CF91DF910895DF93CF9300D0CDB7BD
:101FF000DEB79A838983982F8A810F900F90CF91B3
:10200000DF9108959C01F999FECF1FBA32BD21BD21
:1020100060BD0FB6F894FA9AF99A0FBE0895DF934F
:10202000CF9300D000D0CDB7DEB710927C021092D3
:102030007B0280E090E065E772E048EB51E022E04F
:1020400030E10E94B919F999FECF1FBA88EB91E0EF
:1020500092BD81BD83E680BD0FB6F894FA9AF99AD5
:102060000FBE80E09BE4A0E0B0E089839A83AB835D
:10207000BC8389EB91E0BE016F5F7F4F44E050E08D
:1020800022E030E10E94B9190E94A90B0F900F9035
:102090000F900F90CF91DF91089532990EC08091EB
:1020A0004001909141018353924038F08091420168
:1020B000882319F481E080934201329B1EC0109264
:1020C000410110924001809142018823B1F01092A9
:1020D0004201F894419A20E030E040E050E9CA0122
:1020E0000197F1F7A8952F5F3F4F81E02C32380719
:1020F000B1F70E940F10419878940895809177016C
:10210000843489F4809178018F3411F488E703C016
:10211000803549F489E780933404809100018093ED
:10212000350484E0089583E00895109232040E94FB
:102130009B0B87E791E090937202809371028091EC
:102140003304809334018091C10080628093C10088
:102150008091C10084FFFCCF08951F93CF93DF933C
:1021600010E060E0C82FD0E0219707C0E958FE4F8B
:1021700080810E940517682F1F5FE12FF0E0EC17A8
:10218000FD07A4F3862FDF91CF911F9108958091D1
:1021900034018093330480917701813321F580915C
:1021A0003401843000F1809134010E94AD10E0913F
:1021B0003401F0E0EA58FE4F9081891751F4809184
:1021C000780180933504809179018093340484E010
:1021D00008958091780180933504809179018093EE
:1021E000340483E0089583E00895809134018330BE
:1021F00050F180917701843489F4809178018F3493
:1022000011F488E703C0803549F489E780933404EA
:10221000809100018093350481E008950E94C710E9
:10222000843071F480915304882321F48091350423
:102230008F3F59F09091350480910001981729F053
:1022400081E08093320480E0089581E008951F9337
:10225000109232040E949B0B8EE380937701809151
:102260003504809378018091340480937901109132
:102270003304809133040E94AD10E12FF0E0EA585E
:10228000FE4F808387E791E0909372028093710202
:1022900080913304809334018091C10080628093E7
:1022A000C1008091C10084FFFCCF1F91089510925E
:1022B0007A0185E0809333040E942711089581E01C
:1022C00080937A0185E0809333040E94271108955A
:1022D000EF92FF920F931F9380915004882391F106
:1022E000E0902D04F0902E0400912F041091300402
:1022F00060911F0170E080E090E020E23CE140E06E
:1023000050E00E94261C6E157F0580079107D0F4CF
:1023100080913104823051F4809100018093350422
:1023200087E08093340482E090E002C081E090E096
:102330000E94BA1410922D0410922E0410922F04B1
:10234000109230040E94F510882309F4AAC010925C
:102350005004809134048C3009F484C08D3058F5D9
:10236000863009F461C0873098F4833009F453C093
:10237000843038F4813009F448C0823009F08FC0CD
:1023800047C0843009F44AC0853009F088C049C08C
:10239000893009F45EC08A3038F4873009F44EC0C1
:1023A000883009F07CC052C08A3009F455C08B30A7
:1023B00009F075C054C0833109F463C0843198F4C6
:1023C0008F3009F458C0803138F48D3009F44DC095
:1023D0008E3009F064C04CC0813109F44CC08231A8
:1023E00009F05DC04BC0873109F454C0883138F41E
:1023F000843109F449C0853109F051C048C088379B
:10240000B1F0893709F04BC01CC00E94FE1549C0CD
:102410000E94521446C00E94C11343C00E94AB13D5
:1024200040C00E94F9133DC082E090E004C00E94C9
:10243000B11281E090E00E94BA1433C082E090E0D3
:1024400002C081E090E00E9475132BC00E947314BB
:1024500028C00E94461325C00E94431322C00E9438
:1024600040131FC00E943D131CC00E943A1319C0A4
:102470000E94371316C00E94311313C00E942E13FE
:1024800010C00E9411130DC00E94E7130AC00E94E1
:10249000D71307C080917A010E94D21202C00E9415
:1024A00057111F910F91FF90EF9008959C01F9999A
:1024B000FECF32BD21BDF89A80B508959C01F999EF
:1024C000FECF1FBA32BD21BD60BD0FB6F894FA9A97
:1024D000F99A0FBE0895EF92FF920F931F93E09029
:1024E0003801F090390100913A0110913B01C80187
:1024F000B70120E030E04AE754E40E94C31B0E9489
:10250000E11A7093400460933F04C801B70120E0D2
:1025100030EC4FE754E40E94C31B0E94E11A709311
:102520003A04609339041F910F91FF90EF90089542
:10253000F999FECF2AEE31E032BD21BDF89A80B57F
:10254000882371F4F999FECFF999FECF1FBA32BDF5
:1025500021BD81E080BD0FB6F894FA9AF99A0FBEBA
:102560000895F999FECF2AEE31E032BD21BDF89AE7
:1025700080B5882369F0F999FECFF999FECF1FBA8B
:1025800032BD21BD10BC0FB6F894FA9AF99A0FBE6D
:102590000895F999FECF8AEE91E092BD81BDF89A37
:1025A00080B508951F93182F882391F4F999FECFD1
:1025B000F999FECF1FBA85EC91E092BD81BD10BCA8
:1025C0000FB6F894FA9AF99A0FBE0E94B11225C07C
:1025D000813081F40E94B11210935004F999FECF1A
:1025E000F999FECF1FBA85EC91E092BD81BD81E0E3
:1025F00080BD0EC0823089F40E949812F999FECFF6
:10260000F999FECF1FBA85EC91E092BD81BD10BC57
:102610000FB6F894FA9AF99A0FBE0E9457111F91BB
:10262000089580917A0180931F01882319F481E035
:1026300080931F01F999FECF20911F01F999FECFD8
:102640001FBA83EC91E092BD81BD20BD0FB6F89416
:10265000FA9AF99A0FBE0E94571108950E945711D5
:1026600008950E94571108950E94571108950E94DD
:10267000571108950E94571108950E945711089507
:102680000E94571108950E9457110895EF92FF92EA
:102690000F931F93E0903801F090390100913A01B7
:1026A00010913B01C801B70120E030E04AE754E453
:1026B0000E94C31B0E94E11A7093400460933F0480
:1026C000C801B70120E030EC4FE754E40E94C31B7F
:1026D0000E94E11A70933A04609339040E945711E2
:1026E0001F910F91FF90EF900895029779F40E9447
:1026F000571182E08093310491E0909350048091CF
:102700001F01882339F590931F010895F999FECF91
:1027100025EC31E032BD21BDF89A80B5882369F0FF
:10272000F999FECFF999FECF1FBA32BD21BD10BC79
:102730000FB6F894FA9AF99A0FBE0E94981291E097
:10274000909331049093500480911F01882311F4D9
:1027500090931F01089520917A0120935304F999D1
:10276000FECFF999FECF1FBA8EEB91E092BD81BDED
:1027700020BD0FB6F894FA9AF99A0FBE0E9457112D
:10278000089520917A01F999FECFF999FECF1FBAE9
:1027900088EB91E092BD81BD20BD0FB6F894FA9A06
:1027A000F99A0FBE209300010E9457110895F999DC
:1027B000FECF84EC91E092BD81BDF89A80B5809304
:1027C0007A0185E0809333040E9427110895F999D6
:1027D000FECF82EC91E092BD81BDF89A80B58093E6
:1027E000470480937A0185E0809333040E94271187
:1027F00008952091490430914A0440914B0450912E
:102800004C04852F9927AA27BB2780937D01CA01F5
:10281000AA27BB2780937C01BB27A52F942F832F4A
:1028200080937B0120937A01909154048091550408
:1028300080937F0190937E01909151048091520486
:10284000809381019093800190914D0480914E047A
:102850008093830190938201809148048093840146
:10286000909137048091380480938601909385017C
:102870009091410480914204809388019093870154
:1028800080910001809389018091530480938A0193
:1028900080914F0480938B0186E1809333040E94E2
:1028A000271108952091490430914A0440914B0426
:1028B00050914C04852F9927AA27BB2780937D012F
:1028C000CA01AA27BB2780937C01BB27A52F942F81
:1028D000832F80937B0120937A0188E080933304D7
:1028E0000E9427110895EF92FF920F931F93CF93A9
:1028F000DF93E0903801F090390100913A01109196
:102900003B01C801B70120E030E04AE754E40E94EF
:10291000C31B0E94E11AEB017093400460933F04D3
:10292000C801B70120E030EC4FE754E40E94C31B1C
:102930000E94E11A70933A0460933904F999FECF2A
:1029400084ED91E0BE014EE552E10E94D51984ED7F
:1029500091E066E572E10E94A3199093520480937E
:1029600051040E945711DF91CF911F910F91FF9059
:10297000EF900895AF92BF92CF92DF92EF92FF92C5
:102980000F931F93DF93CF9300D000D000D0CDB72B
:10299000DEB7A0903801B0903901C0903A01D090D4
:1029A0003B01029781F5C601B50120E030E04AE71E
:1029B00054E40E94C31B0E94E11A7B018C016093C6
:1029C0003F04F0924004C601B50120E030EC4FE72F
:1029D00054E40E94C31B0E94E11A6093390470936F
:1029E0003A042091360420937A0160937B0170931E
:1029F0007C01E0927D01F0927E0189E080933304B6
:102A00000E942711EAC0C601B50120E030E04AE784
:102A100054E40E94C31B0E94E11A70934004609327
:102A20003F04C601B50120E030EC4FE754E40E94BA
:102A3000C31B0E94E11A70933A046093390487E73C
:102A400091E064E071E00E94801987E791E065E021
:102A500071E00E94751980913F04909140048E01AD
:102A60000F5F1F4FB80140E150E00E94EA19F801E2
:102A700001900020E9F73197E01BF10BE430F105FC
:102A8000A4F4CC24DD2404E010E00E1B1F0B09C0CD
:102A900087E791E068E071E00E9475190894C11C15
:102AA000D11CC016D106A4F307C0349729F0C80181
:102AB0006AE071E00E94801987E791E08E010F5F64
:102AC0001F4FB8010E94751987E791E06FE071E030
:102AD0000E9475198091360490E0B80140E150E001
:102AE0000E94EA19F80101900020E9F73197E01BF4
:102AF000F10BE230F105A4F4CC24DD2402E010E077
:102B00000E1B1F0B09C087E791E068E071E00E948F
:102B100075190894C11CD11CC016D106A4F307C0B6
:102B2000329729F0C80163E171E00E94801987E7BC
:102B300091E08E010F5F1F4FB8010E94751987E762
:102B400091E066E171E00E947519809139049091DD
:102B50003A04B80140E150E00E94EA19F8010190FE
:102B60000020E9F73197E01BF10BE430F105A4F404
:102B7000CC24DD2404E010E00E1B1F0B09C087E706
:102B800091E068E071E00E9475190894C11CD11CA5
:102B9000C016D106A4F307C0349729F0C8016AE033
:102BA00071E00E94801907E711E0C801BE016F5F64
:102BB0007F4F0E947519C8016AE171E00E94751982
:102BC000F80101900020E9F78F01015010400757EC
:102BD0001140009333040E94951026960FB6F89486
:102BE000DEBF0FBECDBFCF91DF911F910F91FF9040
:102BF000EF90DF90CF90BF90AF900895CF93DF9389
:102C0000F999FECFC8EED1E0D2BDC1BDF89A80B52A
:102C1000882309F050C080917D0190E0A0E0B0E0F1
:102C2000BA2FA92F982F882720917C0130E040E00F
:102C300050E0822B932BA42BB52BBA2FA92F982FC2
:102C4000882720917B0130E040E050E0822B932BDD
:102C5000A42BB52BBA2FA92F982F882720917A0162
:102C600030E040E050E0822B932BA42BB52B8093D7
:102C7000490490934A04A0934B04B0934C04F999EF
:102C8000FECF8CED91E069E474E044E050E02EE585
:102C900032E10E94B919F999FECFF999FECF1FBA16
:102CA000D2BDC1BD81E080BD0FB6F894FA9AF99A01
:102CB0000FBE0E945711DF91CF910895F999FECF71
:102CC0008EEB91E092BD81BDF89A80B5809353045C
:102CD000F999FECF8FEB91E092BD81BDF89A80B556
:102CE00080934804F999FECF81EC91E092BD81BDBB
:102CF000F89A80B580934F04F999FECF82EC91E069
:102D000092BD81BDF89A80B580934704F999FECFB2
:102D100083EC91E092BD81BDF89A80B580931F014C
:102D2000F999FECF44EC51E052BD41BDF89A80B50F
:102D3000F999FECF85EC91E092BD81BDF89A20B55E
:102D4000F999FECF8AEE91E092BD81BDF89A80B5E7
:102D5000222329F081E08093500482E005C088237B
:102D600031F081E0809350048093310402C01092CE
:102D70005004F999FECF52BD41BDF89A80B58093B9
:102D8000BD0182ED91E066E572E10E94A319909386
:102D90004E0480934D0484ED91E066E572E10E945B
:102DA000A319909352048093510486ED91E066E557
:102DB00072E10E94A319909355048093540488ED06
:102DC00091E066E572E10E94A31990933804809324
:102DD00037048AED91E066E572E10E94A3199093B1
:102DE00042048093410489E494E06CED71E044E096
:102DF00050E026E532E10E94871980911F01882367
:102E000019F481E080931F010895282F98E038E19C
:102E1000862F822780FF04C063276695606801C003
:102E20006695915011F02695F3CF862F0895ECE723
:102E3000F0E090818F70907F892B80830895EEE77A
:102E4000F0E0808180638083E4E6F0E080818E7F23
:102E50008083ECE7F0E080818F77808380818064DD
:102E6000808380E090E0A0EAB0E4809343019093F7
:102E70004401A0934501B09346018081807F866024
:102E80008083EAE7F0E080818660808380818068CB
:102E90008083089580917A00806480937A00809185
:102EA0007A0084FFFCCF80917A00806180937A0061
:102EB0002091780030917900C90108956F927F9236
:102EC0008F929F92AF92BF92CF92DF92EF92FF923A
:102ED0000F931F9390917C008F70907F892B80932C
:102EE0007C0080917C00806880937C0080917C00D5
:102EF000806480937C008DEC9CECACE8BFE3809315
:102F0000430190934401A0934501B0934601809101
:102F10007A00806480937A0080917A0084FFFCCFED
:102F200080917A00806180937A00809178009091FE
:102F300079000F2EF0E06F2EF0E07F2EF0E08F2E64
:102F4000F0E09F2EF02DDD2480917A008064809344
:102F50007A0080917A0084FFFCCF80917A008061B2
:102F600080937A00609178007091790080E090E021
:102F70000E940D1B7B018C0120E030E04AE754E405
:102F80000E94BF1B181614F420E00DC0C401B30149
:102F9000A80197010E94111A3B014C01D39480E1D2
:102FA000D81691F621E080917C008F7780937C0089
:102FB00080917C00806480937C0080E090E0A0EAB7
:102FC000B0E48093430190934401A0934501B093F2
:102FD000460180917A00806480937A0080917A0023
:102FE00084FFFCCF80917A00806180937A00809189
:102FF000780090917900222369F50F2EF0E06F2E72
:10300000F0E07F2EF0E08F2EF0E09F2EF02D10E00C
:1030100080917A00806480937A0080917A0084FFA6
:10302000FCCF80917A00806180937A006091780073
:103030007091790080E090E00E940D1B9B01AC0133
:10304000C401B3010E94111A3B014C011F5F1031F2
:10305000F9F684C080917C00807F8E6080937C0034
:1030600080917A00806480937A0080917A0084FF56
:10307000FCCF80917A00806180937A008091780003
:10308000909179000F2EF0E0AF2EF0E0BF2EF0E02F
:10309000CF2EF0E0DF2EF02D10E080917A008064DA
:1030A00080937A0080917A0084FFFCCF80917A002F
:1030B000806180937A00609178007091790080E05F
:1030C00090E00E940D1B9B01AC01C601B5010E945E
:1030D000111A5B016C011F5F1031F9F6E09043019A
:1030E000F0904401009145011091460120E030E04C
:1030F00040E85DE30E94C31BA80197010E94C31B27
:10310000E0904701F09048010091490110914A0177
:1031100020E030E040E85AE30E94C31BA801970179
:103120000E94101A2DEC3CEC4CEC5DE30E94C31B9A
:103130009B01AC01C801B7010E94111A60934701BD
:10314000709348018093490190934A016093430131
:10315000709344018093450190934601E0904301B0
:10316000F09044010091450110914601C401B30162
:1031700020E030E040E85DE30E94C31BA801970116
:103180000E94C31B20E030E040E85AE30E94C31BCA
:103190001F910F91FF90EF90DF90CF90BF90AF9075
:1031A0009F908F907F906F900895E4E6F0E080818B
:1031B0008F7B8083E0EBF0E08081826080831092DF
:1031C000B30082E08093B100E0E7F0E080818260AC
:1031D000808308950F931F939B01AC0160E070E022
:1031E00081E699E40E94791A20E030E040E85FE34C
:1031F0000E94101A0E94E11A8B019C01FB01CB0175
:103200006FEF70E00E94451C462F6F5FC80170E0B1
:103210000E94451C242F30E0862F90E0DC01A29F05
:10322000C001A39F900DB29F900D1124E81BF90BD4
:1032300088279927821B930B03C0E80FF91F6F5F44
:10324000EF3FF10509F0C8F76150F89460934B0126
:1032500040934D01E093560478941F910F91089587
:103260001F920F920FB60F9211248F939F9380910C
:103270004E01882351F080914C018093B3008091DE
:103280004E01815080934E0114C08BB198E0892784
:103290008BB9809157048093B30080914D01809346
:1032A0004E0180914B0180934C0180915604809394
:1032B00057049F918F910F900FBE0F901F901895FC
:1032C000F8940C94901CFB01DC0102C005900D9257
:1032D00041505040D8F70895FB01DC0102C0019035
:1032E0000D9241505040D8F70895FB01DC010D903C
:1032F0000020E9F7119701900D920020E1F7089561
:10330000FB01DC0101900D920020E1F70895A0E09F
:10331000B0E0EDE8F9E10C94631C7C01EB018A015B
:10332000690109C0CE012196F6010995F701819343
:103330007F010150104001151105A1F7CDB7DEB78F
:10334000E8E00C947F1CDF92EF92FF920F931F93A3
:103350007B018C01FB010995D82EC8010196F7016C
:103360000995982F8D2D1F910F91FF90EF90DF9071
:103370000895A0E0B0E0EFEBF9E10C94631CEC01E0
:103380007B018A01690109C0CE012196F701619193
:103390007F01F60109950150104001151105A1F7B3
:1033A000CDB7DEB7E8E00C947F1CDF92EF92FF927E
:1033B0000F931F93D72E7A018C01FA010995C8014A
:1033C00001966D2DF70109951F910F91FF90EF90D8
:1033D000DF900895FB019F01423074F0453264F4A0
:1033E000642F77270E94451C805D8A330CF0895D2D
:1033F0008193CB010097A1F71082C9010C94001AA8
:10340000DC01FC01672F71917723E1F7329704C04B
:103410007C916D9370836291AE17BF07C8F30895D6
:103420005058BB27AA270ED070C161D130F066D1A9
:1034300020F031F49F3F11F41EF456C10EF4E095D4
:10344000E7FB4CC1E92F72D180F3BA17620773070B
:103450008407950718F071F49EF58AC10EF4E09583
:103460000B2EBA2FA02D0B01B90190010C01CA013E
:10347000A0011124FF27591B99F0593F50F4503EE9
:1034800068F11A16F040A22F232F342F4427585FDB
:10349000F3CF469537952795A795F0405395C9F7F3
:1034A0007EF41F16BA0B620B730B840BBAF09150AB
:1034B000A1F0FF0FBB1F661F771F881FC2F70EC04A
:1034C000BA0F621F731F841F48F48795779567951D
:1034D000B795F7959E3F08F0B3CF9395880F08F006
:1034E0009927EE0F979587950895D4D008F481E039
:1034F00008950CD00AC102D140F0F9D030F021F487
:103500005F3F19F0EBC0511134C1EEC00FD198F3F9
:103510009923C9F35523B1F3951B550BBB27AA2754
:1035200062177307840738F09F5F5F4F220F331FC6
:10353000441FAA1FA9F333D00E2E3AF0E0E830D092
:1035400091505040E695001CCAF729D0FE2F27D095
:10355000660F771F881FBB1F261737074807AB0763
:10356000B0E809F0BB0B802DBF01FF2793585F4FD8
:103570002AF09E3F510568F0B1C0FBC05F3FECF3FD
:10358000983EDCF3869577956795B795F7959F5F9D
:10359000C9F7880F911D9695879597F90895E1E0F1
:1035A000660F771F881FBB1F621773078407BA0750
:1035B00020F0621B730B840BBA0BEE1F88F7E095AB
:1035C0000895BCD088F09F5790F0B92F9927B75134
:1035D000A0F0D1F0660F771F881F991F1AF0BA95D7
:1035E000C9F712C0B13081F0C3D0B1E00895C0C0B6
:1035F000672F782F8827B85F39F0B93FCCF38695CD
:1036000077956795B395D9F73EF490958095709529
:1036100061957F4F8F4F9F4F0895E89409C097FBA6
:103620003EF490958095709561957F4F8F4F9F4F99
:103630009923A9F0F92F96E9BB279395F6958795DD
:1036400077956795B795F111F8CFFAF4BB0F11F4A0
:1036500060FF1BC06F5F7F4F8F4F9F4F16C0882347
:1036600011F096E911C0772321F09EE8872F762F7D
:1036700005C0662371F096E8862F70E060E02AF0BE
:103680009A95660F771F881FDAF7880F96958795AA
:1036900097F90895990F0008550FAA0BE0E8FEEF7F
:1036A00016161706E807F907C0F012161306E40706
:1036B000F50798F0621B730B840B950B39F40A26FF
:1036C00061F0232B242B252B21F408950A2609F4DD
:1036D000A140A6958FEF811D811D089597F99F67E1
:1036E00080E870E060E008959FEF80EC089500248A
:1036F0000A941616170618060906089500240A9457
:1037000012161306140605060895092E0394000CDC
:1037100011F4882352F0BB0F40F4BF2B11F460FF6B
:1037200004C06F5F7F4F8F4F9F4F089557FD905894
:10373000440F551F59F05F3F71F04795880F97FB75
:10374000991F61F09F3F79F087950895121613062F
:103750001406551FF2CF4695F1DF08C0161617065E
:103760001806991FF1CF8695710561050894089593
:10377000E894BB2766277727CB0197F908958ADF5E
:1037800008F48FEF08950BD0C0CFB1DF28F0B6DF7B
:1037900018F0952309F0A2CFA7CF1124EACFC6DFF6
:1037A000A0F3959FD1F3950F50E0551F629FF00154
:1037B000729FBB27F00DB11D639FAA27F00DB11DAD
:1037C000AA1F649F6627B00DA11D661F829F222736
:1037D000B00DA11D621F739FB00DA11D621F839FBD
:1037E000A00D611D221F749F3327A00D611D231F93
:1037F000849F600D211D822F762F6A2F11249F57E1
:1038000050408AF0E1F088234AF0EE0FFF1FBB1F03
:10381000661F771F881F91505040A9F79E3F5105A2
:1038200070F05CCFA6CF5F3FECF3983EDCF386955B
:1038300077956795B795F795E7959F5FC1F7FE2B4D
:10384000880F911D9695879597F90895629FD001ED
:10385000739FF001829FE00DF11D649FE00DF11D4B
:10386000929FF00D839FF00D749FF00D659FF00DFA
:103870009927729FB00DE11DF91F639FB00DE11DE7
:10388000F91FBD01CF0111240895AA1BBB1B51E1F3
:1038900007C0AA1FBB1FA617B70710F0A61BB70BC0
:1038A000881F991F5A95A9F780959095BC01CD0165
:1038B00008952F923F924F925F926F927F928F92D4
:1038C0009F92AF92BF92CF92DF92EF92FF920F93AF
:1038D0001F93CF93DF93CDB7DEB7CA1BDB0B0FB6B9
:1038E000F894DEBF0FBECDBF09942A883988488876
:1038F0005F846E847D848C849B84AA84B984C8840C
:10390000DF80EE80FD800C811B81AA81B981CE0F02
:10391000D11D0FB6F894DEBF0FBECDBFED010895E7
:04392000F894FFCF49
:103924006314430000463D00300030303030002046
:10393400743D00303000204E3D002E300A0D000151
:103960000F931F93CF93DF93DA010FB7F894F99970
:10397000FECFAB0183E0FB0180935700E89507B6CB
:1039800000FCFDCFFA0111E0BA0160587F4F8C9125
:1039900011963C91119720E0E901C80FD11D1296B4
:1039A0000E0110935700E89511243296E617F70799
:1039B00071F785E0FA0180935700E89507B600FC9F
:1039C000FDCF81E180935700E8950FBFDF91CF9144
:0639D0001F910F91089504
:103B000000000000000000000000000000000000B5
:103B100000000000000000000000000000000000A5
:103B20000000000000000000000000000000000095
:103B30000000000000000000000000000000000085
:00000001FF
