:020000040000FA
:0402FC00FFFFFFFF02
:020000040000FA
:10500000E83B08207D8000008180000049F202001A
:1050100049F2020049F2020049F2020000000000D9
:10502000000000000000000000000000E950000047
:105030008D8000000000000019510000F770000092
:10504000938000001D740000938000002574000010
:105050002D74000093800000F79F000093800000F3
:10506000C99F00009380000093800000938000009F
:1050700093800000938000009380000093800000E4
:1050800093800000938000009380000093800000D4
:105090009380000003D4000035740000938000006A
:1050A000C94B03003D740000938000009380000012
:1050B00093800000938000009380000093800000A4
:1050C00093800000938000009380000000000000A7
:1050D00000000000DFF80CD032F068FC0048004708
:1050E00041730000E83B0820194B19680868B0E8D4
:1050F000F00F80F309884FF0000080F311884EF024
:105100000D0E70470000000002480068006880F340
:10511000088800DF08ED00E0EFF309800C4B1A6807
:1051200020E9F00F106008B54FF0280080F31188D7
:1051300001F0DDFD4FF0000080F31188BDE808406C
:1051400019680868B0E8F00F80F30988704700BF5D
:1051500094C1072001B44FF0280080F3118801BCEE
:10516000704701B44FF0000080F3118801BC704714
:105170004FF03000D0F800F07047704770470000E3
:1051800000BF00BF224800682249884201D10020A8
:1051900000E001200128F4D100BF801E1C490968ED
:1051A0001C4A914204D01A4908681146184A1160F5
:1051B00000BF704770B504460D46E0B22CF05BFDB1
:1051C00070BD00B50346FFF7DBFF00BD01464FF0A1
:1051D000FF3070470146104A126812F0807F13D0EA
:1051E0000E4A126812F0010F0ED00C4A803A126873
:1051F00012F0010F08D000BF4FF060421268002A81
:10520000FAD04FF06043197000BF704700BFFEE74F
:1052100000C00720A55AA55AFCED00E0800E00E072
:105220002DE9F0410446884617464FF4097001F015
:1052300077FFA060A06818B94FF0FF30BDE8F0819B
:10524000A0684FF4097131F0F0F9A66827743A4666
:105250004146304611F031F8054615B9F0686060F6
:1052600004E0A06802F02AF80020A0602846E5E7E4
:1052700070B504460026A06808B9304670BDA56820
:10528000284611F07DFB0646A06802F017F80020C2
:10529000A0603046F2E72DE9F04104460D4616467F
:1052A000A76804F10C0332462946384611F0BFF8CE
:1052B00080464046BDE8F0812DE9F04104460D46A8
:1052C0001646A76804F10C0332462946384611F009
:1052D000C5F980464046BDE8F0817CB50446002013
:1052E0000190724800906A4601A971A011F022FD58
:1052F0000546019840020099897848432060284675
:105300007CBD70B50446A568284611F0ABFD064685
:10531000304670BD70B50446A568284611F0CDFA38
:105320000646304670BD70B50446204611F055FE65
:105330000546284670BD70B50446204611F0E5FDCF
:105340000546284670BD2DE9F04104460D4625600E
:10535000A6682946304611F05FFB07463846BDE88F
:10536000F0812DE9F04106460C46304600F03DFC48
:1053700028B91020207200202060BDE8F08116209E
:1053800001F0CEFE054615B94FF0FF30F5E71621C6
:10539000284631F04AF91621204631F046F92946CF
:1053A000304611F0A6FC074628682060A888A08037
:1053B000E888E080287A207205F1090104F10900EB
:1053C00031F094F9284601F079FF3846D5E770B5F9
:1053D00005463649002010F0BCFE0446204670BD4C
:1053E00001464FF0FF30704770B504460D46294620
:1053F000204611F027FF0646304670BD2DE9F041EA
:1054000004460D461C2001F08BFEC4F81E00D4F8A3
:105410001E0018B94FF0FF30BDE8F081D4F81E002F
:105420001C2131F002F9D4F81E60284600F0DDFBA3
:1054300028B920A1304611F0F1FB074604E02946C7
:10544000304611F0EBFB07463846E5E710B5044659
:10545000D4F81E0001F032FF002010BD2DE9F0410C
:1054600005460E46D6F81E70162001F059FE044679
:105470001CB94FF0FF30BDE8F0811621204631F015
:10548000D4F82146384611F004FC804604F10901A5
:1054900005F1110031F02AF920686860207A28743B
:1054A000204601F00BFF4046E5E70000B0CF0720A3
:1054B000303A00002F0000002DE9F04104460E466E
:1054C0001746701C04F034FFA060A06818B94FF0B4
:1054D000FF30BDE8F081A0680222002104F00FFF38
:1054E0000546681C01D1401EF3E76560A0680022F4
:1054F000114604F004FFA06810B94FF0FF30E8E750
:105500000020E6E72DE9F04104460E461746A06864
:105510003A46314604F0D5FE0546681C02D1401ECD
:10552000BDE8F081E5600020FAE72DE9F04104468E
:105530000E461746A0683A46314604F0D1FE0546AD
:10554000681C02D1401EBDE8F081E5600020FAE74A
:1055500070B504460D462560A0680022294604F077
:10556000CEFE002070BD10B50446A06804F0D6FE43
:10557000002010BD01464FF0FF30704701464FF04C
:10558000FF30704701464FF0FF30704701464FF043
:10559000FF30704770B505460C46284600F025FBE5
:1055A00020B9102020720020206070BD4FF0FF3025
:1055B000FBE701464FF0FF30704701464FF0FF30E8
:1055C000704702464FF0FF3070472DE9F041044626
:1055D0000F462F48007818B92E4840682E490860B9
:1055E0002D48006805682B480078294909788842C9
:1055F00030DD29480068006808B305F12C0104F18A
:10560000110031F073F805F12C0004F091FE06460C
:1056100056B10120207402220021304604F06FFEB2
:105620006060304604F07AFE1B48006840681A4902
:10563000086017480078401C154908700EE01648AD
:10564000006840681449086011480078401C1049FF
:10565000087003E0002060740D4908700020BDE868
:10566000F08170B505460C46204600F0BEFA08B938
:10567000002070BD4FF0FF30FBE70146002070476F
:1056800010B504462F21204631F048F810BD000027
:10569000BCC0072040C60720B8C007202DE9F04154
:1056A00004460E461746701C0EF013FCA060A0685E
:1056B00018B94FF0FF30BDE8F081A0680222002148
:1056C0000EF025FB0546681C01D1401EF3E765601E
:1056D000A068002211460EF01AFB0546681C01D195
:1056E000401EE8E7A06810B94FF0FF30E3E7002064
:1056F000E1E72DE9F04104460E461746A0683A4618
:1057000031460EF0BBFA0546681C02D1401EBDE8CA
:10571000F081E5600020FAE703464FF0FF30704764
:1057200001464FF0FF30704770B504460D462560C6
:10573000A9B2A06800220EF0EAFA002070BD01466E
:105740000020704701464FF0FF30704701464FF090
:10575000FF30704701464FF0FF30704770B5054687
:105760000C4600243C4844680CE094F82C0038B106
:10577000691C04F11D0030F09EFF08B9002070BDC7
:10578000D4F80540002CF0D1601EF8E770B505464E
:105790000C460026284600F028FA20B91020207276
:1057A0000020206070BD31462846FFF7D7FF10B9B2
:1057B0004FF0FF30F6E74FF0FF30F3E701464FF0D0
:1057C000FF30704701464FF0FF30704702464FF000
:1057D000FF30704770B504460D462048007818B970
:1057E0001D4840681E4908601B4800781B4909781D
:1057F00088421BDD1A48006890F82C0080B11848D8
:1058000001681D3104F1110030F070FF0120207497
:105810000A20606012480068D0F80500104908604E
:105820000E480078401C0D49087003E000206074A9
:105830000A490870002070BD70B505460C46204628
:1058400000F0D3F908B9002070BD4FF0FF30FBE73E
:105850000146002070470000DCCA07201CC1072059
:1058600018C10720E749096821B9E6490860002105
:10587000C16004E0E3490968C160E2490860E149A8
:105880000979491CDF4A11717047FEB505460124AC
:1058900000BF0CE0285D2F2806D0285D20B1295DCF
:1058A000601E0DF8001000E003E0601CC4B20A2C7A
:1058B000F0DB00BF0021601E0DF800100A2C03DA97
:1058C00000200DF8040001E00020FEBDCD48066870
:1058D00007E06946304630F0EEFE08B93046F4E79E
:1058E000F668002EF5D10020EFE710B504462F2111
:1058F000601C30F0CFFE10BD2DE9F04704460D4688
:1059000017464FF000082846FFF7BFFF06461EB9AE
:105910004FF0FF30BDE8F087294604F1110030F068
:10592000E5FE2846FFF7E1FF81463A464946204614
:105930007369984780464046ECE770B5044604F129
:105940001100FFF7A2FF05462046A969884770BDF0
:105950002DE9F04104460E46174604F11100FFF709
:1059600094FF05461DB94FF0FF30BDE8F0813A467F
:1059700031462046EB699847F7E72DE9F0410446A8
:105980000E46174604F11100FFF77FFF05461DB9CB
:105990004FF0FF30BDE8F0813A46314620462B6A91
:1059A0009847F7E770B5044604F11100FFF76DFF63
:1059B000054615B94FF0FF3070BD2046696A88472B
:1059C000FAE770B5044604F11100FFF75EFF0546E3
:1059D00015B94FF0FF3070BD2046A96A8847FAE735
:1059E00070B505462846FFF750FF044614B94FF03E
:1059F000FF3070BD2846FFF778FF0646E16A88470A
:105A0000F7E770B505462846FFF73FFF044614B98F
:105A10004FF0FF3070BD2846FFF767FF0646216B49
:105A20008847F7E770B506460C463046FFF72DFF6E
:105A3000054615B94FF0FF3070BD2046696D8847A7
:105A4000FAE770B504460E4604F11100FFF71DFF9A
:105A5000054615B94FF0FF3070BD314620466A6BE0
:105A60009047F9E72DE9F04105460E462846FFF735
:105A70000CFF04461CB94FF0FF30BDE8F08128460A
:105A8000FFF733FF07463146A26B9047F5E770B545
:105A900005462846FFF7F9FE044614B94FF0FF30DB
:105AA00070BD2846E16B8847FAE770B50546284681
:105AB000FFF7EBFE044614B94FF0FF3070BD2846E7
:105AC000216C8847FAE72DE9F04106460C4630463E
:105AD000FFF7DBFE05461DB94FF0FF30BDE8F08152
:105AE0002046FFF702FF471C3046FFF7FEFE00F19D
:105AF0000108394640466A6C9047EFE770B50446A6
:105B00000E4641A1304630F0D6FD28BB3F48007814
:105B100018B93C4800683E4908603A4800793B495A
:105B20000978884212DD3A48016804F1110030F02A
:105B3000DDFD1120207436480068C06834490860D3
:105B400032480078401C3149087003E000202F499A
:105B500008706074002070BD3046FFF796FE054661
:105B600015B94FF0FF30F6E731462046AA6C904752
:105B7000F1E72DE9F04105460E4623A1304630F00D
:105B80009AFD40B93146284630F0B0FD0020C5F8F6
:105B90001E00BDE8F0813046FFF777FE044614B9D9
:105BA0004FF0FF30F5E73146284630F09FFD304694
:105BB000FFF79BFE074639462846E26C9047E8E728
:105BC00070B5054610A1284630F075FD08B90020D3
:105BD00070BD2846FFF759FE044614B94FF0FF3058
:105BE000F6E72846216D8847F2E710B504462F21D5
:105BF000204630F04FFD08B9002010BD4FF0FF30B7
:105C0000FBE7000020C107202F00000028C107206B
:105C10002CC107202DE9F04104460E461746701CA2
:105C200006F029F90546A560E8686060A87A207446
:105C3000A06818B94FF0FF30BDE8F0810020FBE705
:105C40002DE9F04104460E4617464BA004F070FBC8
:105C500080464B480078012807D1227C21684046C5
:105C600004F04DFB0020464908703A463146404654
:105C700004F027FB0546681C06D1404604F04EFBA5
:105C80004FF0FF30BDE8F081E560404604F046FB90
:105C90000020F7E703460020704701464FF0FF3031
:105CA0007047024611600120354B18700846704756
:105CB00001460020704701464FF0FF307047014613
:105CC0004FF0FF30704701464FF0FF30704770B51E
:105CD00005460C462846FFF788FF20B910202072A1
:105CE0000020206070BD4FF0FF30FBE701464FF011
:105CF000FF30704701464FF0FF30704702464FF0CB
:105D0000FF30704770B504460D461E48007818B93C
:105D10001D4800681D4908601C480068B0B11B4858
:105D2000016804F1110030F0E1FC012020741748F3
:105D30000068C068606015480068406913490860E1
:105D400010480078401C0F49087003E00020607480
:105D50000C490870002070BD70B505460C46204601
:105D6000FFF743FF08B9002070BD4FF0FF30FBE79D
:105D70000146002070470000534156455200000084
:105D800088C1072090C10720440000108CC1072063
:105D900000F1080141604FF0FF31816000F108011E
:105DA000C1600161002101607047002101617047FD
:105DB000426853684B6043688B60536899605160D8
:105DC0004160086103685B1C0360704710B50246C0
:105DD0000B685C1C01D1106907E002F1080000E0CB
:105DE0004068446824689C42FAD944684C604C6816
:105DF000A160886041600A611468641C146010BD71
:105E0000D0E901329A60D0E901235A6001694A68F9
:105E1000824201D182684A60002202610A68521EF1
:105E20000A6070472DE9F04105460E4675B34C20D7
:105E300001F076F904464CB305FB06F0471C3846E2
:105E400001F06EF920602068E8B1206805FB0600CB
:105E500060600020A0632068A060681E216800FBCD
:105E60000610E060E56326644FF0FF306064A064D4
:105E700004F11000FFF78CFF04F12400FFF788FF06
:105E80002046BDE8F081204601F018FA0020F8E72E
:105E900010B5044601F01AF90DE0606A50B104F142
:105EA000240000F0C0FF08B101F027F8A06C401EEC
:105EB000A06400E002E0A06C0028EEDC00BF4FF020
:105EC000FF30A06401F00BF901F000F90DE020694A
:105ED00050B104F1100000F0A6FF08B101F00DF878
:105EE000606C401E606400E002E0606C0028EEDC44
:105EF00000BF4FF0FF30606401F0F1F810BD70B5E5
:105F0000044601F0E3F8A06BE16B884201D1012067
:105F100000E00020054601F0E2F8284670BD70B5AB
:105F200004460E461546206C38B9206838BB6068B8
:105F300001F031F80020606021E07DB93146226C2B
:105F4000A06830F04BFB216CA0680844A060D4E945
:105F50000110884213D32068A06010E03146226C03
:105F6000E06830F03BFB216CE068401AE06021689B
:105F7000E068884203D2216C6068401AE060A06B40
:105F8000401CA06370BDFFB583B004460E461D469D
:105F9000002700BF01F09AF8A06BE16B884217D28E
:105FA0002A4631462046FFF7BAFF606A08B9012049
:105FB00000E0002038B904F1240000F034FF01288B
:105FC00001D101F07DF801F08AF8012007B0F0BDA1
:105FD000059818B901F083F80020F7E71FB901A868
:105FE00000F056FF012701F07AF800F03DFB01F0C8
:105FF0006DF8606C401C00D16064A06C401C00D146
:10600000A06401F06CF805A901A800F048FFC0B930
:106010002046FFF774FF70B104F11000059900F0FD
:10602000D1FE2046FFF734FF00F0C1FA0028B1D1BD
:1060300001F046F8AEE72046FFF72AFF00F0B7FA76
:10604000A8E72046FFF724FF00F0B1FA0020BDE7E3
:1060500010B54C2001F064F80446D4B10020606013
:106060002060A060E060A0630120E0630020206465
:10607000401E6064A06404F11000FFF789FE04F183
:106080002400FFF785FE00231A4619462046FFF735
:106090007AFF204610BD2DE9F04704468846164693
:1060A0001F464FF00009FFF755F8A06BE16B8842DF
:1060B00016D23A4641462046FFF731FFA06C401CFD
:1060C00009D1606A50B104F1240000F0ACFE28B19F
:1060D0000120306002E0A06C401CA064012500E0BB
:1060E0000025FFF73EF82846BDE8F08770B5044666
:1060F00000F0ECFFA06B08B9012000E0002005468D
:1061000000F0EDFF284670BD70B504460D462068CE
:1061100070B1216CE0680844E0606168E068884222
:1061200001D32068E0602846226CE16830F056FA1E
:1061300070BD2DE9FF4182B004460F461D464FF069
:10614000000800BF00F0C2FFA06B60B3E6683946EC
:106150002046FFF7D9FFB5B9A06B401EA0632068A9
:1061600010B900F0DFFE6060206908B9012000E08E
:10617000002090B904F1100000F055FE01280CD168
:1061800000F09EFF09E0E660606A30B104F124008F
:1061900000F049FE08B100F093FF00F0A0FF0120DD
:1061A00006B0BDE8F081049818B900F098FF00200F
:1061B000F6E7B8F1000F04D1684600F069FE4FF031
:1061C000010800F08CFF00F04FFA00F07FFF606CD8
:1061D000401C00D16064A06C401C00D1A06400F0A1
:1061E0007EFF04A9684600F05AFE08BB2046FFF770
:1061F0007DFFB8B1206830B900F068FF606800F03A
:1062000094FE00F06CFF04F12400049900F0DAFD24
:106210002046FFF73DFE00F0CAF9002892D100F0B9
:106220004FFF8FE72046FFF733FE00F0C0F989E704
:106230002046FFF72DFE00F0BAF90020B0E72DE967
:10624000F04104460F4616464FF00008FEF782FF65
:10625000A06BC0B139462046FFF756FFA06B401E29
:10626000A063606C401C09D1206950B104F110009A
:1062700000F0D9FD28B10120306002E0606C401CC4
:106280006064012500E00025FEF76BFF2846BDE8AD
:10629000F08170B5044600F019FFA56B00F01FFFF8
:1062A000284670BD0146886B704710B504462068CB
:1062B00001F004F8204601F001F810BD01468A6B98
:1062C0000AB9012200E000221046704701468A6B9D
:1062D000CB6B9A4201D1012200E0002210467047A8
:1062E00010B5002407E004EB8401F84A02EB8100BA
:1062F000FFF74EFD641C052CF5D3F548FFF748FD6C
:10630000F448FFF745FDF448FFF742FDF348FFF777
:106310003FFDF348FFF73CFDED48F2490860ED48CA
:10632000F149086010BD2DE9F04104460E461546BE
:106330009846069F0C22314604F1340030F09EF955
:1063400000213F200155052D00D30425E562656439
:10635000201DFFF72AFD04F11800FFF726FD246138
:10636000C5F10500A06164620020A064BDE8F08171
:1063700070B505460E464C2000F0D2FE044694B19E
:106380001EB9A80000F0CCFE00E030462063206B70
:1063900020B9204600F092FF002404E0A900A522C5
:1063A000206B30F03BF9204670BD2DE9FF4F81B0E6
:1063B000804615469946DDE90E7A28461099FFF782
:1063C000D7FF0446002C51D0681E216B01EB800BD7
:1063D0002BF0070B00953A462046119B0299FFF7D8
:1063E000A2FF4A464146584600F040FE206000F0B9
:1063F0006DFEBE480068401CBC4908600846006845
:10640000012804D1BA480460FFF76AFF09E0B948DF
:10641000006830B9B6480068C06AB84201D8B448CC
:106420000460B549E06A0968884202D9B249E06A65
:106430000860B24800682064B0480068401CAF495A
:106440000860AF49E06A0968884202D9AC49E06A4D
:106450000860E16A01EB81019C4A02EB8100211D89
:10646000FFF7A6FC012600F03AFE01E04FF0FF36F0
:10647000012E0ED1BAF1000F01D0CAF800409D489C
:10648000006830B19A480068C06AB84201D200F092
:1064900017FE304605B0BDE8F08F70B5044600F039
:1064A00015FE934920680968884201D100202060C8
:1064B000206810B98E48006800E020680546281D55
:1064C000FFF79EFCA86A18B105F11800FFF798FCC9
:1064D000291D8248FFF76CFC8A480068401C8949E6
:1064E000086086480068401C8449086000F0F7FD99
:1064F0008048006818B1206808B900F0E1FD70BD5F
:1065000010B581480068002844D180480068401CCC
:106510007E4908600846006868B97249086872498F
:106520000968704A11607049086079490968491C16
:10653000774A116000BF1FE07449606809688842AB
:1065400000D925E0201DFFF75BFCA06A18B104F11B
:106550001800FFF755FC6A49E06A0968884202D9C9
:106560006749E06A0860E16A01EB8101574A02EB82
:106570008100211DFFF71CFC5A480068006820B10B
:1065800058480068C068C06800E000200400D3D10B
:1065900000BF06E05F480068401C5E49086028F0C4
:1065A00032FE5C48006808B928F02DFE10BD70B5B9
:1065B000002500F08BFD54480068401E52490860D9
:1065C0000846006800284BD148480068002847D09A
:1065D00000261EE004F11800FFF712FC201DFFF753
:1065E0000FFC4749E06A0968884202D94449E06AD9
:1065F0000860E16A01EB8101344A02EB8100211D50
:10660000FFF7D6FB3A49E06A0968C96A884200D3B5
:1066100001263148006818B12F48C068C06800E002
:1066200000200400D6D13B48006860B106E0FFF7C7
:1066300067FF38480068401E3649086035480068E2
:106640000028F4D10126012E03D033480068012828
:1066500005D1012500203049086000F031FD00BF60
:1066600000F03DFD284670BD27480068401C2649C3
:106670000860704770B50446002614B3FFF7F4FFB6
:106680002248006805191A480068001DFFF7B8FB8A
:106690001748006845601D480068854207D21448C5
:1066A0000168091D10480068FFF790FB06E01048DC
:1066B0000168091D0B480068FFF788FBFFF777FFAB
:1066C00006460EB900F0FCFC70BD0000E8D10720C2
:1066D0004CD2072060D2072074D2072088D207202E
:1066E0009CD20720D0C10720D4C107209CC107201D
:1066F00094C10720ACC10720A4C10720C0C1072056
:10670000A8C1072098C10720B0C10720A0C1072059
:10671000BCC10720B4C10720B8C1072070B504462A
:1067200000F0D4FC14B9FD48006800E0204606469D
:10673000F56A00F0D4FC284670BD2DE9F04106460C
:106740000D464FF00008052D00D3042500F0BEFCD7
:10675000F2480068864200D1002616B9EF4800686A
:1067600000E030460446676CAF4232D0BD4203D9E8
:106770002EB14FF0010802E00EB94FF00108E16AB6
:10678000606C884200D1E5626564C5F10500A061D6
:1067900007EB8701E24A02EB81016069884213D16D
:1067A000201DFFF72DFBDF49E06A0968884202D906
:1067B000DC49E06A0860E16A01EB8101D84A02EB3A
:1067C0008100211DFFF7F4FAB8F1010F01D100F0AB
:1067D00077FC00F084FCBDE8F08170B5044600F061
:1067E00075FCCE480068844200D1002414B9CB481F
:1067F000006800E020460546281DFFF701FBA86A57
:1068000018B105F11800FFF7FBFA291DC648FFF77C
:10681000CFFA00F064FC0CB900F052FC70BD10B56A
:10682000014600200A46C04C5369A34201D101230E
:1068300000E0002383B1BD4C936AA34201D1012340
:1068400000E00023012B07D0936A0BB9012300E07D
:106850000023012B00D1012010BD70B505462C4648
:1068600044B3AE480068844224D000F02FFC204698
:10687000FFF7D5FF01281BD1201DFFF7C1FAA94959
:10688000E06A0968884202D9A649E06A0860E16ABC
:1068900001EB8101A24A02EB8100211DFFF788FA7A
:1068A0009E49E06A0968C96A884201D300F008FC81
:1068B00000F015FC70BD70B5054600262C4620463C
:1068C000FFF7ADFF012826D199480068F0B9934938
:1068D000E06A0968C96A884201D3012000E000200B
:1068E0000646201DFFF78CFA8E49E06A0968884247
:1068F00002D98C49E06A0860E16A01EB8101884AAB
:1069000002EB8100211DFFF753FA04E004F11801A6
:106910008648FFF74DFA304670BD10B50446206B2F
:1069200000F0CCFC204600F0C9FC10BD70B58148D9
:10693000006848B3FFF798FE7F48006808B9012057
:1069400000E000200546FFF732FEEDB900F0BEFB87
:106950007948006818B17848C068C06800E0002035
:106960000446201DFFF74CFA74480068401E734926
:10697000086070480068401E6E49086000F0AFFB78
:106980002046FFF7CAFF00BF70BD00BF01F007FB44
:10699000FFF7CCFF624800680128F7D900F090FBB0
:1069A000F4E71FB5002000900190029003462022DA
:1069B00063A103906448FFF7F8FC0446012C0BD157
:1069C000FEF7C8FB012061490860002060490860AB
:1069D00003F0AEFD00F05EFB1FBD10B5FEF7BAFB85
:1069E00000205A49086000F06AFB10BD10B500F0A5
:1069F0006DFB5748046800F072FB204610BD4F48FD
:106A0000006870470146002002E0491C421C90B219
:106A10000A78A52AF9D0800870472DE9FE438146FF
:106A20000C461646204641684968416000F108015D
:106A300042688A4202D14168496841604168CF6832
:106A400000BF204641684968416000F10801426882
:106A50008A4202D14168496841604168CD68286B2B
:106A6000FFF7D0FF8046286CE96A334605F134020F
:106A7000CDE90018029037A13B4831F09DF93A4921
:106A800048462FF0DDFDBD42DBD1BDE8FE8370B589
:106A90000546FFF7E9FD0020287034A128462FF0B5
:106AA000CFFD33480068441C00BF641E04EB840023
:106AB0001B4951F8200040B104EB84000A4602EB68
:106AC000800152222846FFF7A8FF002CEDD129486B
:106AD0000068006828B14222264801682846FFF76E
:106AE0009CFF25480068006828B1422222480168BE
:106AF0002846FFF792FF1048006820B144220E4953
:106B00002846FFF78AFF0848006820B1532206494B
:106B10002846FFF782FFFFF74AFD70BD94C10720AA
:106B2000E8D10720A8C107209CD2072074D20720F3
:106B3000B0C1072098C1072088D207209CC1072038
:106B400049444C45000000008B690000ACC107209F
:106B5000A0C1072025730909256309257509257535
:106B60000925750D0A000000E2D207200D0A000079
:106B7000A4C10720D0C10720D4C107202DE9F843C4
:106B800081460C461646204641684968416000F13E
:106B9000080142688A4202D14168496841604168FF
:106BA000D1F80C8000BF204641684968416000F17F
:106BB000080142688A4202D14168496841604168DF
:106BC000CD68002E22D0A86C30B905F13402FBA1AB
:106BD000FE4831F0F1F815E0A86C64214843B0FBA1
:106BE000F6F747B10097AB6C05F13402F8A1F7480E
:106BF00031F0E2F806E0AB6C05F13402F8A1F3489D
:106C000031F0DAF8F14948462FF01AFD4545CAD16E
:106C1000BDE8F88370B5054603F0BDFC0646FFF7F6
:106C200023FD00202870EDA128462FF009FDF04833
:106C30000068441C00BF641E04EB8400ED4951F859
:106C4000200040B104EB84000A4602EB800132468A
:106C50002846FFF793FF002CEDD1E7480068006855
:106C600028B13246E44801682846FFF787FFE34829
:106C70000068006828B13246E04801682846FFF7FE
:106C80007DFFDF48006820B13246DD492846FFF726
:106C900075FFDC48006820B13246DA492846FFF724
:106CA0006DFFFFF784FC70BD70B504460D4600F023
:106CB0000DFAD5480460D5480460A5F108002044C9
:106CC000D34908600120D349086000F008FA70BD7C
:106CD00010B500F0FBF90020CE49086000F0FFF984
:106CE000C9480068C9490968441A204610BD10B552
:106CF000C948006818B10120C849086010BD03F0F8
:106D00004AFC0446C649096801F14800896CC54A35
:106D10001268A21A11440160C248046004E0C2482B
:106D20000068401EC0490860BF48006800EB800052
:106D3000B04951F820000028F1D0BB49096801EBA7
:106D40008101AC4A02EB810041684968416000F171
:106D5000080142688A4202D141684968416041683D
:106D6000C968AF4A1160AB48006828B31046006894
:106D7000006CAE490968884222D0A34800680830F8
:106D8000A3490968884218D210460068006CA749D8
:106D90000860A74800689C49096808609A4800682C
:106DA000001D99490860A148006809680860964874
:106DB0000068001D9449086002E0002095490860C1
:106DC00000BF9BE770B506460C4695480168183130
:106DD0003046FEF7FBFF92480068001DFFF710F8F1
:106DE000601C06D18E480168091D8648FEF7E0FF49
:106DF00018E08F48006805198948006845608C488C
:106E00000068854207D286480168091D7B480068F2
:106E1000FEF7DCFF06E082480168091D764800683D
:106E2000FEF7D4FF70BD70B50546286810B1E8685C
:106E3000C06800E00020044604F11800FEF7E0FFFF
:106E400075480068A0B9201DFEF7DAFF7649E06AB0
:106E50000968884202D97449E06A0860E16A01EB76
:106E60008101644A02EB8100211DFEF7A1FF04E0CD
:106E700004F118016F48FEF79BFF6949E06A096851
:106E8000C96A884201D3012600E00026304670BD61
:106E9000694909680160664909684160704770B5D1
:106EA00004460D4600F012F92868401C01D1002666
:106EB0001FE0614920680968884206D05C49606823
:106EC0000968884201D8012613E0594960680968B9
:106ED000081A296888420BD22868554A61681268E6
:106EE000511A401A28602046FFF7D2FF002600E022
:106EF000012600F0F4F8304670BD012047490860D3
:106F000070472DE9F041044614B94548006800E097
:106F1000204607463D6B2846FFF774FD064630467F
:106F2000BDE8F0813E490868704770B505462C46BB
:106F30003B49E06A0968C96A88422BD23848006830
:106F4000C06AC0F10500A061E16A01EB8101294A34
:106F500002EB81016069884218D1201DFEF750FFC5
:106F60002F480068C06AE0622F49E06A09688842D9
:106F700002D92D49E06A0860E16A01EB81011D4AEE
:106F800002EB8100211DFEF713FF03E02448006897
:106F9000C06AE06270BD70B505462C4665B1616C93
:106FA000E06A88425CD0201DFEF72AFF606CE06238
:106FB000E06AC0F1050041E052E0000025730909D4
:106FC0003009093025250D0A00000000B0D2072045
:106FD0002573090925750909257525250D0A000060
:106FE00025730909257509093C3125250D0A00007D
:106FF000A4C10720E8D10720D0C10720D4C10720B1
:1070000088D207209CD20720D8C10720DCC10720E6
:10701000E0C10720C8C10720B0C10720B8C10720C0
:1070200094C10720C4C10720A8C10720CCC10720F4
:10703000A0C1072074D20720BCC10720A061094964
:10704000E06A0968884202D90649E06A0860E16A94
:1070500001EB8101044A02EB8100211DFEF7A8FE2D
:1070600070BD0000A8C10720E8D10720001F4FF025
:1070700080730360001F0160001F00230360143849
:1070800002602038704723484FF0E0214861072014
:107090000861704710B52048006840F478001E4928
:1070A00008600846006840F078400860FFF7EBFF92
:1070B00000201A490860FEF727F8002010BD70472D
:1070C0004FF0805014491C390860704710B5FEF726
:1070D00041F812480068401C1049086010BD10B506
:1070E0000E480068401E0D4908600846006808B94F
:1070F000FEF737F810BD10B54FF0805006491C3927
:1071000008600024FEF726F8FFF7FAF9FEF729F8E1
:1071100010BD00009F86010020ED00E0E4C10720C3
:107120002DE9F04104464FF00008FFF79DFA7F4833
:10713000006898B97E497F4A11600021516047F686
:1071400018117D4A516000211160794847F61811E5
:1071500041601146016001207449086044B1103457
:1071600014F0070F04D004F00700C0F10800044435
:10717000002C31D047F6181084422DD26D4F38467E
:10718000056801E02F462D686868A04202D2286891
:107190000028F7D1684885421ED0386800F11008F1
:1071A000286838606868001B202810D92E19686884
:1071B000001B70606C6071685E4800E000680268E7
:1071C00052688A42FAD302683260066000BF5B48A8
:1071D0000068001B59490860FFF7E9F94046BDE81F
:1071E000F081F0B50025534801680A680B46044653
:1071F0004EE0486845183EE0954235D148685668EB
:10720000B0420ED2486856683044486008689042E0
:1072100002D1106820601AE00868206010681860C9
:1072200015E048685668B0420ED948685668304440
:1072300048601068884202D10868186007E0086852
:1072400020601068186002E04FF0FF30F0BD4E681B
:10725000384800E0006807687F68B742FAD30768DB
:107260000F6001600120F1E713461868904201D1D8
:1072700000BFFEE71A6810680028BDD10C462068E0
:10728000884201D100BFFEE721682A480268034610
:1072900008680028ADD100BFD8E708B500200090ED
:1072A000FFF714FF00BFFFF79CFF0090009810B19C
:1072B0000098401CF7D1FFF712FF08BD70B50646D5
:1072C000FFF7D2F93546A6B1103D2C466168194842
:1072D00000E00068026852688A42FAD302682260BD
:1072E0000460164960680968084414490860FFF79B
:1072F000D4FFFFF75CF970BD104800687047704715
:1073000010B502460B48002313800B8000BF148881
:107310004368A34201D9838813800B88848823445F
:107320000B8000680368002BF1D110BD080000102D
:10733000280200100C0000101400001000000010C3
:107340001FB527F0ABFF09F055F90020244A0223AE
:10735000CDE90120009303900346C02221A12348D8
:10736000FFF723F8FFF71DFB002004B010BD2DE947
:10737000F84307460024A04600263D461EE0285D4F
:107380002E2819D10020285505EB08002FF018FBF6
:10739000C0B20DF80600701CC6B2601C00F0FF08F9
:1073A000032E09D105EB08002FF00AFBC0B20DF83F
:1073B00006000098BDE8F883601CC4B2285D002870
:1073C000DDD1401EF6E770B5054628462FF0F8FAE5
:1073D00084B2261246EA042084B2204670BD000022
:1073E0001C00001055534552000000005D7C000059
:1073F00070B506460D463A2128462FF04BF9044653
:107400000CB9284600E0601C044621463046FEF7D1
:107410005AFB08B9012070BD0020FCE710B527F029
:1074200013FF10BD10B527F00FFF10BD10B527F0EA
:107430000BFF10BD10B527F007FF10BD10B527F0EA
:1074400003FF10BD70B500BF012088B1F5A1F8A001
:107450000AF099FB054605B970BD28462FF0B0FA31
:107460000446FF2C01DC002C00DAF5E7F2490C7031
:1074700000BFF1E72DE9F041002507E0EF48F049B2
:1074800041F8350001EBC50148606D1C042DF5DBAA
:1074900000BF012000287DD0EAA1EBA00AF073FB19
:1074A00068B1E8A1E8A00AF06EFB04463CB1E01C1C
:1074B00031F031F906462FF005FDE1490860E1A100
:1074C000E2A00AF060FB68B1DEA1E1A00AF05BFB7C
:1074D00004463CB1E01C31F01EF906462FF0F2FCE8
:1074E000D7494860D7A1DAA00AF04DFB68B1D5A111
:1074F000D8A00AF048FB04463CB1E01C31F00BF97F
:1075000006462FF0DFFCCE498860CEA1D2A00AF05B
:107510003AFB68B1CBA1D1A00AF035FB04463CB1DF
:10752000E01C31F0F8F806462FF0CCFCC449C860E6
:10753000C4A1C8A00AF027FB68B1C2A1C8A00AF084
:1075400022FB04463CB1E01C31F0E5F806462FF082
:10755000B9FCBB490861BBA1C2A00AF014FB68B129
:10756000B8A1C1A00AF00FFB04463CB1E01C31F009
:10757000D2F806462FF0A6FCB1494861B1A1B7A0E8
:107580000AF001FB78B1AFA1B8A00AF0FCFA0446FA
:107590004CB100E01AE0E01C31F0BDF806462FF0D7
:1075A00091FCA7498861A7A1B1A00AF0ECFA68B1E3
:1075B000A4A1B0A00AF0E7FA04463CB1E01C31F007
:1075C000AAF806462FF07EFC9D49C861BDE8F0810F
:1075D000024619B99A4850F832007047984800EBB3
:1075E000C2004068F9E710B5FFF73EF8A2A00AF024
:1075F000C3FA002007F0DEFA01F031FD01F01AFDB8
:1076000027F072FEA1A00AF0B7FA0DF02BFB0DF0E7
:1076100041FAFFF72FFF27F067FE97A00AF0ACFAB8
:1076200016F015FF27F060FE05F064FAFEF7BFFFC5
:1076300010BD10B59A48FEF715F99A48FEF712F9F1
:107640009948FEF70FF99948FEF70CF998A0FEF754
:107650001EFA10BD70B504460D4616463246294640
:1076600020462AF0A6FE70BD1CB5054600200190FC
:1076700000260090284602F05BFE04468F48C0F8C2
:1076800010418F4A0021204602F0C3FD0022042150
:10769000204602F0BEFD00BF01AAD121204602F023
:1076A000B8FD9DF80400B0B16A466321834828F014
:1076B00020FC06469DF8000040B163239DF80020A1
:1076C000711C7E4828F06EFB002000900022C8212B
:1076D000204602F09EFD4FF4FA70FEF7CBFFDBE789
:1076E00010B50020774908604FF49670486001207B
:1076F000087275A1734809302EF0F8FF0020714917
:1077000088614FF496716F48C161012180F82010A3
:1077100070A121302EF0EAFF00206A4908634FF47F
:10772000967168484163002180F838106CA13930A7
:107730002EF0DCFF10BD08B504210320FEF772FB1C
:107740006A49086000235A1E694668480068FEF7C7
:10775000F0FC0022114600982AF02BFE64A002F0F3
:10776000E7FD00BFFEE71FB501229105104607F0B7
:107770009DFC0122D104104607F098FC0122402113
:10778000002007F093FC4FF40021012007F0A2FC39
:107790002021022007F0A8FC02F07AFC0BF0F5FF94
:1077A0000CF023FA54A00AF0E7F90CF0ADFB37A077
:1077B0000AF0E2F901F032FAFFF75CFE0DF06AF927
:1077C0002DA00AF0D9F927F0A8FE01F048FC01F03D
:1077D00031FCFFF737FE2BF032F827F05FFD2AF07F
:1077E00053FF05F087F901F052FB01F0FBFB2EF08F
:1077F000A9FA16F02CFE0020444A0123CDE901200D
:10780000009303900346802241A14448FEF7CDFD3A
:107810003E48006828B90022114641A0FFF71AFF30
:107820008AE08DE0436F6E74726173740000000033
:10783000444953504C415900F5C10720000080BF16
:1078400014D30720436F6E003000000031000000A9
:107850003200000034000000330000003600000059
:1078600038000000350000003130000031320000E7
:1078700037000000313400002F6174343564622F0A
:10788000444556434F4E2E696E6900002F61743493
:107890003564622F4556454E54532E696E6900007B
:1078A00060C00720C0C0072008C0072030C10720E3
:1078B0002F6174343564622F0000000034D3072038
:1078C000F8C10720702908207461736B2055206966
:1078D0006E7600007461736B204D20696E76000037
:1078E0007461736B205220696E760000FCC1072022
:1078F00053535030000000002F6174343564622F00
:1079000053454E534F52532E696E690034C20720BF
:1079100055617274436F6E74726F6C004163030043
:10792000CEF8E8E1EAE02055617274436F6E74723C
:107930006F6C207461736B00F0A0FDF71DFC05E017
:107940000C210A20FEF76EFAF2490860002016F0BA
:107950009BFE0020F04A0123CDE901200093039013
:107960000346C022EDA1EF48FEF71FFDEA4800687C
:1079700038B900221146ECA0FFF76CFEEFA0FDF72E
:10798000FBFB01200023C022F1A10090F14812F07E
:1079900025FAF14908600846006838B90022114606
:1079A000EEA0FFF757FEF1A0FDF7E6FB0123002252
:1079B000EC21F2A014F083FAF2490860084600684E
:1079C00038B900221146F0A0FFF744FEF3A0FDF7FE
:1079D000D3FB0020F64A0123CDE901200093039058
:1079E0000346C022F3A1F548FEF7DFFCF04800682B
:1079F00038B900221146F2A0FFF72CFEF5A0FDF7E2
:107A0000BBFB0020F84A0123CDE90120009303903D
:107A10000346C022F5A1F748FEF7C7FCF24800680C
:107A200038B900221146F4A0FFF714FEF7A0FDF7C5
:107A3000A3FB0020FA4A0623CDE90120009303901E
:107A400003464022F7A1AFF21130FEF7AEFCF44836
:107A5000006838B900221146F4A0FFF7FBFDF3A03F
:107A6000FDF78AFBFFF73CFE01F00BFB01281AD162
:107A70000020F24A0123CDE9012000930390034640
:107A80008022EFA1AFF21F40FEF78FFCAFF227403C
:107A9000002820D100221146EAA0FFF7DBFDE3A079
:107AA000FDF76AFB17E00020EA4A0123CDE9012037
:107AB00000930390E84B8022E8A1EA48FEF775FCAA
:107AC000E448006838B900221146E7A0FFF7C2FD7C
:107AD000D6A0FDF751FB1FBD7CB504460D46002026
:107AE000019000950121E54880F83810E4480068CD
:107AF00008B900BFFEE73CB900231A466946E048D2
:107B00000068FEF740FA06E0002301AA6946DC4857
:107B10000068FEF7C0FA7CBD10B542F21070FEF7A7
:107B2000A9FDD8A10020FFF7D7FF42F21070FEF7A1
:107B3000A1FD10BD3EB500235A1E6946D448006819
:107B4000FEF7F7FA00B93EBD9DF800000F281BD0E4
:107B500006DC01281BD0092827D00C282FD12BE0C8
:107B6000102804D0132826D0182828D120E0C9A036
:107B700002F0DEFB04460022C821204602F049FB49
:107B8000204602F0CBFB1BE004F077FD18E00CF080
:107B9000ECFB0CF04AFEC248007828B1C1480078DE
:107BA00010B90120C04908600AE0FFF7B5FF07E0FF
:107BB000FFF719FD04E003E0FDF7DAFA00E000BF8B
:107BC00000BF00BFBFE710B5B848007810F0080F3D
:107BD0000BD000221146B6A0FFF73CFDB348007859
:107BE00040F00800BB4981F88001B048007810F0EF
:107BF000040F0BD000221146B7A0FFF72BFDAB48B6
:107C0000007840F00400B34981F88001A74800786B
:107C100010F0020F0BD000221146B8A0FFF71AFD9A
:107C2000A248007840F00200AA4981F880014FF094
:107C300000024FF008014FF0020007F037FA02206F
:107C400007F05CFA10F0080F07D00020B649087062
:107C500000221146B5A0FFF7FDFC10BD0C2132201B
:107C6000FEF7E0F88A49086008460068B5490860F0
:107C7000FFF779FD04F001FDFFF7A5FF00BFFFF757
:107C800059FF00207D490860F9E7FEB504460D461E
:107C900017461E468DF800400195ADF80870002388
:107CA000324669467A480068FEF76DF9FEBD10B5A8
:107CB000A548006840B14FF48001012007F00AFA9E
:107CC0000020A149086007E04FF48001012007F07F
:107CD0000BFA01209C49086010BD10B50446022C27
:107CE0000BD100221146AFF208402AF062FBAFF23E
:107CF000004002F01DFB00BFFEE727E155617274F2
:107D0000436F6E74726F6C5F5441534B20455252F7
:107D10004F520A00F0C10720A8CF07204D4F44451D
:107D20004D000000D55803004D4F44454D5F544170
:107D3000534B204552524F52000000004D4F4445D6
:107D40004D5F5441534B204552524F520A000000A0
:107D500046545000C99D01001CC20720CEF8E8E13E
:107D6000EAE020465450207461736B004654505F23
:107D70005441534B204552524F520A0048545450DC
:107D80000000000020C20720CEF8E8E1EAE0204829
:107D9000545450207461736B0000000048545450D8
:107DA0005F5441534B204552524F520A000000008D
:107DB00024C2072054656C6E6574000023DD010049
:107DC000CEF8E8E1EAE02054656C6E6574207461D9
:107DD000736B000054656C6E65745F5441534B20A7
:107DE0004552524F520A000028C207204576656E60
:107DF00074000000D38B00004576656E745F5441BB
:107E0000534B204552524F52000000004576656E9C
:107E1000745F5441534B204552524F520A000000A8
:107E20003CC207205245534554000000424F445F76
:107E30005441534B204552524F520A0038C207203A
:107E40004D424300CEF8E8E1EAE0204D4243207481
:107E500061736B0030C20720F8C107204D425F54A8
:107E60004350000077FC0200CEF8E8E1EAE0204D44
:107E700042544350207461736B0000007029082045
:107E8000FCC10720534D5320524553455400000078
:107E900040C2072044495343524554450000000066
:107EA00045C20720F6C1072000C2072080C10F404D
:107EB000D3F1F2F0EEE9F1F2E2EE20E2EAEBFEF7C6
:107EC000E5EDEE0DEFEEF1EBE520504F574552207A
:107ED0004F46460000C00F40D3F1F2F0EEE9F1F258
:107EE000E2EE20E2EAEBFEF7E5EDEE0DEFEEF1EB70
:107EF000E52057445420524553455400D3F1F2F045
:107F0000EEE9F1F2E2EE20E2EAEBFEF7E5EDEE0D4E
:107F1000EFEEF1EBE52045585445524E414C2052CE
:107F20004553455400000000F4C1072053494D2D2E
:107F3000EAE0F0F2E020EEF2F1F3F2F1F2E2F3E542
:107F4000F200000048C2072008C2072004EB4400EA
:107F5000424A02EBC00000F109010020FFF7BCFD1E
:107F600010BD10B5002400BF16E004EB44003B49EF
:107F700001EBC000007A70B104EB440051F830000E
:107F800004EB4401354A02EBC1014968884202D939
:107F90002046FFF7A2FE641C032CE6DB10BD10B5E3
:107FA00027F0A2F9FFF7DDFF10BD10B5022007F0A2
:107FB000A5F810F0080F0DD029480078012809D144
:107FC00000202749087000221146AFF2A000FFF7F9
:107FD00041FB10E0022007F091F810F0080F0AD1E1
:107FE0001F48007838B901201D4908700022114649
:107FF0001CA0FFF72FFB10BD10B54FF400201E4949
:10800000886020211C48C1600A210174012141744B
:108010000021416181614FF40221C161402101626F
:1080200080F82410002180F825108162C1624FF48D
:1080300006210163202141630A2180F838100121C3
:1080400080F839100021C1630164002403E0E0B22C
:1080500003F09CFE641C032CF9DB10BD7029082082
:10806000F4C1072053494D2DEAE0F0F2E020E2F19F
:10807000F2E0E2EBE5EDE0007CDC0720054800479C
:10808000FEE7FEE7FEE7FEE7FEE7FEE7FEE7FEE7C8
:10809000FEE7FEE7D550000010B50446092C42D299
:1080A000DFE804F041050E1720292F353B000120A1
:1080B00020490870002211461FA0FFF7CBFA32E0DA
:1080C00001201C4908700022114621A0FFF7C2FAC6
:1080D00029E00120174908700022114622A0FFF76D
:1080E000B9FA20E00120134908700022114624A0AB
:1080F000FFF7B0FA17E00022114627A0FFF7AAFA0F
:1081000011E00022114629A0FFF7A4FA0BE000229B
:1081100011462BA0FFF79EFA05E0002211462EA083
:10812000FFF798FA00BF00BF4FF40021012006F0CE
:10813000DBFF10BDF6C10720C4E0F2F7E8EAE83A39
:1081400020EEF8E8E1EAE020EFE0ECFFF2E80000E2
:10815000D1EEE1FBF2E8FF3A20EEF8E8E1EAE020B8
:10816000EFE0ECFFF2E80000C4E0F2F7E8EAE83AFA
:1081700020EEF8E8E1EAE020F4E0E9EBE0000000BE
:10818000D1EEE1FBF2E8FF3A20EEF8E8E1EAE02088
:10819000F4E0E9EBE00000004641543A20EEF8E854
:1081A000E1EAE020F4E0E9EBE00000004641543A67
:1081B00020EEF8E8E1EAE020EFE0ECFFF2E8000072
:1081C000D2E0E9ECE5F03A20EEF8E8E1EAE020F46C
:1081D000E0E9EBE0000000004155544F47524150A8
:1081E000483A2066696C65206572726F7200000003
:1081F000FE480078704710B50446082C2DD2DFE801
:1082000004F004050E0F1819222300BF012029F0E5
:1082100061FB4FF08061032006F066FF1DE000BFA8
:10822000022029F057FB4FF00071032006F05CFF9D
:1082300013E000BF032029F04DFB4FF080510120D7
:1082400006F052FF09E000BF042029F043FB4FF085
:108250000051012006F048FF00BF00BF10BD10B55F
:10826000044634B1012C08D0022C0AD0032C10D1C2
:108270000BE0012029F02EFB0BE0022029F02AFB65
:1082800007E0032029F026FB03E0042029F022FB6D
:1082900000BF00BF10BD2DE9FF4701E19DF80400BC
:1082A0006F287AD01CDC67283BD010DC14286AD0F9
:1082B00006DC0D2868D00E2867D0122822D1D2E023
:1082C000642819D065281ED06628F7D122E06838C6
:1082D000072817D2DFE800F02C333A41484F5A0004
:1082E00070380E28F5D2DFE800F05F666D747B828F
:1082F0008990979EA5ACB3B7BD48006840F00100D7
:10830000BB490860CBE0BA48006840F00200B849B9
:108310000860C4E0B648006840F00400B449086052
:10832000BDE0B348006840F00800B1490860B6E01D
:10833000AF48006840F01000AD490860AFE0AC48BD
:10834000006840F02000AA490860A8E0A84800683A
:1083500040F04000A6490860A1E0A548006840F050
:108360008000A34908609AE0A148006820F001005D
:108370009F49086093E09E48006820F002009C49F5
:1083800008608CE009E06BE070E07AE098480068F3
:1083900020F004009649086081E09548006820F0CC
:1083A0000800934908607AE09148006820F01000C6
:1083B0008F49086073E08E48006820F020008C49E7
:1083C00008606CE08A48006820F040008849086036
:1083D00065E08748006820F08000854908605EE01D
:1083E0008448007840F001008249087057E08148D5
:1083F000007840F002007F49087050E07D48007826
:1084000040F004007B49087049E07A48007840F069
:1084100008007849087042E07648007820F00100B2
:10842000744908703BE07348007820F002007149FD
:10843000087034E06F48007820F004006D4908703F
:108440002DE06C48007820F008006A49087026E0AA
:1084500001206949087022E00020674908701EE089
:1084600015F0B6FF1BE028F06FFF18E000F0C0FC2D
:1084700062480078022803D10299C8B229F0CBF9EA
:108480000DE05F48007880F0FF005D4908705B48B0
:108490000078022802D1002028F00AFF00BF00BFA8
:1084A00000231A4601A957480068FDF742FE00283C
:1084B0007FF4F4AE5148007810B15348007808B109
:1084C000BDE8FF8751480068514908604F4840683F
:1084D00048604948007801280FD14448007860B9C5
:1084E00028214C482EF0A1F84BA14A482FF064FCFB
:1084F000002211464748FFF7ADF83F4800783B4956
:108500000870002437E00120A0403A49097808406B
:10851000002823DD0120A04043490978084229D1E1
:108520000121A140C8B229F011FAE0B2FFF797FE8D
:108530000120A0403D49097808433C4908702821A2
:1085400034482EF072F8621C39A132482FF034FC06
:10855000002211462F48FFF77DF80BE00120A040D4
:10856000314909780840002804DD0121A140C8B242
:1085700029F0F2F9641C042CC5DB1E4800782A4956
:108580000870002484E00120A040274909780842AF
:108590007DD034B1012C16D0022C53D0032C75D1D0
:1085A00062E01348006820F0030011490860174892
:1085B000006820F00300154908600846406840F054
:1085C0000300486062E00A48006820F00C00084997
:1085D00008600E48006820F00C000C49086008464E
:1085E000406840F00C00486050E0000057C407208D
:1085F00058C407205CC407205DC4072045C207207B
:1086000054C40720ECCA0720F6C1072060C4072025
:1086100068C40720407B0010C4E2E5F0FC20EEF2C5
:10862000EAF0FBF2E000000055C4072056C4072022
:10863000D2F0F3E1E02025643A20EDE5F220F1E20A
:10864000FFE7E800FE48006820F03000FC490860C1
:10865000FC48006820F03000FA490860084640688D
:1086600040F03000486011E0F548006820F0C0009C
:10867000F3490860F348006820F0C000F149086041
:108680000846406840F0C000486000BF00BF641C5E
:10869000042CFFF678AFEA48007810F0020F03D000
:1086A000022029F047F902E0022029F049F9E448C4
:1086B000007810F0080F03D0082029F03BF902E001
:1086C000082029F03DF9DE48007810F0200F03D093
:1086D000202029F02FF902E0202029F031F9D84894
:1086E000007810F0800F03D0802029F023F902E0F9
:1086F000802029F025F90024D7E00120A040D049AE
:10870000096808426FD0CF4840680121A140084263
:108710006AD10121A140C8B229F000F9E0B2FFF707
:108720006AFDC84800680121A140084275D128218E
:10873000C5482DF07AFF082C2DD2DFE804F004099B
:108740000E13181D2227C1A00BF0C3FB054622E023
:10875000BFA00BF0BEFB05461DE0BEA00BF0B9FBB1
:10876000054618E0BCA00BF0B4FB054613E0BBA027
:108770000BF0AFFB05460EE0B9A00BF0AAFB0546D7
:1087800009E0B8A00BF0A5FB054604E0B6A00BF08D
:10879000A0FB054600BF00BF25B9B4A1AA482FF031
:1087A0000BFB6CE0082C2FD2DFE804F004090E1359
:1087B000181F2429B3A1A4482FF0FEFA24E0B7A182
:1087C000A1482FF0F9FA1FE0B9A19F482FF0F4FA61
:1087D0001AE0BDA19C482FF0EFFA15E0BFA19A481E
:1087E0002FF0EAFA10E058E05EE0C2A196482FF0C0
:1087F000E3FA09E0C4A194482FF0DEFA04E0C8A12E
:1088000091482FF0D9FA00BF00BF012269462846DF
:108810000BF00AFA082C31D200E036E0DFE804F071
:108820000419051A061B071C00BF00BF00BF0098F3
:108830002EF00CFB0746884683482DF035FF824911
:1088400000EB01093A464346BAA148462FF0B4FA74
:1088500014E000BF00BF00BF00982EF0F7FA0746F3
:10886000884679482DF020FF774900EB01093A4608
:108870004346B3A148462FF09FFA00BF00BF002235
:1088800011467148FEF7E6FE00BF6E480168012000
:10889000A04001436B48016006E06A48406801213E
:1088A000A140884367494860641C082CFFF625AF47
:1088B000A648006863490968884205D1A348406812
:1088C00060494968884210D0A1A001F031FD0646F8
:1088D00000221146304601F080FC01225949304601
:1088E00001F06CFC304601F019FD00BFE8E570B501
:1088F000054697A001F01CFD0646012D06D0022D6D
:108900002BD0032D50D0042D26D174E04D480068A3
:1089100020F001004B4908600846006820F0020082
:1089200008600846406840F001004860084640681A
:1089300040F002004860012028F0F6FF022028F0F5
:10894000F3FF4FF08061032006F0C4FB82480078FB
:1089500020F001008049087003E13A48006820F0E7
:108960000400384908600846006820F008000860E4
:108970000846406840F0040048600846406840F0FF
:1089800008004860042028F0CFFF082028F0CCFF22
:108990004FF00071032006F09DFB6F48007820F037
:1089A00002006D490870DCE02648006820F01000E5
:1089B000244908600846006820F020000860084646
:1089C000406840F0100048600846406840F02000D1
:1089D0004860102028F0A8FF202028F0A5FF4FF0C5
:1089E0008051012006F076FB5B48007820F00400FF
:1089F00059490870B5E01348006820F0400011495B
:108A000008600846006820F080000860084640685A
:108A100040F0400048600846406840F080004860F0
:108A2000402028F081FF802028F07EFF4FF0005189
:108A3000012006F04FFB4848007820F008008DE048
:108A400058C4072060C40720407B0010533000004A
:108A50005331000053320000533300005334000000
:108A6000533500005336000053370000D1EEE1FBD0
:108A7000F2E8FF3A20EDE5F220E4E0F2F7E8EAE080
:108A800000000000D2F0F3E1E020312C20E8E7EE16
:108A9000EBFFF6E8FF0D523D00000000D2F0F3E1DD
:108AA000E020312C20F1E8E3EDE0EB0D523D000039
:108AB000D2F0F3E1E020322C20E8E7EEEBFFF6E81D
:108AC000FF0D523D00000000D2F0F3E1E020322C17
:108AD00020F1E8E3EDE0EB0D523D0000D2F0F3E1D0
:108AE000E020332C20E8E7EEEBFFF6E8FF0D523DE7
:108AF00000000000D2F0F3E1E020332C20F1E8E3A5
:108B0000EDE0EB0D523D0000D2F0F3E1E020342C1B
:108B100020E8E7EEEBFFF6E8FF0D523D0000000015
:108B2000D2F0F3E1E020342C20F1E8E3EDE0EB0DAE
:108B3000523D000025302E316620EACEEC000000C8
:108B400025302E316620CEEC0000000068C40720DE
:108B5000534156455200000056C407207A49087018
:108B600000BF00BF00221146304601F036FB012253
:108B70007649304601F022FB304601F0CFFB00245D
:108B800010E00120A040704909780840002808DD65
:108B90000121A140C8B228F0D9FEE0B2FFF75FFB87
:108BA00002E0641C042CECDB00BF00240EE06748EC
:108BB00001680120A040014207D0E0B2FFF71BFB93
:108BC0000121A140C8B228F0A9FE641C082CEEDBEC
:108BD00070BD27F0DEFA00BF5D480078012807D19C
:108BE00028F0D6FB01205B49087002205849087024
:108BF0005848007801280BD1022056490870544883
:108C0000007810B90020FFF772FE012028F050FB19
:108C1000FFF741FB3220FDF72DFDDDE770B50C219C
:108C20001E20FDF7FFF84C4908604C480BF058FC3B
:108C30004B480BF055FC4B480BF052FC4A480BF0EC
:108C40004FFC4A480BF04CFC49480BF049FC4948A2
:108C50000BF046FC48480BF043FC48480BF040FC46
:108C600047480BF03DFC47480BF03AFC46480BF0F8
:108C700037FC46480BF034FC45480BF031FC4548C6
:108C80000BF02EFC44480BF02BFC44480BF028FC66
:108C900043480BF025FC43480BF022FC42480BF004
:108CA0001FFC42480BF01CFC41480BF019FC4148EA
:108CB0000BF016FC40480BF013FC40480BF010FC86
:108CC0003F480BF00DFC4FF08061032006F002FAE4
:108CD0004FF00071032006F0FDF94FF080510120A4
:108CE00006F0F8F94FF00051012006F0F3F90122E7
:108CF0009106032006F0DAF901225106032006F05E
:108D0000D5F901221107104606F0D0F901225107CA
:108D1000104606F0CBF9AFF2C81001F009FB05468A
:108D200000221146284601F058FA01220749284638
:108D300001F035FA0446284601F0F0FA1CB900208B
:108D400002490860486070BD56C4072060C407200F
:108D5000F6C1072045C20720ECCA07204CC20720F5
:108D600060C2072074C2072088C207209CC2072067
:108D7000B0C20720C4C20720D8C20720ECC2072017
:108D800000C3072014C3072028C307203CC30720C3
:108D900050C3072064C3072078C307208CC3072073
:108DA000A0C30720B4C30720C8C30720DCC3072023
:108DB000F0C3072004C4072018C407202CC40720D0
:108DC00040C4072070B506460D463A2128462DF0CE
:108DD00061FC04460CB9284600E0601C04462146AC
:108DE0003046FCF770FE08B9012070BD0020FCE79A
:108DF000002038498860704710B500BF0120002866
:108E000041D035A136A008F0BEFE04463CB94EF66E
:108E10006020354948600720FFF73EF90FE0204603
:108E20002DF0DBFD304948600846406844F620617B
:108E3000884202D208462C4948602B4840682BA142
:108E400027A008F0A0FE044634B929482949486003
:108E50000720FFF721F919E020462DF0BEFD254936
:108E60004860084640684EF66021884202D20846B3
:108E7000204948601F4840681F49884206D9084673
:108E80001C49486002E00020FFF706F910BD10B54C
:108E90001A4826F067F91A4826F064F9194826F0AE
:108EA00061F9194826F05EF9184826F05BF909487F
:108EB00026F058F90F4826F055F9154826F052F9D2
:108EC000094826F04FF9134826F04CF9FFF794FFB4
:108ED00010BD000030C5072050696E67000000001B
:108EE00054494D455253000070C50720536D73001F
:108EF000E093040050C5072080EE360070C40720C0
:108F0000B0C40720D0C4072010C50720F0C4072034
:108F100090C4072090C5072070B506460D463A213B
:108F200028462DF0B7FB04460CB9284600E0601C2B
:108F3000044621463046FCF7C6FD08B9012070BD45
:108F40000020FCE730B50246002009E0135C0C1A53
:108F5000641E145D14540C1A641E1355441CE0B2B4
:108F600001EBD175B0EB650FF0DB30BD01B504212D
:108F70006846FFF7E7FF009808BD01B50421684681
:108F8000FFF7E0FF009808BD01B502216846FFF732
:108F9000D9FFBDF8000008BD2DE9F04104460D469B
:108FA00016461F46384800688000B4EB500F17D2B1
:108FB0006019354909688900B0EB510F0ED86A0075
:108FC0003248006800EB440130462DF007FB0220D8
:108FD00000EB450038700020BDE8F0810320FBE77E
:108FE0000220F9E710B50BF0E5F927490860096898
:108FF0008800FEF795F82549086010BD38B50BF0DC
:10900000E4F9044604B938BD00250FE001226946A1
:1090100020460AF009FE0098FFF7A8FF29466D1CBC
:109020001A4A126842F82100D4F80540002CEDD10C
:1090300000BFE8E710B500BF012070B114A116A071
:1090400008F0A1FD044604B910BD16A120462DF07C
:1090500032FB10B901201449086000BFF4E710B5D5
:1090600000BF012058B111A112A008F08CFD0446E8
:1090700004B910BD2046FEF7A6F91049086000BFEC
:10908000F7E7094800687047280000102400001026
:109090004D6574686F6400004D425F436C69656E96
:1090A00074000000434F4D0020000010506F727498
:1090B00000000000494E464F00000000F8C10720A4
:1090C00070B506460D463A2128462DF0E3FA0446CF
:1090D0000CB9284600E0601C044621463046FCF7E7
:1090E000F2FC08B9012070BD0020FCE710B5002299
:1090F0004FF40051022005F0D9FF03220D21022078
:1091000006F0C4F90122D106104605F0CFFF4FF05A
:109110000061012005F0E8FF01229104002005F024
:10912000C5FF4FF48021002005F0D4FF012210215B
:10913000022005F0BBFF1021022005F0CBFF05F057
:109140001EFB05A008F018FD002005F033FD07A068
:10915000FCF712F8002010BD2F6174343564622FC3
:10916000444556434F4E2E696E6900004D4F4445AD
:109170004D20437265617465640A000000B589B0D2
:1091800003208DF81E0000208DF820008DF81F00B0
:1091900001208DF81C0014208DF81D0007A806F092
:1091A000C3F917208DF81D0007A806F0BDF9182097
:1091B0008DF81D0007A806F0B7F902212A2007F054
:1091C000C5FA0020029003908F4806900720019076
:1091D00000200490059001A98C4806F0EFF90121C8
:1091E0008A4806F035FA00210120FCF71BFE884969
:1091F00048600846406828B1486800231A46194666
:10920000FCF7C1FE8248406850B90122002181A0CC
:10921000FEF720FA85A0FBF7AFFF012009B000BDE3
:1092200088A0FBF7A9FF0020F8E710B57849486847
:1092300000235A1E1946FCF77CFF864810BD0346E2
:109240004FF0FF30704703464FF0FF3070472DE975
:10925000F047804689461546D8F80C40002D2BDB98
:10926000294648462DF0E1F94FF49670FDF758FF76
:109270000646002E20D0626877A130462EF09CFD75
:1092800007462268F01978A12EF096FD0744208940
:109290002844B84201DD20893D1A208981192A46D7
:1092A00048462DF09BF92089284420813046FEF75E
:1092B00005F82846BDE8F0870020FBE710B5044616
:1092C0000B46E16822B1012A09D0022A1BD111E024
:1092D0001E2B01D20B8101E00020088116E00889D5
:1092E00018441E2803D208891844088101E0002090
:1092F00008810BE01E2B03D2C3F11E00088101E0A0
:109300000020088102E00020088110BD00BF08890C
:10931000FBE703464FF0FF30704770B50446A56881
:10932000686800231A461946FCF72DFE70BD2DE92A
:10933000F047054688461646C246AC68D5F80C90FC
:10934000002700BF11E01AF80710206806F0A4F902
:1093500000BF0221206806F0B3FA0028F9D0D9F83E
:109360000000401CC9F800007F1CB742EBDB00BFC7
:109370001021206806F0A4FA0128F9D000BF206867
:1093800006F08DF90421206806F09AFA0028F6D13B
:109390003046BDE8F0872DE9F05F05460F461646DA
:1093A000AC68D5F80C904FF0000ABB4600BF2068AF
:1093B00006F075F900F0FF080421206806F080FA35
:1093C0000028F4D182461AE00021206806F064F9F2
:1093D00000BF0421206806F073FA0028F9D0206845
:1093E00006F05DF900F0FF088BF800800BF1010B2F
:1093F000D9F80400401CC9F804000AF1010AB2457A
:10940000E2DB3046BDE8F09F40787D0100800840F7
:109410002C000010535350303A2053656D61706832
:109420006F72203D204E554C4C000000535350307D
:109430003A2053656D6170686F72203D204E554C27
:109440004C0A0000535350302043726561746564C8
:109450000A00000034000010526563697665202D13
:1094600020253130750A00005472616E736D697485
:1094700020253130750A526563697665206275660C
:109480003A0A000010B5002807DACA06140EF74A97
:1094900000F00F031B1FD45403E0CA06130EF44A56
:1094A000135410BD00B587B002208DF80A000020CB
:1094B0008DF80C008DF80B0002208DF808000120BB
:1094C0008DF8090002A806F02FF800208DF8090099
:1094D00002A806F029F800208DF80C008DF80B008A
:1094E00002208DF8080005208DF8090002A806F07A
:1094F0001BF84FF49640059003208DF819000020CA
:109500008DF818008DF81A0005A9DA4806F0ABFBB3
:1095100000208DF8120003208DF8130001208DF833
:1095200010008DF8110000208DF8000001208DF84A
:10953000010000208DF8020001208DF803008DF855
:1095400004008DF8050000208DF807006946C94821
:1095500006F09CFD0121C74806F0C2FD04A9C548DC
:1095600006F0E2FC01220021C24806F093FC012231
:109570001146C04806F08EFC1F210620FFF782FF2F
:10958000062000F04FFD0121BA4806F025FB00211E
:109590000120FCF747FCB849C8620846C06A28B1F8
:1095A00000231A46C86A1946FCF7EDFCB248C06AA7
:1095B00050B901220021B1A0FEF74CF8B6A0FBF78C
:1095C000DBFD012007B000BD00210120FCF72AFCD3
:1095D000A94988620846806A28B100231A46886A29
:1095E0001946FCF7D0FCA448806A48B90122002142
:1095F000B0A0FEF72FF8B6A0FBF7BEFD0120E1E713
:10960000BAA0FBF7B9FD0020DCE710B5BB48007835
:1096100018B90120B949087007E002220021B8A05A
:10962000FEF718F8BAA0FBF7A7FDB44810BD00B5C7
:1096300085B002208DF8020000208DF804008DF81E
:1096400003008DF8000001208DF80100684605F048
:109650006BFF00208DF80100684605F065FF4FF4B0
:10966000E130039003208DF8110000208DF81000E8
:109670008DF8120003A9AA4806F0F5FA00208DF82B
:109680000A0003208DF80B0001208DF808008DF8EA
:10969000090002A9A24806F047FC01220021A048C7
:1096A00006F0F8FB012211469D4806F0F3FB1F214E
:1096B0000820FFF7E7FE082000F0B4FC01219848DD
:1096C00006F08AFA00210120FCF7ACFB9549C8623C
:1096D0000846C06A28B100231A46C86A1946FCF732
:1096E00052FC9048C06A50B9012200218EA0FDF7BB
:1096F000B1FF94A0FBF740FD012005B000BD0021A3
:109700000120FCF78FFB874988620846806A28B1F0
:1097100000231A46886A1946FCF735FC8148806A9E
:1097200048B9012200218EA0FDF794FF93A0FBF71A
:1097300023FD0120E1E798A0FBF71EFD0020DCE7F8
:1097400010B59948007818B901209749087007E0CA
:109750000222002195A0FDF77DFF98A0FBF70CFDEC
:10976000914810BD03464FF0FF3070472DE9F84F88
:1097700081468B461646D9F80C40D9F8080000906F
:10978000009800F1040A002E41DB314658462CF0C7
:109790004CFF4FF49670FDF7C3FC0746002F36D000
:1097A00062688AA138462EF007FB054622687819C0
:1097B0008AA12EF001FB0544BAF800800FE0DAF828
:1097C000080010F8080040B278556D1CB8F1000F81
:1097D00001D1BAF80480A8F101001FFA80F8B5F5AC
:1097E000917FECDB20893044A84201DD20892E1ACC
:1097F0002089C119324658462CF0F0FE20893044A9
:1098000020813846FDF75AFD3046BDE8F88F00202C
:10981000FBE703464FF0FF30704710B504460B4698
:10982000E16822B1012A0BD0022A1DD115E0B3F55F
:10983000967F01D20B8102E00020088110BDE2E09A
:1098400008891844B0F5967F03D208891844088126
:1098500002E000200881F1E7D5E0B3F5967F04D25D
:10986000C3F596700881CAE0CAE0C5E018ED00E0D3
:1098700000E400E000000140B8C507205541525403
:10988000313A2053656D6170686F725F7478203D66
:10989000204E554C4C00000055415254313A205353
:1098A000656D6170686F725F7478203D204E554C15
:1098B0004C0A000055415254313A2053656D617095
:1098C000686F725F7278203D204E554C4C0000004E
:1098D00055415254313A2053656D6170686F725F23
:1098E0007278203D204E554C4C0A00005541525490
:1098F0003120437265617465640A0000E8C5072081
:1099000055415254312052455F4F50454E000000A2
:1099100055415254312052455F4F50454E0A000088
:1099200000C00940F8C5072055415254333A20532E
:10993000656D6170686F725F7478203D204E554C84
:109940004C00000055415254333A2053656D61700C
:10995000686F725F7478203D204E554C4C0A0000B1
:1099600055415254333A2053656D6170686F725F90
:109970007278203D204E554C4C0000005541525409
:10998000333A2053656D6170686F725F7278203D65
:10999000204E554C4C0A000055415254332043721E
:1099A00065617465640A000028C607205541525459
:1099B000332052455F4F50454E00000055415254F0
:1099C000332052455F4F50454E0A0000526563698F
:1099D0007665202D20253130750A00005472616EA5
:1099E000736D697420253130750A52656369766537
:1099F000206275663A0A0000002008811EE702E036
:109A0000002008811AE700BF088917E770B50446EF
:109A100025462878012802D10020287007E002227C
:109A20000021F8A0FDF716FEFAA0FBF7A5FB70BD1C
:109A300070B5054605F110040026FDF747FB2868C0
:109A4000007D10F0200F17D013E060882188884235
:109A500000D110E0761C6188A068405C296808701D
:109A60006088401C60806088A188884201D1002005
:109A70006080042EE9DB00BFFDF731FB70BD2DE9EE
:109A8000F05F064689461546B76807F11004D6F818
:109A90000CA04FF0000BD8463DE02088618888423A
:109AA00007DB20886188401AA188081A1FFA80FB0A
:109AB00004E060882188401A1FFA80FB19E03846CC
:109AC000FFF7B6FF00235A1E1946F86AFCF731FB70
:109AD00020886188884207DB20886188401AA18835
:109AE000081A1FFA80FB04E060882188401A1FFAD8
:109AF00080FBBBF1010FE2D019F808102288501C3E
:109B00002080A06881542088A188884201D100204B
:109B1000208008F10108A845BFDB3846FFF788FF21
:109B2000DAF800002844CAF800002846BDE8F09F93
:109B30002DE9F047074688469146BC68251DD7F8B1
:109B40000CA0002084F8240084F82500002600BF23
:109B500031E018E094F82400012808D1002084F8AE
:109B60002400022084F825003046BDE8F087002359
:109B70001946226AA06AFCF7DCFA20B9012084F8B1
:109B800025003046F1E7688829888842E2D0698854
:109B9000A868405C08F806006888401C68806888EF
:109BA000A988884201D100206880DAF80400401CAE
:109BB000CAF80400761C4E45CBDB3046D5E72DE9CC
:109BC000F84F82468B461546DAF808703C683E1D11
:109BD00007F11008002000908146BBF1660F6ED09F
:109BE00027DCBBF1340F6BD011DCBBF1030F68D065
:109BF00006DCBBF1010F73D0BBF1020F71D1BEE0E7
:109C0000BBF1040F6ED0BBF10B0FF7D139E1BBF103
:109C1000370F68D006DCBBF1350F75D0BBF1360FBE
:109C2000ECD154E1BBF1640F76D0BBF1650FE5D107
:109C3000A4E0BBF1D30F69D011DCBBF1CC0F1BD07A
:109C400006DCBBF1670F70D0BBF1690FD6D164E0C1
:109C5000BBF1CD0F25D0BBF1D00FCFD144E0BBF18C
:109C6000D40F71D0BBF1D50F6FD0BBF1D60F4ED052
:109C7000BBF1DC0FC2D11DE130887188884205DB61
:109C800030887188401A80B2009006E0B0887188F0
:109C9000401A3188084480B20090BDF80000288046
:109CA00018E1B8F80200B8F8001088420ADDB8F8E8
:109CB0000200B8F80010401A80B200900CE0B6E044
:109CC00003E1B5E0B8F80400B8F80010401AB8F89D
:109CD0000210084480B20090BDF800002880F9E02E
:109CE00024E0F6E0BAE0F3E0B8F80000A8F80200DB
:109CF00030887080012087F8240000231A46194616
:109D0000B86AFCF740F9E5E0E0E005E0CCE0204689
:109D1000296805F025FEDDE0DCE0204605F07EFF49
:109D2000DAF8041048688047D4E096E0207B00F021
:109D3000FC0020732878052808D0062809D00728B9
:109D40000CD0082814D10EE0B1E0B9E0207B2073DC
:109D500012E0207B40F0010020730DE0207B40F0FA
:109D60000200207308E0207B40F00300207303E032
:109D70004FF0FF30BDE8F88F00BFABE0AAE095F8E8
:109D80000090B9F1010F35DD207B40F00800207311
:109D9000B9F1060F2DD2DFE809F02C0308111A23C0
:109DA000207B20F03800207323E0207B20F0380057
:109DB0002073207B40F0080020731AE0207B20F005
:109DC00038002073207B40F01800207311E0207BC6
:109DD00020F038002073207B40F02800207308E03A
:109DE000207B20F038002073207B40F03800207367
:109DF00000BF1BE0B9F1010F14D1207B20F0080057
:109E0000207313E0554152542052455F434C4F5349
:109E100045000000554152542052455F434C4F537A
:109E2000450A0000207B20F00800207352E051E03A
:109E30002878012802D002280AD104E0207B20F0F3
:109E40000400207307E0207B40F00400207302E050
:109E50004FF0FF308EE700BF3CE03BE0287805285C
:109E600002D006280AD104E0207B40F04000207395
:109E700005E0207B20F04000207300E000BF00BF21
:109E800028E0FDF723F9287810F0010F02D0002018
:109E900030807080287810F0020F02D000203080CF
:109EA0007080FDF71CF915E02868386212E0386A06
:109EB00028600FE00020286097F82500287009E04E
:109EC0002046F96905F04CFD04E003E002E001E002
:109ED00000E000BF00BF00204CE72DE9F04105463F
:109EE0000E462C1D0EB1002000E00220074607B9E7
:109EF000002700BF286801782288501C2080A068B5
:109F000081542088A188884201DB0020208020889D
:109F1000618888420BD16088401C6080012085F8F0
:109F200026006088A188884201DB002060802868C4
:109F300090F8580000F00F00B842DBD185F824609B
:109F400000233E4A1946A86AFCF7A5F8BDE8F0814F
:109F50002DE9F04105460026002705F1100413E025
:109F600060882188884200D110E0761C6188A06852
:109F7000405C296808706088401C60806088A18807
:109F8000884201D100206080102EE9DB00BF2088CC
:109F90006188884206DB20886188401AA188081AF7
:109FA00087B203E060882188401A87B2A08800EB5E
:109FB000D071B7EB610F05DD0023214A1946E86A2D
:109FC000FCF769F8BDE8F08110B51E48806800F024
:109FD0000E04042C03D100211B48FFF77EFF0C2C3C
:109FE00003D101211848FFF778FF022C02D116484F
:109FF000FFF7AEFF10BD10B51448806800F00E04E6
:10A00000042C03D100211248FFF767FF0C2C03D169
:10A0100001210F48FFF761FF022C02D10C48FFF726
:10A0200097FF10BD00F01F020121914042094FF03F
:10A03000E02303EB8202C2F80011704738C6072004
:10A040003CC6072000C00940F8C5072000000140B9
:10A05000B8C5072070B504460025216848688047C8
:10A060000546012D00D170BDC5480078401CC4498B
:10A0700008700846406820B90846446000206060C7
:10A0800004E0BF4840686060BD4844600020EAE7E3
:10A0900010B5BC48BC490860002048600846FFF77E
:10A0A000D9FFBA48BA490860002048600846FFF75F
:10A0B000D1FFB848B8490860002048600846FFF75B
:10A0C000C9FFB648B6490860002048600846FFF757
:10A0D000C1FFB448B4490860002048600846FFF753
:10A0E000B9FFB248B2490860002048600846FFF74F
:10A0F000B1FFB048B0490860002048600846FFF74B
:10A10000A9FFAE48AE490860002048600846FFF746
:10A11000A1FFAC48AC490860002048600846FFF742
:10A1200099FFAA48AA490860002048600846FFF73E
:10A1300091FF0A20FCF79EFAFDF77BFAA548A64995
:10A140000860002048600846FFF784FFA348A44940
:10A150000860002048600846FFF77CFFA148A2493C
:10A160000860002048600846FFF774FF9F48A04938
:10A170000860002048600846FFF76CFF9D489E4934
:10A180000860002048600846FFF764FF9B489C4930
:10A190000860002048600846FFF75CFF10BD70B5FE
:10A1A00004460D46164614B94FF0FF3070BD606886
:10A1B00032462946036920469847F7E770B50446BA
:10A1C0000D46164614B94FF0FF3070BD6068324638
:10A1D0002946436920469847F7E770B504460D467F
:10A1E000164614B94FF0FF3070BD606832462946FC
:10A1F000836920469847F7E770B505460C46204628
:10A200002CF052FA0646324621462846FFF7D6FF82
:10A2100070BD70B504460D46164614B94FF0FF30B8
:10A2200070BD606832462946836A20469847F7E742
:10A23000FFB581B007460D46164600200090002469
:10A240000FB905B0F0BD6A46D4213846FFF7E1FFEB
:10A2500004AAD3213846FFF7DCFF314628462CF00C
:10A26000E4F9761E00BF321B29193846FFF797FF25
:10A27000044404B91DE006E03246691C28462CF06F
:10A28000ADF904B1641E28780D28F5D028780A2885
:10A29000F2D024B1601E285C0A2800D109E004AA8B
:10A2A000DC213846FFF7B5FF0498012801D0B442FD
:10A2B000D9D300BF6A46D3213846FFF7AAFF20460C
:10A2C000BFE770B504460D46164614B94FF0FF308F
:10A2D00070BD606832462946C36920469847F7E753
:10A2E00070B504460D46164614B94FF0FF3070BDE8
:10A2F000606832462946036A20469847F7E770B5FA
:10A3000004460D46164614B94FF0FF3070BD606824
:10A3100032462946436A20469847F7E710B5044677
:10A3200004B910BD606881682046884700BFF8E71F
:10A3300070B50646124844680AE02568314605F1C2
:10A340002C002CF0B8F910B9E868804770BD64683B
:10A35000002CF2D10020F9E770B5054608484468A2
:10A3600009E02668294606F12C002CF0A4F908B96A
:10A37000012070BD6468002CF3D10020F9E70000D3
:10A3800040C607205CA70300A0C6072094870300EF
:10A3900048C60720CC87030050C6072074880300F6
:10A3A00058C60720AC88030060C607205C870300FE
:10A3B00068C607200488030070C60720E4880300ED
:10A3C00078C60720348A030080C60720FC89030072
:10A3D00088C60720C489030090C607206C8A030042
:10A3E00098C607203C880300B0C607201C890300DC
:10A3F000A8C6072054890300B8C607208C8903002B
:10A40000C0C607202DE9FC47804689461446002037
:10A4100001900090D8F80C70002C37DB214648469C
:10A420002CF003F94FF49670FCF77AFE0546002DE8
:10A430002CD0694601A8FCF763FF2846FCF727FBF0
:10A4400028462CF031F90646A81954A1019A2DF09E
:10A45000B3FC0644A819BDF8002056A12DF0ACFCB1
:10A46000064438882044B04201DD3888341A3888E0
:10A470004119224648462CF0B1F8388820443880EB
:10A480002846FCF71BFF2046BDE8FC874FF0FF3055
:10A49000FAE710B504460B46E16822B1012A0AD05A
:10A4A000022A1ED113E0B3F5967F01D20B8001E0A2
:10A4B0000020088018E008881844B0F5967F03D281
:10A4C00008881844088001E0002008800CE0B3F5FB
:10A4D000967F03D2C3F59670088001E000200880C3
:10A4E00002E00020088010BD00BF0888FBE710B51F
:10A4F00035A0FAF741FE002010BD10B536480078AF
:10A5000018B901203449087002E034A0FAF734FE8B
:10A51000314810BD10B504462F480078012803D1FA
:10A5200000202D49087002E030A0FAF725FE10BD8A
:10A530001CB500208DF80000304801906A460021CB
:10A540002F4806F02DFA2E4806F0C7FA02200921FE
:10A55000002807DACA06140E2A4A00F00F031B1F50
:10A56000D45403E0CA06130E274A135400BF022036
:10A570000121814042094FF0E02303EB8202C2F83F
:10A58000001100BF01211E4806F09BFA01210420A2
:10A5900006F0DCF81CBD1A48806870470A204D653B
:10A5A0006D6F72792066726565206D617820253542
:10A5B000750A00004D656D6F727920746F74616C5F
:10A5C00020253575000000005374617473204372B8
:10A5D00065617465640A0000CCC607205374617419
:10A5E000732052455F4F50454E0A0000537461740A
:10A5F000732052455F434C4F53450A00A08601002B
:10A600000080004018ED00E000E400E070B5064670
:10A610000D463A2128462CF03DF804460CB9284650
:10A6200000E0601C044621463046FBF74CFA08B9AE
:10A63000012070BD0020FCE72DE9F0410746002411
:10A6400000250026F8A1384607F09DFA04462CB9EB
:10A650000020F6490873401EBDE8F0812DE0204639
:10A660002CF0AEF90546F2A120462CF067F804461E
:10A67000B4B120782E2813D1A41C20462CF0A0F9C8
:10A68000064606B92E46E948C17A701B401C0844AC
:10A69000E649C872E6A120462CF050F8044604E0D2
:10A6A000E248C07A401CE149C872E048807A401C08
:10A6B000DE49887204B903E0641C20780028CED1FA
:10A6C00000BF0020C8E72DE9F04F8BB00026B1464F
:10A6D000002002908046834600BF0120002878D0E9
:10A6E000D4A1D5A007F04FFA054625B128462BF096
:10A6F000DBFF1E2805D30020CC4908730BB0BDE852
:10A70000F08F294603A82BF0F1FF03AD0020CD49BF
:10A7100008730CE03B21681C2BF0BCFF05460DB113
:10A7200000202870C748007B401CC649087315B13B
:10A7300068780028EED1C349087BFCF7F1FCC149D9
:10A7400008600846006818B90020B8490873D5E7C2
:10A75000BC4A117B10682BF068FF03AD002411E0A8
:10A7600028462CF02DF9B749096808552846FFF707
:10A7700063FF401C00D1C1E728462BF095FF401C29
:10A780000544641CAF48007BA042E9DCAD49097B6D
:10A790008800FCF7C5FCAB4948600846406818B91A
:10A7A0000020A2490873A9E7A64A127B9100A54A96
:10A7B00050682BF03AFFA349097B8800FCF7B0FCF6
:10A7C000A04988600846806820B90020974908732E
:10A7D00094E7E4E09B4A127B91009A4A90682BF040
:10A7E00024FF9249C97A01EB41018800FCF798FCEB
:10A7F00006461EB900208D4908737FE78B49897A88
:10A8000001EB8100FCF78CFC8146B9F1000F03D10C
:10A8100000208649087371E703AD4FF0000AAFE0EE
:10A8200089A1284607F0AFF9074617B93C200290E6
:10A8300004E038462CF0C4F880B202907AA1284691
:10A8400007F0A1F907461FB900207849087355E7BA
:10A8500028462BF029FF401C05448AE038462CF09E
:10A86000AFF8804672A138462BF068FF0746CFB19B
:10A8700038782E2816D1BF1C38462CF0A1F8834614
:10A88000BBF1000F00D1C3466848417AABEB08002A
:10A89000401C08446549487265A138462BF04EFFBC
:10A8A000074605E06148407A401C60494872C3464B
:10A8B0005E48417AABEB0800401C0C1A0020019066
:10A8C0002DE06048006810F80A0004EB440106F827
:10A8D0002100404608F1010804EB440106EB810128
:10A8E000A1F80100002004EB440106EB8101C871CE
:10A8F000574804EB440106EB8101C1F80300002036
:10A9000004EB440106EB8101488104EB440106EBB2
:10A91000810102980881641C0198401C0190434801
:10A92000407AA042CDDC0198A8EB000845480068B9
:10A9300010F80A003D49097A01EB810109F801008C
:10A940003A49097A01EB81014944A1F80180ABEB56
:10A950000800401C3549097A01EB81014944A1F8FE
:10A9600003003248007A401C3049087207B904E0FD
:10A970007F1C387800287FF471AF00BF0AF1010A0C
:10A980003048007B50453FF74BAF28480660C0F881
:10A99000049000202549487208720120087300BF06
:10A9A000ACE610B52BA007F0E7F8FFF78CFE00210E
:10A9B0000120FBF737FA1D49C1F80D000846D0F811
:10A9C0000D0030B1D1F80D0000231A461946FBF7EF
:10A9D000DAFA1648D0F80D0048B90122002122A069
:10A9E000FCF738FE26A0FAF7C7FB012010BD2AA00D
:10A9F000FAF7C2FB0020F9E710B50C49D1F80D00B9
:10AA000000235A1E1946FBF794FB274810BD10B5CA
:10AA10000346DC682271A4F80510084610BD034601
:10AA20004FF0FF30704700005265670069DC072077
:10AA30002E3B0000494400004D425F53657276652D
:10AA4000720000005CDC0720544F757400000000A9
:10AA50000000C07F2F6174343564622F4445564333
:10AA60004F4E2E696E6900004D42533A2053656D7A
:10AA70006170686F72203D204E554C4C0000000004
:10AA80004D42533A2053656D6170686F72203D20CE
:10AA90004E554C4C0A0000004D42532043726561F4
:10AAA0007465640A00000000E4C607202DE9F84F31
:10AAB00081468A461446D9F80C500026B046002C30
:10AAC0003BDB214650462BF0B0FD4FF49670FCF76F
