:020000040000FA
:10000000E83B0820B5020000B902000045A002004C
:1000100045A0020045A0020045A00200000000002B
:10002000000000000000000000000000E9000000E7
:10003000C50200000000000019010000432100007B
:10004000CB02000069240000CB02000071240000F4
:1000500079240000CB02000027500000CB020000F2
:10006000F94F0000CB020000CB020000CB020000E1
:10007000CB020000CB020000CB020000CB0200004C
:10008000CB020000CB020000CB020000CB0200003C
:10009000CB0200003384000081240000CB0200006A
:1000A000E1F8020089240000CB020000CB0200002E
:1000B000CB020000CB020000CB020000CB0200000C
:1000C000CB020000CB020000CB02000000000000C9
:1000D00000000000DFF80CD032F0EEFA00480047D4
:1000E0008D230000E83B0820194B19680868B0E828
:1000F000F00F80F309884FF0000080F311884EF074
:100100000D0E70470000000002480068006880F390
:10011000088800DF08ED00E0EFF309800C4B1A6857
:1001200020E9F00F106008B54FF0280080F3118827
:1001300001F003FE4FF0000080F31188BDE8084095
:1001400019680868B0E8F00F80F30988704700BFAD
:1001500094C1072001B44FF0280080F3118801BC3E
:10016000704701B44FF0000080F3118801BC704764
:100170004FF03000D0F800F0704770477047000033
:1001800000BF00BF224800682249884201D10020F8
:1001900000E001200128F4D100BF801E1C4909683D
:1001A0001C4A914204D01A4908681146184A116045
:1001B00000BF704770B504460D46E0B22CF0E9FB75
:1001C00070BD00B50346FFF7DBFF00BD01464FF0F1
:1001D000FF3070470146104A126812F0807F13D03A
:1001E0000E4A126812F0010F0ED00C4A803A1268C3
:1001F00012F0010F08D000BF4FF060421268002AD1
:10020000FAD04FF06043197000BF704700BFFEE79F
:1002100000C00720A55AA55AFCED00E0800E00E0C2
:1002200000F1080141604FF0FF31816000F10801E9
:10023000C1600161002101607047002101617047C8
:10024000426853684B6043688B60536899605160A3
:100250004160086103685B1C0360704710B502468B
:100260000B685C1C01D1106907E002F1080000E096
:100270004068446824689C42FAD944684C604C68E1
:10028000A160886041600A611468641C146010BD3C
:10029000D0E901329A60D0E901235A6001694A68C5
:1002A000824201D182684A60002202610A68521EBD
:1002B0000A60704705480047FEE7FEE7FEE7FEE7F5
:1002C000FEE7FEE7FEE7FEE7FEE7FEE7D5000000FB
:1002D000704710B522F0F8F910BD704710B5FFF760
:1002E000FCFF18F0A5FE22F062FA22F07DFC22F05D
:1002F0000FFD1AF0D1FF28F02FFD10BDFFFFFFFF0B
:100300002DE9F0410446884617464FF4097001F084
:100310002DFFA060A06818B94FF0FF30BDE8F08154
:10032000A0684FF4097131F006F8A66827743A46C0
:100330004146304610F006FF054615B9F06860608A
:1003400004E0A06801F0E0FF0020A0602846E5E797
:1003500070B504460026A06808B9304670BDA5688F
:10036000284611F051FA0646A06801F0CDFF0020A2
:10037000A0603046F2E72DE9F04104460D461646EE
:10038000A76804F10C0332462946384610F094FF62
:1003900080464046BDE8F0812DE9F04104460D4617
:1003A0001646A76804F10C0332462946384611F078
:1003B00099F880464046BDE8F0817CB504460020AF
:1003C0000190724800906A4601A971A011F0F6FBF5
:1003D00005460198400200998978484320602846E4
:1003E0007CBD70B50446A568284611F07FFC064622
:1003F000304670BD70B50446A568284611F0A1F9D5
:100400000646304670BD70B50446204611F029FD01
:100410000546284670BD70B50446204611F0B9FC6B
:100420000546284670BD2DE9F04104460D4625607D
:10043000A6682946304611F033FA07463846BDE82B
:10044000F0812DE9F04106460C46304600F03DFCB7
:1004500028B91020207200202060BDE8F08116200D
:1004600001F084FE054615B94FF0FF30F5E716217F
:10047000284630F060FF1621204630F05CFF294608
:10048000304611F07AFB074628682060A888A080D3
:10049000E888E080287A207205F1090104F109005A
:1004A00030F0AAFF284601F02FFF3846D5E770B597
:1004B00005463649002010F091FD0446204670BDE7
:1004C00001464FF0FF30704770B504460D4629468F
:1004D000204611F0FBFD0646304670BD2DE9F04187
:1004E00004460D461C2001F041FEC4F81E00D4F85D
:1004F0001E0018B94FF0FF30BDE8F081D4F81E009F
:100500001C2130F018FFD4F81E60284600F0DDFBF7
:1005100028B920A1304611F0C5FA074604E0294663
:10052000304611F0BFFA07463846E5E710B50446F5
:10053000D4F81E0001F0E8FE002010BD2DE9F041C6
:1005400005460E46D6F81E70162001F00FFE044632
:100550001CB94FF0FF30BDE8F0811621204630F085
:10056000EAFE2146384611F0D8FA804604F1090126
:1005700005F1110030F040FF20686860207A28748F
:10058000204601F0C1FE4046E5E70000B0CF07205D
:10059000303A00002F0000002DE9F04104460E46DD
:1005A0001746701C04F0DCFEA060A06818B94FF07C
:1005B000FF30BDE8F081A0680222002104F0B7FE00
:1005C0000546681C01D1401EF3E76560A068002263
:1005D000114604F0ACFEA06810B94FF0FF30E8E718
:1005E0000020E6E72DE9F04104460E461746A068D4
:1005F0003A46314604F07DFE0546681C02D1401E95
:10060000BDE8F081E5600020FAE72DE9F0410446FD
:100610000E461746A0683A46314604F079FE054674
:10062000681C02D1401EBDE8F081E5600020FAE7B9
:1006300070B504460D462560A0680022294604F0E6
:1006400076FE002070BD10B50446A06804F07EFE62
:10065000002010BD01464FF0FF30704701464FF0BB
:10066000FF30704701464FF0FF30704701464FF0B2
:10067000FF30704770B505460C46284600F025FB54
:1006800020B9102020720020206070BD4FF0FF3094
:10069000FBE701464FF0FF30704701464FF0FF3057
:1006A000704702464FF0FF3070472DE9F041044695
:1006B0000F462F48007818B92E4840682E49086028
:1006C0002D48006805682B48007829490978884238
:1006D00030DD29480068006808B305F12C0104F1F9
:1006E000110030F089FE05F12C0004F039FE0646B9
:1006F00056B10120207402220021304604F017FE7A
:100700006060304604F022FE1B48006840681A49C9
:10071000086017480078401C154908700EE016481C
:10072000006840681449086011480078401C10496E
:10073000087003E0002060740D4908700020BDE8D7
:10074000F08170B505460C46204600F0BEFA08B9A7
:10075000002070BD4FF0FF30FBE7014600207047DE
:1007600010B504462F21204630F05EFE10BD00007B
:10077000BCC0072040C60720B8C007202DE9F041C3
:1007800004460E461746701C0EF0EFFAA060A068F3
:1007900018B94FF0FF30BDE8F081A06802220021B7
:1007A0000EF001FA0546681C01D1401EF3E76560B2
:1007B000A068002211460EF0F6F90546681C01D12A
:1007C000401EE8E7A06810B94FF0FF30E3E70020D3
:1007D000E1E72DE9F04104460E461746A0683A4687
:1007E00031460EF097F90546681C02D1401EBDE85F
:1007F000F081E5600020FAE703464FF0FF307047D4
:1008000001464FF0FF30704770B504460D46256035
:10081000A9B2A06800220EF0C6F9002070BD014602
:100820000020704701464FF0FF30704701464FF0FF
:10083000FF30704701464FF0FF30704770B50546F6
:100840000C4600243C4844680CE094F82C0038B175
:10085000691C04F11D0030F0B4FD08B9002070BD22
:10086000D4F80540002CF0D1601EF8E770B50546BD
:100870000C460026284600F028FA20B910202072E5
:100880000020206070BD31462846FFF7D7FF10B921
:100890004FF0FF30F6E74FF0FF30F3E701464FF03F
:1008A000FF30704701464FF0FF30704702464FF06F
:1008B000FF30704770B504460D462048007818B9DF
:1008C0001D4840681E4908601B4800781B4909788C
:1008D00088421BDD1A48006890F82C0080B1184847
:1008E00001681D3104F1110030F086FD01202074F3
:1008F0000A20606012480068D0F8050010490860BE
:100900000E480078401C0D49087003E00020607418
:100910000A490870002070BD70B505460C46204697
:1009200000F0D3F908B9002070BD4FF0FF30FBE7AD
:100930000146002070470000DCCA07201CC10720C8
:1009400018C10720E749096821B9E6490860002174
:10095000C16004E0E3490968C160E2490860E14917
:100960000979491CDF4A11717047FEB5054601241B
:1009700000BF0CE0285D2F2806D0285D20B1295D3E
:10098000601E0DF8001000E003E0601CC4B20A2CE9
:10099000F0DB00BF0021601E0DF800100A2C03DA06
:1009A00000200DF8040001E00020FEBDCD480668DF
:1009B00007E06946304630F004FD08B93046F4E7F8
:1009C000F668002EF5D10020EFE710B504462F2180
:1009D000601C30F0E5FC10BD2DE9F04704460D46E3
:1009E00017464FF000082846FFF7BFFF06461EB91E
:1009F0004FF0FF30BDE8F087294604F1110030F0D8
:100A0000FBFC2846FFF7E1FF81463A46494620466F
:100A10007369984780464046ECE770B5044604F198
:100A20001100FFF7A2FF05462046A969884770BD5F
:100A30002DE9F04104460E46174604F11100FFF778
:100A400094FF05461DB94FF0FF30BDE8F0813A46EE
:100A500031462046EB699847F7E72DE9F041044617
:100A60000E46174604F11100FFF77FFF05461DB93A
:100A70004FF0FF30BDE8F0813A46314620462B6A00
:100A80009847F7E770B5044604F11100FFF76DFFD2
:100A9000054615B94FF0FF3070BD2046696A88479A
:100AA000FAE770B5044604F11100FFF75EFF054652
:100AB00015B94FF0FF3070BD2046A96A8847FAE7A4
:100AC00070B505462846FFF750FF044614B94FF0AD
:100AD000FF3070BD2846FFF778FF0646E16A884779
:100AE000F7E770B505462846FFF73FFF044614B9FF
:100AF0004FF0FF3070BD2846FFF767FF0646216BB9
:100B00008847F7E770B506460C463046FFF72DFFDD
:100B1000054615B94FF0FF3070BD2046696D884716
:100B2000FAE770B504460E4604F11100FFF71DFF09
:100B3000054615B94FF0FF3070BD314620466A6B4F
:100B40009047F9E72DE9F04105460E462846FFF7A4
:100B50000CFF04461CB94FF0FF30BDE8F081284679
:100B6000FFF733FF07463146A26B9047F5E770B5B4
:100B700005462846FFF7F9FE044614B94FF0FF304A
:100B800070BD2846E16B8847FAE770B505462846F0
:100B9000FFF7EBFE044614B94FF0FF3070BD284656
:100BA000216C8847FAE72DE9F04106460C463046AD
:100BB000FFF7DBFE05461DB94FF0FF30BDE8F081C1
:100BC0002046FFF702FF471C3046FFF7FEFE00F10C
:100BD0000108394640466A6C9047EFE770B5044615
:100BE0000E4641A1304630F0ECFB28BB3F48007870
:100BF00018B93C4800683E4908603A4800793B49CA
:100C00000978884212DD3A48016804F1110030F099
:100C1000F3FB1120207436480068C068344908602E
:100C200032480078401C3149087003E000202F4909
:100C300008706074002070BD3046FFF796FE0546D0
:100C400015B94FF0FF30F6E731462046AA6C9047C1
:100C5000F1E72DE9F04105460E4623A1304630F07C
:100C6000B0FB40B93146284630F0C6FB0020C5F83D
:100C70001E00BDE8F0813046FFF777FE044614B948
:100C80004FF0FF30F5E73146284630F0B5FB3046EF
:100C9000FFF79BFE074639462846E26C9047E8E797
:100CA00070B5054610A1284630F08BFB08B900202E
:100CB00070BD2846FFF759FE044614B94FF0FF30C7
:100CC000F6E72846216D8847F2E710B504462F2144
:100CD000204630F065FB08B9002010BD4FF0FF3012
:100CE000FBE7000020C107202F00000028C10720DB
:100CF0002CC107202DE9F04104460E461746701C12
:100D000006F0D1F80546A560E8686060A87A20740E
:100D1000A06818B94FF0FF30BDE8F0810020FBE774
:100D20002DE9F04104460E4617464BA004F018FB8F
:100D300080464B480078012807D1227C2168404634
:100D400004F0F5FA0020464908703A46314640461C
:100D500004F0CFFA0546681C06D1404604F0F6FAC6
:100D60004FF0FF30BDE8F081E560404604F0EEFA58
:100D70000020F7E703460020704701464FF0FF30A0
:100D80007047024611600120354B187008467047C5
:100D900001460020704701464FF0FF307047014682
:100DA0004FF0FF30704701464FF0FF30704770B58D
:100DB00005460C462846FFF788FF20B91020207210
:100DC0000020206070BD4FF0FF30FBE701464FF080
:100DD000FF30704701464FF0FF30704702464FF03A
:100DE000FF30704770B504460D461E48007818B9AC
:100DF0001D4800681D4908601C480068B0B11B48C8
:100E0000016804F1110030F0F7FA0120207417484E
:100E10000068C06860601548006840691349086050
:100E200010480078401C0F49087003E000206074EF
:100E30000C490870002070BD70B505460C46204670
:100E4000FFF743FF08B9002070BD4FF0FF30FBE70C
:100E500001460020704700005341564552000000F3
:100E600088C1072090C10720440000108CC10720D2
:100E70002DE9F04105460E4675B34C2001F076F998
:100E800004464CB305FB06F0471C384601F06EF9EA
:100E900020602068E8B1206805FB06006060002043
:100EA000A0632068A060681E216800FB0610E06057
:100EB000E56326644FF0FF306064A06404F1100025
:100EC000FFF7AEF904F12400FFF7AAF92046BDE8C8
:100ED000F081204601F018FA0020F8E710B504462A
:100EE00001F01AF90DE0606A50B104F1240000F03D
:100EF000C0FF08B101F027F8A06C401EA06400E01C
:100F000002E0A06C0028EEDC00BF4FF0FF30A064D0
:100F100001F00BF901F000F90DE0206950B104F186
:100F2000100000F0A6FF08B101F00DF8606C401E43
:100F3000606400E002E0606C0028EEDC00BF4FF06F
:100F4000FF30606401F0F1F810BD70B5044601F0A7
:100F5000E3F8A06BE16B884201D1012000E00020A2
:100F6000054601F0E2F8284670BD70B504460E460D
:100F70001546206C38B9206838BB606801F031F83C
:100F80000020606021E07DB93146226CA06830F01D
:100F9000ABF9216CA0680844A060D4E90110884234
:100FA00013D32068A06010E03146226CE06830F076
:100FB0009BF9216CE068401AE0602168E068884293
:100FC00003D2216C6068401AE060A06B401CA063F3
:100FD00070BDFFB583B004460E461D46002700BF16
:100FE00001F09AF8A06BE16B884217D22A4631468D
:100FF0002046FFF7BAFF606A08B9012000E0002030
:1010000038B904F1240000F034FF012801D101F0C7
:101010007DF801F08AF8012007B0F0BD059818B9F5
:1010200001F083F80020F7E71FB901A800F056FF90
:10103000012701F07AF800F03DFB01F06DF8606CDB
:10104000401C00D16064A06C401C00D1A06401F081
:101050006CF805A901A800F048FFC0B92046FFF7C9
:1010600074FF70B104F11000059900F0D1FE204624
:10107000FFF734FF00F0C1FA0028B1D101F046F8C3
:10108000AEE72046FFF72AFF00F0B7FAA8E72046B0
:10109000FFF724FF00F0B1FA0020BDE710B54C20A7
:1010A00001F064F80446D4B1002060602060A060C4
:1010B000E060A0630120E06300202064401E6064C3
:1010C000A06404F11000FFF7ABF804F12400FFF76F
:1010D000A7F800231A4619462046FFF77AFF204654
:1010E00010BD2DE9F0470446884616461F464FF0CE
:1010F0000009FFF72FF8A06BE16B884216D23A4641
:1011000041462046FFF731FFA06C401C09D1606AC0
:1011100050B104F1240000F0ACFE28B10120306091
:1011200002E0A06C401CA064012500E00025FFF750
:1011300018F82846BDE8F08770B5044600F0ECFFCB
:10114000A06B08B9012000E00020054600F0EDFF8B
:10115000284670BD70B504460D46206870B1216CFC
:10116000E0680844E0606168E068884201D3206874
:10117000E0602846226CE16830F0B6F870BD2DE9D9
:10118000FF4182B004460F461D464FF0000800BFE5
:1011900000F0C2FFA06B60B3E66839462046FFF757
:1011A000D9FFB5B9A06B401EA063206810B900F04C
:1011B000DFFE6060206908B9012000E0002090B9DE
:1011C00004F1100000F055FE01280CD100F09EFF44
:1011D00009E0E660606A30B104F1240000F049FEE5
:1011E00008B100F093FF00F0A0FF012006B0BDE8B9
:1011F000F081049818B900F098FF0020F6E7B8F1E4
:10120000000F04D1684600F069FE4FF0010800F0BD
:101210008CFF00F04FFA00F07FFF606C401C00D1A3
:101220006064A06C401C00D1A06400F07EFF04A9A3
:10123000684600F05AFE08BB2046FFF77DFFB8B1B4
:10124000206830B900F068FF606800F094FE00F09C
:101250006CFF04F12400049900F0DAFD2046FFF74A
:101260003DFE00F0CAF9002892D100F04FFF8FE751
:101270002046FFF733FE00F0C0F989E72046FFF76C
:101280002DFE00F0BAF90020B0E72DE9F041044648
:101290000F4616464FF00008FEF75CFFA06BC0B18A
:1012A00039462046FFF756FFA06B401EA063606CD6
:1012B000401C09D1206950B104F1100000F0D9FDA3
:1012C00028B10120306002E0606C401C60640125A0
:1012D00000E00025FEF745FF2846BDE8F08170B527
:1012E000044600F019FFA56B00F01FFF284670BDF3
:1012F0000146886B704710B50446206801F004F879
:10130000204601F001F810BD01468A6B0AB901229E
:1013100000E000221046704701468A6BCB6B9A4270
:1013200001D1012200E000221046704710B50024D0
:1013300007E004EB8401F84A02EB8100FEF770FF3E
:10134000641C052CF5D3F548FEF76AFFF448FEF758
:1013500067FFF448FEF764FFF348FEF761FFF348C8
:10136000FEF75EFFED48F2490860ED48F14908607C
:1013700010BD2DE9F04104460E4615469846069FDD
:101380000C22314604F134002FF0FEFF00213F20F3
:101390000155052D00D30425E5626564201DFEF787
:1013A0004CFF04F11800FEF748FF2461C5F1050069
:1013B000A06164620020A064BDE8F08170B50546BC
:1013C0000E464C2000F0D2FE044694B11EB9A8008F
:1013D00000F0CCFE00E030462063206B20B92046B0
:1013E00000F092FF002404E0A900A522206B2FF05A
:1013F0009BFF204670BD2DE9FF4F81B0804615460A
:101400009946DDE90E7A28461099FFF7D7FF044682
:10141000002C51D0681E216B01EB800B2BF0070BC9
:1014200000953A462046119B0299FFF7A2FF4A46D3
:101430004146584600F040FE206000F06DFEBE4878
:101440000068401CBC49086008460068012804D1B7
:10145000BA480460FFF76AFF09E0B948006830B98C
:10146000B6480068C06AB84201D8B4480460B549BB
:10147000E06A0968884202D9B249E06A0860B24865
:1014800000682064B0480068401CAF490860AF495C
:10149000E06A0968884202D9AC49E06A0860E16AFA
:1014A00001EB81019C4A02EB8100211DFEF7C8FE81
:1014B000012600F03AFE01E04FF0FF36012E0ED17A
:1014C000BAF1000F01D0CAF800409D48006830B161
:1014D0009A480068C06AB84201D200F017FE304650
:1014E00005B0BDE8F08F70B5044600F015FE9349D5
:1014F00020680968884201D100202060206810B966
:101500008E48006800E020680546281DFEF7C0FEF2
:10151000A86A18B105F11800FEF7BAFE291D824825
:10152000FEF78EFE8A480068401C8949086086489C
:101530000068401C8449086000F0F7FD804800689E
:1015400018B1206808B900F0E1FD70BD10B5814800
:101550000068002844D180480068401C7E4908602B
:101560000846006868B97249086872490968704A93
:1015700011607049086079490968491C774A11600F
:1015800000BF1FE0744960680968884200D925E0FF
:10159000201DFEF77DFEA06A18B104F11800FEF7C9
:1015A00077FE6A49E06A0968884202D96749E06AB9
:1015B0000860E16A01EB8101574A02EB8100211DBD
:1015C000FEF73EFE5A480068006820B1584800689F
:1015D000C068C06800E000200400D3D100BF06E06E
:1015E0005F480068401C5E49086028F00AFD5C48BE
:1015F000006808B928F005FD10BD70B5002500F0A1
:101600008BFD54480068401E524908600846006837
:1016100000284BD148480068002847D000261EE02B
:1016200004F11800FEF734FE201DFEF731FE474995
:10163000E06A0968884202D94449E06A0860E16AC0
:1016400001EB8101344A02EB8100211DFEF7F8FD18
:101650003A49E06A0968C96A884200D301263148DC
:10166000006818B12F48C068C06800E0002004007E
:10167000D6D13B48006860B106E0FFF767FF384805
:101680000068401E36490860354800680028F4D1DB
:101690000126012E03D033480068012805D1012519
:1016A00000203049086000F031FD00BF00F03DFD32
:1016B000284670BD27480068401C264908607047CE
:1016C00070B50446002614B3FFF7F4FF2248006803
:1016D00005191A480068001DFEF7DAFD1748006872
:1016E00045601D480068854207D214480168091DFD
:1016F00010480068FEF7B2FD06E010480168091DB9
:101700000B480068FEF7AAFDFFF777FF06460EB903
:1017100000F0FCFC70BD0000E8D107204CD207208F
:1017200060D2072074D2072088D207209CD20720DD
:10173000D0C10720D4C107209CC1072094C1072035
:10174000ACC10720A4C10720C0C10720A8C1072041
:1017500098C10720B0C10720A0C10720BCC1072045
:10176000B4C10720B8C1072070B5044600F0D4FC0E
:1017700014B9FD48006800E020460646F56A00F00E
:10178000D4FC284670BD2DE9F04106460D464FF0C9
:101790000008052D00D3042500F0BEFCF2480068C7
:1017A000864200D1002616B9EF48006800E03046B6
:1017B0000446676CAF4232D0BD4203D92EB14FF020
:1017C000010802E00EB94FF00108E16A606C88423E
:1017D00000D1E5626564C5F10500A06107EB8701F2
:1017E000E24A02EB81016069884213D1201DFEF7B5
:1017F0004FFDDF49E06A0968884202D9DC49E06AA6
:101800000860E16A01EB8101D84A02EB8100211DE9
:10181000FEF716FDB8F1010F01D100F077FC00F0E2
:1018200084FCBDE8F08170B5044600F075FCCE483C
:101830000068844200D1002414B9CB48006800E05D
:1018400020460546281DFEF723FDA86A18B105F1BC
:101850001800FEF71DFD291DC648FEF7F1FC00F03B
:1018600064FC0CB900F052FC70BD10B501460020BC
:101870000A46C04C5369A34201D1012300E0002372
:1018800083B1BD4C936AA34201D1012300E0002340
:10189000012B07D0936A0BB9012300E00023012B31
:1018A00000D1012010BD70B505462C4644B3AE48AA
:1018B0000068844224D000F02FFC2046FFF7D5FFBB
:1018C00001281BD1201DFEF7E3FCA949E06A096845
:1018D000884202D9A649E06A0860E16A01EB810109
:1018E000A24A02EB8100211DFEF7AAFC9E49E06A94
:1018F0000968C96A884201D300F008FC00F015FCB1
:1019000070BD70B5054600262C462046FFF7ADFF9A
:10191000012826D199480068F0B99349E06A09681E
:10192000C96A884201D3012000E000200646201D3C
:10193000FEF7AEFC8E49E06A0968884202D98C49FC
:10194000E06A0860E16A01EB8101884A02EB8100EC
:10195000211DFEF775FC04E004F118018648FEF72E
:101960006FFC304670BD10B50446206B00F0CCFC17
:10197000204600F0C9FC10BD70B58148006848B32E
:10198000FFF798FE7F48006808B9012000E00020BA
:101990000546FFF732FEEDB900F0BEFB794800685E
:1019A00018B17848C068C06800E000200446201DD7
:1019B000FEF76EFC74480068401E7349086070486A
:1019C0000068401E6E49086000F0AFFB2046FFF73C
:1019D000CAFF00BF70BD00BF01F007FBFFF7CCFFDF
:1019E000624800680128F7D900F090FBF4E71FB5C2
:1019F00000200090019002900346202263A10390F2
:101A00006448FFF7F8FC0446012C0BD1FEF7A2FB5B
:101A100001206149086000206049086003F0A0FDD2
:101A200000F05EFB1FBD10B5FEF794FB00205A4985
:101A3000086000F06AFB10BD10B500F06DFB574860
:101A4000046800F072FB204610BD4F4800687047E4
:101A50000146002002E0491C421C90B20A78A52AE7
:101A6000F9D0800870472DE9FE4381460C461646A2
:101A7000204641684968416000F1080142688A4295
:101A800002D14168496841604168CF6800BF204683
:101A900041684968416000F1080142688A4202D108
:101AA0004168496841604168CD68286BFFF7D0FF05
:101AB0008046286CE96A334605F13402CDE9001806
:101AC000029037A13B4830F0FDFF3A4948462FF0DD
:101AD0003DFCBD42DBD1BDE8FE8370B50546FFF796
:101AE000E9FD0020287034A128462FF02FFC334850
:101AF0000068441C00BF641E04EB84001B4951F8BD
:101B0000200040B104EB84000A4602EB800152221F
:101B10002846FFF7A8FF002CEDD12948006800688F
:101B200028B14222264801682846FFF79CFF254835
:101B30000068006828B14222224801682846FFF761
:101B400092FF1048006820B144220E492846FFF752
:101B50008AFF0848006820B1532206492846FFF74B
:101B600082FFFFF74AFD70BD94C10720E8D107202E
:101B7000A8C107209CD2072074D20720B0C107203B
:101B800098C1072088D207209CC1072049444C45B2
:101B900000000000D7190000ACC10720A0C1072039
:101BA0002573090925630925750925750925750D0D
:101BB0000A000000E2D207200D0A0000A4C107209D
:101BC000D0C10720D4C107202DE9F84381460C4637
:101BD0001646204641684968416000F108014268A4
:101BE0008A4202D14168496841604168D1F80C805D
:101BF00000BF204641684968416000F10801426821
:101C00008A4202D14168496841604168CD68002E2E
:101C100022D0A86C30B905F13402FBA1FE4830F0A7
:101C200051FF15E0A86C64214843B0FBF6F747B1BB
:101C30000097AB6C05F13402F8A1F74830F042FF91
:101C400006E0AB6C05F13402F8A1F34830F03AFF3E
:101C5000F14948462FF07AFB4545CAD1BDE8F883E3
:101C600070B5054603F0AFFC0646FFF723FD0020E4
:101C70002870EDA128462FF069FBF0480068441C4D
:101C800000BF641E04EB8400ED4951F8200040B110
:101C900004EB84000A4602EB800132462846FFF737
:101CA00093FF002CEDD1E7480068006828B1324668
:101CB000E44801682846FFF787FFE34800680068AA
:101CC00028B13246E04801682846FFF77DFFDF482B
:101CD000006820B13246DD492846FFF775FFDC4831
:101CE000006820B13246DA492846FFF76DFFFFF75A
:101CF00084FC70BD70B504460D4600F00DFAD54861
:101D00000460D5480460A5F108002044D349086068
:101D10000120D349086000F008FA70BD10B500F04A
:101D2000FBF90020CE49086000F0FFF9C9480068BF
:101D3000C9490968441A204610BD10B5C948006851
:101D400018B10120C849086010BD03F03CFC0446EE
:101D5000C649096801F14800896CC54A1268A21A8F
:101D600011440160C248046004E0C2480068401E9B
:101D7000C0490860BF48006800EB8000B04951F8D6
:101D800020000028F1D0BB49096801EB8101AC4A71
:101D900002EB810041684968416000F10801426836
:101DA0008A4202D14168496841604168C968AF4AC6
:101DB0001160AB48006828B310460068006CAE495B
:101DC0000968884222D0A34800680830A3490968FE
:101DD000884218D210460068006CA7490860A748DE
:101DE00000689C49096808609A480068001D994984
:101DF0000860A14800680968086096480068001DEE
:101E00009449086002E000209549086000BF9BE704
:101E100070B506460C469548016818313046FEF705
:101E20001DFA92480068001DFEF732FA601C06D1C8
:101E30008E480168091D8648FEF702FA18E08F48AF
:101E4000006805198948006845608C48006885422B
:101E500007D286480168091D7B480068FEF7FEF935
:101E600006E082480168091D76480068FEF7F6F929
:101E700070BD70B50546286810B1E868C06800E01C
:101E80000020044604F11800FEF702FA75480068C5
:101E9000A0B9201DFEF7FCF97649E06A096888427E
:101EA00002D97449E06A0860E16A01EB8101644A81
:101EB00002EB8100211DFEF7C3F904E004F11801D3
:101EC0006F48FEF7BDF96949E06A0968C96A884246
:101ED00001D3012600E00026304670BD694909683B
:101EE0000160664909684160704770B504460D4657
:101EF00000F012F92868401C01D100261FE061495A
:101F000020680968884206D05C4960680968884290
:101F100001D8012613E0594960680968081A296840
:101F200088420BD22868554A61681268511A401AD3
:101F300028602046FFF7D2FF002600E0012600F0CF
:101F4000F4F8304670BD01204749086070472DE91C
:101F5000F041044614B94548006800E020460746B1
:101F60003D6B2846FFF774FD06463046BDE8F0811C
:101F70003E490868704770B505462C463B49E06A03
:101F80000968C96A88422BD238480068C06AC0F123
:101F90000500A061E16A01EB8101294A02EB8101A0
:101FA0006069884218D1201DFEF772F92F48006839
:101FB000C06AE0622F49E06A0968884202D92D4967
:101FC000E06A0860E16A01EB81011D4A02EB8100D1
:101FD000211DFEF735F903E024480068C06AE0627D
:101FE00070BD70B505462C4665B1616CE06A8842EB
:101FF0005CD0201DFEF74CF9606CE062E06AC0F135
:10200000050041E052E0000025730909300909305C
:1020100025250D0A00000000B0D20720257309090C
:1020200025750909257525250D0A0000257309095F
:10203000257509093C3125250D0A0000A4C107209A
:10204000E8D10720D0C10720D4C1072088D20720BB
:102050009CD20720D8C10720DCC10720E0C107209F
:10206000C8C10720B0C10720B8C1072094C107200C
:10207000C4C10720A8C10720CCC10720A0C10720E8
:1020800074D20720BCC10720A0610949E06A096831
:10209000884202D90649E06A0860E16A01EB8101E1
:1020A000044A02EB8100211DFEF7CAF870BD000052
:1020B000A8C10720E8D10720001F4FF080730360FC
:1020C000001F0160001F00230360143802602038E5
:1020D000704723484FF0E0214861072008617047AE
:1020E00010B52048006840F478001E490860084692
:1020F000006840F078400860FFF7EBFF00201A49C5
:102100000860FEF701F8002010BD70474FF08050C6
:1021100014491C390860704710B5FEF71BF81248C7
:102120000068401C1049086010BD10B50E480068DA
:10213000401E0D4908600846006808B9FEF711F80E
:1021400010BD10B54FF0805006491C3908600024BE
:10215000FEF700F8FFF7FAF9FEF703F810BD0000EC
:102160009F86010020ED00E0E4C107202DE9F04149
:1021700004464FF00008FFF79DFA7F48006898B9C1
:102180007E497F4A11600021516047F618117D4A4F
:10219000516000211160794847F6181141601146DD
:1021A000016001207449086044B1103414F0070F35
:1021B00004D004F00700C0F108000444002C31D022
:1021C00047F6181084422DD26D4F3846056801E05D
:1021D0002F462D686868A04202D228680028F7D1EF
:1021E000684885421ED0386800F1100828683860B9
:1021F0006868001B202810D92E196868001B7060C1
:102200006C6071685E4800E00068026852688A424B
:10221000FAD302683260066000BF5B480068001BAA
:1022200059490860FFF7E9F94046BDE8F081F0B58B
:102230000025534801680A680B4604464EE048688A
:1022400045183EE0954235D148685668B0420ED2F6
:1022500048685668304448600868904202D1106867
:1022600020601AE0086820601068186015E048686F
:102270005668B0420ED948685668304448601068C5
:10228000884202D10868186007E00868206010687A
:10229000186002E04FF0FF30F0BD4E68384800E0B3
:1022A000006807687F68B742FAD307680F6001606B
:1022B0000120F1E713461868904201D100BFFEE704
:1022C0001A6810680028BDD10C462068884201D1E8
:1022D00000BFFEE721682A48026803460868002814
:1022E000ADD100BFD8E708B500200090FFF714FF7C
:1022F00000BFFFF79CFF0090009810B10098401CB1
:10230000F7D1FFF712FF08BD70B50646FFF7D2F907
:102310003546A6B1103D2C466168194800E00068BA
:10232000026852688A42FAD3026822600460164941
:1023300060680968084414490860FFF7D4FFFFF794
:102340005CF970BD104800687047704710B50246D0
:102350000B48002313800B8000BF14884368A342FE
:1023600001D9838813800B88848823440B800068FC
:102370000368002BF1D110BD0800001028020010E6
:102380000C00001014000010000000101FB527F012
:102390005BFE09F07DF80020244A0223CDE90120EC
:1023A000009303900346C02221A12348FFF723F89E
:1023B000FFF71DFB002004B010BD2DE9F8430746D0
:1023C0000024A04600263D461EE0285D2E2819D197
:1023D0000020285505EB08002FF078F9C0B20DF861
:1023E0000600701CC6B2601C00F0FF08032E09D165
:1023F00005EB08002FF06AF9C0B20DF8060000984E
:10240000BDE8F883601CC4B2285D0028DDD1401E01
:10241000F6E770B5054628462FF058F984B2261223
:1024200046EA042084B2204670BD00001C00001063
:102430005553455200000000A92C000070B5064617
:102440000D463A2128462EF0ABFF04460CB928462B
:1024500000E0601C044621463046FEF7A4FB08B9A4
:10246000012070BD0020FCE710B527F0EBFD10BD8A
:1024700010B527F0E7FD10BD10B527F0E3FD10BD46
:1024800010B527F0DFFD10BD10B527F0DBFD10BD46
:1024900070B500BF012088B1F5A1F8A00AF0C1FA1B
:1024A000054605B970BD28462FF010F90446FF2CEB
:1024B00001DC002C00DAF5E7F2490C7000BFF1E70F
:1024C0002DE9F041002507E0EF48F04941F83500DB
:1024D00001EBC50148606D1C042DF5DB00BF012038
:1024E00000287DD0EAA1EBA00AF09BFA68B1E8A130
:1024F000E8A00AF096FA04463CB1E01C30F091FFE7
:1025000006462FF065FBE1490860E1A1E2A00AF070
:1025100088FA68B1DEA1E1A00AF083FA04463CB172
:10252000E01C30F07EFF06462FF052FBD749486092
:10253000D7A1DAA00AF075FA68B1D5A1D8A00AF03F
:1025400070FA04463CB1E01C30F06BFF06462FF0F9
:102550003FFBCE498860CEA1D2A00AF062FA68B1F2
:10256000CBA1D1A00AF05DFA04463CB1E01C30F0EA
:1025700058FF06462FF02CFBC449C860C4A1C8A070
:102580000AF04FFA68B1C2A1C8A00AF04AFA04469C
:102590003CB1E01C30F045FF06462FF019FBBB496B
:1025A0000861BBA1C2A00AF03CFA68B1B8A1C1A001
:1025B0000AF037FA04463CB1E01C30F032FF064620
:1025C0002FF006FBB1494861B1A1B7A00AF029FA82
:1025D00078B1AFA1B8A00AF024FA04464CB100E0EB
:1025E0001AE0E01C30F01DFF06462FF0F1FAA74973
:1025F0008861A7A1B1A00AF014FA68B1A4A1B0A0A3
:102600000AF00FFA04463CB1E01C30F00AFF06461F
:102610002FF0DEFA9D49C861BDE8F081024619B984
:102620009A4850F832007047984800EBC200406862
:10263000F9E710B5FFF73EF8A2A00AF0EBF9002089
:1026400007F0D6FA01F023FD01F00CFD27F0FDFCA8
:10265000A1A00AF0DFF90DF050FA0DF066F9FFF7CE
:102660002FFF27F0F2FC97A00AF0D4F916F019FE1C
:1026700027F0EBFC05F056FAFEF7BFFF10BD10B5D2
:102680009A48FEF75FF99A48FEF75CF99948FEF719
:1026900059F99948FEF756F998A0FEF768FA10BD67
:1026A00070B504460D4616463246294620462AF0A5
:1026B0000EFD70BD1CB5054600200190002600905F
:1026C000284602F04DFE04468F48C0F810418F4A5C
:1026D0000021204602F0B5FD00220421204602F030
:1026E000B0FD00BF01AAD121204602F0AAFD9DF84D
:1026F0000400B0B16A466321834828F088FA064690
:102700009DF8000040B163239DF80020711C7E48B5
:1027100028F0D6F9002000900022C821204602F0BF
:1027200090FD4FF4FA70FEF7CBFFDBE710B5002009
:10273000774908604FF4967048600120087275A1CF
:10274000734809302EF058FE0020714988614FF41B
:1027500096716F48C161012180F8201070A121306D
:102760002EF04AFE00206A4908634FF496716848CB
:102770004163002180F838106CA139302EF03CFE06
:1027800010BD08B504210320FEF772FB6A490860FA
:1027900000235A1E694668480068FEF7F0FC0022D4
:1027A000114600982AF093FC64A002F0D9FD00BF06
:1027B000FEE71FB501229105104607F095FC0122A6
:1027C000D104104607F090FC01224021002007F0C0
:1027D0008BFC4FF40021012007F09AFC20210220FD
:1027E00007F0A0FC02F06CFC0BF01BFF0CF049F9A9
:1027F00054A00AF00FF90CF0D3FA37A00AF00AF946
:1028000001F024FAFFF75CFE0DF08FF82DA00AF01E
:1028100001F927F01CFD01F03AFC01F023FCFFF761
:1028200037FE2AF09AFE27F00FFC2AF0BBFD05F0D8
:1028300079F901F044FB01F0EDFB2EF00BF916F0F5
:1028400030FD0020444A0123CDE90120009303908C
:102850000346802241A14448FEF7CDFD3E48006872
:1028600028B90022114641A0FFF71AFF8AE08DE047
:10287000436F6E74726173740000000044495350DA
:102880004C415900F5C10720000080BF14D3072038
:10289000436F6E0030000000310000003200000085
:1028A0003400000033000000360000003800000053
:1028B00035000000313000003132000037000000E8
:1028C000313400002F6174343564622F444556431F
:1028D0004F4E2E696E6900002F6174343564622F8B
:1028E0004556454E54532E696E69000060C007205E
:1028F000C0C0072008C0072030C107202F617434F2
:102900003564622F0000000034D30720F8C107208F
:10291000702908207461736B205520696E76000061
:102920007461736B204D20696E7600007461736B67
:10293000205220696E760000FCC1072053535030AE
:10294000000000002F6174343564622F53454E53EC
:102950004F52532E696E690034C20720556172745C
:10296000436F6E74726F6C004D100300CEF8E8E197
:10297000EAE02055617274436F6E74726F6C20745C
:1029800061736B00F0A0FDF7F7FB05E00C210A2056
:10299000FEF76EFAF2490860002016F09FFD002055
:1029A000F04A0123CDE90120009303900346C022A1
:1029B000EDA1EF48FEF71FFDEA48006838B9002294
:1029C0001146ECA0FFF76CFEEFA0FDF7D5FB012050
:1029D0000023C022F1A10090F14812F03FF9F14923
:1029E00008600846006838B900221146EEA0FFF7DB
:1029F00057FEF1A0FDF7C0FB01230022EC21F2A05D
:102A000014F094F9F24908600846006838B90022C9
:102A10001146F0A0FFF744FEF3A0FDF7ADFB002048
:102A2000F64A0123CDE90120009303900346C0221A
:102A3000F3A1F548FEF7DFFCF048006838B9002242
:102A40001146F2A0FFF72CFEF5A0FDF795FB002044
:102A5000F84A0123CDE90120009303900346C022E8
:102A6000F5A1F748FEF7C7FCF248006838B9002224
:102A70001146F4A0FFF714FEF7A0FDF77DFB002040
:102A8000FA4A0623CDE90120009303900346402231
:102A9000F7A1AFF21130FEF7AEFCF448006838B988
:102AA00000221146F4A0FFF7FBFDF3A0FDF764FB45
:102AB000FFF73CFE01F0FDFA01281AD10020F24A8E
:102AC0000123CDE901200093039003468022EFA16A
:102AD000AFF21F40FEF78FFCAFF22740002820D155
:102AE00000221146EAA0FFF7DBFDE3A0FDF744FB5F
:102AF00017E00020EA4A0123CDE90120009303906A
:102B0000E84B8022E8A1EA48FEF775FCE44800683B
:102B100038B900221146E7A0FFF7C2FDD6A0FDF7A5
:102B20002BFB1FBD7CB504460D460020019000958F
:102B30000121E54880F83810E448006808B900BF72
:102B4000FEE73CB900231A466946E0480068FEF7F4
:102B500040FA06E0002301AA6946DC480068FEF757
:102B6000C0FA7CBD10B542F21070FEF7A9FDD8A1E5
:102B70000020FFF7D7FF42F21070FEF7A1FD10BD55
:102B80003EB500235A1E6946D4480068FEF7F7FA9E
:102B900000B93EBD9DF800000F281BD006DC0128BF
:102BA0001BD0092827D00C282FD12BE0102804D0C7
:102BB000132826D0182828D120E0C9A002F0D0FB85
:102BC00004460022C821204602F03BFB204602F0CA
:102BD000BDFB1BE004F069FD18E00CF012FB0CF0EB
:102BE00070FDC248007828B1C148007810B90120B2
:102BF000C04908600AE0FFF7B5FF07E0FFF719FDDD
:102C000004E003E0FDF7B4FA00E000BF00BF00BF3E
:102C1000BFE710B5B848007810F0080F0BD00022BD
:102C20001146B6A0FFF73CFDB348007840F008001D
:102C3000BB4981F88001B048007810F0040F0BD038
:102C400000221146B7A0FFF72BFDAB48007840F0FB
:102C50000400B34981F88001A748007810F0020F02
:102C60000BD000221146B8A0FFF71AFDA248007849
:102C700040F00200AA4981F880014FF000024FF0B5
:102C800008014FF0020007F02FFA022007F054FA73
:102C900010F0080F07D00020B64908700022114636
:102CA000B5A0FFF7FDFC10BD0C213220FEF7E0F8C7
:102CB0008A49086008460068B5490860FFF779FD51
:102CC00004F0F3FCFFF7A5FF00BFFFF759FF00205A
:102CD0007D490860F9E7FEB504460D4617461E46D5
:102CE0008DF800400195ADF8087000233246694622
:102CF0007A480068FEF76DF9FEBD10B5A54800687A
:102D000040B14FF48001012007F002FA0020A149F0
:102D1000086007E04FF48001012007F003FA01206A
:102D20009C49086010BD10B50446022C0BD100224E
:102D30001146AFF208402AF0CAF9AFF2004002F0A3
:102D40000FFB00BFFEE727E155617274436F6E749D
:102D5000726F6C5F5441534B204552524F520A00E0
:102D6000F0C10720A8CF07204D4F44454D0000007B
:102D7000E50503004D4F44454D5F5441534B2045FD
:102D800052524F52000000004D4F44454D5F544198
:102D9000534B204552524F520A00000046545000F7
:102DA000494C01001CC20720CEF8E8E1EAE02046C9
:102DB0005450207461736B004654505F5441534B20
:102DC000204552524F520A0048545450000000000F
:102DD00020C20720CEF8E8E1EAE020485454502011
:102DE0007461736B00000000485454505F544153A9
:102DF0004B204552524F520A0000000024C20720C7
:102E000054656C6E65740000778B0100CEF8E8E1C4
:102E1000EAE02054656C6E6574207461736B000089
:102E200054656C6E65745F5441534B204552524F4C
:102E3000520A000028C207204576656E7400000023
:102E4000033C00004576656E745F5441534B20454A
:102E500052524F52000000004576656E745F544137
:102E6000534B204552524F520A0000003CC20720EB
:102E70005245534554000000424F445F5441534B68
:102E8000204552524F520A0038C207204D4243009B
:102E9000CEF8E8E1EAE0204D4243207461736B0014
:102EA00030C20720F8C107204D425F544350000054
:102EB00091A90200CEF8E8E1EAE0204D42544350E7
:102EC000207461736B00000070290820FCC107208A
:102ED000534D5320524553455400000040C2072033
:102EE00044495343524554450000000045C2072061
:102EF000F6C1072000C2072080C10F40D3F1F2F0D5
:102F0000EEE9F1F2E2EE20E2EAEBFEF7E5EDEE0D9E
:102F1000EFEEF1EBE520504F574552204F4646006B
:102F200000C00F40D3F1F2F0EEE9F1F2E2EE20E260
:102F3000EAEBFEF7E5EDEE0DEFEEF1EBE5205744A1
:102F40005420524553455400D3F1F2F0EEE9F1F22A
:102F5000E2EE20E2EAEBFEF7E5EDEE0DEFEEF1EB4F
:102F6000E52045585445524E414C20524553455456
:102F700000000000F4C1072053494D2DEAE0F0F2B3
:102F8000E020EEF2F1F3F2F1F2E2F3E5F2000000FC
:102F900048C2072008C2072004EB4400424A02EB63
:102FA000C00000F109010020FFF7BCFD10BD10B505
:102FB000002400BF16E004EB44003B4901EBC000D5
:102FC000007A70B104EB440051F8300004EB440186
:102FD000354A02EBC1014968884202D92046FFF711
:102FE000A2FE641C032CE6DB10BD10B527F02DF803
:102FF000FFF7DDFF10BD10B5022007F09DF810F0BF
:10300000080F0DD029480078012809D10020274950
:10301000087000221146AFF2A000FFF741FB10E05C
:10302000022007F089F810F0080F0AD11F48007835
:1030300038B901201D490870002211461CA0FFF775
:103040002FFB10BD10B54FF400201E4988602021D1
:103050001C48C1600A2101740121417400214161B1
:1030600081614FF40221C1614021016280F8241086
:10307000002180F825108162C1624FF406210163AE
:10308000202141630A2180F83810012180F839108D
:103090000021C1630164002403E0E0B203F08EFE6E
:1030A000641C032CF9DB10BD70290820F4C1072033
:1030B00053494D2DEAE0F0F2E020E2F1F2E0E2EBDC
:1030C000E5EDE0007CDC072010B50446092C42D277
:1030D000DFE804F041050E1720292F353B000120C1
:1030E00020490870002211461FA0FFF7D9FA32E0EC
:1030F00001201C4908700022114621A0FFF7D0FAD8
:1031000029E00120174908700022114622A0FFF78C
:10311000C7FA20E00120134908700022114624A0BC
:10312000FFF7BEFA17E00022114627A0FFF7B8FA12
:1031300011E00022114629A0FFF7B2FA0BE00022AD
:1031400011462BA0FFF7ACFA05E0002211462EA095
:10315000FFF7A6FA00BF00BF4FF40021012006F0E0
:10316000E1FF10BDF6C10720C4E0F2F7E8EAE83A53
:1031700020EEF8E8E1EAE020EFE0ECFFF2E8000002
:10318000D1EEE1FBF2E8FF3A20EEF8E8E1EAE020D8
:10319000EFE0ECFFF2E80000C4E0F2F7E8EAE83A1A
:1031A00020EEF8E8E1EAE020F4E0E9EBE0000000DE
:1031B000D1EEE1FBF2E8FF3A20EEF8E8E1EAE020A8
:1031C000F4E0E9EBE00000004641543A20EEF8E874
:1031D000E1EAE020F4E0E9EBE00000004641543A87
:1031E00020EEF8E8E1EAE020EFE0ECFFF2E8000092
:1031F000D2E0E9ECE5F03A20EEF8E8E1EAE020F48C
:10320000E0E9EBE0000000004155544F47524150C7
:10321000483A2066696C65206572726F7200000022
:10322000FE480078704710B50446082C2DD2DFE820
:1032300004F004050E0F1819222300BF012029F005
:10324000D7F94FF08061032006F06CFF1DE000BF4E
:10325000022029F0CDF94FF00071032006F062FF43
:1032600013E000BF032029F0C3F94FF08051012083
:1032700006F058FF09E000BF042029F0B9F94FF02B
:103280000051012006F04EFF00BF00BF10BD10B579
:10329000044634B1012C08D0022C0AD0032C10D1E2
:1032A0000BE0012029F0A4F90BE0022029F0A0F99D
:1032B00007E0032029F09CF903E0042029F098F9A5
:1032C00000BF00BF10BD2DE9FF4701E19DF80400DC
:1032D0006F287AD01CDC67283BD010DC14286AD019
:1032E00006DC0D2868D00E2867D0122822D1D2E043
:1032F000642819D065281ED06628F7D122E06838E6
:10330000072817D2DFE800F02C333A41484F5A0023
:1033100070380E28F5D2DFE800F05F666D747B82AE
:103320008990979EA5ACB3B7BD48006840F00100F6
:10333000BB490860CBE0BA48006840F00200B849D9
:103340000860C4E0B648006840F00400B449086072
:10335000BDE0B348006840F00800B1490860B6E03D
:10336000AF48006840F01000AD490860AFE0AC48DD
:10337000006840F02000AA490860A8E0A84800685A
:1033800040F04000A6490860A1E0A548006840F070
:103390008000A34908609AE0A148006820F001007D
:1033A0009F49086093E09E48006820F002009C4915
:1033B00008608CE009E06BE070E07AE09848006813
:1033C00020F004009649086081E09548006820F0EC
:1033D0000800934908607AE09148006820F01000E6
:1033E0008F49086073E08E48006820F020008C4907
:1033F00008606CE08A48006820F040008849086056
:1034000065E08748006820F08000854908605EE03C
:103410008448007840F001008249087057E08148F4
:10342000007840F002007F49087050E07D48007845
:1034300040F004007B49087049E07A48007840F089
:1034400008007849087042E07648007820F00100D2
:10345000744908703BE07348007820F0020071491D
:10346000087034E06F48007820F004006D4908705F
:103470002DE06C48007820F008006A49087026E0CA
:1034800001206949087022E00020674908701EE0A9
:1034900015F0C8FE1BE028F0E5FD18E000F0C0FCC8
:1034A00062480078022803D10299C8B229F041F895
:1034B0000DE05F48007880F0FF005D4908705B48D0
:1034C0000078022802D1002028F080FD00BF00BF54
:1034D00000231A4601A957480068FDF750FE00284E
:1034E0007FF4F4AE5148007810B15348007808B129
:1034F000BDE8FF8751480068514908604F4840685F
:1035000048604948007801280FD14448007860B9E4
:1035100028214C482DF00FFF4BA14A482FF0D2FA3A
:10352000002211464748FFF7BBF83F4800783B4967
:103530000870002437E00120A0403A49097808408B
:10354000002823DD0120A04043490978084229D101
:103550000121A140C8B229F087F8E0B2FFF797FE39
:103560000120A0403D49097808433C4908702821C2
:1035700034482DF0E0FE621C39A132482FF0A2FA47
:10358000002211462F48FFF78BF80BE00120A040E6
:10359000314909780840002804DD0121A140C8B262
:1035A00029F068F8641C042CC5DB1E4800782A4901
:1035B0000870002484E00120A040274909780842CF
:1035C0007DD034B1012C16D0022C53D0032C75D1F0
:1035D00062E01348006820F00300114908601748B2
:1035E000006820F00300154908600846406840F074
:1035F0000300486062E00A48006820F00C000849B7
:1036000008600E48006820F00C000C49086008466D
:10361000406840F00C00486050E0000057C40720AC
:1036200058C407205CC407205DC4072045C207209A
:1036300054C40720ECCA0720F6C1072060C4072045
:1036400068C40720407B0010C4E2E5F0FC20EEF2E5
:10365000EAF0FBF2E000000055C4072056C4072042
:10366000D2F0F3E1E02025643A20EDE5F220F1E22A
:10367000FFE7E800FE48006820F03000FC490860E1
:10368000FC48006820F03000FA49086008464068AD
:1036900040F03000486011E0F548006820F0C000BC
:1036A000F3490860F348006820F0C000F149086061
:1036B0000846406840F0C000486000BF00BF641C7E
:1036C000042CFFF678AFEA48007810F0020F03D020
:1036D000022028F0BDFF02E0022028F0BFFFE448EE
:1036E000007810F0080F03D0082028F0B1FF02E0A6
:1036F000082028F0B3FFDE48007810F0200F03D038
:10370000202028F0A5FF02E0202028F0A7FFD848BD
:10371000007810F0800F03D0802028F099FF02E09D
:10372000802028F09BFF0024D7E00120A040D04952
:10373000096808426FD0CF4840680121A140084283
:103740006AD10121A140C8B228F076FFE0B2FFF7AC
:103750006AFDC84800680121A140084275D12821AE
:10376000C5482DF0E8FD082C2DD2DFE804F004094F
:103770000E13181D2227C1A00BF0F7FA054622E010
:10378000BFA00BF0F2FA05461DE0BEA00BF0EDFA6B
:10379000054618E0BCA00BF0E8FA054613E0BBA014
:1037A0000BF0E3FA05460EE0B9A00BF0DEFA054691
:1037B00009E0B8A00BF0D9FA054604E0B6A00BF07A
:1037C000D4FA054600BF00BF25B9B4A1AA482FF01E
:1037D00079F96CE0082C2FD2DFE804F004090E130D
:1037E000181F2429B3A1A4482FF06CF924E0B7A135
:1037F000A1482FF067F91FE0B9A19F482FF062F9A7
:103800001AE0BDA19C482FF05DF915E0BFA19A48D0
:103810002FF058F910E058E05EE0C2A196482FF072
:1038200051F909E0C4A194482FF04CF904E0C8A173
:1038300091482FF047F900BF00BF01226946284692
:103840000BF03EF9082C31D200E036E0DFE804F05E
:103850000419051A061B071C00BF00BF00BF009813
:103860002EF07AF90746884683482DF0A3FD824959
:1038700000EB01093A464346BAA148462FF022F927
:1038800014E000BF00BF00BF00982EF065F90746A6
:10389000884679482DF08EFD774900EB01093A46BC
:1038A0004346B3A148462FF00DF900BF00BF0022E8
:1038B00011467148FEF7F4FE00BF6E480168012012
:1038C000A04001436B48016006E06A48406801215E
:1038D000A140884367494860641C082CFFF625AF67
:1038E000A648006863490968884205D1A348406832
:1038F00060494968884210D0A1A001F031FD064618
:1039000000221146304601F080FC01225949304620
:1039100001F06CFC304601F019FD00BFE8E570B520
:10392000054697A001F01CFD0646012D06D0022D8C
:103930002BD0032D50D0042D26D174E04D480068C3
:1039400020F001004B4908600846006820F00200A2
:1039500008600846406840F001004860084640683A
:1039600040F002004860012028F06CFE022028F0A0
:1039700069FE4FF08061032006F0CAFB82480078A0
:1039800020F001008049087003E13A48006820F007
:103990000400384908600846006820F00800086004
:1039A0000846406840F0040048600846406840F01F
:1039B00008004860042028F045FE082028F042FE58
:1039C0004FF00071032006F0A3FB6F48007820F051
:1039D00002006D490870DCE02648006820F0100005
:1039E000244908600846006820F020000860084666
:1039F000406840F0100048600846406840F02000F1
:103A00004860102028F01EFE202028F01BFE4FF0FA
:103A10008051012006F07CFB5B48007820F0040018
:103A200059490870B5E01348006820F0400011497A
:103A300008600846006820F080000860084640687A
:103A400040F0400048600846406840F08000486010
:103A5000402028F0F7FD802028F0F4FD4FF00051C1
:103A6000012006F055FB4848007820F008008DE062
:103A700058C4072060C40720407B0010533000006A
:103A80005331000053320000533300005334000020
:103A9000533500005336000053370000D1EEE1FBF0
:103AA000F2E8FF3A20EDE5F220E4E0F2F7E8EAE0A0
:103AB00000000000D2F0F3E1E020312C20E8E7EE36
:103AC000EBFFF6E8FF0D523D00000000D2F0F3E1FD
:103AD000E020312C20F1E8E3EDE0EB0D523D000059
:103AE000D2F0F3E1E020322C20E8E7EEEBFFF6E83D
:103AF000FF0D523D00000000D2F0F3E1E020322C37
:103B000020F1E8E3EDE0EB0D523D0000D2F0F3E1EF
:103B1000E020332C20E8E7EEEBFFF6E8FF0D523D06
:103B200000000000D2F0F3E1E020332C20F1E8E3C4
:103B3000EDE0EB0D523D0000D2F0F3E1E020342C3B
:103B400020E8E7EEEBFFF6E8FF0D523D0000000035
:103B5000D2F0F3E1E020342C20F1E8E3EDE0EB0DCE
:103B6000523D000025302E316620EACEEC000000E8
:103B700025302E316620CEEC0000000068C40720FE
:103B8000534156455200000056C407207A49087038
:103B900000BF00BF00221146304601F036FB012273
:103BA0007649304601F022FB304601F0CFFB00247D
:103BB00010E00120A040704909780840002808DD85
:103BC0000121A140C8B228F04FFDE0B2FFF75FFB32
:103BD00002E0641C042CECDB00BF00240EE067480C
:103BE00001680120A040014207D0E0B2FFF71BFBB3
:103BF0000121A140C8B228F01FFD641C082CEEDB97
:103C000070BD27F054F900BF5D480078012807D146
:103C100028F04CFA01205B490870022058490870CE
:103C20005848007801280BD10220564908705448A2
:103C3000007810B90020FFF772FE012028F0C6F9C5
:103C4000FFF741FB3220FDF73BFDDDE770B50C21AE
:103C50001E20FDF70DF94C4908604C480BF08CFB19
:103C60004B480BF089FB4B480BF086FB4A480BF0A6
:103C700083FB4A480BF080FB49480BF07DFB494829
:103C80000BF07AFB48480BF077FB48480BF074FBCD
:103C900047480BF071FB47480BF06EFB46480BF0B2
:103CA0006BFB46480BF068FB45480BF065FB45484D
:103CB0000BF062FB44480BF05FFB44480BF05CFBED
:103CC00043480BF059FB43480BF056FB42480BF0BE
:103CD00053FB42480BF050FB41480BF04DFB414871
:103CE0000BF04AFB40480BF047FB40480BF044FB0D
:103CF0003F480BF041FB4FF08061032006F008FACB
:103D00004FF00071032006F003FA4FF080510120BC
:103D100006F0FEF94FF00051012006F0F9F90122FA
:103D20009106032006F0E0F901225106032006F077
:103D3000DBF901221107104606F0D6F901225107DE
:103D4000104606F0D1F9AFF2C81001F009FB0546A4
:103D500000221146284601F058FA01220749284658
:103D600001F035FA0446284601F0F0FA1CB90020AB
:103D700002490860486070BD56C4072060C407202F
:103D8000F6C1072045C20720ECCA07204CC2072015
:103D900060C2072074C2072088C207209CC2072087
:103DA000B0C20720C4C20720D8C20720ECC2072037
:103DB00000C3072014C3072028C307203CC30720E3
:103DC00050C3072064C3072078C307208CC3072093
:103DD000A0C30720B4C30720C8C30720DCC3072043
:103DE000F0C3072004C4072018C407202CC40720F0
:103DF00040C4072070B506460D463A2128462DF0EE
:103E0000CFFA04460CB9284600E0601C044621465F
:103E10003046FCF7C8FE08B9012070BD0020FCE761
:103E2000002038498860704710B500BF0120002885
:103E300041D035A136A008F0F4FD04463CB94EF659
:103E40006020354948600720FFF73EF90FE0204623
:103E50002DF049FC304948600846406844F620612E
:103E6000884202D208462C4948602B4840682BA162
:103E700027A008F0D6FD044634B9294829494860EE
:103E80000720FFF721F919E020462DF02CFC2549E9
:103E90004860084640684EF66021884202D20846D3
:103EA000204948601F4840681F49884206D9084693
:103EB0001C49486002E00020FFF706F910BD10B56C
:103EC0001A4826F04DF81A4826F04AF8194826F004
:103ED00047F8194826F044F8184826F041F80948F0
:103EE00026F03EF80F4826F03BF8154826F038F843
:103EF000094826F035F8134826F032F8FFF794FF0A
:103F000010BD000030C5072050696E67000000003A
:103F100054494D455253000070C50720536D73003E
:103F2000E093040050C5072080EE360070C40720DF
:103F3000B0C40720D0C4072010C50720F0C4072054
:103F400090C4072090C5072070B506460D463A215B
:103F500028462DF025FA04460CB9284600E0601CDE
:103F6000044621463046FCF71EFE08B9012070BD0C
:103F70000020FCE730B50246002009E0135C0C1A73
:103F8000641E145D14540C1A641E1355441CE0B2D4
:103F900001EBD175B0EB650FF0DB30BD01B504214D
:103FA0006846FFF7E7FF009808BD01B504216846A1
:103FB000FFF7E0FF009808BD01B502216846FFF752
:103FC000D9FFBDF8000008BD2DE9F04104460D46BB
:103FD00016461F46384800688000B4EB500F17D2D1
:103FE0006019354909688900B0EB510F0ED86A0095
:103FF0003248006800EB440130462DF075F902208C
:1040000000EB450038700020BDE8F0810320FBE79D
:104010000220F9E710B50BF019F927490860096883
:104020008800FEF7A3F82549086010BD38B50BF0ED
:1040300018F9044604B938BD00250FE0012269468D
:1040400020460AF03DFD0098FFF7A8FF29466D1CA9
:104050001A4A126842F82100D4F80540002CEDD12C
:1040600000BFE8E710B500BF012070B114A116A091
:1040700008F0D7FC044604B910BD16A120462DF067
:10408000A0F910B901201449086000BFF4E710B589
:1040900000BF012058B111A112A008F0C2FC0446D3
:1040A00004B910BD2046FEF7B4F91049086000BFFE
:1040B000F7E7094800687047280000102400001046
:1040C0004D6574686F6400004D425F436C69656EB6
:1040D00074000000434F4D0020000010506F7274B8
:1040E00000000000494E464F00000000F8C10720C4
:1040F00070B506460D463A2128462DF051F9044682
:104100000CB9284600E0601C044621463046FCF706
:104110004AFD08B9012070BD0020FCE710B500225F
:104120004FF40051022005F0DFFF03220D21022091
:1041300006F0CAF90122D106104605F0D5FF4FF06E
:104140000061012005F0EEFF01229104002005F03E
:10415000CBFF4FF48021002005F0DAFF012210216F
:10416000022005F0C1FF1021022005F0D1FF05F06B
:1041700024FB05A008F04EFC002005F039FD07A047
:10418000FBF7FAFF002010BD2F6174343564622FF5
:10419000444556434F4E2E696E6900004D4F4445CD
:1041A0004D20437265617465640A000000B589B0F2
:1041B00003208DF81E0000208DF820008DF81F00D0
:1041C00001208DF81C0014208DF81D0007A806F0B2
:1041D000C9F917208DF81D0007A806F0C3F91820AB
:1041E0008DF81D0007A806F0BDF902212A2007F06E
:1041F000FBF90020029003908F4806900720019061
:1042000000200490059001A98C4806F0F5F90121E1
:104210008A4806F03BFA00210120FCF729FE884974
:1042200048600846406828B1486800231A46194685
:10423000FCF7CFFE8248406850B90122002181A0DE
:10424000FEF72EFA85A0FBF797FF012009B000BD0D
:1042500088A0FBF791FF0020F8E710B5784948687F
:1042600000235A1E1946FCF78AFF864810BD0346F4
:104270004FF0FF30704703464FF0FF3070472DE995
:10428000F047804689461546D8F80C40002D2BDBB8
:10429000294648462DF04FF84FF49670FDF766FF1B
:1042A0000646002E20D0626877A130462EF00AFC28
:1042B00007462268F01978A12EF004FC07442089F3
:1042C0002844B84201DD20893D1A208981192A46F7
:1042D00048462DF009F82089284420813046FEF711
:1042E00013F82846BDE8F0870020FBE710B5044628
:1042F0000B46E16822B1012A09D0022A1BD111E044
:104300001E2B01D20B8101E00020088116E00889F4
:1043100018441E2803D208891844088101E00020AF
:1043200008810BE01E2B03D2C3F11E00088101E0BF
:104330000020088102E00020088110BD00BF08892C
:10434000FBE703464FF0FF30704770B50446A568A1
:10435000686800231A461946FCF73BFE70BD2DE93C
:10436000F047054688461646C246AC68D5F80C901C
:10437000002700BF11E01AF80710206806F0AAF91C
:1043800000BF0221206806F0B9FA0028F9D0D9F858
:104390000000401CC9F800007F1CB742EBDB00BFE7
:1043A0001021206806F0AAFA0128F9D000BF206881
:1043B00006F093F90421206806F0A0FA0028F6D14F
:1043C0003046BDE8F0872DE9F05F05460F461646FA
:1043D000AC68D5F80C904FF0000ABB4600BF2068CF
:1043E00006F07BF900F0FF080421206806F086FA49
:1043F0000028F4D182461AE00021206806F06AF90C
:1044000000BF0421206806F079FA0028F9D020685E
:1044100006F063F900F0FF088BF800800BF1010B48
:10442000D9F80400401CC9F804000AF1010AB24599
:10443000E2DB3046BDE8F09F40787D010080084017
:104440002C000010535350303A2053656D61706852
:104450006F72203D204E554C4C000000535350309D
:104460003A2053656D6170686F72203D204E554C47
:104470004C0A0000535350302043726561746564E8
:104480000A00000034000010526563697665202D33
:1044900020253130750A00005472616E736D6974A5
:1044A00020253130750A526563697665206275662C
:1044B0003A0A000010B5002807DACA06140EF74AB7
:1044C00000F00F031B1FD45403E0CA06130EF44A76
:1044D000135410BD00B587B002208DF80A000020EB
:1044E0008DF80C008DF80B0002208DF808000120DB
:1044F0008DF8090002A806F035F800208DF80900B3
:1045000002A806F02FF800208DF80C008DF80B00A3
:1045100002208DF8080005208DF8090002A806F099
:1045200021F84FF49640059003208DF819000020E3
:104530008DF818008DF81A0005A9DA4806F0B1FBCD
:1045400000208DF8120003208DF8130001208DF853
:1045500010008DF8110000208DF8000001208DF86A
:10456000010000208DF8020001208DF803008DF875
:1045700004008DF8050000208DF807006946C94841
:1045800006F0A2FD0121C74806F0C8FD04A9C548F0
:1045900006F0E8FC01220021C24806F099FC012245
:1045A0001146C04806F094FC1F210620FFF782FF49
:1045B000062000F04FFD0121BA4806F02BFB002138
:1045C0000120FCF755FCB849C8620846C06A28B10A
:1045D00000231A46C86A1946FCF7FBFCB248C06AB9
:1045E00050B901220021B1A0FEF75AF8B6A0FBF79E
:1045F000C3FD012007B000BD00210120FCF738FCFD
:10460000A94988620846806A28B100231A46886A48
:104610001946FCF7DEFCA448806A48B90122002153
:10462000B0A0FEF73DF8B6A0FBF7A6FD0120E1E73C
:10463000BAA0FBF7A1FD0020DCE710B5BB4800786D
:1046400018B90120B949087007E002220021B8A07A
:10465000FEF726F8BAA0FBF78FFDB44810BD00B5F1
:1046600085B002208DF8020000208DF804008DF83E
:1046700003008DF8000001208DF80100684605F068
:1046800071FF00208DF80100684605F06BFF4FF4C4
:10469000E130039003208DF8110000208DF8100008
:1046A0008DF8120003A9AA4806F0FBFA00208DF845
:1046B0000A0003208DF80B0001208DF808008DF80A
:1046C000090002A9A24806F04DFC01220021A048E1
:1046D00006F0FEFB012211469D4806F0F9FB1F2162
:1046E0000820FFF7E7FE082000F0B4FC01219848FD
:1046F00006F090FA00210120FCF7BAFB9549C86248
:104700000846C06A28B100231A46C86A1946FCF751
:1047100060FC9048C06A50B9012200218EA0FDF7CC
:10472000BFFF94A0FBF728FD012005B000BD0021CC
:104730000120FCF79DFB874988620846806A28B102
:1047400000231A46886A1946FCF743FC8148806AB0
:1047500048B9012200218EA0FDF7A2FF93A0FBF72C
:104760000BFD0120E1E798A0FBF706FD0020DCE748
:1047700010B59948007818B901209749087007E0EA
:104780000222002195A0FDF78BFF98A0FBF7F4FC17
:10479000914810BD03464FF0FF3070472DE9F84FA8
:1047A00081468B461646D9F80C40D9F8080000908F
:1047B000009800F1040A002E40DB314658462CF0E8
:1047C000BAFD4FF49670FDF7D1FC0746002F35D0A7
:1047D00062688AA138462EF075F905462268781974
:1047E0008AA12EF06FF90544BAF800800EE0DAF8DD
:1047F000080010F8080078556D1CB8F1000F01D1C1
:10480000BAF80480A8F101001FFA80F8B5F5917F8D
:10481000EDDB20893044A84201DD20892E1A208951
:10482000C119324658462CF05FFD20893044208162
:104830003846FDF769FD3046BDE8F88F0020FBE7FC
:1048400003464FF0FF30704710B504460B46E16851
:1048500022B1012A0BD0022A1DD115E0B3F5967FB3
:1048600001D20B8102E00020088110BDE3E008893D
:104870001844B0F5967F03D208891844088102E0F5
:1048800000200881F1E7D6E0B3F5967F04D2C3F5A6
:1048900096700881CBE0CBE0C6E0000018ED00E0A8
:1048A00000E400E000000140B8C507205541525423
:1048B000313A2053656D6170686F725F7478203D86
:1048C000204E554C4C00000055415254313A205373
:1048D000656D6170686F725F7478203D204E554C35
:1048E0004C0A000055415254313A2053656D6170B5
:1048F000686F725F7278203D204E554C4C0000006E
:1049000055415254313A2053656D6170686F725F42
:104910007278203D204E554C4C0A000055415254AF
:104920003120437265617465640A0000E8C50720A0
:1049300055415254312052455F4F50454E000000C2
:1049400055415254312052455F4F50454E0A0000A8
:1049500000C00940F8C5072055415254333A20534E
:10496000656D6170686F725F7478203D204E554CA4
:104970004C00000055415254333A2053656D61702C
:10498000686F725F7478203D204E554C4C0A0000D1
:1049900055415254333A2053656D6170686F725FB0
:1049A0007278203D204E554C4C0000005541525429
:1049B000333A2053656D6170686F725F7278203D85
:1049C000204E554C4C0A000055415254332043723E
:1049D00065617465640A000028C607205541525479
:1049E000332052455F4F50454E0000005541525410
:1049F000332052455F4F50454E0A000052656369AF
:104A00007665202D20253130750A00005472616EC4
:104A1000736D697420253130750A52656369766556
:104A2000206275663A0A0000002008811DE702E056
:104A30000020088119E700BF088916E770B5044611
:104A400025462878012802D10020287007E002229C
:104A50000021F8A0FDF724FEFAA0FBF78DFB70BD46
:104A600070B5054605F110040026FDF755FB2868D2
:104A7000007D10F0200F17D013E060882188884255
:104A800000D110E0761C6188A068405C296808703D
:104A90006088401C60806088A188884201D1002025
:104AA0006080042EE9DB00BFFDF73FFB70BD2DE900
:104AB000F05F064689461546B76807F11004D6F838
:104AC0000CA04FF0000BD8463DE02088618888425A
:104AD00007DB20886188401AA188081A1FFA80FB2A
:104AE00004E060882188401A1FFA80FB19E03846EC
:104AF000FFF7B6FF00235A1E1946F86AFCF73FFB82
:104B000020886188884207DB20886188401AA18854
:104B1000081A1FFA80FB04E060882188401A1FFAF7
:104B200080FBBBF1010FE2D019F808102288501C5D
:104B30002080A06881542088A188884201D100206B
:104B4000208008F10108A845BFDB3846FFF788FF41
:104B5000DAF800002844CAF800002846BDE8F09FB3
:104B60002DE9F047074688469146BC68251DD7F8D1
:104B70000CA0002084F8240084F82500002600BF43
:104B800031E018E094F82400012808D1002084F8CE
:104B90002400022084F825003046BDE8F087002379
:104BA0001946226AA06AFCF7EAFA20B9012084F8C3
:104BB00025003046F1E7688829888842E2D0698874
:104BC000A868405C08F806006888401C688068880F
:104BD000A988884201D100206880DAF80400401CCE
:104BE000CAF80400761C4E45CBDB3046D5E72DE9EC
:104BF000F84F82468B461546DAF808703C683E1D31
:104C000007F11008002000908146BBF1660F6ED0BE
:104C100027DCBBF1340F6BD011DCBBF1030F68D084
:104C200006DCBBF1010F73D0BBF1020F71D1BEE006
:104C3000BBF1040F6ED0BBF10B0FF7D139E1BBF123
:104C4000370F68D006DCBBF1350F75D0BBF1360FDE
:104C5000ECD154E1BBF1640F76D0BBF1650FE5D127
:104C6000A4E0BBF1D30F69D011DCBBF1CC0F1BD09A
:104C700006DCBBF1670F70D0BBF1690FD6D164E0E1
:104C8000BBF1CD0F25D0BBF1D00FCFD144E0BBF1AC
:104C9000D40F71D0BBF1D50F6FD0BBF1D60F4ED072
:104CA000BBF1DC0FC2D11DE130887188884205DB81
:104CB00030887188401A80B2009006E0B088718810
:104CC000401A3188084480B20090BDF80000288066
:104CD00018E1B8F80200B8F8001088420ADDB8F808
:104CE0000200B8F80010401A80B200900CE0B6E064
:104CF00003E1B5E0B8F80400B8F80010401AB8F8BD
:104D00000210084480B20090BDF800002880F9E04D
:104D100024E0F6E0BAE0F3E0B8F80000A8F80200FA
:104D200030887080012087F8240000231A46194635
:104D3000B86AFCF74EF9E5E0E0E005E0CCE020469B
:104D4000296805F02BFEDDE0DCE0204605F084FF5D
:104D5000DAF8041048688047D4E096E0207B00F041
:104D6000FC0020732878052808D0062809D00728D9
:104D70000CD0082814D10EE0B1E0B9E0207B2073FC
:104D800012E0207B40F0010020730DE0207B40F01A
:104D90000200207308E0207B40F00300207303E052
:104DA0004FF0FF30BDE8F88F00BFABE0AAE095F808
:104DB0000090B9F1010F35DD207B40F00800207331
:104DC000B9F1060F2DD2DFE809F02C0308111A23E0
:104DD000207B20F03800207323E0207B20F0380077
:104DE0002073207B40F0080020731AE0207B20F025
:104DF00038002073207B40F01800207311E0207BE6
:104E000020F038002073207B40F02800207308E059
:104E1000207B20F038002073207B40F03800207386
:104E200000BF1BE0B9F1010F14D1207B20F0080076
:104E3000207313E0554152542052455F434C4F5369
:104E400045000000554152542052455F434C4F539A
:104E5000450A0000207B20F00800207352E051E05A
:104E60002878012802D002280AD104E0207B20F013
:104E70000400207307E0207B40F00400207302E070
:104E80004FF0FF308EE700BF3CE03BE0287805287C
:104E900002D006280AD104E0207B40F040002073B5
:104EA00005E0207B20F04000207300E000BF00BF41
:104EB00028E0FDF731F9287810F0010F02D000202A
:104EC00030807080287810F0020F02D000203080EF
:104ED0007080FDF72AF915E02868386212E0386A18
:104EE00028600FE00020286097F82500287009E06E
:104EF0002046F96905F052FD04E003E002E001E01C
:104F000000E000BF00BF00204CE72DE9F04105465E
:104F10000E462C1D0EB1002000E00220074607B906
:104F2000002700BF286801782288501C2080A068D4
:104F300081542088A188884201DB002020802088BD
:104F4000618888420BD16088401C6080012085F810
:104F500026006088A188884201DB002060802868E4
:104F600090F8580000F00F00B842DBD185F82460BB
:104F700000233E4A1946A86AFCF7B3F8BDE8F08161
:104F80002DE9F04105460026002705F1100413E045
:104F900060882188884200D110E0761C6188A06872
:104FA000405C296808706088401C60806088A18827
:104FB000884201D100206080102EE9DB00BF2088EC
:104FC0006188884206DB20886188401AA188081A17
:104FD00087B203E060882188401A87B2A08800EB7E
:104FE000D071B7EB610F05DD0023214A1946E86A4D
:104FF000FCF777F8BDE8F08110B51E48806800F036
:105000000E04042C03D100211B48FFF77EFF0C2C5B
:1050100003D101211848FFF778FF022C02D116486E
:10502000FFF7AEFF10BD10B51448806800F00E0405
:10503000042C03D100211248FFF767FF0C2C03D189
:1050400001210F48FFF761FF022C02D10C48FFF746
:1050500097FF10BD00F01F020121914042094FF05F
:10506000E02303EB8202C2F80011704738C6072024
:105070003CC6072000C00940F8C5072000000140D9
:10508000B8C5072070B504460025216848688047E8
:105090000546012D00D170BDC5480078401CC449AB
:1050A00008700846406820B90846446000206060E7
:1050B00004E0BF4840686060BD4844600020EAE703
:1050C00010B5BC48BC490860002048600846FFF79E
:1050D000D9FFBA48BA490860002048600846FFF77F
:1050E000D1FFB848B8490860002048600846FFF77B
:1050F000C9FFB648B6490860002048600846FFF777
:10510000C1FFB448B4490860002048600846FFF772
:10511000B9FFB248B2490860002048600846FFF76E
:10512000B1FFB048B0490860002048600846FFF76A
:10513000A9FFAE48AE490860002048600846FFF766
:10514000A1FFAC48AC490860002048600846FFF762
:1051500099FFAA48AA490860002048600846FFF75E
:1051600091FF0A20FCF7ACFAFDF789FAA548A64999
:105170000860002048600846FFF784FFA348A44960
:105180000860002048600846FFF77CFFA148A2495C
:105190000860002048600846FFF774FF9F48A04958
:1051A0000860002048600846FFF76CFF9D489E4954
:1051B0000860002048600846FFF764FF9B489C4950
:1051C0000860002048600846FFF75CFF10BD70B51E
:1051D00004460D46164614B94FF0FF3070BD6068A6
:1051E00032462946036920469847F7E770B50446DA
:1051F0000D46164614B94FF0FF3070BD6068324658
:105200002946436920469847F7E770B504460D469E
:10521000164614B94FF0FF3070BD6068324629461B
:10522000836920469847F7E770B505460C46204647
:105230002CF0C0F80646324621462846FFF7D6FF36
:1052400070BD70B504460D46164614B94FF0FF30D8
:1052500070BD606832462946836A20469847F7E762
:10526000FFB581B007460D46164600200090002489
:105270000FB905B0F0BD6A46D4213846FFF7E1FF0B
:1052800004AAD3213846FFF7DCFF314628462CF02C
:1052900052F8761E00BF321B29193846FFF797FFD8
:1052A000044404B91DE006E03246691C28462CF08F
:1052B0001BF804B1641E28780D28F5D028780A2838
:1052C000F2D024B1601E285C0A2800D109E004AAAB
:1052D000DC213846FFF7B5FF0498012801D0B4421D
:1052E000D9D300BF6A46D3213846FFF7AAFF20462C
:1052F000BFE770B504460D46164614B94FF0FF30AF
:1053000070BD606832462946C36920469847F7E772
:1053100070B504460D46164614B94FF0FF3070BD07
:10532000606832462946036A20469847F7E770B519
:1053300004460D46164614B94FF0FF3070BD606844
:1053400032462946436A20469847F7E710B5044697
:1053500004B910BD606881682046884700BFF8E73F
:1053600070B50646124844680AE02568314605F1E2
:105370002C002CF026F810B9E868804770BD6468EE
:10538000002CF2D10020F9E770B5054608484468C2
:1053900009E02668294606F12C002CF012F808B91D
:1053A000012070BD6468002CF3D10020F9E70000F3
:1053B00040C6072068540300A0C60720A03403009D
:1053C00048C60720D834030050C6072080350300A4
:1053D00058C60720B835030060C6072068340300AC
:1053E00068C607201035030070C60720F03503009B
:1053F00078C607204037030080C60720083703001F
:1054000088C60720D036030090C6072078370300EF
:1054100098C6072048350300B0C607202836030089
:10542000A8C6072060360300B8C6072098360300D8
:10543000C0C607202DE9FC47804689461446002057
:1054400001900090D8F80C70002C37DB21464846BC
:105450002BF071FF4FF49670FCF788FE0546002D87
:105460002CD0694601A8FCF771FF2846FCF735FBF4
:1054700028462BF09FFF0646A81954A1019A2DF04B
:1054800021FB0644A819BDF8002056A12DF01AFBF7
:10549000064438882044B04201DD3888341A388800
:1054A0004119224648462BF01FFF38882044388097
:1054B0002846FCF729FF2046BDE8FC874FF0FF3067
:1054C000FAE710B504460B46E16822B1012A0AD07A
:1054D000022A1ED113E0B3F5967F01D20B8001E0C2
:1054E0000020088018E008881844B0F5967F03D2A1
:1054F00008881844088001E0002008800CE0B3F51B
:10550000967F03D2C3F59670088001E000200880E2
:1055100002E00020088010BD00BF0888FBE710B53E
:1055200035A0FAF729FE002010BD10B536480078E6
:1055300018B901203449087002E034A0FAF71CFEC3
:10554000314810BD10B504462F480078012803D11A
:1055500000202D49087002E030A0FAF70DFE10BDC2
:105560001CB500208DF80000304801906A460021EB
:105570002F4806F063F92E4806F0FDF902200921B4
:10558000002807DACA06140E2A4A00F00F031B1F70
:10559000D45403E0CA06130E274A135400BF022056
:1055A0000121814042094FF0E02303EB8202C2F85F
:1055B000001100BF01211E4806F0D1F9012104208D
:1055C00006F012F81CBD1A48806870470A204D6525
:1055D0006D6F72792066726565206D617820253562
:1055E000750A00004D656D6F727920746F74616C7F
:1055F00020253575000000005374617473204372D8
:1056000065617465640A0000CCC607205374617438
:10561000732052455F4F50454E0A00005374617429
:10562000732052455F434C4F53450A00A08601004A
:105630000080004018ED00E000E400E070B5064690
:105640000D463A2128462BF0ABFE04460CB92846FD
:1056500000E0601C044621463046FBF7A4FA08B976
:10566000012070BD0020FCE72DE9F0410746002431
:1056700000250026F8A1384607F0D3F904462CB9D6
:105680000020F6490873401EBDE8F0812DE0204659
:105690002CF01CF80546F2A120462BF0D5FE04465E
:1056A000B4B120782E2813D1A41C20462CF00EF87B
:1056B000064606B92E46E948C17A701B401C0844CC
:1056C000E649C872E6A120462BF0BEFE044604E07F
:1056D000E248C07A401CE149C872E048807A401C28
:1056E000DE49887204B903E0641C20780028CED11A
:1056F00000BF0020C8E72DE9F04F8BB00026B1466F
:10570000002002908046834600BF0120002878D008
:10571000D4A1D5A007F085F9054625B128462BF080
:1057200049FE1E2805D30020CC4908730BB0BDE804
:10573000F08F294603A82BF05FFE03AD0020CD4972
:1057400008730CE03B21681C2BF02AFE05460DB1C6
:1057500000202870C748007B401CC649087315B15B
:1057600068780028EED1C349087BFCF7FFFCC149EB
:1057700008600846006818B90020B8490873D5E7E2
:10578000BC4A117B10682BF0D6FD03AD002411E05C
:1057900028462BF09BFFB749096808552846FFF7B4
:1057A00063FF401C00D1C1E728462BF003FE401CDC
:1057B0000544641CAF48007BA042E9DCAD49097B8D
:1057C0008800FCF7D3FCAB4948600846406818B92C
:1057D0000020A2490873A9E7A64A127B9100A54AB6
:1057E00050682BF0A8FDA349097B8800FCF7BEFC9C
:1057F000A04988600846806820B90020974908734E
:1058000094E7E4E09B4A127B91009A4A90682BF05F
:1058100092FD9249C97A01EB41018800FCF7A6FC90
:1058200006461EB900208D4908737FE78B49897AA7
:1058300001EB8100FCF79AFC8146B9F1000F03D11E
:1058400000208649087371E703AD4FF0000AAFE00E
:1058500089A1284607F0E5F8074617B93C200290D1
:1058600004E038462BF032FF80B202907AA128463D
:1058700007F0D7F807461FB900207849087355E7A5
:1058800028462BF097FD401C05448AE038462BF053
:105890001DFF804672A138462BF0D6FD0746CFB1DA
:1058A00038782E2816D1BF1C38462BF00FFF8346C0
:1058B000BBF1000F00D1C3466848417AABEB08004A
:1058C000401C08446549487265A138462BF0BCFD70
:1058D000074605E06148407A401C60494872C3466B
:1058E0005E48417AABEB0800401C0C1A0020019086
:1058F0002DE06048006810F80A0004EB440106F847
:105900002100404608F1010804EB440106EB810147
:10591000A1F80100002004EB440106EB8101C871ED
:10592000574804EB440106EB8101C1F80300002055
:1059300004EB440106EB8101488104EB440106EBD2
:10594000810102980881641C0198401C0190434821
:10595000407AA042CDDC0198A8EB000845480068D9
:1059600010F80A003D49097A01EB810109F80100AC
:105970003A49097A01EB81014944A1F80180ABEB76
:105980000800401C3549097A01EB81014944A1F81E
:1059900003003248007A401C3049087207B904E01D
:1059A0007F1C387800287FF471AF00BF0AF1010A2C
:1059B0003048007B50453FF74BAF28480660C0F8A1
:1059C000049000202549487208720120087300BF26
:1059D000ACE610B52BA007F01DF8FFF78CFE0021F8
:1059E0000120FBF745FA1D49C1F80D000846D0F823
:1059F0000D0030B1D1F80D0000231A461946FBF70F
:105A0000E8FA1648D0F80D0048B90122002122A07A
:105A1000FCF746FE26A0FAF7AFFB012010BD2AA036
:105A2000FAF7AAFB0020F9E710B50C49D1F80D00F0
:105A300000235A1E1946FBF7A2FB274810BD10B5DC
:105A40000346DC682271A4F80510084610BD034621
:105A50004FF0FF30704700005265670069DC072097
:105A60002E3B0000494400004D425F53657276654D
:105A7000720000005CDC0720544F757400000000C9
:105A80000000C07F2F6174343564622F4445564353
:105A90004F4E2E696E6900004D42533A2053656D9A
:105AA0006170686F72203D204E554C4C0000000024
:105AB0004D42533A2053656D6170686F72203D20EE
:105AC0004E554C4C0A0000004D4253204372656114
:105AD0007465640A00000000E4C607202DE9F84F51
