:100000000C9434000C9446000C9446000C9446006A
:100010000C9446000C9446000C9446000C94460048
:100020000C9446000C9446000C9446000C94460038
:100030000C9446000C9446000C9446000C94460028
:100040000C9446000C9446000C9446000C94460018
:100050000C9446000C9446000C9446000C94460008
:100060000C9446000C94460011241FBECFEFD4E040
:10007000DEBFCDBF22E0A0E0B1E001C01D92A630FE
:10008000B207E1F70E94E5000C94D5010C94000042
:100090009091C00095FFFCCF8093C60008958134F5
:1000A00010F4805305C0813610F4875301C0875582
:1000B0008295807F613410F4605305C0613610F47E
:1000C000675301C06755860F089507B600FCFDCF42
:1000D000E0910101F091020183E080935700E895DF
:1000E00007B600FCFDCF85E080935700E8950895A2
:1000F000CF93DF93C0E0D1E080910301C81768F58A
:100100008091000187FF0EC00E946500809101016F
:100110009091020180589F4F9093020180930101BA
:100120001092000107B600FCFDCF80910001E09124
:100130000101F0910201E80FF11DAC2FB0E0AC5FBE
:10014000BE4F2D913C910901D0935700E8951124A1
:100150008E5F80930001CE5FCFCF10920301DF91BD
:10016000CF91089546E851E08091C00087FFFCCF11
:100170008091C6008A3329F450938501409384010D
:100180000FC08D3089F3882379F320918401309159
:1001900085012650324021F488E50E944800FFCFB7
:1001A000E0918401F09185019F012F5F3F4F3093D3
:1001B00085012093840180838A30B1F686E891E03E
:1001C00090938501809384010895BF92CF92DF922E
:1001D000EF92FF920F931F93CF93DF9388E198E202
:1001E0000FB6F894A895809360000FBE90936000BE
:1001F0002FEE99E0E1E0F0E0022E90935700E895B1
:1002000026E831E030938501209384011AB817B8AD
:1002100014B81BB818B815B8569A219A389A529A39
:10022000549A3A9A3B9A29985C985A9A429A4398D7
:1002300053985B9A4B99ADC01092C5001092C400C0
:100240008093C10085E60E94480082E40E94480035
:100250008FE40E9448008FE40E94480084E50E94D9
:10026000480086E70E94480081E30E9448008EE231
:100270000E94480080E30E9448008AE00E944800F3
:1002800081E10E9448000E94B20083E10E94480080
:1002900060918801809187010E944F00D82F609162
:1002A0008A01809189010E944F00082F60918C0182
:1002B00080918B010E944F00182F60918E018091D8
:1002C0008D010E944F00D82ECD2FC00FC10FC80F37
:1002D0008D2F90E004967C01EE0CFF1CD091030161
:1002E00049E0C42E8C2D90E0BB24B394BD0EFC01DC
:1002F000EA57FE4FE816F90674F0618180810E948A
:100300004F00C80FED2FF0E0EC5FFE4F8083C394E9
:10031000C394DB2DE7CFD0930301618180810E94DC
:100320004F00C1958C1721F086E40E944800FFCF52
:10033000D1100CC08EE20E944800802F90E0982FD0
:100340008827810F911D0E9478000DC081E0D8128E
:100350000AC08FE40E94480080910001882339F090
:100360000E94650004C010920301C1E001C0C2E018
:10037000A89581E10E944800C23009F084CF8BE447
:100380000E94480007B600FCFDCF81E18093570032
:10039000E8950C940000DF91CF911F910F91FF9091
:0E03A000EF90DF90CF90BF900895F894FFCFBC
:00000001FF
