:020000040000FA
:0402FC00FFFFFFFF02
:020000040000FA
:10500000E03C0820815100008551000087510000DC
:10501000895100008B5100008D51000000000000FC
:10502000000000000000000000000000F15000003F
:105030000000000000000000215100005D70000031
:1050400097510000975100009751000097510000C0
:10505000975100009751000029C5000097510000AA
:10506000FBC40000975100009751000097510000C9
:105070009751000097510000975100009751000090
:105080009751000097510000975100009751000080
:105090009751000097510000975100009751000070
:1050A0005D0A0300975100009751000097510000DE
:1050B0009751000097510000975100009751000050
:1050C0009751000097510000975100000000000028
:1050D00000000000312E383100000000DFF80CD055
:1050E0002DF01EF800480047A1720000E03C0820A7
:1050F000194B19680868B0E8F00F80F309884FF081
:10510000000080F311884EF00D0E70470000000083
:1051100002480068006880F3088800DF08ED00E0BE
:10512000EFF309800C4B1A6820E9F00F106008B506
:105130004FF0280080F3118801F08AFD4FF0000045
:1051400080F31188BDE8084019680868B0E8F00FDE
:1051500080F30988704700BF6800001001B44FF069
:10516000280080F3118801BC704701B44FF00000A3
:1051700080F3118801BC70474FF03000D0F800F088
:1051800005480047FEE7FEE7FEE7FEE7FEE7FEE72D
:10519000FEE7FEE7FEE7FEE7DD50000070477047E0
:1051A0007047000000BF00BF2248006822498842C3
:1051B00001D1002000E001200128F4D100BF801EB1
:1051C0001C4909681C4A914204D01A4908681146D2
:1051D000184A116000BF704770B504460D46E0B232
:1051E00028F0E9FE70BD00B50346FFF7DBFF00BD08
:1051F00001464FF0FF30704700BF1049096811F0B9
:10520000807F12D00E49096811F0010F0DD00D49B1
:10521000096811F0010F08D000BF4FF06041096824
:105220000029FAD04FF06042107000BF704700BFF5
:10523000FEE7000000C00720A55AA55AFCED00E0DB
:10524000800E00E0000E00E02DE9F04104468846A3
:10525000174641F2240001F017FFA060A06818B9BA
:105260004FF0FF30BDE8F08141F22401A0682CF03E
:10527000B8F8A66827743A464146304610F0B4F9AB
:1052800005460DB9F06860602846EBE770B5044646
:105290000025A668304610F038FD0546A06801F0EC
:1052A000BDFF284670BD2DE9F04104460D46164667
:1052B000A76804F10C0332462946384610F04DFA2F
:1052C00080464046BDE8F0812DE9F04104460D4698
:1052D0001646A76804F10C0332462946384610F0FA
:1052E0006BFB80464046BDE8F08170B50446A5687A
:1052F000284610F0A7FC0646304670BD70B504463F
:10530000204611F031F80546284670BD70B50446B8
:10531000204610F0C2FF0546284670BD2DE9F04139
:1053200004460D462560A6682946304610F037FD34
:1053300007463846BDE8F0812DE9F04106460D46A6
:10534000304600F009FC28B910202872002028609F
:10535000BDE8F081182001F097FE044614B94FF023
:10536000FF30F5E7182120462CF03BF82146304667
:1053700010F08FFE074620682860A088A880E0888B
:10538000E880207A287204F1090105F109002CF067
:105390007AF8204601F042FF3846D9E770B5054655
:1053A0003249002010F072F80446204670BD0146D4
:1053B0004FF0FF30704770B504460D462946204631
:1053C00011F00AF90646304670BD2DE9F041044659
:1053D0000D461C2001F058FE2062206A18B94FF0DB
:1053E000FF30BDE8F0811C21206A2BF0FAFF266A0D
:1053F000284600F0B1FB28B91DA1304610F0DEFDB3
:10540000074604E02946304610F0D8FD07463846E6
:10541000E7E710B50446206A01F000FF002010BD48
:105420002DE9F04105460E46376A182001F02CFEA2
:1054300004461CB94FF0FF30BDE8F081182120462A
:105440002BF0CFFF2146384610F0F3FD804604F1E3
:10545000090105F111002CF016F820686860207A27
:105460002874204601F0DAFE4046E5E788D8072098
:105470002F0000002DE9F04104460E461746701C2F
:1054800007F087F9A060A06818B94FF0FF30BDE8B9
:10549000F08102220021A06807F053F90546681C3C
:1054A00001D1401EF3E7656000221146A06807F0B5
:1054B00048F9A06810B94FF0FF30E8E70020E6E7B0
:1054C0002DE9F04104460E4617463A463146A0689B
:1054D00007F019F90546681C02D1401EBDE8F081AD
:1054E000E5600020FAE72DE9F04104460E46174634
:1054F0003A463146A06807F015F90546681C02D106
:10550000401EBDE8F081E5600020FAE770B5044672
:105510000D46256000222946A06807F012F90020F8
:1055200070BD10B50446A06807F029F9002010BD31
:1055300001464FF0FF30704701464FF0FF30704793
:1055400001464FF0FF30704770B505460C462846BF
:1055500000F002FB20B9102020720020206070BDF6
:105560004FF0FF30FBE701464FF0FF307047014638
:105570004FF0FF30704702464FF0FF3070472DE983
:10558000F04104460F462F48007818B92E4840686D
:105590002E4908602D48006805682B480078294985
:1055A0000978884230DD29480068006808B305F1B1
:1055B0002C0104F111002BF066FF05F12C0007F01F
:1055C000E8F8064656B10120207402220021304638
:1055D00007F0B7F86060304607F0D1F81B48006864
:1055E00040681A49086017480078401C154908703F
:1055F0000EE01648006840681449086011480078B9
:10560000401C1049087003E0002060740D490870C8
:105610000020BDE8F08170B505460C46204600F03C
:105620009BFA08B9002070BD4FF0FF30FBE7014640
:105630000020704710B504462F2120462BF03BFF79
:1056400010BD0000ACC0072044010010A8C0072016
:105650002DE9F04104460E461746701C0DF0B1FFCF
:10566000A060A06818B94FF0FF30BDE8F0810222B9
:105670000021A0680DF0D5FE0546681C01D1401E32
:10568000F3E7656000221146A0680DF0CAFE0546EA
:10569000681C01D1401EE8E7A06810B94FF0FF3048
:1056A000E3E70020E1E72DE9F04104460E46174606
:1056B0003A463146A0680DF05AFE0546681C02D1F4
:1056C000401EBDE8F081E5600020FAE703464FF098
:1056D000FF30704770B504460D4625600022A9B220
:1056E000A0680DF09EFE002070BD014600207047AE
:1056F00001464FF0FF30704701464FF0FF307047D2
:1057000001464FF0FF30704770B505460C46002447
:105710003C4844680CE094F82C0038B1691C04F152
:105720001D002BF095FE08B9002070BDD4F805408F
:10573000002CF0D1601EF8E770B505460C46002637
:10574000284600F009FA20B91020207200202060BD
:1057500070BD31462846FFF7D7FF10B94FF0FF3034
:10576000F6E74FF0FF30F3E701464FF0FF307047A8
:1057700001464FF0FF30704702464FF0FF30704750
:1057800070B504460D462048007818B91D48406899
:105790001E4908601B4800781B49097888421BDDB8
:1057A0001A48006890F82C0080B1184801681D3133
:1057B00004F111002BF067FE012020740A206060C4
:1057C00012480068D0F80500104908600E480078BB
:1057D000401C0D49087003E0002060740A490870FD
:1057E000002070BD70B505460C46204600F0B4F9A7
:1057F00008B9002070BD4FF0FF30FBE701460020E4
:105800007047000048CE07205400001050000010E0
:10581000D749096821B9D64908600021C16004E070
:10582000D3490968C160D2490860D1490979491C46
:10583000CF4A11717047FEB50546012400BF0CE048
:10584000285D2F2806D0285D20B1295D601E0DF847
:10585000001000E003E0601CC4B20A2CF0DB00BFC3
:105860000021601E0DF800100A2C03DA00200DF84C
:10587000040001E00020FEBDBD48066807E069465F
:1058800030462BF0E5FD08B93046F4E7F668002E07
:10589000F5D10020EFE710B504462F21601C2BF056
:1058A000C6FD10BD2DE9F04704460D4617464FF0E2
:1058B00000082846FFF7BFFF06461EB94FF0FF302D
:1058C000BDE8F087294604F111002BF0DCFD2846E5
:1058D000FFF7E1FF81463A46014620467369984743
:1058E00080464046ECE770B5044604F11100FFF72E
:1058F000A2FF05462046A969884770BD2DE9F04101
:1059000004460E46174604F11100FFF794FF0546C2
:105910001DB94FF0FF30BDE8F0813A4631462046D0
:10592000EB699847F7E72DE9F04104460E46174624
:1059300004F11100FFF77FFF05461DB94FF0FF305E
:10594000BDE8F0813A46314620462B6A9847F7E792
:1059500070B5044604F11100FFF76DFF054615B957
:105960004FF0FF3070BD2046696A8847FAE770B58E
:1059700005462846FFF75FFF044614B94FF0FF3095
:1059800070BD2846FFF787FF0646A16A8847F7E7FC
:1059900070B505462846FFF74EFF044614B94FF090
:1059A000FF3070BD2846FFF776FF0646E16A88475C
:1059B000F7E770B504460E4604F11100FFF73BFF10
:1059C000054615B94FF0FF3070BD314620462A6BB1
:1059D0009047F9E72DE9F04105460E462846FFF7C6
:1059E0002AFF04461CB94FF0FF30BDE8F08128467D
:1059F000FFF751FF07463146626B9047F5E770B5F8
:105A000005462846FFF717FF044614B94FF0FF304C
:105A100070BD2846A16B8847FAE770B50546284651
:105A2000FFF709FF044614B94FF0FF3070BD284658
:105A3000E16B8847FAE72DE9F04106460C4630460F
:105A4000FFF7F9FE05461DB94FF0FF30BDE8F081C4
:105A50002046FFF720FF471C3046FFF71CFF00F1F0
:105A60000108394640462A6C9047EFE770B5044676
:105A70000E4640A130462BF0EBFC28BB3E48007898
:105A800018B93B4800683D490860394800793A49EF
:105A90000978884212DD3948016804F111002BF0C1
:105AA000F2FC1120207435480068C0683349086052
:105AB00031480078401C3049087003E000202E492E
:105AC00008706074002070BD3046FFF7B4FE0546D4
:105AD00015B94FF0FF30F6E7314620466A6C904723
:105AE000F1E72DE9F04105460E4622A130462BF0A4
:105AF000AFFC38B9314628462BF0C5FC002028629F
:105B0000BDE8F0813046FFF796FE044614B94FF029
:105B1000FF30F5E7314628462BF0B5FC3046FFF75D
:105B2000BAFE074601462846A26C9047E8E770B5E2
:105B3000054610A128462BF08BFC08B9002070BD4B
:105B40002846FFF778FE044614B94FF0FF30F6E719
:105B50002846E16C8847F2E710B504462F2120461D
:105B60002BF065FC08B9002010BD4FF0FF30FBE7BB
:105B7000580000102F0000006000001064000010AA
:105B80002DE9F04104460E461746701C08F04CFF04
:105B90000546A560E8686060A87A2074A06818B916
:105BA0004FF0FF30BDE8F0810020FBE72DE9F04128
:105BB00004460E46174649A006F0EBFD80464948CC
:105BC0000078012807D1227C4046216806F0B9FD03
:105BD0000020444908703A463146404606F093FD9D
:105BE0000546681C06D1404606F0C9FD4FF0FF305F
:105BF000BDE8F081E560404606F0C1FD0020F7E712
:105C0000034600207047024611600120354B187092
:105C10000846704701460020704701464FF0FF30AC
:105C2000704701464FF0FF30704701464FF0FF309C
:105C3000704770B505460C462846FFF78DFF20B922
:105C4000102020720020206070BD4FF0FF30FBE775
:105C500001464FF0FF30704701464FF0FF3070476C
:105C600002464FF0FF30704770B504460D461E489F
:105C7000007818B91D4800681D4908601C48006874
:105C8000B0B11B48016804F111002BF0FCFB0120AE
:105C9000207417480068C068606015480068406953
:105CA0001349086010480078401C0F49087003E051
:105CB000002060740C490870002070BD70B5054666
:105CC0000C462046FFF748FF08B9002070BD4FF092
:105CD000FF30FBE701460020704700005341564566
:105CE0005200000000C1072008C107202802001050
:105CF00004C1072000F1080141604FF0FF318160CD
:105D000000F10801C16001610021016070470021BC
:105D100001617047426853684B6043688B60536809
:105D2000996051604160086103685B1C03607047C3
:105D300010B502460B685C1C01D1106907E002F146
:105D4000080000E04068446824689C42FAD944682E
:105D50004C604C68A160886041600A611468641CF2
:105D6000146010BDD0E901329A60D0E901235A6075
:105D700001694A68824201D182684A600022026158
:105D80000A68521E0A6070472DE9F04105460E462A
:105D900075B34C2001F078F904464CB305FB06F0CE
:105DA000471C384601F070F920602068E8B120688F
:105DB00005FB060060600020A0632068A060681EEC
:105DC000216800FB0610E060E56326644FF0FF30B9
:105DD0006064A06404F11000FFF78CFF04F124005C
:105DE000FFF788FF2046BDE8F081204601F016FA53
:105DF0000020F8E710B5044601F01BF90DE0606AD9
:105E000050B104F1240000F0BFFF08B101F026F802
:105E1000A06C401EA06400E002E0A06C0028EEDC54
:105E200000BF4FF0FF30A06401F00CF901F001F960
:105E30000DE0206950B104F1100000F0A5FF08B199
:105E400001F00CF8606C401E606400E002E0606CE1
:105E50000028EEDC00BF4FF0FF30606401F0F2F884
:105E600010BD70B5044601F0E4F8A06BE16B884208
:105E700001D1012000E00020054601F0E3F82846AA
:105E800070BD70B504460E461546206C38B92068C2
:105E900038BB606801F030F80020606021E07DB917
:105EA0003146226CA0682BF083FA216CA06808446C
:105EB000A060D4E90110884213D32068A06010E0EC
:105EC0003146226CE0682BF073FA216CE068401ACE
:105ED000E0602168E068884203D2216C6068401A63
:105EE000E060A06B401CA06370BDFFB583B00446AA
:105EF0000E461D46002700BF01F09BF8A06BE16B2A
:105F0000884217D22A4631462046FFF7BAFF606A18
:105F100008B9012000E0002038B904F1240000F0A5
:105F200033FF012801D101F07FF801F08BF8012047
:105F300007B0F0BD059818B901F084F80020F7E724
:105F40001FB901A800F055FF012701F07BF800F010
:105F50003EFB01F06EF8606C401C00D16064A06CE8
:105F6000401C00D1A06401F06DF805A901A800F063
:105F700047FFC0B92046FFF774FF70B104F110006D
:105F8000059900F0D0FE2046FFF734FF00F0C3FA79
:105F90000028B1D101F048F8AEE72046FFF72AFF0C
:105FA00000F0B9FAA8E72046FFF724FF00F0B3FAA3
:105FB0000020BDE710B54C2001F066F80446D4B1CE
:105FC000002060602060A060E060A0630120E063CA
:105FD00000202064401E6064A06404F11000FFF7FC
:105FE00089FE04F12400FFF785FE00231A461946B6
:105FF0002046FFF77AFF204610BD2DE9F047044602
:10600000884616461F464FF00009FFF7A7F8A06B19
:10601000E16B884216D23A4641462046FFF731FFEF
:10602000A06C401C09D1606A50B104F1240000F05A
:10603000ABFE28B10120306002E0A06C401CA064DF
:10604000012500E00025FFF790F82846BDE8F0871D
:1060500070B5044600F0EDFFA06B08B9012000E028
:106060000020054600F0EEFF284670BD70B50446DE
:106070000D46206870B1216CE0680844E0606168FA
:10608000E068884201D32068E0602846226CE1681D
:106090002BF08EF970BD2DE9FF4182B004460F460A
:1060A0001D464FF0000800BF00F0C3FFA06B60B3B7
:1060B000E66839462046FFF7D9FFB5B9A06B401E08
:1060C000A063206810B900F0DEFE6060206908B9A6
:1060D000012000E0002090B904F1100000F054FE0F
:1060E00001280CD100F0A0FF09E0E660606A30B141
:1060F00004F1240000F048FE08B100F095FF00F024
:10610000A1FF012006B0BDE8F081049818B900F0A5
:1061100099FF0020F6E7B8F1000F04D1684600F0BF
:1061200068FE4FF0010800F08DFF00F050FA00F01B
:1061300080FF606C401C00D16064A06C401C00D1EA
:10614000A06400F07FFF04A9684600F059FE08BB78
:106150002046FFF77DFFB8B1206830B900F069FF35
:10616000606800F093FE00F06DFF04F124000499D4
:1061700000F0D9FD2046FFF73DFE00F0CCF90028E5
:1061800092D100F051FF8FE72046FFF733FE00F079
:10619000C2F989E72046FFF72DFE00F0BCF9002088
:1061A000B0E72DE9F04104460F4616464FF00008CF
:1061B000FEF7D4FFA06BC0B139462046FFF756FF6B
:1061C000A06B401EA063606C401C09D1206950B1D7
:1061D00004F1100000F0D8FD28B10120306002E089
:1061E000606C401C6064012500E00025FEF7BDFFE7
:1061F0002846BDE8F08170B5044600F01AFFA56B93
:1062000000F020FF284670BD0146886B704710B52E
:106210000446206801F002F8204600F0FFFF10BDA0
:1062200001468A6B0AB9012200E00022104670473D
:1062300001468A6BCB6B9A4201D1012200E0002219
:106240001046704710B5002407E004EB8401F84ABB
:1062500002EB8100FFF74EFD641C052CF5D3F548D9
:10626000FFF748FDF448FFF745FDF448FFF742FD0E
:10627000F348FFF73FFDF348FFF73CFDED48F249D7
:106280000860ED48F149086010BD2DE9F041044671
:106290000E4615469846069F0C22314604F13400FE
:1062A0002BF0B9F800213F200155052D00D304251E
:1062B000E5626564201DFFF72AFD04F11800FFF771
:1062C00026FD2461C5F10500A06164620020A06480
:1062D000BDE8F08170B505460E464C2000F0D4FEB6
:1062E000044694B11EB9A80000F0CEFE00E030468E
:1062F0002063206B20B9204600F090FF002404E0CA
:10630000A900A522206B2BF065F8204670BD2DE971
:10631000FF4F81B0804615469946DDE90E7A284642
:106320001099FFF7D7FF0446F4B3681E216B01EB09
:10633000800B2BF0070B00953A462046119B0299E3
:10634000FFF7A3FF4A464146584600F03FFE206053
:1063500000F06FFEBE480068401CBD49086008465A
:106360000068012804D1BB480460FFF76BFF09E017
:10637000B948006830B9B7480068C06AB84201D867
:10638000B4480460B549E06A0968884202D9B34953
:10639000E06A0860B24800682064B1480068401CA8
:1063A000AF490860AF4900E013E0E06A096888423D
:1063B00002D9AC49E06A0860E16A01EB81019C4ABC
:1063C00002EB8100211DFFF7A5FC012600F03AFE3B
:1063D00001E04FF0FF36012E0ED1BAF1000F01D0CF
:1063E000CAF800409C48006830B19A480068C06A0A
:1063F000B84201D200F018FE304605B0BDE8F08F7B
:1064000070B5044600F015FE92492068096888427C
:1064100001D100202060206810B98E48006800E09B
:1064200020680546281DFFF79DFCA86A18B105F1F4
:106430001800FFF797FC291D8148FFF76BFC8A487D
:106440000068401C8849086085480068401C8449F1
:10645000086000F0F7FD8048006818B1206808B9AE
:1064600000F0E2FD70BD10B580480068F0BB8048C8
:106470000068401C7E4908600846006868B9724997
:10648000086872490968704A116070490860794962
:106490000968491C774A116000BF1FE074496068B1
:1064A0000968884200D927E0201DFFF75BFCA06A3D
:1064B00018B104F11800FFF755FC6A49E06A096851
:1064C000884202D96749E06A0860E16A01EB81010C
:1064D000574A02EB8100211DFFF71CFC5A48006857
:1064E000006830B158480068C06800E006E0C06845
:1064F00000E000200400D1D100BF06E05E48006843
:10650000401C5D49086025F0FDF85B48006808B94B
:1065100025F0F8F810BD70B5002500F08AFD53484D
:106520000068401E514908600846006888BB48481A
:10653000006870B300261EE004F11800FFF712FC9B
:10654000201DFFF70FFC4749E06A0968884202D91D
:106550004449E06A0860E16A01EB8101344A02EBD8
:106560008100211DFFF7D6FB3A49E06A0968C96A34
:10657000884200D301263148006818B12F48C0680E
:10658000C06800E000200400D6D13B48006868B134
:1065900007E018E0FFF767FF37480068401E3649FC
:1065A0000860354800680028F4D10126012E03D088
:1065B00032480068012805D1012500202F490860D4
:1065C00000F032FD00BF00F03DFD284670BD2748B9
:1065D0000068401C25490860704770B504460026D5
:1065E00014B3FFF7F4FF2248006805191948006842
:1065F000001DFFF7B7FB1748006845601C4800689E
:10660000854207D213480168091D10480068FFF74A
:106610008FFB06E00F480168091D0B480068FFF773
:1066200087FBFFF778FF06460EB900F0FDFC70BD52
:10663000C0E8072024E9072038E907204CE90720B3
:1066400060E9072074E90720A4000010A8000010EA
:10665000700000106800001080000010780000102A
:10666000940000107C0000106C00001084000010EA
:106670007400001090000010880000108C000010C2
:1066800070B5044600F0D5FC14B9FD48006800E080
:1066900020460646F56A00F0D5FC284670BD2DE977
:1066A000F04106460D464FF00008052D00D30425A5
:1066B00000F0BFFCF2480068864200D1002616B9FF
:1066C000EF48006800E030460446676CAF4232D0C5
:1066D000BD4203D92EB14FF0010802E00EB94FF0D0
:1066E0000108E16A606C884200D1E5626564C5F129
:1066F0000500A06107EB8701E24A02EB81016069B6
:10670000884213D1201DFFF72DFBDF49E06A09689D
:10671000884202D9DC49E06A0860E16A01EB810144
:10672000D84A02EB8100211DFFF7F4FAB8F1010FFE
:1067300001D100F079FC00F085FCBDE8F08170B576
:10674000044600F076FCCE480068844200D1002464
:1067500014B9CB48006800E020460546281DFFF725
:1067600001FBA86A18B105F11800FFF7FBFA291D13
:10677000C648FFF7CFFA00F065FC0CB900F054FCF6
:1067800070BD10B5014600200A46C04C5369A342B3
:1067900001D1012300E0002383B1BD4C936AA342E1
:1067A00001D1012300E00023012B07D0936A0BB92C
:1067B000012300E00023012B00D1012010BD70B5A2
:1067C00005462C4644B3AE480068844224D000F00D
:1067D00030FC2046FFF7D5FF01281BD1201DFFF715
:1067E000C1FAA949E06A0968884202D9A649E06A63
:1067F0000860E16A01EB8101A24A02EB8100211DE0
:10680000FFF788FA9E49E06A0968C96A884201D39D
:1068100000F00AFC00F016FC70BD70B505460026BD
:106820002C462046FFF7ADFF012826D19948006885
:10683000F0B99349E06A0968C96A884201D3012026
:1068400000E000200646201DFFF78CFA8E49E06A22
:106850000968884202D98C49E06A0860E16A01EB64
:106860008101884A02EB8100211DFFF753FA04E001
:1068700004F118018648FFF74DFA304670BD10B597
:106880000446206B00F0CAFC204600F0C7FC10BD97
:1068900070B58148006848B3FFF799FE7F480068EB
:1068A00008B9012000E000200546FFF734FEEDB9ED
:1068B00000F0BFFB7948006818B17848C068C0682C
:1068C00000E000200446201DFFF74CFA74480068E1
:1068D000401E7349086070480068401E6E49086099
:1068E00000F0B0FB2046FFF7CAFF00BF70BD00BF3D
:1068F00001F09BFFFFF7CCFF624800680128F7D941
:1069000000F092FBF4E71FB500230093019302937C
:10691000202264A165480393FFF7F9FC0446012C8B
:106920000BD1FEF71BFC0120614908600020614982
:10693000086006F036F800F05DFB1FBD10B5FEF7ED
:106940000DFC00205A49086000F06DFB10BD10B529
:1069500000F06FFB5748046800F074FB204610BD40
:106960004F48006870470146002002E0491C421C65
:1069700090B20A78A52AF9D0800870472DE9FE4325
:1069800080460C461646204641684968416000F141
:10699000080142688A4202D1416849684160416801
:1069A000CF6800BF204641684968416000F1080196
:1069B00042688A4202D14168496841604168CD68B5
:1069C000286BFFF7D0FF81462B6CE96ACDE9019374
:1069D0000091334605F1340237A13C482BF054FFB7
:1069E0003A4940462AF009FDBD42DBD1BDE8FE83AD
:1069F00070B50546FFF7EBFD0020287034A128464E
:106A00002AF0FBFC33480068441C00BF641E04EB02
:106A100084001C4951F8200040B104EB84000A4670
:106A200002EB800152222846FFF7A8FF002CEDD18F
:106A300029480068006828B1422227480168284692
:106A4000FFF79CFF25480068006828B142222348D0
:106A500001682846FFF792FF1048006820B14422E1
:106A60000E492846FFF78AFF0848006820B15322E4
:106A700006492846FFF782FFFFF74DFD70BD000075
:106A800068000010C0E807207C00001074E90720AF
:106A90004CE90720840000106C00001060E907201A
:106AA0007000001049444C4500000000EF680000F1
:106AB0008000001074000010257309092563092562
:106AC000750925750925750D0A000000BAE907202A
:106AD0000D0A000078000010A4000010A8000010AB
:106AE0002DE9F84381460C46164620464168496820
:106AF000416000F1080142688A4202D14168496858
:106B000041604168D1F80C8000BF20464168496867
:106B1000416000F1080142688A4202D14168496837
:106B200041604168CD6816B3A86C30B905F13402F4
:106B3000FBA1FF482BF0A8FE15E0A86C6421484398
:106B4000B0FBF6F747B10097AB6C05F13402F9A141
:106B5000F7482BF099FE06E0AB6C05F13402F9A181
:106B6000F3482BF091FEF24948462AF046FC454591
:106B7000CBD1BDE8F88370B5054605F047FF064662
:106B8000FFF725FD00202870EDA128462AF035FCEE
:106B9000F0480068441C00BF641E04EB8400EE490A
:106BA00051F8200040B104EB84000A4602EB80015A
:106BB00032462846FFF794FF002CEDD1E7480068E5
:106BC000006828B13246E54801682846FFF788FF8B
:106BD000E3480068006828B13246E1480168284669
:106BE000FFF77EFFDF48006820B13246DD492846C6
:106BF000FFF776FFDC48006820B13246DA492846C4
:106C0000FFF76EFFFFF787FC70BD70B504460D46B9
:106C100000F00FFAD5480460D5480460A5F10800DB
:106C20002044D44908600120D349086000F00AFAE2
:106C300070BD10B500F0FDF90020CF49086000F0EC
:106C400001FACA480068CA490968441A204610BDBA
:106C500010B5CA48006818B10120C949086010BDC4
:106C600005F0D4FE0446C749096801F14800896C63
:106C7000C54A1268A21A11440160C348046004E0C6
:106C8000C2480068401EC1490860C048006800EB67
:106C90008000B14951F820000028F1D0BB490968B3
:106CA00001EB8101AC4A02EB810041684968416017
:106CB00000F1080142688A4202D141684968416096
:106CC0004168C968AF4A1160AB48006828B31046F4
:106CD0000068006CAE490968884222D0A348006869
:106CE0000830A4490968884218D210460068006C30
:106CF000A7490860A74800689C49096808609B4844
:106D00000068001D99490860A1480068096808608A
:106D100096480068001D9549086002E000209649E9
:106D2000086000BF9BE770B506460C4695480168B1
:106D300018313046FEF7FCFF92480068001DFFF74F
:106D400011F8601C06D18F480168091D8648FEF7BE
:106D5000E1FF18E08F48006805198A48006845601F
:106D60008C480068854207D286480168091D7C4826
:106D70000068FEF7DDFF06E082480168091D7748DC
:106D80000068FEF7D5FF70BD70B50546286810B1E4
:106D9000E868C06800E00020044604F11800FEF72F
:106DA000E1FF76480068A0B9201DFEF7DBFF7749B8
:106DB000E06A0968884202D97449E06A0860E16AB9
:106DC00001EB8101644A02EB8100211DFEF7A2FF65
:106DD00004E004F118017048FEF79CFF6949E06A7D
:106DE0000968C96A884201D3012600E000263046BE
:106DF00070BD6A4909680160664909684160704769
:106E000070B504460D4600F014F92868401C01D105
:106E100000261FE0614920680968884206D05D4964
:106E200060680968884201D8012613E05949606802
:106E30000968081A296888420BD22868554A61688F
:106E40001268511A401A28602046FFF7D2FF002628
:106E500000E0012600F0F6F8304670BD01204849F8
:106E6000086070472DE9F041044614B945480068B0
:106E700000E0204607463D6B2846FFF774FD0646B6
:106E80003046BDE8F0813F490868704770B5054657
:106E90002C463C49E06A0968C96A88422BD23948C5
:106EA0000068C06AC0F10500A061E16A01EB8101E0
:106EB000294A02EB81016069884218D1201DFEF742
:106EC00051FF30480068C06AE0623049E06A0968F2
:106ED000884202D92D49E06A0860E16A01EB81012C
:106EE0001D4A02EB8100211DFEF714FF03E0254837
:106EF0000068C06AE06270BD70B505462C4675B189
:106F0000616CE06A88425BD0201DFEF72BFF606C4D
:106F1000E062E06AC0F10500A0611C4940E04FE07A
:106F2000257309093009093025250D0A00000000E4
:106F300088E907202573090925750909257525257F
:106F40000D0A000025730909257509093C3125251D
:106F50000D0A000078000010C0E80720A40000100F
:106F6000A800001060E9072074E90720AC000010B9
:106F7000B0000010B40000109C000010840000104D
:106F80008C00001068000010980000107C000010B9
:106F9000A0000010740000104CE9072090000010C1
:106FA000E06A0968884202D90649E06A0860E16A35
:106FB00001EB8101044A02EB8100211DFEF7AAFECC
:106FC00070BD00007C000010C0E80720001F4FF0DB
:106FD00080730360001F0160001F002303601438EA
:106FE00002602038704724484FF0E02148610720B4
:106FF0000861704710B52148006840F478004FF0F0
:10700000E021C1F8200D0846D0F8200D40F078406E
:10701000C1F8200DFFF7E7FF002019490860FEF7CF
:1070200077F8002010BD70474FF080501549086078
:10703000704710B5FEF792F811480068401C1049DF
:10704000086010BD10B50E480068401E0C4908606D
:107050000846006808B9FEF788F810BD10B54FF073
:107060008050084908604FF00004FEF777F8FFF7FA
:10707000FAF9FEF77AF810BD9F86010020ED00E0D6
:10708000B800001004ED00E02DE9F04104464FF097
:107090000008FFF79CFA7D48006898B97C497D4A52
:1070A00011600021516047F230517B4A516000214C
:1070B0001160774847F2305141601146016001206C
:1070C0007249086044B1103414F0070F04D004F082
:1070D0000700C0F1080004448CB347F230508442EA
:1070E0002DD26C4F3846056801E02F462D68686840
:1070F000A04202D228680028F7D1674885421ED0F6
:10710000386800F11008286838606868001B20287B
:1071100010D92E196868001B70606C6071685D483A
:1071200000E00068026852688A42FAD3026832605E
:10713000066000BF59480068001B58490860FFF707
:10714000EAF94046BDE8F081F0B5002551480168F4
:107150000A680B4604464EE0486845183EE09542F2
:1071600035D148685668B0420ED2486856683044F7
:1071700048600868904202D1106820601AE00868F0
:1071800020601068186015E048685668B0420ED953
:1071900048685668304448601068884202D10868E0
:1071A000186007E0086820601068186002E04FF07F
:1071B000FF30F0BD4E68374800E0006807687F6820
:1071C000B742FAD307680F6001600120F1E7134668
:1071D0001868904201D100BFFEE71A6810680028C5
:1071E000BDD10C462068884201D100BFFEE721686E
:1071F00028480268034608680028ADD100BFD8E7D8
:1072000010B50024FFF715FF00BFFFF79DFF0446F0
:107210000CB1601CF9D1FFF715FF10BD70B5064623
:10722000FFF7D5F93546A6B1103D2C4661681948DF
:1072300000E00068026852688A42FAD3026822605D
:107240000460164960680968084414490860FFF73B
:10725000D7FFFFF760F970BD1048006870477047AE
:1072600010B502460B48002313800B8000BF148822
:107270004368A34201D9436813800B8844682344C0
:107280000B8000680368002BF1D110BDC400001012
:1072900090040010C8000010D0000010BC000010C6
:1072A0001FB509F0CBFB00210120FEF76DFD2A4937
:1072B00008600846006830B100231A46194626487F
:1072C0000068FEF712FE0023244902208DE80B001F
:1072D000C02223A124480393FFF719F8FFF713FBFB
:1072E000002004B010BD2DE9F84307460024A04655
:1072F00000263D461EE0285D2E2819D10020285585
:1073000005EB08002AF0E3F9C0B20DF80600701C86
:10731000C6B2601C00F0FF08032E09D105EB08007F
:107320002AF0D5F9C0B20DF806000098BDE8F88340
:10733000601CC4B2285D0028DDD1401EF6E770B5A0
:10734000054628462AF0C3F984B2261246EA0420EC
:1073500084B2204670BD0000D8000010DC00001090
:1073600055534552000000000388000010B5044644
:10737000092C42D2DFE804F041050E1720292F35F1
:107380003B00012020490870002211461FA000F098
:1073900048FF32E001201C4908700022114621A05C
:1073A00000F03FFF29E00120174908700022114634
:1073B00022A000F036FF20E00120134908700022CF
:1073C000114624A000F02DFF17E00022114627A04F
:1073D00000F027FF11E00022114629A000F021FF54
:1073E0000BE0002211462BA000F01BFF05E000225D
:1073F00011462EA000F015FF00BF00BF4FF4002182
:10740000012007F021FC10BDE2000010C4E0F2F7FB
:10741000E8EAE83A20EEF8E8E1EAE020EFE0ECFF05
:10742000F2E80000D1EEE1FBF2E8FF3A20EEF8E8E6
:10743000E1EAE020EFE0ECFFF2E80000C4E0F2F760
:10744000E8EAE83A20EEF8E8E1EAE020F4E0E9EBE7
:10745000E0000000D1EEE1FBF2E8FF3A20EEF8E8B0
:10746000E1EAE020F4E0E9EBE00000004641543AB4
:1074700020EEF8E8E1EAE020F4E0E9EBE0000000CB
:107480004641543A20EEF8E8E1EAE020EFE0ECFF74
:10749000F2E80000D2E0E9ECE5F03A20EEF8E8E1AD
:1074A000EAE020F4E0E9EBE0000000004155544F31
:1074B00047524150483A2066696C65206572726F88
:1074C00072000000F7480078704710B50446082C99
:1074D0002DD2DFE804F004050E0F1819222300BF97
:1074E000012026F0A4FB4FF08061032007F0B6FBDB
:1074F0001DE000BF022026F09AFB4FF00071032030
:1075000007F0ACFB13E000BF032026F090FB4FF028
:107510008051012007F0A2FB09E000BF042026F003
:1075200086FB4FF00051012007F098FB00BF00BF21
:1075300010BD10B5044634B1012C08D0022C0AD07D
:10754000032C10D10BE0012026F071FB0BE0022090
:1075500026F06DFB07E0032026F069FB03E0042022
:1075600026F065FB00BF00BF10BD2DE9F04788B0D5
:1075700001E19DF818006F287AD01CDC67283BD009
:1075800010DC14286AD006DC0D2868D00E2867D0DD
:10759000122822D1D2E0642819D065281ED066288E
:1075A0001BD122E06838072817D2DFE800F02C331F
:1075B0003A41484F5A0070380E280ED2DFE800F0EA
:1075C0005F666D747B828990979EA5ACB3B7B64811
:1075D000006840F00100B4490860CBE0B2480068A0
:1075E00040F00200B0490860C4E0AF48006840F0D5
:1075F0000400AD490860BDE0AB48006840F00800F9
:10760000A9490860B6E0A848006840F01000A64903
:107610000860AFE0A448006840F02000A24908607C
:10762000A8E0A148006840F040009F490860A1E040
:107630009D48006840F080009B4908609AE09A48A5
:10764000006820F001009849086093E096480068BF
:1076500020F00200944908608CE009E06BE070E0E3
:107660007AE09148006820F004008F49086081E0CA
:107670008D48006820F008008B4908607AE08A484D
:10768000006820F010008849086073E086480068B0
:1076900020F02000844908606CE08348006820F0F6
:1076A00040008149086065E07F48006820F0800064
:1076B0007D4908605EE07D48007840F001007B492C
:1076C000087057E07948007840F002007749087068
:1076D00050E07648007840F004007449087049E0B2
:1076E0007248007840F008007049087042E06F4826
:1076F000007820F001006D4908703BE06B4800788D
:1077000020F002006949087034E06848007820F0F1
:107710000400664908702DE06448007820F00800F5
:107720006249087026E001206149087022E00020CB
:107730005F4908701EE013F0BCFD1BE025F08AFFD6
:1077400018E001F0BDF95B480078022803D10799E1
:10775000C8B226F00DFA0DE05748007880F0FF001F
:107760005549087053480078022802D1002025F0BE
:107770004CFF00BF00BF00231A4606A94F4800680F
:10778000FEF789FC00287FF4F4AE4A48007810B177
:107790004B48007810B108B0BDE8F08749A004F06C
:1077A000F8FF814600221146484604F09DFF012261
:1077B00004A9484604F07AFF8046484604F0DFFFFB
:1077C000B8F1000F02D100200490059004980290B7
:1077D000059803903648007801280FD13148007889
:1077E00060B93121394829F0FCFD39A137482BF027
:1077F0004BF800221146354800F013FD2C48007864
:1078000028490870002637E00120B0402749097850
:107810000840002823DD0120B040314909780842A2
:1078200029D10121B140C8B226F03DFAF0B2FFF7EC
:1078300080FE0120B0402B4909780843294908708F
:107840003121224829F0CDFD721C27A11F482BF0C1
:107850001BF8002211461D4800F0E3FC0BE001205C
:10786000B0401F4909780840002804DD0121B140DB
:10787000C8B226F01EFA761C042EC5DB0B48007831
:1078800017490870002678E00120B04014490978B3
:10789000084271D096B3012E40D0022E4DD0032E57
:1078A00069D159E017C3072018C307201CC307205C
:1078B0001DC307203101001014C307201803001056
:1078C000E20000105341564552000000C0790010FC
:1078D000C4E2E5F0FC20EEF2EAF0FBF2E00000008A
:1078E00015C3072016C30720D2F0F3E1E02025647A
:1078F0003A20EDE5F220F1E2FFE7E800FFE7FF487C
:10790000006820F00300FD490860049820F003009F
:107910000490059840F0030005902CE0F7480068BB
:1079200020F00C00F5490860049820F00C00049049
:10793000059840F00C0005901DE0F048006820F02C
:107940003000EE490860049820F03000049005985B
:1079500040F0300005900EE0E848006820F0C000DC
:10796000E6490860049820F0C0000490059840F0B3
:10797000C000059000BF00BF761C042E84DBDF48EA
:10798000006810F0020F03D0022026F080F902E018
:10799000022026F082F9D948006810F0080F03D0C1
:1079A000082026F074F902E0082026F076F9D34882
:1079B000006810F0200F03D0202026F068F902E0C4
:1079C000202026F06AF9CD48006810F0800F03D01F
:1079D000802026F05CF902E0802026F05EF9002687
:1079E000D1E00120B040C5490968084272D00121A8
:1079F000B140059808426ED10121B140C8B226F0CD
:107A00003AF9F0B2FFF761FD0121B1400498084254
:107A100075D13121BA4829F0E4FC082E2DD2DFE8D7
:107A200006F004090E13181D2227B6A00BF0C9FD9D
:107A3000074622E0B4A00BF0C4FD07461DE0B3A04A
:107A40000BF0BFFD074618E0B1A00BF0BAFD0746EA
:107A500013E0B0A00BF0B5FD07460EE0AEA00BF0B2
:107A6000B0FD074609E0ADA00BF0ABFD074604E012
:107A7000ABA00BF0A6FD074600BF00BF27B9A9A128
:107A80009F482AF001FF6CE0082E2FD2DFE806F0B5
:107A900004090E13181D2429A8A199482AF0F4FE00
:107AA00024E0ACA196482AF0EFFE1FE0AEA1944876
:107AB0002AF0EAFE1AE0B2A191482AF0E5FE15E0AC
:107AC000B4A18F482AF0E0FE10E0B8A18C482AF05B
:107AD000DBFE0BE051E055E0B9A189482AF0D4FE65
:107AE00004E0BDA186482AF0CFFE00BF00BF0122FE
:107AF00001A938460BF016FC082E31D200E036E022
:107B0000DFE806F00419051A061B071C00BF00BFBA
:107B100000BF019829F078FF04460D46784829F007
:107B20008FFC774900EB010A22462B46AFA1504655
:107B30002AF0AAFE14E000BF00BF00BF019829F0A0
:107B400063FF04460D466E4829F07AFC6C4900EB51
:107B5000010A22462B46A8A150462AF095FE00BFF6
:107B600000BF00221146664800F05BFB00BF012108
:107B7000B14004980843049004E00121B140059805
:107B800088430590761C082EFFF62BAF04990298C7
:107B9000884203D105990398884211D0AFF2DC20C6
:107BA00004F0F7FD814600221146484604F09CFD92
:107BB000012204A9484604F088FD484604F0DFFD90
:107BC00000BFE8E52DE9FC410546AFF2083004F0BE
:107BD000E0FD074600221146384604F085FD0122EB
:107BE0006946384604F062FD064616B9002000904A
:107BF0000190012D06D0022D26D0032D46D0042D54
:107C000021D165E0009820F001000090009820F05C
:107C100002000090019840F001000190019840F0AE
:107C200002000190012026F02CF8022026F029F80D
:107C30004FF08061032007F007F87248007820F0C9
:107C4000010070490870EDE0009820F004000090F9
:107C5000009820F008000090019840F00400019086
:107C6000019840F008000190042026F00AF808204E
:107C700026F007F84FF00071032006F0E5FF614899
:107C8000007820F002005F490870CBE0009820F0F7
:107C900010000090009820F020000090019840F023
:107CA00010000190019840F020000190102025F074
:107CB000E8FF202025F0E5FF4FF08051012006F07D
:107CC000C3FF5048007820F004004E490870A9E036
:107CD000009820F040000090009820F08000009074
:107CE000019840F040000190019840F08000019020
:107CF000402025F0C6FF802086E0000018C3072042
:107D0000C07900105330000053310000533200009E
:107D10005333000053340000533500005336000045
:107D200053370000D1EEE1FBF2E8FF3A20EDE5F237
:107D300020E4E0F2F7E8EAE000000000D2F0F3E12E
:107D4000E020312C20E8E7EEEBFFF6E8FF0D523D96
:107D500000000000D2F0F3E1E020312C20F1E8E354
:107D6000EDE0EB0D523D0000D2F0F3E1E020322CCB
:107D700020E8E7EEEBFFF6E8FF0D523D00000000C3
:107D8000D2F0F3E1E020322C20F1E8E3EDE0EB0D5E
:107D9000523D0000D2F0F3E1E020332C20E8E7EE82
:107DA000EBFFF6E8FF0D523D00000000D2F0F3E1DA
:107DB000E020332C20F1E8E3EDE0EB0D523D000034
:107DC000D2F0F3E1E020342C20E8E7EEEBFFF6E818
:107DD000FF0D523D00000000D2F0F3E1E020342C12
:107DE00020F1E8E3EDE0EB0D523D000025302E31AF
:107DF0006620EACEEC00000025302E316620CEEC65
:107E00000000000016C3072025F03BFF4FF0005193
:107E1000012006F019FF7148007820F008006F4932
:107E2000087000BF00BF00221146384604F05CFC19
:107E300001226946384604F048FC384604F09FFCAD
:107E4000002410E00120A04064490978084000287F
:107E500008DD0121A140C8B225F025FFE0B2FFF7FF
:107E600068FB02E0641C042CECDB00BF00240DE086
:107E70000120A0400099014207D0E0B2FFF725FBA6
:107E80000121A140C8B225F0F6FE641C082CEFDBEE
:107E9000BDE8FC8124F025FB00BF51480078012893
:107EA00007D125F022FC01204E49087002204C49E0
:107EB00008704C48007801280BD10220494908700D
:107EC0004748007810B90020FFF77CFE012025F01C
:107ED0009CFBFFF74AFB3220FEF77FFBDDE710B586
:107EE00008211E20FDF750FF3F4908603F480BF076
:107EF000EBFD3F480BF0E8FD3E480BF0E5FD3E484A
:107F00000BF0E2FD3D480BF0DFFD3D480BF0DCFDE2
:107F10003C480BF0D9FD3C480BF0D6FD3B480BF03C
:107F2000D3FD3B480BF0D0FD3A480BF0CDFD3A486D
:107F30000BF0CAFD39480BF0C7FD39480BF0C4FD02
:107F400038480BF0C1FD38480BF0BEFD37480BF048
:107F5000BBFD37480BF0B8FD36480BF0B5FD364891
:107F60000BF0B2FD35480BF0AFFD35480BF0ACFD22
:107F700034480BF0A9FD34480BF0A6FD33480BF054
:107F8000A3FD33480BF0A0FD4FF08061032006F005
:107F90005BFE4FF00071032006F056FE4FF080515B
:107FA000012006F051FE4FF00051012006F04CFE7A
:107FB00001229106032006F033FE01225106032020
:107FC00006F02EFE01221107104606F029FE0122BE
:107FD0005107104606F024FE10BD000016C307200E
:107FE000E200001031010010180300100CC107203E
:107FF00020C1072034C1072048C107205CC10720E9
:1080000070C1072084C1072098C10720ACC1072098
:10801000C0C10720D4C10720E8C10720FCC1072048
:1080200010C2072024C2072038C207204CC20720F4
:1080300060C2072074C2072088C207209CC20720A4
:10804000B0C20720C4C20720D8C20720ECC2072054
:1080500000C3072070B509F073FFB8B1FFA00AF0A4
:1080600007FA401C00D170BDFEA1FCA009F0E0FFA2
:10807000054605B9F7E7284629F029FB0446FF2CF9
:1080800001DC002C00DAEEE7F9490C7000BFEAE7EA
:108090002DE9F041002707E0F648F74941F837009D
:1080A00001EBC70148607F1C042FF5DB09F048FF96
:1080B000F0B3F2A00AF0DCF9401C0DD0F0A1EFA063
:1080C00009F0B6FF06463EB130462BF064F8044690
:1080D00029F0D8FCE8490860EAA00AF0C9F9401C78
:1080E0000DD0E7A1E7A009F0A3FF06463EB1304658
:1080F0002BF051F8044629F0C5FCDF494860E2A0A6
:108100000AF0B6F9401C0DD0DDA1DFA009F090FF08
:1081100006463EB130462BF03EF8044629F0B2FC4C
:10812000D5498860D9A00AF0A3F9401C0FD000E01F
:1081300059E0D3A1D5A009F07BFF06463EB13046F9
:108140002BF029F8044629F09DFCCB49C860D0A04B
:108150000AF08EF9401C0DD0C9A1CDA009F068FF2E
:1081600006463EB130462BF016F8044629F08AFC4C
:10817000C1490861C7A00AF07BF9401C0DD0C0A11D
:10818000C4A009F055FF06463EB130462BF003F877
:10819000044629F077FCB8494861BFA00AF068F9A5
:1081A000401C0DD0B6A1BCA009F042FF06463EB16E
:1081B00030462AF0F0FF044629F064FCAE4988619D
:1081C000B6A00AF055F9401C0DD0ADA1B3A009F03E
:1081D0002FFF06463EB130462AF0DDFF044629F067
:1081E00051FCA549C861BDE8F081024619B9A24811
:1081F00050F832007047A04800EBC2004068F9E731
:1082000010B5A748FDF704FBA648FDF701FBA648FB
:10821000FDF7FEFAA548FDF7FBFAA5A0FDF7EFFB79
:1082200010BD70B504460D46164632462946204616
:1082300026F069FB70BD08B50025002000909F481E
:1082400023F0B2FF06F073FC00BF15B1012D2ED153
:108250000FE09BA004F09DFA06460022D021304694
:1082600004F07EFA18B1304604F089FA00E00125E6
:108270001DE00022D021304604F072FA20B13046D1
:1082800004F07DFA002512E06A4663218B4824F051
:1082900017F804469DF8000040B163239DF80020C4
:1082A000611C864823F041FF0020009000BFCCE70E
:1082B0003EB50446854823F067FF00BF00235A1EE1
:1082C000694683480068FDF7E6FE00B93EBD9DF8AB
:1082D0000000032804D100F0E3FC04F086FF00E076
:1082E00000BFEBE70020FEF72AFA7AA004F051FA6B
:1082F00000BFFEE71FB501229105104606F090FC75
:108300000122D104104606F08BFC0122202102201C
:1083100006F086FC4FF40021012006F09FFC20218E
:10832000022006F09BFC04F04DF90AF0E5FD0AF08E
:10833000EFFF6AA009F017FE0BF05EF90AF0BFF834
:108340006BA009F010FEFFF7CAFDFFF7A1FE0BF0CE
:108350002FFD0AF0B4F86BA009F005FE23F0E6FA51
:1083600000F0D5FC00F0B8FCFFF774FE26F0F1FC3D
:1083700023F0D0F926F020FC00F0F2FB00F084FCA2
:1083800028F05EFD12F0C9FF28F04EFF05F048FC12
:108390000AF095F80023604901208DE80B00902237
:1083A0005EA160480393FDF7B2FF5B48006838B9EF
:1083B000002211465CA0FFF734FF60A0FCF7EEFE40
:1083C000012300930023C02261A1624810F05CFDEC
:1083D000614908600846006838B9002211465FA06C
:1083E000FFF71FFF61A0FCF7D9FE012300930023D4
:1083F000802262A1634810F04DFF6349086008467F
:10840000006838B90022114660A0FFF70AFF64A097
:10841000FCF7C4FE0023674901208DE80B00C02251
:1084200065A167480393FDF772FF6248006838B999
:108430000022114663A0FFF7F4FE67A0FCF7AEFE32
:1084400000236A4901208DE80B00C02268A16A4818
:108450000393FDF75CFF65480068CFE04449535043
:108460004C415900436F6E747261737400000000D8
:10847000E1000010000080BF1CEB0720300000006E
:10848000565F32003100000032000000330000006F
:108490003400000035000000360000003700000006
:1084A00058C007200000001008C00720B0C00720F7
:1084B0002F6174343564622F000000003CEB07200C
:1084C0005443505F524544495200000034D00720C5
:1084D0002C01001053535030000000002F61743401
:1084E0003564622F53454E534F52532E696E6900C7
:1084F0002F6174343564622F4556454E54532E69AE
:108500006E6900002F6174343564622F4445564310
:108510004F4E2E696E690000800400104D4F444597
:108520004D0000007B0C03004D4F44454D5F54410E
:10853000534B204552524F52000000004D4F4445CE
:108540004D5F5441534B204552524F520A00000098
:1085500046545000758E010004010010CEF8E8E189
:10856000EAE020465450207461736B004654505F1B
:108570005441534B204552524F520A0048545450D4
:10858000000000003992010008010010CEF8E8E177
:10859000EAE02048545450207461736B00000000DE
:1085A000485454505F5441534B204552524F520A45
:1085B000000000000C01001054656C6E6574000032
:1085C0006BAB0100CEF8E8E1EAE02054656C6E6523
:1085D00074207461736B000054656C6E65745F5435
:1085E00041534B204552524F520A000010010010D7
:1085F0004576656E74000000957E000038B9002253
:108600001146CCA0FFF70DFECFA0FCF7C7FD00235D
:10861000D24904208DE80B004022D1A1AFF23B30BB
:108620000393FDF774FECD48006838B90022114667
:10863000CCA0FFF7F6FDD0A0FCF7B0FD0023D24997
:1086400001208DE80B008022D0A1AFF29B30039374
:10865000FDF75DFECC48006840B900221146CCA071
:10866000FFF7DFFDCEA0FCF799FD05E00C213220DD
:10867000FDF78AFBCE49086000F061FB012816D1A6
:108680000023CC498DE80B008022CBA1AFF25940EA
:108690000393FDF73CFEAFF26140F0B900221146B2
:1086A000C6A0FFF7BEFDB4A0FCF778FD15E00023DF
:1086B000C64901208DE80B008022C5A1C54803935F
:1086C000FDF725FEA548006838B900221146C2A072
:1086D000FFF7A7FDA8A0FCF761FD1FBD4FF47A606E
:1086E000FDF77BFFFEF7A5FC00BFFEE73EB50023CC
:1086F0005A1E6946BD480068FDF7CDFC00B93EBD75
:108700009DF800000F2819D006DC012819D009288F
:1087100025D00C2829D125E0102802D0132824D1F7
:108720001FE0B3A004F035F804460022C82120461B
:1087300004F016F8204604F022F817E004F04BFF8E
:1087400014E00BF052F90BF060FAAC48007828B155
:10875000AB48007810B90120AA49086006E0FFF78D
:10876000BDFF03E0FCF708FD00E000BF00BF00BF55
:10877000C5E710B5A448007810F0080F0BD0002210
:108780001146A2A0FFF74DFD9F48007840F0080079
:10879000A74981F880019C48007810F0040F0BD0A5
:1087A00000221146A3A0FFF73CFD9748007840F057
:1087B00004009F4981F880019348007810F0020F6F
:1087C0000BD000221146A4A0FFF72BFD8E480078A5
:1087D00040F00200964981F8800100220821022021
:1087E00006F01EFA022006F043FA10F0080F07D038
:1087F0000020A449087000221146A3A0FFF711FD34
:1088000010BD0C213220FDF7BFFA784908600846F8
:108810000068A3490860FFF76DFD04F0DCFEFFF778
:10882000A8FF00BFFFF762FFFCE710B522F086FF4C
:1088300010BDFEB504460D4617461E468DF8004095
:108840000195ADF808700023324669466748006814
:10885000FDF74BFBFEBD10B59248006840B14FF4E8
:108860008001012006F0F0F900208E49086007E041
:108870004FF48001012006F0F1F9012089490860D8
:1088800010BD10B5022006F0F3F910F0080F0CD05F
:108890007C480078012808D100207A49087000221D
:1088A000114679A0FFF7BDFC10E0022006F0E0F9C8
:1088B00010F0080F0AD17348007838B901207149C7
:1088C00008700022114678A0FFF7ABFC10BD10B570
:1088D0004FF4FA107949886002217848C1600A2172
:1088E0000174012141740021416181614FF4FB1148
:1088F000C16104210162402180F82410002180F828
:1089000025108162C1624FF4FD11016302214163B0
:108910000A2180F83810012180F839100021C16344
:108920000164002403E0E0B206F009F8641C032CA3
:10893000F9DB10BD4576656E745F5441534B20459D
:1089400052524F52000000004576656E745F5441EC
:10895000534B204552524F520A0000002401001090
:10896000424F440045544832434F4D5F5441534BAE
:10897000204552524F520000424F445F5441534BE6
:10898000204552524F520A001C0100104D42530024
:10899000CEF8E8E1EAE0204D4253207461736B00A9
:1089A0004D42535F5441534B204552524F520A009F
:1089B0002C010010200100104D424300CEF8E8E1E8
:1089C000EAE0204D4243207461736B0018010010EF
:1089D0004D4200003BBD0200CEF8E8E1EAE0204D48
:1089E00042544350207461736B0000002801001052
:1089F00044495343524554450000000031010010E2
:108A0000E2000010E800001080C10F40D3F1F2F046
:108A1000EEE9F1F2E2EE20E2EAEBFEF7E5EDEE0D33
:108A2000EFEEF1EBE520504F574552204F46460000
:108A300000C00F40D3F1F2F0EEE9F1F2E2EE20E2F5
:108A4000EAEBFEF7E5EDEE0DEFEEF1EBE520574436
:108A50005420524553455400D3F1F2F0EEE9F1F2BF
:108A6000E2EE20E2EAEBFEF7E5EDEE0DEFEEF1EBE4
:108A7000E52045585445524E414C205245534554EB
:108A800000000000E000001053494D2DEAE0F0F234
:108A9000E020EEF2F1F3F2F1F2E2F3E5F200000091
:108AA00034010010F000001053494D2DEAE0F0F2BF
:108AB000E020E2F1F2E0E2EBE5EDE0009CEC0720E3
:108AC000002038498860704710B509F039FAF0B3D2
:108AD00035A137A009F0ACFA04463CB94EF6602047
:108AE000354948600720FEF741FC0FE0204628F09A
:108AF000FBFD314948600846406844F620618842E1
:108B000002D208462C4948602B4840682BA128A077
:108B100009F08EFA044634B929482A4948600720EA
:108B2000FEF724FC1BE0204628F0DEFD25494860C6
:108B3000084640684EF66021884202D20846214924
:108B40004860204840682049884208D900E003E096
:108B500008461C49486002E00020FEF707FC10BDF3
:108B600010B51A4822F080FD194822F07DFD194801
:108B700022F07AFD184822F077FD184822F074FDA3
:108B8000174822F071FD074822F06EFD0D4822F0D3
:108B90006BFD144822F068FD074822F065FDFFF7E1
:108BA00093FF10BD00C4072050696E6700000000ED
:108BB00054494D455253000040C40720536D730083
:108BC000E093040020C4072080EE360020C3072075
:108BD00080C3072060C30720A0C30720E0C307208D
:108BE000C0C3072040C3072030B50246002009E07B
:108BF000135C0C1A641E145D14540C1A641E135575
:108C0000441CE0B201EBD175B0EB650FF0DB30BD79
:108C100001B504216846FFF7E7FF009808BD01B5DC
:108C200004216846FFF7E0FF009808BD01B5022166
:108C30006846FFF7D9FFBDF8000008BD2DE9F041F7
:108C400004460D4616461F463E4800688000B4EBB9
:108C5000500F17D260193B4909688900B0EB510FDA
:108C60000ED86A003848006800EB4401304628F00E
:108C70009FFB022000EB450038700020BDE8F0812A
:108C80000320FBE70220F9E710B50AF0CEFE2D49DC
:108C9000086009688800FEF7F7F92B49086010BDE5
:108CA00038B50AF0CDFE044604B938BD00250FE002
:108CB0000122694620460AF035FB0098FFF7A8FF1D
:108CC00029466D1C204A126842F82100D4F805405C
:108CD000002CEDD100BFE8E710B509F031F9A0B1E3
:108CE0001AA009F0C5FB401C00D110BD1AA117A0A5
:108CF00009F09EF9044604B9F7E719A1204628F0C7
:108D0000A7FB10B901201749086000BFEDE710B5B7
:108D100009F016F988B114A009F0AAFB401C00D193
:108D200010BD13A110A009F083F9044604B9F7E7B8
:108D3000204628F0CCFC1049086000BFF0E7094845
:108D400000687047400100103C0100104D425F4335
:108D50006C69656E740000004D6574686F64000096
:108D6000434F4D0038010010494E464F00000000AF
:108D7000506F727400000000E400001003460020F1
:108D8000704703460020704703460020704733B504
:108D900081B00D46AC68012201A9206803F095FC62
:108DA000BDF80400202833D004DC022845D0032875
:108DB00062D143E0522816D0D8285DD16068000403
:108DC000009001220DF10201206803F07EFC0122D7
:108DD0000DF10101206803F078FC0122694620684A
:108DE00003F073FC49E06068C003009001220DF1BC
:108DF0000201206803F069FC01220DF101012068E5
:108E000003F063FC01226946206803F05EFC34E055
:108E100060680003009001220DF10201206803F058
:108E200054FC01220DF10101206803F04EFC0122E7
:108E30006946206803F049FC1FE000BF207B012841
:108E400006D160680103A06801EB0020009001E0FA
:108E50006068009001220DF10201206803F035FCEA
:108E600001220DF10101206803F02FFC0122694667
:108E7000206803F02AFC00E000BF00BF3EBDF8B54B
:108E80000020009001225105104605F0C9FEF7A010
:108E900003F07FFC06464EB9F6A0FCF77FF90122ED
:108EA0000021FBA0FFF7BDF90120F8BD1020FEF75F
:108EB000EBF804464CB901220021FCA0FFF7B1F900
:108EC000FFA0FCF76BF90120EFE71020FEF7DCF8BC
:108ED00005464DB901220021F4A0FFF7A2F9F8A040
:108EE000FCF75CF90120E0E7266000206060A060EC
:108EF00001202073F74868600020E860AC604FF400
:108F00000011012005F0AAFE29460620FFF73FFFC9
:108F10004FF40011012005F097FE4FF400110120DD
:108F200005F09CFE29460120FFF731FF012269462A
:108F3000304603F0CAFB4FF40011012005F084FE17
:108F40004FF40011012005F089FE29460420FFF7A7
:108F50001EFF4FF40011012005F076FE206803F09B
:108F60000EFC2046FEF75AF92846FEF757F9DAA01C
:108F7000FCF714F9002098E770B5BCA003F009FCD9
:108F800006464EB9BBA0FCF709F901220021C0A09A
:108F9000FFF747F9002070BD1020FEF775F8044672
:108FA0004CB901220021C1A0FFF73BF9C4A0FCF796
:108FB000F5F80020EFE71020FEF766F805464DB9FA
:108FC00001220021B9A0FFF72CF9BDA0FCF7E6F8BB
:108FD0000020E0E7266000206060A0600120207390
:108FE000BC4868600020E860AC602846D3E770B5F4
:108FF0000446A5682E682846FEF710F92046FEF7BD
:109000000DF9304603F0BBFB70BD10B503461446A6
:109010009A685160084610BD38B50446A568FF201F
:1090200000904FF40011012005F018FE21460520A4
:10903000FFF7ADFE00BF02226946286803F036FB49
:10904000BDF8000010F0010FF5D14FF40011012020
:1090500005F0FAFD002038BD10B504464FF40011AC
:10906000012005F0FBFD21460620FFF790FE4FF49E
:109070000011012005F0E8FD2046FFF7CDFF4FF479
:109080000011012005F0EAFD21462020FFF77FFEB8
:109090004FF40011012005F0D7FD2046FFF7BCFF7B
:1090A0004FF40011012005F0D9FD21460420FFF7FF
:1090B0006EFE4FF40011012005F0C6FD2046FFF7BB
:1090C000ABFF002010BD2DE9F04104460D461646C9
:1090D000A76825B1012D05D0022D0AD105E0002099
:1090E00038730AE03068786007E02046FFF7B4FF85
:1090F00003E04FF0FF30BDE8F08100BF0020FAE749
:109100002DE9F04707468946904600240026A246EE
:10911000BD686968080AA1EB0020C0F58076444666
:10912000B44200D2264644E04FF40011012005F07D
:1091300095FD39460620FFF72AFE4FF40011012065
:1091400005F082FD3846FFF767FF4FF4001101205C
:1091500005F084FD39460220FFF719FE09EB0A01EC
:109160003246286803F0B1FA4FF40011012005F0EF
:109170006BFD3846FFF750FF4FF40011012005F05A
:109180006DFD39460420FFF702FE4FF40011012067
:1091900005F05AFD3846FFF73FFF686830446860C5
:1091A000B244A41BB4F5807F01D8264601E04FF4F9
:1091B0008076002CB8D1012028730020BDE8F0870C
:1091C0002DE9F04105460E469046AF684FF4001178
:1091D000012005F043FD29460620FFF7D8FD4FF496
:1091E0000011012005F030FD2846FFF715FF4FF470
:1091F0000011012005F032FD29462020FFF7C7FDB0
:109200004FF40011012005F01FFD2846FFF704FF71
:1092100000246AE0BC604FF40011012005F01EFD3F
:1092200029460620FFF7B3FD4FF40011012005F099
:109230000BFD2846FFF7F0FE4FF40011012005F06A
:109240000DFD29460220FFF7A2FD06EB04214FF495
:109250008072386803F039FA4FF40011012005F0EC
:10926000F3FC2846FFF7D8FE601C3DE05353503016
:1092700000000000464C4153483A20756E61626C14
:109280006520746F206F70656E205350490A00008E
:10929000464C4153483A20756E61626C6520746F8C
:1092A000206F70656E20535049000000464C4153BA
:1092B000483A206E6F206D656D6F72790000000076
:1092C000464C4153483A206E6F206D656D6F727940
:1092D0000A000000E0310300464C4153482043722D
:1092E00065617465640A0000C4B2102C92DB4FF40F
:1092F0000011012005F0B2FC29460420FFF747FDCC
:109300004FF40011012005F09FFC2846FFF784FE72
:109310000020BDE8F0812DE9F04104460E461546D7
:10932000A768387B01280CD1020331462046FFF79D
:1093300047FF401C02D00120BDE8F0814FF0FF3014
:10934000FAE7AAB231462046FFF7DAFE401C01D008
:109350000120F1E74FF0FF30EEE72DE9F041044640
:109360000E461746A5684FF40011012005F076FC63
:1093700021460320FFF70BFD3A463146286803F0EB
:1093800095F94FF40011012005F05EFC2046FFF72F
:1093900043FE012028730020BDE8F0812DE9F04153
:1093A00005460E469046AF6800241AE0BC604FF4B4
:1093B0000011012005F052FC29460320FFF7E7FCCD
:1093C00006EB04214FF48072386803F06FF94FF414
:1093D0000011012005F038FC2846FFF71DFE601C37
:1093E000C4B2102CE2DB0020BDE8F0812DE9F04191
:1093F00004460E461546A768387B01280CD10203A7
:1094000031462046FFF7CAFF401C02D00120BDE8CC
:10941000F0814FF0FF30FAE7AAB231462046FFF75D
:109420009CFF401C01D00120F1E74FF0FF30EEE738
:1094300070B5054608F084FDA8B31DBBFAA1FBA0DA
:1094400008F0F6FD04461CB90020FDF78FFF6EE022
:10945000204628F03CF9F74981F89900084690F831
:109460009900012820D1022005F079FC10F0080FA6
:1094700009D14FF48071002005F069FC0120ED490D
:1094800081F8990053E0022005F069FC10F0040F08
:109490004DD14FF48071002005F051FC0220E549C8
:1094A00081F8990043E00EE1E24890F89900022823
:1094B0001ED105F054FC10F0040F09D14FF4807157
:1094C000002005F03CFC0220DA4981F899002EE0EA
:1094D000022005F044FC10F0080F28D14FF48071F1
:1094E000002005F034FC0120D24981F899001EE0EB
:1094F000022005F034FC10F0080F09D14FF4807100
:10950000002005F024FC0120CA4981F899000EE0F2
:10951000022005F024FC10F0040F08D14FF48071F4
:10952000002005F00CFC0220C24981F89900C148D6
:1095300090F89900012805D1BFA1BCA008F078FDE2
:10954000044604E0BFA1B9A008F072FD04461CB9AE
:109550000020FDF70BFF04E02146B648801C27F0F1
:1095600092FFBBA1B1A008F063FD044644B12046C0
:1095700027F066FF20B1204627F062FF132803D9A9
:109580000020FDF7F3FE04E02146AA48763027F0DC
:109590007AFFA84890F89900012805D1AFA1A3A0AF
:1095A00008F046FD044604E0B0A1A0A008F040FD8C
:1095B00004461CB90020FDF7D9FE04E021469D4871
:1095C0000C3027F060FF9B4890F89900012805D1E6
:1095D000AAA196A008F02CFD044604E0A9A193A03E
:1095E00008F026FD04461CB90020FDF7BFFE04E08C
:1095F000214690483E3027F046FF8E4890F899006B
:10960000012805D1A1A189A008F012FD044604E0BB
:10961000A1A186A008F00CFD04461CB90020FDF7AE
:10962000A5FE04E0214683484D3027F02CFF8148F9
:1096300090F89900012805D19AA17CA008F0F8FCC7
:10964000044604E099A179A008F0F2FC04461CB994
:109650000020FDF78BFE0BE02078302804D100209D
:10966000744981F8700003E00120724981F87000AC
:1096700090A16EA008F0DCFC04461CB90020FDF7A8
:1096800075FE05E0204628F022F86A4981F8980026
:10969000684890F89900012805D188A163A008F0D6
:1096A000C7FC044604E087A160A008F0C1FC0446A2
:1096B0001CB90020FDF75AFE08E021465D487130D4
:1096C00027F0E1FE02E00020FDF750FE70BD10B56E
:1096D00000207E49087040217D4827F082FE00204E
:1096E0007C4908707C49087002207C49087010BDD4
:1096F00010B500224FF40051022005F091FA032228
:109700000D21022005F07EFC0122D106104605F055
:1097100087FA00220821022005F082FA00220421A3
:10972000022005F07DFA01221102002005F078FAEE
:1097300001225106104605F073FA4FF00071012026
:1097400005F082FAFFF7C3FF65A008F00CFC0020CB
:10975000FFF76EFE08F0B3FE66A0FBF71FFD0020CA
:1097600010BD10B567A003F014F804464CB967A00B
:10977000FBF714FD012200216BA0FEF752FD002033
:1097800010BD704804607048007818B901206E4917
:10979000087002E06DA0FBF701FD6B48F0E770B5C3
:1097A0000446A568286802F0EAFF674800780128A7
:1097B00003D100206449087002E068A0FBF7EEFCCA
:1097C00070BD2DE9F04106460F461446F568002CA1
:1097D0001BDB2146384627F004FEB5F8AE002044D6
:1097E000B42803DDB5F8AE00C0F1B404B5F8AE009E
:1097F00041192246384627F0DBFDB5F8AE0020447B
:10980000A5F8AE002046BDE8F0810020FBE710B5CA
:1098100004460B46E16822B1012A03D0022A02D194
:10982000BCE0A3E0ABE0C4E053696D004D4F44459C
:109830004D00000064C407204469616C4E756D5F83
:10984000310000004469616C4E756D5F32000000AC
:109850004F776E4E756D557373640000496E697471
:10986000537472696E675F3100000000496E69745D
:10987000537472696E675F32000000004C6F676955
:109880006E5F31004C6F67696E5F320050617373B9
:10989000776F72645F31000050617373776F726429
:1098A0005F32000050696E456E5F310050696E4551
:1098B0006E5F320053796E630000000050696E5F86
:1098C0003100000050696E5F3200000038C507208B
:1098D000F179001051C5072052C5072029C507207E
:1098E0002F6174343564622F444556434F4E2E69C0
:1098F0006E6900004D4F44454D20437265617465AB
:10990000640A000055415254330000004D4F444555
:109910004D3A20756E61626C6520746F206F7065C2
:109920006E20554152540A004D4F44454D3A207522
:109930006E61626C6520746F206F70656E2055419A
:109940005254000060C4072018C507204D4F4445FD
:109950004D2052455F4F50454E0A00004D4F444543
:109960004D2052455F434C4F53450A00B42B02D261
:10997000A1F8AE3002E00020A1F8AE001EE0B1F880
:10998000AE001844B42805D2B1F8AE001844A1F8CE
:10999000AE0002E00020A1F8AE000FE0B42B04D22C
:1099A000C3F1B400A1F8AE0002E00020A1F8AE00BF
:1099B00004E00020A1F8AE00401E10BD00BFB1F8C9
:1099C000AE00FAE72DE9F04706460F461546F46863
:1099D000002D7EDB2946384627F003FDB4F8B000A1
:1099E0002844912803DDB4F8B000C0F191050023AC
:1099F0004FF47A721946F9480068FCF74CFB0128CD
:109A000067D12278F6A1F84828F03EFFF7A1F64882
:109A1000C01C27F038FD6278F1A1F348093028F026
:109A200033FFF4A1F0480C3027F02DFDA11CEE48C7
:109A3000123027F028FDA01C27F002FDC0F10A0813
:109A4000A01C27F0FDFC1230E74900EB01092022A1
:109A50004146484627F0BEFCE8A1E3481C3027F009
:109A600012FD04F10C01E048263027F00CFDA01C8B
:109A700027F0E6FCC0F1320804F10C0027F0E0FC0E
:109A80002630D94900EB010920224146484627F0FB
:109A9000A1FCDDA1D448583027F0F5FC04F13E01CB
:109AA000D1485F3027F0EFFCA01C27F0C9FCC0F1C3
:109AB0000A0804F13E0027F0C3FC5F30CA4900EBFE
:109AC000010920224146484627F084FCD0A1C6481F
:109AD00000E04DE0693027F0D6FC04F14D01C248AA
:109AE000713027F0D0FCA01C27F0AAFCC0F10A08B6
:109AF00004F14D0027F0A4FC7130BB4900EB0109D3
:109B000020224146484627F065FCC4A1B6487B3078
:109B100027F0B9FC94F87020B1A1B348863028F042
:109B2000B3FEC1A1B048893027F0ADFC04F171014A
:109B3000AD48913027F0A7FCBEA1AB48953027F087
:109B4000A2FCB4F8B000A84A81182A46384627F08B
:109B50002FFC00231A461946A0480068FCF7C5F9F7
:109B6000B4F8B0002844A4F8B0002846BDE8F08757
:109B70000020FBE710B504460B46E16822B1012A3C
:109B80000BD0022A23D117E0912B02D2A1F8B030DA
:109B900002E00020A1F8B0001DE0B1F8B0001844C8
:109BA000912805D2B1F8B0001844A1F8B00002E045
:109BB0000020A1F8B0000EE0912B04D2C3F1910077
:109BC000A1F8B00002E00020A1F8B00003E00020FE
:109BD000A1F8B00010BD00BFB1F8B000FAE703462D
:109BE0004FF0FF3070472DE9F04106460F4615460D
:109BF000F468002D17DBB4F8AE002844B42803DD68
:109C0000B4F8AE00C0F1B405B4F8AE1008192A4695
:109C1000394627F0CDFBB4F8AE002844A4F8AE00D6
:109C20002846BDE8F0810020FBE710B500208349FD
:109C300008704021824827F0D4FB10BD10B50446BF
:109C40007E480078402808DA7C4801780078401C7B
:109C50007A4A10707A48445401E0FFF7E6FF7948E9
:109C6000007840B378480168754827F0F1FB98B94F
:109C7000734976A0FBF793FA002072490870774980
:109C800008807748007838B10020754908700C20AA
:109C900074490870FFF7C9FF7148007858B172A184
:109CA000674827F0D5FB30B90020664908706B493A
:109CB0000880FFF7BAFF06226EA1614827F0D6FBA5
:109CC00010B90220674908700D2C01D00A2C01D16F
:109CD000FFF7ABFF10BD70B504460025204627F006
:109CE000AFFB0646654932460868214602F0EDFCA6
:109CF0000546204627F0A4FBA84203D1214660A0D8
:109D0000FBF74DFA70BD10B56148007805281DD2EB
:109D1000DFE800F0031D3753EE00002050490870C3
:109D2000484908705B4908705BA0474908605BA020
:109D3000FFF7D1FF4FF49670484908800120414950
:109D4000087053480078401C51490870DCE03D48D9
:109D50000078012803D1022042490870D4E04C4821
:109D60000078401C4A4908704BA0374908604CA055
:109D7000FFF7B1FF6420394908800120314908709C
:109D8000C2E030480078012803D10220354908702C
:109D9000BAE03F480078401C3D49087043A02A497A
:109DA000086046A0FFF797FF64202C490880012037
:109DB0002449087037490870A6E022480078012835
:109DC00003D10220274908709EE03248007801281C
:109DD0007AD106202349087096E075E0D80000107B
:109DE00025336C7500000000ECE9072020536967FB
:109DF0003B0A000020436F6E3B0A0000204469616B
:109E00006C4E756D3B0A000020475052533B0A00D0
:109E1000204C6F67696E3B0A0000000020506173A0
:109E200073776F72643B0A002050696E456E3B0A7F
:109E3000000000002050696E3B0A000038C5072072
:109E4000F179001051C5072044C507204D6F6465A6
:109E50006D207265706C793A2025730048C5072023
:109E600052C5072029C507204E4F20434152524971
:109E700045520D004552524F520D000060C407205C
:109E80004D6F64656D2073656E64733A20257300B1
:109E90002AC5072055C507204F4B0D002B2B2B0043
:109EA00041542B43475245473D310D002B43475208
:109EB00045473A20302C310D0000000041542B431F
:109EC000475245473F0D0000FA480078401CF949C9
:109ED0000870F9A0FB490860FBA0FFF7FCFE6420B6
:109EE000FB4908800120FB490870FB4908700BE022
:109EF000F8480078012803D10220F849087003E0EF
:109F00000C20F649087000BF00BF10BD10B5E9482D
:109F1000007830B1012824D002283BD0032861D139
:109F200054E00020EC490870ED490870E9490870D8
:109F3000AFF29C00E34908604FF4FA70E4490880EE
:109F40000120E4490870DB480078401CD9490870BA
:109F5000AFF2B800FFF7BFFE4FF47A70FCF73DFB9D
:109F600040E0DC480078012803D10B20DB49087071
:109F700038E0D0480078401CCE490870D9A0FFF7DF
:109F8000AAFE6420D24908800120D2490870D44931
:109F9000087027E0CF480078012803D10220CF497C
:109FA00008701FE0C3480078401CC2490870C2A076
:109FB000C4490860C4A0FFF78EFE6420C44908802D
:109FC0000120C4490870C44908700BE0C1480078FA
:109FD000012803D10220C149087003E00B20BF49CA
:109FE000087000BF00BF10BD10B5B2480078062849
:109FF00019D2DFE800F00319314C74960020B649FD
:10A000000870AFF26C10AF490860B8A0FFF763FEAC
:10A01000A8480078401CA74908706420AC49088013
:10A020000120AC49087088E0AA480078012803D1D3
:10A030000220AA49087080E09E480078401C9D4993
:10A040000870ACA0FFF747FE4FF49670A049088057
:10A050000120A049087070E09E480078012803D1D3
:10A0600002209E49087068E092480078401C91499F
:10A070000870A2480068FFF72EFEA1A0FFF72BFE94
:10A080006420FCF7AAFA01209249087055E0914833
:10A090000078012803D10220904908704DE099A072
:10A0A000FFF719FE98480068FFF715FE94A0FFF728
:10A0B00012FE4FF47A70FCF790FA7FA08149086095
:10A0C00040F6B830824908800120824908708249F0
:10A0D000087078480078401C764908702DE07D486B
:10A0E0000078012802D17D49087026E07A4800787E
:10A0F000B0B1002078490870AFF26420714908605F
:10A100006C480078401C6B49087080A0FFF7E3FDA5
:10A110004FF496706E49088001206E4908700CE07B
:10A120000BE06C480078012803D102206B490870CD
:10A1300003E001206949087000BF00BF10BD10B5E1
:10A140005C4800780A2821D2DFE800F005213C595C
:10A150007AB2B1B0AFAE00205F4908706D490870A7
:10A160006D4908706D49087052480078401C51498B
:10A17000087060A0FFF7AFFDAFF2E420514908601E
:10A1800064205349088001205249087086E15148F3
:10A190000078012803D10220504908707EE1AFF217
:10A1A00008304849086043480078401C414908701D
:10A1B0005BA0FFF790FD64204549088001204549D8
:10A1C00008706BE143480078012803D1022043491D
:10A1D000087063E155A03B49086036480078401C90
:10A1E0003449087055A0FFF776FD6420FCF7F5F9B7
:10A1F0006420374908800120364908704EE135480F
:10A200000078012803D103203449087046E1294829
:10A210000078401C274908704BA02A4908604EA0CE
:10A22000FFF759FD6420FCF7D8F96420284908801D
:10A2300001202849087037490870374908702DE116
:10A2400024480078012803D102202449087025E120
:10A2500030480078012803D10320204908701DE10F
:10A2600014480078401C134908702B480078C8B186
:10A27000AFF2DC30134908603A48007898B13AA050
:10A28000FFF729FD3B480068FFF725FD1CA0FFF7FD
:10A2900022FD64200E49088001200E4908701E49E5
:10A2A00008707AE06CE067E0EFE0D1E0B5E098E0BC
:10A2B00074E000002AC50720434F4E4E4543540D1D
:10A2C0000000000044C5072041544F0D000000006D
:10A2D00048C5072051C5072052C5072029C50720BA
:10A2E00053C5072041542B4353510D0041545A0D7F
:10A2F000000000004154453056310D0040C5072094
:10A300000D000000415444003CC507204154480D55
:10A310000000000054C5072056C5072057C5072078
:10A3200041542B434D45453D310D00002B43534DCA
:10A33000494E533A20302C310D00000041542B433C
:10A34000534D494E533F0D002B4350494E3A205236
:10A35000454144590D00000041542B4350494E3FA4
:10A360000D00000050C5072041542B4350494E3D7D
:10A37000000000004CC507200420FC4908708DE057
:10A38000AFF2EC40FA490860FAA0FFF7A4FC6420A1
:10A39000F94908800120F94908707FE0F748007802
:10A3A000012803D10220F149087077E0F4480078D1
:10A3B000012803D10420ED4908706FE0F1480078CE
:10A3C000401CF0490870AFF23050E9490860E9A03C
:10A3D000FFF781FC6420E84908800120E749087004
:10A3E0005CE0E6480078012803D10220DF490870CC
:10A3F00054E0E4480078401CE2490870E2A0DC49DF
:10A400000860E4A0FFF767FC6420FCF7E6F8012091
:10A41000DA490870E249087040E0D848007801281D
:10A4200003D10220D149087038E0D6480078401C9A
:10A43000D4490870AFF2A050CD490860D9A0FFF709
:10A440004AFC6420CC4908800120CC49087025E0F2
:10A45000CA480078012803D10220C44908701DE0D1
:10A46000C8480078401CC7490870AFF2D450C049B2
:10A470000860D0A0FFF72FFC6420BF4908800120AE
:10A48000BE490870CF49087008E0BC480078012830
:10A4900003D10220B549087000E000BF00BF10BD25
:10A4A00010B504461E20FCF798F8B04800780D2837
:10A4B00017D2DFE800F007160816160A16100D135B
:10A4C0001616090000BF00BF0BE0FFF738FE08E0DA
:10A4D000FFF78AFD05E0FFF719FD02E0FFF713FC27
:10A4E00000BF00BF10BD2DE9FC410446002500203F
:10A4F0000090A668E768B81CB34908600A30B34901
:10A50000086008209949087000209E49087000BF23
:10A510000020FFF7C5FF6420FCF75FF86A46CC21F6
:10A52000306802F01DF917E0012201A9306802F03D
:10A53000BDF89DF80410A6A0FAF731FE9DF80400BE
:10A54000FFF77CFB894800780C2800D107E06A46B9
:10A55000CC21306802F004F900980028E4D100BF53
:10A56000824800780C2811D1002505E00021994887
:10A5700000EB850001606D1C052DF7DB0122022137
:10A5800095A0FDF74EFE0020BDE8FC8177480078DD
:10A59000022806D10122022193A0FDF742FE0020ED
:10A5A000F2E7724800780128B2D10122022191A07D
:10A5B000FDF737FE0020E7E710B504469148007824
:10A5C000402808DA8F4801780078401C8D4A1070C6
:10A5D0008D48445401E0FFF728FB654801688A482C
:10A5E00026F036FF30B10622AFF28471864826F09D
:10A5F0003DFF18B9FFF719FB002010BD0622AFF28E
:10A600008C71814826F032FF10B90220574908703A
:10A610000D2C01D00A2C01D1FFF707FB4FF0FF30C2
:10A62000EBE72DE9FE4380460D4616464FF0FF3717
:10A63000002002900190754C4D4805600196002263
:10A64000D321206802F08CF84046FFF744FB02AAB1
:10A65000D721206802F084F801AAD621206802F0F0
:10A660007FF80BE09DF8001059A0FAF798FD9DF8CF
:10A670000000FFF7A1FF074607B906E0012269467F
:10A68000206802F013F80028ECD100BF02AAD621FE
:10A69000206802F065F83846BDE8FE83334800784C
:10A6A0000C2807D0314800780A2803D02F480078BA
:10A6B0000B2801D1012070470020FCE71CB5FFF7F3
:10A6C000EDFF80BB514C002000906A46CC212068F1
:10A6D00002F046F809E0012201A9206801F0E6FF36
:10A6E0006A46CC21206802F03BF800980028F2D19D
:10A6F0004FF49672AFF24041AFF23440FFF791FF52
:10A7000020B943480078194908700BE040480078A8
:10A710000B2802D1022015490870002202213DA019
:10A72000FDF77FFD00BF1CBD10B5FFF7B7FF012887
:10A730001BD10E4800780B2801D0012010BD0B481A
:10A740000078334908703220FBF747FF4FF47A72E4
:10A75000AFF6BC01AFF6BC00FFF763FF20B90E20D7
:10A76000024908700020E9E770E071E029C5072080
:10A7700044C5072041540D0048C5072051C5072096
:10A7800056C507202AC507202B435245473A20309B
:10A790002C310D0041542B435245473F0D00000022
:10A7A00057C5072041542B434C564C3D3130300D9A
:10A7B0000000000041542B434D49433D302C3135BE
:10A7C0000D00000052C507203CC5072040C50720EA
:10A7D00025630000FEC407204750525320434F4ECC
:10A7E0004E454354000000004D4F44454D20455216
:10A7F000524F52004D4F44454D20504F5745522027
:10A800004F4E000038C50720F179001060C40720C2
:10A810002BC5072050505020434C4F53494E473AC8
:10A82000204D6F64656D20646F6573206E6F7420BA
:10A8300072657475726E2066726F6D20636F6D6DD8
:10A84000616E64206D6F646500000000012075E793
:10A85000002073E7F0B587B00025FF4FFFF71EFF1C
:10A860000446FE4890F8980010B9002007B0F0BDEB
:10A8700064B1FB4800780B2802D04FF0FF30F5E7B9
:10A88000FFF752FF012801D1801EEFE74FF4FA7263
:10A89000F4A1F7A0FFF7C5FE28B10CB1FFF70EFF3A
:10A8A0004FF0FF30E2E719226946386801F0FEFEFA
:10A8B0000546142D05DA0CB1FFF700FF4FF0FF300D
:10A8C000D4E700208DF818000026ECA001F061FF0D
:10A8D00006462EB90CB1FFF7F1FE4FF0FF30C5E789
:10A8E0006A460C21304601F03BFF0546304601F038
:10A8F00046FF0CB1FFF7E2FE2846B7E72DE9F0412D
:10A9000006460C46FFF7CAFE05466DB1D4480078EE
:10A910000B2803D04FF0FF30BDE8F081FFF704FFB4
:10A92000012801D1801EF7E7CB4FD6A0FFF7D3F95E
:10A930003046FFF7D0F9C820FBF74FFE41F27072A6
:10A94000D2A1AFF2A810FFF76CFE28B10DB1FFF74E
:10A95000B5FE4FF0FF30DFE722463146386801F0A0
:10A96000A5FE84B20DB1FFF7A9FE2046D4E710B5CD
:10A970000024BA497631C74826F085FD4021C548F4
:10A98000FFF7BCFF1DE0C348005D332818D1C14963
:10A9900008190322C0A126F07FFD88B9BD4801191E
:10A9A000AE488A300A68C0F801204A68C0F805201D
:10A9B0008968C0F809102B20A84981F88A0002E0B4
:10A9C000641C402CDFDB00BF402C01DA002010BDEE
:10A9D0004FF0FF30FBE7FEB5002500269E4FA04854
:10A9E0000078062800DAFEBDFFF758FE04464CB199
:10A9F0009B4800780B2800D0F5E7FFF795FE01286B
:10AA000000D1F0E74FF49672A4A1AFF22870FFF7DF
:10AA100008FE18B10CB1FFF751FEE4E70A226946BF
:10AA2000386801F043FE0646032E03DA0CB1FFF747
:10AA300045FED8E708E01DF805002C2803D10020CA
:10AA40000DF8050002E06D1C092DF4D100BF684629
:10AA500026F03DFE8149087008460078202801DD77
:10AA6000002008700CB1FFF729FE00BFBBE770B5EE
:10AA700088B000240025784E6420FBF7AEFD47F235
:10AA8000305288A18AA0FFF7CCFD08B108B070BD94
:10AA9000192201A9306801F009FE0546032D00DAEC
:10AAA000F4E708E001A8005D222803D1002001A9F5
:10AAB000085502E0641C182CF4D100BF142167482B
:10AAC0005C3026F08EFC621C01A964485C3026F0E4
