:020000040000FA
:0402FC00FFFFFFFF02
:020000040000FA
:10500000307E001081510000855100008751000062
:10501000895100008B5100008D51000000000000FC
:10502000000000000000000000000000F15000003F
:10503000000000000000000021510000017100008C
:1050400097510000975100009751000097510000C0
:10505000975100009751000079C900009751000056
:105060004BC9000097510000975100009751000074
:105070009751000097510000975100009751000090
:105080009751000097510000975100009751000080
:105090009751000097510000975100009751000070
:1050A00079110300975100009751000097510000BB
:1050B0009751000097510000975100009751000050
:1050C0009751000097510000975100000000000028
:1050D00000000000312E383400000000DFF80CD052
:1050E0002DF0C6FB0048004745730000307E0010DD
:1050F000194B19680868B0E8F00F80F309884FF081
:10510000000080F311884EF00D0E70470000000083
:1051100002480068006880F3088800DF08ED00E0BE
:10512000EFF309800C4B1A6820E9F00F106008B506
:105130004FF0280080F3118801F0DCFD4FF00000F3
:1051400080F31188BDE8084019680868B0E8F00FDE
:1051500080F30988704700BF2CC1072001B44FF0CD
:10516000280080F3118801BC704701B44FF00000A3
:1051700080F3118801BC70474FF03000D0F800F088
:1051800005480047FEE7FEE7FEE7FEE7FEE7FEE72D
:10519000FEE7FEE7FEE7FEE7DD50000070477047E0
:1051A0007047000000BF00BF2248006822498842C3
:1051B00001D1002000E001200128F4D100BF801EB1
:1051C0001C4909681C4A914204D01A4908681146D2
:1051D000184A116000BF704770B504460D46E0B232
:1051E00029F077FA70BD00B50346FFF7DBFF00BD7D
:1051F00001464FF0FF30704700BF1049096811F0B9
:10520000807F12D00E49096811F0010F0DD00D49B1
:10521000096811F0010F08D000BF4FF06041096824
:105220000029FAD04FF06042107000BF704700BFF5
:10523000FEE7000000000010A55AA55AFCED00E0B2
:10524000800E00E0000E00E02DE9F04104468846A3
:10525000174641F2240001F069FFA060A06818B968
:105260004FF0FF30BDE8F08141F22401A0682CF03E
:1052700060FCA66827743A464146304610F0BCFCF4
:10528000054615B9F068606004E0A06802F018F8FF
:105290000020A0602846E5E770B504460026A06817
:1052A00008B9304670BDA568284611F036F80646A4
:1052B000A06802F005F80020A0603046F2E72DE972
:1052C000F04104460D461646A76804F10C03324629
:1052D0002946384610F049FD80464046BDE8F08139
:1052E0002DE9F04104460D461646A76804F10C036B
:1052F00032462946384610F067FE80464046BDE8F3
:10530000F0817CB50446002001906D4800906A460B
:1053100001A96CA011F0E6F9054601980003009977
:1053200089784843206028467CBD70B50446A5684E
:10533000284611F069FA0646304670BD70B504463D
:10534000A568284610F086FF0646304670BD70B549
:105350000446204611F010FB0546284670BD70B586
:105360000446204611F0A1FA0546284670BD2DE9F5
:10537000F04104460D462560A6682946304611F0E6
:1053800016F807463846BDE8F0812DE9F04106469B
:105390000D46304600F032FC28B91020287200205B
:1053A0002860BDE8F081182001F0C0FE044614B961
:1053B0004FF0FF30F5E7182120462CF0BAFB2146CC
:1053C000304611F06EF9074620682860A088A88052
:1053D000E088E880207A287204F1090105F10900CB
:1053E0002CF0F9FB204601F06BFF3846D9E770B589
:1053F00005463349002010F051FB0446204670BD9D
:1054000001464FF0FF30704770B504460D462946FF
:10541000204611F0E9FB0646304670BD2DE9F0410B
:1054200004460D461C2001F081FE2062206A18B956
:105430004FF0FF30BDE8F0811C21206A2CF079FB91
:10544000266A284600F0DAFB28B91FA1304611F081
:10545000BDF8074604E02946304611F0B7F8074684
:105460003846E7E710B50446206A01F029FF00201E
:1054700010BD2DE9F04105460E46376A182001F0AF
:1054800055FE04461CB94FF0FF30BDE8F0811821ED
:1054900020462CF04EFB2146384611F0D2F88046CB
:1054A00004F1090105F111002CF095FB20686860FA
:1054B000207A2874204601F003FF4046E5E700000B
:1054C000CCCD0720303A00002F0000002DE9F0413C
:1054D00004460E461746701C07F083FBA060A068C8
:1054E00018B94FF0FF30BDE8F08102220021A0681A
:1054F00007F04FFB0546681C01D1401EF3E76560CD
:1055000000221146A06807F044FBA06810B94FF0D4
:10551000FF30E8E70020E6E72DE9F04104460E46BB
:1055200017463A463146A06807F015FB0546681C49
:1055300002D1401EBDE8F081E5600020FAE72DE9C8
:10554000F04104460E4617463A463146A06807F039
:1055500011FB0546681C02D1401EBDE8F081E560E4
:105560000020FAE770B504460D4625600022294662
:10557000A06807F00EFB002070BD10B50446A068BF
:1055800007F025FB002010BD01464FF0FF307047AB
:1055900001464FF0FF30704701464FF0FF30704733
:1055A00001464FF0FF30704770B505460C4628465F
:1055B00000F024FB20B9102020720020206070BD74
:1055C0004FF0FF30FBE701464FF0FF3070470146D8
:1055D0004FF0FF30704702464FF0FF3070472DE923
:1055E000F04104460F462F48007818B92E4840680D
:1055F0002E4908602D48006805682B480078294925
:105600000978884230DD29480068006808B305F150
:105610002C0104F111002CF0DEFA05F12C0007F04A
:10562000E0FA064656B101202074022200213046DD
:1056300007F0AFFA6060304607F0C9FA1B4800680F
:1056400040681A49086017480078401C15490870DE
:105650000EE0164800684068144908601148007858
:10566000401C1049087003E0002060740D49087068
:105670000020BDE8F08170B505460C46204600F0DC
:10568000BDFA08B9002070BD4FF0FF30FBE70146BE
:105690000020704710B504462F2120462CF0B3FAA5
:1056A00010BD000064000010D0C40720600000108E
:1056B0002DE9F04104460E461746701C0EF089FA9B
:1056C000A060A06818B94FF0FF30BDE8F081022259
:1056D0000021A0680EF0ADF90546681C01D1401EFE
:1056E000F3E7656000221146A0680EF0A2F90546B6
:1056F000681C01D1401EE8E7A06810B94FF0FF30E8
:10570000E3E70020E1E72DE9F04104460E461746A5
:105710003A463146A0680EF032F90546681C02D1BF
:10572000401EBDE8F081E5600020FAE703464FF037
:10573000FF30704701464FF0FF30704770B50446A8
:105740000D4625600022A9B2A0680EF072F9002073
:1057500070BD01460020704701464FF0FF30704792
:1057600001464FF0FF30704701464FF0FF30704761
:1057700070B505460C4600243C4844680CE094F89B
:105780002C0038B1691C04F11D002CF009FA08B98D
:10579000002070BDD4F80540002CF0D1601EF8E761
:1057A00070B505460C460026284600F027FA20B9B9
:1057B000102020720020206070BD31462846FFF77F
:1057C000D7FF10B94FF0FF30F6E74FF0FF30F3E7A7
:1057D00001464FF0FF30704701464FF0FF307047F1
:1057E00002464FF0FF30704770B504460D46204822
:1057F000007818B91D4840681E4908601B480078A9
:105800001B49097888421BDD1A48006890F82C0073
:1058100080B1184801681D3104F111002CF0DBF94A
:10582000012020740A20606012480068D0F805004A
:10583000104908600E480078401C0D49087003E0CC
:10584000002060740A490870002070BD70B50546DC
:105850000C46204600F0D2F908B9002070BD4FF088
:10586000FF30FBE7014600207047000008C6072014
:10587000B4C00720B0C00720E649096821B9E5494E
:1058800008600021C16004E0E2490968C160E149A3
:105890000860E0490979491CDE4A11717047FEB57C
:1058A0000546012400BF0CE0285D2F2806D0285DA6
:1058B00020B1295D601E0DF8001000E003E0601CBF
:1058C000C4B20A2CF0DB00BF0021601E0DF80010EE
:1058D0000A2C03DA00200DF8040001E00020FEBDD0
:1058E000CC48066807E0694630462CF059F908B9FB
:1058F0003046F4E7F668002EF5D10020EFE710B54A
:1059000004462F21601C2CF03AF910BD2DE9F04718
:1059100004460D4617464FF000082846FFF7BFFF24
:1059200006461EB94FF0FF30BDE8F087294604F166
:1059300011002CF050F92846FFF7E1FF81463A4666
:10594000014620467369984780464046ECE770B5AB
:10595000044604F11100FFF7A2FF05462046A9699D
:10596000884770BD2DE9F04104460E46174604F104
:105970001100FFF794FF05461DB94FF0FF30BDE859
:10598000F0813A4631462046EB699847F7E72DE922
:10599000F04104460E46174604F11100FFF77FFF61
:1059A00005461DB94FF0FF30BDE8F0813A4631465B
:1059B00020462B6A9847F7E770B5044604F11100BA
:1059C000FFF76DFF054615B94FF0FF3070BD20465B
:1059D000696A8847FAE770B5044604F11100FFF7D9
:1059E0005EFF054615B94FF0FF3070BD2046A96A2D
:1059F0008847FAE770B505462846FFF750FF04468A
:105A000014B94FF0FF3070BD2846FFF778FF064607
:105A1000E16A8847F7E770B505462846FFF73FFF7C
:105A2000044614B94FF0FF3070BD2846FFF767FFFA
:105A30000646216B8847F7E770B506460C463046A8
:105A4000FFF72DFF054615B94FF0FF3070BD20461A
:105A5000696D8847FAE770B504460E4604F11100F7
:105A6000FFF71DFF054615B94FF0FF3070BD3146F9
:105A700020466A6B9047F9E72DE9F04105460E464E
:105A80002846FFF70CFF04461CB94FF0FF30BDE875
:105A9000F0812846FFF733FF07463146A26B904757
:105AA000F5E770B505462846FFF7F9FE044614B938
:105AB0004FF0FF3070BD2846E16B8847FAE770B5BC
:105AC00005462846FFF7EBFE044614B94FF0FF30B9
:105AD00070BD2846216C8847FAE72DE9F04106465B
:105AE0000C463046FFF7DBFE05461DB94FF0FF3090
:105AF000BDE8F0812046FFF702FF471C3046FFF764
:105B0000FEFE00F10108394640466A6C9047EFE717
:105B100070B504460E4640A130462CF041F828BB33
:105B20003E48007818B93B4800683D49086039484C
:105B300000793A490978884212DD3948016804F150
:105B400011002CF048F81120207435480068C06816
:105B50003349086031480078401C3049087003E040
:105B600000202E4908706074002070BD3046FFF799
:105B700096FE054615B94FF0FF30F6E73146204650
:105B8000AA6C9047F1E72DE9F04105460E4622A1A7
:105B900030462CF005F838B9314628462CF01BF871
:105BA00000202862BDE8F0813046FFF778FE044609
:105BB00014B94FF0FF30F5E7314628462CF00BF8CA
:105BC0003046FFF79CFE074601462846E26C9047A8
:105BD000E8E770B5054610A128462BF0E1FF08B9AB
:105BE000002070BD2846FFF75AFE044614B94FF056
:105BF000FF30F6E72846216D8847F2E710B50446E6
:105C00002F2120462BF0BBFF08B9002010BD4FF01C
:105C1000FF30FBE7B8C007202F000000C0C00720FE
:105C2000C4C007202DE9F04104460E461746701CFB
:105C300009F006FA0546A560E8686060A87A207455
:105C4000A06818B94FF0FF30BDE8F0810020FBE7F5
:105C50002DE9F04104460E46174649A006F0C1FF63
:105C6000804649480078012807D1227C40462168B7
:105C700006F08FFF0020444908703A4631464046FE
:105C800006F069FF0546681C06D1404606F09FFFF6
:105C90004FF0FF30BDE8F081E560404606F097FF29
:105CA0000020F7E7034600207047024611600120FC
:105CB000354B187008467047014600207047014672
:105CC0004FF0FF30704701464FF0FF3070470146FC
:105CD0004FF0FF30704770B505460C462846FFF779
:105CE0008DFF20B9102020720020206070BD4FF081
:105CF000FF30FBE701464FF0FF30704701464FF0A1
:105D0000FF30704702464FF0FF30704770B50446D1
:105D10000D461E48007818B91D4800681D490860E6
:105D20001C480068B0B11B48016804F111002BF059
:105D300052FF0120207417480068C0686060154851
:105D4000006840691349086010480078401C0F49FA
:105D5000087003E0002060740C490870002070BDDA
:105D600070B505460C462046FFF748FF08B90020ED
:105D700070BD4FF0FF30FBE7014600207047000088
:105D8000534156455200000020C1072028C107207A
:105D9000B4C5072024C1072000F1080141604FF07D
:105DA000FF31816000F10801C160016100210160E3
:105DB0007047002101617047426853684B60436837
:105DC0008B605368996051604160086103685B1C97
:105DD0000360704710B502460B685C1C01D1106966
:105DE00007E002F1080000E04068446824689C4233
:105DF000FAD944684C604C68A160886041600A61CF
:105E00001468641C146010BDD0E901329A60D0E9B6
:105E100001235A6001694A68824201D182684A605E
:105E2000002202610A68521E0A6070472DE9F041A3
:105E300005460E4675B34C2001F078F904464CB384
:105E400005FB06F0471C384601F070F92060206819
:105E5000E8B1206805FB060060600020A0632068B0
:105E6000A060681E216800FB0610E060E563266400
:105E70004FF0FF306064A06404F11000FFF78CFF66
:105E800004F12400FFF788FF2046BDE8F08120469A
:105E900001F016FA0020F8E710B5044601F01BF9EE
:105EA0000DE0606A50B104F1240000F0BFFF08B1BA
:105EB00001F026F8A06C401EA06400E002E0A06C97
:105EC0000028EEDC00BF4FF0FF30A06401F00CF9B9
:105ED00001F001F90DE0206950B104F1100000F06B
:105EE000A5FF08B101F00CF8606C401E606400E092
:105EF00002E0606C0028EEDC00BF4FF0FF30606411
:105F000001F0F2F810BD70B5044601F0E4F8A06BA2
:105F1000E16B884201D1012000E00020054601F03C
:105F2000E3F8284670BD70B504460E461546206C51
:105F300038B9206838BB606801F030F80020606034
:105F400021E07DB93146226CA0682BF0D9FD216C8F
:105F5000A0680844A060D4E90110884213D32068E7
:105F6000A06010E03146226CE0682BF0C9FD216C86
:105F7000E068401AE0602168E068884203D2216C42
:105F80006068401AE060A06B401CA06370BDFFB564
:105F900083B004460E461D46002700BF01F09BF863
:105FA000A06BE16B884217D22A4631462046FFF7A4
:105FB000BAFF606A08B9012000E0002038B904F196
:105FC000240000F033FF012801D101F07FF801F037
:105FD0008BF8012007B0F0BD059818B901F084F8DE
:105FE0000020F7E71FB901A800F055FF012701F0D5
:105FF0007BF800F03EFB01F06EF8606C401C00D1B5
:106000006064A06C401C00D1A06401F06DF805A98B
:1060100001A800F047FFC0B92046FFF774FF70B138
:1060200004F11000059900F0D0FE2046FFF734FF80
:1060300000F0C3FA0028B1D101F048F8AEE72046DD
:10604000FFF72AFF00F0B9FAA8E72046FFF724FF80
:1060500000F0B3FA0020BDE710B54C2001F066F85F
:106060000446D4B1002060602060A060E060A063BE
:106070000120E06300202064401E6064A06404F1FD
:106080001000FFF789FE04F12400FFF785FE0023CE
:106090001A4619462046FFF77AFF204610BD2DE923
:1060A000F0470446884616461F464FF00009FFF7A2
:1060B00055F8A06BE16B884216D23A46414620461D
:1060C000FFF731FFA06C401C09D1606A50B104F1A8
:1060D000240000F0ABFE28B10120306002E0A06C8B
:1060E000401CA064012500E00025FFF73EF828468B
:1060F000BDE8F08770B5044600F0EDFFA06B08B96D
:10610000012000E00020054600F0EEFF284670BDAB
:1061100070B504460D46206870B1216CE0680844F3
:10612000E0606168E068884201D32068E06028464A
:10613000226CE1682BF0E4FC70BD2DE9FF4182B0D8
:1061400004460F461D464FF0000800BF00F0C3FF95
:10615000A06B60B3E66839462046FFF7D9FFB5B9B2
:10616000A06B401EA063206810B900F0DEFE6060E6
:10617000206908B9012000E0002090B904F1100066
:1061800000F054FE01280CD100F0A0FF09E0E66009
:10619000606A30B104F1240000F048FE08B100F05C
:1061A00095FF00F0A1FF012006B0BDE8F081049842
:1061B00018B900F099FF0020F6E7B8F1000F04D1FC
:1061C000684600F068FE4FF0010800F08DFF00F017
:1061D00050FA00F080FF606C401C00D16064A06C3D
:1061E000401C00D1A06400F07FFF04A9684600F0C5
:1061F00059FE08BB2046FFF77DFFB8B1206830B9D3
:1062000000F069FF606800F093FE00F06DFF04F19C
:106210002400049900F0D9FD2046FFF73DFE00F070
:10622000CCF9002892D100F051FF8FE72046FFF70C
:1062300033FE00F0C2F989E72046FFF72DFE00F09B
:10624000BCF90020B0E72DE9F04104460F461646A0
:106250004FF00008FEF782FFA06BC0B13946204620
:10626000FFF756FFA06B401EA063606C401C09D175
:10627000206950B104F1100000F0D8FD28B10120D0
:10628000306002E0606C401C6064012500E0002585
:10629000FEF76BFF2846BDE8F08170B5044600F0BC
:1062A0001AFFA56B00F020FF284670BD0146886BE1
:1062B000704710B50446206801F002F8204600F04F
:1062C000FFFF10BD01468A6B0AB9012200E00022DF
:1062D0001046704701468A6BCB6B9A4201D101226E
:1062E00000E000221046704710B5002407E004EBE0
:1062F0008401F84A02EB8100FFF74EFD641C052C77
:10630000F5D3F548FFF748FDF448FFF745FDF4489D
:10631000FFF742FDF348FFF73FFDF348FFF73CFD71
:10632000ED48F2490860ED48F149086010BD2DE9DB
:10633000F04104460E4615469846069F0C2231460B
:1063400004F134002BF00FFC00213F200155052DF6
:1063500000D30425E5626564201DFFF72AFD04F1E2
:106360001800FFF726FD2461C5F10500A0616462F5
:106370000020A064BDE8F08170B505460E464C20B3
:1063800000F0D4FE044694B11EB9A80000F0CEFE81
:1063900000E030462063206B20B9204600F090FFDB
:1063A000002404E0A900A522206B2BF0BBFB2046B3
:1063B00070BD2DE9FF4F81B0804615469946DDE955
:1063C0000E7A28461099FFF7D7FF0446F4B3681EEB
:1063D000216B01EB800B2BF0070B00953A46204612
:1063E000119B0299FFF7A3FF4A464146584600F029
:1063F0003FFE206000F06FFEBE480068401CBD49B3
:10640000086008460068012804D1BB480460FFF713
:106410006BFF09E0B948006830B9B7480068C06A46
:10642000B84201D8B4480460B549E06A09688842B6
:1064300002D9B349E06A0860B24800682064B148F4
:106440000068401CAF490860AF4900E013E0E06A13
:106450000968884202D9AC49E06A0860E16A01EB48
:1064600081019C4A02EB8100211DFFF7A5FC01265A
:1064700000F03AFE01E04FF0FF36012E0ED1BAF1E6
:10648000000F01D0CAF800409C48006830B19A481B
:106490000068C06AB84201D200F018FE304605B06C
:1064A000BDE8F08F70B5044600F015FE92492068F3
:1064B0000968884201D100202060206810B98E4808
:1064C000006800E020680546281DFFF79DFCA86ACB
:1064D00018B105F11800FFF797FC291D8148FFF757
:1064E0006BFC8A480068401C884908608548006841
:1064F000401C8449086000F0F7FD8048006818B12E
:10650000206808B900F0E2FD70BD10B58048006851
:10651000F0BB80480068401C7E490860084600685F
:1065200068B97249086872490968704A116070490F
:10653000086079490968491C774A116000BF1FE06B
:10654000744960680968884200D927E0201DFFF778
:106550005BFCA06A18B104F11800FFF755FC6A490A
:10656000E06A0968884202D96749E06A0860E16A1E
:1065700001EB8101574A02EB8100211DFFF71CFC52
:106580005A480068006830B158480068C06800E0A8
:1065900006E0C06800E000200400D1D100BF06E0A2
:1065A0005E480068401C5D49086025F043FC5B487C
:1065B000006808B925F03EFC10BD70B5002500F05C
:1065C0008AFD53480068401E51490860084600682B
:1065D00088BB4848006870B300261EE004F118002C
:1065E000FFF712FC201DFFF70FFC4749E06A09681E
:1065F000884202D94449E06A0860E16A01EB8101FE
:10660000344A02EB8100211DFFF7D6FB3A49E06ACC
:106610000968C96A884200D301263148006818B168
:106620002F48C068C06800E000200400D6D13B4875
:10663000006868B107E018E0FFF767FF37480068B7
:10664000401E36490860354800680028F4D101260C
:10665000012E03D032480068012805D10125002011
:106660002F49086000F032FD00BF00F03DFD2846D4
:1066700070BD27480068401C25490860704770B508
:106680000446002614B3FFF7F4FF224800680519FA
:1066900019480068001DFFF7B7FB17480068456000
:1066A0001C480068854207D213480168091D10483C
:1066B0000068FFF78FFB06E00F480168091D0B48D3
:1066C0000068FFF787FBFFF778FF06460EB900F07A
:1066D000FDFC70BD04DE072068DE07207CDE07209D
:1066E00090DE0720A4DE0720B8DE072068C107205F
:1066F0006CC1072034C107202CC1072044C10720EA
:106700003CC1072058C1072040C1072030C10720E5
:1067100048C1072038C1072054C107204CC10720B9
:1067200050C1072070B5044600F0D5FC14B9FD48EF
:10673000006800E020460646F56A00F0D5FC2846D1
:1067400070BD2DE9F04106460D464FF00008052DBD
:1067500000D3042500F0BFFCF2480068864200D157
:10676000002616B9EF48006800E030460446676C22
:10677000AF4232D0BD4203D92EB14FF0010802E042
:106780000EB94FF00108E16A606C884200D1E56201
:106790006564C5F10500A06107EB8701E24A02EBE1
:1067A00081016069884213D1201DFFF72DFBDF496D
:1067B000E06A0968884202D9DC49E06A0860E16A57
:1067C00001EB8101D84A02EB8100211DFFF7F4FAA9
:1067D000B8F1010F01D100F079FC00F085FCBDE8B3
:1067E000F08170B5044600F076FCCE480068844223
:1067F00000D1002414B9CB48006800E020460546CB
:10680000281DFFF701FBA86A18B105F11800FFF772
:10681000FBFA291DC648FFF7CFFA00F065FC0CB95A
:1068200000F054FC70BD10B5014600200A46C04C73
:106830005369A34201D1012300E0002383B1BD4C81
:10684000936AA34201D1012300E00023012B07D06A
:10685000936A0BB9012300E00023012B00D1012032
:1068600010BD70B505462C4644B3AE48006884425E
:1068700024D000F030FC2046FFF7D5FF01281BD1C3
:10688000201DFFF7C1FAA949E06A0968884202D9C8
:10689000A649E06A0860E16A01EB8101A24A02EBC5
:1068A0008100211DFFF788FA9E49E06A0968C96ADC
:1068B000884201D300F00AFC00F016FC70BD70B5F0
:1068C000054600262C462046FFF7ADFF012826D1BD
:1068D00099480068F0B99349E06A0968C96A884232
:1068E00001D3012000E000200646201DFFF78CFAAE
:1068F0008E49E06A0968884202D98C49E06A0860DA
:10690000E16A01EB8101884A02EB8100211DFFF75A
:1069100053FA04E004F118018648FFF74DFA3046B7
:1069200070BD10B50446206B00F0CAFC204600F094
:10693000C7FC10BD70B58148006848B3FFF799FEE9
:106940007F48006808B9012000E000200546FFF7F5
:1069500034FEEDB900F0BFFB7948006818B1784803
:10696000C068C06800E000200446201DFFF74CFA14
:1069700074480068401E7349086070480068401EF3
:106980006E49086000F0B0FB2046FFF7CAFF00BF69
:1069900070BD00BF01F0C3FFFFF7CCFF6248006885
:1069A0000128F7D900F092FBF4E71FB5002300930C
:1069B00001930293202264A165480393FFF7F9FC39
:1069C0000446012C0BD1FEF7C9FB01206149086088
:1069D00000206149086006F00CFA00F05DFB1FBD65
:1069E00010B5FEF7BBFB00205A49086000F06DFBB4
:1069F00010BD10B500F06FFB5748046800F074FB41
:106A0000204610BD4F48006870470146002002E054
:106A1000491C421C90B20A78A52AF9D08008704718
:106A20002DE9FE4380460C461646204641684968DB
:106A3000416000F1080142688A4202D14168496818
:106A400041604168CF6800BF2046416849684160A5
:106A500000F1080142688A4202D1416849684160F8
:106A60004168CD68286BFFF7D0FF81462B6CE96A3F
:106A7000CDE901930091334605F1340237A13C483A
:106A80002CF0AAFA3A4940462BF05FF8BD42DBD120
:106A9000BDE8FE8370B50546FFF7EBFD00202870CA
:106AA00034A128462BF051F833480068441C00BF3D
:106AB000641E04EB84001C4951F8200040B104EB33
:106AC00084000A4602EB800152222846FFF7A8FF05
:106AD000002CEDD129480068006828B142222748DF
:106AE00001682846FFF79CFF25480068006828B128
:106AF0004222234801682846FFF792FF10480068A9
:106B000020B144220E492846FFF78AFF0848006852
:106B100020B1532206492846FFF782FFFFF74DFDBB
:106B200070BD00002CC1072004DE072040C10720F3
:106B3000B8DE072090DE072048C1072030C10720BB
:106B4000A4DE072034C1072049444C450000000062
:106B50009369000044C1072038C107202573090943
:106B600025630925750925750925750D0A0000009D
:106B7000FEDE07200D0A00003CC1072068C1072087
:106B80006CC107202DE9F84381460C461646204685
:106B900041684968416000F1080142688A4202D1B7
:106BA0004168496841604168D1F80C8000BF2046C7
:106BB00041684968416000F1080142688A4202D197
:106BC0004168496841604168CD6816B3A86C30B926
:106BD00005F13402FBA1FF482CF0FEF915E0A86C8A
:106BE00064214843B0FBF6F747B10097AB6C05F161
:106BF0003402F9A1F7482CF0EFF906E0AB6C05F18F
:106C00003402F9A1F3482CF0E7F9F24948462AF09A
:106C10009CFF4545CBD1BDE8F88370B5054606F02D
:106C20001DF90646FFF725FD00202870EDA1284636
:106C30002AF08BFFF0480068441C00BF641E04EB80
:106C40008400EE4951F8200040B104EB84000A466C
:106C500002EB800132462846FFF794FF002CEDD16D
:106C6000E7480068006828B13246E54801682846D0
:106C7000FFF788FFE3480068006828B13246E14822
:106C800001682846FFF77EFFDF48006820B13246E2
:106C9000DD492846FFF776FFDC48006820B1324620
:106CA000DA492846FFF76EFFFFF787FC70BD70B525
:106CB00004460D4600F00FFAD5480460D54804603C
:106CC000A5F108002044D44908600120D349086098
:106CD00000F00AFA70BD10B500F0FDF90020CF49B0
:106CE000086000F001FACA480068CA490968441AF5
:106CF000204610BD10B5CA48006818B10120C94926
:106D0000086010BD06F0AAF80446C749096801F1F9
:106D10004800896CC54A1268A21A11440160C34830
:106D2000046004E0C2480068401EC1490860C048D1
:106D3000006800EB8000B14951F820000028F1D034
:106D4000BB49096801EB8101AC4A02EB8100416853
:106D50004968416000F1080142688A4202D14168F5
:106D6000496841604168C968AF4A1160AB48006832
:106D700028B310460068006CAE490968884222D0EA
:106D8000A34800680830A4490968884218D2104610
:106D90000068006CA7490860A74800689C4909681A
:106DA00008609B480068001D99490860A148006878
:106DB0000968086096480068001D9549086002E06F
:106DC00000209649086000BF9BE770B506460C4658
:106DD0009548016818313046FEF7FCFF924800687C
:106DE000001DFFF711F8601C06D18F480168091DCE
:106DF0008648FEF7E1FF18E08F48006805198A48C9
:106E0000006845608C480068854207D28648016862
:106E1000091D7C480068FEF7DDFF06E08248016836
:106E2000091D77480068FEF7D5FF70BD70B50546AF
:106E3000286810B1E868C06800E00020044604F14A
:106E40001800FEF7E1FF76480068A0B9201DFEF7A4
:106E5000DBFF7749E06A0968884202D97449E06A31
:106E60000860E16A01EB8101644A02EB8100211DA7
:106E7000FEF7A2FF04E004F118017048FEF79CFF42
:106E80006949E06A0968C96A884201D3012600E0BD
:106E90000026304670BD6A49096801606649096884
:106EA0004160704770B504460D4600F014F928683B
:106EB000401C01D100261FE0614920680968884212
:106EC00006D05D4960680968884201D8012613E050
:106ED000594960680968081A296888420BD22868ED
:106EE000554A61681268511A401A28602046FFF717
:106EF000D2FF002600E0012600F0F6F8304670BD13
:106F000001204849086070472DE9F041044614B952
:106F10004548006800E0204607463D6B2846FFF7DD
:106F200074FD06463046BDE8F0813F490868704769
:106F300070B505462C463C49E06A0968C96A884232
:106F40002BD239480068C06AC0F10500A061E16A2F
:106F500001EB8101294A02EB81016069884218D165
:106F6000201DFEF751FF30480068C06AE0623049DA
:106F7000E06A0968884202D92D49E06A0860E16A3E
:106F800001EB81011D4A02EB8100211DFEF714FF78
:106F900003E025480068C06AE06270BD70B5054630
:106FA0002C4675B1616CE06A88425BD0201DFEF70B
:106FB0002BFF606CE062E06AC0F10500A0611C4933
:106FC00040E04FE0257309093009093025250D0AF5
:106FD00000000000CCDE072025730909257509098A
:106FE000257525250D0A0000257309092575090950
:106FF0003C3125250D0A00003CC1072004DE072096
:1070000068C107206CC10720A4DE0720B8DE072076
:1070100070C1072074C1072078C1072060C1072014
:1070200048C1072050C107202CC107205CC10720A0
:1070300040C1072064C1072038C1072090DE072027
:1070400054C10720E06A0968884202D90649E06A0B
:107050000860E16A01EB8101044A02EB8100211D15
:10706000FEF7AAFE70BD000040C1072004DE072025
:10707000001F4FF080730360001F0160001F00239A
:107080000360143802602038704724484FF0E02134
:10709000486107200861704710B52148006840F436
:1070A00078004FF0E021C1F8200D0846D0F8200DFF
:1070B00040F07840C1F8200DFFF7E7FF00201949A4
:1070C0000860FEF725F8002010BD70474FF0805093
:1070D00015490860704710B5FEF740F81148006880
:1070E000401C1049086010BD10B50E480068401ED5
:1070F0000C4908600846006808B9FEF736F810BD6C
:1071000010B54FF08050084908604FF00004FEF7BA
:1071100025F8FFF7FAF9FEF728F810BD9F86010061
:1071200020ED00E06800001004ED00E02DE9F041E2
:1071300004464FF00008FFF79CFA7D48006898B9B4
:107140007C497D4A11600021516046F660517B4ABE
:10715000516000211160774846F660514160114648
:10716000016001207249086044B1103414F0070F27
:1071700004D004F00700C0F1080004448CB346F6C4
:10718000605084422DD26C4F3846056801E02F468E
:107190002D686868A04202D228680028F7D16748A5
:1071A00085421ED0386800F1100828683860686889
:1071B000001B202810D92E196868001B70606C60B5
:1071C00071685D4800E00068026852688A42FAD33C
:1071D00002683260066000BF59480068001B5849C9
:1071E0000860FFF7EAF94046BDE8F081F0B50025F8
:1071F000514801680A680B4604464EE04868451845
:107200003EE0954235D148685668B0420ED2486893
:107210005668304448600868904202D11068206087
:107220001AE0086820601068186015E04868566821
:10723000B0420ED9486856683044486010688842A9
:1072400002D10868186007E00868206010681860BC
:1072500002E04FF0FF30F0BD4E68374800E00068B4
:1072600007687F68B742FAD307680F6001600120A2
:10727000F1E713461868904201D100BFFEE71A6893
:1072800010680028BDD10C462068884201D100BF9B
:10729000FEE7216828480268034608680028ADD147
:1072A00000BFD8E710B50024FFF715FF00BFFFF7B8
:1072B0009DFF04460CB1601CF9D1FFF715FF10BD0E
:1072C00070B50646FFF7D5F93546A6B1103D2C46F8
:1072D0006168194800E00068026852688A42FAD37F
:1072E000026822600460164960680968084414490D
:1072F0000860FFF7D7FFFFF760F970BD104800681E
:107300007047704710B502460B48002313800B806E
:1073100000BF14884368A34201D9436813800B88D7
:10732000446823440B8000680368002BF1D110BD32
:1073300084C10720C007001088C1072090C1072022
:107340007CC107201FB509F081FE00210120FEF756
:107350006DFD2A4908600846006830B100231A46CE
:10736000194626480068FEF712FE00232449022031
:107370008DE80B00C02223A124480393FFF719F8DE
:10738000FFF713FB002004B010BD2DE9F8430746BA
:107390000024A04600263D461EE0285D2E2819D177
:1073A0000020285505EB08002AF039FDC0B20DF881
:1073B0000600701CC6B2601C00F0FF08032E09D145
:1073C00005EB08002AF02BFDC0B20DF8060000986E
:1073D000BDE8F883601CC4B2285D0028DDD1401EE2
:1073E000F6E770B5054628462AF019FD84B2261244
:1073F00046EA042084B2204670BD00006C000010F4
:10740000700000105553455200000000F78800003E
:1074100010B50446092C42D2DFE804F041050E17EE
:1074200020292F353B0001202049087000221146F9
:107430001FA000F06AFF32E001201C490870002202
:10744000114621A000F061FF29E0012017490870D2
:107450000022114622A000F058FF20E0012013492D
:1074600008700022114624A000F04FFF17E0002210
:10747000114627A000F049FF11E00022114629A083
:1074800000F043FF0BE0002211462BA000F03DFF6F
:1074900005E0002211462EA000F037FF00BF00BF1C
:1074A0004FF40021012007F0DBFE10BD7600001034
:1074B000C4E0F2F7E8EAE83A20EEF8E8E1EAE02092
:1074C000EFE0ECFFF2E80000D1EEE1FBF2E8FF3A7A
:1074D00020EEF8E8E1EAE020EFE0ECFFF2E800005F
:1074E000C4E0F2F7E8EAE83A20EEF8E8E1EAE02062
:1074F000F4E0E9EBE0000000D1EEE1FBF2E8FF3A56
:1075000020EEF8E8E1EAE020F4E0E9EBE00000003A
:107510004641543A20EEF8E8E1EAE020F4E0E9EBF5
:10752000E00000004641543A20EEF8E8E1EAE020AD
:10753000EFE0ECFFF2E80000D2E0E9ECE5F03A2001
:10754000EEF8E8E1EAE020F4E0E9EBE0000000001A
:107550004155544F47524150483A2066696C652066
:107560006572726F72000000FE480078704710B5B7
:107570000446082C2DD2DFE804F004050E0F18197C
:10758000222300BF012026F0E0FE4FF0806103209F
:1075900007F070FE1DE000BF022026F0D6FE4FF07F
:1075A0000071032007F066FE13E000BF032026F001
:1075B000CCFE4FF08051012007F05CFE09E000BFD7
:1075C000042026F0C2FE4FF00051012007F052FEC9
:1075D00000BF00BF10BD10B5044634B1012C08D067
:1075E000022C0AD0032C10D10BE0012026F0ADFEB6
:1075F0000BE0022026F0A9FE07E0032026F0A5FEFE
:1076000003E0042026F0A1FE00BF00BF10BD2DE95D
:10761000FE4301E19DF804006F287AD01CDC672846
:107620003BD010DC14286AD006DC0D2868D00E2868
:1076300067D0122822D1D2E0642819D065281ED044
:1076400066281BD122E06838072817D2DFE800F04F
:107650002C333A41484F5A0070380E280ED2DFE8DA
:1076600000F05F666D747B828990979EA5ACB3B77E
:10767000BD48006840F00100BB490860CBE0BA4853
:10768000006840F00200B8490860C4E0B6480068ED
:1076900040F00400B4490860BDE0B348006840F021
:1076A0000800B1490860B6E0AF48006840F010003B
:1076B000AD490860AFE0AC48006840F02000AA493E
:1076C0000860A8E0A848006840F04000A6490860AB
:1076D000A1E0A548006840F08000A34908609AE056
:1076E000A148006820F001009F49086093E09E488F
:1076F000006820F002009C4908608CE009E06BE023
:1077000070E07AE09848006820F00400964908602C
:1077100081E09548006820F00800934908607AE00D
:107720009148006820F010008F49086073E08E488F
:10773000006820F020008C4908606CE08A480068EE
:1077400020F040008849086065E08748006820F024
:107750008000854908605EE08448007840F00100C0
:107760008249087057E08148007840F002007F4964
:10777000087050E07D48007840F004007B490870B4
:1077800049E07A48007840F008007849087042E003
:107790007648007820F00100744908703BE0734897
:1077A000007820F002007149087034E06F480078DA
:1077B00020F004006D4908702DE06C48007820F03E
:1077C00008006A49087026E001206949087022E033
:1077D0000020674908701EE014F041F91BE026F014
:1077E000C7FA18E001F0E8F962480078022803D1EE
:1077F0000299C8B226F04AFD0DE05F48007880F09B
:10780000FF005D4908705B480078022802D1002023
:1078100026F089FA00BF00BF00231A4601A9574885
:107820000068FEF78AFC00287FF4F4AE5148007827
:1078300010B15348007808B1BDE8FE835148006894
:10784000514908604F48406848604948007801281D
:107850000FD14448007860B931214C482AF069F9C9
:107860004BA14A482BF0B8FB00221146474800F0D4
:107870004CFD3F4800783B490870002637E0012066
:10788000B0403A4909780840002823DD0120B04083
:1078900043490978084229D10121B140C8B226F0F4
:1078A00090FDF0B2FFF797FE0120B0403D49097806
:1078B00008433C490870312134482AF03AF9721CD7
:1078C00039A132482BF088FB002211462F4800F0E6
:1078D0001CFD0BE00120B040314909780840002828
:1078E00004DD0121B140C8B226F071FD761C042EE2
:1078F000C5DB1E4800782A490870002684E0012074
:10790000B0402749097808427DD036B1012E16D003
:10791000022E53D0032E75D162E01348006820F088
:107920000300114908601748006820F0030015495A
:1079300008600846406840F00300486062E00A487A
:10794000006820F00C00084908600E48006820F02C
:107950000C000C4908600846406840F00C00486084
:1079600050E00000A3C30720A4C30720A8C307203A
:10797000A9C30720C5000010A0C3072014C6072014
:1079800076000010ACC30720B4C3072030DF072007
:10799000C4E2E5F0FC20EEF2EAF0FBF2E0000000C9
:1079A000A1C30720A2C30720D2F0F3E1E0202564A1
:1079B0003A20EDE5F220F1E2FFE7E800FF48006839
:1079C00020F03000FD490860FD48006820F03000DC
:1079D000FB4908600846406840F03000486011E00C
:1079E000F648006820F0C000F4490860F4480068D8
:1079F00020F0C000F24908600846406840F0C0002E
:107A0000486000BF00BF761C042EFFF678AFEB483D
:107A1000006810F0020F03D0022026F0C6FC02E03E
:107A2000022026F0C8FCE548006810F0080F03D0DB
:107A3000082026F0BAFC02E0082026F0BCFCDF4853
:107A4000006810F0200F03D0202026F0AEFC02E0EA
:107A5000202026F0B0FCD948006810F0800F03D039
:107A6000802026F0A2FC02E0802026F0A4FC002664
:107A7000D7E00120B040D149096808426FD0D04812
:107A800040680121B14008426AD10121B140C8B229
:107A900026F07FFCF0B2FFF76AFDC94800680121BB
:107AA000B140084275D13121C6482AF042F8082E6B
:107AB0002DD2DFE806F004090E13181D2227C2A0FC
:107AC0000CF087F8074622E0C0A00CF082F80746C9
:107AD0001DE0BFA00CF07DF8074618E0BDA00CF03B
:107AE00078F8074613E0BCA00CF073F807460EE0E8
:107AF000BAA00CF06EF8074609E0B9A00CF069F8DE
:107B0000074604E0B7A00CF064F8074600BF00BFCA
:107B100027B9B5A1AB482BF05FFA6CE0082E2FD245
:107B2000DFE806F004090E13181F2429B4A1A548A4
:107B30002BF052FA24E0B8A1A2482BF04DFA1FE036
:107B4000BAA1A0482BF048FA1AE0BEA19D482BF03C
:107B500043FA15E0C0A19B482BF03EFA10E058E034
:107B60005EE0C3A197482BF037FA09E0C5A195481C
:107B70002BF032FA04E0C9A192482BF02DFA00BF95
:107B800000BF0122694638460BF0D4FE082E31D2E0
:107B900000E036E0DFE806F00419051A061B071CB2
:107BA00000BF00BF00BF00982AF0D6FA04460D4679
:107BB000844829F0EDFF834900EB010822462B465B
:107BC000BBA140462BF008FA14E000BF00BF00BF85
:107BD00000982AF0C1FA04460D467A4829F0D8FFE9
:107BE000784900EB010822462B46B4A140462BF011
:107BF000F3F900BF00BF00221146724800F085FB78
:107C000000BF6F4800680121B14008436C4908601B
:107C100006E06B4840680121B140884368494860EC
:107C2000761C082EFFF625AFA7480068644909684E
:107C3000884205D1A448406861494968884210D00B
:107C4000A2A004F0CEFF814600221146484604F06F
:107C500073FF01225A49484604F05FFF484604F08A
:107C6000B6FF00BFE8E570B5054698A004F0B9FF7F
:107C70000646012D06D0022D2BD0032D50D0042D09
:107C800026D174E04E48006820F001004C4908609D
:107C90000846006820F0020008600846406840F08E
:107CA000010048600846406840F00200486001203A
:107CB00026F075FB022026F072FB4FF08061032056
:107CC00007F0CEFA8348007820F00100814908705F
:107CD00003E13B48006820F0040039490860084689
:107CE000006820F0080008600846406840F0040082
:107CF00048600846406840F008004860042026F0CC
:107D00004EFB082026F04BFB4FF00071032007F0DC
:107D1000A7FA7048007820F002006E490870DCE095
:107D20002748006820F010002549086008460068D0
:107D300020F0200008600846406840F010004860CD
:107D40000846406840F020004860102026F027FBDD
:107D5000202026F024FB4FF08051012007F080FA0C
:107D60005C48007820F004005A490870B5E01448D7
:107D7000006820F04000124908600846006820F0C2
:107D8000800008600846406840F0400048600846AF
:107D9000406840F080004860402026F000FB8020D2
:107DA00026F0FDFA4FF00051012007F059FA49483A
:107DB000007820F00800474908708DE0A4C3072030
:107DC000ACC3072030DF07205330000053310000E0
:107DD0005332000053330000533400005335000089
:107DE0005336000053370000D1EEE1FBF2E8FF3AD2
:107DF00020EDE5F220E4E0F2F7E8EAE00000000020
:107E0000D2F0F3E1E020312C20E8E7EEEBFFF6E8DA
:107E1000FF0D523D00000000D2F0F3E1E020312CD4
:107E200020F1E8E3EDE0EB0D523D0000D2F0F3E18C
:107E3000E020322C20E8E7EEEBFFF6E8FF0D523DA4
:107E400000000000D2F0F3E1E020322C20F1E8E362
:107E5000EDE0EB0D523D0000D2F0F3E1E020332CD9
:107E600020E8E7EEEBFFF6E8FF0D523D00000000D2
:107E7000D2F0F3E1E020332C20F1E8E3EDE0EB0D6C
:107E8000523D0000D2F0F3E1E020342C20E8E7EE90
:107E9000EBFFF6E8FF0D523D00000000D2F0F3E1E9
:107EA000E020342C20F1E8E3EDE0EB0D523D000042
:107EB00025302E316620EACEEC00000025302E3130
:107EC0006620CEEC00000000B4C3072053415645A5
:107ED00052000000A2C3072000BF00BF00221146CD
:107EE000304604F029FE01227549304604F015FEA3
:107EF000304604F06CFE002410E00120A0407149DF
:107F000009780840002808DD0121A140C8B226F008
:107F100058FAE0B2FFF75FFB02E0641C042CECDBD4
:107F200000BF00240EE0664801680120A040014225
:107F300007D0E0B2FFF71BFB0121A140C8B226F039
:107F400028FA641C082CEEDB70BD24F058FE00BF3C
:107F50005D480078012807D125F055FF01205B49D5
:107F600008700220584908705848007801280BD141
:107F70000220564908705448007810B90020FFF7D5
:107F800072FE012025F0CFFEFFF741FB3220FEF705
:107F900076FBDDE770B508211E20FDF747FF4C4951
:107FA00008604C480CF098F84B480CF095F84B489A
:107FB0000CF092F84A480CF08FF84A480CF08CF814
:107FC00049480CF089F849480CF086F848480CF00C
:107FD00083F848480CF080F847480CF07DF8474893
:107FE0000CF07AF846480CF077F846480CF074F834
:107FF00045480CF071F845480CF06EF844480CF018
:108000006BF844480CF068F843480CF065F84348B6
:108010000CF062F842480CF05FF842480CF05CF853
:1080200041480CF059F841480CF056F840480CF023
:1080300053F840480CF050F83F480CF04DF84FF022
:108040008061032007F00CF94FF00071032007F066
:1080500007F94FF08051012007F002F94FF000516D
:10806000012007F0FDF801229106032007F0E4F853
:1080700001225106032007F0DFF801221107104604
:1080800007F0DAF801225107104607F0D5F8AFF2F1
:10809000C41004F0A6FD054600221146284604F04F
:1080A0004BFD01220649284604F028FD04462846D7
:1080B00004F08DFD1CB9002001490860486070BDC6
:1080C000ACC30720A2C3072076000010C500001033
:1080D00014C6072098C10720ACC10720C0C10720E3
:1080E000D4C10720E8C10720FCC1072010C2072027
:1080F00024C2072038C207204CC2072060C20720D4
:1081000074C2072088C207209CC20720B0C2072083
:10811000C4C20720D8C20720ECC2072000C3072032
:1081200014C3072028C307203CC3072050C30720DF
:1081300064C3072078C307208CC3072070B50AF0FA
:1081400007FAB8B1FFA00AF09BFC401C00D170BD3B
:10815000FEA1FCA00AF074FA054605B9F7E7284627
:1081600029F05DFE0446FF2C01DC002C00DAEEE76E
:10817000F9490C7000BFEAE72DE9F041002707E05C
:10818000F648F74941F8370001EBC70148607F1C0A
:10819000042FF5DB0AF0DCF9F0B3F2A00AF070FC72
:1081A000401C0DD0F0A1EFA00AF04AFA06463EB1FD
:1081B00030462BF098FB04462AF00CF8E84908609A
:1081C000EAA00AF05DFC401C0DD0E7A1E7A00AF090
:1081D00037FA06463EB130462BF085FB044629F0BF
:1081E000F9FFDF494860E2A00AF04AFC401C0DD0CC
:1081F000DDA1DFA00AF024FA06463EB130462BF09E
:1082000072FB044629F0E6FFD5498860D9A00AF040
:1082100037FC401C0FD000E059E0D3A1D5A00AF0F4
:108220000FFA06463EB130462BF05DFB044629F0BE
:10823000D1FFCB49C860D0A00AF022FC401C0DD071
:10824000C9A1CDA00AF0FCF906463EB130462BF09C
:108250004AFB044629F0BEFFC1490861C7A00AF0E5
:108260000FFC401C0DD0C0A1C4A00AF0E9F90646DD
:108270003EB130462BF037FB044629F0ABFFB8493E
:108280004861BFA00AF0FCFB401C0DD0B6A1BCA009
:108290000AF0D6F906463EB130462BF024FB0446E0
:1082A00029F098FFAE498861B6A00AF0E9FB401CAE
:1082B0000DD0ADA1B3A00AF0C3F906463EB13046D9
:1082C0002BF011FB044629F085FFA549C861BDE8E4
:1082D000F081024619B9A24850F832007047A04810
:1082E00000EBC2004068F9E710B5A748FDF7C4FAF3
:1082F000A648FDF7C1FAA648FDF7BEFAA548FDF766
:10830000BBFAA5A0FDF7CDFB10BD70B504460D4628
:10831000164632462946204626F083FE70BD08B533
:108320000025002000909F4824F0AAFA06F00BFFD9
:1083300000BF15B1012D2ED10FE09BA004F051FC20
:1083400006460022D021304604F032FC18B13046F7
:1083500004F03DFC00E001251DE00022D021304664
:1083600004F026FC20B1304604F031FC002512E078
:108370006A4663218B4824F0F2FA04469DF8000017
:1083800040B163239DF80020611C864824F041FA27
:108390000020009000BFCCE73EB50446854824F09D
:1083A00067FA00BF00235A1E694683480068FDF73C
:1083B000C4FE00B93EBD9DF80000032804D100F0C2
:1083C000EBFC05F09DF900E000BFEBE70020FEF7B5
:1083D00008FA7AA004F005FCFEF77DFE00BFFEE778
:1083E0001FB501229105104606F026FF0122D10497
:1083F000104606F021FF01222021022006F01CFF7A
:108400004FF40021012006F035FF2021022006F064
:1084100031FF04F0FFFA0BF077F80BF081FA69A056
:108420000AF0A9F80BF0F0FB0AF051FB6AA00AF081
:10843000A2F8FFF7AFFDFFF79FFE0BF0C1FF0AF0B8
:1084400046FB6AA00AF097F823F008FE00F0DBFC78
:1084500000F0BEFCFFF772FE27F009F823F0F2FCF3
:1084600026F038FF00F0F8FB00F08AFC29F08CF8C9
:1084700013F029FB29F080FA05F0A6FE0AF027FB8D
:1084800000235F4901208DE80B00C0225DA15F48F9
:108490000393FDF78EFF5A48006838B90022114651
:1084A0005BA0FFF732FF5FA0FCF778FE012300938B
:1084B0000023C02260A1614810F0EEFF604908600F
:1084C0000846006838B9002211465EA0FFF71DFF7C
:1084D00060A0FCF763FE012300930023802261A1CA
:1084E000624811F0EBFA624908600846006838B942
:1084F000002211465FA0FFF708FF63A0FCF74EFEC5
:108500000023664901208DE80B00C02264A1664863
:108510000393FDF74EFF6148006838B90022114609
:1085200062A0FFF7F2FE66A0FCF738FE002369495F
:1085300001208DE80B00C02267A169480393FDF775
:1085400038FFCFE0444953504C415900436F6E749B
:10855000726173740000000075000010000080BF9D
:1085600064DF072030000000565F32003100000059
:10857000320000003300000034000000350000002D
:1085800036000000370000000800001058C0072027
:1085900000C00720C8C007202F6174343564622FE3
:1085A0000000000084DF07205443505F52454449D7
:1085B0005200000040060010C0000010535350301D
:1085C000000000002F6174343564622F53454E5310
:1085D0004F52532E696E69002F6174343564622FD7
:1085E0004556454E54532E696E6900002F61743410
:1085F0003564622F444556434F4E2E696E69000024
:10860000B00700104D4F44454D0000009713030084
:108610004D4F44454D5F5441534B204552524F52AC
:10862000000000004D4F44454D5F5441534B2045E1
:1086300052524F520A0000004654500085940100E7
:1086400098000010CEF8E8E1EAE02046545020748B
:1086500061736B004654505F5441534B2045525256
:108660004F520A0048545450000000005F9A010025
:108670009C000010CEF8E8E1EAE020485454502075
:108680007461736B00000000485454505F544153B0
:108690004B204552524F520A00000000A00000102B
:1086A00054656C6E6574000017B30100CEF8E8E104
:1086B000EAE02054656C6E6574207461736B000091
:1086C00054656C6E65745F5441534B204552524F54
:1086D000520A0000A40000104576656E7400000088
:1086E0004B7F0000D048006838B900221146CFA067
:1086F000FFF70BFED2A0FCF751FD0023D549042063
:108700008DE80B004022D4A1AFF23F300393FDF778
:1087100050FED048006838B900221146CFA0FFF7BC
:10872000F4FDD3A0FCF73AFD0023D54901208DE8E4
:108730000B000202D3A1AFF29F300393FDF739FE85
:10874000CF48006840B900221146CFA0FFF7DDFDF9
:10875000D1A0FCF723FD05E00C213220FDF766FBDC
:10876000D149086000F067FB012816D10023CF49EA
:108770008DE80B008022CEA1AFF25D400393FDF7A0
:1087800018FEAFF26540F0B900221146C9A0FFF70C
:10879000BCFDB7A0FCF702FD15E00023C94901208C
:1087A0008DE80B008022C8A1C8480393FDF701FEA5
:1087B000A848006838B900221146C5A0FFF7A5FDFA
:1087C000ABA0FCF7EBFC1FBD41F27070FDF757FF4B
:1087D000AFF2182004F005FAFEF77DFC00BFFEE7BB
:1087E0003EB500235A1E6946BE480068FDF7A5FC49
:1087F00000B93EBD9DF800000F2819D006DC012805
:1088000019D0092825D00C2829D125E0102802D01C
:10881000132824D11FE0B4A004F0E3F90446002299
:10882000C821204604F0C4F9204604F0D0F917E02E
:1088300005F0A1F914E00BF0E0FB0BF0EEFCAD4805
:10884000007828B1AC48007810B90120AB49086025
:1088500006E0FFF7B9FF03E0FCF78EFC00E000BF85
:1088600000BF00BFC5E710B5A548007810F0080F9D
:108870000BD000221146A3A0FFF747FDA0480078C7
:1088800040F00800A84981F880019D48007810F068
:10889000040F0BD000221146A4A0FFF736FD984824
:1088A000007840F00400A04981F8800194480078E5
:1088B00010F0020F0BD000221146A5A0FFF725FDF6
:1088C0008F48007840F00200974981F8800100222B
:1088D0000821022006F0B0FC022006F0D5FC10F0C2
:1088E000080F07D00020A549087000221146A4A057
:1088F000FFF70BFD10BD0C213220FDF797FA7949E7
:10890000086008460068A4490860FFF769FD05F0A3
:1089100032F9FFF7A8FF00BFFFF762FFFCE710B5D1
:1089200023F0A4FA10BDFEB504460D4617461E46B8
:108930008DF800400195ADF8087000233246694675
:1089400068480068FDF723FBFEBD10B5934800683A
:1089500040B14FF48001012006F082FC00208F49D5
:10896000086007E04FF48001012006F083FC01203D
:108970008A49086010BD10B5022006F085FC10F091
:10898000080F0CD07D480078012808D100207B49D1
:108990000870002211467AA0FFF7B7FC10E0022011
:1089A00006F072FC10F0080F0AD17448007838B94C
:1089B0000120724908700022114679A0FFF7A5FC3A
:1089C00010BD10B54FF4FA107A4988600221794839
:1089D000C1600A210174012141740021416181615A
:1089E0004FF4FB11C16104210162402180F8241081
:1089F000002180F825108162C1624FF4FD110163EE
:108A0000022141630A2180F83810012180F83910D1
:108A10000021C1630164002403E0E0B206F09BFA88
:108A2000641C032CF9DB10BDA40000104576656EB4
:108A3000745F5441534B204552524F520000000086
:108A40004576656E745F5441534B204552524F52E8
:108A50000A000000B8000010424F4400455448325C
:108A6000434F4D5F5441534B204552524F520000EB
:108A7000424F445F5441534B204552524F520A00DB
:108A8000B00000104D425300CEF8E8E1EAE0204D7E
:108A90004253207461736B004D42535F5441534BFA
:108AA000204552524F520A00C0000010B40000107E
:108AB0004D424300CEF8E8E1EAE0204D4243207405
:108AC00061736B00AC0000104D4200006BC40200EB
:108AD000CEF8E8E1EAE0204D42544350207461733F
:108AE0006B000000BC0000104449534352455445FC
:108AF00000000000C5000010760000107C0000108F
:108B000080C10F40D3F1F2F0EEE9F1F2E2EE20E2A3
:108B1000EAEBFEF7E5EDEE0DEFEEF1EBE520504F61
:108B2000574552204F46460000C00F40D3F1F2F0A7
:108B3000EEE9F1F2E2EE20E2EAEBFEF7E5EDEE0D12
:108B4000EFEEF1EBE52057445420524553455400D5
:108B5000D3F1F2F0EEE9F1F2E2EE20E2EAEBFEF719
:108B6000E5EDEE0DEFEEF1EBE52045585445524EA4
:108B7000414C205245534554000000007400001041
:108B800053494D2DEAE0F0F2E020EEF2F1F3F2F17C
:108B9000F2E2F3E5F2000000C800001084000010CB
:108BA00053494D2DEAE0F0F2E020E2F1F2E0E2EB91
:108BB000E5EDE000F8E807200020384988607047BC
:108BC00010B509F0C5FCF0B335A137A009F038FDA8
:108BD00004463CB94EF66020354948600720FEF750
:108BE00017FC0FE0204629F027F931494860084674
:108BF000406844F62061884202D208462C49486009
:108C00002B4840682BA128A009F01AFD044634B96E
:108C100029482A4948600720FEF7FAFB1BE0204656
:108C200029F00AF925494860084640684EF6602157
:108C3000884202D2084621494860204840682049BD
:108C4000884208D900E003E008461C49486002E079
:108C50000020FEF7DDFB10BD10B51A4823F09CF88C
:108C6000194823F099F8194823F096F8184823F08A
:108C700093F8184823F090F8174823F08DF8074828
:108C800023F08AF80D4823F087F8144823F084F87D
:108C9000074823F081F8FFF793FF10BDAC010010E7
:108CA00050696E670000000054494D455253000062
:108CB000EC010010536D7300E0930400CC01001030
:108CC00080EE3600CC0000102C0100100C010010CA
:108CD0004C0100108C0100106C010010EC00001021
:108CE00030B50246002009E0135C0C1A641E145DC6
:108CF00014540C1A641E1355441CE0B201EBD175D8
:108D0000B0EB650FF0DB30BD01B504216846FFF71D
:108D1000E7FF009808BD01B504216846FFF7E0FFB2
:108D2000009808BD01B502216846FFF7D9FFBDF8DC
:108D3000000008BD2DE9F04104460D4616461F46C9
:108D40003E4800688000B4EB500F17D260193B49D1
:108D500009688900B0EB510F0ED86A0038480068E6
:108D600000EB4401304628F0CBFE022000EB45002A
:108D700038700020BDE8F0810320FBE70220F9E70E
:108D800010B50BF05AF92D49086009688800FEF704
:108D9000CDF92B49086010BD38B50BF059F90446E0
:108DA00004B938BD00250FE00122694620460AF0CB
:108DB000C1FD0098FFF7A8FF29466D1C204A1268E4
:108DC00042F82100D4F80540002CEDD100BFE8E7BF
:108DD00010B509F0BDFBA0B11AA009F051FE401C6E
:108DE00000D110BD1AA117A009F02AFC044604B94D
:108DF000F7E719A1204628F0D3FE10B90120174942
:108E0000086000BFEDE710B509F0A2FB88B114A01F
:108E100009F036FE401C00D110BD13A110A009F0CE
:108E20000FFC044604B9F7E7204628F0F8FF104984
:108E3000086000BFF0E7094800687047140200109E
:108E4000100200104D425F436C69656E74000000B3
:108E50004D6574686F640000434F4D000C020010B4
:108E6000494E464F00000000506F72740000000031
:108E7000780000100346002070470346002070472A
:108E800003460020704733B581B00D46AC6801221F
:108E900001A9206803F041FEBDF80400202833D06A
:108EA00004DC022845D0032862D143E0522816D0C2
:108EB000D8285DD160680004009001220DF1020104
:108EC000206803F02AFE01220DF10101206803F061
:108ED00024FE01226946206803F01FFE49E0606815
:108EE000C003009001220DF10201206803F015FE7D
:108EF00001220DF10101206803F00FFE01226946F5
:108F0000206803F00AFE34E060680003009001224C
:108F10000DF10201206803F000FE01220DF10101B4
:108F2000206803F0FAFD01226946206803F0F5FD90
:108F30001FE000BF207B012806D160680103A06804
:108F400001EB0020009001E06068009001220DF12B
:108F50000201206803F0E1FD01220DF1010120680A
:108F600003F0DBFD01226946206803F0D6FD00E036
:108F700000BF00BF3EBDF8B50020009001225105A2
:108F8000104606F059F9F7A003F02BFE06464EB93D
:108F9000F6A0FCF703F901220021FBA0FFF7B5F9C9
:108FA0000120F8BD1020FEF7C1F804464CB901229B
:108FB0000021FCA0FFF7A9F9FFA0FCF7EFF80120C2
:108FC000EFE71020FEF7B2F805464DB90122002167
:108FD000F4A0FFF79AF9F8A0FCF7E0F80120E0E729
:108FE000266000206060A06001202073F748686060
:108FF0000020E860AC604FF40011012006F03AF95F
:1090000029460620FFF73FFF4FF40011012006F02C
:1090100027F94FF40011012006F02CF92946012010
:10902000FFF731FF01226946304603F076FD4FF429
:109030000011012006F014F94FF40011012006F090
:1090400019F929460420FFF71EFF4FF400110120F3
:1090500006F006F9206803F0BAFD2046FEF730F965
:109060002846FEF72DF9DAA0FCF798F8002098E7DB
:1090700070B5BCA003F0B5FD06464EB9BBA0FCF729
:109080008DF801220021C0A0FFF73FF9002070BD3C
:109090001020FEF74BF804464CB901220021C1A074
:1090A000FFF733F9C4A0FCF779F80020EFE71020B0
:1090B000FEF73CF805464DB901220021B9A0FFF7A3
:1090C00024F9BDA0FCF76AF80020E0E72660002044
:1090D0006060A06001202073BC4868600020E860E8
:1090E000AC602846D3E770B50446A5682E682846CC
:1090F000FEF7E6F82046FEF7E3F8304603F067FD9A
:1091000070BD10B5034614469A685160084610BDFC
:1091100038B50446A568FF2000904FF400110120E7
:1091200006F0A8F821460520FFF7ADFE00BF022299
:109130006946286803F0E2FCBDF8000010F0010F5A
:10914000F5D14FF40011012006F08AF8002038BD57
:1091500010B504464FF40011012006F08BF82146AB
:109160000620FFF790FE4FF40011012006F078F87A
:109170002046FFF7CDFF4FF40011012006F07AF8EA
:1091800021462020FFF77FFE4FF40011012006F05A
:1091900067F82046FFF7BCFF4FF40011012006F0EE
:1091A00069F821460420FFF76EFE4FF400110120FC
:1091B00006F056F82046FFF7ABFF002010BD2DE962
:1091C000F04104460D461646A76825B1012D05D08D
:1091D000022D0AD105E0002038730AE0306878607B
:1091E00007E02046FFF7B4FF03E04FF0FF30BDE893
:1091F000F08100BF0020FAE72DE9F04707468946D5
:10920000904600240026A246BD686968080AA1EBC2
:109210000020C0F580764446B44200D2264644E0A1
:109220004FF40011012006F025F839460620FFF71B
:109230002AFE4FF40011012006F012F83846FFF71D
:1092400067FF4FF40011012006F014F839460220A0
:10925000FFF719FE09EB0A013246286803F05DFCAE
:109260004FF40011012005F0FBFF3846FFF750FFD7
:109270004FF40011012005F0FDFF39460420FFF7EF
:1092800002FE4FF40011012005F0EAFF3846FFF717
:109290003FFF686830446860B244A41BB4F5807F27
:1092A00001D8264601E04FF48076002CB8D1012089
:1092B00028730020BDE8F0872DE9F04105460E46F1
:1092C0009046AF684FF40011012005F0D3FF294606
:1092D0000620FFF7D8FD4FF40011012005F0C0FF74
:1092E0002846FFF715FF4FF40011012005F0C2FFDB
:1092F00029462020FFF7C7FD4FF40011012005F09B
:10930000AFFF2846FFF704FF00246AE0BC604FF47B
:109310000011012005F0AEFF29460620FFF7B3FD3E
:109320004FF40011012005F09BFF2846FFF7F0FEE7
:109330004FF40011012005F09DFF29460220FFF7A0
:10934000A2FD06EB04214FF48072386803F0E5FBC0
:109350004FF40011012005F083FF2846FFF7D8FEE7
:10936000601C3DE05353503000000000464C415318
:10937000483A20756E61626C6520746F206F70656D
:109380006E205350490A0000464C4153483A20751C
:109390006E61626C6520746F206F70656E20535033
:1093A00049000000464C4153483A206E6F206D65DD
:1093B0006D6F727900000000464C4153483A206EB0
:1093C0006F206D656D6F72790A00000030390300FF
:1093D000464C41534820437265617465640A00003D
:1093E000C4B2102C92DB4FF40011012005F042FFB3
:1093F00029460420FFF747FD4FF40011012005F036
:109400002FFF2846FFF784FE0020BDE8F0812DE9FC
:10941000F04104460E461546A768387B01280CD15A
:10942000020331462046FFF747FF401C02D00120CF
:10943000BDE8F0814FF0FF30FAE7AAB2314620468E
:10944000FFF7DAFE401C01D00120F1E74FF0FF30BA
:10945000EEE72DE9F04104460E461746A5684FF4A5
:109460000011012005F006FF21460320FFF70BFD48
:109470003A463146286803F041FB4FF400110120C1
:1094800005F0EEFE2046FFF743FE01202873002082
:10949000BDE8F0812DE9F04105460E469046AF68E3
:1094A00000241AE0BC604FF40011012005F0E2FE38
:1094B00029460320FFF7E7FC06EB04214FF48072F6
:1094C000386803F01BFB4FF40011012005F0C8FEC3
:1094D0002846FFF71DFE601CC4B2102CE2DB002002
:1094E000BDE8F0812DE9F04104460E461546A76817
:1094F000387B01280CD1020331462046FFF7CAFF12
:10950000401C02D00120BDE8F0814FF0FF30FAE7A7
:10951000AAB231462046FFF79CFF401C01D0012033
:10952000F1E74FF0FF30EEE770B5054609F010F8AF
:10953000A8B31DBBFEA1FFA009F082F804461CB928
:109540000020FDF765FF6EE0204628F068FCFB492F
:1095500081F89900084690F89900012820D102204E
:1095600005F009FF10F0080F09D14FF480710020B9
:1095700005F0F9FE0120F14981F8990053E002203D
:1095800005F0F9FE10F0040F4DD14FF4807100206A
:1095900005F0E1FE0220E94981F8990043E01FE16E
:1095A000E64890F8990002281ED105F0E4FE10F07C
:1095B000040F09D14FF48071002005F0CCFE022089
:1095C000DE4981F899002EE0022005F0D4FE10F06B
:1095D000080F28D14FF48071002005F0C4FE01204F
:1095E000D64981F899001EE0022005F0C4FE10F073
:1095F000080F09D14FF48071002005F0B4FE01205E
:10960000CE4981F899000EE0022005F0B4FE10F07A
:10961000040F08D14FF48071002005F09CFE022059
:10962000C64981F89900C54890F89900012805D1EC
:10963000C3A1C0A009F004F8044604E0C3A1BDA082
:1096400008F0FEFF04461CB90020FDF7E1FE04E02F
:109650002146BA48801C28F0BEFABFA1B5A008F088
:10966000EFFF044644B1204628F092FA20B120468C
:1096700028F08EFA132803D90020FDF7C9FE04E074
:109680002146AE48763028F0A6FAAC4890F899000A
:10969000012805D1B3A1A7A008F0D2FF044604E039
:1096A000B4A1A4A008F0CCFF04461CB90020FDF72B
:1096B000AFFE04E02146A1480C3028F08CFA9F4808
:1096C00090F89900012805D1AEA19AA008F0B8FF42
:1096D000044604E0ADA197A008F0B2FF04461CB90F
:1096E0000020FDF795FE04E0214694483E3028F026
:1096F00072FA924890F89900012805D1A5A18DA091
:1097000008F09EFF044604E0A5A18AA008F098FF97
:1097100004461CB90020FDF77BFE04E02146874883
:109720004D3028F058FA854890F89900012805D165
:109730009EA180A008F084FF044604E09DA17DA0C6
:1097400008F07EFF04461CB90020FDF761FE0BE027
:109750002078302804D10020784981F8700003E097
:109760000120764981F8700094A172A008F068FF8A
:1097700004461CB90020FDF74BFE05E0204628F00A
:109780004EFB6E4981F898006C4890F899000128CA
:1097900005D18CA167A008F053FF044604E08BA11B
:1097A00064A008F04DFF04461CB90020FDF730FE10
:1097B00004E021466148713028F00DFA85A15DA0D2
:1097C00008F03EFF044624B900205C4981F89A0065
:1097D00009E0204628F023FB584981F89A0002E06E
:1097E0000020FDF715FE70BD10B500207B49087004
:1097F00040217B4828F09DF900207A4908707A4979
:10980000087002207949087010BD10B500224FF48D
:109810000051022005F010FD03220D21022005F069
:10982000FDFE0122D106104605F006FD4FF0006155
:10983000012005F01FFD00220821022005F0FCFC9C
:1098400000220421022005F0F7FC01221102002071
:1098500005F0F2FC01225106104605F0EDFC4FF038
:109860000071012005F0FCFCFFF7BEFF60A008F0CE
:1098700082FE0020FFF758FE09F029F961A0FBF7EE
:109880008DFC002010BD10B562A003F0AAF90446BB
:109890004CB962A0FBF782FC0122002166A0FEF712
:1098A00034FD002010BD6B4804606B48007818B987
:1098B00001206949087002E068A0FBF76FFC664868
:1098C000F0E770B50446A568286803F080F962489F
:1098D0000078012803D100205F49087002E063A0EE
:1098E000FBF75CFC70BD2DE9F04106460F461446BF
:1098F000F568002C1BDB2146384628F01AF9B5F82C
:10990000B0002044B42803DDB5F8B000C0F1B404C1
:10991000B5F8B00041192246384628F0F1F8B5F8FC
:10992000B0002044A5F8B0002046BDE8F081A5E0D5
:1099300053696D004D4F44454D000000C0C30720E2
:109940004469616C4E756D5F310000004469616C63
:109950004E756D5F320000004F776E4E756D55731A
:1099600073640000496E6974537472696E675F3185
:1099700000000000496E6974537472696E675F324B
:10998000000000004C6F67696E5F31004C6F6769C3
:109990006E5F320050617373776F72645F310000E5
:1099A00050617373776F72645F32000050696E4567
:1099B0006E5F310050696E456E5F320053796E63A1
:1099C0000000000050696E5F3100000050696E5F5A
:1099D00032000000526F616D696E670098C4072005
:1099E00098E00720B1C40720B2C4072085C407202F
:1099F0002F6174343564622F444556434F4E2E69AF
:109A00006E6900004D4F44454D2043726561746599
:109A1000640A000055415254330000004D4F444544
:109A20004D3A20756E61626C6520746F206F7065B1
:109A30006E20554152540A004D4F44454D3A207511
:109A40006E61626C6520746F206F70656E20554189
:109A500052540000BCC3072074C407204D4F444536
:109A60004D2052455F4F50454E0A00004D4F444532
:109A70004D2052455F434C4F53450A000020BDE83E
:109A8000F08110B504460B46E16822B1012A0BD0E3
:109A9000022A23D117E0B42B02D2A1F8B03002E0A1
:109AA0000020A1F8B0001EE0B1F8B0001844B428BE
:109AB00005D2B1F8B0001844A1F8B00002E00020CF
:109AC000A1F8B0000FE0B42B04D2C3F1B400A1F8A8
:109AD000B00002E00020A1F8B00004E00020A1F8EE
:109AE000B000401E10BD00BFB1F8B000FAE72DE98C
:109AF000F04706460F461546F468002D7EDB2946E2
:109B0000384628F016F8B4F8B2002844912803DD4E
:109B1000B4F8B200C0F1910500234FF47A721946EF
:109B2000F8480068FCF709FB012867D12278F6A104
:109B3000F74829F051FAF7A1F548C01C28F04BF876
:109B40006278F1A1F248093029F046FAF3A1F04811
:109B50000C3028F040F8A11CED48123028F03BF8FA
:109B6000A01C28F015F8C0F10A08A01C28F010F875
:109B70001230E74900EB010920224146484627F010
:109B8000D1FFE8A1E2481C3028F025F804F10C01CF
:109B9000DF48263028F01FF8A01C27F0F9FFC0F19D
:109BA000320804F10C0027F0F3FF2630D84900EB0F
:109BB000010920224146484627F0B4FFDCA1D448E1
:109BC000583028F008F804F13E01D1485F3028F001
:109BD00002F8A01C27F0DCFFC0F10A0804F13E00E7
:109BE00027F0D6FF5F30CA4900EB01092022414629
:109BF000484627F097FFD0A1C54800E04DE0693006
:109C000027F0E9FF04F14D01C148713027F0E3FF6F
:109C1000A01C27F0BDFFC0F10A0804F14D0027F099
:109C2000B7FF7130BA4900EB01092022414648468E
:109C300027F078FFC3A1B6487B3027F0CCFF94F81B
:109C40007020B1A1B248863029F0C6F9C0A1B04851
:109C5000893027F0C0FF04F17101AD48913027F041
:109C6000BAFFBEA1AA48953027F0B5FFB4F8B200FC
:109C7000A74A81182A46384627F042FF00231A4691
:109C80001946A0480068FCF782F9B4F8B2002844ED
:109C9000A4F8B2002846BDE8F0870020FBE710B525
:109CA00004460B46E16822B1012A0BD0022A23D1D7
:109CB00017E0912B02D2A1F8B23002E00020A1F807
:109CC000B2001DE0B1F8B2001844912805D2B1F8F5
:109CD000B2001844A1F8B20002E00020A1F8B200DE
:109CE0000EE0912B04D2C3F19100A1F8B20002E082
:109CF0000020A1F8B20003E00020A1F8B20010BDDE
:109D000000BFB1F8B200FAE703464FF0FF307047EA
:109D10002DE9F04106460F461546F468002D17DB85
:109D2000B4F8B0002844B42803DDB4F8B000C0F1A2
:109D3000B405B4F8B01008192A46394627F0E0FEF9
:109D4000B4F8B0002844A4F8B0002846BDE8F0817B
:109D50000020FBE710B500208249087040218248AE
:109D600027F0E7FE10BD10B504467E480078402875
:109D700008DA7C4801780078401C7A4A10707A48EA
:109D8000445401E0FFF7E6FF7848007840B3784894
:109D90000168754827F004FF98B9734975A0FBF76F
:109DA000FEF90020714908707649088076480078ED
:109DB00038B10020744908700C2074490870FFF70E
:109DC000C9FF7148007858B171A1674827F0E8FED3
:109DD00030B90020654908706A490880FFF7BAFF6A
:109DE00006226EA1604827F0E9FE10B902206749FB
:109DF00008700D2C01D00A2C01D1FFF7ABFF10BD6C
:109E000070B504460025204627F0C2FE0646654987
:109E100032460868214602F080FE0546204627F0BB
:109E2000B7FEA84203D121465FA0FBF7B8F970BD89
:109E300010B56148007805281DD2DFE800F0031D49
:109E40003753EE00002050490870484908705B49BC
:109E500008705BA0464908605AA0FFF7D1FF4FF495
:109E6000967048490880012040490870524800789F
:109E7000401C51490870DCE03C480078012803D1BF
:109E8000022042490870D4E04B480078401C4A49FF
:109E900008704BA0364908604BA0FFF7B1FF642063
:109EA00038490880012031490870C2E02F48007805
:109EB000012803D1022035490870BAE03E480078F5
:109EC000401C3D49087043A02949086045A0FFF7A0
:109ED00097FF64202B4908800120244908703749E6
:109EE0000870A6E021480078012803D10220274904
:109EF00008709EE03148007801287AD10620234975
:109F0000087096E06C00001025336C7500000000AE
:109F100020750010205369673B0A000020436F6ED4
:109F20003B0A0000204469616C4E756D3B0A0000DD
:109F300020475052533B0A00204C6F67696E3B0A22
:109F4000000000002050617373776F72643B0A0059
:109F50002050696E456E3B0A000000002050696E7B
:109F60003B0A000098C4072098E00720B1C40720EE
:109F7000A4C407204D6F64656D207265706C793ADA
:109F800020257300A8C40720B2C4072085C4072079
:109F90004E4F20434152524945520D004552524FB7
:109FA000520D0000BCC307204D6F64656D207365C2
:109FB0006E64733A2025730086C40720B5C4072059
:109FC0004F4B0D002B2B2B0041542B434752454741
:109FD0003D310D002B43475245473A20302C310D7F
:109FE0000000000041542B43475245473F0D0000FD
:109FF000FFE7FE480078401CFC490870FCA0FF49C0
:10A000000860FFA0FFF7FCFE6420FF4908800120E4
:10A01000FE490870FE4908700BE0FC4800780128F2
:10A0200003D10220FB49087003E00C20F9490870B5
:10A0300000BF00BF10BD10B5EC48007830B101285A
:10A0400024D002283BD0032861D154E00020F049FD
:10A050000870F1490870ED490870AFF29C00E749BB
:10A0600008604FF4FA70E84908800120E749087059
:10A07000DE480078401CDD490870AFF2B800FFF7F9
:10A08000BFFE4FF47A70FCF7FAFA40E0DF48007840
:10A09000012803D10B20DF49087038E0D34800784D
:10A0A000401CD2490870DDA0FFF7AAFE6420D64903
:10A0B00008800120D5490870D749087027E0D348A7
:10A0C0000078012803D10220D24908701FE0C74858
:10A0D0000078401CC5490870C5A0C8490860C8A0E0
:10A0E000FFF78EFE6420C84908800120C749087028
:10A0F000C74908700BE0C5480078012803D1022049
:10A10000C449087003E00B20C249087000BF00BFBB
:10A1100010BD10B5B5480078062819D2DFE800F068
:10A120000319314C74970020B9490870AFF27010D0
:10A13000B2490860BBA0FFF763FEAC480078401C42
:10A14000AA4908706420B04908800120AF4908700E
:10A1500089E0AE480078012803D10220AD4908709B
:10A1600081E0A2480078401CA0490870AFA0FFF72A
:10A1700047FE4FF49670A44908800120A349087057
:10A1800071E0A2480078012803D10220A14908709B
:10A1900069E096480078401C94490870A54800681A
:10A1A000FFF72EFEA4A0FFF72BFE6420FCF767FA52
:10A1B00001209649087056E094480078012803D1A0
:10A1C0000220944908704EE09CA0FFF719FE9C48BD
:10A1D0000068FFF715FE98A0FFF712FE4FF47A70A3
:10A1E000FCF74DFA82A08549086040F6B8308649F0
:10A1F0000880012085490870854908707B480078EF
:10A20000401C7A4908702EE080480078012803D16C
:10A2100002208049087026E07D480078B0B1002017
:10A220007B490870AFF26820744908606F48007875
:10A23000401C6E49087083A0FFF7E2FD4FF4967052
:10A24000714908800120714908700CE00BE06F48EB
:10A250000078012803D102206E49087003E0012034
:10A260006C49087000BF00BF10BD10B55F48007892
:10A270000A2821D2DFE800F005213C5A7CB9B8B7A2
:10A28000B6B50020624908707049087070490870BE
:10A290007049087055480078401C5449087063A004
:10A2A000FFF7AEFDAFF2E82054490860642056493C
:10A2B000088001205549087093E15448007801282E
:10A2C00003D10220534908708BE1AFF20C304B49A7
:10A2D000086046480078401C444908705EA0FFF7BB
:10A2E0008FFD64204849088001204849087078E1C2
:10A2F00046480078012803D102204649087070E1E1
:10A3000058A03E49086039480078401C3749087019
:10A3100058A0FFF775FD4FF4FA70FCF7B0F9642010
:10A32000394908800120394908705AE137480078D6
:10A33000012803D103203749087052E12B480078E7
:10A34000401C2A4908704EA02C49086050A0FFF715
:10A3500057FD4FF47A70FCF792F964202A4908807F
:10A3600001202A490870394908703949087038E1D4
:10A3700026480078012803D102202649087030E1E0
:10A3800032480078012803D103202249087028E1CF
:10A3900016480078401C154908702D480078F0B127
:10A3A000AFF2E430154908603C480078C0B13CA0E9
:10A3B000FFF726FD6420FCF762F93C480068FFF7D0
:10A3C0001FFD6420FCF75BF91BA0FFF719FD4FF49C
:10A3D000FA60FCF754F964200B49088068E071E0EA
:10A3E0006CE0F5E0D7E0BBE09DE079E086C40720B3
:10A3F000434F4E4E4543540D00000000A4C40720B7
:10A4000041544F0D00000000A8C40720B1C407202C
:10A41000B2C4072085C40720B3C4072041542B438E
:10A4200053510D0041545A0D000000004154453075
:10A4300056310D00A0C407200D0000004154440017
:10A440009CC407204154480D00000000B4C40720FC
:10A45000B6C40720B7C4072041542B434D45453DA2
:10A46000310D00002B43534D494E533A20302C31CF
:10A470000D00000041542B43534D494E533F0D00F6
:10A480002B4350494E3A2052454144590D0000009B
:10A4900041542B4350494E3F0D000000B0C40720EB
:10A4A00041542B4350494E3D00000000ACC40720EE
:10A4B0000120F9490870F949087010E00420F849B2
:10A4C00008708EE0AFF20850F6490860F6A0FFF77A
:10A4D00097FC6420F54908800120EF49087080E06E
:10A4E000ED480078012803D10220ED49087078E09A
:10A4F000EA480078012803D10420E949087070E097
:10A50000EB480078401CEA490870AFF24C50E5492E
:10A510000860E5A0FFF774FC6420E449088001208E
:10A52000DD4908705DE0DC480078012803D1022095
:10A53000DB49087055E0DE480078401CDC490870B3
:10A54000DCA0D8490860DEA0FFF75AFC4FF47A700F
:10A55000FCF795F80120D0490870DC49087040E00C
:10A56000CD480078012803D10220CD49087038E099
:10A57000CF480078401CCE490870AFF2BC50C949A2
:10A580000860D3A0FFF73CFC6420C8490880012084
:10A59000C149087025E0C0480078012803D1022095
:10A5A000BF4908701DE0C2480078401CC0490870CF
:10A5B000AFF2F450BB490860C7A0FFF721FC64204C
:10A5C000BA4908800120B4490870C749087008E0FA
:10A5D000B1480078012803D10220B149087000E099
:10A5E00000BF00BF10BD10B504461E20FCF747F8A1
:10A5F000AB4800780D2818D2DFE800F007170817DD
:10A600000B0A17110E141717090000BF00BF0CE04A
:10A6100000BFFFF72AFE08E0FFF77BFD05E0FFF72C
:10A620000AFD02E0FFF704FC00BF00BF10BD2DE9EA
:10A63000FC410446002500200090A668E768B81C8D
:10A64000AA4908600A30AA4908600820944908709D
:10A6500000209749087000BF0020FFF7C4FF642066
:10A66000FCF70DF86A46CC21306802F0A1FA17E039
:10A67000012201A9306802F041FA9DF804109DA062
:10A68000FAF78DFD9DF80400FFF76DFB8448007814
:10A690000C2800D107E06A46CC21306802F088FA25
:10A6A00000980028E4D100BF7D4800780C2810D124
:10A6B000002504E00021904840F825106D1C052D70
:10A6C000F8DB012202218DA0FDF71FFE0020BDE86E
:10A6D000FC8173480078022809D1012202218BA055
:10A6E000FDF713FE8C48FBF7CAFF0020EFE76C482C
:10A6F00000780128B0D10122022188A0FDF705FED3
:10A700008548FBF7BCFF0020E1E710B50446874809
:10A7100000783C2808DA854801780078401C834A94
:10A7200010708348445404E0FFF714FB4FF0FF30EF
:10A7300010BD5C4801687E4827F032FA28B1AFF2BC
:10A74000B0717B4827F02CFA18B9FFF703FB002003
:10A75000EEE70622AFF2BC71754827F02FFA10B968
:10A7600002204F4908700D2C01D00A2C01D1FFF7AF
:10A77000F1FA4FF0FF30DBE72DE9FE4380460D464E
:10A7800016464FF0FF37002002900190694C454873
:10A790000560019602AAD721206802F009FA01AAF1
:10A7A000D621206802F004FA0022D321206802F0AA
:10A7B000FFF9FFF7CFFA0022D321206802F0F8F961
:10A7C0004046FFF71DFB06E09DF80000FFF79DFFE8
:10A7D000074607B906E001226946206802F08EF9B3
:10A7E0000028F1D100BF02AAD621206802F0E0F9CA
:10A7F0003846BDE8FE832A4800780C2807D0284850
:10A8000000780A2803D0264800780B2801D10120BF
:10A8100070470020FCE710B521480078042800D1DB
:10A8200010BDFFF7E8FF18BB424C6420FBF727FF81
:10A830000022D321206802F0BBF943F69822AFF240
:10A840005041AFF24440FFF797FF20B93A480078F3
:10A85000134908700BE0384800780B2802D1022019
:10A860000F4908700022022134A0FDF74EFD00BF01
:10A8700000BFD5E710B52F4C09480078042801D156
:10A88000002010BDFFF7B7FF012873D104480078FE
:10A890000B2871D00120F4E7B1C40720B6C407200B
:10A8A00085C40720A4C4072041540D00A8C4072074
:10A8B00086C407202B435245473A20302C310D00E7
:10A8C00041542B435245473F0D000000B7C40720B9
:10A8D00041542644310D000041542B434D49433D22
:10A8E000302C31350D000000B2C407209CC4072075
:10A8F000A0C40720256300005CC4072047505253C2
:10A9000020434F4E4E454354000000004D4F4445F8
:10A910004D204552524F5200C0D401004D4F444586
:10A920004D20504F574552204F4E000098C40720ED
:10A9300098E00720BCC3072087C407205050502050
:10A94000434C4F53494E473A204D6F64656D206428
:10A950006F6573206E6F742072657475726E2066F9
:10A96000726F6D20636F6D6D616E64206D6F6465D5
:10A97000000000001CE0FFE7FF480078FF49087076
:10A980006420FBF77CFE0022D321206802F010F93E
:10A990004FF4FA62AFF6D811AFF6D810FFF7ECFE1D
:10A9A00020B90E20F449087000206AE7012068E70A
:10A9B000002066E7F0B587B00025F14FFFF71BFFD9
:10A9C0000446ED480078042802D1401F07B0F0BDCE
:10A9D000EC4890F8980008B90020F7E764B1E64821
:10A9E00000780B2802D04FF0FF30EFE7FFF742FF6F
:10A9F000012801D1801EE9E74FF4FA72E2A1E5A037
:10AA0000FFF7BAFE28B10CB1FFF705FF4FF0FF309A
:10AA1000DCE719226946386802F070F80546142D03
:10AA200005DA0CB1FFF7F7FE4FF0FF30CEE700205C
:10AA30008DF818000026DAA002F0D3F806462EB9E9
:10AA40000CB1FFF7E8FE4FF0FF30BFE76A460C217C
:10AA5000304602F0ADF80546304602F0B8F80CB1C9
:10AA6000FFF7D9FE2846B1E72DE9F04106460C462E
:10AA7000FFF7C1FE0546C0480078042802D1401FF8
:10AA8000BDE8F08165B1BC4800780B2802D04FF0DA
:10AA9000FF30F5E7FFF7EEFE012801D1801EEFE75A
:10AAA000B74FC1A0FFF7ACF93046FFF7A9F9C820AE
:10AAB000FBF7E5FD41F27072BDA1AFF2F410FFF7B4
:10AAC0005BFE28B10DB1FFF7A6FE4FF0FF30D7E7D0
