:100000000C9434010C9451010C9451010C94510145
:100010000C9451010C9451010C9451010C94B5169F
:100020000C9451010C9451010C94D7050C9451017E
:100030000C9451010C94C1070C9451010C94510182
:100040000C94720B0C9451010C94DF0B0C94390C32
:100050000C941B0C0C9451010C9451010C94510103
:100060000C9451010C94510100C1814001C08041A8
:1000700001C0804100C1814001C0804100C1814078
:1000800000C1814001C0804101C0804100C1814068
:1000900000C1814001C0804100C1814001C0804158
:1000A00001C0804100C1814001C0804100C1814048
:1000B00000C1814001C0804100C1814001C0804138
:1000C00001C0804100C1814000C1814001C0804128
:1000D00001C0804100C1814001C0804100C1814018
:1000E00000C1814001C0804101C0804100C1814008
:1000F00000C1814001C0804100C1814001C08041F8
:1001000001C0804100C1814000C1814001C08041E7
:1001100001C0804100C1814001C0804100C18140D7
:1001200000C1814001C0804100C1814001C08041C7
:1001300001C0804100C1814001C0804100C18140B7
:1001400000C1814001C0804101C0804100C18140A7
:1001500000C1814001C0804100C1814001C0804197
:1001600001C0804100C1814000C0C101C30302C27F
:10017000C60607C705C5C404CC0C0DCD0FCFCE0EE7
:100180000ACACB0BC90908C8D81819D91BDBDA1A57
:100190001EDEDF1FDD1D1CDC14D4D515D71716D6C7
:1001A000D21213D311D1D010F03031F133F3F23237
:1001B00036F6F737F53534F43CFCFD3DFF3F3EFEA7
:1001C000FA3A3BFB39F9F83828E8E929EB2B2AEA17
:1001D000EE2E2FEF2DEDEC2CE42425E527E7E62687
:1001E00022E2E323E12120E0A06061A163A3A262F7
:1001F00066A6A767A56564A46CACAD6DAF6F6EAE67
:10020000AA6A6BAB69A9A86878B8B979BB7B7ABAD6
:10021000BE7E7FBF7DBDBC7CB47475B577B7B67646
:1002200072B2B373B17170B05090915193535292B6
:1002300096565797559594549C5C5D9D5F9F9E5E26
:100240005A9A9B5B99595898884849894B8B8A4A96
:100250004E8E8F4F8D4D4C8C448485458747468606
:10026000824243834181804011241FBECFEFD4E0FE
:10027000DEBFCDBF11E0A0E0B1E0E0E7F3E302C0F4
:1002800005900D92A032B107D9F714E0A0E2B1E0D9
:1002900001C01D92A535B107E1F70E94B4010C948D
:1002A000FB180C940000AF92BF92CF92DF92EF92B6
:1002B000FF920F931F9360917E0270917F02809155
:1002C0008002909181020E948B0F7B018C01A09093
:1002D0003801B0903901C0903A01D0903B01C6017D
:1002E000B501A80197010E944A1788230CF45D9A72
:1002F000C801B7012AE037ED43E25CE30E94E6164D
:100300009B01AC01C601B5010E94941818160CF4AB
:100310005D981F910F91FF90EF90DF90CF90BF906D
:10032000AF90089582E792E060E070E048EB51E022
:100330000E94381982E192E29093730280937202D4
:100340000E946814439A3B9A5D98559A0E94920CB9
:100350000E948F050E945A160E948E070E94240256
:100360000E94570B789408951F932EE088E190E047
:100370000FB6F894A895809360000FBE209360009C
:100380000E949201A8950E940B0B0E94150F182F36
:10039000609138017091390180913A0190913B014F
:1003A00020E030E04AE754E40E94981820E030E072
:1003B0004AEF53E40E94E6160E946F160E947802EC
:1003C0000E945301812F60E00E94930CDBCFE4E692
:1003D000F0E080818B7F8083259A239A229A579A16
:1003E0005F9A8DB58E7F8DBD8CB58D7F8CBD8CB5A4
:1003F0008E7F8CBD8CB580618CBD8CB580648CBDCE
:1004000008958EBD0DB407FEFDCF08951F93182FDC
:100410005F9881E10E940102812F0E9401025F9A90
:100420001F9108950E94E70180E090E0ACECB2E4F7
:1004300080934C0190934D01A0934E01B0934F01D6
:1004400086E60E9406020895E4E6F0E08081877F58
:100450008083229AA1E8B0E081E08C93E0E8F0E0AC
:1004600080818062808380818160808380818260DE
:1004700080838C9188608C938C9180618C938FEFBA
:100480009FEF90938900809388008C9188608C9373
:100490008C9180618C9310928B0010928A00EFE611
:1004A000F0E08081816080830895AC019093230106
:1004B000809322012091200130912101C9018C59A2
:1004C0009F4F8417950728F0245630404217530752
:1004D00020F45093210140932001F89450938B0015
:1004E00040938A007894509321014093200108950D
:1004F00060918202709183028091840290918502C2
:100500000E948B0F209138013091390140913A01BE
:1005100050913B010E94981820E030E040E751E400
:100520000E944E1720E03FEF4FE757E40E949818D3
:100530000E94B617DC01CB010E945502089587BDC9
:1005400008952F923F924F925F926F927F928F9277
:100550009F92AF92BF92CF92DF92EF92FF920F9352
:100560001F93CF93DF9357E0A52E01C0AA94E0908C
:100570003801F090390100913A0110913B01CA2DE8
:10058000D0E0FE01EE0FFF1FEE0FFF1FEE51FC4FFC
:1005900060817181828193810E948B0F9B01AC01EC
:1005A000C801B7010E944A17882314F4AA20F1F663
:1005B000FE01EE0FFF1FEE0FFF1FEE51FC4F60819B
:1005C0007181828193810E948B0F3B014C01FE015E
:1005D000EE0FFF1FEE0FFF1FEA51FC4F608171818C
:1005E000828193810E948B0F1B012C01CC0FDD1F98
:1005F000CC0FDD1FFE01EA5FFB4F608171818281BC
:1006000093810E948B0F5B016C01C65FDB4F688199
:1006100079818A819B810E948B0FA60195010E949E
:10062000E5167B018C016091380170913901809150
:100630003A0190913B01A40193010E94E5169B01B0
:10064000AC01C801B7010E9498187B018C01C2015E
:10065000B101A40193010E94E5169B01AC01C80100
:10066000B7010E944E17A60195010E94E616DF9180
:10067000CF911F910F91FF90EF90DF90CF90BF909F
:10068000AF909F908F907F906F905F904F903F9032
:100690002F90089587E00E943F1520E030E048EA5F
:1006A00051E40E944E17089586E00E943F1520E015
:1006B00038ED46ED57E40E94981820E030E44CE114
:1006C00056E40E944E170895AF92BF92CF92DF92E8
:1006D000EF92FF920F931F930E944A0360932801A9
:1006E0007093290180932A0190932B010E94540357
:1006F0007B018C0160932401709325018093260176
:10070000909327012FE832EC45E75CE30E944A17FB
:1007100088230CF443C0A0902801B0902901C09018
:100720002A01D0902B01C601B50127E137EB41ED3D
:1007300058E30E944A178823B4F5609150017091E4
:10074000510180915201909153012DEC3CEC4CE40D
:100750005DE30E94941887FD21C060915001709163
:10076000510180915201909153012DEC3CEC4CE4ED
:100770005DE30E94E51660935001709351018093F0
:1007800052019093530160915001709151018091F9
:100790005201909153010E94B61767BDE0E070E0EE
:1007A00080E86FEB1EC0C801B70120E038ED46EDD0
:1007B00057E40E944E179B01AC01C601B5010E948F
:1007C000E6169B01AC016093280170932901809388
:1007D0002A0190932B01C801B7010E944E17E62F02
:1007E000692F2E2F372F482F562FB901CA011F917D
:1007F0000F91FF90EF90DF90CF90BF90AF90089552
:100800002F923F924F925F926F927F928F929F9220
:10081000AF92BF92CF92DF92EF92FF920F931F930E
:100820005B016C0119012A010E94640360932C0191
:1008300070932D0180932E0190932F0160912C01D4
:1008400070912D0180912E0190912F0120E030E0D8
:1008500040E85FEB0E944A17882309F40EC12091FB
:100860002C0130912D0140912E0150912F01C60194
:10087000B5010E94E5163B014C01E89497F8C401CC
:10088000B30120E030E040E05FE30E944A17181611
:100890000CF0E0C0C201B1012AE037ED43E25CE3B5
:1008A0000E9498189B01AC01C401B3010E949418E6
:1008B00018165CF00F2EFDECEF2EFCECFF2EFCE486
:1008C0000F2FFDE31F2FF02D0AC00F2EF0E0EF2EAB
:1008D000F0E0FF2EF0E00F2FFFE31F2FF02D6091CF
:1008E0002C0170912D0180912E0190912F01A60174
:1008F00095010E944A1788230CF03FC0A0904C013C
:10090000B0904D01C0904E01D0904F01C801B70189
:1009100020E030E040EC50E40E94E6169B01AC0180
:10092000C601B5010E94941888233CF0C601B501A8
:10093000A80197010E94E5164DC060915001709189
:100940005101809152019091530123E333EF4EE71F
:1009500053E40E944A1718160CF47EC060915001AF
:100960007091510180915201909153012DEC3CEC1A
:100970004CE45DE30E94E6165AC0C601B50120E0D2
:1009800030E04CE052E40E944A1787FD05C060E069
:1009900070E082E593E404C060E070E08BE793E4EC
:1009A000A0904C01B0904D01C0904E01D0904F01ED
:1009B000A80197010E94E5169B01AC01C601B50193
:1009C0000E944A171816ACF0C601B501A80197019C
:1009D0000E94E61660934C0170934D0180934E0186
:1009E00090934F010E94B617DC01CB010E940602D2
:1009F00031C06091500170915101809152019091EC
:100A000053012DEC3CEC4CE45DE30E9494188823E8
:100A10001CF16091500170915101809152019091AF
:100A200053012DEC3CEC4CE45DE30E94E516609331
:100A30005001709351018093520190935301609142
:100A400050017091510180915201909153010E9487
:100A5000B61767BD10E012C010E0C201B1012DEC65
:100A60003CEC4CE45EE30E9498189B01AC01C4018D
:100A7000B3010E94941818160CF411E0812F1F91F5
:100A80000F91FF90EF90DF90CF90BF90AF909F902D
:100A90008F907F906F905F904F903F902F90089530
:100AA000EF92FF920F931F938091760290917702BD
:100AB000892B11F480E02EC06091260470912704E8
:100AC00080912804909129040E948B0F7B018C0156
:100AD00060910604709107048091080490910904C4
:100AE0000E948B0FA80197010E949418181664F4B5
:100AF00060910604709107048091080490910904A4
:100B00000E948B0F7B018C010E94A102A80197011A
:100B10000E9400041F910F91FF90EF9008950E9492
:100B200000150E941202809164008F7D8093640002
:100B300082E085BD84B5806884BD84B5816084BD54
:100B400084B5826084BD5B9A539A6091060470916B
:100B500007048091080490910904209126043091A3
:100B6000270440912804509129040E9494181816D3
:100B70002CF480E090E0AFE7B3E404C080E090E0C4
:100B8000A0E0B0E08093500190935101A0935201F6
:100B9000B0935301609150017091510180915201C5
:100BA000909153010E94B61767BD569A08951F92FF
:100BB0000F920FB60F9211248F939F93809158013B
:100BC000813019F0823041F50BC0B09911C080918D
:100BD00086009091870090935A01809359011CC020
:100BE0008091540190915501439728F0B09B03C028
:100BF0001092580111C080915601909157010196B1
:100C000090935701809356018091860090918700C0
:100C100090935C0180935B019F918F910F900FBE29
:100C20000F901F901895AF92BF92CF92DF92EF92E4
:100C3000FF920F931F9380915801833029F0E0E0D9
:100C400070E080E86FEB8CC02091590130915A011F
:100C500040E050E08FEF9FEFA0E0B0E0821B930BED
:100C6000A40BB50B80935D0190935E01A0935F018F
:100C7000B0936001E0905D01F0905E0100915F0132
:100C800010916001609154017091550180E090E0F5
:100C90002FEF3FEF40E050E00E948319E60EF71E71
:100CA000081F191FE0925D01F0925E0100935F0141
:100CB0001093600120915D0130915E0140915F01D0
:100CC0005091600180915B0190915C012F5F3F4FDB
:100CD00040405040A0E0B0E0280F391F4A1F5B1F82
:100CE00020935D0130935E0140935F01509360015A
:100CF0006091560170915701A0905D01B0905E0126
:100D0000C0905F01D090600180E090E00E94E21707
:100D100020E030E041E65BE40E9498187B018C0102
:100D2000C601B5010E94E4179B01AC01C801B701DF
:100D30000E944E17E62F692F10925A011092590106
:100D400010925C0110925B011092550110925401B7
:100D500010925D0110925E0110925F01109260018D
:100D60002E2F372F482F562FB901CA011F910F91EF
:100D7000FF90EF90DF90CF90BF90AF90089528B193
:100D80002F7C28B928B134E0880F991F3A95E1F7F4
:100D9000282B28B90895AF92BF92CF92DF92EF929D
:100DA000FF920F931F938091300190913101892B15
:100DB000F1F480913201909133010196837090702B
:100DC000909333018093320128B12F7C28B928B148
:100DD00044E0880F991F4A95E1F7282B28B9109213
:100DE000580181E090E0909331018093300180912F
:100DF000300190913101019799F40E94130620E08F
:100E000030E040E85FEB0E944A17882309F47DC078
:100E100082E090E09093310180933001109258016C
:100E20008091300190913101029759F00F2EF0E03E
:100E3000EF2EF0E0FF2EF0E00F2FF0E01F2FF02D4F
:100E400011C00E9413067B018C0120E030E040E8D5
:100E50005FEB0E944A17882309F457C010923101B2
:100E600010923001209132013091330186E590E0FB
:100E7000289FF001299FF00D389FF00D1124EE58A6
:100E8000FD4F608D718D828D938D0E948B0F5B0164
:100E90006C0120E030E040E050E00E944A178823D7
:100EA00029F4EE2D7F2D802F612F14C0C801B701CA
:100EB000A60195010E94E51620E030E040E85EE3DF
:100EC0000E9498189B01AC01C601B5010E94E6166C
:100ED000E62F692F00913201109133012E2F372F09
:100EE000482F562FB901CA010E948B0F26E530E02A
:100EF000029FF001039FF00D129FF00D1124EE5898
:100F0000FD4F608F718F828F938F1F910F91FF9094
:100F1000EF90DF90CF90BF90AF9008950F931F9305
:100F200080918602909187020E94A20F8C0160E05E
:100F300070E080E090E00E948B0FAB01BC01EAE81A
:100F4000F2E086E590E0089F9001099F300D189F20
:100F5000300D11242E0F3F1F06C040835183628342
:100F60007383EA5AFF4FE217F307B9F720983C9AC8
:100F70003D9A80916F00806280936F001F910F9166
:100F800008951F920F920FB60F9211242F933F9343
:100F90004F935F936F937F938F939F93AF93BF9381
:100FA000EF93FF9380915801813029F08130F0F068
:100FB0008230F9F40AC01092550110925401109237
:100FC00057011092560182E012C080915401909115
:100FD00055010196909355018093540180915401DD
:100FE00090915501449728F083E001C081E08093FF
:100FF00058010E94A10CFF91EF91BF91AF919F9179
:101000008F917F916F915F914F913F912F910F90B1
:101010000FBE0F901F9018950E949C0B0895FF9291
:101020000F93CF93DF93F82E062F6D3F90F08091B2
:101030006701909168010196909368018093670120
:101040008091750180688093750183E080937601BB
:1010500002E00E94490BC4E7D1E0F0927401602FD6
:101060006F5FCE014FEF5FEF0E942E0BE02FF0E09D
:10107000EC0FFD1F81839283D0936F02C0936E02A9
:101080000D5F00933401E0917002F0917102359789
:101090008081806280838091C10084FFFCCF1092A8
:1010A0003501DF91CF910F91FF900895682F8091C6
:1010B00000010E940F080895209167013091680196
:1010C0002F5F3F4F30936801209367019091750126
:1010D0009068909375018093760182E00E94560893
:1010E0000895DC011296EC9112978E2F8B50883068
:1010F000B0F4F0E0EE0FFF1FE35BFE4F818113962B
:101100008C9313971296EC911297F0E0EE0FFF1F5D
:10111000E35BFE4F808114968C9385E012C0EE2332
:1011200079F0EA3049F4E3E6F1E01192119281E0BE
:10113000E337F807D1F704C081E00E945C08089506
:10114000862F0E945608089560913401625084E70A
:1011500091E04FEF5FEF0E942E0BE0913401F0E041
:10116000EE58FE4F208131818217930711F480E001
:10117000089583E008951F93182F809134018430DF
:1011800020F1809134018B3F00F50E94A408882350
:10119000E1F4809163019091640101969093640160
:1011A0008093630180917401882311F08117B1F459
:1011B0008091690190916A01019690936A018093F0
:1011C00069018091340183500AC08091650190913A
:1011D00066010196909366018093650180E01F91FE
:1011E0000895FC016281738184819581613822E4D4
:1011F000720720E0820720E0920720F082E00E9440
:101200005C080895AF01495F5F4F26810E94B01CC2
:1012100087E00E9456080895DF93CF9300D000D056
:10122000CDB7DEB79C01DE011196FC0134968381B7
:101230008983828111968C931197818112968C9368
:101240001297F901848113968C9389819A81AB81DD
:10125000BC818030FBE49F07F0E0AF07F0E0BF0700
:1012600009F45AC081304BE4940740E0A40740E001
:10127000B40738F5803CE2E19E07E0E0AE07E0E02D
:10128000BE0709F449C0813CF2E19F07F0E0AF07D7
:10129000F0E0BF0738F480569940A040B04009F014
:1012A00057C03AC08038E5E29E07E0E0AE07E0E0D4
:1012B000BE0791F180549843A040B04009F048C067
:1012C0002BC0803041EE940740E0A40740E0B40713
:1012D00019F18130E1EE9E07E0E0AE07E0E0BE07E5
:1012E00070F48038F0E79F07F0E0AF07F0E0BF0749
:1012F00099F080509649A040B04051F50DC0803023
:10130000ECE29E07E1E0AE07E0E0BE0729F0805086
:10131000924CA140B040E1F4F90181818230C0F4E7
:1013200062816623A9F08381882391F088EB91E0A4
:101330000E946019CE01019669EB71E044E050E033
:101340000E9456198CE00E9456080E94570B03C059
:1013500083E00E945C080F900F900F900F90CF9148
:10136000DF910895CF93DF93EC01EE81E63FB0F576
:101370008981882319F0813089F517C02A813B8142
:101380004C815D81DA01C9018E0F911DA11DB11D36
:1013900081589244A040B040B8F4CE010796B901FC
:1013A0004E2F50E00E94FE181DC02A813B814C81C7
:1013B0005D81DA01C9018E0F911DA11DB11D815002
:1013C0009240A040B04010F082E009C0CE010796E4
:1013D000B9014E2F50E00E94381904C083E00E94EA
:1013E0005C0804C08E81895F0E945608DF91CF910E
:1013F0000895CF93DF93EC01998180E02A81422FF9
:1014000050E0482B592B9B8180E02C8130E0282B29
:10141000392BF901EE0FFF1FE9834C3D5105C8F44C
:10142000240F351F2D3D310590F49E012E5F3F4F57
:10143000440F551F4E585D4FC901BA014E2F50E061
:101440000E94071989818E5F0E94560805C083E0BB
:1014500001C082E00E945C08DF91CF910895CF9295
:10146000DF92EF92FF920F931F93CF93DF938C0144
:101470007B01CB010E94A20F000F111F0431110547
:10148000D9F401970497C0F027C0C7010E94A20FAA
:101490009C01CC9DC001CD9D900DDC9D900D112433
:1014A00084599F4F0817190729F4225030402D31D5
:1014B000310590F4219605C0C0E0D0E026E5C22EAB
:1014C000D12C80918602909187020E94A20FC817AA
:1014D000D907D8F281E001C080E0DF91CF911F9160
:1014E0000F91FF90EF90DF90CF900895EF92FF92D1
:1014F0000F931F93DF93CF9300D0CDB7DEB7FC01DE
:10150000918180E02281022F10E0082B192B948119
:1015100080E02381622F70E0682B792B7A836983C6
:1015200081E0083B1807E8F50C3D110510F478013F
:1015300006C054E2E52E5FEFF52EE00EF11EC70166
:101540000E942F0A882311F483E02CC0EE0CFF1CAC
:101550000C3D110550F0E2E7F2E0EE0EFF1E89812E
:101560009A81F7019183808312C087010050104057
:10157000CE010196B80142E050E00E945619C70121
:101580008E589D4FB80142E050E00E94381982E128
:1015900092E2909373028093720285E00E94560853
:1015A00003C082E00E945C080F900F90CF91DF9102
:1015B0001F910F91FF90EF900895FC01808188307A
:1015C00011F1893028F4843051F0863001F50BC0D8
:1015D000863469F0873499F08534C9F40CC0CF01A2
:1015E0000E94F9090895CF010E94760A0895CF015B
:1015F0000E94B2090895CF010E94F1080895CF0119
:101600000E940C090895CF010E947108089581E09D
:101610000E945C0808951F9380917802909179024E
:10162000892B31F08091880290918902892BA1F059
:101630000E949C0B182F882369F0809100010E9462
:10164000BB08882339F010924D0485E791E0612FA3
:101650000E94DD0A0E9489101F910895DC010FC0CD
:10166000ED91E4272E2F30E0C90188599F4FFC01EE
:101670004491452728593E4FF90154916150662302
:1016800079F7952F80E0242F30E0282B392BC901E2
:101690000895E1ECF0E080818F7E80835A9A08956E
:1016A0005A98E1ECF0E08081806180830895E1EC5C
:1016B000F0E080818869808386EC90E090937102ED
:1016C000809370025A98529A8FE28093C40083E606
:1016D0008093000181E08BB9EEE6F0E080818160CB
:1016E000808308951F920F920FB60F9211248F934B
:1016F0009F93AF93BF93809173018F5F809373012A
:1017000080912A0490912B04A0912C04B0912D0477
:101710000196A11DB11D80932A0490932B04A093E0
:101720002C04B0932D04BF91AF919F918F910F9096
:101730000FBE0F901F901895809136018130E9F00F
:10174000813028F0823031F18330B9F52DC080919D
:101750003501882361F4809173018D3170F181E04E
:1017600080933601109234018093350111C081E0DD
:10177000809335011092340109C080913501823087
:1017800021F0809135018530C1F482E080933601EB
:1017900080E00895809173018E3030F083E0809373
:1017A000360185E080933501809173018D3128F0F9
:1017B0001092360180913401089580E008951F92BF
:1017C0000F920FB60F9211248F939F93EF93FF9375
:1017D000E0917002F0917102908180913501853025
:1017E00019F4109234011EC0809135018823C1F094
:1017F00080913401882319F482E08093350180912F
:101800003401E82FF0E0EC58FE4F90838F5F809317
:101810003401809134018A3F18F085E080933501CE
:1018200010927301FF91EF919F918F910F900FBED6
:101830000F901F9018951F920F920FB60F921124C0
:101840008F93EF93FF93E1ECF0E080818F7B8083B7
:101850005A9880818061808381E080933501109265
:101860007301FF91EF918F910F900FBE0F901F901A
:1018700018951F920F920FB60F9211248F939F937A
:10188000AF93BF93EF93FF93A0917002B091710259
:10189000E0916E02F0916F0280818C9380916E02D4
:1018A00090916F02019690936F0280936E028091E7
:1018B000340181508093340180913401882369F48C
:1018C000E0917002F0917102359780818F7D808365
:1018D0008091C10080648093C100FF91EF91BF911E
:1018E000AF919F918F910F900FBE0F901F90189501
:1018F000DF93CF9300D000D0CDB7DEB7BC01CE01CF
:10190000019644E050E00E94FE1829813A814B8103
:101910005C81B901CA010F900F900F900F90CF9189
:10192000DF9108950895882319F4662339F0862FEE
:1019300090E0880F991F8093010108951092010192
:1019400008958091020190910301892B31F08091DB
:10195000020190910301019717C088B198E089278F
:1019600088B9809137018F5F80933701909137015B
:1019700080910101981730F043981092370182EC62
:1019800091E002C083E490E0909303018093020110
:1019900008958F929F92AF92BF92DF92EF92FF9243
:1019A0000F931F93CF93DF93DD240F2EF0E0EF2EE4
:1019B000F0E0FF2EF0E00F2FF0E01F2FF02D26E5D6
:1019C000822E912C9CE3A92EB12C28C0C89DF00139
:1019D000C99DF00DD89DF00D1124E252FD4F80817C
:1019E00091810E94A20FCA9D9001CB9D300DDA9D7E
:1019F000300D1124280F391F220F331F220F331FE0
:101A0000C9018C58944C0E94780C9B01AC01C80110
:101A1000B7010E94E6167B018C01D3948091860267
:101A2000909187020E94A20FCD2DD0E0C817D90750
:101A300068F2B701C801DF91CF911F910F91FF901C
:101A4000EF90DF90BF90AF909F908F9008950F938D
:101A50001F938C0186E590E0089FF001099FF00D2F
:101A6000189FF00D1124E252FD4F808191810E9458
:101A7000A20F2CE330E0A901049F9001059F300DD7
:101A8000149F300D1124280F391F220F331F220FEE
:101A9000331FC9018450954C0E94780C1F910F91FF
:101AA00008952F923F924F925F926F927F928F9202
:101AB0009F92AF92BF92CF92DF92EF92FF920F93DD
:101AC0001F93DF93CF9300D000D0CDB7DEB75C017A
:101AD00086E590E0A89E6001A99ED00CB89ED00C2F
:101AE00011248AE892E0C80ED91EF6016081718146
:101AF000828193810E948B0F69837A838B839C837D
:101B0000C5010E94270D7B018C0120E030E84BEBE2
:101B100054E40E944A17882354F40F2EF0E0EF2E6D
:101B2000F0E8FF2EFBEB0F2FF4E41F2FF02D80EFDA
:101B300090E0A89E4001A99E900CB89E900C1124A4
:101B400080E09BE3880E991EC4010E94780C20E07F
:101B500030E048E452E40E94E5169B01AC01698143
:101B60007A818B819C810E94941888230CF4D4C0C4
:101B7000C801B70120E030E048E452E40E94E616D4
:101B80009B01AC0169817A818B819C810E944A17FB
:101B900018160CF4C1C0C4010E94780C9B01AC0162
:101BA00069817A818B819C810E944A1788233CF449
:101BB000C4010E94780C69837A838B839C83C5015E
:101BC0000E94270D9B01AC0169817A818B819C81E8
:101BD0000E94941818163CF4C5010E94270D6983D1
:101BE0007A838B839C83F601EC5AFF4F808191812D
:101BF0000E94A20F082F02508CE390E0A89E600183
:101C0000A99ED00CB89ED00C112401C00150E02E2A
:101C1000FF24C7018C0D9D1D880F991F880F991FE8
:101C20008050954C0E94780C9B01AC0169817A81AF
:101C30008B819C810E944A17882314F4002331F77A
:101C40008CE390E0A89E6001A99ED00CB89ED00CB9
:101C50001124EC0CFD1CEE0CFF1CEE0CFF1CC7014C
:101C60008050954C0E94780C3B014C0110E00F5FB6
:101C70001F4F0C0D1D1D000F111F000F111FC8015C
:101C80008050954C0E94780C1B012C01C70188588C
:101C9000944C0E94780C5B016C01C8018858944CEC
:101CA0000E94780CA60195010E94E5167B018C012B
:101CB00069817A818B819C81A40193010E94E51640
:101CC0009B01AC01C801B7010E9498187B018C01EF
:101CD000C201B101A40193010E94E5169B01AC0170
:101CE000C801B7010E944E17A60195010E94E61691
:101CF0007B018C0120E030E040E85FEB0E9494180B
:101D0000181654F4C801B70120E030E543EC57E45D
:101D10000E944A17882354F00F2EF0E0EF2EF0E0D7
:101D2000FF2EF0E00F2FF0E01F2FF02DB701C801BC
:101D30000F900F900F900F90CF91DF911F910F9107
:101D4000FF90EF90DF90CF90BF90AF909F908F90DB
:101D50007F906F905F904F903F902F900895DF920B
:101D6000EF92FF920F931F93DD240F2EF0E0EF2EE2
:101D7000F0E0FF2EF0E00F2FF0E01F2FF02D0DC050
:101D80008D2D90E00E94510D9B01AC01C801B7015F
:101D90000E94E6167B018C01D3948091860290917B
:101DA00087020E94A20F2D2D30E02817390740F33B
:101DB000B701C8011F910F91FF90EF90DF90089538
:101DC000EF92FF920F931F930E94AF0E7B018C0145
:101DD0000E94C90C9B01AC01C801B7010E944E17BB
:101DE0007B018C0120E030E040E85FEB0E9494181A
:101DF000181654F4C801B70120E030E040E050E488
:101E00000E944A1787FD0AC00F2EF0E0EF2EF0E087
:101E1000FF2EF0E00F2FF0E01F2FF02DB701C801CB
:101E20001F910F91FF90EF900895BF92CF92DF9294
:101E3000EF92FF920F931F93CF93DF9380918602CF
:101E4000909187020E94A20F6C010E94CB06CCE306
:101E5000D1E00AE812E07E01EC0CFD1CA3E0BA2EF2
:101E600014C01882F80160817181828193810E947F
:101E70008B0F20E030E040E85FE30E944A178823A0
:101E80000CF4B88221960A5A1F4FCE15DF0549F788
:101E90000E94E00E609338017093390180933A01FB
:101EA00090933B010E948B0F60937A0270937B02A8
:101EB00080937C0290937D0220E030E00BC0F9011A
:101EC000E45CFE4F8081833019F4822F8E5F06C060
:101ED0002F5F3F4F2C153D0590F380E0DF91CF91B0
:101EE0001F910F91FF90EF90DF90CF90BF900895DA
:101EF000362F3695DC01E62FF0E03197E80FF91F19
:101F000020E006C09C9180818D9390832F5F319754
:101F10002317C0F30895DF93CF9300D000D0CDB73F
:101F2000DEB769837A838B839C832C813B814A81D2
:101F30005981B901CA010F900F900F900F90CF9166
:101F4000DF910895DF93CF9300D0CDB7DEB79A83AA
:101F50008983982F8A810F900F90CF91DF910895F8
:101F600080917401843489F4809175018F3411F467
:101F700088E703C0803549F489E780933104809174
:101F800000018093320484E0089583E00895109264
:101F90002F040E94490B84E791E090936F02809395
:101FA0006E0280913004809334018091C100806280
:101FB0008093C1008091C10084FFFCCF08951F93DE
:101FC000CF93DF9310E060E0C82FD0E0219707C0E7
:101FD000EC58FE4F80810E94E614682F1F5FE12FAE
:101FE000F0E0EC17FD07A4F3862FDF91CF911F914E
:101FF000089580913401809330048091740181337D
:1020000021F580913401843000F1809134010E94E7
:10201000DF0FE0913401F0E0ED58FE4F9081891719
:1020200051F4809175018093320480917601809300
:10203000310484E008958091750180933204809189
:1020400076018093310483E0089583E008958091C0
:1020500034018330C8F00E94B00F8430B9F00E9480
:10206000F90F843071F480915004882321F4809119
:1020700032048F3F59F090913204809100019817FB
:1020800029F081E080932F0480E0089581E0089595
:102090001F9310922F040E94490B8EE380937401CA
:1020A0008091320480937501809131048093760190
:1020B00010913004809130040E94DF0FE12FF0E096
:1020C000ED58FE4F808384E791E090936F028093F8
:1020D0006E0280913004809334018091C10080624F
:1020E0008093C1008091C10084FFFCCF1F910895AF
:1020F0001092770185E0809330040E944810089583
:1021000081E08093770185E0809330040E9448103D
:102110000895EF92FF920F931F9380914D048823AF
:1021200091F1E0902A04F0902B0400912C0410917E
:102130002D0460911F0170E080E090E020E23CE11E
:1021400040E050E00E9483196E157F0580079107DB
:10215000D0F480912E04823051F48091000180935C
:10216000320487E08093310482E090E002C081E095
:1021700090E00E94131310922A0410922B041092E4
:102180002C0410922D040E942710882309F4AAC061
:1021900010924D04809131048C3009F484C08D304C
:1021A00058F5863009F461C0873098F4833009F41B
:1021B00053C0843038F4813009F448C0823009F0CB
:1021C0008FC047C0843009F44AC0853009F088C008
:1021D00049C0893009F45EC08A3038F4873009F488
:1021E0004EC0883009F07CC052C08A3009F455C016
:1021F0008B3009F075C054C0833109F463C0843159
:1022000098F48F3009F458C0803138F48D3009F4D7
:102210004DC08E3009F064C04CC0813109F44CC00F
:10222000823109F05DC04BC0873109F454C0883158
:1022300038F4843109F449C0853109F051C048C0EF
:102240008837B1F0893709F04BC01CC00E941914BF
:1022500049C00E94DB1246C00E94581243C00E942F
:102260004B1240C00E9482123DC082E090E004C048
:102270000E94A91181E090E00E94131333C082E014
:1022800090E002C081E090E00E941F122BC00E94EB
:10229000FC1228C00E941A1225C00E94171222C0E8
:1022A0000E9414121FC00E9411121CC00E940E1224
:1022B00019C00E940B1216C00E94051213C00E9482
:1022C000021210C00E94EE110DC00E9474120AC0CA
:1022D0000E94681207C0809177010E94C51102C058
:1022E0000E9478101F910F91FF90EF900895EF9248
:1022F000FF920F931F93E0903801F0903901009105
:102300003A0110913B01C801B70120E030E04AE7F3
:1023100054E40E9498180E94B61770933D0460938D
:102320003C04C801B70120E030EC4FE754E40E94C0
:1023300098180E94B61770933704609336041F9163
:102340000F91FF90EF9008958AEE91E00E94481956
:1023500008958AEE91E00E944819882339F0F9998E
:10236000FECF8AEE91E060E00E94601908958AEE47
:1023700091E00E944819882339F4F999FECF8AEE3A
:1023800091E061E00E94601908951F93182F88233F
:1023900051F4F999FECF85EC91E060E00E9460195C
:1023A0000E94A91117C0813051F40E94A911109305
:1023B0004D04F999FECF85EC91E061E009C08230CF
:1023C00049F40E94B711F999FECF85EC91E060E0E5
:1023D0000E9460190E9478101F91089580917701E2
:1023E00080931F01882319F481E080931F01F999DC
:1023F000FECF83EC91E060911F010E9460190E9462
:10240000781008950E94781008950E947810089519
:102410000E94781008950E94781008950E94781004
:1024200008950E94781008950E94781008950E94DF
:10243000781008950E9477110E94781008950297ED
:1024400079F40E94781082E080932E0491E09093BA
:102450004D0480911F018823E9F490931F01089592
:1024600085EC91E00E944819882339F0F999FECF54
:1024700085EC91E060E00E9460190E94B71191E044
:1024800090932E0490934D0480911F01882311F4A2
:1024900090931F0108956091770160935004F9991A
:1024A000FECF8EEB91E00E9460190E947810089593
:1024B0001F9310917701F999FECF88EB91E0612F7E
:1024C0000E946019109300010E9478101F910895D6
:1024D00084EC91E00E9448198093770185E0809315
:1024E00030040E944810089582EC91E00E9448193F
:1024F000809344048093770185E0809330040E94A8
:1025000048100895209146043091470440914804B2
:1025100050914904852F9927AA27BB2780937A01D8
:10252000CA01AA27BB2780937901BB27A52F942F27
:10253000832F8093780120937701909151048091AB
:10254000520480937C0190937B0190914E04809182
:102550004F0480937E0190937D0190914A04809175
:102560004B048093800190937F0180914504809378
:10257000810190913404809135048093830190937C
:10258000820190913E0480913F0480938501909355
:102590008401809100018093860180915004809392
:1025A000870180914C048093880186E180933004F8
:1025B0000E944810089520914604309147044091AC
:1025C000480450914904852F9927AA27BB27809357
:1025D0007A01CA01AA27BB2780937901BB27A52FBF
:1025E000942F832F809378012093770188E0809344
:1025F00030040E94481008950E947711F999FECF87
:1026000060913C0470913D0484ED91E00E946E194C
:1026100084ED91E00E94501990934F0480934E04F2
:102620000E9478100895EF92FF920F931F93DF930B
:10263000CF9300D000D000D0CDB7DEB70297E1F441
:102640000E94771180913304809377018091360442
:1026500090913704809378019093790180913C04A4
:1026600090913D0480937A0190937B0189E080935F
:1026700030040E944810D0C00E94771184E791E096
:1026800064E071E00E941B1984E791E065E071E06D
:102690000E94101980913C0490913D048E010F5FBF
:1026A0001F4FB80140E150E00E942219F80101904B
:1026B0000020E9F73197E01BF10BE430F105A4F4B9
:1026C000EE24FF2404E010E00E1B1F0B09C084E77A
:1026D00091E068E071E00E9410190894E11CF11C7F
:1026E000E016F106A4F307C0349729F0C8016AE0A8
:1026F00071E00E941B1984E791E08E010F5F1F4F6C
:10270000B8010E94101984E791E06FE071E00E9427
:1027100010198091330490E0B80140E150E00E942C
:102720002219F80101900020E9F73197E01BF10B25
:10273000E230F105A4F4EE24FF2402E010E00E1BC9
:102740001F0B09C084E791E068E071E00E94101956
:102750000894E11CF11CE016F106A4F307C03297BF
:1027600029F0C80163E171E00E941B1984E791E040
:102770008E010F5F1F4FB8010E94101984E791E08E
:1027800066E171E00E94101980913604909137043F
:10279000B80140E150E00E942219F80101900020A8
:1027A000E9F73197E01BF10BE430F105A4F4EE24D6
:1027B000FF2404E010E00E1B1F0B09C084E791E02A
:1027C00068E071E00E9410190894E11CF11CE01609
:1027D000F106A4F307C0349729F0C8016AE071E05C
:1027E0000E941B1904E711E0C801BE016F5F7F4F13
:1027F0000E941019C8016AE171E00E941019F801E5
:1028000001900020E9F78F0101501040045711405A
:10281000009330040E94C70F26960FB6F894DEBFCF
:102820000FBECDBFCF91DF911F910F91FF90EF9021
:10283000089588EE91E00E944819882309F047C066
:1028400080917A0190E0A0E0B0E0BA2FA92F982FF4
:1028500088272091790130E040E050E0822B932BD3
:10286000A42BB52BBA2FA92F982F88272091780158
:1028700030E040E050E0822B932BA42BB52BBA2FF5
:10288000A92F982F88272091770130E040E050E071
:10289000822B932BA42BB52B809346049093470453
:1028A000A0934804B0934904F999FECF86E494E0DC
:1028B0006CED71E044E050E00E945619F999FECFAA
:1028C00088EE91E061E00E9460190E9478100895FE
:1028D0001F938EEB91E00E944819809350048FEB78
:1028E00091E00E9448198093450481EC91E00E9498
:1028F000481980934C0482EC91E00E94481980931F
:10290000440483EC91E00E94481980931F0184ECF9
:1029100091E00E9448198093BD0185EC91E00E94EE
:102920004819182F8AEE91E00E944819112329F0C6
:1029300081E080934D0482E005C0882331F081E07E
:1029400080934D0480932E0402C010924D0484ECB9
:1029500091E00E9448198093BD0182ED91E00E94B0
:10296000501990934B0480934A0484ED91E00E94A7
:10297000501990934F0480934E0486ED91E00E948D
:102980005019909352048093510488ED91E00E9475
:10299000501990933504809334048AED91E00E949D
:1029A000501990933F0480933E0486E494E06CEDCC
:1029B00071E044E050E00E94381980911F018823A3
:1029C00019F481E080931F011F910895282F98E04A
:1029D00038E1862F822780FF04C0632766956068F0
:1029E00001C06695915011F02695F3CF862F08957A
:1029F000ECE7F0E090818F70907F892B80830895C1
:102A0000EEE7F0E0808180638083E4E6F0E080819F
:102A10008E7F8083ECE7F0E080818F7780838081F8
:102A20008064808380E090E0A0EAB0E4809340017D
:102A300090934101A0934201B09343018081807F34
:102A400086608083EAE7F0E0808186608083808111
:102A500080688083089580917A00806480937A00F2
:102A600080917A0084FFFCCF80917A00806180930E
:102A70007A002091780030917900C90108956F9211
:102A80007F928F929F92AF92BF92CF92DF92EF92FE
:102A9000FF920F931F9390917C008F70907F892BF2
:102AA00080937C0080917C00806880937C00809182
:102AB0007C00806480937C008DEC9CECACE8BFE3F0
:102AC0008093400190934101A0934201B093430150
:102AD0000E942B150F2EF0E06F2EF0E07F2EF0E01D
:102AE0008F2EF0E09F2EF02D10E00E942B15A0E01D
:102AF000B0E0BC01CD010E94E2175B016C0120E057
:102B000030E04AE754E40E949418181614F410E0D8
:102B10000CC0C401B301A60195010E94E6163B0159
:102B20004C011F5F103109F711E080917C008F7715
:102B300080937C0080917C00806480937C0080E0A6
:102B400090E0A0EAB0E48093400190934101A0930B
:102B50004201B09343010E942B151123F1F40F2E73
:102B6000F0E06F2EF0E07F2EF0E08F2EF0E09F2E51
:102B7000F02D0E942B15A0E0B0E0BC01CD010E9419
:102B8000E2179B01AC01C401B3010E94E6163B01B0
:102B90004C011F5F103169F766C080917C00807F17
:102BA0008E6080937C000E942B150F2EF0E0AF2EDC
:102BB000F0E0BF2EF0E0CF2EF0E0DF2EF02D10E0A1
:102BC0000E942B15A0E0B0E0BC01CD010E94E217ED
:102BD0009B01AC01C601B5010E94E6165B016C01C8
:102BE0001F5F103169F7E0904001F09041010091C2
:102BF00042011091430120E030E040E85DE30E9493
:102C00009818A80197010E949818E0904401F0904C
:102C10004501009146011091470120E030E040E875
:102C20005AE30E949818A80197010E94E5162DEC1E
:102C30003CEC4CEC5DE30E9498189B01AC01C80190
:102C4000B7010E94E616609344017093450180939A
:102C50004601909347016093400170934101809336
:102C6000420190934301E0904001F09041010091B6
:102C7000420110914301C401B30120E030E040E87B
:102C80005DE30E949818A80197010E94981820E01F
:102C900030E040E85AE30E9498181F910F91FF908E
:102CA000EF90DF90CF90BF90AF909F908F907F90EC
:102CB0006F900895E4E6F0E080818F7B8083E0EB05
:102CC000F0E08081826080831092B30082E0809384
:102CD000B100E0E7F0E080818260808308950F9387
:102CE0001F939B01AC0160E070E081E699E40E94D3
:102CF0004E1720E030E040E85FE30E94E5160E94B6
:102D0000B6178B019C01FB01CB016FEF70E00E94B5
:102D1000A219462F6F5FC80170E00E94A219242FEC
:102D200030E0862F90E0DC01A29FC001A39F900DB0
:102D3000B29F900D1124E81BF90B88279927821B5D
:102D4000930B03C0E80FF91F6F5FEF3FF10509F028
:102D5000C8F76150F8946093480140934A01E093AA
:102D6000530478941F910F9108951F920F920FB6FC
:102D70000F9211248F939F9380914B01882351F0E0
:102D8000809149018093B30080914B0181508093E1
:102D90004B0114C08BB198E089278BB98091540402
:102DA0008093B30080914A0180934B018091480148
:102DB0008093490180915304809354049F918F9193
:102DC0000F900FBE0F901F9018955058BB27AA2741
:102DD0000ED070C161D130F066D120F031F49F3F48
:102DE00011F41EF456C10EF4E095E7FB4CC1E92F37
:102DF00072D180F3BA17620773078407950718F03A
:102E000071F49EF58AC10EF4E0950B2EBA2FA02D19
:102E10000B01B90190010C01CA01A0011124FF2787
:102E2000591B99F0593F50F4503E68F11A16F04082
:102E3000A22F232F342F4427585FF3CF4695379581
:102E40002795A795F0405395C9F77EF41F16BA0B46
:102E5000620B730B840BBAF09150A1F0FF0FBB1FF4
:102E6000661F771F881FC2F70EC0BA0F621F731F3D
:102E7000841F48F4879577956795B795F7959E3F9A
:102E800008F0B3CF9395880F08F09927EE0F979528
:102E900087950895D4D008F481E008950CD00AC134
:102EA00002D140F0F9D030F021F45F3F19F0EBC0CF
:102EB000511134C1EEC00FD198F39923C9F35523B2
:102EC000B1F3951B550BBB27AA276217730784071D
:102ED00038F09F5F5F4F220F331F441FAA1FA9F3D3
:102EE00033D00E2E3AF0E0E830D091505040E695C5
:102EF000001CCAF729D0FE2F27D0660F771F881F26
:102F0000BB1F261737074807AB07B0E809F0BB0B14
:102F1000802DBF01FF2793585F4F2AF09E3F510538
:102F200068F0B1C0FBC05F3FECF3983EDCF38695E0
:102F300077956795B795F7959F5FC9F7880F911DAE
:102F40009695879597F90895E1E0660F771F881F9A
:102F5000BB1F621773078407BA0720F0621B730B4D
:102F6000840BBA0BEE1F88F7E0950895BCD088F06B
:102F70009F5790F0B92F9927B751A0F0D1F0660F65
:102F8000771F881F991F1AF0BA95C9F712C0B13080
:102F900081F0C3D0B1E00895C0C0672F782F882793
:102FA000B85F39F0B93FCCF3869577956795B395BF
:102FB000D9F73EF490958095709561957F4F8F4F2E
:102FC0009F4F0895E89409C097FB3EF49095809533
:102FD000709561957F4F8F4F9F4F9923A9F0F92FDF
:102FE00096E9BB279395F695879577956795B7955D
:102FF000F111F8CFFAF4BB0F11F460FF1BC06F5F43
:103000007F4F8F4F9F4F16C0882311F096E911C054
:10301000772321F09EE8872F762F05C0662371F075
:1030200096E8862F70E060E02AF09A95660F771F89
:10303000881FDAF7880F9695879597F90895990F65
:103040000008550FAA0BE0E8FEEF16161706E80772
:10305000F907C0F012161306E407F50798F0621B93
:10306000730B840B950B39F40A2661F0232B242B68
:10307000252B21F408950A2609F4A140A6958FEF87
:10308000811D811D089597F99F6780E870E060E0D9
:1030900008959FEF80EC089500240A9416161706F1
:1030A00018060906089500240A9412161306140639
:1030B00005060895092E0394000C11F4882352F09C
:1030C000BB0F40F4BF2B11F460FF04C06F5F7F4F54
:1030D0008F4F9F4F089557FD9058440F551F59F03B
:1030E0005F3F71F04795880F97FB991F61F09F3FF5
:1030F00079F087950895121613061406551FF2CF1E
:103100004695F1DF08C0161617061806991FF1CF6D
:1031100086957105610508940895E894BB27662794
:103120007727CB0197F908958ADF08F48FEF089588
:103130000BD0C0CFB1DF28F0B6DF18F0952309F02F
:10314000A2CFA7CF1124EACFC6DFA0F3959FD1F37A
:10315000950F50E0551F629FF001729FBB27F00D45
:10316000B11D639FAA27F00DB11DAA1F649F66279A
:10317000B00DA11D661F829F2227B00DA11D621FE9
:10318000739FB00DA11D621F839FA00D611D221FA3
:10319000749F3327A00D611D231F849F600D211D87
:1031A000822F762F6A2F11249F5750408AF0E1F02A
:1031B00088234AF0EE0FFF1FBB1F661F771F881F73
:1031C00091505040A9F79E3F510570F05CCFA6CFBB
:1031D0005F3FECF3983EDCF3869577956795B7955E
:1031E000F795E7959F5FC1F7FE2B880F911D969588
:1031F000879597F90895F8940C94B619FB01DC01B2
:1032000002C005900D9241505040D8F70895FB013F
:10321000DC0102C001900D9241505040D8F7089552
:10322000FB01DC010D900020E9F7119701900D9250
:103230000020E1F70895FB01DC0101900D920020D0
:10324000E1F70895FB019F01423074F0453264F4C8
:10325000642F77270E94A219805D8A330CF0895D64
:103260008193CB010097A1F71082C9010C947319C7
:10327000DC01CB01FC01F999FECF06C0F2BDE1BD36
:10328000F89A319600B40D9241505040B8F7089525
:10329000F999FECF92BD81BDF89A992780B508951E
:1032A000A8E1B0E042E050E00C943A19DC01CB0117
:1032B00003C02D910E94611941505040D0F70895EC
:1032C000262FF999FECF1FBA92BD81BD20BD0FB642
:1032D000F894FA9AF99A0FBE019608950E9460191F
:1032E000272F0C946119DC01FC01672F7191772362
:1032F000E1F7329704C07C916D9370836291AE17B1
:10330000BF07C8F30895629FD001739FF001829FA9
:10331000E00DF11D649FE00DF11D929FF00D839F64
:10332000F00D749FF00D659FF00D9927729FB00D01
:10333000E11DF91F639FB00DE11DF91FBD01CF0114
:1033400011240895AA1BBB1B51E107C0AA1FBB1F74
:10335000A617B70710F0A61BB70B881F991F5A9521
:10336000A9F780959095BC01CD010895F894FFCF01
:103370006314430000463D00300030303030002000
:10338000743D00303000204E3D002E300A0D00010B
:103960000F931F93CF93DF93DA010FB7F894F99970
:10397000FECFAB0183E0FB0180935700E89507B6CB
:1039800000FCFDCFFA0111E0BA0160587F4F8C9125
:1039900011963C91119720E0E901C80FD11D1296B4
:1039A0000E0110935700E89511243296E617F70799
:1039B00071F785E0FA0180935700E89507B600FC9F
:1039C000FDCF81E180935700E8950FBFDF91CF9144
:0639D0001F910F91089504
:103B000000000000000000000000000000000000B5
:103B100000000000000000000000000000000000A5
:103B20000000000000000000000000000000000095
:103B30000000000000000000000000000000000085
:00000001FF
