:103C000033C0000041C000003FC000003DC00000C4
:103C10003BC0000039C0000037C0000035C00000C4
:103C200033C0000031C000002FC000002DC00000D4
:103C30002BC0000029C0000027C0000025C00000E4
:103C400023C0000021C000001FC000001DC00000F4
:103C50001BC0000019C0000017C0000015C0000004
:103C600013C0000011C0000011241FBECFEFD4E02C
:103C7000DEBFCDBF22E0A0E0B1E001C01D92A630C2
:103C8000B207E1F734D04BC1BBCF9091C00095FF94
:103C9000FCCF8093C60008950000813410F4805357
:103CA00005C0813610F4875301C087558295807F07
:103CB0000000613410F4605305C0613610F467539E
:103CC00001C06755860F089507B600FCFDCFE0914F
:103CD0000101F091020183E080935700E89507B657
:103CE00000FCFDCF85E080935700E8950895FF9292
:103CF0000F931F93CF93DF9388E198E20FB6F89468
:103D0000A895809360000FBE909360002FEE99E01D
:103D1000E1E0F0E0022E90935700E89526E831E0CC
:103D20003093850120938401219A389A529A549AAB
:103D30003A9A3B9A29985C985A9A429A439853988F
:103D40005B9A4B99E4C01092C50093E09093C40035
:103D50008093C10085E699DF82E497DF8FE495DFE9
:103D60008FE493DF84E591DF86E78FDF81E38DDFEA
:103D70008EE28BDF80E389DF8AE087DF81E185DF08
:103D80008091C00087FFFCCF8091C6008A3339F450
:103D900026E831E030938501209384010EC08D30F8
:103DA00079F3882369F320918401309185012650AD
:103DB000324019F488E569DFFFCFE0918401F0918A
:103DC00085019F012F5F3F4F309385012093840130
:103DD00080838A30A9F686E891E0909385018093EC
:103DE000840183E152DF609188018091870154DF73
:103DF000082F60918A01809189014EDFC82F609160
:103E00008C0180918B0148DFD82F60918E018091C9
:103E10008D0142DFF82EC00FCD0FC80F10E00C5FF0
:103E20001F4F000F111FD9E08D2F90E0FC01EA57C2
:103E3000FE4F6181081719077CF080812DDFC80FC4
:103E4000E091030191E09E0F90930301F0E0EC5F9D
:103E5000FE4F8083DE5FE8CF80811EDFC1958C1727
:103E600019F086E412DFFFCFF11034C08EE20DDFCF
:103E7000C0E080910301C81780F58091000187FFA1
:103E80000DC022DF809101019091020180589F4F67
:103E900090930201809301011092000107B600FC8B
:103EA000FDCF80910001E0910101F0910201E80F46
:103EB000F11DAC2FB0E0AC5FBE4F2D913C9191E075
:103EC000090190935700E89511248E5F80930001BB
:103ED000CE5FCFCF81E0F81621F010920301C1E050
:103EE00007C08FE4D2DE809100018111EDDEC2E0D7
:103EF000A89581E1CADEC23009F042CF8BE4C5DE6D
:103F000007B600FCFDCF81E180935700E8950C9443
:103F10000000DF91CF911F910F91FF900895F894C9
:023F2000FFCFD1
:0400000300003C00BD
:00000001FF
