:020000040000FA
:0402FC00FFFFFFFF02
:020000040000FA
:10500000583C082081510000855100008751000064
:10501000895100008B5100008D51000000000000FC
:10502000000000000000000000000000F15000003F
:10503000000000000000000021510000137100007A
:1050400097510000975100009751000097510000C0
:105050009751000097510000EDC5000097510000E6
:10506000BFC5000097510000975100009751000004
:105070009751000097510000975100009751000090
:105080009751000097510000975100009751000080
:105090009751000097510000975100009751000070
:1050A00039450300975100009751000097510000C7
:1050B0009751000097510000975100009751000050
:1050C0009751000097510000975100000000000028
:1050D00000000000312E393100000000DFF80CD054
:1050E00031F0F2FF004800475D730000583C082093
:1050F000194B19680868B0E8F00F80F309884FF081
:10510000000080F311884EF00D0E70470000000083
:1051100002480068006880F3088800DF08ED00E0BE
:10512000EFF309800C4B1A6820E9F00F106008B506
:105130004FF0280080F3118801F0E7FD4FF00000E8
:1051400080F31188BDE8084019680868B0E8F00FDE
:1051500080F30988704700BF84C1072001B44FF075
:10516000280080F3118801BC704701B44FF00000A3
:1051700080F3118801BC70474FF03000D0F800F088
:1051800005480047FEE7FEE7FEE7FEE7FEE7FEE72D
:10519000FEE7FEE7FEE7FEE7DD50000070477047E0
:1051A0007047000000BF00BF2248006822498842C3
:1051B00001D1002000E001200128F4D100BF801EB1
:1051C0001C4909681C4A914204D01A4908681146D2
:1051D000184A116000BF704770B504460D46E0B232
:1051E0002CF035FB70BD00B50346FFF7DBFF00BDBB
:1051F00001464FF0FF3070470146104A126812F026
:10520000807F13D00E4A126812F0010F0ED00C4AA4
:10521000803A126812F0010F08D000BF4FF06042D0
:105220001268002AFAD04FF06043197000BF70472F
:1052300000BFFEE700C00720A55AA55AFCED00E01C
:10524000800E00E02DE9F0410446884617464FF4F1
:10525000097001F073FFA060A06818B94FF0FF302B
:10526000BDE8F081A0684FF4097130F09CFDA6689C
:1052700027743A464146304611F04DF9054615B9B6
:10528000F068606004E0A06802F026F80020A060EA
:105290002846E5E770B504460026A06808B9304600
:1052A00070BDA568284611F099FC0646A06802F07A
:1052B00013F80020A0603046F2E72DE9F0410446E3
:1052C0000D461646A76804F10C03324629463846B7
:1052D00011F0DBF980464046BDE8F0812DE9F04150
:1052E00004460D461646A76804F10C0332462946CB
:1052F000384611F0E1FA80464046BDE8F0817CB5C1
:10530000044600200190724800906A4601A971A0ED
:1053100011F03EFE05460198400200998978484305
:10532000206028467CBD70B50446A568284611F06B
:10533000C7FE0646304670BD70B50446A5682846CF
:1053400011F0E9FB0646304670BD70B504462046B4
:1053500011F071FF0546284670BD70B50446204621
:1053600011F001FF0546284670BD2DE9F0410446C5
:105370000D462560A6682946304611F07BFC07469D
:105380003846BDE8F0812DE9F04106460C4630462E
:1053900000F03DFC28B91020207200202060BDE8FC
:1053A000F081162001F0CAFE054615B94FF0FF3016
:1053B000F5E71621284630F0F6FC1621204630F09D
:1053C000F2FC2946304611F0C2FD074628682060ED
:1053D000A888A080E888E080287A207205F1090179
:1053E00004F1090030F040FD284601F075FF384611
:1053F000D5E770B505463649002010F0DAFF0446BF
:10540000204670BD01464FF0FF30704770B504462E
:105410000D462946204612F043F80646304670BD38
:105420002DE9F04104460D461C2001F087FEC4F82A
:105430001E00D4F81E0018B94FF0FF30BDE8F0810F
:10544000D4F81E001C2130F0AEFCD4F81E602846B3
:1054500000F0DDFB28B920A1304611F00DFD074614
:1054600004E02946304611F007FD07463846E5E7D7
:1054700010B50446D4F81E0001F02EFF002010BD28
:105480002DE9F04105460E46D6F81E70162001F0B3
:1054900055FE04461CB94FF0FF30BDE8F0811621DF
:1054A000204630F080FC2146384611F020FD804631
:1054B00004F1090105F1110030F0D6FC20686860A4
:1054C000207A2874204601F007FF4046E5E70000F7
:1054D0000CD10720303A00002F0000002DE9F041E8
:1054E00004460E461746701C07F0C0F9A060A0687D
:1054F00018B94FF0FF30BDE8F081A068022200210A
:1055000007F08CF90546681C01D1401EF3E7656081
:10551000A0680022114607F081F9A06810B94FF089
:10552000FF30E8E70020E6E72DE9F04104460E46AB
:105530001746A0683A46314607F052F90546681CFE
:1055400002D1401EBDE8F081E5600020FAE72DE9B8
:10555000F04104460E461746A0683A46314607F029
:105560004EF90546681C02D1401EBDE8F081E56099
:105570000020FAE770B504460D462560A0680022B9
:10558000294607F04BF9002070BD10B50446A0680D
:1055900007F062F9002010BD01464FF0FF30704760
:1055A00001464FF0FF30704701464FF0FF30704723
:1055B00001464FF0FF30704770B505460C4628464F
:1055C00000F025FB20B9102020720020206070BD63
:1055D0004FF0FF30FBE701464FF0FF3070470146C8
:1055E0004FF0FF30704702464FF0FF3070472DE913
:1055F000F04104460F462F48007818B92E484068FD
:105600002E4908602D48006805682B480078294914
:105610000978884230DD29480068006808B305F140
:105620002C0104F1110030F01FFC05F12C0007F0F3
:105630001DF9064656B10120207402220021304691
:1056400007F0ECF86060304607F006F91B48006888
:1056500040681A49086017480078401C15490870CE
:105660000EE0164800684068144908601148007848
:10567000401C1049087003E0002060740D49087058
:105680000020BDE8F08170B505460C46204600F0CC
:10569000BEFA08B9002070BD4FF0FF30FBE70146AD
:1056A0000020704710B504462F21204630F0F4FB4F
:1056B00010BD0000BCC00720A0C70720B8C007204D
:1056C0002DE9F04104460E461746701C0EF04EFDC3
:1056D000A060A06818B94FF0FF30BDE8F081A06865
:1056E000022200210EF060FC0546681C01D1401E1C
:1056F000F3E76560A068002211460EF055FC0546F0
:10570000681C01D1401EE8E7A06810B94FF0FF30D7
:10571000E3E70020E1E72DE9F04104460E46174695
:10572000A0683A4631460EF0E7FB0546681C02D1F8
:10573000401EBDE8F081E5600020FAE703464FF027
:10574000FF30704701464FF0FF30704770B5044698
:105750000D462560A9B2A06800220EF025FC0020AD
:1057600070BD01460020704701464FF0FF30704782
:1057700001464FF0FF30704701464FF0FF30704751
:1057800070B505460C4600243C4844680CE094F88B
:105790002C0038B1691C04F11D0030F04AFB08B937
:1057A000002070BDD4F80540002CF0D1601EF8E751
:1057B00070B505460C460026284600F028FA20B9A8
:1057C000102020720020206070BD31462846FFF76F
:1057D000D7FF10B94FF0FF30F6E74FF0FF30F3E797
:1057E00001464FF0FF30704701464FF0FF307047E1
:1057F00002464FF0FF30704770B504460D46204812
:10580000007818B91D4840681E4908601B48007898
:105810001B49097888421BDD1A48006890F82C0063
:1058200080B1184801681D3104F1110030F01CFBF3
:10583000012020740A20606012480068D0F805003A
:10584000104908600E480078401C0D49087003E0BC
:10585000002060740A490870002070BD70B50546CC
:105860000C46204600F0D3F908B9002070BD4FF077
:10587000FF30FBE701460020704700002CCA0720DC
:105880001CC1072018C10720E749096821B9E6496A
:1058900008600021C16004E0E3490968C160E24991
:1058A0000860E1490979491CDF4A11717047FEB56A
:1058B0000546012400BF0CE0285D2F2806D0285D96
:1058C00020B1295D601E0DF8001000E003E0601CAF
:1058D000C4B20A2CF0DB00BF0021601E0DF80010DE
:1058E0000A2C03DA00200DF8040001E00020FEBDC0
:1058F000CD48066807E06946304630F09AFA08B9A4
:105900003046F4E7F668002EF5D10020EFE710B539
:1059100004462F21601C30F07BFA10BD2DE9F047C2
:1059200004460D4617464FF000082846FFF7BFFF14
:1059300006461EB94FF0FF30BDE8F087294604F156
:10594000110030F091FA2846FFF7E1FF81463A4610
:10595000494620467369984780464046ECE770B553
:10596000044604F11100FFF7A2FF05462046A9698D
:10597000884770BD2DE9F04104460E46174604F1F4
:105980001100FFF794FF05461DB94FF0FF30BDE849
:10599000F0813A4631462046EB699847F7E72DE912
:1059A000F04104460E46174604F11100FFF77FFF51
:1059B00005461DB94FF0FF30BDE8F0813A4631464B
:1059C00020462B6A9847F7E770B5044604F11100AA
:1059D000FFF76DFF054615B94FF0FF3070BD20464B
:1059E000696A8847FAE770B5044604F11100FFF7C9
:1059F0005EFF054615B94FF0FF3070BD2046A96A1D
:105A00008847FAE770B505462846FFF750FF044679
:105A100014B94FF0FF3070BD2846FFF778FF0646F7
:105A2000E16A8847F7E770B505462846FFF73FFF6C
:105A3000044614B94FF0FF3070BD2846FFF767FFEA
:105A40000646216B8847F7E770B506460C46304698
:105A5000FFF72DFF054615B94FF0FF3070BD20460A
:105A6000696D8847FAE770B504460E4604F11100E7
:105A7000FFF71DFF054615B94FF0FF3070BD3146E9
:105A800020466A6B9047F9E72DE9F04105460E463E
:105A90002846FFF70CFF04461CB94FF0FF30BDE865
:105AA000F0812846FFF733FF07463146A26B904747
:105AB000F5E770B505462846FFF7F9FE044614B928
:105AC0004FF0FF3070BD2846E16B8847FAE770B5AC
:105AD00005462846FFF7EBFE044614B94FF0FF30A9
:105AE00070BD2846216C8847FAE72DE9F04106464B
:105AF0000C463046FFF7DBFE05461DB94FF0FF3080
:105B0000BDE8F0812046FFF702FF471C3046FFF753
:105B1000FEFE00F10108394640466A6C9047EFE707
:105B200070B504460E4641A1304630F082F928BBDC
:105B30003F48007818B93C4800683E4908603A4838
:105B400000793B490978884212DD3A48016804F13E
:105B5000110030F089F91120207436480068C068BF
:105B60003449086032480078401C3149087003E02D
:105B700000202F4908706074002070BD3046FFF788
:105B800096FE054615B94FF0FF30F6E73146204640
:105B9000AA6C9047F1E72DE9F04105460E4623A196
:105BA000304630F046F940B93146284630F05CF9CD
:105BB0000020C5F81E00BDE8F0813046FFF777FEF3
:105BC000044614B94FF0FF30F5E73146284630F06F
:105BD0004BF93046FFF79BFE074639462846E26CF4
:105BE0009047E8E770B5054610A1284630F021F946
:105BF00008B9002070BD2846FFF759FE044614B9C5
:105C00004FF0FF30F6E72846216D8847F2E710B5E0
:105C100004462F21204630F0FBF808B9002010BDC3
:105C20004FF0FF30FBE70000000000102F000000E5
:105C3000080000100C0000102DE9F04104460E464B
:105C40001746701C08F089FB0546A560E86860608F
:105C5000A87A2074A06818B94FF0FF30BDE8F08131
:105C60000020FBE72DE9F04104460E46174649A007
:105C700006F0FCFD804649480078012807D1227CC7
:105C80002168404606F0CAFD0020444908703A46A3
:105C90003146404606F0A4FD0546681C06D1404644
:105CA00006F0DAFD4FF0FF30BDE8F081E5604046D8
:105CB00006F0D2FD0020F7E70346002070470246B9
:105CC00011600120354B18700846704701460020CE
:105CD000704701464FF0FF30704701464FF0FF30EC
:105CE000704701464FF0FF30704770B505460C46CF
:105CF0002846FFF78CFF20B910202072002020607A
:105D000070BD4FF0FF30FBE701464FF0FF307047AA
:105D100001464FF0FF30704702464FF0FF307047AA
:105D200070B504460D461E48007818B91D48006835
:105D30001D4908601C480068B0B11B48016804F1A7
:105D4000110030F091F80120207417480068C068F5
:105D50006060154800684069134908601048007881
:105D6000401C0F49087003E0002060740C49087063
:105D7000002070BD70B505460C462046FFF747FF72
:105D800008B9002070BD4FF0FF30FBE7014600204E
:105D900070470000534156455200000078C107206B
:105DA00080C10720680000107CC1072000F10801B5
:105DB00041604FF0FF31816000F10801C160016175
:105DC00000210160704700210161704742685368FB
:105DD0004B6043688B605368996051604160086113
:105DE00003685B1C0360704710B502460B685C1CBF
:105DF00001D1106907E002F1080000E04068446842
:105E000024689C42FAD944684C604C68A160886060
:105E100041600A611468641C146010BDD0E901324D
:105E20009A60D0E901235A6001694A68824201D12F
:105E300082684A60002202610A68521E0A60704746
:105E40002DE9F04105460E4675B34C2001F076F978
:105E500004464CB305FB06F0471C384601F06EF9CA
:105E600020602068E8B1206805FB06006060002023
:105E7000A0632068A060681E216800FB0610E06037
:105E8000E56326644FF0FF306064A06404F1100005
:105E9000FFF78CFF04F12400FFF788FF2046BDE8E0
:105EA000F081204601F018FA0020F8E710B504460A
:105EB00001F01AF90DE0606A50B104F1240000F01D
:105EC000C0FF08B101F027F8A06C401EA06400E0FC
:105ED00002E0A06C0028EEDC00BF4FF0FF30A064B1
:105EE00001F00BF901F000F90DE0206950B104F167
:105EF000100000F0A6FF08B101F00DF8606C401E24
:105F0000606400E002E0606C0028EEDC00BF4FF04F
:105F1000FF30606401F0F1F810BD70B5044601F087
:105F2000E3F8A06BE16B884201D1012000E0002082
:105F3000054601F0E2F8284670BD70B504460E46ED
:105F40001546206C38B9206838BB606801F031F81C
:105F50000020606021E07DB93146226CA0682FF0FE
:105F600009FF216CA0680844A060D4E901108842B0
:105F700013D32068A06010E03146226CE0682FF057
:105F8000F9FE216CE068401AE0602168E068884210
:105F900003D2216C6068401AE060A06B401CA063D3
:105FA00070BDFFB583B004460E461D46002700BFF6
:105FB00001F09AF8A06BE16B884217D22A4631466D
:105FC0002046FFF7BAFF606A08B9012000E0002010
:105FD00038B904F1240000F034FF012801D101F0A8
:105FE0007DF801F08AF8012007B0F0BD059818B9D6
:105FF00001F083F80020F7E71FB901A800F056FF71
:10600000012701F07AF800F03DFB01F06DF8606CBB
:10601000401C00D16064A06C401C00D1A06401F061
:106020006CF805A901A800F048FFC0B92046FFF7A9
:1060300074FF70B104F11000059900F0D1FE204604
:10604000FFF734FF00F0C1FA0028B1D101F046F8A3
:10605000AEE72046FFF72AFF00F0B7FAA8E7204690
:10606000FFF724FF00F0B1FA0020BDE710B54C2087
:1060700001F064F80446D4B1002060602060A060A4
:10608000E060A0630120E06300202064401E6064A3
:10609000A06404F11000FFF789FE04F12400FFF76B
:1060A00085FE00231A4619462046FFF77AFF204650
:1060B00010BD2DE9F0470446884616461F464FF0AE
:1060C0000009FFF74BF8A06BE16B884216D23A4605
:1060D00041462046FFF731FFA06C401C09D1606AA1
:1060E00050B104F1240000F0ACFE28B10120306072
:1060F00002E0A06C401CA064012500E00025FFF731
:1061000034F82846BDE8F08770B5044600F0ECFF8F
:10611000A06B08B9012000E00020054600F0EDFF6B
:10612000284670BD70B504460D46206870B1216CDC
:10613000E0680844E0606168E068884201D3206854
:10614000E0602846226CE1682FF014FE70BD2DE956
:10615000FF4182B004460F461D464FF0000800BFC5
:1061600000F0C2FFA06B60B3E66839462046FFF737
:10617000D9FFB5B9A06B401EA063206810B900F02C
:10618000DFFE6060206908B9012000E0002090B9BE
:1061900004F1100000F055FE01280CD100F09EFF24
:1061A00009E0E660606A30B104F1240000F049FEC5
:1061B00008B100F093FF00F0A0FF012006B0BDE899
:1061C000F081049818B900F098FF0020F6E7B8F1C4
:1061D000000F04D1684600F069FE4FF0010800F09E
:1061E0008CFF00F04FFA00F07FFF606C401C00D184
:1061F0006064A06C401C00D1A06400F07EFF04A984
:10620000684600F05AFE08BB2046FFF77DFFB8B194
:10621000206830B900F068FF606800F094FE00F07C
:106220006CFF04F12400049900F0DAFD2046FFF72A
:106230003DFE00F0CAF9002892D100F04FFF8FE731
:106240002046FFF733FE00F0C0F989E72046FFF74C
:106250002DFE00F0BAF90020B0E72DE9F041044628
:106260000F4616464FF00008FEF778FFA06BC0B14E
:1062700039462046FFF756FFA06B401EA063606CB6
:10628000401C09D1206950B104F1100000F0D9FD83
:1062900028B10120306002E0606C401C6064012580
:1062A00000E00025FEF761FF2846BDE8F08170B5EB
:1062B000044600F019FFA56B00F01FFF284670BDD3
:1062C0000146886B704710B50446206801F004F859
:1062D000204601F001F810BD01468A6B0AB901227F
:1062E00000E000221046704701468A6BCB6B9A4251
:1062F00001D1012200E000221046704710B50024B1
:1063000007E004EB8401F84A02EB8100FFF74EFD41
:10631000641C052CF5D3F548FFF748FDF448FFF75A
:1063200045FDF448FFF742FDF348FFF73FFDF34812
:10633000FFF73CFDED48F2490860ED48F14908607F
:1063400010BD2DE9F04104460E4615469846069FBD
:106350000C22314604F134002FF04EFD00213F2085
:106360000155052D00D30425E5626564201DFFF766
:106370002AFD04F11800FFF726FD2461C5F1050090
:10638000A06164620020A064BDE8F08170B505469C
:106390000E464C2000F0D2FE044694B11EB9A8006F
:1063A00000F0CCFE00E030462063206B20B9204690
:1063B00000F092FF002404E0A900A522206B2FF03A
:1063C000EBFC204670BD2DE9FF4F81B0804615469D
:1063D0009946DDE90E7A28461099FFF7D7FF044663
:1063E000002C51D0681E216B01EB800B2BF0070BAA
:1063F00000953A462046119B0299FFF7A2FF4A46B4
:106400004146584600F040FE206000F06DFEBE4858
:106410000068401CBC49086008460068012804D197
:10642000BA480460FFF76AFF09E0B948006830B96C
:10643000B6480068C06AB84201D8B4480460B5499B
:10644000E06A0968884202D9B249E06A0860B24845
:1064500000682064B0480068401CAF490860AF493C
:10646000E06A0968884202D9AC49E06A0860E16ADA
:1064700001EB81019C4A02EB8100211DFFF7A6FC84
:10648000012600F03AFE01E04FF0FF36012E0ED15A
:10649000BAF1000F01D0CAF800409D48006830B141
:1064A0009A480068C06AB84201D200F017FE304630
:1064B00005B0BDE8F08F70B5044600F015FE9349B5
:1064C00020680968884201D100202060206810B946
:1064D0008E48006800E020680546281DFFF79EFCF6
:1064E000A86A18B105F11800FFF798FC291D824829
:1064F000FFF76CFC8A480068401C894908608648A0
:106500000068401C8449086000F0F7FD804800687E
:1065100018B1206808B900F0E1FD70BD10B58148E0
:106520000068002844D180480068401C7E4908600B
:106530000846006868B97249086872490968704A73
:1065400011607049086079490968491C774A1160EF
:1065500000BF1FE0744960680968884200D925E0DF
:10656000201DFFF75BFCA06A18B104F11800FFF7CB
:1065700055FC6A49E06A0968884202D96749E06ABD
:106580000860E16A01EB8101574A02EB8100211D9D
:10659000FFF71CFC5A480068006820B158480068A2
:1065A000C068C06800E000200400D3D100BF06E04E
:1065B0005F480068401C5E49086028F065FC5C4844
:1065C000006808B928F060FC10BD70B5002500F027
:1065D0008BFD54480068401E524908600846006818
:1065E00000284BD148480068002847D000261EE00C
:1065F00004F11800FFF712FC201DFFF70FFC4749BC
:10660000E06A0968884202D94449E06A0860E16AA0
:1066100001EB8101344A02EB8100211DFFF7D6FB1B
:106620003A49E06A0968C96A884200D301263148BC
:10663000006818B12F48C068C06800E0002004005E
:10664000D6D13B48006860B106E0FFF767FF3848E5
:106650000068401E36490860354800680028F4D1BB
:106660000126012E03D033480068012805D10125F9
:1066700000203049086000F031FD00BF00F03DFD12
:10668000284670BD27480068401C264908607047AE
:1066900070B50446002614B3FFF7F4FF22480068E3
:1066A00005191A480068001DFFF7B8FB1748006875
:1066B00045601D480068854207D214480168091DDD
:1066C00010480068FFF790FB06E010480168091DBC
:1066D0000B480068FFF788FBFFF777FF06460EB907
:1066E00000F0FCFC70BD000044D30720A8D30720B5
:1066F000BCD30720D0D30720E4D30720F8D307204A
:10670000C0C10720C4C107208CC1072084C1072055
:106710009CC1072094C10720B0C1072098C1072061
:1067200088C10720A0C1072090C10720ACC1072065
:10673000A4C10720A8C1072070B5044600F0D4FC0E
:1067400014B9FD48006800E020460646F56A00F0EE
:10675000D4FC284670BD2DE9F04106460D464FF0A9
:106760000008052D00D3042500F0BEFCF2480068A7
:10677000864200D1002616B9EF48006800E0304696
:106780000446676CAF4232D0BD4203D92EB14FF000
:10679000010802E00EB94FF00108E16A606C88421E
:1067A00000D1E5626564C5F10500A06107EB8701D2
:1067B000E24A02EB81016069884213D1201DFFF794
:1067C0002DFBDF49E06A0968884202D9DC49E06AAA
:1067D0000860E16A01EB8101D84A02EB8100211DCA
:1067E000FFF7F4FAB8F1010F01D100F077FC00F0E7
:1067F00084FCBDE8F08170B5044600F075FCCE481D
:106800000068844200D1002414B9CB48006800E03D
:1068100020460546281DFFF701FBA86A18B105F1BF
:106820001800FFF7FBFA291DC648FFF7CFFA00F062
:1068300064FC0CB900F052FC70BD10B5014600209C
:106840000A46C04C5369A34201D1012300E0002352
:1068500083B1BD4C936AA34201D1012300E0002320
:10686000012B07D0936A0BB9012300E00023012B11
:1068700000D1012010BD70B505462C4644B3AE488A
:106880000068844224D000F02FFC2046FFF7D5FF9B
:1068900001281BD1201DFFF7C1FAA949E06A096848
:1068A000884202D9A649E06A0860E16A01EB8101E9
:1068B000A24A02EB8100211DFFF788FA9E49E06A97
:1068C0000968C96A884201D300F008FC00F015FC91
:1068D00070BD70B5054600262C462046FFF7ADFF7B
:1068E000012826D199480068F0B99349E06A0968FF
:1068F000C96A884201D3012000E000200646201D1D
:10690000FFF78CFA8E49E06A0968884202D98C49FF
:10691000E06A0860E16A01EB8101884A02EB8100CC
:10692000211DFFF753FA04E004F118018648FFF730
:106930004DFA304670BD10B50446206B00F0CCFC1B
:10694000204600F0C9FC10BD70B58148006848B30E
:10695000FFF798FE7F48006808B9012000E000209A
:106960000546FFF732FEEDB900F0BEFB794800683E
:1069700018B17848C068C06800E000200446201DB7
:10698000FFF74CFA74480068401E7349086070486D
:106990000068401E6E49086000F0AFFB2046FFF71C
:1069A000CAFF00BF70BD00BF02F002F8FFF7CCFFC6
:1069B000624800680128F7D900F090FBF4E71FB5A2
:1069C00000200090019002900346202263A10390D2
:1069D0006448FFF7F8FC0446012C0BD1FEF7BEFB20
:1069E00001206149086000206049086006F04BF80A
:1069F00000F05EFB1FBD10B5FEF7B0FB00205A494A
:106A0000086000F06AFB10BD10B500F06DFB574840
:106A1000046800F072FB204610BD4F4800687047C4
:106A20000146002002E0491C421C90B20A78A52AC7
:106A3000F9D0800870472DE9FE4381460C46164682
:106A4000204641684968416000F1080142688A4275
:106A500002D14168496841604168CF6800BF204663
:106A600041684968416000F1080142688A4202D1E8
:106A70004168496841604168CD68286BFFF7D0FFE5
:106A80008046286CE96A334605F13402CDE90018E6
:106A9000029037A13B4830F01DFD3A4948462FF09F
:106AA0008DF9BD42DBD1BDE8FE8370B50546FFF729
:106AB000E9FD0020287034A128462FF07FF93348E3
:106AC0000068441C00BF641E04EB84001B4951F89D
:106AD000200040B104EB84000A4602EB8001522200
:106AE0002846FFF7A8FF002CEDD129480068006870
:106AF00028B14222264801682846FFF79CFF254816
:106B00000068006828B14222224801682846FFF741
:106B100092FF1048006820B144220E492846FFF732
:106B20008AFF0848006820B1532206492846FFF72B
:106B300082FFFFF74AFD70BD84C1072044D30720C0
:106B400098C10720F8D30720D0D30720A0C1072081
:106B500088C10720E4D307208CC1072049444C4555
:106B600000000000A76900009CC1072090C1072019
:106B70002573090925630925750925750925750DED
:106B80000A0000003ED407200D0A000094C107202F
:106B9000C0C10720C4C107202DE9F84381460C4637
:106BA0001646204641684968416000F10801426884
:106BB0008A4202D14168496841604168D1F80C803D
:106BC00000BF204641684968416000F10801426801
:106BD0008A4202D14168496841604168CD68002E0F
:106BE00022D0A86C30B905F13402FBA1FE4830F088
:106BF00071FC15E0A86C64214843B0FBF6F747B17F
:106C00000097AB6C05F13402F8A1F74830F062FC54
:106C100006E0AB6C05F13402F8A1F34830F05AFC01
:106C2000F14948462FF0CAF84545CAD1BDE8F88376
:106C300070B5054605F05AFF0646FFF723FD002014
:106C40002870EDA128462FF0B9F8F0480068441CE0
:106C500000BF641E04EB8400ED4951F8200040B1F0
:106C600004EB84000A4602EB800132462846FFF717
:106C700093FF002CEDD1E7480068006828B1324648
:106C8000E44801682846FFF787FFE348006800688A
:106C900028B13246E04801682846FFF77DFFDF480B
:106CA000006820B13246DD492846FFF775FFDC4811
:106CB000006820B13246DA492846FFF76DFFFFF73A
:106CC00084FC70BD70B504460D4600F00DFAD54841
:106CD0000460D5480460A5F108002044D349086049
:106CE0000120D349086000F008FA70BD10B500F02B
:106CF000FBF90020CE49086000F0FFF9C9480068A0
:106D0000C9490968441A204610BD10B5C948006831
:106D100018B10120C849086010BD05F0E7FE04461F
:106D2000C649096801F14800896CC54A1268A21A6F
:106D300011440160C248046004E0C2480068401E7B
:106D4000C0490860BF48006800EB8000B04951F8B6
:106D500020000028F1D0BB49096801EB8101AC4A51
:106D600002EB810041684968416000F10801426816
:106D70008A4202D14168496841604168C968AF4AA6
:106D80001160AB48006828B310460068006CAE493B
:106D90000968884222D0A34800680830A3490968DE
:106DA000884218D210460068006CA7490860A748BE
:106DB00000689C49096808609A480068001D994964
:106DC0000860A14800680968086096480068001DCE
:106DD0009449086002E000209549086000BF9BE7E5
:106DE00070B506460C469548016818313046FEF7E6
:106DF000FBFF92480068001DFFF710F8601C06D1E9
:106E00008E480168091D8648FEF7E0FF18E08F48AC
:106E1000006805198948006845608C48006885420B
:106E200007D286480168091D7B480068FEF7DCFF31
:106E300006E082480168091D76480068FEF7D4FF25
:106E400070BD70B50546286810B1E868C06800E0FC
:106E50000020044604F11800FEF7E0FF75480068C2
:106E6000A0B9201DFEF7DAFF7649E06A096888427A
:106E700002D97449E06A0860E16A01EB8101644A61
:106E800002EB8100211DFEF7A1FF04E004F11801CF
:106E90006F48FEF79BFF6949E06A0968C96A884242
:106EA00001D3012600E00026304670BD694909681B
:106EB0000160664909684160704770B504460D4637
:106EC00000F012F92868401C01D100261FE061493A
:106ED00020680968884206D05C4960680968884271
:106EE00001D8012613E0594960680968081A296821
:106EF00088420BD22868554A61681268511A401AB4
:106F000028602046FFF7D2FF002600E0012600F0AF
:106F1000F4F8304670BD01204749086070472DE9FC
:106F2000F041044614B94548006800E02046074691
:106F30003D6B2846FFF774FD06463046BDE8F081FC
:106F40003E490868704770B505462C463B49E06AE3
:106F50000968C96A88422BD238480068C06AC0F103
:106F60000500A061E16A01EB8101294A02EB810180
:106F70006069884218D1201DFEF750FF2F48006835
:106F8000C06AE0622F49E06A0968884202D92D4947
:106F9000E06A0860E16A01EB81011D4A02EB8100B1
:106FA000211DFEF713FF03E024480068C06AE06279
:106FB00070BD70B505462C4665B1616CE06A8842CB
:106FC0005CD0201DFEF72AFF606CE062E06AC0F131
:106FD000050041E052E0000025730909300909303D
:106FE00025250D0A000000000CD40720257309098F
:106FF00025750909257525250D0A00002573090940
:10700000257509093C3125250D0A000094C107208A
:1070100044D30720C0C10720C4C10720E4D3072000
:10702000F8D30720C8C10720CCC10720D0C1072052
:10703000B8C10720A0C10720A8C1072084C107202C
:10704000B4C1072098C10720BCC1072090C1072008
:10705000D0D30720ACC10720A0610949E06A0968C4
:10706000884202D90649E06A0860E16A01EB8101C1
:10707000044A02EB8100211DFEF7A8FE70BD00004E
:1070800098C1072044D30720001F4FF0807303608E
:10709000001F0160001F00230360143802602038C5
:1070A000704723484FF0E02148610720086170478E
:1070B00010B52048006840F478001E490860084672
:1070C000006840F078400860FFF7EBFF00201A49A5
:1070D0000860FEF71DF8002010BD70474FF080508B
:1070E00014491C390860704710B5FEF737F812488C
:1070F0000068401C1049086010BD10B50E480068BB
:10710000401E0D4908600846006808B9FEF72DF8D2
:1071100010BD10B54FF0805006491C39086000249E
:10712000FEF71CF8FFF7FAF9FEF71FF810BD000094
:107130009F86010020ED00E0100000102DE9F041D5
:1071400004464FF00008FFF79DFA7F48006898B9A1
:107150007E497F4A11600021516047F618117D4A2F
:10716000516000211160794847F6181141601146BD
:10717000016001207449086044B1103414F0070F15
:1071800004D004F00700C0F108000444002C31D002
:1071900047F6181084422DD26D4F3846056801E03D
:1071A0002F462D686868A04202D228680028F7D1CF
:1071B000684885421ED0386800F110082868386099
:1071C0006868001B202810D92E196868001B7060A1
:1071D0006C6071685E4800E00068026852688A422C
:1071E000FAD302683260066000BF5B480068001B8B
:1071F00059490860FFF7E9F94046BDE8F081F0B56C
:107200000025534801680A680B4604464EE048686A
:1072100045183EE0954235D148685668B0420ED2D6
:1072200048685668304448600868904202D1106847
:1072300020601AE0086820601068186015E048684F
:107240005668B0420ED948685668304448601068A5
:10725000884202D10868186007E00868206010685A
:10726000186002E04FF0FF30F0BD4E68384800E093
:10727000006807687F68B742FAD307680F6001604B
:107280000120F1E713461868904201D100BFFEE7E4
:107290001A6810680028BDD10C462068884201D1C8
:1072A00000BFFEE721682A480268034608680028F4
:1072B000ADD100BFD8E708B500200090FFF714FF5C
:1072C00000BFFFF79CFF0090009810B10098401C91
:1072D000F7D1FFF712FF08BD70B50646FFF7D2F9E8
:1072E0003546A6B1103D2C466168194800E000689B
:1072F000026852688A42FAD3026822600460164922
:1073000060680968084414490860FFF7D4FFFFF774
:107310005CF970BD104800687047704710B50246B0
:107320000B48002313800B8000BF14884368A342DE
:1073300001D9838813800B88848823440B800068DC
:107340000368002BF1D110BD1C00001030020010AA
:107350002000001028000010140000101FB509F0D4
:10736000C7FC00210120FEF76BFD2B490860084691
:10737000006830B100231A46194627480068FEF716
:1073800010FE0020254A0223CDE90120009303903E
:107390000346C02222A12448FFF715F8FFF70FFB90
:1073A000002004B010BD2DE9F84307460024A04694
:1073B00000263D461EE0285D2E2819D100202855C4
:1073C00005EB08002EF090FEC0B20DF80600701C10
:1073D000C6B2601C00F0FF08032E09D105EB0800BF
:1073E0002EF082FEC0B20DF806000098BDE8F883CA
:1073F000601CC4B2285D0028DDD1401EF6E770B5E0
:10740000054628462EF070FE84B2261246EA042075
:1074100084B2204670BD000030000010340000101F
:1074200055534552000000008389000010B5044602
:10743000092C42D2DFE804F041050E1720292F3530
:107440003B00012020490870002211461FA000F0D7
:1074500097FF32E001201C4908700022114621A04C
:1074600000F08EFF29E00120174908700022114624
:1074700022A000F085FF20E00120134908700022BF
:10748000114624A000F07CFF17E00022114627A03F
:1074900000F076FF11E00022114629A000F070FFF5
:1074A0000BE0002211462BA000F06AFF05E000224D
:1074B00011462EA000F064FF00BF00BF4FF4002172
:1074C000012008F08FF910BD06C40720C4E0F2F7D0
:1074D000E8EAE83A20EEF8E8E1EAE020EFE0ECFF45
:1074E000F2E80000D1EEE1FBF2E8FF3A20EEF8E826
:1074F000E1EAE020EFE0ECFFF2E80000C4E0F2F7A0
:10750000E8EAE83A20EEF8E8E1EAE020F4E0E9EB26
:10751000E0000000D1EEE1FBF2E8FF3A20EEF8E8EF
:10752000E1EAE020F4E0E9EBE00000004641543AF3
:1075300020EEF8E8E1EAE020F4E0E9EBE00000000A
:107540004641543A20EEF8E8E1EAE020EFE0ECFFB3
:10755000F2E80000D2E0E9ECE5F03A20EEF8E8E1EC
:10756000EAE020F4E0E9EBE0000000004155544F70
:1075700047524150483A2066696C65206572726FC7
:1075800072000000FE480078704710B50446082CD1
:107590002DD2DFE804F004050E0F1819222300BFD6
:1075A000012029F083FF4FF08061032008F01AF9D1
:1075B0001DE000BF022029F079FF4FF00071032089
:1075C00008F010F913E000BF032029F06FFF4FF01F
:1075D0008051012008F006F909E000BF042029F0DD
:1075E00065FF4FF00051012008F0FCF800BF00BF1C
:1075F00010BD10B5044634B1012C08D0022C0AD0BD
:10760000032C10D10BE0012029F050FF0BE00220E9
:1076100029F04CFF07E0032029F048FF03E0042095
:1076200029F044FF00BF00BF10BD2DE9FF4701E175
:107630009DF804006F287AD01CDC67283BD010DC52
:1076400014286AD006DC0D2868D00E2867D01228CE
:1076500022D1D2E0642819D065281ED06628F7D13F
:1076600022E06838072817D2DFE800F02C333A41CF
:10767000484F5A0070380E28F5D2DFE800F05F66F8
:107680006D747B828990979EA5ACB3B7BD480068A6
:1076900040F00100BB490860CBE0BA48006840F008
:1076A0000200B8490860C4E0B648006840F0040031
:1076B000B4490860BDE0B348006840F00800B14933
:1076C0000860B6E0AF48006840F01000AD490860BF
:1076D000AFE0AC48006840F02000AA490860A8E08C
:1076E000A848006840F04000A6490860A1E0A5480D
:1076F000006840F08000A34908609AE0A148006853
:1077000020F001009F49086093E09E48006820F047
:1077100002009C4908608CE009E06BE070E07AE0D0
:107720009848006820F004009649086081E0954878
:10773000006820F00800934908607AE091480068EA
:1077400020F010008F49086073E08E48006820F038
:1077500020008C4908606CE08A48006820F04000F6
:107760008849086065E08748006820F08000854906
:1077700008605EE08448007840F0010082490870AB
:1077800057E08148007840F002007F49087050E0DF
:107790007D48007840F004007B49087049E07A4851
:1077A000007840F008007849087042E07648007898
:1077B00020F00100744908703BE07348007820F025
:1077C00002007149087034E06F48007820F004002E
:1077D0006D4908702DE06C48007820F008006A4977
:1077E000087026E001206949087022E000206749FE
:1077F00008701EE016F0B8FC1BE029F091FB18E0C1
:1078000001F0E0FA62480078022803D10299C8B278
:1078100029F0EDFD0DE05F48007880F0FF005D4944
:1078200008705B480078022802D1002029F02CFB68
:1078300000BF00BF00231A4601A957480068FEF7A1
:1078400086FC00287FF4F4AE5148007810B153480C
:10785000007808B1BDE8FF875148006851490860C9
:107860004F48406848604948007801280FD1444893
:10787000007860B928214C482EF095FA4BA14A486F
:107880002FF028FE00221146474800F079FD3F48BE
:1078900000783B490870002437E00120A0403A49B5
:1078A00009780840002823DD0120A04043490978D9
:1078B000084229D10121A140C8B229F033FEE0B22B
:1078C000FFF797FE0120A0403D49097808433C4955
:1078D0000870282134482EF066FA621C39A132481B
:1078E0002FF0F8FD002211462F4800F049FD0BE073
:1078F0000120A040314909780840002804DD012119
:10790000A140C8B229F014FE641C042CC5DB1E483B
:1079100000782A490870002484E00120A04027490B
:10792000097808427DD034B1012C16D0022C53D0F6
:10793000032C75D162E01348006820F00300114960
:1079400008601748006820F00300154908600846E1
:10795000406840F00300486062E00A48006820F098
:107960000C00084908600E48006820F00C000C4923
:1079700008600846406840F00C00486050E0000095
:10798000DFC30720E0C30720E4C30720E5C30720C7
:1079900055C40720DCC30720CC00001006C4072014
:1079A000E8C30720F0C307209DD50720C4E2E5F017
:1079B000FC20EEF2EAF0FBF2E0000000DDC307205D
:1079C000DEC30720D2F0F3E1E02025643A20EDE5A4
:1079D000F220F1E2FFE7E800FE48006820F0300006
:1079E000FC490860FC48006820F03000FA49086053
:1079F0000846406840F03000486011E0F5480068F3
:107A000020F0C000F3490860F348006820F0C0008F
:107A1000F14908600846406840F0C000486000BF77
:107A200000BF641C042CFFF678AFEA48007810F021
:107A3000020F03D0022029F069FD02E0022029F0A4
:107A40006BFDE448007810F0080F03D0082029F0FF
:107A50005DFD02E0082029F05FFDDE48007810F0AF
:107A6000200F03D0202029F051FD02E0202029F032
:107A700053FDD848007810F0800F03D0802029F003
:107A800045FD02E0802029F047FD0024D7E00120D9
:107A9000A040D049096808426FD0CF484068012112
:107AA000A14008426AD10121A140C8B229F022FDBB
:107AB000E0B2FFF76AFDC84800680121A140084212
:107AC00075D12821C5482EF06EF9082C2DD2DFE89B
:107AD00004F004090E13181D2227C1A00CF046FB68
:107AE000054622E0BFA00CF041FB05461DE0BEA00C
:107AF0000CF03CFB054618E0BCA00CF037FB05463B
:107B000013E0BBA00CF032FB05460EE0B9A00CF070
:107B10002DFB054609E0B8A00CF028FB054604E063
:107B2000B6A00CF023FB054600BF00BF25B9B4A1E9
:107B3000AA482FF0CFFC6CE0082C2FD2DFE804F02D
:107B400004090E13181F2429B3A1A4482FF0C2FC66
:107B500024E0B7A1A1482FF0BDFC1FE0B9A19F48C8
:107B60002FF0B8FC1AE0BDA19C482FF0B3FC15E043
:107B7000BFA19A482FF0AEFC10E058E05EE0C2A131
:107B800096482FF0A7FC09E0C4A194482FF0A2FC6E
:107B900004E0C8A191482FF09DFC00BF00BF012266
:107BA000694628460CF07EF9082C31D200E036E018
:107BB000DFE804F00419051A061B071C00BF00BF0C
:107BC00000BF00982EF0D6FC0746884683482EF06A
:107BD00029F9824900EB01093A464346BAA14846D1
:107BE0002FF078FC14E000BF00BF00BF00982EF01B
:107BF000C1FC0746884679482EF014F9774900EB16
:107C000001093A464346B3A148462FF063FC00BF42
:107C100000BF00221146714800F0B2FB00BF6E4861
:107C200001680120A04001436B48016006E06A48FA
:107C300040680121A140884367494860641C082CC2
:107C4000FFF625AFA648006863490968884205D158
:107C5000A348406860494968884210D0A1A004F058
:107C600005FE064600221146304604F0AAFD012218
:107C70005949304604F096FD304604F0EDFD00BF52
:107C8000E8E570B5054697A004F0F0FD0646012D25
:107C900006D0022D2BD0032D50D0042D26D174E018
:107CA0004D48006820F001004B4908600846006814
:107CB00020F0020008600846406840F0010048607B
:107CC0000846406840F002004860012029F018FC96
:107CD000022029F015FC4FF08061032007F078FDA9
:107CE0008248007820F001008049087003E13A489A
:107CF000006820F00400384908600846006820F059
:107D0000080008600846406840F0040048600846E3
:107D1000406840F008004860042029F0F1FB08208A
:107D200029F0EEFB4FF00071032007F051FD6F4882
:107D3000007820F002006D490870DCE026480068F9
:107D400020F01000244908600846006820F0200058
:107D500008600846406840F01000486008464068E7
:107D600040F020004860102029F0CAFB202029F0B4
:107D7000C7FB4FF08051012007F02AFD5B480078D7
:107D800020F0040059490870B5E01348006820F05D
:107D90004000114908600846006820F08000086033
:107DA0000846406840F0400048600846406840F09F
:107DB00080004860402029F0A3FB802029F0A0FB30
:107DC0004FF00051012007F003FD4848007820F0F3
:107DD00008008DE0E0C30720E8C307209DD50720F9
:107DE0005330000053310000533200005333000081
:107DF0005334000053350000533600005337000061
:107E0000D1EEE1FBF2E8FF3A20EDE5F220E4E0F20A
:107E1000F7E8EAE000000000D2F0F3E1E020312CC6
:107E200020E8E7EEEBFFF6E8FF0D523D0000000012
:107E3000D2F0F3E1E020312C20F1E8E3EDE0EB0DAE
:107E4000523D0000D2F0F3E1E020322C20E8E7EED2
:107E5000EBFFF6E8FF0D523D00000000D2F0F3E129
:107E6000E020322C20F1E8E3EDE0EB0D523D000084
:107E7000D2F0F3E1E020332C20E8E7EEEBFFF6E868
:107E8000FF0D523D00000000D2F0F3E1E020332C62
:107E900020F1E8E3EDE0EB0D523D0000D2F0F3E11C
:107EA000E020342C20E8E7EEEBFFF6E8FF0D523D32
:107EB00000000000D2F0F3E1E020342C20F1E8E3F0
:107EC000EDE0EB0D523D000025302E316620EACE6C
:107ED000EC00000025302E316620CEEC00000000C2
:107EE000F0C307205341564552000000DEC307206F
:107EF0007A49087000BF00BF00221146304604F0E6
:107F000060FC01227649304604F04CFC304604F017
:107F1000A3FC002410E00120A0407049097808402B
:107F2000002808DD0121A140C8B229F0FBFAE0B227
:107F3000FFF75FFB02E0641C042CECDB00BF0024B5
:107F40000EE0674801680120A040014207D0E0B27E
:107F5000FFF71BFB0121A140C8B229F0CBFA641C3A
:107F6000082CEEDB70BD27F002FF00BF5D480078F3
:107F7000012807D128F0F8FF01205B490870022092
:107F8000584908705848007801280BD102205649FA
:107F900008705448007810B90020FFF772FE0120E5
:107FA00028F072FFFFF741FB3220FEF771FBDDE79F
:107FB00070B50C211E20FDF743FF4C4908604C486A
:107FC0000CF0C8FB4B480CF0C5FB4B480CF0C2FB57
:107FD0004A480CF0BFFB4A480CF0BCFB49480CF087
:107FE000B9FB49480CF0B6FB48480CF0B3FB4848D5
:107FF0000CF0B0FB47480CF0ADFB47480CF0AAFB77
:1080000046480CF0A7FB46480CF0A4FB45480CF092
:10801000A1FB45480CF09EFB44480CF09BFB4448F8
:108020000CF098FB43480CF095FB43480CF092FB96
:1080300042480CF08FFB42480CF08CFB41480CF09E
:1080400089FB41480CF086FB40480CF083FB40481C
:108050000CF080FB3F480CF07DFB4FF0806103206B
:1080600007F0B6FB4FF00071032007F0B1FB4FF0B3
:108070008051012007F0ACFB4FF00051012007F0C8
:10808000A7FB01229106032007F08EFB0122510677
:10809000032007F089FB01221107104607F084FB3B
:1080A00001225107104607F07FFBAFF2C81004F021
:1080B000DDFB054600221146284604F082FB012222
:1080C0000749284604F05FFB0446284604F0C4FB39
:1080D0001CB9002002490860486070BDDEC307205B
:1080E000E8C3072006C4072055C40720CC000010B1
:1080F000D4C10720E8C10720FCC1072010C2072017
:1081000024C2072038C207204CC2072060C20720C3
:1081100074C2072088C207209CC20720B0C2072073
:10812000C4C20720D8C20720ECC2072000C3072022
:1081300014C3072028C307203CC3072050C30720CF
:1081400064C3072078C307208CC30720A0C307207F
:10815000B4C30720C8C3072070B50AF075F8B8B1DA
:10816000FDA00AF0BDFA401C00D170BDFCA1FAA030
:108170000AF0DFF8054605B9F7E728462DF0B4FF09
:108180000446FF2C01DC002C00DAEEE7F7490C7006
:1081900000BFEAE72DE9F041002507E0F448F54982
:1081A00041F8350001EBC50148606D1C042DF5DB7D
:1081B0000AF04AF800287DD0EFA00AF091FA401C9E
:1081C0000DD0EEA1ECA00AF0B4F804463CB1E01CDE
:1081D0002FF02FFE06462EF009FAE6490860E8A0C7
:1081E0000AF07EFA401C0DD0E4A1E6A00AF0A1F846
:1081F00004463CB1E01C2FF01CFE06462EF0F6F9BA
:10820000DC494860DFA00AF06BFA401C0DD0DBA10E
:10821000DDA00AF08EF804463CB1E01C2FF009FE08
:1082200006462EF0E3F9D3498860D8A00AF058FA40
:10823000401C0DD0D1A1D6A00AF07BF804463CB179
:10824000E01C2FF0F6FD06462EF0D0F9C949C860B3
:10825000CDA00AF045FA401C0DD0C8A1CDA00AF06F
:1082600068F804463CB1E01C2FF0E3FD06462EF012
:10827000BDF9C0490861C8A00AF032FA401C0DD00F
:10828000BEA1C6A00AF055F804463CB1E01C2FF090
:10829000D0FD06462EF0AAF9B6494861BCA00AF006
:1082A0001FFA401C0FD0B5A1BDA00AF042F8044649
:1082B0004CB100E01AE0E01C2FF0BBFD06462EF0AA
:1082C00095F9AC498861B7A00AF00AFA401C0DD0B4
:1082D000AAA1B5A00AF02DF804463CB1E01C2FF08D
:1082E000A8FD06462EF082F9A249C861BDE8F081DA
:1082F000024619B99F4850F8320070479D4800EB7C
:10830000C2004068F9E710B5FEF7BCF9A7A009F074
:10831000AEFF002000F0B4FE00F07BFE00F05EFE39
:108320000AF064FC26F0E4FDA5A009F0A0FF0CF023
:10833000CBFD0CF0E1FCFFF72DFF0AF057FC26F017
:10834000D7FD9AA009F093FF15F042FF0AF04EFC0A
:1083500026F0CEFD06F07AFEFEF737F910BD10B517
:108360009C48FDF791FA9C48FDF78EFA9B48FDF773
:108370008BFA9B48FDF788FA9AA0FDF79AFB10BD8F
:1083800070B504460D46164632462946204629F069
:10839000E6FD70BD1CB5054600200190002600904A
:1083A000284604F063FA04469148C0F81041914A07
:1083B0000021204604F041FA00220421204604F066
:1083C0003CFA00BF01AAD421204604F036FA9DF8F9
:1083D0000400B0B16A466321854827F078FB064661
:1083E0009DF8000040B163239DF80020711C804877
:1083F00027F0C6FA002000900022C821204604F091
:108400001CFA4FF4FA70FEF743F9DBE710B50020D1
:10841000794908604FF4967048600120087277A18E
:10842000754809302DF020FD0020734988614FF414
:1084300096717148C161012180F8201072A121302C
:108440002DF012FD00206C4908634FF496716A48C4
:108450004163002180F838106EA139302DF004FD01
:1084600010BD08B504210320FDF7EAFC6C49086043
:1084700000235A1E69466A480068FDF768FE00221C
:108480001146009829F06BFD66A004F0EFF900BFDB
:10849000FEE71FB501229105104607F085F901227C
:1084A000D104104607F080F901224021002007F096
:1084B0007BF94FF40021012007F08AF920210220E6
:1084C00007F090F904F0E0F80BF0B4FA0BF0E1FCDF
:1084D00056A009F0CCFE0BF064FE0AF087FB38A032
:1084E00009F0C5FEFFF764FDFFF754FE0CF004FC35
:1084F0000AF07CFB2DA009F0BAFE26F0FCFD00F08E
:1085000088FD00F06BFDFFF727FE29F060FF26F0E5
:10851000DBFC29F08FFE06F099FD00F0A2FC00F0D4
:1085200035FD2CF08EFF15F053FE0AF05FFB0020A6
:10853000434A0123CDE901200093039003468022A2
:1085400040A14348FDF73FFF3D48006810B90022B5
:1085500011467FE085E00000444953504C415900EA
:10856000436F6E74726173740000000005C40720CD
:10857000000080BFC8D5072030000000436F6E00A8
:108580003100000032000000340000003300000021
:1085900036000000380000003500000031300000D7
:1085A0003132000037000000313400002F61743494
:1085B0003564622F444556434F4E2E696E69000064
:1085C0002F6174343564622F4556454E54532E69DD
:1085D0006E69000060C00720C0C0072008C00720E7
:1085E00020C107202F6174343564622F0000000021
:1085F000E8D5072008C40720502A08207461736B4F
:10860000205520696E7600007461736B204D2069DF
:108610006E7600007461736B205220696E760000E4
:108620000CC4072053535030000000002F617434F5
:108630003564622F53454E534F52532E696E690075
:1086400044C4072055617274436F6E74726F6C007E
:10865000E55A0300E9A0FFF793FEEEA0FCF79EFDAC
:1086600005E00C210A20FDF7EBFBF0490860002033
:1086700015F0BCFE0020EE4A0123CDE90120009355
:1086800003900346C022EBA1EC48FDF79CFEE848AE
:10869000006838B900221146E9A0FFF771FEEDA08D
:1086A000FCF77CFD01200023C022EFA10090EF48E1
:1086B00011F06CFBEE4908600846006838B90022EA
:1086C0001146ECA0FFF75CFEEEA0FCF767FD002072
:1086D000F04A0123CDE90120009303900346D02204
:1086E000EDA1EF48FDF76FFEEA48006838B90022B7
:1086F0001146ECA0FFF744FEEFA0FCF74FFD002071
:10870000F24A0123CDE90120009303900346C022E1
:10871000EFA1F148FDF757FEEC48006838B9002298
:108720001146EEA0FFF72CFEF1A0FCF737FD00206C
:10873000F44A0123CDE90120009303900346C022AF
:10874000F1A1F348FDF73FFEEE48006838B900227A
:108750001146F0A0FFF714FEF3A0FCF71FFD002068
:10876000F64A0623CDE901200093039003464022F8
:10877000F3A1AFF21130FDF726FEF048006838B9DA
:1087800000221146F0A0FFF7FBFDEFA0FCF706FD6D
:10879000FFF73CFE00F055FC01281AD10020EE4AFC
:1087A0000123CDE901200093039003468022EBA131
:1087B000AFF21F40FDF707FEAFF22740002820D19F
:1087C00000221146E6A0FFF7DBFDDFA0FCF7E6FC88
:1087D00017E00020E64A0123CDE901200093039031
:1087E000E44B8022E4A1E648FDF7EDFDE048006897
:1087F00038B900221146E3A0FFF7C2FDD2A0FCF772
:10880000CDFC1FBD7CB504460D46002001900095AF
:108810000121E14880F838103CB900231A46694626
:10882000DE480068FDF7BDFB06E0002301AA6946AB
:10883000DA480068FDF73DFC7CBD10B542F21070CF
:10884000FDF726FFD6A10020FFF7DCFF42F21070F3
:10885000FDF71EFF10BD3EB500235A1E6946D348E2
:108860000068FDF774FC00B93EBD9DF800000F28BC
:108870001BD006DC01281BD0092829D00C2831D1B7
:108880002DE0102804D0132828D018282AD122E05F
:10889000C7A003F0EBFF04460022C821204603F0E6
:1088A000CCFF204603F0D8FF1DE006F088F91AE05F
:1088B0000BF0ACFE0CF0EDF8C048007838B1C048C1
:1088C000007820B90120BF490860FEF7AEFE0AE03B
:1088D000FFF7B3FF07E0FFF716FD04E003E0FCF746
:1088E0004BFC00E000BF00BF00BFBDE710B5B648BD
:1088F000007810F0080F0BD000221146B3A0FFF74C
:108900003FFDB148007840F00800B94981F8800186
:10891000AD48007810F0040F0BD000221146B5A02E
:10892000FFF72EFDA848007840F00400B04981F818
:108930008001A548007810F0020F0BD000221146EC
:10894000B5A0FFF71DFDA048007840F00200A8493F
:1089500081F880014FF000024FF008014FF0020053
:1089600006F022FF022006F047FF10F0080F07D0A4
:108970000020B449087000221146B3A0FFF700FDA3
:1089800010BD0C213220FDF75BFA884908600846CB
:108990000068B3490860FFF77CFD06F010F9FFF7A7
:1089A000A5FF00BFFFF757FF00207B490860F9E7EC
:1089B00010B526F09DFA00F07BF910BDFEB5044617
:1089C0000D4617461E468DF800400195ADF808701B
:1089D00000233246694675480068FDF7E2FAFEBD9D
:1089E00010B5A048006840B14FF48001012006F0A6
:1089F000EFFE00209B4908603EE135E1CEF8E8E15A
:108A0000EAE02055617274436F6E74726F6C20746B
:108A100061736B0055617274436F6E74726F6C5F3B
:108A20005441534B204552524F520A0000C4072074
:108A3000280200104D4F44454D00000053510300E3
:108A40004D4F44454D5F5441534B204552524F5278
:108A5000000000004D4F44454D5F5441534B2045AD
:108A600052524F520A00000046545000799D0100B6
:108A70002CC40720CEF8E8E1EAE0204654502074E8
:108A800061736B004654505F5441534B2045525222
:108A90004F520A0030C407204854545000000000D0
:108AA00099BB0100CEF8E8E1EAE020485454502098
:108AB0007461736B00000000485454505F5441537C
:108AC0004B204552524F520A0000000034C4072088
:108AD00054656C6E657400008FDA0100CEF8E8E131
:108AE000EAE02054656C6E6574207461736B00005D
:108AF00054656C6E65745F5441534B204552524F20
:108B0000520A000038C407204576656E74000000E4
:108B1000677F00004576656E745F5441534B204576
:108B200052524F52000000004576656E745F54410A
:108B3000534B204552524F520A0000004CC40720AC
:108B40005245534554000000424F445F5441534B3B
:108B5000204552524F520A0048C407204D4243005C
:108B6000CEF8E8E1EAE0204D4243207461736B00E7
:108B700040C4072008C407204D425F544350000002
:108B800053F80200CEF8E8E1EAE0204D42544350A9
:108B9000207461736B000000502A08200CC4072069
:108BA000534D5320524553455400000050C40720F4
:108BB00044495343524554450000000055C4072022
:108BC00006C4072010C4072080C10F40D3F1F2F083
:108BD000EEE9F1F2E2EE20E2EAEBFEF7E5EDEE0D72
:108BE000EFEEF1EBE520504F574552204F4646003F
:108BF00000C00F40D3F1F2F0EEE9F1F2E2EE20E234
:108C0000EAEBFEF7E5EDEE0DEFEEF1EBE520574474
:108C10005420524553455400D3F1F2F0EEE9F1F2FD
:108C2000E2EE20E2EAEBFEF7E5EDEE0DEFEEF1EB22
:108C3000E52045585445524E414C20524553455429
:108C40000000000004C4072053494D2DEAE0F0F273
:108C5000E020EEF2F1F3F2F1F2E2F3E5F2000000CF
:108C600058C4072018C407204FF48001012006F0E3
:108C7000B9FD01204A49086010BD10B50446022C18
:108C80000BD100221146AFF2746029F068F9AFF2FF
:108C90006C6003F0EBFD00BFFEE704EB4400414ACB
:108CA00002EBC00000F109010020FFF7ABFD10BD91
:108CB00010B5002400BF16E004EB4400394901EB75
:108CC000C000007A70B104EB440051F8300004EBAE
:108CD0004401344A02EBC1014968884202D9204666
:108CE000FFF7CBFF641C032CE6DB10BD10B50220A0
:108CF00006F082FD10F0080F0DD02B4800780128F7
:108D000009D100202849087000221146AFF2C8009E
:108D1000FFF736FB10E0022006F06EFD10F0080FA2
:108D20000AD12148007838B901201F490870002273
:108D300011461EA0FFF724FB10BD10B54FF4002014
:108D40001F49886020211E48C1600A210174012149
:108D500041740021416181614FF40221C1614021D0
:108D6000016280F82410002180F825108162C16220
:108D70004FF406210163202141630A2180F8381055
:108D8000012180F839100021C1630164002403E04F
:108D9000E0B205F06BFA641C032CF9DB10BD000097
:108DA00018C40720502A082004C4072053494D2D19
:108DB000EAE0F0F2E020E2F1F2E0E2EBE5EDE000E3
:108DC00068DF0720002038498860704710B509F037
:108DD0003BFA002841D035A136A009F0AAFA044692
:108DE0003CB94EF66020354948600720FEF71EFB6F
:108DF0000FE020462DF085F930494860084640686C
:108E000044F62061884202D208462C4948602B482B
:108E100040682BA127A009F08CFA044634B92948F0
:108E2000294948600720FEF701FB19E020462DF094
:108E300068F925494860084640684EF66021884236
:108E400002D20846204948601F4840681F498842AE
:108E500006D908461C49486002E00020FEF7E6FA01
:108E600010BD10B51A4825F0C1FF1A4825F0BEFF05
:108E7000194825F0BBFF194825F0B8FF184825F020
:108E8000B5FF094825F0B2FF0F4825F0AFFF1548A0
:108E900025F0ACFF094825F0A9FF134825F0A6FFEF
:108EA000FFF794FF10BD00001CC5072050696E67D6
:108EB0000000000054494D45525300005CC5072096
:108EC000536D7300E09304003CC5072080EE36002C
:108ED0005CC407209CC40720BCC40720FCC4072036
:108EE000DCC407207CC407207CC5072030B50246BF
:108EF000002009E0135C0C1A641E145D14540C1A53
:108F0000641E1355441CE0B201EBD175B0EB650F44
:108F1000F0DB30BD01B504216846FFF7E7FF00989C
:108F200008BD01B504216846FFF7E0FF009808BDC1
:108F300001B502216846FFF7D9FFBDF8000008BD62
:108F40002DE9F04104460D4616461F463E4800688E
:108F50008000B4EB500F17D260193B4909688900B3
:108F6000B0EB510F0ED86A003848006800EB44019E
:108F700030462CF0FFFE022000EB45003870002048
:108F8000BDE8F0810320FBE70220F9E710B50BF004
:108F900062FB2D49086009688800FEF7CFF82B496D
:108FA000086010BD38B50BF061FB044604B938BD4C
:108FB00000250FE00122694620460AF073FF009861
:108FC000FFF7A8FF29466D1C204A126842F82100CD
:108FD000D4F80540002CEDD100BFE8E710B509F04A
:108FE00033F9A0B11AA009F07BFB401C00D110BDE1
:108FF0001AA117A009F09DF9044604B9F7E719A1D1
:1090000020462CF016FF10B901201749086000BF58
:10901000EDE710B509F018F988B114A009F060FB6C
:10902000401C00D110BD13A110A009F082F9044624
:1090300004B9F7E72046FEF7E2F91049086000BFDF
:10904000F0E7094800687047A4C50720A0C50720BD
:109050004D425F436C69656E740000004D65746835
:109060006F640000434F4D009CC50720494E464F9A
:1090700000000000506F72740000000008C4072058
:109080002DE9F041054609F0DFF8002872D005BB54
:10909000FAA1FBA009F04DF904461CB90020FEF727
:1090A000C5F91BE020462DF01FF8F74981F8EF00C5
:1090B000084690F8EF00012802D181F8EF000DE09A
:1090C000F14890F8EF00022804D10120EE4981F820
:1090D000EF0003E00120EC4981F8EF00EA4890F846
:1090E000EF00012805D1E9A1E5A009F022F9044625
:1090F00004E0E9A1E2A009F01CF904461CB9002033
:10910000FEF794F904E02146DF48801C2CF0ACFE09
:10911000E4A1DBA009F00DF9044644B120462CF08F
:1091200081FE20B120462CF07DFE132803D90020BB
:10913000FEF77CF904E02146D348BC302CF094FEC5
:10914000D14890F8EF00012805D1D9A1CCA009F0B1
:10915000F0F8044604E0DAA1C9A009F0EAF80446F0
:109160004CB90020FEF762F9D9A1C7480C302CF0A9
:109170007BFE11E0DBE0A07C222808D1E07C2228E5
:1091800005D1D3A1C0480C302CF06EFE04E021467E
:10919000BD480C302CF068FEBB4890F8EF00012869
:1091A00005D1D1A1B6A009F0C4F8044604E0D0A1CD
:1091B000B3A009F0BEF8044624B90020B24981F8F2
:1091C0003E000DE020462CF02DFE20B90020AE49D7
:1091D00081F83E0004E02146AB483E302CF044FECE
:1091E000A94890F8EF00012805D1C3A1A4A009F077
:1091F000A0F8044604E0C3A1A1A009F09AF804462F
:1092000024B90020A04981F870000DE020462CF020
:1092100009FE20B900209C4981F8700004E0214635
:10922000994870302CF020FE974890F8EF00012804
:1092300005D1B7A192A009F07CF8044604E0B6A1DC
:109240008FA009F076F804461CB90020FEF7EEF86E
:109250000BE02078302804D100208B4981F8B6003B
:1092600003E00120884981F8B600ADA184A009F08F
:1092700060F804461CB90020FEF7D8F805E0204647
:109280002CF032FF804981F8EE00A7A17CA009F004
:1092900050F8044654B120462CF0C4FD0F2805D1E7
:1092A0000F2221467848DE302CF064FD764890F895
:1092B000EF00012805D19EA171A009F03AF80446FB
:1092C00004E09DA16EA009F034F804461CB900200A
:1092D000FEF7ACF804E021466B48B7302CF0C4FD33
:1092E00097A167A009F025F8044624B90020664933
:1092F00081F8F00005E020462CF0F6FE624981F886
:10930000F00091A15EA009F014F804462CB94FF0CA
:1093100082405D49C1F8F2000CE020462EF089FD44
:1093200006462DF063F95849C1F8F20002E000202A
:10933000FEF77CF8BDE8F08110B500208449087084
:10934000402184482CF02FFD002083490870834978
:10935000087002208249087010BD10B500224FF439
:109360000051022006F020FA03220D21022006F00F
:109370000BFC0122D106104606F016FA4FF00061F0
:10938000012006F02FFA01221021022006F00CFA2B
:109390001021022006F01CFAFFF7CEFF71A008F0A2
:1093A00066FF0020FFF76CFE09F020FC72A0FBF7BF
:1093B000F5FE002010BD10B573A003F057FA044667
:1093C0004CB973A0FBF7EAFE0122002177A0FEF75B
:1093D000D7FF002010BD7C4804607C48007818B995
:1093E00001207A49087002E079A0FBF7D7FE7748A0
:1093F000F0E770B50446A568286803F02DFA7348B5
:109400000078012803D100207049087002E074A0A0
:10941000FBF7C4FE70BD2DE9F04106460F46144629
:10942000F568002C1BDB214638462CF0BCFCB5F857
:109430000A012044B42803DDB5F80A01C0F1B404E0
:10944000B5F80A014119224638462CF093FCB5F8CC
:109450000A012044A5F80A012046BDE8F081002059
:10946000FBE710B504460B46E16822B1012A03D0A0
:10947000022A02D1D4E0BBE0C3E0DCE053696D0016
:109480004D4F44454D000000ACC507204469616C58
:109490004E756D5F310000004469616C4E756D5F03
:1094A000320000004F776E4E756D55737364000087
:1094B000496E6974537472696E675F310000000011
:1094C000496E6974537472696E675F320000000000
:1094D00041542B434744434F4E543D312C22495075
:1094E000222C2261626322004C6F67696E5F31003B
:1094F0004C6F67696E5F320050617373776F72648F
:109500005F31000050617373776F72645F320000E7
:1095100050696E456E5F310050696E456E5F320076
:1095200053796E6300000000494D4549000000007A
:1095300050696E5F3100000050696E5F32000000BC
:10954000526F616D696E67004578506F770000005B
:10955000E0C60720FCD60720F9C60720FAC6072078
:10956000CDC607202F6174343564622F44455643BD
:109570004F4E2E696E6900004D4F44454D20437299
:1095800065617465640A000055415254330000005F
:109590004D4F44454D3A20756E61626C6520746F85
:1095A000206F70656E20554152540A004D4F44455E
:1095B0004D3A20756E61626C6520746F206F706526
:1095C0006E20554152540000A8C50720BCC6072094
:1095D0004D4F44454D2052455F4F50454E0A0000C7
:1095E0004D4F44454D2052455F434C4F53450A0073
:1095F000B42B02D2A1F80A3102E00020A1F80A013E
:109600001EE0B1F80A011844B42805D2B1F80A01E5
:109610001844A1F80A0102E00020A1F80A010FE0B5
:10962000B42B04D2C3F1B400A1F80A0102E0002077
:10963000A1F80A0104E00020A1F80A01401E10BDB3
:1096400000BFB1F80A01FAE72DE9F04706460F46D8
:109650001546F468002D7DDB294638462CF0A3FB27
:10966000B4F80C012844912803DDB4F80C01C0F1D2
:10967000910500234FF47A721946FE480068FCF702
:1096800066FD012866D12278FBA1FD482DF022FF5E
:10969000FCA1FB48C01C2CF0E7FB6278F6A1F8485F
:1096A00009302DF017FFF9A1F5480C302CF0DCFB48
:1096B000A11CF34812302CF0D7FBA01C2CF0B2FBFD
:1096C000C0F10A08A01C2CF0ADFB1230EC4900EBF5
:1096D00001092022414648462CF05EFBEDA1E848F6
:1096E0001C302CF0C1FB04F10C01E54826302CF0B5
:1096F000BBFBA01C2CF096FBC0F1320804F10C005F
:109700002CF090FB2630DE4900EB01092022414677
:1097100048462CF041FBE2A1D94858302CF0A4FB7C
:1097200004F13E01D6485F302CF09EFBA01C2CF0CB
:1097300079FBC0F10A0804F13E002CF073FB5F30A6
:10974000CF4900EB01092022414648462CF024FB7A
:10975000D5A100E04EE0CA4869302CF085FB04F149
:109760007001C74871302CF07FFBA01C2CF05AFB15
:10977000C0F10A0804F170002CF054FB7130C049AC
:1097800000EB01092022414648462CF005FBC9A107
:10979000BB487B302CF068FB94F8B620B6A1B848E3
:1097A00086302DF097FEC6A1B54889302CF05CFBC1
:1097B00004F1B701B24891302CF056FBC3A1B04878
:1097C00095302CF051FBB4F80C01AD4A81182A46B3
:1097D00038462CF0CFFA00231A461946A5480068EF
:1097E000FCF7DFFBB4F80C012844A4F80C01284670
:1097F000BDE8F0870020FBE710B504460B46E168A2
:1098000022B1012A0BD0022A23D117E0912B02D2D8
:10981000A1F80C3102E00020A1F80C011DE0B1F824
:109820000C011844912805D2B1F80C011844A1F894
:109830000C0102E00020A1F80C010EE0912B04D2F3
:10984000C3F19100A1F80C0102E00020A1F80C0185
:1098500003E00020A1F80C0110BD00BFB1F80C011D
:10986000FAE703464FF0FF3070472DE9F041064616
:109870000F461546F468002D17DBB4F80A0128449A
:10988000B42803DDB4F80A01C0F1B405B4F80A1134
:1098900008192A4639462CF06DFAB4F80A01284412
:1098A000A4F80A012846BDE8F0810020FBE710B5C6
:1098B000022005F0A1FF10F4005F00D110BD4FF0B1
:1098C0000061012005F084FF40F6C410FCF7E0FEC3
:1098D0004FF00061012005F085FF40F6B830FCF73D
:1098E000D7FE00BFEAE710B500207A490870402192
:1098F00079482CF058FA10BD10B504467548007828
:10990000402808DA734801780078401C714A1070CA
:109910007148445401E0FFF7E6FF704800780028E2
:1099200028D06F4801686C482CF083FA98B96A49CE
:109930006CA0FBF734FC0020684908706D49088072
:109940006D48007838B100206B4908700D206B49D4
:109950000870FFF7C8FF6848007858B168A15E48F2
:109960002CF067FA30B900205C4908706149088022
:10997000FFF7B9FF062265A157482CF068FA10B925
:1099800002205E4908700D2C01D00A2C01D1FFF78E
:10999000AAFF10BD70B50446002520462CF042FAFF
:1099A00006465C4932460868214602F0FBFE054641
:1099B00020462CF037FAA84203D1214656A0FBF7E7
:1099C000EEFB70BD10B55948007805281DD2DFE8C0
:1099D00000F0031D37CCF1000020474908703F49D3
:1099E00008705349087053A03D49086052A0FFF722
:1099F000D1FF4FF496703F49088001203749087025
:109A00004A480078401C49490870DFE03348007834
:109A1000012803D1022039490870D7E04348007873
:109A2000401C4249087043A02D49086043A0FFF73D
:109A3000B1FF64202F490880012028490870C5E043
:109A400026480078012803D102202C490870BDE087
:109A500036480078401C354908703BA02049086012
:109A60003DA0FFF797FF64202249088001201B4991
:109A7000087077E03000001025336C75000000009E
:109A800070D40720205369673B0A000020436F6EA3
:109A90003B0A0000204469616C4E756D3B0A000072
:109AA00020475052533B0A00204C6F67696E3B0AB7
:109AB000000000002050617373776F72643B0A00EE
:109AC0002050696E456E3B0A000000002050696E10
:109AD0003B0A0000E0C60720FCD60720F9C6072095
:109AE000ECC607204D6F64656D207265706C793A25
:109AF00020257300F0C60720FAC60720CDC6072030
:109B00004E4F20434152524945520D004552524F4B
:109B1000520D0000A8C507204D6F64656D20736568
:109B20006E64733A2025730D0A000000CEC607202C
:109B3000FDC607204F4B0D002B2B2B0041542B4310
:109B4000475245473D310D002B43475245473A2088
:109B5000302C310D0000000041542B434752454743
:109B60003F0D0000F449087030E0F4480078012807
:109B700003D10220F249087028E0EF48007801285C
:109B800003D10620EE49087020E0EE480078401C22
:109B9000EC490870ECA0EF490860EFA0FFF7FAFE6F
:109BA0006420EF4908800120E4490870ED490870FD
:109BB0000CE0FFE7E1480078012803D10220E049EA
:109BC000087003E00D20DE49087000BF00BF10BD23
:109BD00010B5DC48007830B1012824D002283BD0F1
:109BE000032861D154E00020DE490870DE49087086
:109BF000D2490870AFF2C400D64908604FF4FA7039
:109C0000D74908800120CD490870CE480078401C13
:109C1000CC490870AFF2E000FFF7BCFE4FF47A7059
:109C2000FCF736FD40E0C5480078012803D10C2040
:109C3000C349087038E0C3480078401CC149087027
:109C4000CAA0FFF7A7FE6420C54908800120BB49D0
:109C50000870C549087027E0B8480078012803D18A
:109C60000220B74908701FE0B6480078401CB5498B
:109C70000870B5A0B7490860B7A0FFF78BFE642055
:109C8000B74908800120AD490870B64908700BE05B
:109C9000AA480078012803D10220A949087003E0EE
:109CA0000C20A749087000BF00BF10BD10B5A54823
:109CB0000078062819D2DFE800F0031931527A9DA6
:109CC0000020A8490870AFF29410A2490860A9A02A
:109CD000FFF760FE9B480078401C9A49087064209A
:109CE0009F4908800120954908708FE093480078CB
:109CF000012803D102209249087087E0914800783A
:109D0000401C904908709DA0FFF744FE4FF49670E8
:109D10009349088001208949087077E087480078D6
:109D2000012803D10220864908706FE08548007839
:109D3000401C8449087093A0FFF72CFE96480068E9
:109D4000FFF728FE95A0FFF725FE95A0FFF722FE5E
:109D50006420FCF79DFC01207849087056E07748A4
:109D60000078012803D10220754908704EE08DA0CB
:109D7000FFF710FE8C480068FFF70CFE88A0FFF785
:109D800009FE4FF47A70FCF783FC6FA071490860FC
:109D900040F6B8307249088001206849087071495E
:109DA000087068480078401C664908702EE06348D7
:109DB0000078012803D102206149087026E0694833
:109DC0000078B0B1002067490870AFF2982061496F
:109DD00008605C480078401C5A49087073A0FFF77F
:109DE000D9FD4FF496705E490880012053490870F0
:109DF0000CE00BE051480078012803D102205049C3
:109E0000087003E001204E49087000BF00BF10BD7C
:109E100010B54C4800780A2821D2DFE800F005216F
:109E20003C5A7CF6F5F4F38C00204E4908706149E9
:109E30000870614908706149087042480078401C08
:109E4000404908704DA0FFF7A5FDAFF21830414919
:109E5000086064204249088001203849087096E172
:109E600036480078012803D10220354908708EE178
:109E7000AFF240303749086032480078401C314921
:109E800008704FA0FFF786FD642035490880012047
:109E90002A4908707BE129480078012803D1022073
:109EA0002749087073E149A02A49086025480078CD
:109EB000401C2449087049A0FFF76CFD4FF4FA706C
:109EC000FCF7E6FB64202649088001201B49087046
:109ED0005DE11A480078012803D103201849087071
:109EE00055E118480078401C164908703EA01949F1
:109EF000086041A0FFF74EFD4FF47A70FCF7C8FBF5
:109F000064201749088001200C490870294908700D
:109F1000294908703BE109480078012803D1022053
:109F20000749087033E12348007801286FD10320E6
:109F3000034908702BE121E1FDC60720F9C607207F
:109F4000CDC60720CEC60720434F4E4E4543540D85
:109F500000000000ECC6072041544F0D0000000037
:109F6000F0C60720FAC60720FBC6072041542B4342
:109F700053510D0041545A0D00000000415445302A
:109F800056310D0041542B434744434F4E543D310D
:109F90002C224950222C2200E8C607202200000073
:109FA0000D00000041544400E4C607204154480D10
:109FB00000000000FCC60720FEC60720FFC60720E1
:109FC00041542B434D45453D310D00002B43534D2E
:109FD000494E533A20302C310D00000041542B43A0
:109FE000534D494E533F0D002B4350494E3A20529A
:109FF000454144590D00000041542B4350494E3F08
:10A000000D0000009DE081E063E03FE0FFE7FE48D7
:10A010000078401CFC490870FC48007840B3AFF25F
:10A02000EC40FB490860FB480078E8B1FAA0FFF774
:10A03000B1FC6420FCF72CFBFA480068FFF7AAFC8F
:10A040006420FCF725FBAFF2A800FFF7A3FC4FF458
:10A05000FA60FCF71DFB6420F34908800120F349F6
:10A060000870EA49087010E00420F14908708EE099
:10A07000AFF24050E6490860EEA0FFF78BFC642089
:10A08000E94908800120E949087080E0E748007844
:10A09000012803D10220E649087078E0DB48007807
:10A0A000012803D10420E249087070E0D648007806
:10A0B000401CD5490870AFF28450D5490860DDA036
:10A0C000FFF768FC6420D84908800120D749087050
:10A0D0005DE0D6480078012803D10220D4490870F9
:10A0E00055E0C9480078401CC7490870D2A0C8494B
:10A0F0000860D4A0FFF74EFC4FF47A70FCF7C8FA62
:10A100000120CA490870D249087040E0C748007869
:10A11000012803D10220C649087038E0BA48007807
:10A12000401CB9490870AFF2F450B9490860C9A0A1
:10A13000FFF730FC6420BC4908800120BB4908704F
:10A1400025E0BA480078012803D10220B8490870F8
:10A150001DE0AD480078401CAB490870AFF22C60A0
:10A16000AB490860BDA0FFF715FC6420AE4908802C
:10A170000120AE490870BD49087008E0AB4800787E
:10A18000012803D10220AA49087000E000BF00BFE7
:10A1900010BD10B504461E20FCF77AFAA4480078DA
:10A1A0000E2818D2DFE800F0071708170B0A171758
:10A1B000110E1417170900BF00BF0CE000BFFFF716
:10A1C00027FE08E0FFF772FD05E0FFF701FD02E062
:10A1D000FFF7F8FB00BF00BF10BD2DE9FC410446AE
:10A1E000002500200090A668E768B81CA049086018
:10A1F0000A30A049086009208D4908700020824972
:10A20000087000BF0020FFF7C4FF6420FCF740FA8D
:10A210006A46CC21306802F010FB17E0012201A948
:10A22000306802F0B0FA9DF8041093A0FAF7B7FF77
:10A230009DF80400FFF760FB7D4800780D2800D1F1
:10A2400007E06A46CC21306802F0F7FA009800284F
:10A25000E4D100BF764800780D2811D1002505E033
:10A260000021864800EB850001606D1C052DF7DBA1
:10A270000122022182A0FEF783F80020BDE8FC81C4
:10A280006B480078022809D10122022180A0FEF744
:10A2900077F88248FCF7FCF90020EFE76448007883
:10A2A0000128AFD1012202217DA0FEF769F87B4889
:10A2B000FCF7EEF90020E1E710B504467C48007891
:10A2C0003C2808DA7A4801780078401C784A1070F7
:10A2D0007848445404E0FFF706FB4FF0FF3010BD10
:10A2E0004B48016873482BF0A4FD28B1AFF2F07120
:10A2F00070482BF09EFD18B9FFF7F5FA0020EEE745
:10A300000622AFF2F8716B482BF0A1FD10B90220C4
:10A31000474908700D2C01D00A2C01D1FFF7E3FA50
:10A320004FF0FF30DBE72DE9FE4380460D46164631
:10A330004FF0FF370020029001905F4C34480560D9
:10A34000019602AAD721206802F077FA01AAD62145
:10A35000206802F072FA0022D321206802F06DFA20
:10A36000FFF7C1FA0022D321206802F066FA4046C6
:10A37000FFF710FB06E09DF80000FFF79DFF074682
:10A3800007B906E001226946206802F0FCF90028BE
:10A39000F1D100BF02AAD621206802F04EFA384659
:10A3A000BDE8FE83224800780D2807D020480078B9
:10A3B0000B2803D01E4800780C2801D101207047DB
:10A3C0000020FCE710B51A480078042800D110BD21
:10A3D000FFF7E8FF002816D1374C6420FCF758F946
:10A3E0000022D321206802F028FA43F69822AFF227
:10A3F000A841AFF29C40FFF796FF18B92F480078AC
:10A400000B495DE05EE06AE0CEC60720FEC607208D
:10A41000ECC60720F8C6072041542B4350494E3D57
:10A4200000000000F4C60720F0C60720F9C6072088
:10A43000CDC6072041540D002B435245473A2030EA
:10A440002C310D0041542B435245473F0D00000075
:10A45000FFC6072041542644310D000041542B43D0
:10A460004D49433D302C31350D000000FAC6072020
:10A47000E4C60720E8C6072025630000A2C607201F
:10A480004750525320434F4E4E4543540000000066
:10A490004D4F44454D204552524F5200C0D401000B
:10A4A0004D4F44454D20504F574552204F4E0000D0
:10A4B000E0C60720FCD60720A8C50720CFC6072086
:10A4C00008700BE0F64800780C2802D10220F5490C
:10A4D000087000220221F4A0FDF752FF00BF00BF68
:10A4E00075E710B5FE4CEF480078042801D1002034
:10A4F00010BDFFF757FF012821D1EA4800780C284A
:10A5000001D00120F4E7E7480078E54908706420AD
:10A51000FCF7BEF80022D321206802F08EF94FF438
:10A52000FA62AFF6F011AFF6F010FFF7FCFE20B9BB
:10A530000F20DC4908700020DAE70120D8E700206E
:10A54000D6E7F0B587B00025E54FFFF72BFF0446AF
:10A55000D4480078042802D1401F07B0F0BDE1487C
:10A5600090F8EE0008B90020F7E764B1CD48007814
:10A570000C2802D04FF0FF30EFE7FFF7B2FF0128C1
:10A5800001D1801EE9E74FF4FA72D7A1D9A0FFF7F5
:10A59000CAFE28B10CB1FFF715FF4FF0FF30DCE722
:10A5A00019226946386802F0EEF80546142D05DADE
:10A5B0000CB1FFF707FF4FF0FF30CEE700208DF81A
:10A5C00018000026CEA002F051F906462EB90CB1B3
:10A5D000FFF7F8FE4FF0FF30BFE76A460C21304628
:10A5E00002F02BF90546304602F036F90CB1FFF7C0
:10A5F000E9FE2846B1E72DE9F04106460C46FFF793
:10A60000D1FE0546A7480078042802D1401FBDE8C6
:10A61000F08165B1A34800780C2802D04FF0FF30DC
:10A62000F5E7FFF75EFF012801D1801EEFE7AC4F91
:10A63000B5A0FFF7AFF93046FFF7ACF9C820FCF73B
:10A6400027F841F27072B2A1AFF20020FFF76BFE63
:10A6500028B10DB1FFF7B6FE4FF0FF30D7E7214626
:10A6600030462BF0A0FB22463146386802F08BF8CA
:10A6700084B20DB1FFF7A6FE2046C8E770B50024EE
:10A68000002588480078042801D1401F70BD9549F5
:10A69000BC31A1482BF0E8FB40219F48FFF7ABFFFE
:10A6A0000546681C01D1401EF0E71AE09A48005D9B
:10A6B000332815D198490819032298A12BF0DDFB06
:10A6C00070B9954801198748D1300A6802604A6814
:10A6D0004260896881602B20824981F8D00002E0C5
:10A6E000641CAC42E2DB00BFAC4201DA0020CDE7E3
:10A6F0004FF0FF30CAE7FEB500250026784F6948C5
:10A700000078062800DAFEBDFFF74CFE04464CB187
:10A71000644800780C2800D0F5E7FFF7E2FE012836
:10A7200000D1F0E741F288327DA1AFF2C070FFF7AF
:10A73000FAFD18B10CB1FFF745FEE4E70A226946BD
:10A74000386802F020F80646032E03DA0CB1FFF752
:10A7500039FED8E708E01DF805002C2803D10020B9
:10A760000DF8050002E06D1C092DF4D100BF68460C
:10A770002BF0BAFC5B49087008460078202801DD00
:10A78000002008700CB1FFF71DFE00BFBBE770B5DD
:10A7900088B000240025524E42480078042801D198
:10A7A00008B070BD6420FBF773FF47F230525EA122
:10A7B00060A0FFF7B8FD00B1F2E7192201A93068E7
:10A7C00001F0E1FF0546032D00DAE9E708E001A802
:10A7D000005D222803D1002001A9085502E0641C75
:10A7E000182CF4D100BF14213E48A2302BF0DBFA24
:10A7F000621C01A93B48A2302BF0BCFA00BFCFE796
:10A8000010B504464E480078402808DA4C480178D4
:10A810000078401C4A4A10703F48445401E0FFF75A
:10A8200062F848480078002838D0474801683A481C
:10A830002BF0FFFA00282CD13749AFF65850FAF721
:10A84000AEFC00203F490870404908801548007858
:10A85000032802D00520134908703D48007870B1E4
:10A8600000203B4908701F4981F8F10006200D497E
:10A870000870642300221146812009F05AFF3548F0
:10A88000007820B100203349087033490870FFF781
:10A890002AF83148007800B160E06BE0A4E00000E5
:10A8A000CFC60720CDC6072050505020434C4F53F1
:10A8B000494E473A204D6F64656D20646F65732083
:10A8C0006E6F742072657475726E2066726F6D2083
:10A8D000636F6D6D616E64206D6F646500000000D4
:10A8E000A8C50720ACC507202B434C54533A20225F
:10A8F0000000000041542B434C54530D0000000055
:10A90000436C6F636B000000415444200000000062
:10A910002B435553443A0000FCD60720333735000B
:10A920002B4353513A2000002B4353504E3A2022E0
:10A930000000000041542B4353504E3F0D000000D7
:10A94000E0C60720F9C60720ECC60720F0C607209E
:10A95000FAC60720FEC60720FCC60720FAA1FE485B
:10A960002BF067FA30B90020FC490870FC490880D8
:10A97000FEF7B9FFFB48007868B1FBA1F6482BF061
:10A9800058FA40B90020F5490870FB490870F449AD
:10A990000880FEF7A8FFF9480078002867D0F8A1E2
:10A9A000ED482BF046FA98B1F8A1EB482BF041FAAC
:10A9B00070B1F9A1E8482BF03CFA48B1F9A1E6489A
:10A9C0002BF037FA20B1FAA1E3482BF032FA60B944
:10A9D0000020E2490870E2490880F8490870012027
:10A9E000F7490870FEF77FFF41E0F6A1DA482BF047
:10A9F00020FA00283BD1F64890F8F000012814D145
:10AA00000020D6490870D6490880EC490870062015
:10AA1000EB4908700120EE4981F8F100642300221F
:10AA20001146802009F085FE10BDE94890F8EF003E
:10AA3000012808D0E64890F8EF00022803D1012051
:10AA4000E34981F8EF00E34807F011FC0120FEF72D
:10AA500017FB08F0CBF80020C0490870C0490880F7
:10AA6000D64908700220D6490870FEF73CFF07223D
:10AA7000AFF66871B8482BF0EAF910B90220D04956
:10AA800008700D2C01D00A2C01D1FEF72CFF00BF5D
:10AA9000CAE77FB50026D04DCD4890F8DE0000B162
:10AAA0007FBDC7480078012800DAF9E7FFF77AFC94
:10AAB00004464CB1C24800780C2800D0F0E7FFF7FC
:10AAC00010FD012800D1EBE740F6B832C3A1C5A0C4
