:100000000C9434010C9451010C9451010C94510145
:100010000C9451010C9451010C9451010C94FE1458
:100020000C9451010C9451010C9451010C94510108
:100030000C9451010C94D9050C9451010C9451016C
:100040000C94C8090C9451010C94350A0C948F0A35
:100050000C94710A0C9451010C9451010C945101AF
:100060000C9451010C94510100C1814001C08041A8
:1000700001C0804100C1814001C0804100C1814078
:1000800000C1814001C0804101C0804100C1814068
:1000900000C1814001C0804100C1814001C0804158
:1000A00001C0804100C1814001C0804100C1814048
:1000B00000C1814001C0804100C1814001C0804138
:1000C00001C0804100C1814000C1814001C0804128
:1000D00001C0804100C1814001C0804100C1814018
:1000E00000C1814001C0804101C0804100C1814008
:1000F00000C1814001C0804100C1814001C08041F8
:1001000001C0804100C1814000C1814001C08041E7
:1001100001C0804100C1814001C0804100C18140D7
:1001200000C1814001C0804100C1814001C08041C7
:1001300001C0804100C1814001C0804100C18140B7
:1001400000C1814001C0804101C0804100C18140A7
:1001500000C1814001C0804100C1814001C0804197
:1001600001C0804100C1814000C0C101C30302C27F
:10017000C60607C705C5C404CC0C0DCD0FCFCE0EE7
:100180000ACACB0BC90908C8D81819D91BDBDA1A57
:100190001EDEDF1FDD1D1CDC14D4D515D71716D6C7
:1001A000D21213D311D1D010F03031F133F3F23237
:1001B00036F6F737F53534F43CFCFD3DFF3F3EFEA7
:1001C000FA3A3BFB39F9F83828E8E929EB2B2AEA17
:1001D000EE2E2FEF2DEDEC2CE42425E527E7E62687
:1001E00022E2E323E12120E0A06061A163A3A262F7
:1001F00066A6A767A56564A46CACAD6DAF6F6EAE67
:10020000AA6A6BAB69A9A86878B8B979BB7B7ABAD6
:10021000BE7E7FBF7DBDBC7CB47475B577B7B67646
:1002200072B2B373B17170B05090915193535292B6
:1002300096565797559594549C5C5D9D5F9F9E5E26
:100240005A9A9B5B99595898884849894B8B8A4A96
:100250004E8E8F4F8D4D4C8C448485458747468606
:10026000824243834181804011241FBECFEFD4E0FE
:10027000DEBFCDBF11E0A0E0B1E0E4EBF0E302C0EF
:1002800005900D92A032B107D9F714E0A0E2B1E0D9
:1002900001C01D92AE34B107E1F70E94B2010C9487
:1002A0009D170C940000AF92BF92CF92DF92EF9215
:1002B000FF920F931F936091770270917802809163
:1002C000790290917A020E94D40D7B018C01A0905A
:1002D0003401B0903501C0903601D0903701C6018D
:1002E000B501A80197010E94EC1588230CF45D9AD2
:1002F000C801B7012AE037ED43E25CE30E948815AC
:100300009B01AC01C601B5010E94361718160CF40A
:100310005D981F910F91FF90EF90DF90CF90BF906D
:10032000AF9008958BE692E060E070E048EB51E01A
:100330000E94DA1784E292E290936C0280936B023F
:100340000E94B112419A399A5D98559A0E94E80A22
:100350000E9491050E94A3140E9426020E94AD09EA
:10036000789408950F931F932EE088E190E00FB6E4
:10037000F894A895809360000FBE209360000E94BF
:100380009201A8950E9461090E946B0D082F60914F
:10039000340170913501809136019091370120E050
:1003A00030E04AE754E40E943A1720E030E04AEF98
:1003B00053E40E9488150E94B8140E945205182F19
:1003C0000E947A020E945301802F612F0E94E90A45
:1003D000D8CFE4E6F0E080818B7F8083259A239A52
:1003E000229A579A5F9A8DB58E7F8DBD8CB58D7F81
:1003F0008CBD8CB58E7F8CBD8CB580618CBD8CB571
:1004000080648CBD08958EBD0DB407FEFDCF0895A8
:100410001F93182F5F9881E10E940302812F0E9491
:1004200003025F9A1F9108950E94E90180E090E025
:10043000ACECB2E48093450190934601A093470150
:10044000B093480186E60E9408020895E4E6F0E0D1
:100450008081877F8083229AA1E8B0E081E08C933D
:10046000E0E8F0E080818062808380818160808329
:100470008081826080838C9188608C938C91806174
:100480008C938FEF9FEF90938900809388008C91DD
:1004900088608C938C9180618C9310928B00109269
:1004A0008A00EFE6F0E08081816080830895AC01EE
:1004B000909323018093220120912001309121010A
:1004C000C9018C599F4F8417950728F02456304056
:1004D0004217530720F45093210140932001F894D0
:1004E00050938B0040938A0078945093210140935D
:1004F0002001089560917B0270917C0280917D02C1
:1005000090917E020E94D40D2091340130913501EA
:1005100040913601509137010E943A1720E030E0B7
:1005200040E751E40E94F01520E03FEF4FE757E429
:100530000E943A170E945816DC01CB010E94570214
:10054000089587BD08952F923F924F925F926F92C8
:100550007F928F929F92AF92BF92CF92DF92EF9253
:10056000FF920F931F93CF93DF9357E0A52E01C007
:10057000AA94E0903401F090350100913601109179
:100580003701CA2DD0E0FE01EE0FFF1FEE0FFF1F57
:10059000E552FC4F60817181828193810E94D40D6C
:1005A0009B01AC01C801B7010E94EC15882314F42B
:1005B000AA20F1F6FE01EE0FFF1FEE0FFF1FE5521E
:1005C000FC4F60817181828193810E94D40D3B0137
:1005D0004C01FE01EE0FFF1FEE0FFF1FE152FC4F1B
:1005E00060817181828193810E94D40D1B012C0155
:1005F000CC0FDD1FCC0FDD1FFE01E150FC4F6081F1
:100600007181828193810E94D40D5B016C01CD5F69
:10061000DB4F688179818A819B810E94D40DA6017C
:1006200095010E9487157B018C01609134017091C6
:1006300035018091360190913701A40193010E9408
:1006400087159B01AC01C801B7010E943A177B01D5
:100650008C01C201B101A40193010E9487159B0185
:10066000AC01C801B7010E94F015A60195010E94D6
:100670008815DF91CF911F910F91FF90EF90DF9040
:10068000CF90BF90AF909F908F907F906F905F9032
:100690004F903F902F90089587E00E94881320E0AC
:1006A00030E048EA51E40E94F015089586E00E9487
:1006B000881320E038ED46ED57E40E943A1720E019
:1006C00030E44CE156E40E94F0150895AF92BF92D9
:1006D000CF92DF92EF92FF920F931F930E944C03F1
:1006E000609328017093290180932A0190932B0134
:1006F0000E9456037B018C016093240170932501B5
:1007000080932601909327012FE832EC45E75CE3C4
:100710000E94EC1588230CF443C0A0902801B090EF
:100720002901C0902A01D0902B01C601B50127E113
:1007300037EB41ED58E30E94EC158823B4F5609146
:10074000490170914A0180914B0190914C012DEC2F
:100750003CEC4CE45DE30E94361787FD21C06091BC
:10076000490170914A0180914B0190914C012DEC0F
:100770003CEC4CE45DE30E94871560934901709363
:100780004A0180934B0190934C0160914901709113
:100790004A0180914B0190914C010E94581667BD0F
:1007A000E0E070E080E86FEB1EC0C801B70120E018
:1007B00038ED46ED57E40E94F0159B01AC01C601EF
:1007C000B5010E9488159B01AC01609328017093CC
:1007D000290180932A0190932B01C801B7010E943F
:1007E000F015E62F692F2E2F372F482F562FB901DE
:1007F000CA011F910F91FF90EF90DF90CF90BF90B3
:10080000AF9008952F923F924F925F926F927F9296
:100810008F929F92AF92BF92CF92DF92EF92FF9210
:100820000F931F935B016C0119012A010E9466035B
:1008300060932C0170932D0180932E0190932F01D2
:1008400060912C0170912D0180912E0190912F01CA
:1008500020E030E040E85FEB0E94EC15882309F4CB
:100860000EC120912C0130912D0140912E0150910B
:100870002F01C601B5010E9487153B014C01E89488
:1008800097F8C401B30120E030E040E05FE30E944C
:10089000EC1518160CF0E0C0C201B1012AE037EDEA
:1008A00043E25CE30E943A179B01AC01C401B3012F
:1008B0000E94361718165CF00F2EFDECEF2EFCECA4
:1008C000FF2EFCE40F2FFDE31F2FF02D0AC00F2E8B
:1008D000F0E0EF2EF0E0FF2EF0E00F2FFFE31F2FF0
:1008E000F02D60912C0170912D0180912E0190913D
:1008F0002F01A60195010E94EC1588230CF03FC042
:10090000A0904501B0904601C0904701D0904801A9
:10091000C801B70120E030E040EC50E40E948815A7
:100920009B01AC01C601B5010E94361788233CF03B
:10093000C601B501A80197010E9487154DC06091BD
:10094000490170914A0180914B0190914C0123E340
:1009500033EF4EE753E40E94EC1518160CF47EC0FA
:100960006091490170914A0180914B0190914C0135
:100970002DEC3CEC4CE45DE30E9488155AC0C601A6
:10098000B50120E030E04CE052E40E94EC1587FD18
:1009900005C060E070E082E593E404C060E070E0D0
:1009A0008BE793E4A0904501B0904601C0904701C9
:1009B000D0904801A80197010E9487159B01AC01C6
:1009C000C601B5010E94EC151816ACF0C601B501C0
:1009D000A80197010E948815609345017093460114
:1009E00080934701909348010E945816DC01CB0187
:1009F0000E94080231C06091490170914A018091C2
:100A00004B0190914C012DEC3CEC4CE45DE30E94D9
:100A1000361788231CF16091490170914A01809139
:100A20004B0190914C012DEC3CEC4CE45DE30E94B9
:100A300087156093490170934A0180934B0190930D
:100A40004C016091490170914A0180914B01909154
:100A50004C010E94581667BD10E012C010E0C201A0
:100A6000B1012DEC3CEC4CE45EE30E943A179B0193
:100A7000AC01C401B3010E94361718160CF411E042
:100A8000812F1F910F91FF90EF90DF90CF90BF903B
:100A9000AF909F908F907F906F905F904F903F901E
:100AA0002F900895EF92FF920F931F9380916F0202
:100AB00090917002892B11F480E02EC060911F0488
:100AC0007091200480912104909122040E94D40D01
:100AD0007B018C016091FF037091000480910104FF
:100AE000909102040E94D40DA80197010E9436172C
:100AF000181664F46091FF03709100048091010462
:100B0000909102040E94D40D7B018C010E94A302EB
:100B1000A80197010E9402041F910F91FF90EF908E
:100B200008950E9449130E941402809164008F7DF1
:100B30008093640082E085BD84B5806884BD84B5FF
:100B4000816084BD84B5826084BD5B9A539A609154
:100B5000FF037091000480910104909102042091A0
:100B60001F043091200440912104509122040E94DE
:100B7000361718162CF480E090E0AFE7B3E404C019
:100B800080E090E0A0E0B0E08093490190934A01BA
:100B9000A0934B01B0934C016091490170914A01BF
:100BA00080914B0190914C010E94581667BD569A56
:100BB00008951F920F920FB60F9211242F933F9317
:100BC0004F935F936F937F938F939F93AF93BF9355
:100BD000EF93FF9380915101813029F08130F0F043
:100BE0008230F9F40AC010924E0110924D01109219
:100BF000500110924F0182E012C080914D019091FE
:100C00004E01019690934E0180934D0180914D01CC
:100C100090914E01449728F083E001C081E08093D9
:100C200051010E94F70AFF91EF91BF91AF919F91FF
:100C30008F917F916F915F914F913F912F910F9085
:100C40000FBE0F901F9018950E94F2090895FF9211
:100C50000F93CF93DF93F82E062F6D3F90F0809186
:100C60006001909161010196909361018093600110
:100C700080916E01806880936E0183E080936F01A4
:100C800002E00E949F09CDE6D1E0F0926D01602F55
:100C90006F5FCE014FEF5FEF0E948409E02FF0E01D
:100CA000EC0FFD1F81839283D0936802C09367028B
:100CB0000D5F00933001E0916902F0916A0235976F
:100CC0008081806280838091C10084FFFCCF10927C
:100CD0003101DF91CF910F91FF900895682F80919E
:100CE00000010E9427060895209160013091610162
:100CF0002F5F3F4F309361012093600190916E010F
:100D0000906890936E0180936F0182E00E946E065E
:100D10000895DC011296EC9112978E2F8B5088303B
:100D2000B0F4F0E0EE0FFF1FEA5BFE4F81811396F7
:100D30008C9313971296EC911297F0E0EE0FFF1F31
:100D4000EA5BFE4F808114968C9385E012C0EE23FF
:100D500079F0EA3049F4ECE5F1E01192119281E08A
:100D6000EC36F807D1F704C081E00E9474060895BC
:100D7000862F0E946E0608956091300162508DE6C4
:100D800091E04FEF5FEF0E948409E0913001F0E0C5
:100D9000E559FE4F208131818217930711F480E0DD
:100DA000089583E008951F93182F809130018430B7
:100DB00020F1809130018B3F00F50E94BC06882312
:100DC000E1F480915C0190915D01019690935D0149
:100DD00080935C0180916D01882311F08117B1F43B
:100DE00080916201909163010196909363018093D9
:100DF00062018091300183500AC080915E01909120
:100E00005F01019690935F0180935E0180E01F91E6
:100E100008951F931FB7F894F999FECFE1E0FCE124
:100E200009951FBF1F910895FC01228133814481E0
:100E3000558120308BE3380780E0480780E0580771
:100E400061F020388BE3380780E0480780E05807DE
:100E500021F082E00E947406089520503B434040F8
:100E6000504060E876E380E090E0620F731F841FDB
:100E7000951F3796AF010E94090787E00E946E0612
:100E80000895DF93CF9300D000D0CDB7DEB79C019B
:100E9000DE011196FC01349683818983828111964B
:100EA0008C931197818112968C931297F90184810A
:100EB00013968C9389819A81AB81BC818030FBE44D
:100EC0009F07F0E0AF07F0E0BF0709F45AC0813098
:100ED0004BE4940740E0A40740E0B40738F5803CB9
:100EE000E2E19E07E0E0AE07E0E0BE0709F449C09A
:100EF000813CF2E19F07F0E0AF07F0E0BF0738F474
:100F000080569940A040B04009F057C03AC08038A0
:100F1000E5E29E07E0E0AE07E0E0BE0791F1805415
:100F20009843A040B04009F048C02BC0803041EE4B
:100F3000940740E0A40740E0B40719F18130E1EEE6
:100F40009E07E0E0AE07E0E0BE0770F48038F0E70F
:100F50009F07F0E0AF07F0E0BF0799F08050964997
:100F6000A040B04051F50DC08030ECE29E07E1E0BA
:100F7000AE07E0E0BE0729F08050924CA140B0409F
:100F8000E1F4F90181818230C0F462816623A9F025
:100F90008381882391F088EB91E00E940218CE01B2
:100FA000019669EB71E044E050E00E94F8178CE094
:100FB0000E946E060E94AD0903C083E00E94740681
:100FC0000F900F900F900F90CF91DF910895CF93D6
:100FD000DF93EC01EE81E63F08F048C08981882369
:100FE00021F0813009F042C028C08A819B81AC8108
:100FF000BD8180302BE3920720E0A20720E0B207FA
:1010000041F080386BE3960760E0A60760E0B60722
:1010100019F580509B43A040B04020E836E340E003
:1010200050E0280F391F4A1F5B1FCE010796B901F8
:101030004E2F50E00E94A0171DC02A813B814C8199
:101040005D81DA01C9018E0F911DA11DB11D815075
:101050009240A040B04010F082E009C0CE01079657
:10106000B9014E2F50E00E94DA1704C083E00E94BD
:10107000740604C08E81895F0E946E06DF91CF9155
:101080000895CF93DF93EC01998180E02A81422F6C
:1010900050E0482B592B9B8180E02C8130E0282B9D
:1010A000392BF901EE0FFF1FE9834C3D5105C8F4C0
:1010B000240F351F2D3D310590F49E012E5F3F4FCB
:1010C000440F551F45595D4FC901BA014E2F50E0DD
:1010D0000E94A91789818E5F0E946E0605C083E079
:1010E00001C082E00E947406DF91CF910895CF92F3
:1010F000DF92EF92FF920F931F93CF93DF938C01B8
:101100007B01CB010E94EB0D000F111F0431110573
:10111000D1F4019741F517C0C7010E94EB0D9C0166
:10112000CC9DC001CD9D900DDC9D900D1124845966
:101130009F4F0817190729F4225030402D313105EF
:1011400090F4219605C0C0E0D0E026E5C22ED12C57
:1011500080917F02909180020E94EB0DC817D90701
:10116000D8F281E001C080E0DF91CF911F910F9113
:10117000FF90EF90DF90CF900895EF92FF920F9342
:101180001F93DF93CF9300D0CDB7DEB7FC019181E1
:1011900080E02281022F10E0082B192B948180E03F
:1011A0002381622F70E0682B792B7A83698380E436
:1011B0000030180759F46833710509F048C085E01C
:1011C0000E946E06E2E0FCE1099541C091E0083B17
:1011D0001907E8F50C3D110510F4780106C054E23A
:1011E000E52E5FEFF52EE00EF11EC7010E94770895
:1011F000882311F483E02CC0EE0CFF1C0C3D11057C
:1012000050F0EBE6F2E0EE0EFF1E89819A81F701C5
:101210009183808312C0870100501040CE01019657
:10122000B80142E050E00E94F817C70185599D4F70
:10123000B80142E050E00E94DA1784E292E2909313
:101240006C0280936B0285E00E946E0603C082E010
:101250000E9474060F900F90CF91DF911F910F9114
:10126000FF90EF900895FC018081883011F1893062
:1012700028F4843051F0863001F50BC0863469F0D3
:10128000873499F08534C9F40CC0CF010E9441081D
:101290000895CF010E94BD080895CF010E94E7077D
:1012A0000895CF010E9414070895CF010E944107BD
:1012B0000895CF010E948906089581E00E94740676
:1012C00008951F938091710290917202892B31F0E1
:1012D0008091810290918202892BA1F00E94F209F3
:1012E000182F882369F0809100010E94D30688237B
:1012F00039F0109246048EE691E0612F0E94330986
:101300000E94D20E1F910895DC010FC0ED91E427D9
:101310002E2F30E0C90188599F4FFC014491452789
:1013200028593E4FF90154916150662379F7952F62
:1013300080E0242F30E0282B392BC9010895E1ECFF
:10134000F0E080818F7E80835A9A08955A98E1EC6C
:10135000F0E08081806180830895E1ECF0E080819D
:101360008869808386EC90E090936A02809369029A
:101370005A98529A8FE28093C40083E680930001CA
:1013800081E08BB9EEE6F0E0808181608083089592
:101390001F920F920FB60F9211248F939F93AF93CA
:1013A000BF9380916C018F5F80936C0180912304C7
:1013B00090912404A0912504B09126040196A11DCA
:1013C000B11D8093230490932404A0932504B0932B
:1013D0002604BF91AF919F918F910F900FBE0F90F8
:1013E0001F901895809132018130E9F0813028F00A
:1013F000823031F18330B9F52DC0809131018823DD
:1014000061F480916C018D3170F181E08093320143
:10141000109230018093310111C081E0809331013D
:101420001092300109C080913101823021F0809109
:1014300031018530C1F482E08093320180E008956B
:1014400080916C018E3030F083E08093320185E032
:101450008093310180916C018D3128F0109232011E
:1014600080913001089580E008951F920F920FB689
:101470000F9211248F939F93EF93FF93E091690252
:10148000F0916A02908180913101853019F41092B7
:1014900030011EC0809131018823C1F0809130015C
:1014A000882319F482E08093310180913001E82F84
:1014B000F0E0E359FE4F90838F5F8093300180917D
:1014C00030018A3F18F085E08093310110926C0161
:1014D000FF91EF919F918F910F900FBE0F901F90F2
:1014E00018951F920F920FB60F9211248F93EF93BE
:1014F000FF93E1ECF0E080818F7B80835A988081BC
:101500008061808381E08093310110926C01FF91B2
:10151000EF918F910F900FBE0F901F9018951F9213
:101520000F920FB60F9211248F939F93AF93BF9397
:10153000EF93FF93A0916902B0916A02E091670274
:10154000F091680280818C9380916702909168028B
:1015500001969093680280936702809130018150D8
:101560008093300180913001882369F4E091690211
:10157000F0916A02359780818F7D80838091C100D0
:1015800080648093C100FF91EF91BF91AF919F91D3
:101590008F910F900FBE0F901F901895DF93CF93F0
:1015A00000D000D0CDB7DEB7BC01CE01019644E03B
:1015B00050E00E94A01729813A814B815C81B901DA
:1015C000CA010F900F900F900F90CF91DF91089567
:1015D0000895882319F4662339F0862F90E0880F48
:1015E000991F80930101089510920101089580913F
:1015F000020190910301892B31F0809102019091B9
:101600000301019717C088B192E0892788B98091BA
:1016100033018F5F809333019091330180910101F9
:10162000981730F041981092330182EC91E002C09B
:1016300083E490E0909303018093020108958F92D8
:101640009F92AF92BF92DF92EF92FF920F931F9300
:10165000CF93DF93DD240F2EF0E0EF2EF0E0FF2E8E
:10166000F0E00F2FF0E01F2FF02D26E5822E912CB9
:101670009CE3A92EB12C28C0C89DF001C99DF00D96
:10168000D89DF00D1124E952FD4F808191810E9477
:10169000EB0DCA9D9001CB9D300DDA9D300D1124CC
:1016A000280F391F220F331F220F331FC9018C50FF
:1016B000994C0E94CE0A9B01AC01C801B7010E945F
:1016C00088157B018C01D39480917F0290918002D8
:1016D0000E94EB0DCD2DD0E0C817D90768F2B701F5
:1016E000C801DF91CF911F910F91FF90EF90DF9094
:1016F000BF90AF909F908F9008950F931F938C0190
:1017000086E590E0089FF001099FF00D189FF00D0D
:101710001124E952FD4F808191810E94EB0D2CE351
:1017200030E0A901049F9001059F300D149F300DFA
:101730001124280F391F220F331F220F331FC90115
:101740008458994C0E94CE0A1F910F9108952F92B0
:101750003F924F925F926F927F928F929F92AF9241
:10176000BF92CF92DF92EF92FF920F931F93DF937E
:10177000CF9300D000D0CDB7DEB75C0186E590E016
:10178000A89E6001A99ED00CB89ED00C112483E8BD
:1017900092E0C80ED91EF601608171818281938129
:1017A0000E94D40D69837A838B839C83C5010E9438
:1017B0007D0B7B018C0120E030E84BEB54E40E9470
:1017C000EC15882354F40F2EF0E0EF2EF0E8FF2EF6
:1017D000FBEB0F2FF4E41F2FF02D80EF90E0A89E7D
:1017E0004001A99E900CB89E900C112480E896E3CD
:1017F000880E991EC4010E94CE0A20E030E048E421
:1018000052E40E9487159B01AC0169817A818B812A
:101810009C810E94361788230CF4D4C0C801B701FC
:1018200020E030E048E452E40E9488159B01AC01BE
:1018300069817A818B819C810E94EC1518160CF4C9
:10184000C1C0C4010E94CE0A9B01AC0169817A81AA
:101850008B819C810E94EC1588233CF4C4010E947A
:10186000CE0A69837A838B839C83C5010E947D0B9A
:101870009B01AC0169817A818B819C810E94361722
:1018800018163CF4C5010E947D0B69837A838B8313
:101890009C83F601EC5AFF4F808191810E94EB0DF1
:1018A000082F02508CE390E0A89E6001A99ED00C06
:1018B000B89ED00C112401C00150E02EFF24C701B6
:1018C0008C0D9D1D880F991F880F991F8058994C6A
:1018D0000E94CE0A9B01AC0169817A818B819C8137
:1018E0000E94EC15882314F4002331F78CE390E078
:1018F000A89E6001A99ED00CB89ED00C1124EC0CBF
:10190000FD1CEE0CFF1CEE0CFF1CC7018058994C0F
:101910000E94CE0A3B014C0110E00F5F1F4F0C0DDF
:101920001D1D000F111F000F111FC8018058994C79
:101930000E94CE0A1B012C01C7018850994C0E94BD
:10194000CE0A5B016C01C8018850994C0E94CE0AF6
:10195000A60195010E9487157B018C0169817A811E
:101960008B819C81A40193010E9487159B01AC018E
:10197000C801B7010E943A177B018C01C201B10175
:10198000A40193010E9487159B01AC01C801B70116
:101990000E94F015A60195010E9488157B018C011B
:1019A00020E030E040E85FEB0E943617181654F450
:1019B000C801B70120E030E543EC57E40E94EC1584
:1019C000882354F00F2EF0E0EF2EF0E0FF2EF0E031
:1019D0000F2FF0E01F2FF02DB701C8010F900F90CF
:1019E0000F900F90CF91DF911F910F91FF90EF908B
:1019F000DF90CF90BF90AF909F908F907F906F902F
:101A00005F904F903F902F900895DF92EF92FF925A
:101A10000F931F93DD240F2EF0E0EF2EF0E0FF2E4A
:101A2000F0E00F2FF0E01F2FF02D0DC08D2D90E076
:101A30000E94A70B9B01AC01C801B7010E94881549
:101A40007B018C01D39480917F02909180020E944F
:101A5000EB0D2D2D30E02817390740F3B701C801F1
:101A60001F910F91FF90EF90DF900895EF92FF92FA
:101A70000F931F930E94050D7B018C010E941F0B89
:101A80009B01AC01C801B7010E94F0157B018C01DC
:101A900020E030E040E85FEB0E943617181654F45F
:101AA000C801B70120E030E040E050E40E94EC15AE
:101AB00087FD0AC00F2EF0E0EF2EF0E0FF2EF0E0E1
:101AC0000F2FF0E01F2FF02DB701C8011F910F91CC
:101AD000FF90EF900895CF92DF92EF92FF920F93D5
:101AE0001F93CF93DF9380917F02909180020E9499
:101AF000EB0D6C010E942E1508E311E0C3E8D2E063
:101B00007801EC0CFD1C0BC0F80111928F0168816B
:101B100079818A819B810E94D40DCA5ADF4F0E15AC
:101B20001F0591F70E94360D6093340170933501C3
:101B300080933601909337010E94D40D6093730215
:101B400070937402809375029093760220E030E0E7
:101B50000BC0F901E85CFE4F8081833019F4822FBD
:101B60008E5F06C02F5F3F4F2C153D0590F380E040
:101B7000DF91CF911F910F91FF90EF90DF90CF9069
:101B80000895362F3695DC01E62FF0E03197E80F07
:101B9000F91F20E006C09C9180818D9390832F5F78
:101BA00031972317C0F30895DF93CF9300D000D06F
:101BB000CDB7DEB769837A838B839C832C813B818D
:101BC0004A815981B901CA010F900F900F900F906F
:101BD000CF91DF910895DF93CF9300D0CDB7DEB7DB
:101BE0009A838983982F8A810F900F90CF91DF91EC
:101BF000089580916D01843489F480916E018F3451
:101C000011F488E703C0803549F489E780932A04FA
:101C10008091000180932B0484E0089583E008956F
:101C2000109228040E949F098DE691E0909368022B
:101C30008093670280912904809330018091C100D4
:101C400080628093C1008091C10084FFFCCF089521
:101C50001F93CF93DF9310E060E0C82FD0E021976F
:101C600007C0E359FE4F80810E942F13682F1F5F2A
:101C7000E12FF0E0EC17FD07A4F3862FDF91CF9161
:101C80001F910895809130018093290480916D0106
:101C9000813321F580913001843000F18091300151
:101CA0000E94280EE0913001F0E0E459FE4F90814F
:101CB000891751F480916E0180932B0480916F01FC
:101CC00080932A0484E0089580916E0180932B0410
:101CD00080916F0180932A0483E0089583E0089542
:101CE000809130018330C8F00E94F90D8430B9F042
:101CF0000E94420E843071F480914904882321F4BB
:101D000080912B048F3F59F090912B04809100011A
:101D1000981729F081E08093280480E0089581E0FD
:101D200008951F93109228040E949F098EE38093C8
:101D30006D0180912B0480936E0180912A04809321
:101D40006F0110912904809129040E94280EE12F2F
:101D5000F0E0E459FE4F80838DE691E090936802B5
:101D60008093670280912904809330018091C100A3
:101D700080628093C1008091C10084FFFCCF1F91DD
:101D800008951092700185E0809329040E94910EBD
:101D9000089581E08093700185E0809329040E947A
:101DA000910E0895EF92FF920F931F938091460436
:101DB000882391F1E0902304F090240400912504FD
:101DC0001091260460911F0170E080E090E020E215
:101DD0003CE140E050E00E9425186E157F05800729
:101DE0009107D0F480912704823051F48091000152
:101DF00080932B0487E080932A0482E090E002C065
:101E000081E090E00E945C1110922304109224045F
:101E100010922504109226040E94700E882309F463
:101E2000AAC01092460480912A048C3009F484C020
:101E30008D3058F5863009F461C0873098F48330CE
:101E400009F453C0843038F4813009F448C082303A
:101E500009F08FC047C0843009F44AC0853009F0CA
:101E600088C049C0893009F45EC08A3038F48730B0
:101E700009F44EC0883009F07CC052C08A3009F4A1
:101E800055C08B3009F075C054C0833109F463C06C
:101E9000843198F48F3009F458C0803138F48D3093
:101EA00009F44DC08E3009F064C04CC0813109F492
:101EB0004CC0823109F05DC04BC0873109F454C079
:101EC000883138F4843109F449C0853109F051C0B2
:101ED00048C08837B1F0893709F04BC01CC00E9458
:101EE000621249C00E94241146C00E94A11043C042
:101EF0000E94941040C00E94CB103DC082E090E050
:101F000004C00E94F20F81E090E00E945C1133C097
:101F100082E090E002C081E090E00E9468102BC057
:101F20000E94451128C00E94631025C00E946010C5
:101F300022C00E945D101FC00E945A101CC00E9447
:101F4000571019C00E94541016C00E944E1013C0A2
:101F50000E944B1010C00E9437100DC00E94BD108F
:101F60000AC00E94B11007C0809170010E940E103B
:101F700002C00E94C10E1F910F91FF90EF90089533
:101F8000EF92FF920F931F93E0903401F090350190
:101F90000091360110913701C801B70120E030E00F
:101FA0004AE754E40E943A170E9458167093360488
:101FB00060933504C801B70120E030EC4FE754E4EA
:101FC0000E943A170E9458167093300460932F04B1
:101FD0001F910F91FF90EF9008958AEE91E00E947B
:101FE000EA1708958AEE91E00E94EA17882339F0F3
:101FF000F999FECF8AEE91E060E00E940218089500
:102000008AEE91E00E94EA17882339F4F999FECF0D
:102010008AEE91E061E00E94021808951F93182F44
:10202000882351F4F999FECF85EC91E060E00E949D
:1020300002180E94F20F17C0813051F40E94F20F73
:1020400010934604F999FECF85EC91E061E009C058
:10205000823049F40E940010F999FECF85EC91E09E
:1020600060E00E9402180E94C10E1F9108958091A5
:10207000700180931F01882319F481E080931F0170
:10208000F999FECF83EC91E060911F010E94021844
:102090000E94C10E08950E94C10E08950E94C10EB3
:1020A00008950E94C10E08950E94C10E08950E94D5
:1020B000C10E08950E94C10E08950E94C10E089598
:1020C0000E94C10E08950E94C00F0E94C10E089583
:1020D000029779F40E94C10E82E08093270491E078
:1020E0009093460480911F018823E9F490931F0187
:1020F000089585EC91E00E94EA17882339F0F99958
:10210000FECF85EC91E060E00E9402180E94001072
:1021100091E0909327049093460480911F018823B7
:1021200011F490931F010895609170016093490428
:10213000F999FECF8EEB91E00E9402180E94C10E29
:1021400008951F9310917001F999FECF88EB91E0EB
:10215000612F0E940218109300010E94C10E1F916E
:10216000089584EC91E00E94EA178093700185E065
:10217000809329040E94910E089582EC91E00E94C0
:10218000EA1780933D048093700185E080932904D1
:102190000E94910E089520913F0430914004409197
:1021A000410450914204852F9927AA27BB27809389
:1021B0007301CA01AA27BB2780937201BB27A52FF1
:1021C000942F832F809371012093700190914A0482
:1021D00080914B0480937501909374019091470412
:1021E0008091480480937701909376019091430405
:1021F00080914404809379019093780180913E040A
:1022000080937A0190912D0480912E0480937C011B
:1022100090937B01909137048091380480937E01E4
:1022200090937D018091000180937F01809149040A
:1022300080938001809145048093810186E18093A1
:1022400029040E94910E089520913F04309140048A
:102250004091410450914204852F9927AA27BB271A
:1022600080937301CA01AA27BB2780937201BB2701
:10227000A52F942F832F809371012093700188E004
:10228000809329040E94910E08950E94C00FF9992D
:10229000FECF609135047091360484ED91E00E9488
:1022A000101884ED91E00E94F217909348048093F7
:1022B00047040E94C10E0895EF92FF920F931F935F
:1022C000DF93CF9300D000D000D0CDB7DEB7029718
:1022D000E1F40E94C00F80912C04809370018091E2
:1022E0002F0490913004809371019093720180913A
:1022F000350490913604809373019093740189E0C2
:10230000809329040E94910ED0C00E94C00F8DE6D8
:1023100091E064E071E00E94BD178DE691E065E018
:1023200071E00E94B21780913504909136048E01BD
:102330000F5F1F4FB80140E150E00E94C417F80141
:1023400001900020E9F73197E01BF10BE430F10533
:10235000A4F4EE24FF2404E010E00E1B1F0B09C0C0
:102360008DE691E068E071E00E94B2170894E11CEC
:10237000F11CE016F106A4F307C0349729F0C80158
:102380006AE071E00E94BD178DE691E08E010F5F5B
:102390001F4FB8010E94B2178DE691E06FE071E027
:1023A0000E94B21780912C0490E0B80140E150E007
:1023B0000E94C417F80101900020E9F73197E01B53
:1023C000F10BE230F105A4F4EE24FF2402E010E06A
:1023D0000E1B1F0B09C08DE691E068E071E00E94C2
:1023E000B2170894E11CF11CE016F106A4F307C033
:1023F000329729F0C80163E171E00E94BD178DE6B4
:1024000091E08E010F5F1F4FB8010E94B2178DE659
:1024100091E066E171E00E94B21780912F049091E3
:102420003004B80140E150E00E94C417F801019067
:102430000020E9F73197E01BF10BE430F105A4F43B
:10244000EE24FF2404E010E00E1B1F0B09C08DE6F4
:1024500091E068E071E00E94B2170894E11CF11C61
:10246000E016F106A4F307C0349729F0C8016AE02A
:1024700071E00E94BD170DE611E0C801BE016F5F5B
:102480007F4F0E94B217C8016AE171E00E94B21743
:10249000F80101900020E9F78F01015010400D561E
:1024A0001140009329040E94100E26960FB6F8944E
:1024B000DEBF0FBECDBFCF91DF911F910F91FF9077
:1024C000EF90089588EE91E00E94EA17882309F0C2
:1024D00047C08091730190E0A0E0B0E0BA2FA92F2F
:1024E000982F88272091720130E040E050E0822B45
:1024F000932BA42BB52BBA2FA92F982F8827209187
:10250000710130E040E050E0822B932BA42BB52BDF
:10251000BA2FA92F982F88272091700130E040E032
:1025200050E0822B932BA42BB52B80933F049093E8
:102530004004A0934104B0934204F999FECF8FE385
:1025400094E06CED71E044E050E00E94F817F999D6
:10255000FECF88EE91E061E00E9402180E94C10E59
:1025600008951F938EEB91E00E94EA17809349042F
:102570008FEB91E00E94EA1780933E0481EC91E09A
:102580000E94EA178093450482EC91E00E94EA17CA
:1025900080933D0483EC91E00E94EA1780931F0131
:1025A00084EC91E00E94EA178093BD0185EC91E0F4
:1025B0000E94EA17182F8AEE91E00E94EA17112371
:1025C00029F081E08093460482E005C0882331F041
:1025D00081E0809346048093270402C01092460451
:1025E00084EC91E00E94EA178093BD0182ED91E0B6
:1025F0000E94F217909344048093430484ED91E089
:102600000E94F217909348048093470486ED91E06E
:102610000E94F21790934B0480934A0488ED91E056
:102620000E94F21790932E0480932D048AED91E07E
:102630000E94F21790933804809337048FE394E05C
:102640006CED71E044E050E00E94DA1780911F01C8
:10265000882319F481E080931F011F910895282F8A
:1026600098E038E1862F822780FF04C063276695B3
:10267000606801C06695915011F02695F3CF862FC2
:102680000895ECE7F0E090818F70907F892B808334
:102690000895EEE7F0E0808180638083E4E6F0E077
:1026A00080818E7F8083ECE7F0E080818F7780836C
:1026B00080818064808380E090E0A0EAB0E4809331
:1026C000390190933A01A0933B01B0933C01808182
:1026D000807F86608083EAE7F0E080818660808387
:1026E000808180688083089580917A0080648093DF
:1026F0007A0080917A0084FFFCCF80917A0080611B
:1027000080937A002091780030917900C901089572
:102710006F927F928F929F92AF92BF92CF92DF92F1
:10272000EF92FF920F931F9390917C008F70907F98
:10273000892B80937C0080917C00806880937C0052
:1027400080917C00806480937C008DEC9CECACE8F4
:10275000BFE38093390190933A01A0933B01B0937A
:102760003C010E9474130F2EF0E06F2EF0E07F2EDC
:10277000F0E08F2EF0E09F2EF02D10E00E947413F9
:10278000A0E0B0E0BC01CD010E9484165B016C01A9
:1027900020E030E04AE754E40E943617181614F49B
:1027A00010E00CC0C401B301A60195010E94881578
:1027B0003B014C011F5F103109F711E080917C0053
:1027C0008F7780937C0080917C00806480937C0074
:1027D00080E090E0A0EAB0E48093390190933A0160
:1027E000A0933B01B0933C010E9474131123F1F4B8
:1027F0000F2EF0E06F2EF0E07F2EF0E08F2EF0E055
:102800009F2EF02D0E947413A0E0B0E0BC01CD011A
:102810000E9484169B01AC01C401B3010E9488157B
:102820003B014C011F5F103169F766C080917C004D
:10283000807F8E6080937C000E9474130F2EF0E0E6
:10284000AF2EF0E0BF2EF0E0CF2EF0E0DF2EF02D27
:1028500010E00E947413A0E0B0E0BC01CD010E9422
:1028600084169B01AC01C601B5010E9488155B016D
:102870006C011F5F103169F7E0903901F0903A0167
:1028800000913B0110913C0120E030E040E85DE325
:102890000E943A17A80197010E943A17E0903D0163
:1028A000F0903E0100913F011091400120E030E0A6
:1028B00040E85AE30E943A17A80197010E94871541
:1028C0002DEC3CEC4CEC5DE30E943A179B01AC0113
:1028D000C801B7010E94881560933D0170933E01C5
:1028E00080933F01909340016093390170933A01C6
:1028F00080933B0190933C01E0903901F0903A01C4
:1029000000913B0110913C01C401B30120E030E093
:1029100040E85DE30E943A17A80197010E943A1728
:1029200020E030E040E85AE30E943A171F910F91EF
:10293000FF90EF90DF90CF90BF90AF909F908F90DF
:102940007F906F900895E4E6F0E080818F7B808334
:10295000E0EBF0E08081826080831092B30082E03F
:102960008093B100E0E7F0E0808182608083089589
:102970000F931F939B01AC0160E070E081E699E446
:102980000E94F01520E030E040E85FE30E948715E8
:102990000E9458168B019C01FB01CB016FEF70E088
:1029A0000E944418462F6F5FC80170E00E944418CF
:1029B000242F30E0862F90E0DC01A29FC001A39F6E
:1029C000900DB29F900D1124E81BF90B88279927D1
:1029D000821B930B03C0E80FF91F6F5FEF3FF105F8
:1029E00009F0C8F76150F8946093410140934301A6
:1029F000E0934C0478941F910F9108951F920F92C9
:102A00000FB60F9211248F939F93809144018823D6
:102A100051F0809142018093B30080914401815034
:102A20008093440114C08BB198E089278BB98091C1
:102A30004D048093B30080914301809344018091C1
:102A400041018093420180914C0480934D049F91F9
:102A50008F910F900FBE0F901F901895AF92BF925D
:102A6000CF92DF92EF92FF920F931F9382E00E942A
:102A7000881323E93BE248E450E40E943A177B01C3
:102A80008C01609183027091840280918502909103
:102A900086020E94D40D5B016C0120E030E040E032
:102AA00050E00E94EC15882329F4EE2D7F2D802F15
:102AB000612F14C0C801B701A60195010E948715B6
:102AC0002AE037ED43EA5BE30E943A179B01AC0131
:102AD000C601B5010E948815E62F692F2E2F372FCA
:102AE000482F562FB901CA010E94D40D609383026A
:102AF0007093840280938502909386021F910F91B8
:102B0000FF90EF90DF90CF90BF90AF900895505816
:102B1000BB27AA270ED070C161D130F066D120F05A
:102B200031F49F3F11F41EF456C10EF4E095E7FB1B
:102B30004CC1E92F72D180F3BA176207730784077B
:102B4000950718F071F49EF58AC10EF4E0950B2EEE
:102B5000BA2FA02D0B01B90190010C01CA01A001EF
:102B60001124FF27591B99F0593F50F4503E68F14A
:102B70001A16F040A22F232F342F4427585FF3CF8B
:102B8000469537952795A795F0405395C9F77EF45C
:102B90001F16BA0B620B730B840BBAF09150A1F0A5
:102BA000FF0FBB1F661F771F881FC2F70EC0BA0F2B
:102BB000621F731F841F48F4879577956795B795B3
:102BC000F7959E3F08F0B3CF9395880F08F09927AB
:102BD000EE0F979587950895D4D008F481E0089575
:102BE0000CD00AC102D140F0F9D030F021F45F3F9F
:102BF00019F0EBC0511134C1EEC00FD198F39923F5
:102C0000C9F35523B1F3951B550BBB27AA276217B0
:102C10007307840738F09F5F5F4F220F331F441FF5
:102C2000AA1FA9F333D00E2E3AF0E0E830D091502D
:102C30005040E695001CCAF729D0FE2F27D0660F1A
:102C4000771F881FBB1F261737074807AB07B0E859
:102C500009F0BB0B802DBF01FF2793585F4F2AF06F
:102C60009E3F510568F0B1C0FBC05F3FECF3983E5A
:102C7000DCF3869577956795B795F7959F5FC9F7CC
:102C8000880F911D9695879597F90895E1E0660F55
:102C9000771F881FBB1F621773078407BA0720F0CE
:102CA000621B730B840BBA0BEE1F88F7E095089537
:102CB000BCD088F09F5790F0B92F9927B751A0F05A
:102CC000D1F0660F771F881F991F1AF0BA95C9F7C0
:102CD00012C0B13081F0C3D0B1E00895C0C0672FF9
:102CE000782F8827B85F39F0B93FCCF38695779570
:102CF0006795B395D9F73EF4909580957095619559
:102D00007F4F8F4F9F4F0895E89409C097FB3EF483
:102D100090958095709561957F4F8F4F9F4F992328
:102D2000A9F0F92F96E9BB279395F69587957795A6
:102D30006795B795F111F8CFFAF4BB0F11F460FF66
:102D40001BC06F5F7F4F8F4F9F4F16C0882311F0BE
:102D500096E911C0772321F09EE8872F762F05C0D2
:102D6000662371F096E8862F70E060E02AF09A956D
:102D7000660F771F881FDAF7880F9695879597F962
:102D80000895990F0008550FAA0BE0E8FEEF1616FC
:102D90001706E807F907C0F012161306E407F5074F
:102DA00098F0621B730B840B950B39F40A2661F0C3
:102DB000232B242B252B21F408950A2609F4A14066
:102DC000A6958FEF811D811D089597F99F6780E873
:102DD00070E060E008959FEF80EC089500240A946D
:102DE0001616170618060906089500240A941216E6
:102DF0001306140605060895092E0394000C11F419
:102E0000882352F0BB0F40F4BF2B11F460FF04C0C5
:102E10006F5F7F4F8F4F9F4F089557FD9058440F1E
:102E2000551F59F05F3F71F04795880F97FB991F29
:102E300061F09F3F79F087950895121613061406E6
:102E4000551FF2CF4695F1DF08C016161706180673
:102E5000991FF1CF86957105610508940895E8944E
:102E6000BB2766277727CB0197F908958ADF08F4F7
:102E70008FEF08950BD0C0CFB1DF28F0B6DF18F088
:102E8000952309F0A2CFA7CF1124EACFC6DFA0F384
:102E9000959FD1F3950F50E0551F629FF001729FEF
:102EA000BB27F00DB11D639FAA27F00DB11DAA1F0E
:102EB000649F6627B00DA11D661F829F2227B00D5B
:102EC000A11D621F739FB00DA11D621F839FA00DE6
:102ED000611D221F749F3327A00D611D231F849F36
:102EE000600D211D822F762F6A2F11249F5750408D
:102EF0008AF0E1F088234AF0EE0FFF1FBB1F661F28
:102F0000771F881F91505040A9F79E3F510570F0E0
:102F10005CCFA6CF5F3FECF3983EDCF386957795C8
:102F20006795B795F795E7959F5FC1F7FE2B880FDB
:102F3000911D9695879597F90895F8940C945818D3
:102F4000FB01DC0102C005900D9241505040D8F7C2
:102F50000895FB01DC0102C001900D9241505040E8
:102F6000D8F70895FB01DC010D900020E9F71197D7
:102F700001900D920020E1F70895FB01DC01019022
:102F80000D920020E1F70895FB019F01423074F09B
:102F9000453264F4642F77270E944418805D8A3399
:102FA0000CF0895D8193CB010097A1F71082C901D4
:102FB0000C941518DC01CB01FC01F999FECF06C079
:102FC000F2BDE1BDF89A319600B40D9241505040E7
:102FD000B8F70895F999FECF92BD81BDF89A992767
:102FE00080B50895A8E1B0E042E050E00C94DC1711
:102FF000DC01CB0103C02D910E94031841505040C9
:10300000D0F70895262FF999FECF1FBA92BD81BD42
:1030100020BD0FB6F894FA9AF99A0FBE019608955A
:103020000E940218272F0C940318DC01FC01672F63
:1030300071917723E1F7329704C07C916D9370838F
:103040006291AE17BF07C8F30895629FD001739FC6
:10305000F001829FE00DF11D649FE00DF11D929F34
:10306000F00D839FF00D749FF00D659FF00D992773
:10307000729FB00DE11DF91F639FB00DE11DF91F97
:10308000BD01CF0111240895AA1BBB1B51E107C04C
:10309000AA1FBB1FA617B70710F0A61BB70B881FE8
:1030A000991F5A95A9F780959095BC01CD01089577
:0430B000F894FFCFC2
:1030B4006314430000463D003000303030300020BF
:1030C400743D00303000204E3D002E300A0D0001CA
:02367E00729246
:10368000000000000000000000000000000000003A
:10369000000000000000000000000000000000002A
:1036A000000000000000000000000000000000001A
:1036B000000000000000000000000000000000000A
:1036C00000000000000000000000000000000000FA
:1036D00000000000000000000000000000000000EA
:1036E00000000000000000000000000000000000DA
:1036F00000000000000000000000000000000000CA
:1037000000000000000000000000000000000000B9
:1037100000000000000000000000000000000000A9
:103720000000000000000000000000000000000099
:103730000000000000000000000000000000000089
:103740000000000000000000000000000000000079
:103750000000000000000000000000000000000069
:103760000000000000000000000000000000000059
:06380000F9C2DAC1FEC1AD
:10380800982F869586958670292F2770220F220F6C
:10381800220F821B929596959170891B875C08955B
:10382800982F8670880F880F292F2695269526951C
:10383800821B91709295990F907E891B895D0895DE
:10384800E9E8FFE3E80FF11DE4918E2F0895E9EB15
:10385800FFE3E80FF11DE4918E2F0895AF92BF9218
:10386800CF92DF92EF92FF921F93CF93DF936C0179
:103878007B01EA01122F80E8A82EB12C1150812F6C
:10388800FE010995212F269526952695D601A20F8A
:10389800B11D212F2770A50102C0559547952A957E
:1038A800E2F7342F282F269526952695F701E20F63
:1038B800F11D8770A50102C0559547958A95E2F7D5
:1038C800208124238C91222319F0232F282B03C035
:1038D800232F209528232C93112381F6DF91CF9154
:1038E8001F91FF90EF90DF90CF90BF90AF90089519
:1038F8002F923F924F925F926F927F928F929F92F8
:10390800AF92BF92CF92DF92EF92FF920F931F93E5
:10391800DF93CF93CDB7DEB7AC970FB6F894DEBF81
:103928000FBECDBF1C0178A76FA38E01015F1F4F8B
:10393800C801B10144E05CE120E40E94321C64E269
:10394800462E6EE3562E53E1E52EF12CEC0EFD1EAD
:103958001AA709A7AE014B5F5F4F5CA74BA7CE0123
:103968000996B70144E25CE120E30E94321C92010F
:10397800DE011996F9012F5F3F4FE4918C918E2754
:103988008D9389A59AA5A817B907A1F744E8A42E8D
:103998004EE3B42E662435E0C32ED12CCC0EDD1EAA
:1039A800B501862C992422E0722E90E044E85FE36A
:1039B800990FFA014F5F5F4FE491E80D8E2F8695BE
:1039C80086958695A9E0B0E0AC0FBD1FA80FB11D84
:1039D800E77020E830E002C035952795EA95E2F7D0
:1039E8008C91822309F09160AFE349385A0701F7B7
:1039F800FB01E90FF11D3491882D8C5F282F269546
:103A080026952695E9E0F0E0EC0FFD1FE20FF11D89
:103A1800877040E850E002C0559547958A95E2F7CF
:103A28002081242311F432953F703F70929490EFD7
:103A38009922932A56E0850E605E7F4F7A9409F0AA
:103A4800B4CF80E490E0A80EB91E9CE0690ED601C0
:103A58009C92B0E36B1621F00894C11CD11CA0CF36
:103A6800CE010196BE016B5F7F4F4BE25CE120E225
:103A78000E94321CD801FE0131968C9191918927C0
:103A88008D934BA55CA5E417F507B9F786E090E0A0
:103A9800480E591EA80194E849169EE3590619F0E4
:103AA80087017A015CCFD8018C918F8B11968C910C
:103AB8001197888F12968C911297898F13968C91F3
:103AC8008A8FF70180818B8F81818C8F82818D8F86
:103AD80083818E8FF1018E01015E1F4F9E01295D4A
:103AE8003F4F8191D8018D938D01A217B307C9F774
:103AF800C101BE01695E7F4F44E15CE120E40E94A0
:103B0800321CEFA1F8A528E0D1018C919191892769
:103B18008D931D012150C1F7FE017F968191AFA1C0
:103B2800B8A58D93B8A7AFA3E017F107B9F7AC967E
:103B38000FB6F894DEBF0FBECDBFCF91DF911F91B6
:103B48000F91FF90EF90DF90CF90BF90AF909F9034
:103B58008F907F906F905F904F903F902F90089537
:103B680098E025E030E8880F661F771F10F4622779
:103B780073279A95C1F7CB010895982F8091C100BA
:103B88008F7E8093C1008091C00085FFFCCF909309
:103B9800C6008091C00086FFFCCF8091C100806183
:103BA8008093C1008091C00080648093C000089514
:103BB80083E0FB0180935700E89507B600FCFDCF32
:103BC800DA0120E031E0FB01E20FF11D8D919D91BA
:103BD8000C0130935700E89511242E5F203899F78F
:103BE80085E0FB0180935700E89507B600FCFDCF00
:103BF80081E180935700E8950895DF93CF93CDB77F
:103C0800DEB7CC51D1400FB6F894DEBF0FBECDBFA2
:103C1800F8948FE590E09093C5008093C40088E104
:103C28008093C1002EE088E190E00FB6F894A89543
:103C3800809360000FBE2093600001C0A89580911A
:103C4800C00087FFFBCF87E09DECACE6B8E2898334
:103C58009A83AB83BC8389ED98E0A8EEBDE68D839B
:103C68009E83AF83B88739E8832E912C8C0E9D1ED6
:103C78001E010894211C311C24E0422E512C480CB2
:103C8800591C99E0692E712C6C0E7D1E83E0E82E7C
:103C980001C0A8958091C00087FFFBCF8091C60026
:103CA80001C0A8958091C00087FFFBCFF090C600A7
:103CB80060E070E08401FA946401CF0CD11CF394A5
:103CC80001C0A8958091C00087FFFBCF8091C600F6
:103CD800F80180830E94B41DBC01A8950C151D0530
:103CE80019F00F5F1F4FEECF009709F07BC0FEEF72
:103CF800FF0E8401C801B1010E947C1C085F1F4FA0
:103D080028EFF20EB9F7F40180819181A281B38185
:103D180085529341A143B04909F062C0A2015BC03A
:103D2800DA011196A895FD0131961196BC9011976C
:103D3800AA248181B501680F711DCB0132963181AA
:103D48008F010E5F1F4F233021F1243030F42130D2
:103D580051F0223009F03EC011C0243061F1273003
:103D680009F038C032C076E38038970720F4FC01A8
:103D7800E0925700E89507B600FCFDCFFC01D3019F
:103D8800AF014F5F5F4F84918D93315011F1FA016C
:103D9800F7CFD301A60FB71FFA01932F86818D9312
:103DA800915031969923D1F73150A32FB0E0119655
:103DB800A00FB11F0FC0F6E360387F0750F480E012
:103DC80090E0A3010E94DC1D04C081E10E94C11D96
:103DD800FFCFD801AD01FA012081222309F0A0CF3D
:103DE80081E101C082E20E94C11D54CF112460E02C
:103DF80070E0E0E0F0E08F010F5F1F4F84910E94B8
:103E0800B41DBC01A895F80186E30038180799F796
:103E1800672B11F00E94011E0C9400008002BEA4C2
:103E2800F1A6C1B8CA5E07B7499E21B29E87C227CC
:103E380009A1A3ED8C6D2CC770D40A68701D481FAA
:103E480016184C794FB22C129CABBE34216ACBFDAC
:103E5800549989994348EE9E42D329E8CD64CC47CA
:103E6800481FB5608A747407D75B063A60FE88DB22
:103E7800B41A14642EE730E6C21F69C9E4D12FB81A
:103E88003A6C59070F74E2D1A6CB953841E8D62B86
:103E9800FC973A50FC8249175B3EA06DF18E6B345B
:103EA800972DC05A3D47F28EC01A69B50E7BA4D132
:103EB80058C6932FD8A13F42B67C05E9A09E63F56A
:103EC8001DC7B428D709346A285ECBF1D6498F308C
:103ED800B12C5AE71AD069874FE3B52C7DE3069ACF
:103EE8001285BC4FD8B56F03472C1AE9A690CB7D35
:103EF800F13E52843F06A1D8945BC72E2C417AB676
:103F0800853FD0E9EB2C47D150FA3986421BAD7872
:103F1800F9C5630EB8C71E2D6F09A453C1AF9268C7
:103F28000D34E75BAF427C9561DE0B389EF528C304
:103F3800704A1DB6432C95FABE17608D4B2EF08D36
:103F48003C975A61D0B7491AE35C2F8614BDC37EEB
:103F5800AF6805926BD814A7950FE23CD2846FB175
:103F6800A93E50C71FD8A374C56B0E927B419CE233
:103F780006ADF35821E74A8DFC90356B0005010228
:103F8800031F0001020304030405060708070809C4
:103F98000A0B0C0B0C0D0E0F100F1011121314132B
:103FA80014151617181718191A1B1C1B1C1D1E1F71
:103FB800000F0613141C0B1B10000E161904111EFB
:103FC800090107170D1F1A0208120C1D05150A030F
:023FD8001800CF
:00000001FF
