:020000040000FA
:10000000D83B082081010000850100008701000025
:10001000890100008B0100008D010000000000003C
:10002000000000000000000000000000F1000000DF
:1000300000000000000000002101000087220000F5
:100040009701000097010000970100009701000050
:100050009701000097010000497700009701000018
:100060001B77000097010000970100009701000036
:100070009701000097010000970100009701000020
:100080009701000097010000970100009701000010
:100090009701000097010000970100009701000000
:1000A0005DEA02009701000097010000970100003F
:1000B00097010000970100009701000097010000E0
:1000C0009701000097010000970100000000000068
:1000D00000000000312E393100000000DFF80CD0A4
:1000E00031F084FA00480047D1240000D83B0820B2
:1000F000194B19680868B0E8F00F80F309884FF0D1
:10010000000080F311884EF00D0E704700000000D3
:1001100002480068006880F3088800DF08ED00E00E
:10012000EFF309800C4B1A6820E9F00F106008B556
:100130004FF0280080F3118801F0A1FE4FF000007D
:1001400080F31188BDE8084019680868B0E8F00F2E
:1001500080F30988704700BF94C1072001B44FF0B5
:10016000280080F3118801BC704701B44FF00000F3
:1001700080F3118801BC70474FF03000D0F800F0D8
:1001800005480047FEE7FEE7FEE7FEE7FEE7FEE77D
:10019000FEE7FEE7FEE7FEE7DD00000010B50446DF
:1001A0004B48006878B90021012000F005FF48495C
:1001B00008600846006830B100231A4619464448D2
:1001C000006800F0AAFF4248006800B910BD002393
:1001D0004FF47A7219463E48006801F074F801281D
:1001E0000BD122463BA13C4831F0E2FB00231A46EA
:1001F00019463748006800F090FF00BFE6E70FB4EB
:1002000008B53348006878B90021012000F0D4FE19
:100210002F4908600846006830B100231A46194685
:100220002B48006800F079FF2948006810B901B038
:100230005DF814FB00234FF47A72194624480068D5
:1002400001F041F801280FD103A800902248009A3C
:10025000029931F0DFFB0020009000231A46194676
:100260001B48006800F059FF00BFE0E713B50446E3
:100270001748006878B90021012000F09DFE14495C
:1002800008600846006830B100231A461946104835
:10029000006800F042FF0E48006800B91CBD002352
:1002A0004FF47A7219460A48006801F00CF80128E8
:1002B0000BD121460848019A31F0ACFB00231A46C5
:1002C00019460348006800F028FF00BFE6E7000079
:1002D000000000102573000004C00720704710B50F
:1002E00021F026FD10BD0246012070470246012084
:1002F000704770477047704770477047FFFFFFFFB8
:100300002949096811F0807F13D02849096811F044
:10031000010F0ED025498039096811F0010F08D06E
:1003200000BF4FF0604109680029FAD04FF06042E9
:100330001070704700BF00BF1D4800681D4988420B
:1003400001D1002000E001200128F4D100BF801E6F
:1003500017490968174A914204D01549086811469F
:10036000134A116000BF704770B504460D4612482D
:10037000854203D12046FFF7C3FF70BDE0B22BF0EA
:10038000F8FCFAE700B50346FFF7D4FF00BD0146CD
:100390004FF0FF30704710B504462046FFF7B0FF1E
:1003A00010BD00BFFEE70000FCED00E0800E00E0A5
:1003B00000C00720A55AA55A04C007202DE9F04126
:1003C0000446884617464FF4097001F071FFA0609B
:1003D000A06818B94FF0FF30BDE8F081A0684FF475
:1003E00009712FF072FFA66827743A4641463046DD
:1003F00011F06FF8054615B9F068606004E0A06878
:1004000002F024F80020A0602846E5E770B5044615
:100410000026A06808B9304670BDA568284611F0CE
:10042000BBFB0646A06802F011F80020A060304631
:10043000F2E72DE9F04104460D461646A76804F19F
:100440000C0332462946384611F0FDF880464046F6
:10045000BDE8F0812DE9F04104460D461646A76837
:1004600004F10C0332462946384611F003FA80465F
:100470004046BDE8F0817CB50446002001907248FA
:1004800000906A4601A971A011F060FD054601982F
:100490004002009989784843206028467CBD70B5A9
:1004A0000446A568284611F0E9FD0646304670BDB1
:1004B00070B50446A568284611F00BFB0646304689
:1004C00070BD70B50446204611F093FE05462846DF
:1004D00070BD70B50446204611F023FE054628463F
:1004E00070BD2DE9F04104460D462560A6682946F9
:1004F000304611F09DFB07463846BDE8F0812DE9F6
:10050000F04106460C46304600F03DFC28B910206C
:10051000207200202060BDE8F081162001F0C8FEA6
:10052000054615B94FF0FF30F5E7162128462FF0A4
:10053000CCFE162120462FF0C8FE2946304611F089
:10054000E4FC074628682060A888A080E888E0804E
:10055000287A207205F1090104F109002FF016FF35
:10056000284601F073FF3846D5E770B50546364991
:10057000002010F0FCFE0446204670BD01464FF0FE
:10058000FF30704770B504460D462946204611F0ED
:1005900065FF0646304670BD2DE9F04104460D4624
:1005A0001C2001F085FEC4F81E00D4F81E0018B906
:1005B0004FF0FF30BDE8F081D4F81E001C212FF071
:1005C00084FED4F81E60284600F0DDFB28B920A187
:1005D000304611F02FFC074604E02946304611F062
:1005E00029FC07463846E5E710B50446D4F81E0056
:1005F00001F02CFF002010BD2DE9F04105460E460C
:10060000D6F81E70162001F053FE04461CB94FF0B8
:10061000FF30BDE8F081162120462FF056FE21461E
:10062000384611F042FC804604F1090105F1110041
:100630002FF0ACFE20686860207A2874204601F014
:1006400005FF4046E5E7000074D10720303A00007E
:100650002F0000002DE9F04104460E461746701C9D
:1006600007F0B2F9A060A06818B94FF0FF30BDE8FC
:10067000F081A0680222002107F07EF90546681C7F
:1006800001D1401EF3E76560A0680022114607F023
:1006900073F9A06810B94FF0FF30E8E70020E6E7F3
:1006A0002DE9F04104460E461746A0683A46314609
:1006B00007F044F90546681C02D1401EBDE8F081F0
:1006C000E5600020FAE72DE9F04104460E461746A2
:1006D000A0683A46314607F040F90546681C02D149
:1006E000401EBDE8F081E5600020FAE770B50446E1
:1006F0000D462560A0680022294607F03DF900203C
:1007000070BD10B50446A06807F054F9002010BD74
:1007100001464FF0FF30704701464FF0FF30704701
:1007200001464FF0FF30704701464FF0FF307047F1
:1007300070B505460C46284600F025FB20B9102070
:1007400020720020206070BD4FF0FF30FBE70146B3
:100750004FF0FF30704701464FF0FF3070470246C0
:100760004FF0FF3070472DE9F04104460F462F4807
:10077000007818B92E4840682E4908602D48006856
:1007800005682B48007829490978884230DD2948D6
:100790000068006808B305F12C0104F111002FF086
:1007A000F5FD05F12C0007F00FF9064656B10120C2
:1007B000207402220021304607F0DEF860603046E7
:1007C00007F0F8F81B48006840681A4908601748A5
:1007D0000078401C154908700EE016480068406813
:1007E0001449086011480078401C1049087003E063
:1007F000002060740D4908700020BDE8F08170B5DC
:1008000005460C46204600F0BEFA08B9002070BD2F
:100810004FF0FF30FBE701460020704710B504465B
:100820002F2120462FF0CAFD10BD0000BCC00720BC
:10083000D4C70720B8C007202DE9F04104460E4672
:100840001746701C0EF070FCA060A06818B94FF03D
:10085000FF30BDE8F081A068022200210EF082FB8B
:100860000546681C01D1401EF3E76560A0680022C0
:1008700011460EF077FB0546681C01D1401EE8E7E3
:10088000A06810B94FF0FF30E3E70020E1E72DE961
:10089000F04104460E461746A0683A4631460EF02F
:1008A00009FB0546681C02D1401EBDE8F081E560E9
:1008B0000020FAE703464FF0FF30704701464FF043
:1008C000FF30704770B504460D462560A9B2A06898
:1008D00000220EF047FB002070BD0146002070474B
:1008E00001464FF0FF30704701464FF0FF30704730
:1008F00001464FF0FF30704770B505460C460024A6
:100900003C4844680CE094F82C0038B1691C04F1B0
:100910001D002FF020FD08B9002070BDD4F805405F
:10092000002CF0D1601EF8E770B505460C46002695
:10093000284600F028FA20B91020207200202060FC
:1009400070BD31462846FFF7D7FF10B94FF0FF3092
:10095000F6E74FF0FF30F3E701464FF0FF30704706
:1009600001464FF0FF30704702464FF0FF307047AE
:1009700070B504460D462048007818B91D484068F7
:100980001E4908601B4800781B49097888421BDD16
:100990001A48006890F82C0080B1184801681D3191
:1009A00004F111002FF0F2FC012020740A20606095
:1009B00012480068D0F80500104908600E48007819
:1009C000401C0D49087003E0002060740A4908705B
:1009D000002070BD70B505460C46204600F0D3F9E6
:1009E00008B9002070BD4FF0FF30FBE70146002042
:1009F000704700003C0000101CC1072018C10720F0
:100A0000E749096821B9E64908600021C16004E0AE
:100A1000E3490968C160E2490860E1490979491C74
:100A2000DF4A11717047FEB50546012400BF0CE096
:100A3000285D2F2806D0285D20B1295D601E0DF8A5
:100A4000001000E003E0601CC4B20A2CF0DB00BF21
:100A50000021601E0DF800100A2C03DA00200DF8AA
:100A6000040001E00020FEBDCD48066807E06946AD
:100A700030462FF070FC08B93046F4E7F668002ED7
:100A8000F5D10020EFE710B504462F21601C2FF0B0
:100A900051FC10BD2DE9F04704460D4617464FF0B6
:100AA00000082846FFF7BFFF06461EB94FF0FF308B
:100AB000BDE8F087294604F111002FF067FC2846B5
:100AC000FFF7E1FF81463A46494620467369984759
:100AD00080464046ECE770B5044604F11100FFF78C
:100AE000A2FF05462046A969884770BD2DE9F0415F
:100AF00004460E46174604F11100FFF794FF054621
:100B00001DB94FF0FF30BDE8F0813A46314620462E
:100B1000EB699847F7E72DE9F04104460E46174682
:100B200004F11100FFF77FFF05461DB94FF0FF30BC
:100B3000BDE8F0813A46314620462B6A9847F7E7F0
:100B400070B5044604F11100FFF76DFF054615B9B5
:100B50004FF0FF3070BD2046696A8847FAE770B5EC
:100B6000044604F11100FFF75EFF054615B94FF08A
:100B7000FF3070BD2046A96A8847FAE770B5054680
:100B80002846FFF750FF044614B94FF0FF3070BD00
:100B90002846FFF778FF0646E16A8847F7E770B511
:100BA00005462846FFF73FFF044614B94FF0FF30D3
:100BB00070BD2846FFF767FF0646216B8847F7E7B9
:100BC00070B506460C463046FFF72DFF054615B9B1
:100BD0004FF0FF3070BD2046696D8847FAE770B569
:100BE00004460E4604F11100FFF71DFF054615B936
:100BF0004FF0FF3070BD314620466A6B9047F9E7F1
:100C00002DE9F04105460E462846FFF70CFF044645
:100C10001CB94FF0FF30BDE8F0812846FFF733FFE5
:100C200007463146A26B9047F5E770B50546284662
:100C3000FFF7F9FE044614B94FF0FF3070BD2846A7
:100C4000E16B8847FAE770B505462846FFF7EBFEEB
:100C5000044614B94FF0FF3070BD2846216C884718
:100C6000FAE72DE9F04106460C463046FFF7DBFE79
:100C700005461DB94FF0FF30BDE8F0812046FFF773
:100C800002FF471C3046FFF7FEFE00F1010839461F
:100C900040466A6C9047EFE770B504460E4641A1A6
:100CA00030462FF058FB28BB3F48007818B93C4825
:100CB00000683E4908603A4800793B490978884213
:100CC00012DD3A48016804F111002FF05FFB11209A
:100CD000207436480068C06834490860324800789B
:100CE000401C3149087003E000202F4908706074EF
:100CF000002070BD3046FFF796FE054615B94FF04F
:100D0000FF30F6E731462046AA6C9047F1E72DE91F
:100D1000F04105460E4623A130462FF01CFB40B99A
:100D2000314628462FF032FB0020C5F81E00BDE8F2
:100D3000F0813046FFF777FE044614B94FF0FF30DC
:100D4000F5E7314628462FF021FB3046FFF79BFEA2
:100D5000074639462846E26C9047E8E770B50546F5
:100D600010A128462FF0F7FA08B9002070BD2846D8
:100D7000FFF759FE044614B94FF0FF30F6E7284656
:100D8000216D8847F2E710B504462F2120462FF049
:100D9000D1FA08B9002010BD4FF0FF30FBE700008A
:100DA00020C107202F00000028C107202CC10720E8
:100DB0002DE9F04104460E461746701C08F07BFBF7
:100DC0000546A560E8686060A87A2074A06818B934
:100DD0004FF0FF30BDE8F0810020FBE72DE9F04146
:100DE00004460E46174649A006F0EEFD80464948E7
:100DF0000078012807D1227C2168404606F0BCFD1E
:100E00000020444908703A463146404606F096FDB7
:100E10000546681C06D1404606F0CCFD4FF0FF3079
:100E2000BDE8F081E560404606F0C4FD0020F7E72C
:100E3000034600207047024611600120354B1870B0
:100E40000846704701460020704701464FF0FF30CA
:100E5000704701464FF0FF30704701464FF0FF30BA
:100E6000704770B505460C462846FFF78CFF20B941
:100E7000102020720020206070BD4FF0FF30FBE793
:100E800001464FF0FF30704701464FF0FF3070478A
:100E900002464FF0FF30704770B504460D461E48BD
:100EA000007818B91D4800681D4908601C48006892
:100EB000B0B11B48016804F111002FF067FA01205E
:100EC000207417480068C068606015480068406971
:100ED0001349086010480078401C0F49087003E06F
:100EE000002060740C490870002070BD70B5054684
:100EF0000C462046FFF747FF08B9002070BD4FF0B1
:100F0000FF30FBE701460020704700005341564583
:100F10005200000088C1072090C10720C8C80720E0
:100F20008CC1072000F1080141604FF0FF31816062
:100F300000F10801C16001610021016070470021DA
:100F400001617047426853684B6043688B60536827
:100F5000996051604160086103685B1C03607047E1
:100F600010B502460B685C1C01D1106907E002F164
:100F7000080000E04068446824689C42FAD944684C
:100F80004C604C68A160886041600A611468641C10
:100F9000146010BDD0E901329A60D0E901235A6093
:100FA00001694A68824201D182684A600022026176
:100FB0000A68521E0A6070472DE9F04105460E4648
:100FC00075B34C2001F074F904464CB305FB06F0F0
:100FD000471C384601F06CF920602068E8B12068B1
:100FE00005FB060060600020A0632068A060681E0A
:100FF000216800FB0610E060E56326644FF0FF30D7
:101000006064A06404F11000FFF78CFF04F1240079
:10101000FFF788FF2046BDE8F081204601F016FA70
:101020000020F8E710B5044601F018F90DE0606AF9
:1010300050B104F1240000F0BEFF08B101F025F822
:10104000A06C401EA06400E002E0A06C0028EEDC72
:1010500000BF4FF0FF30A06401F009F901F0FEF885
:101060000DE0206950B104F1100000F0A4FF08B1B8
:1010700001F00BF8606C401E606400E002E0606C00
:101080000028EEDC00BF4FF0FF30606401F0EFF8A5
:1010900010BD70B5044601F0E1F8A06BE16B884229
:1010A00001D1012000E00020054601F0E0F82846CB
:1010B00070BD70B504460E461546206C38B92068E0
:1010C00038BB606801F02FF80020606021E07DB936
:1010D0003146226CA0682FF0DFF8216CA06808442C
:1010E000A060D4E90110884213D32068A06010E00A
:1010F0003146226CE0682FF0CFF8216CE068401A8E
:10110000E0602168E068884203D2216C6068401A80
:10111000E060A06B401CA06370BDFFB583B00446C7
:101120000E461D46002700BF01F098F8A06BE16B4A
:10113000884217D22A4631462046FFF7BAFF606A36
:1011400008B9012000E0002038B904F1240000F0C3
:1011500032FF012801D101F07BF801F088F801206D
:1011600007B0F0BD059818B901F081F80020F7E745
:101170001FB901A800F054FF012701F078F800F032
:101180003DFB01F06BF8606C401C00D16064A06C0A
:10119000401C00D1A06401F06AF805A901A800F084
:1011A00046FFC0B92046FFF774FF70B104F110008C
:1011B000059900F0CFFE2046FFF734FF00F0C1FA9A
:1011C0000028B1D101F044F8AEE72046FFF72AFF2E
:1011D00000F0B7FAA8E72046FFF724FF00F0B1FAC5
:1011E0000020BDE710B54C2001F062F80446D4B1F0
:1011F000002060602060A060E060A0630120E063E8
:1012000000202064401E6064A06404F11000FFF719
:1012100089FE04F12400FFF785FE00231A461946D3
:101220002046FFF77AFF204610BD2DE9F04704461F
:10123000884616461F464FF00009FEF78FFFA06B49
:10124000E16B884216D23A4641462046FFF731FF0D
:10125000A06C401C09D1606A50B104F1240000F078
:10126000AAFE28B10120306002E0A06C401CA064FE
:10127000012500E00025FEF778FF2846BDE8F0874D
:1012800070B5044600F0EAFFA06B08B9012000E049
:101290000020054600F0EBFF284670BD70B50446FF
:1012A0000D46206870B1216CE0680844E060616818
:1012B000E068884201D32068E0602846226CE1683B
:1012C0002EF0EAFF70BD2DE9FF4182B004460F46C3
:1012D0001D464FF0000800BF00F0C0FFA06B60B3D8
:1012E000E66839462046FFF7D9FFB5B9A06B401E26
:1012F000A063206810B900F0DDFE6060206908B9C5
:10130000012000E0002090B904F1100000F053FE2D
:1013100001280CD100F09CFF09E0E660606A30B162
:1013200004F1240000F047FE08B100F091FF00F046
:101330009EFF012006B0BDE8F081049818B900F0C6
:1013400096FF0020F6E7B8F1000F04D1684600F0E0
:1013500067FE4FF0010800F08AFF00F04FFA00F03E
:101360007DFF606C401C00D16064A06C401C00D10B
:10137000A06400F07CFF04A9684600F058FE08BB9A
:101380002046FFF77DFFB8B1206830B900F066FF56
:10139000606800F092FE00F06AFF04F124000499F6
:1013A00000F0D8FD2046FFF73DFE00F0CAF9002806
:1013B00092D100F04DFF8FE72046FFF733FE00F09B
:1013C000C0F989E72046FFF72DFE00F0BAF90020AA
:1013D000B0E72DE9F04104460F4616464FF00008ED
:1013E000FEF7BCFEA06BC0B139462046FFF756FFA2
:1013F000A06B401EA063606C401C09D1206950B1F5
:1014000004F1100000F0D7FD28B10120306002E0A7
:10141000606C401C6064012500E00025FEF7A5FE1D
:101420002846BDE8F08170B5044600F017FFA56BB3
:1014300000F01DFF284670BD0146886B704710B54F
:101440000446206801F002F8204600F0FFFF10BDBE
:1014500001468A6B0AB9012200E00022104670475B
:1014600001468A6BCB6B9A4201D1012200E0002237
:101470001046704710B5002407E004EB8401F84AD9
:1014800002EB8100FFF74EFD641C052CF5D3F548F7
:10149000FFF748FDF448FFF745FDF448FFF742FD2C
:1014A000F348FFF73FFDF348FFF73CFDED48F249F5
:1014B0000860ED48F149086010BD2DE9F04104468F
:1014C0000E4615469846069F0C22314604F134001C
:1014D0002EF024FF00213F200155052D00D30425C7
:1014E000E5626564201DFFF72AFD04F11800FFF78F
:1014F00026FD2461C5F10500A06164620020A0649E
:10150000BDE8F08170B505460E464C2000F0D0FED7
:10151000044694B11EB9A80000F0CAFE00E03046AF
:101520002063206B20B9204600F090FF002404E0E7
:10153000A900A522206B2EF0C1FE204670BD2DE92A
:10154000FF4F81B0804615469946DDE90E7A284660
:101550001099FFF7D7FF0446002C51D0681E216B6D
:1015600001EB800B2BF0070B00953A462046119BB0
:101570000299FFF7A2FF4A464146584600F03EFE58
:10158000206000F06BFEBE480068401CBC4908604B
:1015900008460068012804D1BA480460FFF76AFFD2
:1015A00009E0B948006830B9B6480068C06AB84276
:1015B00001D8B4480460B549E06A0968884202D994
:1015C000B249E06A0860B24800682064B048006828
:1015D000401CAF490860AF49E06A0968884202D9F7
:1015E000AC49E06A0860E16A01EB81019C4A02EBC8
:1015F0008100211DFFF7A6FC012600F038FE01E066
:101600004FF0FF36012E0ED1BAF1000F01D0CAF80B
:1016100000409D48006830B19A480068C06AB842EE
:1016200001D200F015FE304605B0BDE8F08F70B570
:10163000044600F013FE934920680968884201D1EE
:1016400000202060206810B98E48006800E0206803
:101650000546281DFFF79EFCA86A18B105F1180081
:10166000FFF798FC291D8248FFF76CFC8A48006848
:10167000401C8949086086480068401C844908600D
:1016800000F0F5FD8048006818B1206808B900F046
:10169000DFFD70BD10B581480068002844D1804846
:1016A0000068401C7E4908600846006868B97249B5
:1016B000086872490968704A116070490860794980
:1016C0000968491C774A116000BF1FE074496068CF
:1016D0000968884200D925E0201DFFF75BFCA06A5D
:1016E00018B104F11800FFF755FC6A49E06A09686F
:1016F000884202D96749E06A0860E16A01EB81012A
:10170000574A02EB8100211DFFF71CFC5A48006874
:10171000006820B158480068C068C06800E0002038
:101720000400D3D100BF06E05F480068401C5E495A
:10173000086028F04BF85C48006808B928F046F8C3
:1017400010BD70B5002500F089FD54480068401EAA
:10175000524908600846006800284BD14848006894
:10176000002847D000261EE004F11800FFF712FC05
:10177000201DFFF70FFC4749E06A0968884202D93B
:101780004449E06A0860E16A01EB8101344A02EBF6
:101790008100211DFFF7D6FB3A49E06A0968C96A52
:1017A000884200D301263148006818B12F48C0682C
:1017B000C06800E000200400D6D13B48006860B15A
:1017C00006E0FFF767FF38480068401E36490860AA
:1017D000354800680028F4D10126012E03D0334893
:1017E0000068012805D1012500203049086000F07B
:1017F0002FFD00BF00F03BFD284670BD2748006864
:10180000401C26490860704770B50446002614B392
:10181000FFF7F4FF2248006805191A480068001D08
:10182000FFF7B8FB1748006845601D48006885420F
:1018300007D214480168091D10480068FFF790FBA3
:1018400006E010480168091D0B480068FFF788FB97
:10185000FFF777FF06460EB900F0FAFC70BD0000F6
:10186000ACD3072010D4072024D4072038D4072075
:101870004CD4072060D40720D0C10720D4C1072052
:101880009CC1072094C10720ACC10720A4C1072038
:10189000C0C10720A8C1072098C10720B0C10720F8
:1018A000A0C10720BCC10720B4C10720B8C10720D0
:1018B00070B5044600F0D2FC14B9FC48006800E0A2
:1018C00020460646F56A00F0D2FC284670BD2DE998
:1018D000F04106460D464FF00008052D00D30425C3
:1018E00000F0BCFCF1480068864200D1002616B921
:1018F000EE48006800E030460446676CAF4232D0E4
:10190000BD4203D92EB14FF0010802E00EB94FF0ED
:101910000108E16A606C884200D1E5626564C5F146
:101920000500A06107EB8701E14A02EB81016069D4
:10193000884213D1201DFFF72DFBDE49E06A0968BC
:10194000884202D9DB49E06A0860E16A01EB810163
:10195000D74A02EB8100211DFFF7F4FAB8F1010F1D
:1019600001D100F075FC00F082FCBDE8F08170B59B
:10197000044600F073FCCD480068844200D1002486
:1019800014B9CA48006800E020460546281DFFF744
:1019900001FBA86A18B105F11800FFF7FBFA291D31
:1019A000C548FFF7CFFA00F062FC0CB900F050FC1C
:1019B00070BD10B5014600200A46BF4C5369A342D2
:1019C00001D1012300E0002383B1BC4C936AA34200
:1019D00001D1012300E00023012B07D0936A0BB94A
:1019E000012300E00023012B00D1012010BD70B5C0
:1019F00005462C4644B3AD480068844224D000F02C
:101A00002DFC2046FFF7D5FF01281BD1201DFFF735
:101A1000C1FAA849E06A0968884202D9A549E06A82
:101A20000860E16A01EB8101A14A02EB8100211DFE
:101A3000FFF788FA9D49E06A0968C96A884201D3BC
:101A400000F006FC00F013FC70BD70B505460026E2
:101A50002C462046FFF7ADFF012826D198480068A4
:101A6000F0B99249E06A0968C96A884201D3012045
:101A700000E000200646201DFFF78CFA8D49E06A41
:101A80000968884202D98B49E06A0860E16A01EB83
:101A90008101874A02EB8100211DFFF753FA04E020
:101AA00004F118018548FFF74DFA304670BD10B5B6
:101AB0000446206B00F0CAFC204600F0C7FC10BDB5
:101AC00070B58048006848B3FFF798FE7E4800680C
:101AD00008B9012000E000200546FFF732FEEDB90D
:101AE00000F0BCFB7848006818B17748C068C0684F
:101AF00000E000200446201DFFF74CFA7348006800
:101B0000401E724908606F480068401E6D490860B9
:101B100000F0ADFB2046FFF7CAFF00BF70BD00BF5D
:101B2000FFF7CEFF624800680128F9D900F090FB6A
:101B3000F6E71FB500200090019002900346202296
:101B400063A103906448FFF7FAFC0446012C0BD113
:101B5000FEF704FB0120614908600020604908602D
:101B600006F03FF800F05EFB1FBD10B5FEF7F6FA79
:101B700000205A49086000F06AFB10BD10B500F063
:101B80006DFB5748046800F072FB204610BD4F48BB
:101B9000006870470146002002E0491C421C90B2D8
:101BA0000A78A52AF9D0800870472DE9FE438146BE
:101BB0000C461646204641684968416000F108011C
:101BC00042688A4202D14168496841604168CF68F1
:101BD00000BF204641684968416000F10801426841
:101BE0008A4202D14168496841604168CD68286BEA
:101BF000FFF7D0FF8046286CE96A334605F13402CE
:101C0000CDE90018029037A13B482FF0EFFE3A498A
:101C100048462EF065FBBD42DBD1BDE8FE8370B5C2
:101C20000546FFF7EBFD0020287034A128462EF072
:101C300057FB33480068441C00BF641E04EB84005B
:101C40001B4951F8200040B104EB84000A4602EB26
:101C5000800152222846FFF7A8FF002CEDD1294829
:101C60000068006828B14222264801682846FFF72C
:101C70009CFF25480068006828B14222224801687C
:101C80002846FFF792FF1048006820B144220E4911
:101C90002846FFF78AFF0848006820B1532206490A
:101CA0002846FFF782FFFFF74CFD70BD94C1072067
:101CB000ACD30720A8C1072060D4072038D4072060
:101CC000B0C1072098C107204CD407209CC1072031
:101CD00049444C45000000001F1B0000ACC1072018
:101CE000A0C10720257309092563092575092575F4
:101CF0000925750D0A000000A6D407200D0A000072
:101D0000A4C10720D0C10720D4C107202DE9F84382
:101D100081460C461646204641684968416000F1FC
:101D2000080142688A4202D14168496841604168BD
:101D3000D1F80C8000BF204641684968416000F13D
:101D4000080142688A4202D141684968416041689D
:101D5000CD68002E22D0A86C30B905F13402FBA169
:101D6000FE482FF043FE15E0A86C64214843B0FB09
:101D7000F6F747B10097AB6C05F13402F8A1F748CC
:101D80002FF034FE06E0AB6C05F13402F8A1F34805
:101D90002FF02CFEF14948462EF0A2FA4545CAD153
:101DA000BDE8F88370B5054605F04EFF0646FFF71F
:101DB00025FD00202870EDA128462EF091FAF0486C
:101DC0000068441C00BF641E04EB8400ED4951F818
:101DD000200040B104EB84000A4602EB8001324649
:101DE0002846FFF793FF002CEDD1E7480068006814
:101DF00028B13246E44801682846FFF787FFE348E8
:101E00000068006828B13246E04801682846FFF7BC
:101E10007DFFDF48006820B13246DD492846FFF7E4
:101E200075FFDC48006820B13246DA492846FFF7E2
:101E30006DFFFFF786FC70BD70B504460D4600F0DF
:101E40000DFAD5480460D5480460A5F10800204487
:101E5000D34908600120D349086000F008FA70BD3A
:101E600010B500F0FBF90020CE49086000F0FFF942
:101E7000C9480068C9490968441A204610BD10B510
:101E8000C948006818B10120C849086010BD05F0B4
:101E9000DBFE0446C649096801F14800896CC54A61
:101EA0001268A21A11440160C248046004E0C248EA
:101EB0000068401EC0490860BF48006800EB800011
:101EC000B04951F820000028F1D0BB49096801EB66
:101ED0008101AC4A02EB810041684968416000F130
:101EE000080142688A4202D14168496841604168FC
:101EF000C968AF4A1160AB48006828B31046006853
:101F0000006CAE490968884222D0A34800680830B6
:101F1000A3490968884218D210460068006CA74996
:101F20000860A74800689C49096808609A480068EA
:101F3000001D99490860A148006809680860964832
:101F40000068001D9449086002E00020954908607F
:101F500000BF9BE770B506460C46954801681831EE
:101F60003046FEF7FDFF92480068001DFFF712F8AB
:101F7000601C06D18E480168091D8648FEF7E2FF05
:101F800018E08F48006805198948006845608C484A
:101F90000068854207D286480168091D7B480068B1
:101FA000FEF7DEFF06E082480168091D76480068FA
:101FB000FEF7D6FF70BD70B50546286810B1E86819
:101FC000C06800E00020044604F11800FEF7E2FFBC
:101FD00075480068A0B9201DFEF7DCFF7649E06A6D
:101FE0000968884202D97449E06A0860E16A01EB35
:101FF0008101644A02EB8100211DFEF7A3FF04E08A
:1020000004F118016F48FEF79DFF6949E06A09680D
:10201000C96A884201D3012600E00026304670BD1F
:10202000694909680160664909684160704770B58F
:1020300004460D4600F012F92868401C01D1002624
:102040001FE0614920680968884206D05C496068E1
:102050000968884201D8012613E059496068096877
:10206000081A296888420BD22868554A61681268A4
:10207000511A401A28602046FFF7D2FF002600E0E0
:10208000012600F0F4F8304670BD01204749086091
:1020900070472DE9F041044614B94548006800E056
:1020A000204607463D6B2846FFF774FD064630463E
:1020B000BDE8F0813E490868704770B505462C467A
:1020C0003B49E06A0968C96A88422BD238480068EF
:1020D000C06AC0F10500A061E16A01EB8101294AF3
:1020E00002EB81016069884218D1201DFEF752FF82
:1020F0002F480068C06AE0622F49E06A0968884298
:1021000002D92D49E06A0860E16A01EB81011D4AAC
:1021100002EB8100211DFEF715FF03E02448006853
:10212000C06AE06270BD70B505462C4665B1616C51
:10213000E06A88425CD0201DFEF72CFF606CE062F4
:10214000E06AC0F1050041E052E000002573090992
:102150003009093025250D0A0000000074D407203D
:102160002573090925750909257525250D0A00001E
:1021700025730909257509093C3125250D0A00003B
:10218000A4C10720ACD30720D0C10720D4C10720A9
:102190004CD4072060D40720D8C10720DCC1072019
:1021A000E0C10720C8C10720B0C10720B8C107207F
:1021B00094C10720C4C10720A8C10720CCC10720B3
:1021C000A0C1072038D40720BCC10720A06109495D
:1021D000E06A0968884202D90649E06A0860E16A53
:1021E00001EB8101044A02EB8100211DFEF7AAFEEA
:1021F00070BD0000A8C10720ACD30720001F4FF01E
:1022000080730360001F0160001F00230360143807
:1022100002602038704723484FF0E02148610720D2
:102220000861704710B52048006840F478001E49E6
:1022300008600846006840F078400860FFF7EBFF50
:1022400000201A490860FDF763FF002010BD7047A9
:102250004FF0805014491C390860704710B5FDF7E5
:102260007DFF12480068401C1049086010BD10B581
:102270000E480068401E0D4908600846006808B90D
:10228000FDF773FF10BD10B54FF0805006491C39A3
:1022900008600024FDF762FFFFF7FCF9FDF765FF1A
:1022A00010BD00009F86010020ED00E0040000103A
:1022B0002DE9F04104464FF00008FFF79FFA7F48F0
:1022C000006898B97E497F4A11600021516047F645
:1022D00018117D4A516000211160794847F61811A4
:1022E00041601146016001207449086044B1103416
:1022F00014F0070F04D004F00700C0F108000444F4
:10230000002C31D047F6181084422DD26D4F38463C
:10231000056801E02F462D686868A04202D228684F
:102320000028F7D1684885421ED0386800F11008AF
:10233000286838606868001B202810D92E19686842
:10234000001B70606C6071685E4800E000680268A5
:1023500052688A42FAD302683260066000BF5B4866
:102360000068001B59490860FFF7EBF94046BDE8DB
:10237000F081F0B50025534801680A680B46044611
:102380004EE0486845183EE0954235D148685668A9
:10239000B0420ED24868566830444860086890429F
:1023A00002D1106820601AE0086820601068186088
:1023B00015E048685668B0420ED9486856683044FF
:1023C00048601068884202D10868186007E0086811
:1023D00020601068186002E04FF0FF30F0BD4E68DA
:1023E000384800E0006807687F68B742FAD307689A
:1023F0000F6001600120F1E713461868904201D197
:1024000000BFFEE71A6810680028BDD10C4620689E
:10241000884201D100BFFEE721682A4802680346CE
:1024200008680028ADD100BFD8E708B500200090AB
:10243000FFF714FF00BFFFF79CFF0090009810B15A
:102440000098401CF7D1FFF712FF08BD70B5064693
:10245000FFF7D4F93546A6B1103D2C4661681948FE
:1024600000E00068026852688A42FAD3026822607B
:102470000460164960680968084414490860FFF759
:10248000D4FFFFF75EF970BD1048006870477047D1
:1024900010B502460B48002313800B8000BF148840
:1024A0004368A34201D9838813800B88848823441E
:1024B0000B8000680368002BF1D110BDECC1072030
:1024C000A8010010F0C10720F8C10720E4C10720CF
:1024D0001FB509F0EBFB00210120FEF76DFD2B4934
:1024E00008600846006830B100231A46194627489C
:1024F0000068FEF712FE0020254A0223CDE90120E4
:10250000009303900346C02222A12448FFF717F846
:10251000FFF70FFB002004B010BD2DE9F84307467C
:102520000024A04600263D461EE0285D2E2819D135
:102530000020285505EB08002EF068F8C0B20DF811
:102540000600701CC6B2601C00F0FF08032E09D103
:1025500005EB08002EF05AF8C0B20DF806000098FE
:10256000BDE8F883601CC4B2285D0028DDD1401EA0
:10257000F6E770B5054628462EF048F884B22612D4
:1025800046EA042084B2204670BD000000C2072045
:1025900004C207205553455200000000F33A0000E2
:1025A00010B50446092C42D2DFE804F041050E17AD
:1025B00020292F353B0001202049087000221146B8
:1025C0001FA000F097FF32E001201C490870002294
:1025D000114621A000F08EFF29E001201749087064
:1025E0000022114622A000F085FF20E001201349BF
:1025F00008700022114624A000F07CFF17E00022A2
:10260000114627A000F076FF11E00022114629A014
:1026100000F070FF0BE0002211462BA000F06AFFD3
:1026200005E0002211462EA000F064FF00BF00BFAD
:102630004FF40021012008F083F910BD3AC40720AF
:10264000C4E0F2F7E8EAE83A20EEF8E8E1EAE02050
:10265000EFE0ECFFF2E80000D1EEE1FBF2E8FF3A38
:1026600020EEF8E8E1EAE020EFE0ECFFF2E800001D
:10267000C4E0F2F7E8EAE83A20EEF8E8E1EAE02020
:10268000F4E0E9EBE0000000D1EEE1FBF2E8FF3A14
:1026900020EEF8E8E1EAE020F4E0E9EBE0000000F9
:1026A0004641543A20EEF8E8E1EAE020F4E0E9EBB4
:1026B000E00000004641543A20EEF8E8E1EAE0206C
:1026C000EFE0ECFFF2E80000D2E0E9ECE5F03A20C0
:1026D000EEF8E8E1EAE020F4E0E9EBE000000000D9
:1026E0004155544F47524150483A2066696C652025
:1026F0006572726F72000000FE480078704710B576
:102700000446082C2DD2DFE804F004050E0F18193A
:10271000222300BF012029F05BF94FF080610320E4
:1027200008F00EF91DE000BF022029F051F94FF02A
:102730000071032008F004F913E000BF032029F022
:1027400047F94FF08051012008F0FAF809E000BF86
:10275000042029F03DF94FF00051012008F0F0F875
:1027600000BF00BF10BD10B5044634B1012C08D025
:10277000022C0AD0032C10D10BE0012029F028F9FB
:102780000BE0022029F024F907E0032029F020F9CA
:1027900003E0042029F01CF900BF00BF10BD2DE9A3
:1027A000FF4701E19DF804006F287AD01CDC672800
:1027B0003BD010DC14286AD006DC0D2868D00E2827
:1027C00067D0122822D1D2E0642819D065281ED003
:1027D0006628F7D122E06838072817D2DFE800F032
:1027E0002C333A41484F5A0070380E28F5D2DFE8B2
:1027F00000F05F666D747B828990979EA5ACB3B73D
:10280000BD48006840F00100BB490860CBE0BA4811
:10281000006840F00200B8490860C4E0B6480068AB
:1028200040F00400B4490860BDE0B348006840F0DF
:102830000800B1490860B6E0AF48006840F01000F9
:10284000AD490860AFE0AC48006840F02000AA49FC
:102850000860A8E0A848006840F04000A649086069
:10286000A1E0A548006840F08000A34908609AE014
:10287000A148006820F001009F49086093E09E484D
:10288000006820F002009C4908608CE009E06BE0E1
:1028900070E07AE09848006820F0040096490860EB
:1028A00081E09548006820F00800934908607AE0CC
:1028B0009148006820F010008F49086073E08E484E
:1028C000006820F020008C4908606CE08A480068AD
:1028D00020F040008849086065E08748006820F0E3
:1028E0008000854908605EE08448007840F001007F
:1028F0008249087057E08148007840F002007F4923
:10290000087050E07D48007840F004007B49087072
:1029100049E07A48007840F008007849087042E0C1
:102920007648007820F00100744908703BE0734855
:10293000007820F002007149087034E06F48007898
:1029400020F004006D4908702DE06C48007820F0FC
:1029500008006A49087026E001206949087022E0F1
:102960000020674908701EE016F08EFA1BE028F080
:1029700069FD18E001F0D4FA62480078022803D11A
:102980000299C8B228F0C5FF0DE05F48007880F0DA
:10299000FF005D4908705B480078022802D10020E2
:1029A00028F004FD00BF00BF00231A4601A95748C4
:1029B0000068FEF788FC00287FF4F4AE51480078E8
:1029C00010B15348007808B1BDE8FF87514800684E
:1029D000514908604F4840684860494800780128DC
:1029E0000FD14448007860B928214C482DF06DFC87
:1029F0004BA14A482EF0FAFF00221146474800F04A
:102A000079FD3F4800783B490870002437E00120F9
:102A1000A0403A4909780840002823DD0120A04061
:102A200043490978084229D10121A140C8B229F0BF
:102A30000BF8E0B2FFF797FE0120A0403D4909786E
:102A400008433C490870282134482DF03EFC621CA4
:102A500039A132482EF0CAFF002211462F4800F05B
:102A600049FD0BE00120A0403149097808400028C9
:102A700004DD0121A140C8B228F0ECFF641C042C45
:102A8000C5DB1E4800782A490870002484E0012034
:102A9000A0402749097808427DD034B1012C16D0D6
:102AA000022C53D0032C75D162E01348006820F04B
:102AB0000300114908601748006820F00300154919
:102AC00008600846406840F00300486062E00A4839
:102AD000006820F00C00084908600E48006820F0EB
:102AE0000C000C4908600846406840F00C00486043
:102AF00050E0000013C4072014C4072018C40720A6
:102B000019C4072089C4072010C407204C000010F6
:102B10003AC407201CC4072024C40720C07A001030
:102B2000C4E2E5F0FC20EEF2EAF0FBF2E000000087
:102B300011C4072012C40720D2F0F3E1E02025647D
:102B40003A20EDE5F220F1E2FFE7E800FE480068F8
:102B500020F03000FC490860FC48006820F030009C
:102B6000FA4908600846406840F03000486011E0CB
:102B7000F548006820F0C000F3490860F348006899
:102B800020F0C000F14908600846406840F0C000ED
:102B9000486000BF00BF641C042CFFF678AFEA4811
:102BA000007810F0020F03D0022028F041FF02E06D
:102BB000022028F043FFE448007810F0080F03D00B
:102BC000082028F035FF02E0082028F037FFDE4813
:102BD000007810F0200F03D0202028F029FF02E019
:102BE000202028F02BFFD848007810F0800F03D069
:102BF000802028F01DFF02E0802028F01FFF002425
:102C0000D7E00120A040D049096808426FD0CF48E2
:102C100040680121A14008426AD10121A140C8B207
:102C200028F0FAFEE0B2FFF76AFDC848006801210B
:102C3000A140084275D12821C5482DF046FB082C3B
:102C40002DD2DFE804F004090E13181D2227C1A0BD
:102C50000CF06AFA054622E0BFA00CF065FA0546C2
:102C60001DE0BEA00CF060FA054618E0BCA00CF018
:102C70005BFA054613E0BBA00CF056FA05460EE0E1
:102C8000B9A00CF051FA054609E0B8A00CF04CFAD6
:102C9000054604E0B6A00CF047FA054600BF00BFA9
:102CA00025B9B4A1AA482EF0A1FE6CE0082C2FD2C1
:102CB000DFE804F004090E13181F2429B3A1A44867
:102CC0002EF094FE24E0B7A1A1482EF08FFE1FE065
:102CD000B9A19F482EF08AFE1AE0BDA19C482EF0B3
:102CE00085FE15E0BFA19A482EF080FE10E058E066
:102CF0005EE0C2A196482EF079FE09E0C4A1944896
:102D00002EF074FE04E0C8A191482EF06FFE00BFC3
:102D100000BF0122694628460CF0A2F8082C31D2E7
:102D200000E036E0DFE804F00419051A061B071C72
:102D300000BF00BF00BF00982DF0AEFE07468846DA
:102D400083482DF001FB824900EB01093A464346D6
:102D5000BAA148462EF04AFE14E000BF00BF00BFF3
:102D600000982DF099FE0746884679482DF0ECFA38
:102D7000774900EB01093A464346B3A148462EF095
:102D800035FE00BF00BF00221146714800F0B2FBC3
:102D900000BF6E4801680120A04001436B480160FC
:102DA00006E06A4840680121A140884367494860BD
:102DB000641C082CFFF625AFA64800686349096823
:102DC000884205D1A348406860494968884210D0CC
:102DD000A1A004F0F9FD064600221146304604F099
:102DE0009EFD01225949304604F08AFD304604F028
:102DF000E1FD00BFE8E570B5054697A004F0E4FDED
:102E00000646012D06D0022D2BD0032D50D0042DC7
:102E100026D174E04D48006820F001004B4908605D
:102E20000846006820F0020008600846406840F04C
:102E3000010048600846406840F0020048600120F8
:102E400028F0F0FD022028F0EDFD4FF08061032016
:102E500007F06CFD8248007820F00100804908707E
:102E600003E13A48006820F0040038490860084649
:102E7000006820F0080008600846406840F0040040
:102E800048600846406840F008004860042028F088
:102E9000C9FD082028F0C6FD4FF00071032007F09F
:102EA00045FD6F48007820F002006D490870DCE0B5
:102EB0002648006820F01000244908600846006891
:102EC00020F0200008600846406840F0100048608C
:102ED0000846406840F020004860102028F0A2FD1D
:102EE000202028F09FFD4FF08051012007F01EFDAB
:102EF0005B48007820F0040059490870B5E0134899
:102F0000006820F04000114908600846006820F081
:102F1000800008600846406840F04000486008466D
:102F2000406840F080004860402028F07BFD802011
:102F300028F078FD4FF00051012007F0F7FC4848D9
:102F4000007820F008008DE014C407201CC407207E
:102F5000C07A00105330000053310000533200009B
:102F60005333000053340000533500005336000043
:102F700053370000D1EEE1FBF2E8FF3A20EDE5F235
:102F800020E4E0F2F7E8EAE000000000D2F0F3E12C
:102F9000E020312C20E8E7EEEBFFF6E8FF0D523D94
:102FA00000000000D2F0F3E1E020312C20F1E8E352
:102FB000EDE0EB0D523D0000D2F0F3E1E020322CC9
:102FC00020E8E7EEEBFFF6E8FF0D523D00000000C1
:102FD000D2F0F3E1E020322C20F1E8E3EDE0EB0D5C
:102FE000523D0000D2F0F3E1E020332C20E8E7EE80
:102FF000EBFFF6E8FF0D523D00000000D2F0F3E1D8
:10300000E020332C20F1E8E3EDE0EB0D523D000031
:10301000D2F0F3E1E020342C20E8E7EEEBFFF6E815
:10302000FF0D523D00000000D2F0F3E1E020342C0F
:1030300020F1E8E3EDE0EB0D523D000025302E31AC
:103040006620EACEEC00000025302E316620CEEC62
:103050000000000024C407205341564552000000E0
:1030600012C407207A49087000BF00BF0022114631
:10307000304604F054FC01227649304604F040FC0E
:10308000304604F097FC002410E00120A040704975
:1030900009780840002808DD0121A140C8B228F0C5
:1030A000D3FCE0B2FFF75FFB02E0641C042CECDB16
:1030B00000BF00240EE0674801680120A0400142E3
:1030C00007D0E0B2FFF71BFB0121A140C8B228F0F6
:1030D000A3FC641C082CEEDB70BD27F0DAF800BFFF
:1030E0005D480078012807D128F0D0F901205B491C
:1030F00008700220584908705848007801280BD100
:103100000220564908705448007810B90020FFF793
:1031100072FE012028F04AF9FFF741FB3220FEF74A
:1031200073FBDDE770B50C211E20FDF745FF4C4910
:1031300008604C480CF0ECFA4B480CF0E9FA4B48AC
:103140000CF0E6FA4A480CF0E3FA4A480CF0E0FAD0
:1031500049480CF0DDFA49480CF0DAFA48480CF01E
:10316000D7FA48480CF0D4FA47480CF0D1FA47484F
:103170000CF0CEFA46480CF0CBFA46480CF0C8FAF0
:1031800045480CF0C5FA45480CF0C2FA44480CF02A
:10319000BFFA44480CF0BCFA43480CF0B9FA434873
:1031A0000CF0B6FA42480CF0B3FA42480CF0B0FA10
:1031B00041480CF0ADFA41480CF0AAFA40480CF036
:1031C000A7FA40480CF0A4FA3F480CF0A1FA4FF0DF
:1031D0008061032007F0AAFB4FF00071032007F085
:1031E000A5FB4FF08051012007F0A0FB4FF00051EC
:1031F000012007F09BFB01229106032007F082FBD0
:1032000001225106032007F07DFB01221107104621
:1032100007F078FB01225107104607F073FBAFF26D
:10322000C81004F0D1FB054600221146284604F0E0
:1032300076FB01220749284604F053FB0446284642
:1032400004F0B8FB1CB9002002490860486070BD5A
:1032500012C407201CC407203AC4072089C40720D1
:103260004C00001008C207201CC2072030C20720F3
:1032700044C2072058C207206CC2072080C2072022
:1032800094C20720A8C20720BCC20720D0C20720D2
:10329000E4C20720F8C207200CC3072020C3072080
:1032A00034C3072048C307205CC3072070C307202E
:1032B00084C3072098C30720ACC30720C0C30720DE
:1032C000D4C30720E8C30720FCC3072070B509F06A
:1032D00099FFB8B1FCA00AF0E1F9401C00D170BD23
:1032E000FBA1F9A00AF003F8054605B9F7E728465F
:1032F0002DF08CF90446FF2C01DC002C00DAEEE7FF
:10330000F6490C7000BFEAE72DE9F041002507E01F
:10331000F348F44941F8350001EBC50148606D1CE4
:10332000042DF5DB09F06EFF00287DD0EEA00AF039
:10333000B5F9401C0DD0EDA1EBA009F0D8FF044673
:103340003CB1E01C2FF000F806462DF0E1FBE5490A
:103350000860E7A00AF0A2F9401C0DD0E3A1E5A0A7
:1033600009F0C5FF04463CB1E01C2EF0EDFF064617
:103370002DF0CEFBDB494860DEA00AF08FF9401C3F
:103380000DD0DAA1DCA009F0B2FF04463CB1E01C8C
:103390002EF0DAFF06462DF0BBFBD2498860D7A09D
:1033A0000AF07CF9401C0DD0D0A1D5A009F09FFFF8
:1033B00004463CB1E01C2EF0C7FF06462DF0A8FBEA
:1033C000C849C860CCA00AF069F9401C0DD0C7A15B
:1033D000CCA009F08CFF04463CB1E01C2EF0B4FFF9
:1033E00006462DF095FBBF490861C7A00AF056F9C3
:1033F000401C0DD0BDA1C5A009F079FF04463CB129
:10340000E01C2EF0A1FF06462DF082FBB549486175
:10341000BBA00AF043F9401C0FD0B4A1BCA009F036
:1034200066FF04464CB100E01AE0E01C2EF08CFF71
:1034300006462DF06DFBAB498861B6A00AF02EF967
:10344000401C0DD0A9A1B4A009F051FF04463CB125
:10345000E01C2EF079FF06462DF05AFBA149C86109
:10346000BDE8F081024619B99E4850F83200704715
:103470009C4800EBC2004068F9E710B5FEF7BEF9C2
:10348000A6A009F0D2FE002000F0A8FE00F06FFE1A
:1034900000F052FE0AF088FB26F0B9F9A4A009F06A
:1034A000C4FE0CF0EFFC0CF005FCFFF72DFF0AF05A
:1034B0007BFB26F0ACF999A009F0B7FE15F018FDDA
:1034C0000AF072FB26F0A3F906F06EFEFEF739F95A
:1034D00010BD10B59B48FDF793FA9B48FDF790FA95
:1034E0009A48FDF78DFA9A48FDF78AFA99A0FDF7F8
:1034F0009CFB10BD70B504460D4616463246294663
:10350000204628F0BEFF70BD1CB505460020019086
:1035100000260090284604F057FA04469048C0F868
:103520001041904A0021204604F035FA002204217F
:10353000204604F030FA00BF01AAD421204604F04E
:103540002AFA9DF80400B0B16A466321844826F047
:1035500050FD06469DF8000040B163239DF8002011
:10356000711C7F4826F09EFC002000900022C8219C
:10357000204604F010FA4FF4FA70FEF745F9DBE745
:1035800010B50020784908604FF49670486001201B
:10359000087276A1744809302CF0F8FE00207249B8
:1035A00088614FF496717048C161012180F8201044
:1035B00071A121302CF0EAFE00206B4908634FF422
:1035C000967169484163002180F838106DA1393047
:1035D0002CF0DCFE10BD08B504210320FDF7ECFC47
:1035E0006B49086000235A1E694669480068FDF768
:1035F0006AFE00221146009828F043FF65A004F0FF
:10360000E3F900BFFEE71FB501229105104607F060
:1036100079F90122D104104607F074F90122402102
:10362000002007F06FF94FF40021012007F07EF928
:103630002021022007F084F904F0D4F80BF0D8F927
:103640000BF005FC55A009F0F0FD0BF088FD0AF029
:10365000ABFA37A009F0E9FDFFF764FDFFF754FE70
:103660000CF028FB0AF0A0FA2CA009F0DEFD00F017
:103670007EFD00F061FDFFF729FE29F03AF926F002
:10368000C5F829F069F806F08FFD00F098FC00F00D
:103690002BFD2CF068F915F02BFC0AF085FA0020C0
:1036A000434A0123CDE90120009303900346802281
:1036B00040A14348FDF743FF3D48006810B9002290
:1036C00011467FE085E00000444953504C415900C9
:1036D000436F6E74726173740000000039C4072078
:1036E000000080BF08D6072030000000436F6E0046
:1036F0003100000032000000340000003300000000
:1037000036000000380000003500000031300000B5
:103710003132000037000000313400002F61743472
:103720003564622F444556434F4E2E696E69000042
:103730002F6174343564622F4556454E54532E69BB
:103740006E69000060C00720C0C0072008C00720C5
:1037500030C107202F6174343564622F00000000EF
:1037600028D607203CC407204C2A08207461736BBC
:10377000205520696E7600007461736B204D2069BE
:103780006E7600007461736B205220696E760000C3
:1037900040C4072053535030000000002F617434A0
:1037A0003564622F53454E534F52532E696E690054
:1037B00078C4072055617274436F6E74726F6C0029
:1037C00009000300EAA0FFF795FEEFA0FCF7E6FC76
:1037D00005E00C210A20FDF7EFFBF149086000200D
:1037E00015F094FC0020EF4A0123CDE9012000935D
:1037F00003900346C022ECA1ED48FDF7A0FEE94886
:10380000006838B900221146EAA0FFF773FEEEA067
:10381000FCF7C4FC01200023C022F0A10090F04876
:1038200011F092FAEF4908600846006838B90022A2
:103830001146EDA0FFF75EFEEFA0FCF7AFFC002005
:10384000F14A0123CDE90120009303900346D022E1
:10385000EEA1F048FDF773FEEB48006838B900228E
:103860001146EDA0FFF746FEF0A0FCF797FC002004
:10387000F34A0123CDE90120009303900346C022BF
:10388000F0A1F248FDF75BFEED48006838B9002270
:103890001146EFA0FFF72EFEF2A0FCF77FFC002000
:1038A000F54A0123CDE90120009303900346C0228D
:1038B000F2A1F448FDF743FEEF48006838B9002252
:1038C0001146F1A0FFF716FEF4A0FCF767FC0020FC
:1038D000F74A0623CDE901200093039003464022D6
:1038E000F4A1AFF20D30FDF72AFEF148006838B9B7
:1038F00000221146F1A0FFF7FDFDF0A0FCF74EFC01
:10390000FFF73EFE00F04BFC01281AD10020EF4AE1
:103910000123CDE901200093039003468022ECA10E
:10392000AFF21B40FDF70BFEAFF22340002820D181
:1039300000221146E7A0FFF7DDFDE0A0FCF72EFC1A
:1039400017E00020E74A0123CDE90120009303900E
:10395000E54B8022E5A1E748FDF7F1FDE14800686D
:1039600038B900221146E4A0FFF7C4FDD3A0FCF74C
:1039700015FC1FBD7CB504460D4600200190009546
:103980000121E24880F838103CB900231A46694604
:10399000DF480068FDF7C1FB06E0002301AA694685
:1039A000DB480068FDF741FC7CBD10B542F21070A9
:1039B000FDF72AFFD7A10020FFF7DCFF42F21070CD
:1039C000FDF722FF10BD3EB500235A1E6946D448BC
:1039D0000068FDF778FC00B93EBD9DF800000F2897
:1039E0001BD006DC01281BD0092829D00C2831D196
:1039F0002DE0102804D0132828D018282AD122E03E
:103A0000C8A003F0E1FF04460022C821204603F0CD
:103A1000C2FF204603F0CEFF1DE006F07EF91AE05B
:103A20000BF0D2FD0CF013F8C148007838B1C14852
:103A3000007820B90120C0490860FEF7B0FE0AE016
:103A4000FFF7B3FF07E0FFF718FD04E003E0FCF722
:103A500093FB00E000BF00BF00BFBDE710B5B74853
:103A6000007810F0080F0BD000221146B4A0FFF729
:103A700041FDB248007840F00800BA4981F8800161
:103A8000AE48007810F0040F0BD000221146B6A00B
:103A9000FFF730FDA948007840F00400B14981F8F3
:103AA0008001A648007810F0020F0BD000221146CA
:103AB000B6A0FFF71FFDA148007840F00200A94919
:103AC00081F880014FF000024FF008014FF0020032
:103AD00006F018FF022006F03DFF10F0080F07D097
:103AE0000020B549087000221146B4A0FFF702FD7E
:103AF00010BD0C213220FDF75FFA894908600846A5
:103B00000068B4490860FFF77EFD06F006F9FFF78C
:103B1000A5FF00BFFFF757FF00207C490860F9E7C9
:103B2000FEB504460D4617461E468DF80040019529
:103B3000ADF8087000233246694679480068FDF701
:103B4000ECFAFEBD10B5A448006840B14FF4800106
:103B5000012006F0EBFE00209F49086007E04FF4CB
:103B60008001012006F0ECFE01209B49086010BD99
:103B7000CEF8E8E1EAE02055617274436F6E74722A
:103B80006F6C207461736B0055617274436F6E7457
:103B9000726F6C5F5441534B204552524F520A0092
:103BA00034C40720980100104D4F44454D000000DB
:103BB00077F602004D4F44454D5F5441534B20452D
:103BC00052524F52000000004D4F44454D5F54414A
:103BD000534B204552524F520A00000046545000A9
:103BE000354D010060C40720CEF8E8E1EAE0204648
:103BF0005450207461736B004654505F5441534BD2
:103C0000204552524F520A0064C407204854545071
:103C100000000000D5680100CEF8E8E1EAE02048A5
:103C2000545450207461736B000000004854545089
:103C30005F5441534B204552524F520A000000003E
:103C400068C4072054656C6E65740000CB87010062
:103C5000CEF8E8E1EAE02054656C6E65742074618A
:103C6000736B000054656C6E65745F5441534B2058
:103C70004552524F520A00006CC407204576656ECB
:103C800074000000DB3000004576656E745F5441BF
:103C9000534B204552524F52000000004576656E4E
:103CA000745F5441534B204552524F520A0000005A
:103CB00080C407205245534554000000424F445FE2
:103CC0005441534B204552524F520A007CC40720A6
:103CD0004D424300CEF8E8E1EAE0204D4243207433
:103CE00061736B0074C407203CC407204D425F54CD
:103CF00043500000779D0200CEF8E8E1EAE0204D55
:103D000042544350207461736B0000004C2A082019
:103D100040C40720534D53205245534554000000E2
:103D200084C40720444953435245544500000000D1
:103D300089C407203AC4072044C4072080C10F402B
:103D4000D3F1F2F0EEE9F1F2E2EE20E2EAEBFEF777
:103D5000E5EDEE0DEFEEF1EBE520504F574552202B
:103D60004F46460000C00F40D3F1F2F0EEE9F1F209
:103D7000E2EE20E2EAEBFEF7E5EDEE0DEFEEF1EB21
:103D8000E52057445420524553455400D3F1F2F0F6
:103D9000EEE9F1F2E2EE20E2EAEBFEF7E5EDEE0D00
:103DA000EFEEF1EBE52045585445524E414C205280
:103DB000455345540000000038C4072053494D2D99
:103DC000EAE0F0F2E020EEF2F1F3F2F1F2E2F3E5F4
:103DD000F20000008CC407204CC4072010B5044634
:103DE000022C0BD100221146AFF2686028F049FB8B
:103DF000AFF2606003F0E8FD00BFFEE704EB4400B3
:103E00003F4A02EBC00000F109010020FFF7B2FDBC
:103E100010BD10B5002400BF16E004EB4400384983
:103E200001EBC000007A70B104EB440051F830009F
:103E300004EB4401324A02EBC1014968884202D9CD
:103E40002046FFF7CBFF641C032CE6DB10BD10B54A
:103E5000022006F07FFD10F0080F0DD029480078F1
:103E6000012809D100202749087000221146AFF22D
:103E7000B400FFF73FFB10E0022006F06BFD10F0EE
:103E8000080F0AD11F48007838B901201D49087071
:103E9000002211461CA0FFF72DFB10BD10B54FF4FA
:103EA00000201E49886020211C48C1600A2101743D
:103EB000012141740021416181614FF40221C161FE
:103EC0004021016280F82410002180F825108162D1
:103ED000C1624FF406210163202141630A2180F869
:103EE0003810012180F839100021C16301640024D9
:103EF00003E0E0B205F068FA641C032CF9DB10BDA6
:103F00004C2A082038C4072053494D2DEAE0F0F22E
:103F1000E020E2F1F2E0E2EBE5EDE000A8DF0720CF
:103F2000002038498860704710B509F06BF9002807
:103F300041D035A136A009F0DAF904463CB94EF675
:103F40006020354948600720FEF72AFB0FE0204635
:103F50002CF069FB304948600846406844F620610F
:103F6000884202D208462C4948602B4840682BA161
:103F700027A009F0BCF9044634B92948294948600A
:103F80000720FEF70DFB19E020462CF04CFB2549DD
:103F90004860084640684EF66021884202D20846D2
:103FA000204948601F4840681F49884206D9084692
:103FB0001C49486002E00020FEF7F2FA10BD10B57F
:103FC0001A4825F0B5FB1A4825F0B2FB194825F030
:103FD000AFFB194825F0ACFB184825F0A9FB0948B0
:103FE00025F0A6FB0F4825F0A3FB154825F0A0FB04
:103FF000094825F09DFB134825F09AFBFFF794FF35
:1040000010BD000050C5072050696E670000000019
:1040100054494D455253000090C50720536D73001D
:10402000E093040070C5072080EE360090C407209E
:10403000D0C40720F0C4072030C5072010C50720D2
:10404000B0C40720B0C5072030B50246002009E003
:10405000135C0C1A641E145D14540C1A641E135560
:10406000441CE0B201EBD175B0EB650FF0DB30BD65
:1040700001B504216846FFF7E7FF009808BD01B5C8
:1040800004216846FFF7E0FF009808BD01B5022152
:104090006846FFF7D9FFBDF8000008BD2DE9F041E3
:1040A00004460D4616461F463E4800688000B4EBA5
:1040B000500F17D260193B4909688900B0EB510FC6
:1040C0000ED86A003848006800EB440130462CF0F6
:1040D000E3F8022000EB450038700020BDE8F081D5
:1040E0000320FBE70220F9E710B50BF092FA2D4907
:1040F000086009688800FEF7DBF82B49086010BDEE
:1041000038B50BF091FA044604B938BD00250FE02C
:104110000122694620460AF0A3FE0098FFF7A8FF97
:1041200029466D1C204A126842F82100D4F8054047
:10413000002CEDD100BFE8E710B509F063F8A0B19D
:104140001AA009F0ABFA401C00D110BD1AA117A0AB
:1041500009F0CDF8044604B9F7E719A120462CF080
:10416000FAF810B901201749086000BFEDE710B553
:1041700009F048F888B114A009F090FA401C00D169
:1041800010BD13A110A009F0B2F8044604B9F7E776
:104190002046FEF7EEF91049086000BFF0E7094835
:1041A00000687047D8C50720D4C507204D425F433B
:1041B0006C69656E740000004D6574686F64000082
:1041C000434F4D00D0C50720494E464F0000000028
:1041D000506F7274000000003CC407202DE9F041CC
:1041E000054609F00FF8002872D005BBFAA1FBA024
:1041F00009F07DF804461CB90020FEF7D1F91BE058
:1042000020462CF003FAF74981F8EF00084690F8B1
:10421000EF00012802D181F8EF000DE0F14890F89D
:10422000EF00022804D10120EE4981F8EF0003E0FD
:104230000120EC4981F8EF00EA4890F8EF000128EE
:1042400005D1E9A1E5A009F052F8044604E0E9A18E
:10425000E2A009F04CF804461CB90020FEF7A0F9D2
:1042600004E02146DF48801C2CF090F8E4A1DBA09C
:1042700009F03DF8044644B120462CF065F820B121
:1042800020462CF061F8132803D90020FEF788F9A6
:1042900004E02146D348BC302CF078F8D14890F89F
:1042A000EF00012805D1D9A1CCA009F020F80446DF
:1042B00004E0DAA1C9A009F01AF804464CB90020BC
:1042C000FEF76EF9D9A1C7480C302CF05FF811E069
:1042D000DBE0A07C222808D1E07C222805D1D3A1F4
:1042E000C0480C302CF052F804E02146BD480C3098
:1042F0002CF04CF8BB4890F8EF00012805D1D1A173
:10430000B6A008F0F4FF044604E0D0A1B3A008F082
:10431000EEFF044624B90020B24981F83E000DE0CA
:1043200020462CF011F820B90020AE4981F83E005B
:1043300004E02146AB483E302CF028F8A94890F81C
:10434000EF00012805D1C3A1A4A008F0D0FF0446C6
:1043500004E0C3A1A1A008F0CAFF044624B90020CC
:10436000A04981F870000DE020462BF0EDFF20B948
:1043700000209C4981F8700004E021469948703083
:104380002CF004F8974890F8EF00012805D1B7A168
:1043900092A008F0ACFF044604E0B6A18FA008F09C
:1043A000A6FF04461CB90020FEF7FAF80BE02078BF
:1043B000302804D100208B4981F8B60003E00120A9
:1043C000884981F8B600ADA184A008F090FF0446AA
:1043D0001CB90020FEF7E4F805E020462CF016F9A1
:1043E000804981F8EE00A7A17CA008F080FF044678
:1043F00054B120462BF0A8FF0F2805D10F222146EB
:104400007848DE302BF048FF764890F8EF0001281E
:1044100005D19EA171A008F06AFF044604E09DA1A9
:104420006EA008F064FF04461CB90020FEF7B8F83F
:1044300004E021466B48B7302BF0A8FF97A167A096
:1044400008F055FF044624B90020664981F8F000C1
:1044500005E020462CF0DAF8624981F8F00091A1DD
:104460005EA008F044FF04462CB94FF082405D493D
:10447000C1F8F2000CE020462DF066FF06462CF055
:1044800047FB5849C1F8F20002E00020FEF788F827
:10449000BDE8F08110B500208449087040218448AF
:1044A0002BF013FF00208349087083490870022015
:1044B0008249087010BD10B500224FF4005102204F
:1044C00006F020FA03220D21022006F00BFC012247
:1044D000D106104606F016FA4FF00061012006F0F2
:1044E0002FFA01221021022006F00CFA10210220DE
:1044F00006F01CFAFFF7CEFF71A008F096FE002030
:10450000FFF76CFE09F050FB72A0FBF747FE00209E
:1045100010BD10B573A003F057FA04464CB973A050
:10452000FBF73CFE0122002177A0FEF7E3FF00200D
:1045300010BD7C4804607C48007818B901207A4995
:10454000087002E079A0FBF729FE7748F0E770B524
:104550000446A568286803F02DFA734800780128FE
:1045600003D100207049087002E074A0FBF716FE2A
:1045700070BD2DE9F04106460F461446F568002C43
:104580001BDB214638462BF0A0FEB5F80A0120447B
:10459000B42803DDB5F80A01C0F1B404B5F80A0186
:1045A0004119224638462BF077FEB5F80A0120441F
:1045B000A5F80A012046BDE8F0810020FBE710B510
:1045C00004460B46E16822B1012A03D0022A02D137
:1045D000D4E0BBE0C3E0DCE053696D004D4F4445DF
:1045E0004D000000E0C507204469616C4E756D5FA9
:1045F000310000004469616C4E756D5F320000004F
:104600004F776E4E756D557373640000496E697413
:10461000537472696E675F3100000000496E6974FF
:10462000537472696E675F320000000041542B437F
:104630004744434F4E543D312C224950222C226195
:10464000626322004C6F67696E5F31004C6F67696F
:104650006E5F320050617373776F72645F31000078
:1046600050617373776F72645F32000050696E45FA
:104670006E5F310050696E456E5F320053796E6334
:1046800000000000494D45490000000050696E5F80
:104690003100000050696E5F32000000526F616DA2
:1046A000696E67004578506F7700000014C70720D7
:1046B0003CD707202DC707202EC7072001C707209A
:1046C0002F6174343564622F444556434F4E2E6932
:1046D0006E6900004D4F44454D204372656174651D
:1046E000640A000055415254330000004D4F4445C8
:1046F0004D3A20756E61626C6520746F206F706535
:104700006E20554152540A004D4F44454D3A207594
:104710006E61626C6520746F206F70656E2055410C
:1047200052540000DCC50720F0C607204D4F444519
:104730004D2052455F4F50454E0A00004D4F4445B5
:104740004D2052455F434C4F53450A00B42B02D2D3
:10475000A1F80A3102E00020A1F80A011EE0B1F838
:104760000A011844B42805D2B1F80A011844A1F886
:104770000A0102E00020A1F80A010FE0B42B04D2E4
:10478000C3F1B400A1F80A0102E00020A1F80A0177
:1047900004E00020A1F80A01401E10BD00BFB1F8DE
:1047A0000A01FAE72DE9F04706460F461546F46878
:1047B000002D7DDB294638462BF087FDB4F80C012F
:1047C0002844912803DDB4F80C01C0F191050023C1
:1047D0004FF47A721946FE480068FCF774FD012810
:1047E00066D12278FBA1FD482DF000F9FCA1FB4821
:1047F000C01C2BF0CBFD6278F6A1F84809302DF0F3
:10480000F5F8F9A1F5480C302BF0C0FDA11CF348D8
:1048100012302BF0BBFDA01C2BF096FDC0F10A0856
:10482000A01C2BF091FD1230EC4900EB0109202275
:10483000414648462BF042FDEDA1E8481C302BF0E4
:10484000A5FD04F10C01E54826302BF09FFDA01CCE
:104850002BF07AFDC0F1320804F10C002BF074FD4E
:104860002630DE4900EB01092022414648462BF064
:1048700025FDE2A1D94858302BF088FD04F13E0116
:10488000D6485F302BF082FDA01C2BF05DFDC0F1FF
:104890000A0804F13E002BF057FD5F30CF4900EBD2
:1048A00001092022414648462BF008FDD5A100E031
:1048B0004EE0CA4869302BF069FD04F17001C74829
:1048C00071302BF063FDA01C2BF03EFDC0F10A08F7
:1048D00004F170002BF038FD7130C04900EB010984
:1048E0002022414648462BF0E9FCC9A1BB487B3059
:1048F0002BF04CFD94F8B620B6A1B84886302DF0C8
:1049000075F8C6A1B54889302BF040FD04F1B70118
:10491000B24891302BF03AFDC3A1B04895302BF04E
:1049200035FDB4F80C01AD4A81182A4638462BF003
:10493000B3FC00231A461946A5480068FCF7EDFBB6
:10494000B4F80C012844A4F80C012846BDE8F0870F
:104950000020FBE710B504460B46E16822B1012AAE
:104960000BD0022A23D117E0912B02D2A1F80C31EF
:1049700002E00020A1F80C011DE0B1F80C01184480
:10498000912805D2B1F80C011844A1F80C0102E0FD
:104990000020A1F80C010EE0912B04D2C3F191008C
:1049A000A1F80C0102E00020A1F80C0103E00020B6
:1049B000A1F80C0110BD00BFB1F80C01FAE70346E5
:1049C0004FF0FF3070472DE9F04106460F4615467F
:1049D000F468002D17DBB4F80A012844B42803DD7D
:1049E000B4F80A01C0F1B405B4F80A1108192A464E
:1049F00039462BF051FCB4F80A012844A4F80A0106
:104A00002846BDE8F0810020FBE710B5022005F044
:104A1000A1FF10F4005F00D110BD4FF00061012034
:104A200005F084FF40F6C410FCF7EEFE4FF0006185
:104A3000012005F085FF40F6B830FCF7E5FE00BF29
:104A4000EAE710B500207A490870402179482BF038
:104A50003CFC10BD10B5044675480078402808DAC3
:104A6000734801780078401C714A107071484454B2
:104A700001E0FFF7E6FF70480078002828D06F4873
:104A800001686C482BF067FC98B96A496CA0FBF789
:104A9000B6FB0020684908706D4908806D480078B1
:104AA00038B100206B4908700D206B490870FFF782
:104AB000C8FF6848007858B168A15E482BF04BFCED
:104AC00030B900205C49087061490880FFF7B9FFE0
:104AD000062265A157482BF04CFC10B902205E4914
:104AE00008700D2C01D00A2C01D1FFF7AAFF10BDD0
:104AF00070B50446002520462BF026FC06465C498E
:104B000032460868214602F0FBFE054620462BF09F
:104B10001BFCA84203D1214656A0FBF770FB70BDD9
:104B200010B55948007805281DD2DFE800F0031DB4
:104B300037CCF1000020474908703F4908705349BD
:104B4000087053A03D49086052A0FFF7D1FF4FF411
:104B500096703F4908800120374908704A4800781C
:104B6000401C49490870DFE033480078012803D130
:104B7000022039490870D7E043480078401C424978
:104B8000087043A02D49086043A0FFF7B1FF6420DF
:104B90002F490880012028490870C5E02648007880
:104BA000012803D102202C490870BDE03648007866
:104BB000401C354908703BA0204908603DA0FFF724
:104BC00097FF64202249088001201B49087077E084
:104BD00000C2072025336C7500000000D8D40720E0
:104BE000205369673B0A000020436F6E3B0A0000B8
:104BF000204469616C4E756D3B0A0000204750529D
:104C0000533B0A00204C6F67696E3B0A00000000AE
:104C10002050617373776F72643B0A002050696E95
:104C2000456E3B0A000000002050696E3B0A000000
:104C300014C707203CD707202DC7072020C707200F
:104C40004D6F64656D207265706C793A2025730034
:104C500024C707202EC7072001C707204E4F204337
:104C60004152524945520D004552524F520D0000DB
:104C7000DCC507204D6F64656D2073656E64733A03
:104C80002025730D0A00000002C7072031C7072046
:104C90004F4B0D002B2B2B0041542B4347524547C4
:104CA0003D310D002B43475245473A20302C310D02
:104CB0000000000041542B43475245473F0D000080
:104CC000F449087030E0F4480078012803D102204C
:104CD000F249087028E0EF480078012803D1062047
:104CE000EE49087020E0EE480078401CEC4908705E
:104CF000ECA0EF490860EFA0FFF7FAFE6420EF494F
:104D000008800120E4490870ED4908700CE0FFE7D5
:104D1000E1480078012803D10220E049087003E04F
:104D20000D20DE49087000BF00BF10BD10B5DC4883
:104D3000007830B1012824D002283BD0032861D16B
:104D400054E00020DE490870DE490870D24908703E
:104D5000AFF2C400D64908604FF4FA70D749088012
:104D60000120CD490870CE480078401CCC4908701D
:104D7000AFF2E000FFF7BCFE4FF47A70FCF744FDA1
:104D800040E0C5480078012803D10C20C3490870D1
:104D900038E0C3480078401CC1490870CAA0FFF73A
:104DA000A7FE6420C54908800120BB490870C54999
:104DB000087027E0B8480078012803D10220B749DD
:104DC00008701FE0B6480078401CB5490870B5A0CF
:104DD000B7490860B7A0FFF78BFE6420B749088089
:104DE0000120AD490870B64908700BE0AA48007868
:104DF000012803D10220A949087003E00C20A7492B
:104E0000087000BF00BF10BD10B5A5480078062887
:104E100019D2DFE800F0031931527A9D0020A84929
:104E20000870AFF29410A2490860A9A0FFF760FED5
:104E30009B480078401C9A49087064209F4908806C
:104E40000120954908708FE093480078012803D12C
:104E500002209249087087E091480078401C9049F0
:104E600008709DA0FFF744FE4FF4967093490880A8
:104E700001208949087077E087480078012803D12C
:104E80000220864908706FE085480078401C8449FC
:104E9000087093A0FFF72CFE96480068FFF728FEE5
:104EA00095A0FFF725FE95A0FFF722FE6420FCF7F2
:104EB000ABFC01207849087056E07748007801285B
:104EC00003D10220754908704EE08DA0FFF710FE57
:104ED0008C480068FFF70CFE88A0FFF709FE4FF42E
:104EE0007A70FCF791FC6FA07149086040F6B83009
:104EF0007249088001206849087071490870684843
:104F00000078401C664908702EE06348007801284C
:104F100003D102206149087026E069480078B0B1E9
:104F2000002067490870AFF29820614908605C482A
:104F30000078401C5A49087073A0FFF7D9FD4FF460
:104F400096705E4908800120534908700CE00BE020
:104F500051480078012803D102205049087003E02D
:104F600001204E49087000BF00BF10BD10B54C486D
:104F700000780A2821D2DFE800F005213C5A7CF6AF
:104F8000F5F4F38C00204E490870614908706149BE
:104F900008706149087042480078401C4049087018
:104FA0004DA0FFF7A5FDAFF218304149086064201D
:104FB0004249088001203849087096E13648007857
:104FC000012803D10220354908708EE1AFF240304C
:104FD0003749086032480078401C314908704FA0BA
:104FE000FFF786FD64203549088001202A490870B2
:104FF0007BE129480078012803D102202749087065
:1050000073E149A02A49086025480078401C2449DA
:10501000087049A0FFF76CFD4FF4FA70FCF7F4FB41
:1050200064202649088001201B4908705DE11A4868
:105030000078012803D103201849087055E1184869
:105040000078401C164908703EA01949086041A02C
:10505000FFF74EFD4FF47A70FCF7D6FB642017493A
:10506000088001200C4908702949087029490870F6
:105070003BE109480078012803D102200749087064
:1050800033E12348007801286FD1032003490870D9
:105090002BE121E131C707202DC7072001C70720D9
:1050A00002C70720434F4E4E4543540D00000000F9
:1050B00020C7072041544F0D0000000024C70720DF
:1050C0002EC707202FC7072041542B4353510D00F3
:1050D00041545A0D000000004154453056310D0036
:1050E00041542B434744434F4E543D312C224950A9
:1050F000222C22001CC70720220000000D00000007
:105100004154440018C707204154480D00000000D6
:1051100030C7072032C7072033C7072041542B432D
:105120004D45453D310D00002B43534D494E533AFB
:1051300020302C310D00000041542B43534D494E7B
:10514000533F0D002B4350494E3A2052454144599C
:105150000D00000041542B4350494E3F0D0000000C
:105160009DE081E063E03FE0FFE7FE480078401CFF
:10517000FC490870FC48007840B3AFF2EC40FB49B2
:105180000860FB480078E8B1FAA0FFF7B1FC6420A2
:10519000FCF73AFBFA480068FFF7AAFC6420FCF72A
:1051A00033FBAFF2A800FFF7A3FC4FF4FA60FCF763
:1051B0002BFB6420F34908800120F3490870EA4979
:1051C000087010E00420F14908708EE0AFF2405002
:1051D000E6490860EEA0FFF78BFC6420E9490880EF
:1051E0000120E949087080E0E7480078012803D1F0
:1051F0000220E649087078E0DB480078012803D1F6
:105200000420E249087070E0D6480078401CD54977
:105210000870AFF28450D5490860DDA0FFF768FC44
:105220006420D84908800120D74908705DE0D6483D
:105230000078012803D10220D449087055E0C948FC
:105240000078401CC7490870D2A0C8490860D4A0A3
:10525000FFF74EFC4FF47A70FCF7D6FA0120CA49EA
:105260000870D249087040E0C7480078012803D18F
:105270000220C649087038E0BA480078401CB94995
:105280000870AFF2F450B9490860C9A0FFF730FCCC
:105290006420BC4908800120BB49087025E0BA4859
:1052A0000078012803D10220B84908701DE0AD48FC
:1052B0000078401CAB490870AFF22C60AB49086025
:1052C000BDA0FFF715FC6420AE4908800120AE495F
:1052D0000870BD49087008E0AB480078012803D188
:1052E0000220AA49087000E000BF00BF10BD10B541
:1052F00004461E20FCF788FAA44800780E2818D22D
:10530000DFE800F0071708170B0A1717110E14171C
:10531000170900BF00BF0CE000BFFFF727FE08E041
:10532000FFF772FD05E0FFF701FD02E0FFF7F8FB74
:1053300000BF00BF10BD2DE9FC4104460025002040
:105340000090A668E768B81CA04908600A30A04928
:10535000086009208D49087000208249087000BF4C
:105360000020FFF7C4FF6420FCF74EFA6A46CC2108
:10537000306802F010FB17E0012201A9306802F04A
:10538000B0FA9DF8041093A0FAF739FF9DF80400D5
:10539000FFF760FB7D4800780D2800D107E06A46E2
:1053A000CC21306802F0F7FA00980028E4D100BF61
:1053B000764800780D2811D1002505E000218648A7
:1053C00000EB850001606D1C052DF7DB0122022139
:1053D00082A0FEF78FF80020BDE8FC816B480078C2
:1053E000022809D10122022180A0FEF783F8824819
:1053F000FCF70AFA0020EFE7644800780128AFD1F3
:10540000012202217DA0FEF775F87B48FCF7FCF92C
:105410000020E1E710B504467C4800783C2808DA13
:105420007A4801780078401C784A107078484454D3
:1054300004E0FFF706FB4FF0FF3010BD4B4801685A
:1054400073482AF088FF28B1AFF2F07170482AF053
:1054500082FF18B9FFF7F5FA0020EEE70622AFF257
:10546000F8716B482AF085FF10B90220474908708F
:105470000D2C01D00A2C01D1FFF7E3FA4FF0FF30D9
:10548000DBE72DE9FE4380460D4616464FF0FF3719
:105490000020029001905F4C34480560019602AAFA
:1054A000D721206802F077FA01AAD621206802F0FD
:1054B00072FA0022D321206802F06DFAFFF7C1FAD8
:1054C0000022D321206802F066FA4046FFF710FB65
:1054D00006E09DF80000FFF79DFF074607B906E0CC
:1054E00001226946206802F0FCF90028F1D100BFD2
:1054F00002AAD621206802F04EFA3846BDE8FE83A3
:10550000224800780D2807D0204800780B2803D0C7
:105510001E4800780C2801D1012070470020FCE7CC
:1055200010B51A480078042800D110BDFFF7E8FF35
:10553000002816D1374C6420FCF766F90022D321ED
:10554000206802F028FA43F69822AFF2A841AFF2A1
:105550009C40FFF796FF18B92F4800780B495DE093
:105560005EE06AE002C7072032C7072020C7072095
:105570002CC7072041542B4350494E3D00000000EA
:1055800028C7072024C707202DC7072001C70720E9
:1055900041540D002B435245473A20302C310D0029
:1055A00041542B435245473F0D00000033C70720AD
:1055B00041542644310D000041542B434D49433D95
:1055C000302C31350D0000002EC7072018C70720EA
:1055D0001CC7072025630000D6C60720475052533A
:1055E00020434F4E4E454354000000004D4F44456C
:1055F0004D204552524F5200C0D401004D4F4445FA
:105600004D20504F574552204F4E000014C70720E1
:105610003CD70720DCC5072003C7072008700BE034
:10562000F64800780C2802D10220F54908700022C3
:105630000221F4A0FDF75EFF00BF00BF75E710B5C3
:10564000FE4CEF480078042801D1002010BDFFF780
:1056500057FF012821D1EA4800780C2801D0012009
:10566000F4E7E7480078E54908706420FCF7CCF8D7
:105670000022D321206802F08EF94FF4FA62AFF6CF
:10568000F011AFF6F010FFF7FCFE20B90F20DC4957
:1056900008700020DAE70120D8E70020D6E7F0B54F
:1056A00087B00025E54FFFF72BFF0446D44800786C
:1056B000042802D1401F07B0F0BDE14890F8EE0089
:1056C00008B90020F7E764B1CD4800780C2802D073
:1056D0004FF0FF30EFE7FFF7B2FF012801D1801E46
:1056E000E9E74FF4FA72D7A1D9A0FFF7CAFE28B1B3
:1056F0000CB1FFF715FF4FF0FF30DCE719226946C8
:10570000386802F0EEF80546142D05DA0CB1FFF703
:1057100007FF4FF0FF30CEE700208DF8180000267D
:10572000CEA002F051F906462EB90CB1FFF7F8FEF3
:105730004FF0FF30BFE76A460C21304602F02BF9EC
:105740000546304602F036F90CB1FFF7E9FE28466F
:10575000B1E72DE9F04106460C46FFF7D1FE0546BC
:10576000A7480078042802D1401FBDE8F08165B148
:10577000A34800780C2802D04FF0FF30F5E7FFF780
:105780005EFF012801D1801EEFE7AC4FB5A0FFF707
:10579000AFF93046FFF7ACF9C820FCF735F841F215
:1057A0007072B2A1AFF20020FFF76BFE28B10DB10D
:1057B000FFF7B6FE4FF0FF30D7E7214630462AF01C
:1057C00084FD22463146386802F08BF884B20DB170
:1057D000FFF7A6FE2046C8E770B5002400258848DC
:1057E0000078042801D1401F70BD9549BC31A14803
:1057F0002AF0CCFD40219F48FFF7ABFF0546681C0F
:1058000001D1401EF0E71AE09A48005D332815D117
:1058100098490819032298A12AF0C1FD70B995484A
:1058200001198748D1300A6802604A684260896875
:1058300081602B20824981F8D00002E0641CAC42D8
:10584000E2DB00BFAC4201DA0020CDE74FF0FF30D1
:10585000CAE7FEB500250026784F6948007806287B
:1058600000DAFEBDFFF74CFE04464CB164480078F8
:105870000C2800D0F5E7FFF7E2FE012800D1F0E7A1
:1058800041F288327DA1AFF2C070FFF7FAFD18B186
:105890000CB1FFF745FEE4E70A226946386802F0DA
:1058A00020F80646032E03DA0CB1FFF739FED8E7DD
:1058B00008E01DF805002C2803D100200DF8050094
:1058C00002E06D1C092DF4D100BF68462AF09EFE4F
:1058D0005B49087008460078202801DD0020087028
:1058E0000CB1FFF71DFE00BFBBE770B588B0002408
:1058F0000025524E42480078042801D108B070BDFE
:105900006420FBF781FF47F230525EA160A0FFF7F1
:10591000B8FD00B1F2E7192201A9306801F0E1FFFA
:105920000546032D00DAE9E708E001A8005D22281A
:1059300003D1002001A9085502E0641C182CF4D101
:1059400000BF14213E48A2302AF0BFFC621C01A90E
:105950003B48A2302AF0A0FC00BFCFE710B50446B8
:105960004E480078402808DA4C4801780078401CFE
:105970004A4A10703F48445401E0FFF762F8484833
:105980000078002838D0474801683A482AF0E3FCFC
:1059900000282CD13749AFF65850FAF730FC0020D8
:1059A0003F4908704049088015480078032802D014
:1059B0000520134908703D48007870B100203B492C
:1059C00008701F4981F8F10006200D490870642312
:1059D00000221146812009F08AFE3548007820B166
:1059E00000203349087033490870FFF72AF831481E
:1059F000007800B160E06BE0A4E0000003C707207E
:105A000001C7072050505020434C4F53494E473A4E
:105A1000204D6F64656D20646F6573206E6F742018
:105A200072657475726E2066726F6D20636F6D6D36
:105A3000616E64206D6F646500000000DCC50720A6
:105A4000E0C507202B434C54533A202200000000AD
:105A500041542B434C54530D00000000436C6F63C2
:105A60006B00000041544420000000002B435553BC
:105A7000443A00003CD70720333735002B435351BD
:105A80003A2000002B4353504E3A202200000000E1
:105A900041542B4353504E3F0D00000014C70720C4
:105AA0002DC7072020C7072024C707202EC707209F
:105AB00032C7072030C70720FAA1FE482AF04BFC66
:105AC00030B90020FC490870FC490880FEF7B9FF96
:105AD000FB48007868B1FBA1F6482AF03CFC40B9CD
