:100000000C9434010C9451010C9451010C94510145
:100010000C9451010C9451010C9451010C94E7166D
:100020000C9451010C9451010C94D7050C9451017E
:100030000C9451010C94C1070C9451010C94510182
:100040000C94720B0C9451010C94DF0B0C94390C32
:100050000C941B0C0C9451010C9451010C94510103
:100060000C9451010C94510100C1814001C08041A8
:1000700001C0804100C1814001C0804100C1814078
:1000800000C1814001C0804101C0804100C1814068
:1000900000C1814001C0804100C1814001C0804158
:1000A00001C0804100C1814001C0804100C1814048
:1000B00000C1814001C0804100C1814001C0804138
:1000C00001C0804100C1814000C1814001C0804128
:1000D00001C0804100C1814001C0804100C1814018
:1000E00000C1814001C0804101C0804100C1814008
:1000F00000C1814001C0804100C1814001C08041F8
:1001000001C0804100C1814000C1814001C08041E7
:1001100001C0804100C1814001C0804100C18140D7
:1001200000C1814001C0804100C1814001C08041C7
:1001300001C0804100C1814001C0804100C18140B7
:1001400000C1814001C0804101C0804100C18140A7
:1001500000C1814001C0804100C1814001C0804197
:1001600001C0804100C1814000C0C101C30302C27F
:10017000C60607C705C5C404CC0C0DCD0FCFCE0EE7
:100180000ACACB0BC90908C8D81819D91BDBDA1A57
:100190001EDEDF1FDD1D1CDC14D4D515D71716D6C7
:1001A000D21213D311D1D010F03031F133F3F23237
:1001B00036F6F737F53534F43CFCFD3DFF3F3EFEA7
:1001C000FA3A3BFB39F9F83828E8E929EB2B2AEA17
:1001D000EE2E2FEF2DEDEC2CE42425E527E7E62687
:1001E00022E2E323E12120E0A06061A163A3A262F7
:1001F00066A6A767A56564A46CACAD6DAF6F6EAE67
:10020000AA6A6BAB69A9A86878B8B979BB7B7ABAD6
:10021000BE7E7FBF7DBDBC7CB47475B577B7B67646
:1002200072B2B373B17170B05090915193535292B6
:1002300096565797559594549C5C5D9D5F9F9E5E26
:100240005A9A9B5B99595898884849894B8B8A4A96
:100250004E8E8F4F8D4D4C8C448485458747468606
:10026000824243834181804011241FBECFEFD4E0FE
:10027000DEBFCDBF11E0A0E0B1E0E4EDF3E302C0EA
:1002800005900D92A032B107D9F714E0A2E2B1E0D7
:1002900001C01D92A735B107E1F70E94B4010C948B
:1002A0002D190C940000AF92BF92CF92DF92EF9283
:1002B000FF920F931F936091800270918102809151
:1002C0008202909183020E94BD0F7B018C01A0905D
:1002D0003A01B0903B01C0903C01D0903D01C60175
:1002E000B501A80197010E947C1788230CF45D9A40
:1002F000C801B7012AE037ED43E25CE30E9418171A
:100300009B01AC01C601B5010E94C61818160CF479
:100310005D981F910F91FF90EF90DF90CF90BF906D
:10032000AF90089584E792E060E070E048EB51E020
:100330000E946A1983E192E290937502809374029D
:100340000E949A14439A3B9A5D98559A0E94920C87
:100350000E948F050E948C160E948E070E94240224
:100360000E94570B789408951F932EE088E190E047
:100370000FB6F894A895809360000FBE209360009C
:100380000E949201A8950E940B0B0E94150F182F36
:1003900060913A0170913B0180913C0190913D0147
:1003A00020E030E04AE754E40E94CA1820E030E040
:1003B0004AEF53E40E9418170E94A1160E94780287
:1003C0000E945301812F60E00E94930CDBCFE4E692
:1003D000F0E080818B7F8083259A239A229A579A16
:1003E0005F9A8DB58E7F8DBD8CB58D7F8CBD8CB5A4
:1003F0008E7F8CBD8CB580618CBD8CB580648CBDCE
:1004000008958EBD0DB407FEFDCF08951F93182FDC
:100410005F9881E10E940102812F0E9401025F9A90
:100420001F9108950E94E70180E090E0ACECB2E4F7
:1004300080934E0190934F01A0935001B0935101CE
:1004400086E60E9406020895E4E6F0E08081877F58
:100450008083229AA1E8B0E081E08C93E0E8F0E0AC
:1004600080818062808380818160808380818260DE
:1004700080838C9188608C938C9180618C938FEFBA
:100480009FEF90938900809388008C9188608C9373
:100490008C9180618C9310928B0010928A00EFE611
:1004A000F0E08081816080830895AC019093250104
:1004B000809324012091220130912301C9018C599C
:1004C0009F4F8417950728F0245630404217530752
:1004D00020F45093230140932201F89450938B0011
:1004E00040938A0078945093230140932201089509
:1004F00060918402709185028091860290918702BA
:100500000E94BD0F20913A0130913B0140913C0186
:1005100050913D010E94CA1820E030E040E751E4CC
:100520000E94801720E03FEF4FE757E40E94CA186F
:100530000E94E817DC01CB010E945502089587BD97
:1005400008952F923F924F925F926F927F928F9277
:100550009F92AF92BF92CF92DF92EF92FF920F9352
:100560001F93CF93DF9357E0A52E01C0AA94E0908C
:100570003A01F0903B0100913C0110913D01CA2DE0
:10058000D0E0FE01EE0FFF1FEE0FFF1FEC51FC4FFE
:1005900060817181828193810E94BD0F9B01AC01BA
:1005A000C801B7010E947C17882314F4AA20F1F631
:1005B000FE01EE0FFF1FEE0FFF1FEC51FC4F60819D
:1005C0007181828193810E94BD0F3B014C01FE012C
:1005D000EE0FFF1FEE0FFF1FE851FC4F608171818E
:1005E000828193810E94BD0F1B012C01CC0FDD1F66
:1005F000CC0FDD1FFE01E85FFB4F608171818281BE
:1006000093810E94BD0F5B016C01C45FDB4F688169
:1006100079818A819B810E94BD0FA60195010E946C
:1006200017177B018C0160913A0170913B01809119
:100630003C0190913D01A40193010E9417179B0179
:10064000AC01C801B7010E94CA187B018C01C2012C
:10065000B101A40193010E9417179B01AC01C801CD
:10066000B7010E948017A60195010E941817DF911B
:10067000CF911F910F91FF90EF90DF90CF90BF909F
:10068000AF909F908F907F906F905F904F903F9032
:100690002F90089587E00E94711520E030E048EA2D
:1006A00051E40E948017089586E00E94711520E0B1
:1006B00038ED46ED57E40E94CA1820E030E44CE1E2
:1006C00056E40E9480170895AF92BF92CF92DF92B6
:1006D000EF92FF920F931F930E944A0360932A01A7
:1006E00070932B0180932C0190932D010E94540351
:1006F0007B018C0160932601709327018093280170
:10070000909329012FE832EC45E75CE30E947C17C7
:1007100088230CF443C0A0902A01B0902B01C09014
:100720002C01D0902D01C601B50127E137EB41ED39
:1007300058E30E947C178823B4F5609152017091B0
:10074000530180915401909155012DEC3CEC4CE407
:100750005DE30E94C61887FD21C06091520170912F
:10076000530180915401909155012DEC3CEC4CE4E7
:100770005DE30E94171760935201709353018093B9
:1007800054019093550160915201709153018091F1
:100790005401909155010E94E81767BDE0E070E0B8
:1007A00080E86FEB1EC0C801B70120E038ED46EDD0
:1007B00057E40E9480179B01AC01C601B5010E945D
:1007C00018179B01AC0160932A0170932B01809351
:1007D0002C0190932D01C801B7010E948017E62FCC
:1007E000692F2E2F372F482F562FB901CA011F917D
:1007F0000F91FF90EF90DF90CF90BF90AF90089552
:100800002F923F924F925F926F927F928F929F9220
:10081000AF92BF92CF92DF92EF92FF920F931F930E
:100820005B016C0119012A010E94640360932E018F
:1008300070932F01809330019093310160912E01CC
:1008400070912F01809130019091310120E030E0D2
:1008500040E85FEB0E947C17882309F40EC12091C9
:100860002E0130912F014091300150913101C6018C
:10087000B5010E9417173B014C01E89497F8C40199
:10088000B30120E030E040E05FE30E947C171816DF
:100890000CF0E0C0C201B1012AE037ED43E25CE3B5
:1008A0000E94CA189B01AC01C401B3010E94C61882
:1008B00018165CF00F2EFDECEF2EFCECFF2EFCE486
:1008C0000F2FFDE31F2FF02D0AC00F2EF0E0EF2EAB
:1008D000F0E0FF2EF0E00F2FFFE31F2FF02D6091CF
:1008E0002E0170912F018091300190913101A6016C
:1008F00095010E947C1788230CF03FC0A0904E0108
:10090000B0904F01C0905001D0905101C801B70183
:1009100020E030E040EC50E40E9418179B01AC014D
:10092000C601B5010E94C61888233CF0C601B50176
:10093000A80197010E9417174DC060915201709154
:100940005301809154019091550123E333EF4EE719
:1009500053E40E947C1718160CF47EC0609152017B
:100960007091530180915401909155012DEC3CEC14
:100970004CE45DE30E9418175AC0C601B50120E09F
:1009800030E04CE052E40E947C1787FD05C060E037
:1009900070E082E593E404C060E070E08BE793E4EC
:1009A000A0904E01B0904F01C0905001D0905101E5
:1009B000A80197010E9417179B01AC01C601B50160
:1009C0000E947C171816ACF0C601B501A80197016A
:1009D0000E94181760934E0170934F01809350014D
:1009E000909351010E94E817DC01CB010E9406029E
:1009F00031C06091520170915301809154019091E6
:100A000055012DEC3CEC4CE45DE30E94C6188823B4
:100A10001CF16091520170915301809154019091A9
:100A200055012DEC3CEC4CE45DE30E9417176093FC
:100A3000520170935301809354019093550160913A
:100A400052017091530180915401909155010E947F
:100A5000E81767BD10E012C010E0C201B1012DEC33
:100A60003CEC4CE45EE30E94CA189B01AC01C4015B
:100A7000B3010E94C61818160CF411E0812F1F91C3
:100A80000F91FF90EF90DF90CF90BF90AF909F902D
:100A90008F907F906F905F904F903F902F90089530
:100AA000EF92FF920F931F938091780290917902B9
:100AB000892B11F480E02EC06091280470912904E4
:100AC00080912A0490912B040E94BD0F7B018C0120
:100AD000609108047091090480910A0490910B04BC
:100AE0000E94BD0FA80197010E94C618181664F451
:100AF000609108047091090480910A0490910B049C
:100B00000E94BD0F7B018C010E94A102A8019701E8
:100B10000E9400041F910F91FF90EF9008950E9492
:100B200032150E941202809164008F7D80936400D0
:100B300082E085BD84B5806884BD84B5816084BD54
:100B400084B5826084BD5B9A539A60910804709169
:100B5000090480910A0490910B042091280430919B
:100B6000290440912A0450912B040E94C61818169B
:100B70002CF480E090E0AFE7B3E404C080E090E0C4
:100B8000A0E0B0E08093520190935301A0935401F0
:100B9000B0935501609152017091530180915401BD
:100BA000909155010E94E81767BD569A08951F92CB
:100BB0000F920FB60F9211248F939F9380915A0139
:100BC000813019F0823041F50BC0B09911C080918D
:100BD00086009091870090935C0180935B011CC01C
:100BE0008091560190915701439728F0B09B03C024
:100BF00010925A0111C080915801909159010196AB
:100C000090935901809358018091860090918700BC
:100C100090935E0180935D019F918F910F900FBE25
:100C20000F901F901895AF92BF92CF92DF92EF92E4
:100C3000FF920F931F9380915A01833029F0E0E0D7
:100C400070E080E86FEB8CC020915B0130915C011B
:100C500040E050E08FEF9FEFA0E0B0E0821B930BED
:100C6000A40BB50B80935F0190936001A093610189
:100C7000B0936201E0905F01F0906001009161012A
:100C800010916201609156017091570180E090E0EF
:100C90002FEF3FEF40E050E00E94B519E60EF71E3F
:100CA000081F191FE0925F01F0926001009361013B
:100CB0001093620120915F013091600140916101C8
:100CC0005091620180915D0190915E012F5F3F4FD5
:100CD00040405040A0E0B0E0280F391F4A1F5B1F82
:100CE00020935F0130936001409361015093620152
:100CF0006091580170915901A0905F01B09060011E
:100D0000C0906101D090620180E090E00E941418D0
:100D100020E030E041E65BE40E94CA187B018C01D0
:100D2000C601B5010E9416189B01AC01C801B701AC
:100D30000E948017E62F692F10925C0110925B01D0
:100D400010925E0110925D011092570110925601AF
:100D500010925F0110926001109261011092620185
:100D60002E2F372F482F562FB901CA011F910F91EF
:100D7000FF90EF90DF90CF90BF90AF90089528B193
:100D80002F7C28B928B134E0880F991F3A95E1F7F4
:100D9000282B28B90895AF92BF92CF92DF92EF929D
:100DA000FF920F931F938091320190913301892B11
:100DB000F1F4809134019091350101968370907027
:100DC000909335018093340128B12F7C28B928B144
:100DD00044E0880F991F4A95E1F7282B28B9109213
:100DE0005A0181E090E09093330180933201809129
:100DF000320190913301019799F40E94130620E08B
:100E000030E040E85FEB0E947C17882309F47DC046
:100E100082E090E0909333018093320110925A0166
:100E20008091320190913301029759F00F2EF0E03A
:100E3000EF2EF0E0FF2EF0E00F2FF0E01F2FF02D4F
:100E400011C00E9413067B018C0120E030E040E8D5
:100E50005FEB0E947C17882309F457C0109233017E
:100E600010923201209134013091350186E590E0F5
:100E7000289FF001299FF00D389FF00D1124EC58A8
:100E8000FD4F608D718D828D938D0E94BD0F5B0132
:100E90006C0120E030E040E050E00E947C178823A5
:100EA00029F4EE2D7F2D802F612F14C0C801B701CA
:100EB000A60195010E94171720E030E040E85EE3AC
:100EC0000E94CA189B01AC01C601B5010E94181707
:100ED000E62F692F00913401109135012E2F372F05
:100EE000482F562FB901CA010E94BD0F26E530E0F8
:100EF000029FF001039FF00D129FF00D1124EC589A
:100F0000FD4F608F718F828F938F1F910F91FF9094
:100F1000EF90DF90CF90BF90AF9008950F931F9305
:100F200080918802909189020E94D40F8C0160E028
:100F300070E080E090E00E94BD0FAB01BC01ECE8E6
:100F4000F2E086E590E0089F9001099F300D189F20
:100F5000300D11242E0F3F1F06C040835183628342
:100F60007383EA5AFF4FE217F307B9F720983C9AC8
:100F70003D9A80916F00806280936F001F910F9166
:100F800008951F920F920FB60F9211242F933F9343
:100F90004F935F936F937F938F939F93AF93BF9381
:100FA000EF93FF9380915A01813029F08130F0F066
:100FB0008230F9F40AC01092570110925601109233
:100FC00059011092580182E012C08091560190910F
:100FD00057010196909357018093560180915601D5
:100FE00090915701449728F083E001C081E08093FD
:100FF0005A010E94A10CFF91EF91BF91AF919F9177
:101000008F917F916F915F914F913F912F910F90B1
:101010000FBE0F901F9018950E949C0B0895FF9291
:101020000F93CF93DF93F82E062F6D3F90F08091B2
:10103000690190916A01019690936A018093690118
:101040008091770180688093770183E080937801B5
:1010500002E00E94490BC6E7D1E0F0927601602FD2
:101060006F5FCE014FEF5FEF0E942E0BE02FF0E09D
:10107000EC0FFD1F81839283D0937102C0937002A5
:101080000D5F00933601E0917202F0917302359783
:101090008081806280838091C10084FFFCCF1092A8
:1010A0003701DF91CF910F91FF900895682F8091C4
:1010B00000010E940F0808952091690130916A0192
:1010C0002F5F3F4F30936A01209369019091770120
:1010D0009068909377018093780182E00E9456088F
:1010E0000895DC011296EC9112978E2F8B50883068
:1010F000B0F4F0E0EE0FFF1FE15BFE4F818113962D
:101100008C9313971296EC911297F0E0EE0FFF1F5D
:10111000E15BFE4F808114968C9385E012C0EE2334
:1011200079F0EA3049F4E5E6F1E01192119281E0BC
:10113000E537F807D1F704C081E00E945C08089504
:10114000862F0E945608089560913601625086E706
:1011500091E04FEF5FEF0E942E0BE0913601F0E03F
:10116000EC58FE4F208131818217930711F480E003
:10117000089583E008951F93182F809136018430DD
:1011800020F1809136018B3F00F50E94A40888234E
:10119000E1F480916501909166010196909366015A
:1011A0008093650180917601882311F08117B1F455
:1011B00080916B0190916C01019690936C018093EA
:1011C0006B018091360183500AC080916701909134
:1011D00068010196909368018093670180E01F91F8
:1011E0000895FC016281738184819581613822E4D4
:1011F000720720E0820720E0920720F082E00E9440
:101200005C080895AF01495F5F4F26810E94B01CC2
:1012100087E00E9456080895DF93CF9300D000D056
:10122000CDB7DEB79C01DE011196FC0134968381B7
:101230008983828111968C931197818112968C9368
:101240001297F901848113968C9389819A81AB81DD
:10125000BC818030FBE49F07F0E0AF07F0E0BF0700
:1012600009F45AC081304BE4940740E0A40740E001
:10127000B40738F5803CE2E19E07E0E0AE07E0E02D
:10128000BE0709F449C0813CF2E19F07F0E0AF07D7
:10129000F0E0BF0738F480569940A040B04009F014
:1012A00057C03AC08038E5E29E07E0E0AE07E0E0D4
:1012B000BE0791F180549843A040B04009F048C067
:1012C0002BC0803041EE940740E0A40740E0B40713
:1012D00019F18130E1EE9E07E0E0AE07E0E0BE07E5
:1012E00070F48038F0E79F07F0E0AF07F0E0BF0749
:1012F00099F080509649A040B04051F50DC0803023
:10130000ECE29E07E1E0AE07E0E0BE0729F0805086
:10131000924CA140B040E1F4F90181818230C0F4E7
:1013200062816623A9F08381882391F088EB91E0A4
:101330000E949219CE01019669EB71E044E050E001
:101340000E9488198CE00E9456080E94570B03C027
:1013500083E00E945C080F900F900F900F90CF9148
:10136000DF910895CF93DF93EC01EE81E63FB0F576
:101370008981882319F0813089F517C02A813B8142
:101380004C815D81DA01C9018E0F911DA11DB11D36
:1013900081589244A040B040B8F4CE010796B901FC
:1013A0004E2F50E00E9430191DC02A813B814C8194
:1013B0005D81DA01C9018E0F911DA11DB11D815002
:1013C0009240A040B04010F082E009C0CE010796E4
:1013D000B9014E2F50E00E946A1904C083E00E94B8
:1013E0005C0804C08E81895F0E945608DF91CF910E
:1013F0000895CF93DF93EC01998180E02A81422FF9
:1014000050E0482B592B9B8180E02C8130E0282B29
:10141000392BF901EE0FFF1FE9834C3D5105C8F44C
:10142000240F351F2D3D310590F49E012E5F3F4F57
:10143000440F551F4C585D4FC901BA014E2F50E063
:101440000E94391989818E5F0E94560805C083E089
:1014500001C082E00E945C08DF91CF910895CF9295
:10146000DF92EF92FF920F931F93CF93DF938C0144
:101470007B01CB010E94D40F000F111F0431110515
:10148000D9F401970497C0F027C0C7010E94D40F78
:101490009C01CC9DC001CD9D900DDC9D900D112433
:1014A00084599F4F0817190729F4225030402D31D5
:1014B000310590F4219605C0C0E0D0E026E5C22EAB
:1014C000D12C80918802909189020E94D40FC81774
:1014D000D907D8F281E001C080E0DF91CF911F9160
:1014E0000F91FF90EF90DF90CF900895EF92FF92D1
:1014F0000F931F93DF93CF9300D0CDB7DEB7FC01DE
:10150000918180E02281022F10E0082B192B948119
:1015100080E02381622F70E0682B792B7A836983C6
:1015200081E0083B1807E8F50C3D110510F478013F
:1015300006C054E2E52E5FEFF52EE00EF11EC70166
:101540000E942F0A882311F483E02CC0EE0CFF1CAC
:101550000C3D110550F0E4E7F2E0EE0EFF1E89812C
:101560009A81F7019183808312C087010050104057
:10157000CE010196B80142E050E00E948819C701EF
:101580008C589D4FB80142E050E00E946A1983E1F7
:1015900092E2909375028093740285E00E9456084F
:1015A00003C082E00E945C080F900F90CF91DF9102
:1015B0001F910F91FF90EF900895FC01808188307A
:1015C00011F1893028F4843051F0863001F50BC0D8
:1015D000863469F0873499F08534C9F40CC0CF01A2
:1015E0000E94F9090895CF010E94760A0895CF015B
:1015F0000E94B2090895CF010E94F1080895CF0119
:101600000E940C090895CF010E947108089581E09D
:101610000E945C0808951F9380917A0290917B024A
:10162000892B31F080918A0290918B02892BA1F055
:101630000E949C0B182F882369F0809100010E9462
:10164000BB08882339F010924F0487E791E0612F9F
:101650000E94DD0A0E94BB101F910895DC010FC09B
:10166000ED91E4272E2F30E0C90188599F4FFC01EE
:101670004491452728593E4FF90154916150662302
:1016800079F7952F80E0242F30E0282B392BC901E2
:101690000895E1ECF0E080818F7E80835A9A08956E
:1016A0005A98E1ECF0E08081806180830895E1EC5C
:1016B000F0E080818869808386EC90E090937302EB
:1016C000809372025A98529A8FE28093C40083E604
:1016D0008093000181E08BB9EEE6F0E080818160CB
:1016E000808308951F920F920FB60F9211248F934B
:1016F0009F93AF93BF93809175018F5F8093750126
:1017000080912C0490912D04A0912E04B0912F046F
:101710000196A11DB11D80932C0490932D04A093DC
:101720002E04B0932F04BF91AF919F918F910F9092
:101730000FBE0F901F901895809138018130E9F00D
:10174000813028F0823031F18330B9F52DC080919D
:101750003701882361F4809175018D3170F181E04A
:1017600080933801109236018093370111C081E0D7
:10177000809337011092360109C080913701823081
:1017800021F0809137018530C1F482E080933801E7
:1017900080E00895809175018E3030F083E0809371
:1017A000380185E080933701809175018D3128F0F3
:1017B0001092380180913601089580E008951F92BB
:1017C0000F920FB60F9211248F939F93EF93FF9375
:1017D000E0917202F091730290818091370185301F
:1017E00019F4109236011EC0809137018823C1F090
:1017F00080913601882319F482E08093370180912B
:101800003601E82FF0E0EA58FE4F90838F5F809317
:101810003601809136018A3F18F085E080933701C8
:1018200010927501FF91EF919F918F910F900FBED4
:101830000F901F9018951F920F920FB60F921124C0
:101840008F93EF93FF93E1ECF0E080818F7B8083B7
:101850005A9880818061808381E080933701109263
:101860007501FF91EF918F910F900FBE0F901F9018
:1018700018951F920F920FB60F9211248F939F937A
:10188000AF93BF93EF93FF93A0917202B091730255
:10189000E0917002F091710280818C9380917002CE
:1018A00090917102019690937102809370028091E1
:1018B000360181508093360180913601882369F486
:1018C000E0917202F0917302359780818F7D808361
:1018D0008091C10080648093C100FF91EF91BF911E
:1018E000AF919F918F910F900FBE0F901F90189501
:1018F000DF93CF9300D000D0CDB7DEB7BC01CE01CF
:10190000019644E050E00E94301929813A814B81D0
:101910005C81B901CA010F900F900F900F90CF9189
:10192000DF9108950895882319F4662339F0862FEE
:1019300090E0880F991F8093010108951092010192
:1019400008958091020190910301892B31F08091DB
:10195000020190910301019717C088B198E089278F
:1019600088B9809139018F5F809339019091390155
:1019700080910101981730F043981092390182EC60
:1019800091E002C083E490E0909303018093020110
:1019900008958F929F92AF92BF92DF92EF92FF9243
:1019A0000F931F93CF93DF93DD240F2EF0E0EF2EE4
:1019B000F0E0FF2EF0E00F2FF0E01F2FF02D26E5D6
:1019C000822E912C9CE3A92EB12C28C0C89DF00139
:1019D000C99DF00DD89DF00D1124E052FD4F80817E
:1019E00091810E94D40FCA9D9001CB9D300DDA9D4C
:1019F000300D1124280F391F220F331F220F331FE0
:101A0000C9018C58944C0E94780C9B01AC01C80110
:101A1000B7010E9418177B018C01D3948091880232
:101A2000909189020E94D40FCD2DD0E0C817D9071C
:101A300068F2B701C801DF91CF911F910F91FF901C
:101A4000EF90DF90BF90AF909F908F9008950F938D
:101A50001F938C0186E590E0089FF001099FF00D2F
:101A6000189FF00D1124E052FD4F808191810E945A
:101A7000D40F2CE330E0A901049F9001059F300DA5
:101A8000149F300D1124280F391F220F331F220FEE
:101A9000331FC9018450954C0E94780C1F910F91FF
:101AA00008952F923F924F925F926F927F928F9202
:101AB0009F92AF92BF92CF92DF92EF92FF920F93DD
:101AC0001F93DF93CF9300D000D0CDB7DEB75C017A
:101AD00086E590E0A89E6001A99ED00CB89ED00C2F
:101AE00011248CE892E0C80ED91EF6016081718144
:101AF000828193810E94BD0F69837A838B839C834B
:101B0000C5010E94270D7B018C0120E030E84BEBE2
:101B100054E40E947C17882354F40F2EF0E0EF2E3B
:101B2000F0E8FF2EFBEB0F2FF4E41F2FF02D80EFDA
:101B300090E0A89E4001A99E900CB89E900C1124A4
:101B400080E09BE3880E991EC4010E94780C20E07F
:101B500030E048E452E40E9417179B01AC01698110
:101B60007A818B819C810E94C61888230CF4D4C092
:101B7000C801B70120E030E048E452E40E941817A1
:101B80009B01AC0169817A818B819C810E947C17C9
:101B900018160CF4C1C0C4010E94780C9B01AC0162
:101BA00069817A818B819C810E947C1788233CF417
:101BB000C4010E94780C69837A838B839C83C5015E
:101BC0000E94270D9B01AC0169817A818B819C81E8
:101BD0000E94C61818163CF4C5010E94270D69839F
:101BE0007A838B839C83F601EC5AFF4F808191812D
:101BF0000E94D40F082F02508CE390E0A89E600151
:101C0000A99ED00CB89ED00C112401C00150E02E2A
:101C1000FF24C7018C0D9D1D880F991F880F991FE8
:101C20008050954C0E94780C9B01AC0169817A81AF
:101C30008B819C810E947C17882314F4002331F748
:101C40008CE390E0A89E6001A99ED00CB89ED00CB9
:101C50001124EC0CFD1CEE0CFF1CEE0CFF1CC7014C
:101C60008050954C0E94780C3B014C0110E00F5FB6
:101C70001F4F0C0D1D1D000F111F000F111FC8015C
:101C80008050954C0E94780C1B012C01C70188588C
:101C9000944C0E94780C5B016C01C8018858944CEC
:101CA0000E94780CA60195010E9417177B018C01F8
:101CB00069817A818B819C81A40193010E9417170D
:101CC0009B01AC01C801B7010E94CA187B018C01BD
:101CD000C201B101A40193010E9417179B01AC013D
:101CE000C801B7010E948017A60195010E9418172C
:101CF0007B018C0120E030E040E85FEB0E94C618D9
:101D0000181654F4C801B70120E030E543EC57E45D
:101D10000E947C17882354F00F2EF0E0EF2EF0E0A5
:101D2000FF2EF0E00F2FF0E01F2FF02DB701C801BC
:101D30000F900F900F900F90CF91DF911F910F9107
:101D4000FF90EF90DF90CF90BF90AF909F908F90DB
:101D50007F906F905F904F903F902F900895DF920B
:101D6000EF92FF920F931F93DD240F2EF0E0EF2EE2
:101D7000F0E0FF2EF0E00F2FF0E01F2FF02D0DC050
:101D80008D2D90E00E94510D9B01AC01C801B7015F
:101D90000E9418177B018C01D39480918802909146
:101DA00089020E94D40F2D2D30E02817390740F307
:101DB000B701C8011F910F91FF90EF90DF90089538
:101DC000EF92FF920F931F930E94AF0E7B018C0145
:101DD0000E94C90C9B01AC01C801B7010E94801789
:101DE0007B018C0120E030E040E85FEB0E94C618E8
:101DF000181654F4C801B70120E030E040E050E488
:101E00000E947C1787FD0AC00F2EF0E0EF2EF0E055
:101E1000FF2EF0E00F2FF0E01F2FF02DB701C801CB
:101E20001F910F91FF90EF9008958F929F92AF9224
:101E3000BF92CF92DF92EF92FF920F931F93CF93B7
:101E4000DF9380918802909189020E94D40F4C0107
:101E50000E94CB06CCE8D2E0CC24DD2455C0AEE312
:101E6000AA2EA1E0BA2EAC0CBD1CF501108268812F
:101E700079818A819B810E94BD0F7B018C01CA5AA6
:101E8000DF4F20E030E041EE53E40E947C178823CE
:101E9000C4F583E0F5018083C801B70120E030E09C
:101EA00048E453E40E94C61818167CF460E070E021
:101EB0008AEF93E4A80197010E94171720E030E011
:101EC0004AE754EC0E94801711C0B60180E090E010
:101ED0000E9414182AE037ED43EA5CE30E94CA1816
:101EE00029E23CE54FE85EE30E94171760933A0150
:101EF00070933B0180933C0190933D018C2D8E5F4C
:101F00001CC00894C11CD11CC814D90408F4A7CF64
:101F10000E94E00E60933A0170933B0180933C0174
:101F200090933D010E94BD0F60937C0270937D02EF
:101F300080937E0290937F0280E0DF91CF911F918A
:101F40000F91FF90EF90DF90CF90BF90AF909F9058
:101F50008F900895362F3695DC01E62FF0E031970B
:101F6000E80FF91F20E006C09C9180818D9390833B
:101F70002F5F31972317C0F30895DF93CF9300D0DD
:101F800000D0CDB7DEB769837A838B839C832C81A5
:101F90003B814A815981B901CA010F900F900F907E
:101FA0000F90CF91DF910895DF93CF9300D0CDB7FD
:101FB000DEB79A838983982F8A810F900F90CF91F3
:101FC000DF91089580917601843489F480917701BE
:101FD0008F3411F488E703C0803549F489E7809392
:101FE0003304809100018093340484E0089583E0F9
:101FF0000895109231040E94490B86E791E0909376
:102000007102809370028091320480933601809136
:10201000C10080628093C1008091C10084FFFCCF29
:1020200008951F93CF93DF9310E060E0C82FD0E0B6
:10203000219707C0EA58FE4F80810E941815682F2B
:102040001F5FE12FF0E0EC17FD07A4F3862FDF916F
:10205000CF911F9108958091360180933204809131
:102060007601813321F580913601843000F1809131
:1020700036010E941110E0913601F0E0EB58FE4F5E
:102080009081891751F48091770180933404809175
:1020900078018093330484E00895809177018093E0
:1020A0003404809178018093330483E0089583E0C1
:1020B0000895809136018330C8F00E94E20F843089
:1020C000B9F00E942B10843071F48091520488235F
:1020D00021F4809134048F3F59F090913404809121
:1020E0000001981729F081E08093310480E0089581
:1020F00081E008951F93109231040E94490B8EE3F2
:102100008093760180913404809377018091330429
:102110008093780110913204809132040E94111052
:10212000E12FF0E0EB58FE4F808386E791E090933B
:102130007102809370028091320480933601809105
:10214000C10080628093C1008091C10084FFFCCFF8
:102150001F9108951092790185E0809332040E94C6
:102160007A10089581E08093790185E080933204AC
:102170000E947A100895EF92FF920F931F9380911F
:102180004F04882391F1E0902C04F0902D040091ED
:102190002E0410912F0460911F0170E080E090E008
:1021A00020E23CE140E050E00E94B5196E157F0549
:1021B00080079107D0F480913004823051F48091EF
:1021C00000018093340487E08093330482E090E040
:1021D00002C081E090E00E94451310922C041092FE
:1021E0002D0410922E0410922F040E94591088235F
:1021F00009F4AAC010924F04809133048C3009F482
:1022000084C08D3058F5863009F461C0873098F469
:10221000833009F453C0843038F4813009F448C065
:10222000823009F08FC047C0843009F44AC085303D
:1022300009F088C049C0893009F45EC08A3038F49A
:10224000873009F44EC0883009F07CC052C08A3013
:1022500009F455C08B3009F075C054C0833109F4BE
:1022600063C0843198F48F3009F458C0803138F459
:102270008D3009F44DC08E3009F064C04CC08131FE
:1022800009F44CC0823109F05DC04BC0873109F4BC
:1022900054C0883138F4843109F449C0853109F0DB
:1022A00051C048C08837B1F0893709F04BC01CC015
:1022B0000E944B1449C00E940D1346C00E948A120E
:1022C00043C00E947D1240C00E94B4123DC082E013
:1022D00090E004C00E94DB1181E090E00E94451371
:1022E00033C082E090E002C081E090E00E94511291
:1022F0002BC00E942E1328C00E944C1225C00E94A1
:10230000491222C00E9446121FC00E9443121CC0E4
:102310000E94401219C00E943D1216C00E9437123E
:1023200013C00E94341210C00E9420120DC00E94DF
:10233000A6120AC00E949A1207C0809179010E94D9
:10234000F71102C00E94AA101F910F91FF90EF9009
:102350000895EF92FF920F931F93E0903A01F0904F
:102360003B0100913C0110913D01C801B70120E003
:1023700030E04AE754E40E94CA180E94E8177093BC
:102380003F0460933E04C801B70120E030EC4FE702
:1023900054E40E94CA180E94E817709339046093AD
:1023A00038041F910F91FF90EF9008958AEE91E00D
:1023B0000E947A1908958AEE91E00E947A19882382
:1023C00039F0F999FECF8AEE91E060E00E9492190F
:1023D00008958AEE91E00E947A19882339F4F999D8
:1023E000FECF8AEE91E061E00E94921908951F935A
:1023F000182F882351F4F999FECF85EC91E060E025
:102400000E9492190E94DB1117C0813051F40E9482
:10241000DB1110934F04F999FECF85EC91E061E058
:1024200009C0823049F40E94E911F999FECF85EC88
:1024300091E060E00E9492190E94AA101F910895F5
:102440008091790180931F01882319F481E08093A2
:102450001F01F999FECF83EC91E060911F010E946A
:1024600092190E94AA1008950E94AA1008950E942D
:10247000AA1008950E94AA1008950E94AA10089513
:102480000E94AA1008950E94AA1008950E94AA10FE
:1024900008950E94AA1008950E94A9110E94AA10EE
:1024A0000895029779F40E94AA1082E08093300484
:1024B00091E090934F0480911F018823E9F4909359
:1024C0001F01089585EC91E00E947A19882339F064
:1024D000F999FECF85EC91E060E00E9492190E948C
:1024E000E91191E09093300490934F0480911F0183
:1024F000882311F490931F010895609179016093EE
:102500005204F999FECF8EEB91E00E9492190E943D
:10251000AA1008951F9310917901F999FECF88EBC5
:1025200091E0612F0E949219109300010E94AA105D
:102530001F91089584EC91E00E947A1980937901AB
:1025400085E0809332040E947A10089582EC91E035
:102550000E947A19809346048093790185E08093E4
:1025600032040E947A100895209148043091490461
:1025700040914A0450914B04852F9927AA27BB27E5
:1025800080937C01CA01AA27BB2780937B01BB27CC
:10259000A52F942F832F80937A0120937901909116
:1025A00053048091540480937E0190937D01909117
:1025B0005004809151048093800190937F01909109
:1025C0004C0480914D04809382019093810180910D
:1025D000470480938301909136048091370480935F
:1025E00085019093840190914004809141048093EF
:1025F00087019093860180910001809388018091EA
:1026000052048093890180914E0480938A0186E16F
:10261000809332040E947A100895209148043091EA
:10262000490440914A0450914B04852F9927AA27C9
:10263000BB2780937C01CA01AA27BB2780937B011B
:10264000BB27A52F942F832F80937A0120937901A4
:1026500088E0809332040E947A1008950E94A911A4
:10266000F999FECF60913E0470913F0484ED91E0B2
:102670000E94A01984ED91E00E9482199093510468
:10268000809350040E94AA100895EF92FF920F9336
:102690001F93DF93CF9300D000D000D0CDB7DEB72B
:1026A0000297E1F40E94A911809135048093790189
:1026B000809138049091390480937A0190937B0142
:1026C00080913E0490913F0480937C0190937D0122
:1026D00089E0809332040E947A10D0C00E94A91130
:1026E00086E791E064E071E00E944D1986E791E091
:1026F00065E071E00E94421980913E0490913F0490
:102700008E010F5F1F4FB80140E150E00E94541945
:10271000F80101900020E9F73197E01BF10BE4305C
:10272000F105A4F4EE24FF2404E010E00E1B1F0BBF
:1027300009C086E791E068E071E00E9442190894C0
:10274000E11CF11CE016F106A4F307C0349729F050
:10275000C8016AE071E00E944D1986E791E08E01A0
:102760000F5F1F4FB8010E94421986E791E06FE0AA
:1027700071E00E9442198091350490E0B80140E177
:1027800050E00E945419F80101900020E9F73197B8
:10279000E01BF10BE230F105A4F4EE24FF2402E08B
:1027A00010E00E1B1F0B09C086E791E068E071E0A6
:1027B0000E9442190894E11CF11CE016F106A4F3F2
:1027C00007C0329729F0C80163E171E00E944D19FA
:1027D00086E791E08E010F5F1F4FB8010E944219FA
:1027E00086E791E066E171E00E9442198091380429
:1027F00090913904B80140E150E00E945419F80169
:1028000001900020E9F73197E01BF10BE430F1056E
:10281000A4F4EE24FF2404E010E00E1B1F0B09C0FB
:1028200086E791E068E071E00E9442190894E11C9B
:10283000F11CE016F106A4F307C0349729F0C80193
:102840006AE071E00E944D1906E711E0C801BE017F
:102850006F5F7F4F0E944219C8016AE171E00E94D8
:102860004219F80101900020E9F78F010150104052
:1028700006571140009332040E94F90F26960FB6B6
:10288000F894DEBF0FBECDBFCF91DF911F910F91A6
:10289000FF90EF90089588EE91E00E947A198823C6
:1028A00009F047C080917C0190E0A0E0B0E0BA2F31
:1028B000A92F982F882720917B0130E040E050E03D
:1028C000822B932BA42BB52BBA2FA92F982F8827B7
:1028D00020917A0130E040E050E0822B932BA42B32
:1028E000B52BBA2FA92F982F88272091790130E096
:1028F00040E050E0822B932BA42BB52B809348040F
:1029000090934904A0934A04B0934B04F999FECFE5
:1029100088E494E06CED71E044E050E00E94881996
:10292000F999FECF88EE91E061E00E9492190E9431
:10293000AA1008951F938EEB91E00E947A1980935C
:1029400052048FEB91E00E947A198093470481EC46
:1029500091E00E947A1980934E0482EC91E00E94EB
:102960007A198093460483EC91E00E947A1980934F
:102970001F0184EC91E00E947A198093BD0185ECDF
:1029800091E00E947A19182F8AEE91E00E947A193C
:10299000112329F081E080934F0482E005C0882351
:1029A00031F081E080934F048093300402C0109294
:1029B0004F0484EC91E00E947A198093BD0182ED6E
:1029C00091E00E94821990934D0480934C0484ED11
:1029D00091E00E948219909351048093500486EDF7
:1029E00091E00E948219909354048093530488EDDF
:1029F00091E00E94821990933704809336048AED07
:102A000091E00E948219909341048093400488E4ED
:102A100094E06CED71E044E050E00E946A1980910E
:102A20001F01882319F481E080931F011F910895ED
:102A3000282F98E038E1862F822780FF04C0632783
:102A40006695606801C06695915011F02695F3CFA8
:102A5000862F0895ECE7F0E090818F70907F892BAE
:102A600080830895EEE7F0E0808180638083E4E670
:102A7000F0E080818E7F8083ECE7F0E080818F77CB
:102A8000808380818064808380E090E0A0EAB0E46D
:102A90008093420190934301A0934401B093450178
:102AA0008081807F86608083EAE7F0E080818660B5
:102AB0008083808180688083089580917A0080641B
:102AC00080937A0080917A0084FFFCCF80917A0015
:102AD000806180937A002091780030917900C9015B
:102AE00008956F927F928F929F92AF92BF92CF92F2
:102AF000DF92EF92FF920F931F9390917C008F7063
:102B0000907F892B80937C0080917C0080688093EB
:102B10007C0080917C00806480937C008DEC9CEC38
:102B2000ACE8BFE38093420190934301A09344013A
:102B3000B09345010E945D150F2EF0E06F2EF0E07E
:102B40007F2EF0E08F2EF0E09F2EF02D10E00E94FF
:102B50005D15A0E0B0E0BC01CD010E9414185B013E
:102B60006C0120E030E04AE754E40E94C6181816D1
:102B700014F410E00CC0C401B301A60195010E9439
:102B800018173B014C011F5F103109F711E08091CC
:102B90007C008F7780937C0080917C0080648093A0
:102BA0007C0080E090E0A0EAB0E480934201909342
:102BB0004301A0934401B09345010E945D15112388
:102BC000F1F40F2EF0E06F2EF0E07F2EF0E08F2E6C
:102BD000F0E09F2EF02D0E945D15A0E0B0E0BC015A
:102BE000CD010E9414189B01AC01C401B3010E94E5
:102BF00018173B014C011F5F103169F766C08091C7
:102C00007C00807F8E6080937C000E945D150F2E7B
:102C1000F0E0AF2EF0E0BF2EF0E0CF2EF0E0DF2EA0
:102C2000F02D10E00E945D15A0E0B0E0BC01CD01E8
:102C30000E9414189B01AC01C601B5010E9418172F
:102C40005B016C011F5F103169F7E0904201F09069
:102C50004301009144011091450120E030E040E83B
:102C60005DE30E94CA18A80197010E94CA18E0906B
:102C70004601F0904701009148011091490120E080
:102C800030E040E85AE30E94CA18A80197010E9468
:102C900017172DEC3CEC4CEC5DE30E94CA189B012D
:102CA000AC01C801B7010E941817609346017093E8
:102CB00047018093480190934901609342017093CA
:102CC00043018093440190934501E0904201F090CC
:102CD00043010091440110914501C401B30120E07A
:102CE00030E040E85DE30E94CA18A80197010E9405
:102CF000CA1820E030E040E85AE30E94CA181F9149
:102D00000F91FF90EF90DF90CF90BF90AF909F908A
:102D10008F907F906F900895E4E6F0E080818F7B44
:102D20008083E0EBF0E08081826080831092B300CA
:102D300082E08093B100E0E7F0E0808182608083F0
:102D400008950F931F939B01AC0160E070E081E652
:102D500099E40E94801720E030E040E85FE30E94A1
:102D600017170E94E8178B019C01FB01CB016FEF45
:102D700070E00E94D419462F6F5FC80170E00E9476
:102D8000D419242F30E0862F90E0DC01A29FC001EF
:102D9000A39F900DB29F900D1124E81BF90B88277B
:102DA0009927821B930B03C0E80FF91F6F5FEF3F5A
:102DB000F10509F0C8F76150F89460934A01409317
:102DC0004C01E093550478941F910F9108951F9240
:102DD0000F920FB60F9211248F939F9380914D0104
:102DE000882351F080914B018093B30080914D0175
:102DF000815080934D0114C08BB198E089278BB925
:102E0000809156048093B30080914C0180934D01D2
:102E100080914A0180934B01809155048093560420
:102E20009F918F910F900FBE0F901F901895505843
:102E3000BB27AA270ED070C161D130F066D120F037
:102E400031F49F3F11F41EF456C10EF4E095E7FBF8
:102E50004CC1E92F72D180F3BA1762077307840758
:102E6000950718F071F49EF58AC10EF4E0950B2ECB
:102E7000BA2FA02D0B01B90190010C01CA01A001CC
:102E80001124FF27591B99F0593F50F4503E68F127
:102E90001A16F040A22F232F342F4427585FF3CF68
:102EA000469537952795A795F0405395C9F77EF439
:102EB0001F16BA0B620B730B840BBAF09150A1F082
:102EC000FF0FBB1F661F771F881FC2F70EC0BA0F08
:102ED000621F731F841F48F4879577956795B79590
:102EE000F7959E3F08F0B3CF9395880F08F0992788
:102EF000EE0F979587950895D4D008F481E0089552
:102F00000CD00AC102D140F0F9D030F021F45F3F7B
:102F100019F0EBC0511134C1EEC00FD198F39923D1
:102F2000C9F35523B1F3951B550BBB27AA2762178D
:102F30007307840738F09F5F5F4F220F331F441FD2
:102F4000AA1FA9F333D00E2E3AF0E0E830D091500A
:102F50005040E695001CCAF729D0FE2F27D0660FF7
:102F6000771F881FBB1F261737074807AB07B0E836
:102F700009F0BB0B802DBF01FF2793585F4F2AF04C
:102F80009E3F510568F0B1C0FBC05F3FECF3983E37
:102F9000DCF3869577956795B795F7959F5FC9F7A9
:102FA000880F911D9695879597F90895E1E0660F32
:102FB000771F881FBB1F621773078407BA0720F0AB
:102FC000621B730B840BBA0BEE1F88F7E095089514
:102FD000BCD088F09F5790F0B92F9927B751A0F037
:102FE000D1F0660F771F881F991F1AF0BA95C9F79D
:102FF00012C0B13081F0C3D0B1E00895C0C0672FD6
:10300000782F8827B85F39F0B93FCCF3869577954C
:103010006795B395D9F73EF4909580957095619535
:103020007F4F8F4F9F4F0895E89409C097FB3EF460
:1030300090958095709561957F4F8F4F9F4F992305
:10304000A9F0F92F96E9BB279395F6958795779583
:103050006795B795F111F8CFFAF4BB0F11F460FF43
:103060001BC06F5F7F4F8F4F9F4F16C0882311F09B
:1030700096E911C0772321F09EE8872F762F05C0AF
:10308000662371F096E8862F70E060E02AF09A954A
:10309000660F771F881FDAF7880F9695879597F93F
:1030A0000895990F0008550FAA0BE0E8FEEF1616D9
:1030B0001706E807F907C0F012161306E407F5072C
:1030C00098F0621B730B840B950B39F40A2661F0A0
:1030D000232B242B252B21F408950A2609F4A14043
:1030E000A6958FEF811D811D089597F99F6780E850
:1030F00070E060E008959FEF80EC089500240A944A
:103100001616170618060906089500240A941216C2
:103110001306140605060895092E0394000C11F4F5
:10312000882352F0BB0F40F4BF2B11F460FF04C0A2
:103130006F5F7F4F8F4F9F4F089557FD9058440FFB
:10314000551F59F05F3F71F04795880F97FB991F06
:1031500061F09F3F79F087950895121613061406C3
:10316000551FF2CF4695F1DF08C016161706180650
:10317000991FF1CF86957105610508940895E8942B
:10318000BB2766277727CB0197F908958ADF08F4D4
:103190008FEF08950BD0C0CFB1DF28F0B6DF18F065
:1031A000952309F0A2CFA7CF1124EACFC6DFA0F361
:1031B000959FD1F3950F50E0551F629FF001729FCC
:1031C000BB27F00DB11D639FAA27F00DB11DAA1FEB
:1031D000649F6627B00DA11D661F829F2227B00D38
:1031E000A11D621F739FB00DA11D621F839FA00DC3
:1031F000611D221F749F3327A00D611D231F849F13
:10320000600D211D822F762F6A2F11249F57504069
:103210008AF0E1F088234AF0EE0FFF1FBB1F661F04
:10322000771F881F91505040A9F79E3F510570F0BD
:103230005CCFA6CF5F3FECF3983EDCF386957795A5
:103240006795B795F795E7959F5FC1F7FE2B880FB8
:10325000911D9695879597F90895F8940C94E8191F
:10326000FB01DC0102C005900D9241505040D8F79F
:103270000895FB01DC0102C001900D9241505040C5
:10328000D8F70895FB01DC010D900020E9F71197B4
:1032900001900D920020E1F70895FB01DC010190FF
:1032A0000D920020E1F70895FB019F01423074F078
:1032B000453264F4642F77270E94D419805D8A33E5
:1032C0000CF0895D8193CB010097A1F71082C901B1
:1032D0000C94A519DC01CB01FC01F999FECF06C0C5
:1032E000F2BDE1BDF89A319600B40D9241505040C4
:1032F000B8F70895F999FECF92BD81BDF89A992744
:1033000080B50895A8E1B0E042E050E00C946C195B
:10331000DC01CB0103C02D910E9493194150504014
:10332000D0F70895262FF999FECF1FBA92BD81BD1F
:1033300020BD0FB6F894FA9AF99A0FBE0196089537
:103340000E949219272F0C949319DC01FC01672F1E
:1033500071917723E1F7329704C07C916D9370836C
:103360006291AE17BF07C8F30895629FD001739FA3
:10337000F001829FE00DF11D649FE00DF11D929F11
:10338000F00D839FF00D749FF00D659FF00D992750
:10339000729FB00DE11DF91F639FB00DE11DF91F74
:1033A000BD01CF0111240895AA1BBB1B51E107C029
:1033B000AA1FBB1FA617B70710F0A61BB70B881FC5
:1033C000991F5A95A9F780959095BC01CD01089554
:0433D000F894FFCF9F
:1033D4006314430000463D0030003030303000209C
:1033E400743D00303000204E3D002E300A0D0001A7
:0233F400BCE932
:103960000F931F93CF93DF93DA010FB7F894F99970
:10397000FECFAB0183E0FB0180935700E89507B6CB
:1039800000FCFDCFFA0111E0BA0160587F4F8C9125
:1039900011963C91119720E0E901C80FD11D1296B4
:1039A0000E0110935700E89511243296E617F70799
:1039B00071F785E0FA0180935700E89507B600FC9F
:1039C000FDCF81E180935700E8950FBFDF91CF9144
:0639D0001F910F91089504
:103B000000000000000000000000000000000000B5
:103B100000000000000000000000000000000000A5
:103B20000000000000000000000000000000000095
:103B30000000000000000000000000000000000085
:00000001FF
