:020000040000FA
:0402FC004433221154
:020000040000FA
:10100000581B0010E1100000E5100000E710000080
:1010100000000000000000000000000000000000D0
:10102000000000000000000000000000E9100000C7
:101030000000000000000000EB100000ED100000B8
:10104000EF100000EF100000EF100000EF100000A4
:10105000EF100000EF100000EF100000EF10000094
:10106000EF100000EF100000EF100000EF10000084
:10107000EF100000EF100000EF100000EF10000074
:101080002F15000069150000A3150000DD150000F4
:10109000EF100000E1180000EF100000EF1000005A
:1010A000EF100000EF100000EF100000EF10000044
:1010B000EF100000EF100000EF100000EF10000034
:1010C0000348854603F068F900480047AF28000050
:1010D000581B0010014800688746000030000000DF
:1010E00003480047FEE7FEE7FEE7FEE7FEE7FEE710
:1010F000C110000010B500248448406AC005000FEC
:10110000030003F086F910090B0D0F1113151719C1
:101110001B1D1F21232527297D4C1DE07D4C1BE035
:101120007D4C19E07D4C17E07D4C15E07D4C13E0C3
:101130007D4C11E07D4C0FE07D4C0DE07D4C0BE0D3
:101140007D4C09E07D4C07E07D4C05E07D4C03E0E3
:101150007D4C01E07D4C00BF00BF6C48406AC0067A
:10116000800E811C204602F095FC04466748403002
:10117000006B8007800F06D0012808D0022824D0F9
:10118000032872D124E07248724908606DE05F481C
:10119000403000688007800F06D0012808D0022860
:1011A0000AD003280FD10AE069486A4908600AE0BA
:1011B00067486849086006E06648046003E000206C
:1011C0006449086000BF00BF4FE0624804604CE023
:1011D0004E48403000688007800F06D0012818D0A4
:1011E00002282AD003283ED139E048488068FF21F0
:1011F0008131084203D056485649086008E0434808
:101200008068C006C00E401C5149484351490860DF
:1012100029E03E488068FF218131084203D04C48D4
:101220004C49086008E039488068C006C00E401C80
:10123000474948434749086015E034488068FF2122
:101240008131084202D04348046007E02F4880689B
:10125000C006C00E401C60433E49086003E0002009
:101260003C49086000BF00BF00BF00BF27484030B6
:10127000816B3848006802F00DFC3649086010BDEB
:101280003549896B20229143334A916300211F4ADB
:101290001162002001E000BF401CC828FBD30121DF
:1012A0001A4A4032116051600021516001215160A1
:1012B00000BF164940314968C907C90FF9D0A021BC
:1012C000124A51622449896B40229143224A916318
:1012D00001210E4A40321163516300215163012103
:1012E000516300BF09494031496BC907C90FF9D0A3
:1012F0000121064A403291631849044A8032116044
:10130000012151619161D16170470000008004406A
:10131000801A060020A1070000350C00E0C810006C
:10132000C05C1500006A180040771B0080841E0016
:10133000C0912100009F240040AC2700E03229002A
:1013400020402C00604D2F0000D4300040E13300DD
:10135000001BB70000000010008204405F00010085
:1013600010B5044618206043FE494018007D00284F
:101370003AD0012802D002283DD120E01820604355
:10138000F8490858401C18216143F64A505018206B
:1013900060431146085864280AD30321182060438B
:1013A000801801750021182060438018416010BD2D
:1013B000002118206043EB4A801841601BE0182090
:1013C0006043E8490858401C18216143E54A5050E1
:1013D0001820604311460858C82804D30321182058
:1013E00060438018017506E0012118206043DD4A42
:1013F0008018017500BF00BF002C01D101F002FE72
:1014000000BFD4E70160704702461068084201D06F
:10141000012070470020FCE702460B46032B01D158
:10142000022100E001211068084201D0012070472C
:101430000020FCE770B505460C4618206043C949FA
:101440004018007D012802D002286DD12FE02146EE
:101450002846FFF7E1FF002819D00021182060433B
:10146000C04A80188160182060438018C16018202D
:1014700060431150182060438018016118206043B8
:1014800080184160182060438018017570BDE96ABA
:1014900018206043B34A80188160022118206043FD
:1014A0008018017500211820604311503CE0E96A62
:1014B00018206043AB4A8018C16018206043114671
:1014C00040184068401C1821614389184860182062
:1014D000604311460858632825D321462846FFF764
:1014E0009BFF002819D00021182060439D4A8018D6
:1014F0008160182060438018C1601820604311503B
:1015000018206043801801611820604380184160F2
:101510001820604380180175B8E703211820604344
:10152000904A8018017500BF00BF00BFAEE710B53C
:1015300010218D48FFF768FF002807D010218A4846
:10154000FFF760FF02218848FFF774FF01218648FA
:10155000FFF75AFF002806D001218348FFF752FF0A
:101560000220FFF7FDFE10BD10B510217F48FFF7E8
:101570004BFF002807D010217C48FFF743FF0121D3
:101580007A48FFF757FF01217848FFF73DFF002811
:1015900006D001217548FFF735FF0120FFF7E0FE77
:1015A00010BD10B510217248FFF72EFF002807D09C
:1015B00010216F48FFF726FF00216D48FFF73AFF23
:1015C00001216B48FFF720FF002806D00121684861
:1015D000FFF718FF0020FFF7C3FE10BD10B5102164
:1015E0006448FFF711FF002807D010216148FFF77A
:1015F00009FF03215F48FFF71DFF02215D48FFF748
:1016000003FF00280BD00320FFF7AAFE5A4800680A
:10161000401C5949086002215648FFF7F3FE01219A
:101620005448FFF7F1FE002805D001F015FC012118
:101630005048FFF7E7FE10BDFEB504464F4D182099
:10164000604348494018007D032860D1182060435A
:10165000401880684A49091A18206043414A801896
:101660000161182060431146401801691820604349
:101670001058434A5043091818206043394A8018CB
:101680000161182060431146401801691820604329
:101690008018C0683A4A101A091A18206043314A63
:1016A00080180161182161438918086902F0CAFC99
:1016B000182161432B4A89180190486802F0C2FC46
:1016C00007463048006802F0BDFC3946009002F041
:1016D000A7FA0646019902F0E0FA05460021182013
:1016E0006043204A80188160182060438018C160E0
:1016F00018206043115018206043801801611820A1
:1017000060438018416018206043801801752846A6
:10171000FEBDF8B500244AE02046FFF78DFF0746DE
:101720001649384602F020FD00D13FE056212246FE
:101730004A431549501802F007FA064601F002F92B
:1017400005460021284602F00FFD22D029463846E2
:1017500002F05EFA7D21C905009002F061FA0646AA
:10176000294613E05C00001000C00040000001406A
:10177000004001400080014014000010000080BFC4
:10178000E02E0000000000107C07001002F0EFF9CE
:101790000746384601F0D6F8064656202246424310
:1017A00046481118304602F0D9F900BF641C042CD9
:1017B000B2DBF8BD10B5022041490862414800681B
:1017C000491508433F49086000203F49C8603E4929
:1017D000403108633D483C49886103204861052049
:1017E0008862122000F062F80120374948603448CE
:1017F0004038806B83210843314940398863314840
:101800000068091508432F49086000203049C86066
:101810002F49403108632D482D49C8610846406969
:10182000182108432A49486105208862132000F0E6
:101830003DF8012026494860022021498039C861CD
:1018400020480068802108431E4908600020214983
:10185000C8602049403108631C481E498861032044
:10186000486105208862102000F020F80120194905
:101870004860134980394861124800688915084357
:101880001049086000201449C860134940310863BA
:101890000E481149886103204861052088621120A3
:1018A00000F004F801200C49486010BDC206D20EB9
:1018B00001219140094A1160704700007C07001027
:1018C000804004408080044000400140E02E000041
:1018D0000080014000C000400000014000E100E045
:1018E000F8B500BFC2488068C4B264106407640FD2
:1018F000032C09D1BE484069C6B29E20064203D0DF
:10190000BB480068C7B2F8BD022C1BD115E0B9482E
:1019100002F01AF90546B749401C02F01FF9B54814
:10192000001DB34909684155001F02F00DF9FA285E
:1019300003D1B049002002F011F9AD484069C00759
:10194000C00FE4D1062C1ED115E0AA4802F0FCF825
:101950000546A849401C02F001F9A648001DA4490B
:1019600009684155001F02F0EFF8FA2803D1A14998
:10197000002002F0F3F89E484069C007C00FE4D190
:1019800002219D488171012C1DD19B48801C02F0D1
:10199000DBF805469848801E02F0D6F885420FD243
:1019A0009548801C02F0D0F805469349891C401CDC
:1019B00002F0D4F88F48001D405D8D49086002E0B8
:1019C00001208E49087000BF9DE7F0B589B004463C
:1019D0000D468B480068000908900020079006908B
:1019E0000027012004900020039002900190854878
:1019F0000090012646E0002005903AE0059AB118D3
:101A0000089A7243104602F045F806902946069857
:101A100002F040F807462946069802F03BF86808AD
:101A2000814200D97F1C022F20D901200004874267
:101A30001CD23946069802F02DF807900798A84264
:101A400003D80798281A019002E00798401B0190DC
:101A500000990198884209D204960598039002974C
:101A6000019800900198002800D105E00598401CDD
:101A7000059005980F28C1D900BF0198002800D112
:101A800002E0761C0F2EB6D900BF690068186421E9
:101A900002F000F80099884217D9E06880210843D5
:101AA000E06002980004000E60600298C0B22060FE
:101AB000E0684006400EE06004980001F021084014
:101AC00003990907090F0843A06209B0F0BD10B5DA
:101AD00004461520012181404B4A116000BF4B484C
:101AE000406AC008C000494948620846406A01216E
:101AF0000843464948620846806AC008C0008862B8
:101B00000846806A012108434049886240480068CD
:101B10000121090308433E490860012088618320B0
:101B20003349C86021463248FFF74FFF072030494C
:101B3000886008468068402108432D49886000BFBE
:101B40002B484069602108406028F9D102E028490B
:101B5000086800BF26484069C007C00FF7D10320BE
:101B600023494860152001218140274A803A1160AD
:101B700000BF10BD70B505461F49891E284601F0FB
:101B8000EDFF1D49891C002001F0E8FF00BF184847
:101B9000406940210842FAD00020184908701648D0
:101BA000801C01F0D1FF04461349891C401C01F040
:101BB000D5FF1048001D005D0D49086000BF0F48AB
:101BC00000780028FBD070BD10B50B488079022842
:101BD00003D1084801F0B8FF10BD0020FCE710B5A4
:101BE0000021054881710349002001F0B7FF10BDB5
:101BF00000800040BC000010BC0100100800001074
:101C000000000010A086010080E100E08040044058
:101C10008080044010B5274800680121C9030843AB
:101C2000244908602448806B402188432249886306
:101C300001202049403108614861002048610120AD
:101C4000486100BF1B4840304069C007C00FF9D051
:101C500001201849403188611848006880081849F7
:101C60004860AA20886055208860084600680321E3
:101C700008431349086001220021022000F02FF8D8
:101C800010BD10B50F480078012148400D4908707B
:101C900008460078002801DC012000E00020024610
:101CA0000021022000F010F8AA2005498860552084
:101CB000886010BD80800440008204400000001055
:101CC000004000400900001030B513468B408400EE
:101CD000164D2D5901248C40A4002B5130BD30B538
:101CE000002A11D08300114CE3580124E4031B198E
:101CF0001B6801248C40234384000C4D2C59012582
:101D0000ED036419236010E08300084CE3580124BC
:101D1000E4031B191B6801248C40A3438400034D7A
:101D20002C590125ED036419236030BD30470000B4
:101D3000FC4800787047FB4908707047F3B581B0E4
:101D40000746F94801461439401A86B2029800F055
:101D5000E6FC04467800B04205D1002C01D0042CEA
:101D600001DD0020FEBD002519E0029800F0D7FC3F
:101D70000446562029464143EB48001D08185430BC
:101D8000E9491439401A86B27800B04205D1022CD4
:101D900001DB1E2C01DD0020E4E7681C85B2E2496E
:101DA0001439888A00F0BBFCA842DEDC0120D9E7A8
:101DB000F8B5064670780002B178084305463079D8
:101DC0000002F17808430090D848854207D1684660
:101DD000008800F0A4FC7B2801D1FFF77BF9FF20ED
:101DE000B930854243D22C46DC2C02D32846DC385D
:101DF00084B2684601882046FFF7A0FF002803D17F
:101E0000032000F0E2F935E0DC2D0BD36000C64979
:101E100014394018694609880180C548C2491439F7
:101E2000088020E068460088002802D068460188C3
:101E3000009100F04BFC07466000C0196946098814
:101E40000180384600F054FC6000B749143940184E
:101E50006100B84A1268891809880180B448B249FB
:101E60001439088000BF052000F0A6F902E0022026
:101E700000F0ABF9F8BD70B5044660780002A178B7
:101E800008430546E07800022179084306467006BB
:101E9000000E6070DC2D14D2A819DC280DD86278F1
:101EA0006800A14B143BC118A01C01F009FE617829
:101EB000891CC8B200F080F906E0032000F085F923
:101EC00002E0022000F081F970BDF8B50446A01CC4
:101ED00001F03AFE3B210902451A00279648854247
:101EE00003D9022000F071F9F8BD00F0EFFB0646BF
:101EF000A07940190F218901884203D9A07940199E
:101F0000471A00E0A7793146FF31B93148193A46FE
:101F1000E11D01F0D5FD304600F0EAFB072000F09E
:101F20004BF900BFE0E770B50446A01C01F00CFEC1
:101F30000546A079F52803DD032000F046F970BDC1
:101F40006078002814D13B2000022D1AA079401996
:101F500013218901884203D9022000F036F9EEE707
:101F6000A279764800684119E01D01F0A9FD03E05F
:101F7000032000F02AF9E2E700BFA179C91DC8B229
:101F800000F01AF900BFDAE738B50446E17968468F
:101F90000170A1794170617981702179C170E1226C
:101FA000D2010098811A904226D013DC644A811A2B
:101FB00090421ED005DC6349401A18D0401A20D147
:101FC00016E04B208001081A14D04B218901401AD9
:101FD00017D110E05A48081A0FD04B210902401AB5
:101FE0000CD0401A0BD04900401A0AD108E000BFBB
:101FF00000BF00BF00BF00BF00BF00BF00BF00BFE9
:1020000003E0032000F0E1F838BD00BF607802284B
:1020100019DAA078002816DDE078002813DD00F03A
:1020200055FB0546A07844490C3969180872000A26
:102030004872414808382918009801F08FFD284659
:1020400000F056FB03E0032000F0BFF8DCE70C20B3
:1020500000F0B2F83748006837490839401801F0F5
:1020600073FD0546FFF733FD00BFCDE770B50446AD
:102070000D462078452818D006DC042809D006280B
:102080000BD008281ED118E046280AD0472819D1BD
:102090000FE02046FFF7EFFE18E02046FFF788FE2E
:1020A00014E02046FFF73FFF10E02046FFF70DFF4A
:1020B0000CE02046FFF768FF08E02946204600F0C4
:1020C0009AF803E0012000F080F800BF00BF70BD67
:1020D00070B515481438C088002804D01248143848
:1020E000C08A00281CD000F0FFF80446002C10D055
:1020F000FFF71EFE0546214600F0C6F8002808D06E
:1021000000201149C872E1B210480068401CFFF776
:10211000ADFF204600F0BDF9002C01D0FFF75FFDB8
:1021200070BD00000A00001078070010FB030000DB
:1021300015220000180000108D0500001C00001082
:102140008025000060090000441900100400001000
:1021500067480078704766490870704770B5064652
:102160000C46FC2C11DD6348C088401C6149C880C6
:10217000614800684078802108435F4909684870D9
:1021800003205D490968887002245B480068067076
:102190005A4A611C5848006800F05EFA05465648E5
:1021A0000268601C1554280A53490A68A11C50543F
:1021B000E01CFFF7DFFC70BD70B50446FFF7C8FFF9
:1021C00005462146FFF7CAFF70BD10B504464948D1
:1021D000C088401C4749C880474800684078802133
:1021E00008434549096848704348006884700220E4
:1021F000FFF7E2FF10BD70B504460E46A0780B282D
:1022000013DBA078122810DCA0780A384000394986
:1022100040184078E070A0780A384000085C2071CF
:1022200005263046FFF7C8FF70BDA07800280CD007
:102230000A280BD1012505E0002069002D4A5052E3
:10224000681CC5B2092DF7DB04E003E00120FFF7AD
:10225000BCFFE9E700BF3046FFF7AEFF00BFE3E792
:1022600010B50446A01E81B2244A2348006800F03D
:10227000F3F92149096809192039C98B884201D02D
:10228000032010BD0020FCE770B505460C46042C69
:1022900023DBFA2C21DC2046FFF7E2FF002816D1D1
:1022A00014484088401C134948801348006800784F
:1022B000002804D0104800680078A84212D10D48C8
:1022C0000089401C0B490881E01EC0B270BD09485E
:1022D0008088401C0749888004E006488088401CAC
:1022E000044988800020F1E710B5FFF76DFC10BDB0
:1022F0000A000010C401001004000010FFFF0000DD
:10230000C14800787047C0490870704770B50546ED
:102310000026002408E0BD490968085D314600F048
:1023200085F90646601CC4B2681EA042F3DC304644
:1023300070BD10B50446B54800680078312822D138
:10234000032C20DDE0B2FFF7E1FF611EAF4A126807
:10235000515C88420BD1AD4800684078AC490870A8
:10236000AA4800688078AB490870042010BDA748CF
:1023700000684078A6490870A44800688078A5499C
:1023800008700320F2E70320F0E701469F48006849
:102390000078442819D19D48006840784F2807D11B
:1023A00078209C4A10700520994A107004207047CC
:1023B000964800684078502807D17920954A1070D7
:1023C0000520934A10700420F1E70320EFE710B5D1
:1023D0000446032C01DA002010BD2046FFF7D5FF8C
:1023E000042801D10120F7E72046FFF7A2FF0428C7
:1023F00004D00120884908700020EDE78748007A62
:10240000002805D182480078FF2801D10120E3E7A8
:10241000FFF776FF7E490978884207D07C4800782C
:10242000002805D07A480078062801DC0120D3E78F
:102430000120794908700020CEE710B500207649C8
:1024400008703E20714909680870714800786F492A
:10245000096848706F4800786C490968887070484E
:102460000078FFF753FF6E490978491E674A1268E2
:1024700050546B480078FFF77DFB10BD10B500206D
:1024800062490968C870052065490870FFF7D5FFE3
:1024900010BD10B504466148C07A00281DD05F48C1
:1024A000807A7D21C90048435E490968884214D278
:1024B000FFF726FF564908705B480078022806D1CE
:1024C000072054490870022001F0D8F802E00120EA
:1024D00001F0D4F80020534908602046FFF777FF49
:1024E00000287CD000204D49C8724A4800780C284A
:1024F0004FD009DC030001F08CFF0C6E1F22252851
:102500002B2E38404346496E132854D007DC0D3833
:10251000030001F07EFF06414447604A4D601728E2
:1025200053D004DC142849D0152854D14AE0782827
:1025300015D079284FD11CE000F0BFFF4EE000F02D
:10254000BDFF4BE000F0DEFF48E000F0F8FF45E0A3
:1025500001F012F842E0022001F090F83EE001F0B4
:1025600012FA012001F08AF838E0022001F06FF938
:1025700034E0012001F06BF930E001F09DF92DE02D
:1025800001F0A0F92AE001F0A3F927E001F0A4F995
:1025900024E001F0A5F921E001F0A6F91EE001F028
:1025A000A7F91BE001F0ACF918E001F0A9F915E07A
:1025B00001F0AAF912E001F0ABF90FE001F0CDF95A
:1025C0000CE00CE001F0D4F908E010490968C87883
:1025D00001F0F7F902E0FFF751FF00BF00BF10BDA7
:1025E00010B500200C4908700D480078FFF7C2FABA
:1025F00010BD10B5012005490968C87005200849BB
:102600000870FFF71AFF10BD0A0000100400001048
:102610000C0000100D0000100E00001044190010F6
:102620000F000010140000101000001002460823D4
:1026300000BF10464840C007C00F05D018204840D2
:1026400040100146803100E049105210581EC0B2BF
:102650000300EED108467047F0B5034613E01C783E
:102660005B1C1046074667403846002508E0C60751
:10267000F60F4010002E01D0064F78406F1CFDB2BF
:10268000082DF4DB024608464C1EA1B20028E6D114
:102690001046F0BD01A00000B04800787047AF4977
:1026A00008707047AE48C06B70210840702803D195
:1026B0000020AC49087008E0A948C06B60210840C0
:1026C000602802D10120A7490870704710B5A64ABA
:1026D000A6480168A64801F0F3F9A54810BD38B531
:1026E000044604222146684601F0EAF9009838BD04
:1026F00070B5044600BF9F4A9B49891E2046FFF7DC
:10270000ABFF054698480C3820188572290AC1721B
:10271000954A21469548006800F025FD70BD01B539
:1027200069460A78487808704A706846008808BD8B
:1027300070B5FFF7CBFF04468E4A8B49891E8B4844
:102740000068FFF789FF05468848006886490C390C
:102750004118C87A897A00020843A84267D08249A2
:10276000204601F0C6F90220FFF7D9FF01462046B6
:1027700068300171090A41710220FFF7D0FF01465C
:102780002046BE300171090A41710220FFF7C7FFE0
:1027900001462046FF3015300171090A41710220BF
:1027A000FFF7BDFF01462046FF306B300171090A7B
:1027B00041710120FFF7B3FF2075000A6075AF205B
:1027C000C00021186C4801F0C9F90020AF21C900F0
:1027D000611808714871AF21C90061188871C8710A
:1027E000AF21C90061180872AF21C9006118487291
:1027F0000120AF21C900611888720020AF21C900F3
:102800006118C872AF21C900611808736320564966
:102810000C39611808720020487253480838211892
:102820004B20000201F09AF92046FFF761FFFF22DA
:10283000B9324E480168514801F042F94E484F49BB
:1028400008800D2249480068AF21C90041184C4852
:1028500001F036F970BD10B544480068FF30B9305A
:1028600048490860FFF71EFFFFF762FF00F005FE12
:10287000012203210020FFF732FA3C4800683A4960
:102880000839401801F060F90446FFF720F9FEF717
:1028900091FF34480078002802D100F075FA05E075
:1028A00030480078012801D100F03AFB10BD86B015
:1028B000FEF7E6FCFFF7AEF9002004900390FFF767
:1028C000CAFF2AE0FFF7DDF9FFF702FC00F099F9F3
:1028D000039024480078002815D12B48006801F0A7
:1028E000FBFB04460022294B01F0CCFA0022284BC6
:1028F0000191009001F012FA064601F019FC0290D5
:1029000000F05AFA05E017480078012801D100F0DC
:102910001AFB0499039800F062FBD3E730B5024636
:10292000002009E0135C0C1A641E145D14540C1A88
:10293000641E1355441CE0B2CD0F6D186D10854216
:10294000F0DC30BD01B569460A78C8780870CA70F5
:102950004A78887848708A70009808BD0A0000108C
:10296000C03F0250240000108D0500001800001028
:10297000D6010010FFFF00001522000064070010C0
:10298000441900101C0000102800001000408F4067
:1029900000407F4070B5044656216143E84A8918DB
:1029A0004031888AFFF7BBFE401E85B2F0216143AB
:1029B000E44A12688918AA008818FFF790FE70BDD3
:1029C000F0B587B0054656206843DD4946183046C5
:1029D00001F0BAF80190FFF7B5FF07462846FFF768
:1029E000D9FF0690D849069801F0BEFB01D2D6481F
:1029F0000690284600F09AF9D449009001F008F9B1
:102A00003946019001F0B0FB21D8D049069801F079
:102A1000AEF83946019001F0B1FB18D8284600F015
:102A200085F93946019001F0A9FB03D2284600F050
:102A30007DF907462846FFF7ADFF3946019001F0C2
:102A400093FB07D22846FFF7A5FF074602E00020C8
:102A500007B0F0BD314650314A790B791102194364
:102A60000846FFF75CFE801EC4B201E0601EC4B2DF
:102A7000F0216943B34A12688918A2008818FFF749
:102A80002EFE3946019001F079FB01D2002CEDDCDD
:102A9000F0216943AB4A12688918A2008818FFF731
:102AA0001EFE0590F0216943A64A12688A18611C2F
:102AB00089005018FFF713FE0490F0216943A14AE2
:102AC000126889187831A2008818FFF708FE039071
:102AD000F02169439B4A126889187831621C920080
:102AE0008818FFF7FCFD02903846059901F090F830
:102AF00001900399029801F08BF80090019901F080
:102B00008FF806900599049801F082F8014601902B
:102B1000069801F0C2F806900399069801F027F88C
:102B20000690069801F0D8FA0022894B0191009096
:102B300001F0EAFA06D28749069801F015FB01D2A6
:102B4000069885E7002083E770B50025002409E09A
:102B50002046FFF735FF0646294601F008F80546EE
:102B6000601CC4B276491839888AFFF7D8FDA042A4
:102B7000EEDC284670BDF8B5002500241AE0562189
:102B800061436F4A89184031888AFFF7C8FD401EAB
:102B900086B2F02161436B4A126889187831B2001D
:102BA0008818FFF79CFD0746294600F0E0FF054620
:102BB000601CC4B262491839888AFFF7B0FDA04290
:102BC000DDDC2846F8BD70B5FFF7D5FF0446FFF7FA
:102BD000BBFF0546214601F060F80646304601F08D
:102BE0007BFA044600225A4B01F08EFA07D20121EB
:102BF0008907304601F0B8FA01D2304670BD002096
:102C0000FCE7F0B587B04E491839888AFFF787FD91
:102C10000546FEF77EFD042D00DD0025002418E0AA
:102C200000204D490855562122464A434449501830
:102C300000F08AFF0746FFF785FE06467F21C9059B
:102C4000304601F091FA02D2032043490855601C36
:102C500084B2AC42E4DBFFF7B6FF404908600846A7
:102C60000068FFF76FFE07463549103900F076FF20
:102C70003A4800683A4908603A480078002845D147
:102C8000002440E0562122464A432D49501800F0C6
:102C90005BFF0746FFF756FE06463349304601F014
:102CA00063FA2ED23149304601F068FA13D2314628
:102CB0002F4800F0ADFF074601F00EFA00222D4B21
:102CC0000391029001F046F90591049001F030FA69
:102CD0002249086014E0204601F0BCF9264A274B3F
:102CE0000191009001F0CEF8254A264B0391029005
:102CF00001F014F80591049001F01AFA17490860E0
:102D000003E0601C84B2AC42BCDB00BF002409E0DD
:102D10001148005D032803D1A01CC0B207B0F0BD6C
:102D2000601C84B2AC42F3DB0020F7E710B5044628
:102D3000F0216143034A12688818FFF7D0FC10BDE8
:102D40007C0700101C0000100080BB4400004842BB
:102D50000000F0BF0050C3473000001028000010F2
:102D60002C000010240000100000E1430000484344
:102D70000000FA4300408FC07B14AE47E17A943FD5
:102D8000EC51B81E85EBD1BF10B50122114610469B
:102D9000FEF7A5FF03205849C86358485849886181
:102DA0000846406901210843554948611020C8631D
:102DB00000205449087010BDF0B587B0064600BF2A
:102DC000504800780028FBD101218907304600F0E7
:102DD00027FF06464C48006801F034F9314601905F
:102DE00000F05BFF074601F077F90022474B0391A3
:102DF000029001F038F80591049001F04FF9044673
:102E0000002C01D107B0F0BD3C49204600F042FE45
:102E1000401C3F49488008464188204600F03AFE61
:102E20003B49088008464088401E48800846008884
:102E300049884843251A02E0354800882D1A2F4852
:102E40008542F9D832498D8001202E490870002032
:102E50003049087000BFD5E72E480078002800D020
:102E600070472D480088002817D0254880692B49D5
:102E70000988401822498861084680691F498842AC
:102E800005D91F488069401A401E1D4988612248A3
:102E90000088401E204908802CE01948C06B302172
:102EA00048401749C863084680691C49898840180A
:102EB00013498861084680691049884205D910483D
:102EC0008069401A401E0E4988610E48007800282B
:102ED0000CD00F484088114948800D480088088070
:102EE0000B48808888800020064908700B4840887D
:102EF0000949088000BFB3E740400440E02E0000CD
:102F00000080014034000010000000100000F03F7D
:102F10003800001035000010360000103E00001090
:102F2000254826494862886124484030406B012189
:102F300008432249403148632148C06B832108433C
:102F40001F49C8637047F0B58BB01E480990002038
:102F500008901D4800F0F8FD0546FFF7F3FC044615
:102F60001A480168204600F05BFE0890099801F0BD
:102F7000B3F80446164A174B00F084FF0191009005
:102F8000089801F0A9F80646019B009A00F0E2FFBC
:102F90000022114B0391029000F074FF00220E4BAF
:102FA0000591049000F065FF0791069001F076F816
:102FB000024988610BB0F0BDE02E000000800140A6
:102FC0004040044009F294407407001028000010AB
:102FD0006666666666660A400070C74070470028ED
:102FE00004D04206120E254B1A707047002904D0F7
:102FF0004A06120E214B1A70F7E700221F4B1A7077
:1030000000BFF2E710B51E480068002805D01C4834
:103010000068401E1A4908602EE01A480068012125
:1030200048401849086008460068002801DC012073
:1030300000E00020024603210020FEF745FE124872
:103040000078401C10490870084600780B49097840
:1030500088420EDB002203211046FEF735FE0120D8
:1030600008490860002008490870084804490860B9
:1030700002E0C8200249086010BD000044000010B2
:1030800048000010500000104C000010B80B000069
:1030900062B6704770B504460E46534D3146204621
:1030A000A84770BD72B67047F8B504460D4616467F
:1030B0001F460098FFF7F6FF33204C49086008468A
:1030C00045608660C76004614949FFF7E3FF0098E7
:1030D000FFF7DEFFF8BD70B504460D4616463220F8
:1030E00042490860084644608560C6604049FFF771
:1030F000D1FF70BD70B504460D46164634203B49DD
:103100000860084644608560C6603949FFF7C2FF21
:1031100070BD70B506460D463846FFF7C3FF07245D
:103120001AE0A00033490858A84214D9A000324937
:103130000858A84209D1324621462046FFF7CBFF66
:10314000324621462046FFF7D5FF3246214620462B
:10315000FFF7C1FF02E0641C072CE2D900BF38462C
:10316000FFF796FF70BDF8B504460E461746234894
:103170000090200B0503012212032946204800F08D
:103180009FFC1F490919481B3A46314600F098FC3C
:103190001C480560012000031B49086008460068C0
:1031A0000121090388421DD1164801680098FFF7E4
:1031B000B0FF0F480068002801D000BFFEE70123E0
:1031C0001B030F4A0F4801680098FFF76DFF08487E
:1031D0000068002801D000BFFEE700200A4908600F
:1031E000084908600020F8BDF11FFF1F1C090010EE
:1031F00030090010B847000040470000E02E0000F2
:10320000440900105400001058000010FE480078D7
:103210007047FD4908707047F0B585B0FFF7F6FFBD
:10322000FA490978884224D1F948006800F054FF2F
:1032300006460022F74B00F025FE044600F02EFF64
:1032400080B2F5498871000AC871F148006800F041
:1032500043FF06460022F14B00F014FE044600F046
:103260001DFF80B2EC490871000A487100204872C5
:1032700001E1E648007805282CDAE4490978491E7E
:1032800056224A43E649501800F05EFC0546FFF717
:1032900059FB044600F0ECFE81B2DF480171090AD7
:1032A000417102465179127909021143084600F032
:1032B000D1FE06460022D74B00F0E4FD044600F0A4
:1032C000EDFE81B2D4488171090AC1710020D24952
:1032D0004872D0E0CD480078052803D0CB4800786C
:1032E000FF287DD1C9490978491F56225143CC4A4C
:1032F000881800F029FC0446FFF724FB0490C3491A
:103300000978091F56224A43C549501800F01CFC91
:103310000446FFF717FB0390049800F0A9FE81B262
:10332000BD480171090A4171049800F0D5FE0646B6
:103330000022B84B00F0A6FD044600F0AFFE81B2BB
:10334000B5488171090AC171B649039800F00CFFB4
:1033500031D2039800F08CFE0004000C03D1FB2056
:10336000AD4948725DE0039800F082FE81B20846E4
:10337000FF38553803D1FC20A749487251E0039823
:1033800000F076FE80B20146FF39913903D1FD206D
:10339000A149487245E0039800F06AFE80B20146F8
:1033A000FF39A53903D1FE209B49487239E0FF213E
:1033B0009948417235E09C49039800F0D5FE01D24E
:1033C000994803909949039800F0D8FE01D2974894
:1033D000039000200290039800F07EFE044600E077
:1033E00023E00022924B00F03EFD06460022914B66
:1033F00000F048FD0191009000F09AFE02900298C2
:1034000000F06AFE04460022824B00F0A3FD06464F
:1034100000F08EFE0290029800F02AFE7E4948726B
:1034200000BF05207949087025E078480078062813
:1034300021D18148006800F04FFE0022754B0391B6
:10344000029000F01FFD044600227C4B00F066FC59
:10345000064600F023FE81B26F488171090AC171EE
:103460000146C8798979000208436B490871000A4E
:1034700048710020487205B0F0BD6748C07A002846
:1034800006D001206449C87202206D4908700CE022
:103490006148007B002805D001205F49C872684957
:1034A000087002E000205C49C8725B48807A0028FE
:1034B00002D10120584988727047704710B55648AC
:1034C00000F042FB000E5F4909688871524800F025
:1034D0003BFB0002000E5B49096848714E4800F052
:1034E00033FB0004000E5749096808714A4800F090
:1034F0002BFB54490968C870082053490870FEF72F
:103500009CFF10BD70B5FFF781FE404909788842E5
:1035100000D070BDFFF7DAF805464A480068C47865
:103520004A4828180472210A41722846FFF7E0F839
:103530002046FFF76EFEFEF7A1FF00BFE9E710B5DA
:10354000FFF764FE31490978884200D010BDFFF7CB
:10355000BDF804463B480068C0782F490872084609
:10356000007AAF21C900611808722046FFF7C0F841
:10357000FEF784FF00BFE9E710B5274800F0E4FA42
:10358000000E304909688871234800F0DDFA000216
:10359000000E2C49096848711F4800F0D5FA000454
:1035A000000E2849096808711B4800F0CDFA25492A
:1035B0000968C87000202349096808722149096810
:1035C000C8712049096888721E49096848721D49F6
:1035D000096808731B490968C8721A490968487361
:1035E00018490968C8731749096888731549096833
:1035F000487414490968087404480078FF2829D1E0
:1036000005201049096823E00A0000100C00001092
:103610002C00001000408F404419001000F88F402B
:103620007C0700100000E1430000FA430080BB4427
:1036300000407F4000406F402800001000487F405D
:1036400010000010040000100F00001081050000A1
:10365000887404E0F9480078F94909688874F948E1
:10366000007AF7490968C8740020F54909680875A7
:103670001620F5490870FEF7E0FE10BD7CB5064641
:10368000022E2ED1FFF7C8FDEE48407AEC490968BA
:10369000C870EC494879097900020843E84909688B
:1036A0000871E84948790979000208430012E449A1
:1036B00009684871E349C879897900020843E049FB
:1036C00009688871DF49C8798979000208430012C6
:1036D000DB490968C8710920DB490870FEF7ADFEB7
:1036E00096E0FFF799FDD6480068D8A109780170E7
:1036F000D7A1D348006800F008FAD249C87989797F
:10370000000208430246D3A1684600F057FE68460F
:1037100000F009FA0446042C0CDA002505E0CEA1DD
:10372000C748006800F0F1F96D1C0420001BA84296
:10373000F5DC05E0042C03DDC8A1684600F0FBF9C8
:103740006946BF48006800F0E0F9C6A1BC480068BF
:1037500000F0DBF9BB48427ABEA1684600F02EFEBD
:10376000684600F0E0F90446022C0CDA002505E07A
:10377000B9A1B348006800F0C8F96D1C0220001B15
:10378000A842F5DC05E0022C03DDB7A1684600F095
:10379000D2F96946AA48006800F0B7F9B3A1A84871
:1037A000006800F0B2F9A749487909790002084396
:1037B0000246A8A1684600F001FE684600F0B3F991
:1037C0000446042C0CDA002505E0A3A19C480068FF
:1037D00000F09BF96D1C0420001BA842F5DC05E0FD
:1037E000042C03DD9DA1684600F0A5F969469448C4
:1037F000006800F08AF99EA19148006800F085F900
:103800008F48006800F08FF98F490870FEF7E8FED6
:103810007CBD10B5FFF7FAFC88490978884200D0D2
:1038200010BD95480068AF21C9004018007B0028F2
:103830000BD1FEF74BFF04460120AF21C9006118F0
:1038400008732046FEF754FF00BF00BFE8E770B5DD
:103850000446022C0ED1FEF711FE022087490870A3
:1038600001207849C8720846807A002823D10120B7
:10387000887220E080480068AF21C9004018C07AF3
:1038800000280BD0FEF722FF05460020AF21C9001B
:103890006918C8722846FEF72BFF00BFFFF7B9FF73
:1038A0000120764908706749C8720846807A002866
:1038B00001D10120887270BD10B5FFF7ADFCFEF795
:1038C000DDFD10BD10B5FFF7A7FCFEF7D7FD10BD5D
:1038D00010B5FEF7D3FD10BD10B5FEF7CFFD10BD3E
:1038E00010B5FEF7CBFD10BD10B5FEF7C7FD10BD3E
:1038F00010B5FEF7C3FD10BD10B5FEF7BFFD10BD3E
:1039000010B5FEF7BBFD10BD10B5FEF7B7FD10BD3D
:1039100010B5FFF77BFC49490978884202D0FEF7D1
:10392000ADFD10BD46480068C0784649887208461B
:10393000807A002801D101208872FEF7C7FE044674
:103940004048807AAF21C900611888722046FEF78E
:10395000CFFEFEF793FD00BFE3E710B50020384926
:103960000968C870052038490870FEF766FD10BD6B
:1039700010B5002032490968C87005203249087026
:10398000FEF75BFD10BD10B5FFF740FC2B49097831
:10399000884200D010BD38480068AF21C9004018E7
:1039A000007B00280BD0FEF791FE04460020AF21DB
:1039B000C900611808732046FEF79AFE00BF00BFD9
:1039C000E8E770B50546FFF721FC1C4909788842F5
:1039D00002D0FEF753FD70BDFEF778FE0446002DC1
:1039E0000AD10020AF21C9006118C8722046FEF735
:1039F0007FFEFFF7C8FF1CE0012D0ED1FFF7C3FFCC
:103A000001201049C8720846C07AAF21C900611868
:103A1000C8722046FEF76CFE0BE0022D09D1FFF7BD
:103A2000F8FE0020AF21C9006118C8722046FEF7D9
:103A30005FFEFEF723FD00BFCDE700000C00001085
:103A400004000010441900100F00001000000000D6
:103A5000463D000025580000300000003030303076
:103A60000000000020743D0030300000204E3D007A
:103A70002E300A0D00000000180000101000001089
:103A800003480068AF21C9004018007B7047000060
:103A90001800001030B50B460146002020220124FA
:103AA00009E00D46D5409D4205D31D469540491B72
:103AB0002546954040191546521E002DF1DC30BDBB
:103AC00003460B439B0703D009E008C9121F08C037
:103AD000042AFAD203E00B78491C0370401C521EE2
:103AE000F9D27047D2B201E00270401C491EFBD2ED
:103AF00070470022F6E710B5044608461146024614
:103B00002046FFF7EFFF204610BD034600E0401CB3
:103B10000278002AFBD10A780270491C401C002A56
:103B2000F9D1184670470146002000E0401C0A5CAD
:103B3000002AFBD1704703460A780270491C401CDA
:103B4000002AF9D118467047001D0321401E037852
:103B500012021A43491EF9D5104670470346032244
:103B60000870491C000A521EFAD518467047F8B56D
:103B700002464A40D40F42004B0052085B089A426A
:103B800002D20246084611464A0023D0C30D4A001D
:103B9000DDB2120EAD1A202D35DA49020126490A8E
:103BA000F6058A19002C00D0524220214F1B1146E5
:103BB000B9402A411018C20D9A4221D0002C17D0CA
:103BC000012D08DCDA05801AD20F8019D207DBB28A
:103BD00000F047FBF8BDDA05801A012340001B0600
:103BE000C01880185A428018CA0F1043490007E0D5
:103BF0004908C2071143DA05801A80194008801865
:103C000000F027FBF8BD61000122511A001BF7E705
:103C10000122D2075140AAE70122D2075040A6E76D
:103C2000024670B54A40D30FDB0740002DD04A0052
:103C30002AD0010E140E091900021202400A520A7B
:103C40008418E50104465443000A120A2E04504326
:103C5000A4194219200CC543AA18120C01257F395A
:103C6000521CAD0352191204240400D0521C1043FC
:103C700001D44000491EC2B20C06C0092018401CE5
:103C80004008802A02D003E0002070BD40084000B8
:103C9000002900DA0020184370BD70B502464A4082
:103CA000D50F40004A00ED0740085208002816D002
:103CB000002A14D041000C0E51000B0E41020120CD
:103CC000C0055202490A520AE41A091812187D3432
:103CD000914201D3641C00E04900002C01DA00206D
:103CE00070BD0023914201D3891A03434008490063
:103CF0000028F7D100290AD0914202D10121C90739
:103D000005E0914201D2012101E00121C943E00512
:103D1000C018401900F09DFA70BD0000F0B50746CC
:103D20000846584087B0C00F049048000C46590020
:103D300040084908BD1A884105D238462146174631
:103D40001C4602460B4658004008104303D1384633
:103D5000214607B0F0BD200D039040055900400DED
:103D6000490D0590401A029040286FDA180301218E
:103D7000000B09050843019004980092002806D022
:103D80001146019A49420020904100910190029809
:103D900040210A1A0199009800F027FA06460D46BC
:103DA000684607C800F042FAC0196141039A0B0D3A
:103DB000D71753403B4343D0049A002A2BD0029A92
:103DC000012A039A12DC12050023C01A9141012432
:103DD0002405001C6141D20F059CD207009301927B
:103DE000029432462B4600F083FAB2E71305244AC8
:103DF0000F469C180022801A9F4101210905001CD2
:103E00004F4100187F41101821467941EA0F1043B5
:103E1000B6196D4114E0EA076D08C3071D43760823
:103E2000039B164300221B05801A99410124240597
:103E3000001C6141CC0740082043490880185941C3
:103E400032462B4600F047FA83E7FFE70498012249
:103E50004000C117121A00238B4104982146C51750
:103E6000381AA941EEE730B40124E407634030BCBE
:103E700054E730B40124E407614030BC4EE7000051
:103E80000000E0FFF0B51FB488B00B9909984840D6
:103E9000C10FC907009109990020490049080991FB
:103EA0000B998646490049080B91099908980843DF
:103EB00003D00B990A98084303D1002001460DB0A6
:103EC000F0BD099801244000420D4800410D0998B9
:103ED00024050003000B204309900B980AAE000351
:103EE000000B20430B9050181949401800220190F4
:103EF0001446104601E0032801DA034600E00323DC
:103F00009C46C11A0AE05F0008ADED5B4F00F75B0D
:103F10007D430027AA187C415B1E491C6145F2DDE8
:103F2000430004A9CA522104120C0A43240C401C69
:103F30000828E0DB019802900099704601910090FA
:103F4000059B049A0799069800F0D2F9B7E700009C
:103F50000DFCFFFFF0B50C465C4085B0E40FE407B4
:103F600003944C0000266408590094464908024610
:103F70000296224321D062460A431ED06200570DAA
:103F80004A000E032303550D024601242C49240543
:103F9000781B1B0B360B40180090234326436046CA
:103FA0001C46101AB44103D30098401C009002E054
:103FB000921800985B41002803DA0020014605B002
:103FC000F0BD0020012109050746864611E0644640
:103FD0001D46141BB54106D36546521BB3417446BA
:103FE00007430C43A646CD074008490828439218CA
:103FF0005B4105460D43EAD11046184313D0604695
:10400000194650407140084303D100220123DB07C9
:1040100009E06046101AB34102D20122002302E0F7
:104020000122D2435310009874460105381C6141A7
:10403000029C039D0019694100F04DF9BFE70000A3
:10404000FD03000010B500229623114600F009F987
:1040500010BD00000EB505490291002100910A46ED
:104060000B46019100F044F903B000BD3304000099
:1040700040004008C10D40020122400AD2058018CC
:104080007F2901DA00207047962903DC9622511A15
:10409000C840704796398840704700004A000903BD
:1040A0000123090B1B051943094B10B5520D9A4208
:1040B00001DA002010BD064B34339A4203DC9A1A11
:1040C00000F0A3F810BD03495118884010BD00004E
:1040D000FF030000CDFBFFFFC20FD20740004008E6
:1040E0000ED0C10D0723DB01C91809054002114399
:1040F000400A0022C30852071A4340071143704781
:10410000002001467047000010B5002904DB01249F
:10411000E40740428C412146002B04DB1C4601236E
:10412000DB075242A341994200D1904210BD0000EA
:10413000CB0FDB07490010B5490802460A4307D0F8
:104140000A0D07240903E401090B121B002A01DCF4
:10415000002010BDC900440F0C43C100E018D20577
:10416000801800F076F810BD0122D207002800DB8D
:10417000101A002900DB511A814270470122D20730
:10418000002800DB101A002900DB511A8842704712
:10419000F0B51FB4002782B005460E4640240097B4
:1041A00019E022462846314600F02FF8049A059B74
:1041B000801A99410FD310461946224600F015F88F
:1041C0002D1A8E4122460120002100F00EF8009A9F
:1041D0003F184A4100922046641E0028E1DC009905
:1041E00038462A46334607B0F0BD10B5202A04DB16
:1041F0000146203A9140002010BD914020239C1A96
:104200000346E3401943904010BD10B5202A04DB5B
:104210000846203AD040002110BD0B46D340D04084
:104220002024A21A91400843194610BD10B5202A37
:1042300006DBCB170846203A1041C117194310BDC1
:104240000B461341D0402024A21A9140084319463E
:1042500010BD002904DA401C490001D1400840008B
:10426000704770B40024050C05D11024000402D15D
:10427000002922D01124050E01D108340002050FB7
:1042800001D1241D0001850F01D1A41C800000284C
:1042900001DB641C4000002908D020252E1B0D46A0
:1042A000F540A14000D001210D4328431B1B01060E
:1042B000DB1D000A002B02DA002070BC7047DB0512
:1042C000181880180029F8DA401C4900F5D170BC94
:1042D00040084000704710B5002B08DA0024401C4D
:1042E000614192185B411A4301D14008400010BD62
:1042F000F0B51FB482B005460C0003D0084600F0AC
:1043000071F802E000F06EF820300246009021467D
:104310002846FFF76AFF049B059A06460F46184396
:104320001143084303D13046394607B0F0BD184663
:10433000104317D0009840210A1A18460599FFF734
:1043400064FF04460D46009A05990498FFF74DFF57
:10435000084301D0012000E00020C11704430D43B1
:1043600026432F4300990E98F40A401A79050A3023
:10437000730500220C43FD0A002802DA00200146E2
:10438000D3E70105101969410C9C0D9D0019694185
:10439000FFF7A1FFC9E70000064C0125064E05E026
:1043A0002046E36807C82B4398471034B442F7D33C
:1043B000FCF78AFE30480000504800000FB410B5EA
:1043C00004A9074B02AA039800F040F8044602A98A
:1043D000002000F0A7F9204610BC08BC04B0184724
:1043E000254700002021020C01D010211046020AAE
:1043F00001D008391046020901D0091F1046820871
:1044000001D0891E1046420801D0881E7047081A44
:10441000704730B47446641E2578641CAB4204D3E4
:10442000635D5B00E31830BC18471D46F8E702E007
:1044300008C8121F08C1002AFAD17047704700202F
:1044400001E001C1121F002AFBD17047FFB58FB0F8
:1044500004460F46002647E1252858D10025641C54
:10446000A54A0121009523780846203B9840034641
:10447000134202D00543641CF5E720782E2815D19D
:1044800004200543641C20782A280AD101CF641C2B
:1044900000900BE000990A22514330394018641C07
:1044A00000902078014630390929F3D920786C280A
:1044B0000ED004DC4C2813D06A2812D104E07428F2
:1044C0000ED07A280DD10BE001204005054307E00E
:1044D0000121090562780D43824201D1641C6D18E7
:1044E000641C20788646692848D008DC00286ED0F5
:1044F00058286FD063280FD0642808D13EE0702878
:104500006DD0732811D075285FD0782862D0129AA8
:1045100011999047761CE6E001CF694608720020A9
:10452000487202A80190012003E001CF0190002011
:10453000C04369070CD5002500E06D1C00998D4231
:104540000FDA8542F9DB0199495D0029F5D108E0D0
:10455000002500E06D1C8542FCDB0199495D0029C6
:10456000F8D1761907E0019801990078491C01916A
:10457000129A119990476D1EF5D2B4E00A2002906C
:1045800000216802400F039102280CD001CFC1170F
:10459000844600290EDA62460846524200218141D3
:1045A00094462D2009E0FF1DFF08FF007968386858
:1045B0000837EDE7280504D52B206A461074012042
:1045C00032E0E80730D02020F7E70A2003E08FE050
:1045D00000E004E0102000210391029007E0102089
:1045E00002900021042005430820039100906802F6
:1045F000400F02281DD001CF0021844600200D90DD
:10460000280712D5704670281AD0029A1020039BF2
:1046100042401A4309D16046084306D030206A461A
:1046200010747046507402200D907046582811D0B6
:104630000BE0FF1DFF08FF00796838680837DCE7EA
:1046400040206A46107401200D902CA001900DA806
:104650000E900DE02EA0F9E76046039B029AFFF74B
:1046600097FD019B84469B5C0E9A521E0E9213701E
:1046700060460843F0D10E9805A9081A2030019031
:10468000680701D5009801E0012000900199884257
:1046900001DD401A00E000200025009006E004A89B
:1046A000129A405D11999047761C6D1C0D988542B9
:1046B000F5DB04E0129A302011999047761C00999E
:1046C000481E00900029F5DC08E00E980E9900784D
:1046D000491C0E91129A11999047761C0199481E17
:1046E00001900029F1DC641C2078002800D0B3E69A
:1046F000304613B0F0BD00000928010030313233DC
:10470000343536373839616263646566000000000D
:1047100030313233343536373839414243444546F7
:10472000000000000A68531C0B6010707047000006
:104730000000005000000150000002500000035033
:104740000000000000100000002000000030000009
:1047500000400000005000000060000000700000F9
:10476000008000000090000000A0000000B00000E9
:1047700000C0000000D0000000E0000000F00000D9
:104780000000010000800100000002000080020023
:10479000000003000080030000000400008004000B
:1047A00000000500008005000000060000800600F3
:1047B0000000070000800700FF0F0000FF1F00003F
:1047C000FF2F0000FF3F0000FF4F0000FF5F0000D1
:1047D000FF6F0000FF7F0000FF8F0000FF9F0000C1
:1047E000FFAF0000FFBF0000FFCF0000FFDF0000B1
:1047F000FFEF0000FFFF0000FF7F0100FFFF01004F
:10480000FF7F0200FFFF0200FF7F0300FFFF0300A6
:10481000FF7F0400FFFF0400FF7F0500FFFF05008E
:10482000FF7F0600FFFF0600FF7F0700FFFF070076
:1048300050480000000000105C0000002E44000002
:10484000AC4800005C000010FC1A00003E44000070
:10485000001BB700C0000010000063000000000053
:1048600000000000000000000070000000000000D8
:10487000B80100000000000000000000000000007F
:104880000000000000010000000000000000000027
:104890000000000014000000C8000000000000003C
:0C48A0000000000000000000000000000C
:04000005000010C126
:00000001FF
