:100000000C9434010C9451010C9451010C94510145
:100010000C9451010C9451010C9451010C94C5168F
:100020000C9451010C9451010C9451010C94510108
:100030000C9451010C9407060C9451010C9451013D
:100040000C94E2090C9451010C944F0A0C94A90AE7
:100050000C948B0A0C9451010C9451010C94510195
:100060000C9451010C94510100C1814001C08041A8
:1000700001C0804100C1814001C0804100C1814078
:1000800000C1814001C0804101C0804100C1814068
:1000900000C1814001C0804100C1814001C0804158
:1000A00001C0804100C1814001C0804100C1814048
:1000B00000C1814001C0804100C1814001C0804138
:1000C00001C0804100C1814000C1814001C0804128
:1000D00001C0804100C1814001C0804100C1814018
:1000E00000C1814001C0804101C0804100C1814008
:1000F00000C1814001C0804100C1814001C08041F8
:1001000001C0804100C1814000C1814001C08041E7
:1001100001C0804100C1814001C0804100C18140D7
:1001200000C1814001C0804100C1814001C08041C7
:1001300001C0804100C1814001C0804100C18140B7
:1001400000C1814001C0804101C0804100C18140A7
:1001500000C1814001C0804100C1814001C0804197
:1001600001C0804100C1814000C0C101C30302C27F
:10017000C60607C705C5C404CC0C0DCD0FCFCE0EE7
:100180000ACACB0BC90908C8D81819D91BDBDA1A57
:100190001EDEDF1FDD1D1CDC14D4D515D71716D6C7
:1001A000D21213D311D1D010F03031F133F3F23237
:1001B00036F6F737F53534F43CFCFD3DFF3F3EFEA7
:1001C000FA3A3BFB39F9F83828E8E929EB2B2AEA17
:1001D000EE2E2FEF2DEDEC2CE42425E527E7E62687
:1001E00022E2E323E12120E0A06061A163A3A262F7
:1001F00066A6A767A56564A46CACAD6DAF6F6EAE67
:10020000AA6A6BAB69A9A86878B8B979BB7B7ABAD6
:10021000BE7E7FBF7DBDBC7CB47475B577B7B67646
:1002200072B2B373B17170B05090915193535292B6
:1002300096565797559594549C5C5D9D5F9F9E5E26
:100240005A9A9B5B99595898884849894B8B8A4A96
:100250004E8E8F4F8D4D4C8C448485458747468606
:10026000824243834181804011241FBECFEFD4E0FE
:10027000DEBFCDBF11E0A0E0B1E0E0E0F5E302C0F9
:1002800005900D92A032B107D9F714E0A0E2B1E0D9
:1002900001C01D92A135B107E1F70E94BC010C9489
:1002A0004E170C9400009C01F999FECF32BD21BD80
:1002B000F89A80B50895AF92BF92CF92DF92EF92F5
:1002C000FF920F931F9360917A0270917B0280914D
:1002D0007C0290917D020E94EE0D7B018C01A0902A
:1002E0003401B0903501C0903601D0903701C6017D
:1002F000B501A80197010E94631888230CF45D9A48
:10030000C801B7012AE037ED43E25CE30E94FF1722
:100310009B01AC01C601B5010E94AD1918160CF481
:100320005D981F910F91FF90EF90DF90CF90BF905D
:10033000AF9008958EE692E060E070E048EB51E007
:1003400023E531E00E94751783E292E290936F02F9
:1003500080936E020E94F313419A399A5D98559AE0
:100360000E94020B0E94BF050E946A160E94300282
:100370000E94C709789408950F931F932EE088E197
:1003800090E00FB6F894A895809360000FBE20937C
:1003900060000E949A01A8950E947B090E94850D29
:1003A000082F609134017091350180913601909150
:1003B000370120E030E04AE754E40E94B11920E020
:1003C00030E04AEF53E40E94FF170E947F160E941C
:1003D0008005182F0E9484020E945B01802F612FEC
:1003E0000E94030BD8CFE4E6F0E080818B7F80830E
:1003F000259A239A229A579A5F9A8DB58E7F8DBD42
:100400008CB58D7F8CBD8CB58E7F8CBD8CB580619D
:100410008CBD8CB580648CBD08958EBD0DB407FE77
:10042000FDCF08951F93182F5F9881E10E940D0260
:10043000812F0E940D025F9A1F9108950E94F3017F
:1004400080E090E0ACECB2E48093480190934901E5
:10045000A0934A01B0934B0186E60E9412020895D0
:10046000E4E6F0E08081877F8083229AA1E8B0E013
:1004700081E08C93E0E8F0E080818062808380817D
:10048000816080838081826080838C9188608C937E
:100490008C9180618C938FEF9FEF90938900809374
:1004A00088008C9188608C938C9180618C931092E1
:1004B0008B0010928A00EFE6F0E0808181608083FB
:1004C0000895AC0190932301809322012091200193
:1004D00030912101C9018C599F4F8417950728F04D
:1004E000245630404217530720F450932101409383
:1004F0002001F89450938B0040938A007894509395
:10050000210140932001089560917E0270917F0245
:1005100080918002909181020E94EE0D2091340121
:100520003091350140913601509137010E94B11947
:1005300020E030E040E751E40E94671820E03FEF00
:100540004FE757E40E94B1190E94CF18AB01709396
:100550002301609322012091200130912101C901E2
:100560008C599F4F8417950728F024563040421726
:10057000530720F45093210140932001F8945093A5
:100580008B0040938A00789450932101409320017E
:10059000089587BD08952F923F924F925F926F9278
:1005A0007F928F929F92AF92BF92CF92DF92EF9203
:1005B000FF920F931F93CF93DF9347E0A42E01C0C8
:1005C000AA94E0903401F090350100913601109129
:1005D0003701CA2DD0E0FE01EE0FFF1FEE0FFF1F07
:1005E000E252FC4F60817181828193810E94EE0D05
:1005F0009B01AC01C801B7010E946318882314F461
:10060000AA20F1F6CC0FDD1FCC0FDD1F9EE6E92EF0
:1006100092E0F92EEC0EFD1E80E791E0E80EF91E47
:10062000F70160817181828193810E94EE0D3B010F
:100630004C018E010E581D4F00591E4FF80160816C
:100640007181828193810E94EE0D1B012C0184E255
:1006500090E0E80EF91EF70160817181828193813B
:100660000E94EE0D5B016C010C5D1F4FF801608173
:100670007181828193810E94EE0DA60195010E94F5
:10068000FE177B018C0160913401709135018091DE
:10069000360190913701A40193010E94FE179B013E
:1006A000AC01C801B7010E94B1197B018C01C201E4
:1006B000B101A40193010E94FE179B01AC01C80186
:1006C000B7010E946718A60195010E94FF17DF91EC
:1006D000CF911F910F91FF90EF90DF90CF90BF903F
:1006E000AF909F908F907F906F905F904F903F90D2
:1006F0002F90089587E00E94F31420E030E048EA4C
:1007000051E40E946718089586E00E94F31420E0E7
:1007100038ED46ED57E40E94B11920E030E44CE199
:1007200056E40E9467180895AF92BF92CF92DF926D
:10073000EF92FF920F931F930E947A036093280118
:100740007093290180932A0190932B010E948403C6
:100750007B018C0160932401709325018093260115
:10076000909327012FE832EC45E75CE30E94631881
:1007700088230CF443C0A0902801B0902901C090B8
:100780002A01D0902B01C601B50127E137EB41EDDD
:1007900058E30E9463188823B4F560914C0170916E
:1007A0004D0180914E0190914F012DEC3CEC4CE4B9
:1007B0005DE30E94AD1987FD21C060914C017091ED
:1007C0004D0180914E0190914F012DEC3CEC4CE499
:1007D0005DE30E94FE1760934C0170934D0180937E
:1007E0004E0190934F0160914C0170914D018091A9
:1007F0004E0190914F010E94CF1867BDE0E070E07C
:1008000080E86FEB1EC0C801B70120E038ED46ED6F
:1008100057E40E9467189B01AC01C601B5010E9414
:10082000FF179B01AC01609328017093290180930D
:100830002A0190932B01C801B7010E946718E62F87
:10084000692F2E2F372F482F562FB901CA011F911C
:100850000F91FF90EF90DF90CF90BF90AF900895F1
:100860002F923F924F925F926F927F928F929F92C0
:10087000AF92BF92CF92DF92EF92FF920F931F93AE
:100880005B016C0119012A010E94940360932C0101
:1008900070932D0180932E0190932F0160912C0174
:1008A00070912D0180912E0190912F0120E030E078
:1008B00040E85FEB0E946318882309F40EC1209181
:1008C0002C0130912D0140912E0150912F01C60134
:1008D000B5010E94FE173B014C01E89497F8C40152
:1008E000B30120E030E040E05FE30E946318181697
:1008F0000CF0E0C0C201B1012AE037ED43E25CE355
:100900000E94B1199B01AC01C401B3010E94AD1951
:1009100018165CF00F2EFDECEF2EFCECFF2EFCE425
:100920000F2FFDE31F2FF02D0AC00F2EF0E0EF2E4A
:10093000F0E0FF2EF0E00F2FFFE31F2FF02D60916E
:100940002C0170912D0180912E0190912F01A60113
:1009500095010E94631888230CF03FC0A0904801C5
:10096000B0904901C0904A01D0904B01C801B70135
:1009700020E030E040EC50E40E94FF179B01AC0106
:10098000C601B5010E94AD1988233CF0C601B5012E
:10099000A80197010E94FE174DC060914C01709113
:1009A0004D0180914E0190914F0123E333EF4EE7CB
:1009B00053E40E94631818160CF47EC060914C0139
:1009C00070914D0180914E0190914F012DEC3CECC6
:1009D0004CE45DE30E94FF175AC0C601B50120E058
:1009E00030E04CE052E40E94631887FD05C060E0EF
:1009F00070E082E593E404C060E070E08BE793E48C
:100A0000A0904801B0904901C0904A01D0904B019C
:100A1000A80197010E94FE179B01AC01C601B50118
:100A20000E9463181816ACF0C601B501A801970121
:100A30000E94FF17609348017093490180934A0117
:100A400090934B010E94CF18DC01CB010E9412024F
:100A500031C060914C0170914D0180914E01909197
:100A60004F012DEC3CEC4CE45DE30E94AD19882372
:100A70001CF160914C0170914D0180914E0190915B
:100A80004F012DEC3CEC4CE45DE30E94FE176093BB
:100A90004C0170934D0180934E0190934F016091F2
:100AA0004C0170914D0180914E0190914F010E9437
:100AB000CF1867BD10E012C010E0C201B1012DECEB
:100AC0003CEC4CE45EE30E94B1199B01AC01C40113
:100AD000B3010E94AD1918160CF411E0812F1F917B
:100AE0000F91FF90EF90DF90CF90BF90AF909F90CD
:100AF0008F907F906F905F904F903F902F900895D0
:100B0000EF92FF920F931F93809172029091730264
:100B1000892B11F480E02EC060912204709123048F
:100B200080912404909125040E94EE0D7B018C019C
:100B30006091020470910304809104049091050473
:100B40000E94EE0DA80197010E94AD19181664F4D9
:100B50006091020470910304809104049091050453
:100B60000E94EE0D7B018C010E94CB02A80197012F
:100B70000E9430041F910F91FF90EF9008950E9402
:100B8000B4140E941E02809164008F7D80936400E3
:100B900082E085BD84B5806884BD84B5816084BDF4
:100BA00084B5826084BD5B9A539A6091020470910F
:100BB0000304809104049091050420912204309153
:100BC000230440912404509125040E94AD19181665
:100BD0002CF480E090E0AFE7B3E404C080E090E064
:100BE000A0E0B0E080934C0190934D01A0934E01A2
:100BF000B0934F0160914C0170914D0180914E0175
:100C000090914F010E94CF1867BD569A08951F9288
:100C10000F920FB60F9211242F933F934F935F9330
:100C20006F937F938F939F93AF93BF93EF93FF93B4
:100C300080915401813029F08130F0F08230F9F454
:100C40000AC010925101109250011092530110925B
:100C5000520182E012C080915001909151010196A1
:100C600090935101809350018091500190915101D6
:100C7000449728F083E001C081E0809354010E94F2
:100C8000110BFF91EF91BF91AF919F918F917F9148
:100C90006F915F914F913F912F910F900FBE0F90E9
:100CA0001F9018950E940C0A0895FF920F93CF93FE
:100CB000DF93F82E062F6D3F90F0809163019091A5
:100CC00064010196909364018093630180917101A6
:100CD00080688093710183E08093720102E00E943A
:100CE000B909C0E7D1E0F0927001602F6F5FCE01CB
:100CF0004FEF5FEF0E949E09E02FF0E0EC0FFD1F29
:100D000081839283D0936B02C0936A020D5F00933C
:100D10003001E0916C02F0916D0235978081806224
:100D200080838091C10084FFFCCF10923101DF915C
:100D3000CF910F91FF900895682F809100010E943C
:100D40005506089520916301309164012F5F3F4F54
:100D500030936401209363019091710190689093A6
:100D600071018093720182E00E949C060895DC016B
:100D70001296EC9112978E2F8B508830B0F4F0E0E1
:100D8000EE0FFF1FE75BFE4F818113968C93139745
:100D90001296EC911297F0E0EE0FFF1FE75BFE4F0B
:100DA000808114968C9385E012C0EE2379F0EA30AE
:100DB00049F4EFE5F1E01192119281E0EF36F80786
:100DC000D1F704C081E00E94A2060895862F0E94F8
:100DD0009C06089560913001625080E791E04FEFEA
:100DE0005FEF0E949E09E0913001F0E0E259FE4F72
:100DF000208131818217930711F480E0089583E008
:100E000008951F93182F80913001843020F1809134
:100E100030018B3F00F50E94EA068823E1F48091BF
:100E20005F019091600101969093600180935F0152
:100E300080917001882311F08117B1F480916501D0
:100E4000909166010196909366018093650180916F
:100E5000300183500AC08091610190916201019636
:100E6000909362018093610180E01F9108959C013D
:100E7000F999FECF32BD21BDF89A80B508959C0145
:100E8000F999FECF1FBA32BD21BD60BD0FB6F894EF
:100E9000FA9AF99A0FBE0895FC01628173818481E8
:100EA0009581613822E4720720E0820720E09207F2
:100EB00020F082E00E94A2060895AF01495F5F4FD3
:100EC00026810E94B01C87E00E949C060895DF9353
:100ED000CF9300D000D0CDB7DEB79C01DE011196D4
:100EE000FC01349683818983828111968C931197BA
:100EF000818112968C931297F901848113968C93B9
:100F000089819A81AB81BC818030FBE49F07F0E04E
:100F1000AF07F0E0BF0709F45BC081304BE49407F2
:100F200040E0A40740E0B40738F5803CE2E19E07CA
:100F3000E0E0AE07E0E0BE0709F44AC0813CF2E120
:100F40009F07F0E0AF07F0E0BF0738F48056994004
:100F5000A040B04009F064C03BC08038E5E29E0785
:100F6000E0E0AE07E0E0BE0799F180549843A0406E
:100F7000B04009F055C02CC0803041EE940740E0ED
:100F8000A40740E0B40721F18130E1EE9E07E0E0E4
:100F9000AE07E0E0BE0778F48038F0E79F07F0E0A6
:100FA000AF07F0E0BF07A1F080509649A040B040E5
:100FB00009F036C00DC08030ECE29E07E1E0AE07DC
:100FC000E0E0BE0729F08050924CA140B04041F5CE
:100FD000F9018181823020F54281442309F1838126
:100FE0008823F1F0F999FECF1FBA88EB91E092BD0A
:100FF00081BD40BD0FB6F894FA9AF99A0FBE89EBFD
:1010000091E0BE016F5F7F4F44E050E02FE337E097
:101010000E94A7178CE00E949C060E94C70903C08B
:1010200083E00E94A2060F900F900F900F90CF9137
:10103000DF910895CF93DF93EC01EE81E63FC0F599
:101040008981882319F0813099F517C02A813B8165
:101050004C815D81DA01C9018E0F911DA11DB11D69
:1010600081589244A040B040B8F4CE010796B9012F
:101070004E2F50E00E9451171FC02A813B814C81A6
:101080005D81DA01C9018E0F911DA11DB11D815035
:101090009240A040B04010F082E00BC0CE01079615
:1010A000B9014E2F50E027E337E00E94751704C0C6
:1010B00083E00E94A20604C08E81895F0E949C0684
:1010C000DF91CF910895CF93DF93EC01998180E078
:1010D0002A81422F50E0482B592B9B8180E02C81A4
:1010E00030E0282B392BF901EE0FFF1FE9834C3D2F
:1010F0005105C8F4240F351F2D3D310590F49E0194
:101100002E5F3F4F440F551F42595D4FC901BA0131
:101110004E2F50E00E945A1789818E5F0E949C06D4
:1011200005C083E001C082E00E94A206DF91CF915A
:101130000895CF92DF92EF92FF920F931F93CF9378
:10114000DF938C017B01CB010E94050E000F111F64
:1011500004311105D9F401970497C0F027C0C701E5
:101160000E94050E9C01CC9DC001CD9D900DDC9D83
:10117000900D112484599F4F0817190729F4225004
:1011800030402D31310590F4219605C0C0E0D0E00B
:1011900026E5C22ED12C80918202909183020E947A
:1011A000050EC817D907D8F281E001C080E0DF91B1
:1011B000CF911F910F91FF90EF90DF90CF90089506
:1011C000EF92FF920F931F93DF93CF9300D0CDB791
:1011D000DEB7FC01918180E02281022F10E0082B14
:1011E000192B948180E02381622F70E0682B792B8A
:1011F0007A83698381E0083B180708F042C00C3D00
:10120000110510F4780106C054E2E52E5FEFF52ECB
:10121000E00EF11EC7010E949908882311F483E0B3
:1012200031C0EE0CFF1C0C3D110550F0EEE6F2E073
:10123000EE0EFF1E89819A81F7019183808317C08A
:10124000870100501040C801BE016F5F7F4F42E030
:1012500050E02FE337E00E94A717C70182599D4F46
:10126000B80142E050E027E337E00E94751783E2BF
:1012700092E290936F0280936E0285E00E949C063A
:1012800003C082E00E94A2060F900F90CF91DF91E1
:101290001F910F91FF90EF900895FC01808188309D
:1012A00011F1893028F4843051F0863001F50BC0FB
:1012B000863469F0873499F08534C9F40CC0CF01C5
:1012C0000E9463080895CF010E94E0080895CF01AD
:1012D0000E941A080895CF010E944C070895CF017B
:1012E0000E9467070895CF010E94B706089581E024
:1012F0000E94A20608951F93809174029091750236
:10130000892B31F08091840290918502892BA1F084
:101310000E940C0A182F882369F0809100010E9416
:101320000107882339F01092490481E791E0612F89
:101330000E944D090E94FD0E1F910895DC010FC00F
:10134000ED91E4272E2F30E0C90188599F4FFC0111
:101350004491452728593E4FF90154916150662325
:1013600079F7952F80E0242F30E0282B392BC90105
:101370000895E1ECF0E080818F7E80835A9A089591
:101380005A98E1ECF0E08081806180830895E1EC7F
:10139000F0E080818869808386EC90E090936D0214
:1013A00080936C025A98529A8FE28093C40083E62D
:1013B0008093000181E08BB9EEE6F0E080818160EE
:1013C000808308951F920F920FB60F9211248F936E
:1013D0009F93AF93BF9380916F018F5F80936F0155
:1013E0008091260490912704A0912804B0912904AB
:1013F0000196A11DB11D8093260490932704A0930C
:101400002804B0932904BF91AF919F918F910F90C1
:101410000FBE0F901F901895809132018130E9F036
:10142000813028F0823031F18330B9F52DC08091C0
:101430003101882361F480916F018D3170F181E079
:1014400080933201109230018093310111C081E00C
:10145000809331011092300109C0809131018230B6
:1014600021F0809131018530C1F482E08093320116
:1014700080E0089580916F018E3030F083E080939A
:10148000320185E08093310180916F018D3128F028
:101490001092320180913001089580E008951F92EA
:1014A0000F920FB60F9211248F939F93EF93FF9398
:1014B000E0916C02F0916D02908180913101853054
:1014C00019F4109230011EC0809131018823C1F0BF
:1014D00080913001882319F482E08093310180915A
:1014E0003001E82FF0E0E059FE4F90838F5F80934A
:1014F0003001809130018A3F18F085E080933101FE
:1015000010926F01FF91EF919F918F910F900FBEFD
:101510000F901F9018951F920F920FB60F921124E3
:101520008F93EF93FF93E1ECF0E080818F7B8083DA
:101530005A9880818061808381E08093310110928C
:101540006F01FF91EF918F910F900FBE0F901F9041
:1015500018951F920F920FB60F9211248F939F939D
:10156000AF93BF93EF93FF93A0916C02B0916D0284
:10157000E0916A02F0916B0280818C9380916A0203
:1015800090916B02019690936B0280936A02809116
:10159000300181508093300180913001882369F4BB
:1015A000E0916C02F0916D02359780818F7D808390
:1015B0008091C10080648093C100FF91EF91BF9141
:1015C000AF919F918F910F900FBE0F901F90189524
:1015D000DF93CF9300D000D0CDB7DEB7BC01CE01F2
:1015E000019644E050E00E94511729813A814B81D5
:1015F0005C81B901CA010F900F900F900F90CF91AD
:10160000DF9108950895882319F4662339F0862F11
:1016100090E0880F991F80930101089510920101B5
:1016200008958091020190910301892B31F08091FE
:10163000020190910301019717C088B192E08927B8
:1016400088B9809133018F5F80933301909133018A
:1016500080910101981730F041981092330182EC8B
:1016600091E002C083E490E0909303018093020133
:1016700008958F929F92AF92BF92DF92EF92FF9266
:101680000F931F93CF93DF93DD240F2EF0E0EF2E07
:10169000F0E0FF2EF0E00F2FF0E01F2FF02D26E5F9
:1016A000822E912C9CE3A92EB12C28C0C89DF0015C
:1016B000C99DF00DD89DF00D1124E652FD4F80819B
:1016C00091810E94050ECA9D9001CB9D300DDA9D3F
:1016D000300D1124280F391F220F331F220F331F03
:1016E000C9018C58944C0E94E80A9B01AC01C801C6
:1016F000B7010E94FF177B018C01D3948091820275
:10170000909183020E94050ECD2DD0E0C817D90715
:1017100068F2B701C801DF91CF911F910F91FF903F
:10172000EF90DF90BF90AF909F908F9008950F93B0
:101730001F938C0186E590E0089FF001099FF00D52
:10174000189FF00D1124E652FD4F808191810E9477
:10175000050E2CE330E0A901049F9001059F300D98
:10176000149F300D1124280F391F220F331F220F11
:10177000331FC9018450954C0E94E80A1F910F91B4
:1017800008952F923F924F925F926F927F928F9225
:101790009F92AF92BF92CF92DF92EF92FF920F9300
:1017A0001F93DF93CF9300D000D0CDB7DEB75C019D
:1017B00086E590E0A89E6001A99ED00CB89ED00C52
:1017C000112486E892E0C80ED91EF601608171816D
:1017D000828193810E94EE0D69837A838B839C833F
:1017E000C5010E94970B7B018C0120E030E84BEB98
:1017F00054E40E946318882354F40F2EF0E0EF2E77
:10180000F0E8FF2EFBEB0F2FF4E41F2FF02D80EFFD
:1018100090E0A89E4001A99E900CB89E900C1124C7
:1018200080E09BE3880E991EC4010E94E80A20E034
:1018300030E048E452E40E94FE179B01AC0169814C
:101840007A818B819C810E94AD1988230CF4D4C0CD
:10185000C801B70120E030E048E452E40E94FF17DD
:101860009B01AC0169817A818B819C810E94631804
:1018700018160CF4C1C0C4010E94E80A9B01AC0117
:1018800069817A818B819C810E94631888233CF452
:10189000C4010E94E80A69837A838B839C83C50113
:1018A0000E94970B9B01AC0169817A818B819C819D
:1018B0000E94AD1918163CF4C5010E94970B69836C
:1018C0007A838B839C83F601EC5AFF4F8081918150
:1018D0000E94050E082F02508CE390E0A89E600144
:1018E000A99ED00CB89ED00C112401C00150E02E4E
:1018F000FF24C7018C0D9D1D880F991F880F991F0C
:101900008050954C0E94E80A9B01AC0169817A8164
:101910008B819C810E946318882314F4002331F783
:101920008CE390E0A89E6001A99ED00CB89ED00CDC
:101930001124EC0CFD1CEE0CFF1CEE0CFF1CC7016F
:101940008050954C0E94E80A3B014C0110E00F5F6B
:101950001F4F0C0D1D1D000F111F000F111FC8017F
:101960008050954C0E94E80A1B012C01C701885841
:10197000944C0E94E80A5B016C01C8018858944CA1
:101980000E94E80AA60195010E94FE177B018C01C6
:1019900069817A818B819C81A40193010E94FE1749
:1019A0009B01AC01C801B7010E94B1197B018C01F8
:1019B000C201B101A40193010E94FE179B01AC0179
:1019C000C801B7010E946718A60195010E94FF1780
:1019D0007B018C0120E030E040E85FEB0E94AD1914
:1019E000181654F4C801B70120E030E543EC57E481
:1019F0000E946318882354F00F2EF0E0EF2EF0E0E1
:101A0000FF2EF0E00F2FF0E01F2FF02DB701C801DF
:101A10000F900F900F900F90CF91DF911F910F912A
:101A2000FF90EF90DF90CF90BF90AF909F908F90FE
:101A30007F906F905F904F903F902F900895DF922E
:101A4000EF92FF920F931F93DD240F2EF0E0EF2E05
:101A5000F0E0FF2EF0E00F2FF0E01F2FF02D0DC073
:101A60008D2D90E00E94C10B9B01AC01C801B70114
:101A70000E94FF177B018C01D39480918202909188
:101A800083020E94050E2D2D30E02817390740F300
:101A9000B701C8011F910F91FF90EF90DF9008955B
:101AA000EF92FF920F931F930E941F0D7B018C01F9
:101AB0000E94390B9B01AC01C801B7010E94671855
:101AC0007B018C0120E030E040E85FEB0E94AD1923
:101AD000181654F4C801B70120E030E040E050E4AB
:101AE0000E94631887FD0AC00F2EF0E0EF2EF0E091
:101AF000FF2EF0E00F2FF0E01F2FF02DB701C801EF
:101B00001F910F91FF90EF900895CF92DF92EF9287
:101B1000FF920F931F93CF93DF9380918202909156
:101B200083020E94050E6C010E94F51608E311E085
:101B3000C6E8D2E07801EC0CFD1C0BC0F801119254
:101B40008F01688179818A819B810E94EE0DCA5A3A
:101B5000DF4F0E151F0591F70E94500D6093340161
:101B60007093350180933601909337010E94EE0DFA
:101B70006093760270937702809378029093790253
:101B800020E030E00BC0F901E85CFE4F808183303B
:101B900019F4822F8E5F06C02F5F3F4F2C153D0535
:101BA00090F380E0DF91CF911F910F91FF90EF9024
:101BB000DF90CF900895362F3695DC01E62FF0E0C8
:101BC0003197E80FF91F20E006C09C9180818D932A
:101BD00090832F5F31972317C0F30895DF93CF933E
:101BE00000D000D0CDB7DEB769837A838B839C8326
:101BF0002C813B814A815981B901CA010F900F9014
:101C00000F900F90CF91DF910895DF93CF9300D085
:101C1000CDB7DEB79A838983982F8A810F900F9072
:101C2000CF91DF91089580917001843489F480917F
:101C300071018F3411F488E703C0803549F489E7D6
:101C400080932D048091000180932E0484E00895F8
:101C500083E0089510922B040E94B90980E791E077
:101C600090936B0280936A0280912C0480933001E0
:101C70008091C10080628093C1008091C10084FF87
:101C8000FCCF08951F93CF93DF9310E060E0C82F3F
:101C9000D0E0219707C0E059FE4F80810E949A143E
:101CA000682F1F5FE12FF0E0EC17FD07A4F3862FEC
:101CB000DF91CF911F9108958091300180932C0482
:101CC00080917001813321F580913001843000F1E1
:101CD000809130010E94420EE0913001F0E0E15924
:101CE000FE4F9081891751F48091710180932E04E9
:101CF0008091720180932D0484E008958091710198
:101D000080932E048091720180932D0483E00895C6
:101D100083E0089580913001833050F1809170010B
:101D2000843489F4809171018F3411F488E703C001
:101D3000803549F489E780932D04809100018093D8
:101D40002E0481E008950E945C0E843071F480912D
:101D50004C04882321F480912E048F3F59F09091F8
:101D60002E0480910001981729F081E080932B04C4
:101D700080E0089581E008951F9310922B040E9443
:101D8000B9098EE38093700180912E0480937101D4
:101D900080912D048093720110912C0480912C0469
:101DA0000E94420EE12FF0E0E159FE4F808380E770
:101DB00091E090936B0280936A0280912C0480934F
:101DC00030018091C10080628093C1008091C10088
:101DD00084FFFCCF1F9108951092730185E08093DA
:101DE0002C040E94BC0E089581E08093730185E06D
:101DF00080932C040E94BC0E0895EF92FF920F93E3
:101E00001F9380914904882391F1E0902604F0907B
:101E10002704009128041091290460911F0170E0AB
:101E200080E090E020E23CE140E050E00E94141AA3
:101E30006E157F0580079107D0F480912A048230C7
:101E400051F48091000180932E0487E080932D044B
:101E500082E090E002C081E090E00E944F12109278
:101E600026041092270410922804109229040E943C
:101E70008A0E882309F4AAC01092490480912D0487
:101E80008C3009F484C08D3058F5863009F461C077
:101E9000873098F4833009F453C0843038F48130AB
:101EA00009F448C0823009F08FC047C0843009F47B
:101EB0004AC0853009F088C049C0893009F45EC045
:101EC0008A3038F4873009F44EC0883009F07CC07D
:101ED00052C08A3009F455C08B3009F075C054C027
:101EE000833109F463C0843198F48F3009F458C009
:101EF000803138F48D3009F44DC08E3009F064C063
:101F00004CC0813109F44CC0823109F05DC04BC036
:101F1000873109F454C0883138F4843109F449C058
:101F2000853109F051C048C08837B1F0893709F0D0
:101F30004BC01CC00E94931349C00E94E71146C0C9
:101F40000E94561143C00E94401140C00E948E1151
:101F50003DC082E090E004C00E94461081E090E025
:101F60000E944F1233C082E090E002C081E090E016
:101F70000E940A112BC00E94081228C00E94DB1088
:101F800025C00E94D81022C00E94D5101FC00E94F8
:101F9000D2101CC00E94CF1019C00E94CC1016C0D5
:101FA0000E94C61013C00E94C31010C00E94A61049
:101FB0000DC00E947C110AC00E946C1107C0809164
:101FC00073010E94671002C00E94EC0E1F910F91D6
:101FD000FF90EF9008959C01F999FECF32BD21BD8D
:101FE000F89A80B508959C01F999FECF1FBA32BDC9
:101FF00021BD60BD0FB6F894FA9AF99A0FBE089504
:10200000EF92FF920F931F93E0903401F09035010F
:102010000091360110913701C801B70120E030E08E
:102020004AE754E40E94B1190E94CF187093390412
:1020300060933804C801B70120E030EC4FE754E466
:102040000E94B1190E94CF18709333046093320438
:102050001F910F91FF90EF900895F999FECF2AEE0E
:1020600031E032BD21BDF89A80B5882371F4F99929
:10207000FECFF999FECF1FBA32BD21BD81E080BDF0
:102080000FB6F894FA9AF99A0FBE0895F999FECF0F
:102090002AEE31E032BD21BDF89A80B5882369F07F
:1020A000F999FECFF999FECF1FBA32BD21BD10BC00
:1020B0000FB6F894FA9AF99A0FBE0895F999FECFDF
:1020C0008AEE91E092BD81BDF89A80B508951F9384
:1020D000182F882391F4F999FECFF999FECF1FBAF2
:1020E00085EC91E092BD81BD10BC0FB6F894FA9AD0
:1020F000F99A0FBE0E94461025C0813081F40E94DB
:10210000461010934904F999FECFF999FECF1FBAF2
:1021100085EC91E092BD81BD81E080BD0EC0823032
:1021200089F40E942D10F999FECFF999FECF1FBABC
:1021300085EC91E092BD81BD10BC0FB6F894FA9A7F
:10214000F99A0FBE0E94EC0E1F91089580917301C1
:1021500080931F01882319F481E080931F01F9996E
:10216000FECF20911F01F999FECF1FBA83EC91E0B9
:1021700092BD81BD20BD0FB6F894FA9AF99A0FBEB0
:102180000E94EC0E08950E94EC0E08950E94EC0E41
:1021900008950E94EC0E08950E94EC0E08950E948E
:1021A000EC0E08950E94EC0E08950E94EC0E089526
:1021B0000E94EC0E0895EF92FF920F931F93E09010
:1021C0003401F09035010091360110913701C801BA
:1021D000B70120E030E04AE754E40E94B1190E94C0
:1021E000CF187093390460933804C801B70120E018
:1021F00030EC4FE754E40E94B1190E94CF1870935D
:102200003304609332040E94EC0E1F910F91FF90F3
:10221000EF900895029779F40E94EC0E82E080938B
:102220002A0491E09093490480911F01882339F595
:1022300090931F010895F999FECF25EC31E032BD4E
:1022400021BDF89A80B5882369F0F999FECFF999F4
:10225000FECF1FBA32BD21BD10BC0FB6F894FA9A5A
:10226000F99A0FBE0E942D1091E090932A0490934A
:10227000490480911F01882311F490931F01089550
:102280002091730120934C04F999FECFF999FECF68
:102290001FBA8EEB91E092BD81BD20BD0FB6F894C0
:1022A000FA9AF99A0FBE0E94EC0E089520917301DC
:1022B000F999FECFF999FECF1FBA88EB91E092BD54
:1022C00081BD20BD0FB6F894FA9AF99A0FBE2093FB
:1022D00000010E94EC0E0895F999FECF84EC91E084
:1022E00092BD81BDF89A80B58093730185E080939B
:1022F0002C040E94BC0E0895F999FECF82EC91E067
:1023000092BD81BDF89A80B580934004809373019B
:1023100085E080932C040E94BC0E08952091420415
:10232000309143044091440450914504852F9927EE
:10233000AA27BB2780937601CA01AA27BB278093CF
:102340007501BB27A52F942F832F809374012093B1
:10235000730190914D0480914E0480937801909385
:10236000770190914A0480914B0480937A01909375
:102370007901909146048091470480937C01909369
:102380007B018091410480937D0190913004809184
:10239000310480937F0190937E0190913A04809163
:1023A0003B04809381019093800180910001809390
:1023B000820180914C048093830180914804809332
:1023C000840186E180932C040E94BC0E0895209124
:1023D0004204309143044091440450914504852FB8
:1023E0009927AA27BB2780937601CA01AA27BB2772
:1023F00080937501BB27A52F942F832F80937401A1
:102400002093730188E080932C040E94BC0E0895F1
:10241000EF92FF920F931F93CF93DF93E0903401DD
:10242000F09035010091360110913701C801B701D4
:1024300020E030E04AE754E40E94B1190E94CF182E
:10244000EB017093390460933804C801B70120E0B0
:1024500030EC4FE754E40E94B1190E94CF187093FA
:10246000330460933204F999FECF84ED91E0BE010C
:1024700043EF5FE00E94C31784ED91E06BEE7FE0D5
:102480000E94911790934B0480934A040E94EC0E93
:10249000DF91CF911F910F91FF90EF900895AF9230
:1024A000BF92CF92DF92EF92FF920F931F93DF9331
:1024B000CF9300D000D000D0CDB7DEB7A0903401CC
:1024C000B0903501C0903601D0903701029781F568
:1024D000C601B50120E030E04AE754E40E94B1199A
:1024E0000E94CF187B018C0160933804F09239046C
:1024F000C601B50120E030EC4FE754E40E94B11969
:102500000E94CF18609332047093330420912F04FB
:10251000209373016093740170937501E0927601CA
:10252000F092770189E080932C040E94BC0EEAC0EF
:10253000C601B50120E030E04AE754E40E94B11939
:102540000E94CF187093390460933804C601B50116
:1025500020E030EC4FE754E40E94B1190E94CF18FC
:10256000709333046093320480E791E064E071E09B
:102570000E946E1780E791E065E071E00E946317AA
:1025800080913804909139048E010F5F1F4FB8017C
:1025900040E150E00E94D817F80101900020E9F7CF
:1025A0003197E01BF10BE430F105A4F4CC24DD24D9
:1025B00004E010E00E1B1F0B09C080E791E068E00B
:1025C00071E00E9463170894C11CD11CC016D1068B
:1025D000A4F307C0349729F0C8016AE071E00E94B3
:1025E0006E1780E791E08E010F5F1F4FB8010E94C8
:1025F000631780E791E06FE071E00E9463178091BC
:102600002F0490E0B80140E150E00E94D817F80193
:1026100001900020E9F73197E01BF10BE230F10562
:10262000A4F4CC24DD2402E010E00E1B1F0B09C033
:1026300080E791E068E071E00E9463170894C11C94
:10264000D11CC016D106A4F307C0329729F0C801E7
:1026500063E171E00E946E1780E791E08E010F5FE9
:102660001F4FB8010E94631780E791E066E171E0B7
:102670000E9463178091320490913304B80140E1C5
:1026800050E00E94D817F80101900020E9F7319737
:10269000E01BF10BE430F105A4F4CC24DD2404E0CC
:1026A00010E00E1B1F0B09C080E791E068E071E0AD
:1026B0000E9463170894C11CD11CC016D106A4F354
:1026C00007C0349729F0C8016AE071E00E946E17D4
:1026D00000E711E0C801BE016F5F7F4F0E946317E2
:1026E000C8016AE171E00E946317F80101900020BF
:1026F000E9F78F01015010400057114000932C045E
:102700000E942A0E26960FB6F894DEBF0FBECDBFEC
:10271000CF91DF911F910F91FF90EF90DF90CF90BD
:10272000BF90AF900895CF93DF93F999FECFC8EE95
:10273000D1E0D2BDC1BDF89A80B5882309F050C060
:102740008091760190E0A0E0B0E0BA2FA92F982FF9
:1027500088272091750130E040E050E0822B932BD8
:10276000A42BB52BBA2FA92F982F8827209174015D
:1027700030E040E050E0822B932BA42BB52BBA2FF6
:10278000A92F982F88272091730130E040E050E076
:10279000822B932BA42BB52B80934204909343045C
:1027A000A0934404B0934504F999FECF8CED91E0D9
:1027B00062E474E044E050E023EF3FE00E94A7179A
:1027C000F999FECFF999FECF1FBAD2BDC1BD81E004
:1027D00080BD0FB6F894FA9AF99A0FBE0E94EC0EDB
:1027E000DF91CF910895F999FECF8EEB91E092BDE4
:1027F00081BDF89A80B580934C04F999FECF8FEB98
:1028000091E092BD81BDF89A80B580934104F99919
:10281000FECF81EC91E092BD81BDF89A80B58093A6
:102820004804F999FECF82EC91E092BD81BDF89AFF
:1028300080B580934004F999FECF83EC91E092BD7E
:1028400081BDF89A80B580931F01F999FECF44ECC1
:1028500051E052BD41BDF89A80B5F999FECF85ECA3
:1028600091E092BD81BDF89A20B5F999FECF8AEE2C
:1028700091E092BD81BDF89A80B5222329F081E0D4
:102880008093490482E005C0882331F081E0809381
:10289000490480932A0402C010924904F999FECF9A
:1028A00052BD41BDF89A80B58093BD0182ED91E0A3
:1028B0006BEE7FE00E94911790934704809346044B
:1028C00084ED91E06BEE7FE00E94911790934B04B2
:1028D00080934A0486ED91E06BEE7FE00E949117B1
:1028E00090934E0480934D0488ED91E06BEE7FE071
:1028F0000E94911790933104809330048AED91E007
:102900006BEE7FE00E94911790933B0480933A0412
:1029100082E494E06CED71E044E050E02BEE3FE0A7
:102920000E94751780911F01882319F481E080931C
:102930001F010895282F98E038E1862F822780FF15
:1029400004C063276695606801C06695915011F0D8
:102950002695F3CF862F0895ECE7F0E090818F70F5
:10296000907F892B80830895EEE7F0E0808180637B
:102970008083E4E6F0E080818E7F8083ECE7F0E006
:1029800080818F77808380818064808380E090E085
:10299000A0EAB0E480933C0190933D01A0933E01F6
:1029A000B0933F018081807F86608083EAE7F0E01A
:1029B0008081866080838081806880830895809193
:1029C0007A00806480937A0080917A0084FFFCCF43
:1029D00080917A00806180937A0020917800309114
:1029E0007900C90108956F927F928F929F92AF9262
:1029F000BF92CF92DF92EF92FF920F931F9390912D
:102A00007C008F70907F892B80937C0080917C006C
:102A1000806880937C0080917C00806480937C003F
:102A20008DEC9CECACE8BFE380933C0190933D01BE
:102A3000A0933E01B0933F0180917A00806480931F
:102A40007A0080917A0084FFFCCF80917A008061C7
:102A500080937A0080917800909179000F2EF0E0B9
:102A60006F2EF0E07F2EF0E08F2EF0E09F2EF02D05
:102A7000DD2480917A00806480937A0080917A00CE
:102A800084FFFCCF80917A00806180937A0060910E
:102A900078007091790080E090E00E94FB187B0143
:102AA0008C0120E030E04AE754E40E94AD1918168A
:102AB00014F420E00DC0C401B301A80197010E94E5
:102AC000FF173B014C01D39480E1D81691F621E029
:102AD00080917C008F7780937C0080917C00806463
:102AE00080937C0080E090E0A0EAB0E480933C0119
:102AF00090933D01A0933E01B0933F0180917A00F5
:102B0000806480937A0080917A0084FFFCCF80916A
:102B10007A00806180937A008091780090917900AA
:102B2000222369F50F2EF0E06F2EF0E07F2EF0E00B
:102B30008F2EF0E09F2EF02D10E080917A008064BF
:102B400080937A0080917A0084FFFCCF80917A0094
:102B5000806180937A00609178007091790080E0C4
:102B600090E00E94FB189B01AC01C401B3010E94DC
:102B7000FF173B014C011F5F1031F9F684C08091B3
:102B80007C00807F8E6080937C0080917A008064DE
:102B900080937A0080917A0084FFFCCF80917A0044
:102BA000806180937A0080917800909179000F2E57
:102BB000F0E0AF2EF0E0BF2EF0E0CF2EF0E0DF2E01
:102BC000F02D10E080917A00806480937A008091EB
:102BD0007A0084FFFCCF80917A00806180937A0034
:102BE000609178007091790080E090E00E94FB187D
:102BF0009B01AC01C601B5010E94FF175B016C018E
:102C00001F5F1031F9F6E0903C01F0903D0100911A
:102C10003E0110913F0120E030E040E85DE30E947A
:102C2000B119A80197010E94B119E0904001F090FC
:102C30004101009142011091430120E030E040E861
:102C40005AE30E94B119A80197010E94FE172DECCA
:102C50003CEC4CEC5DE30E94B1199B01AC01C80156
:102C6000B7010E94FF176093400170934101809368
:102C700042019093430160933C0170933D01809326
:102C80003E0190933F01E0903C01F0903D010091A6
:102C90003E0110913F01C401B30120E030E040E863
:102CA0005DE30E94B119A80197010E94B11920E0CB
:102CB00030E040E85AE30E94B1191F910F91FF9054
:102CC000EF90DF90CF90BF90AF909F908F907F90CC
:102CD0006F900895E4E6F0E080818F7B8083E0EBE5
:102CE000F0E08081826080831092B30082E0809364
:102CF000B100E0E7F0E080818260808308950F9367
:102D00001F939B01AC0160E070E081E699E40E94B2
:102D1000671820E030E040E85FE30E94FE170E9461
:102D2000CF188B019C01FB01CB016FEF70E00E947B
:102D3000331A462F6F5FC80170E00E94331A242FA8
:102D400030E0862F90E0DC01A29FC001A39F900D90
:102D5000B29F900D1124E81BF90B88279927821B3D
:102D6000930B03C0E80FF91F6F5FEF3FF10509F008
:102D7000C8F76150F8946093440140934601E09392
:102D80004F0478941F910F9108951F920F920FB6E0
:102D90000F9211248F939F9380914701882351F0C4
:102DA000809145018093B3008091470181508093C9
:102DB000470114C08BB198E089278BB980915004EA
:102DC0008093B30080914601809347018091440134
:102DD0008093450180914F04809350049F918F917F
:102DE0000F900FBE0F901F901895AF92BF92CF9289
:102DF000DF92EF92FF920F931F9382E00E94F314F1
:102E000023E93BE248E450E40E94B1197B018C01C4
:102E10006091860270918702809188029091890268
:102E20000E94EE0D5B016C0120E030E040E050E0DC
:102E30000E946318882329F4EE2D7F2D802F612FA7
:102E400014C0C801B701A60195010E94FE172AE02F
:102E500037ED43EA5BE30E94B1199B01AC01C60167
:102E6000B5010E94FF17E62F692F2E2F372F482F0D
:102E7000562FB901CA010E94EE0D6093860270932D
:102E8000870280938802909389021F910F91FF908F
:102E9000EF90DF90CF90BF90AF900895F8940C948E
:102EA0007E1AFB01DC0102C005900D92415050409A
:102EB000D8F70895FB01DC0102C001900D9241504A
:102EC0005040D8F70895FB01DC010D900020E9F790
:102ED000119701900D920020E1F70895FB01DC01AC
:102EE00001900D920020E1F70895A0E0B0E0EBE73B
:102EF000F7E10C94511A7C01EB018A01690109C0C8
:102F0000CE012196F6010995F70181937F010150C9
:102F1000104001151105A1F7CDB7DEB7E8E00C941C
:102F20006D1ADF92EF92FF920F931F937B018C013A
:102F3000FB010995D82EC8010196F7010995982F34
:102F40008D2D1F910F91FF90EF90DF900895A0E0DD
:102F5000B0E0EDEAF7E10C94511AEC017B018A0133
:102F6000690109C0CE012196F70161917F01F60147
:102F700009950150104001151105A1F7CDB7DEB735
:102F8000E8E00C946D1ADF92EF92FF920F931F937B
:102F9000D72E7A018C01FA010995C80101966D2D91
:102FA000F70109951F910F91FF90EF90DF90089521
:102FB000FB019F01423074F0453264F4642F77279F
:102FC0000E94331A805D8A330CF0895D8193CB01B6
:102FD0000097A1F71082C9010C94EE17DC01FC01E7
:102FE000672F71917723E1F7329704C07C916D933D
:102FF00070836291AE17BF07C8F308955058BB277E
:10300000AA270ED070C161D130F066D120F031F422
:103010009F3F11F41EF456C10EF4E095E7FB4CC13E
:10302000E92F72D180F3BA176207730784079507F7
:1030300018F071F49EF58AC10EF4E0950B2EBA2FAC
:10304000A02D0B01B90190010C01CA01A0011124AE
:10305000FF27591B99F0593F50F4503E68F11A165A
:10306000F040A22F232F342F4427585FF3CF4695EB
:1030700037952795A795F0405395C9F77EF41F160D
:10308000BA0B620B730B840BBAF09150A1F0FF0FD7
:10309000BB1F661F771F881FC2F70EC0BA0F621FC3
:1030A000731F841F48F4879577956795B795F795B3
:1030B0009E3F08F0B3CF9395880F08F09927EE0F45
:1030C000979587950895D4D008F481E008950CD0A1
:1030D0000AC102D140F0F9D030F021F45F3F19F07D
:1030E000EBC0511134C1EEC00FD198F39923C9F34D
:1030F0005523B1F3951B550BBB27AA2762177307FE
:10310000840738F09F5F5F4F220F331F441FAA1FB1
:10311000A9F333D00E2E3AF0E0E830D09150504071
:10312000E695001CCAF729D0FE2F27D0660F771F1F
:10313000881FBB1F261737074807AB07B0E809F001
:10314000BB0B802DBF01FF2793585F4F2AF09E3F96
:10315000510568F0B1C0FBC05F3FECF3983EDCF373
:10316000869577956795B795F7959F5FC9F7880F0F
:10317000911D9695879597F90895E1E0660F771F61
:10318000881FBB1F621773078407BA0720F0621BF2
:10319000730B840BBA0BEE1F88F7E0950895BCD033
:1031A00088F09F5790F0B92F9927B751A0F0D1F030
:1031B000660F771F881F991F1AF0BA95C9F712C0BA
:1031C000B13081F0C3D0B1E00895C0C0672F782F2F
:1031D0008827B85F39F0B93FCCF386957795679526
:1031E000B395D9F73EF490958095709561957F4F92
:1031F0008F4F9F4F0895E89409C097FB3EF4909538
:103200008095709561957F4F8F4F9F4F9923A9F0BF
:10321000F92F96E9BB279395F6958795779567954E
:10322000B795F111F8CFFAF4BB0F11F460FF1BC092
:103230006F5F7F4F8F4F9F4F16C0882311F096E925
:1032400011C0772321F09EE8872F762F05C06623D3
:1032500071F096E8862F70E060E02AF09A95660F8C
:10326000771F881FDAF7880F9695879597F9089545
:10327000990F0008550FAA0BE0E8FEEF1616170687
:10328000E807F907C0F012161306E407F50798F0EF
:10329000621B730B840B950B39F40A2661F0232B08
:1032A000242B252B21F408950A2609F4A140A69584
:1032B0008FEF811D811D089597F99F6780E870E069
:1032C00060E008959FEF80EC089500240A9416169C
:1032D000170618060906089500240A941216130604
:1032E000140605060895092E0394000C11F4882392
:1032F00052F0BB0F40F4BF2B11F460FF04C06F5FAE
:103300007F4F8F4F9F4F089557FD9058440F551F83
:1033100059F05F3F71F04795880F97FB991F61F057
:103320009F3F79F087950895121613061406551FCE
:10333000F2CF4695F1DF08C0161617061806991F3A
:10334000F1CF86957105610508940895E894BB272F
:1033500066277727CB0197F908958ADF08F48FEF66
:1033600008950BD0C0CFB1DF28F0B6DF18F0952359
:1033700009F0A2CFA7CF1124EACFC6DFA0F3959F13
:10338000D1F3950F50E0551F629FF001729FBB274C
:10339000F00DB11D639FAA27F00DB11DAA1F649FF8
:1033A0006627B00DA11D661F829F2227B00DA11DAB
:1033B000621F739FB00DA11D621F839FA00D611D31
:1033C000221F749F3327A00D611D231F849F600D52
:1033D000211D822F762F6A2F11249F5750408AF08B
:1033E000E1F088234AF0EE0FFF1FBB1F661F771F17
:1033F000881F91505040A9F79E3F510570F05CCF57
:10340000A6CF5F3FECF3983EDCF386957795679502
:10341000B795F795E7959F5FC1F7FE2B880F911D34
:103420009695879597F90895629FD001739FF00153
:10343000829FE00DF11D649FE00DF11D929FF00D44
:10344000839FF00D749FF00D659FF00D9927729F7B
:10345000B00DE11DF91F639FB00DE11DF91FBD0106
:10346000CF0111240895AA1BBB1B51E107C0AA1F5D
:10347000BB1FA617B70710F0A61BB70B881F991F15
:103480005A95A9F780959095BC01CD0108952F928A
:103490003F924F925F926F927F928F929F92AF92E4
:1034A000BF92CF92DF92EF92FF920F931F93CF9331
:1034B000DF93CDB7DEB7CA1BDB0B0FB6F894DEBFC8
:1034C0000FBECDBF09942A88398848885F846E84EE
:1034D0007D848C849B84AA84B984C884DF80EE8038
:1034E000FD800C811B81AA81B981CE0FD11D0FB641
:1034F000F894DEBF0FBECDBFED010895F894FFCF65
:103500006314430000463D0030003030303000206E
:10351000743D00303000204E3D002E300A0D000179
:103960000F931F93CF93DF93DA010FB7F894F99970
:10397000FECFAB0183E0FB0180935700E89507B6CB
:1039800000FCFDCFFA0111E0BA0160587F4F8C9125
:1039900011963C91119720E0E901C80FD11D1296B4
:1039A0000E0110935700E89511243296E617F70799
:1039B00071F785E0FA0180935700E89507B600FC9F
:1039C000FDCF81E180935700E8950FBFDF91CF9144
:0639D0001F910F91089504
:103B000000000000000000000000000000000000B5
:103B100000000000000000000000000000000000A5
:103B20000000000000000000000000000000000095
:103B30000000000000000000000000000000000085
:00000001FF
