:1000000058C4000073C400000C949A196FC4000017
:100010006DC400006BC4000069C40000A2C50000EC
:1000200065C400000C94AC09F0C500005FC400007A
:100030005DC400001BC6000059C4000057C4000086
:100040000C94D60A53C400000C94ED080C94680973
:100050000C9449094BC4000049C4000047C4000087
:1000600045C4000043C40000F20EF70EFE0E030F5D
:10007000080F0A0F0F0F7B138F13C113D513DE1355
:10008000E013F41308141C14F0FC06030303030626
:10009000FCF000071F3060606060301F0700001830
:1000A0000C0603FFFF0000000000000000007F7F3F
:1000B0000000000000040603030303C3FE3C00002D
:1000C0006070786C666361606060000203C3C3C3E4
:1000D000C3E3BE1C0000206060606060713F1F00D1
:1000E00080C06030180C06FFFF00000707060606F8
:1000F00006067F7F060000FEFFC3C3C3C3C38300A1
:100100000000206060606060313F1F00F0FC8EC620
:10011000C3C3C3C38300000F1F3160606060703FC2
:100120001F00000303030383E37B1F07000000603D
:10013000781E070100000000001CBEE3C3C3E3BE3D
:100140001C00001E3F6160606060613F1E007CFE1D
:10015000C783838383C7FEF80000606161616131FA
:10016000391F0F0000000000000000000000000028
:10017000000000707070000000000000FCFC0C0C1F
:100180000C0C7C7C0000007F7F0000000000000061
:1001900000000000000000000000007F7F60606041
:1001A0007FFFE00000000000FCFC8C8C8C8CFC7855
:1001B0000000007F7F616161617F3E000000000000
:1001C0000000005F000000070007007E5F5F5F7EA9
:1001D00000482C1A0923130864623649562050003F
:1001E00008070300001C2241000041221C002418C3
:1001F0007E182408083E08080080703000080808AF
:100200000808000060600020100804023E414941D7
:100210003E00427F400072494949462141494D33E1
:100220001814127F1027454545393C4A4949314148
:10023000211109073649494936464949291E000016
:10024000140000004034000000081422411414146B
:100250001414004122140802015909063E415D5957
:100260004E7C1211127C7F494949363E4141412260
:100270007F4141413E7F494949417F090909013E8A
:10028000414151737F0808087F00417F41002040B1
:10029000413F017F081422417F404040407F021CC3
:1002A000027F7F0408107F3E4141413E7F090909DA
:1002B000063E4151215E7F091929462649494932A6
:1002C00003017F01033F4040403F1F2040201F3F6C
:1002D0004038403F631408146303047804036159F1
:1002E000494D43007F414141020408102000414133
:1002F000417F0402010204404040404000030708DF
:100300000020545478407F284444383844444428DA
:10031000384444287F385454541800087E09021881
:10032000A4A49C787F0804047800447D4000204009
:10033000403D007F1028440000417F40007C04784D
:1003400004787C080404783844444438FC18242495
:100350001818242418FC7C08040408485454542415
:1003600004043F44243C4040207C1C2040201C3C92
:100370004030403C44281028444C9090907C446489
:10038000544C44000836410000007700000041361C
:10039000080002010204027C1211127C7F494949C3
:1003A000307F494949367F01010101603E213F60AC
:1003B0007F4949494177087F087722494949367F73
:1003C0001008047F7F1009047F7F08142241407EBB
:1003D00001017F7F0204027F7F0808087F3E4141C0
:1003E000413E7F0101017F7F090909063E414141EC
:1003F0002203017F0103274848483F06097F090679
:1004000063140814637F404040FF0F1010107F7F7B
:10041000407E407F7F407E40FF017F4848307F48DC
:1004200030007F7F48484830224149493E7F083E9E
:10043000413E462919097F20545478403C4A4A4A93
:10044000307C545454287C0404040418A4A49478E4
:1004500038545454186C107C106C28445454287C24
:100460002010087C7C2012087C7C102844004078F6
:1004700004047C7C0810087C7C1010107C384444F8
:1004800044387C0404047C7C141414083844444428
:10049000280C047C040C4C9090907C08147C14086C
:1004A00044281028447C404040FC0C1010107C7CF8
:1004B0004078407C7C407840FC047C5050207C504C
:1004C00020007C007C50502028445454387C103844
:1004D0004438085434147C4E6D61783A0049442005
:1004E000203A00303030303030009E0611081108BC
:1004F0001108110811081108BA07A30711081108FB
:100500001108110811081108BA07A00511081108EF
:1005100011081108920511081B0604061108EF05C1
:10052000D9051108C4051108B505430611081108BD
:1005300030061108110811081B065A061108110887
:100540001108110811081108710687061108110811
:1005500011081108110811087106EE06EB06E206F3
:10056000D406C606B5062E071108A30798078D07FF
:1005700083077C0769075E0754074F074407340762
:100580002E07FA078307EF07E807E10711081108AC
:10059000D007202020202020202052657365740081
:1005A00020205B20456469742073657474696E67EC
:1005B0007320205D00202020202020202043616E19
:1005C00063656C0020202844656661756C7420208A
:1005D0003A2031393230302900202033383430305D
:1005E0002020353736303020313135323030002060
:1005F0002039363030202020313434343020313925
:10060000323030005B20202020202042617564724F
:100610006174652020202020205D00202043616E31
:1006200063656C20202020202020202020CECA00BE
:10063000202020202D2020205B203031205D202014
:10064000202B005B202020202049442073656E73FE
:100650006F722020202020205D005B20416E616CA5
:100660006F67206F75747075742020202020205DC6
:10067000002045786974202020202043616C696245
:10068000726174696F6E005B2020467265717565DA
:100690006E6379206F757470757420205D005B2027
:1006A000202020205253343835206F7574707574B3
:1006B0002020205D005472616E736D69742074692E
:1006C0006D652C20F10053656C66207472616E7349
:1006D0006D6974004E6574776F726B206D6F646521
:1006E00020004261756472617465004944005B20BA
:1006F000202020202053657474696E6773202020A9
:100700002020205D002020206E6F20636F6E6E65BC
:100710006374696F6E00544558540042494E004F4F
:10072000464620004F4E2000492C206DC0004578E1
:1007300069742000436F6E6E656374696F6E20206C
:100740002E2E2E0041766572616765202020004EB6
:100750006D61780046756C6C2074616E6B00456D40
:100760007074792074616E6B0020202020456469CC
:10077000742073657474696E677320004572726FBC
:100780007220004672657175656E6379004C6576FE
:10079000656C2C2020204E004C6576656C2C20204A
:1007A0002025005B20202020205253323332206F3E
:1007B00075747075742020205D0020457869742060
:1007C00020202020202053657474696E67732000F8
:1007D000202020202020537769746368206F66668C
:1007E0000052532D3438350052532D3233320041EC
:1007F0006E616C6F6720202020005B20202020206D
:1008000053656E736F722074797065202020205DAF
:10081000000020204572726F722063616C69627201
:100820006174696F6E2100436865636B2063616C5E
:100830006962726174696F6E2E2E2E0020D1616C18
:100840006962726174696F6E20636F6D706C65743C
:100850006500202043616C6962726174696E672073
:100860002E2E2E2020200020436F6E6E6563742094
:1008700070726F62652020202020202000204469B3
:1008800073636F6E6E6563742070726F6265202093
:10089000202000312E302E390056657273696F6E3C
:1008A00020203A0043616C69627261746F72203378
:1008B000000011241FBECFEFD4E0DEBFCDBF11E09A
:1008C000A0E0B1E0ECECF9E302C005900D92A0339A
:1008D000B107D9F723E0A0E3B1E001C01D92AC302D
:1008E000B207E1F70E94A4190C94E41C89CB88306C
:1008F00058F490917C00987F892B80937C008091A4
:100900007A00806480937A000895CF9380917A0072
:1009100086FD31C0E0913001F0913101309759F1FD
:10092000809132018630A1F0873051F08130D9F4C6
:1009300080917800909179009383828386E014C03F
:1009400080917800909179009183808381E00CC040
:1009500080917800909179009583848387E08093DB
:100960003201C1E004C087E080933201C0E0809191
:100970003201BDDF01C0C0E08C2FCF91089590936C
:100980003101809330011092320110927C0087E88F
:1009900080937A000895BC0180E090E00E94C71A1D
:1009A00022E133E840E85FE30E94551B0E949B1A56
:1009B000CB010895BC0180E090E00E94C71A21E0BD
:1009C00030E040E85DE30E94551B20E030E040E06D
:1009D0005FE30E94371A0E949B1ACB01089587DFBC
:1009E00080917A0086FDFCCF80917800909179000B
:1009F00008951092310110923001ECE7F0E080810F
:100A0000887F808310927A00089580E786BD89B13F
:100A1000909138018095282F2927909135019223B4
:100A2000892F8095809335019091340192239827E6
:100A300090933401822389239091380198279093D1
:100A4000380120913801909137018223892B8093BE
:100A500037018091380183FD03C082E38093330125
:100A60008091330181508093330181110BC084E167
:100A70008093330180913801909136018870892BE1
:100A8000809336010895F8949091370189239091CD
:100A9000370198279093370178940895F8949091AE
:100AA00036018923909136019827909336017894E6
:100AB0000895F8949091380190958923E4CF089592
:100AC000EDDFE1CF08959091370190958923E6CF2E
:100AD000089553985B9A14BC85E085BDEEE6F0E07E
:100AE00080818160808310923501109234011092D0
:100AF00033010895FC01628355834483318320834D
:100B000013820895FC0162830895FC0163830895B4
:100B10009C01229A82E08093B00085E08093B1002E
:100B2000E0E7F0E0808182608083C901A0E0B0E06E
:100B30002227382F492F5A2F60E070E081EE90E095
:100B40000E94CC1B21502093B30008952A98109244
:100B5000B0001092B100E0E7F0E080818D7F8083EB
:100B600008951A9A189510928000E1E8F0E010823A
:100B7000109278021092770281E4808380818068ED
:100B80008083EFE6F0E08081816280830895109297
:100B9000800010928100EFE6F0E080818172808316
:100BA000089580917B0290917C02892BD9F060910D
:100BB0007B0270917C022091790230917A02CB0104
:100BC000A0E0B0E0DC0199278827BC01CD01620FCD
:100BD000731F811D911D21E430E040E050E00E9430
:100BE000CC1B0BC08091790290917A0261E470E095
:100BF0000E94B81B9B0140E050E060E070E08AEC8E
:100C000098E00E94CC1BC90108951F920F920FB665
:100C10000F9211242F933F938F939F9320918600DF
:100C2000309187008091770291E0980F909377023E
:100C3000803498F030937A02209379028091780280
:100C400090E090937C0280937B0210927802109245
:100C5000770210928500109284009F918F913F91AE
:100C60002F910F900FBE0F901F9018951F920F920B
:100C70000FB60F9211248F93809178028F5F80932B
:100C80007802809178028F3F41F410927C0210929A
:100C90007B0210927A02109279028F910F900FBE10
:100CA0000F901F9018951092B9008AE08093B800B9
:100CB00084E08093BC000895ECEBF0E080818B7EB3
:100CC00080830895A89581EA96E8A1E0B0E020919C
:100CD000BC0027FD0BC02091B900222339F00197F9
:100CE000A109B109A1F7E8DFDECF0895089584EAEC
:100CF0008093BC00E7CF089584E98093BC0081E332
:100D00008A95F1F7000008958093BB0084E88093F2
:100D1000BC00D8CF0895CF93C82FE9DF80E7F4DF78
:100D20008C2FF2DFE9DFCF9108958EEAF4CF08959A
:100D3000DEDF82E7E9CF0895FF920F931F93CF93F1
:100D4000DF93F62EC0EEC80FCF3508F0C0E0F0DF1D
:100D500085E0C89FE001112400E010E0FE01E00FF3
:100D6000F11FE454FE4F85919491F1108095CCDFF2
:100D70000F5F1F4F0530110589F78F2D8195C4DF57
:100D8000BBDFCDB7DEB7E5E00C941D1C60E0D4DF1F
:100D900080E090E00895B0CF0895CF93C62F806B88
:100DA000BADFA5DF80E7B0DF8C2F8F70ADDF8C2F2F
:100DB00082958F708061A8DF9FDFCF910895EF92B9
:100DC000FF920F931F93CF93DF93C82FF62EE42E3D
:100DD000642F8F2DE2DF86E1C89FE0011124C85700
:100DE000DF4FA6DF00E010E0FE01E00FF11F85916C
:100DF00094918ADF0F5F1F4F0B301105A9F77CDF3D
:100E00006E2D81E08F0DC9DF8E010A5E1F4F90DFCE
:100E10002B96C017D10730F4FE018591949174DFB1
:100E20002196F7CF69DFCDB7DEB7E6E00C941C1C46
:100E3000A6E0B0E0EEE1F7E00C94FA1BF42E122FDE
:100E40009E012F5F3F4F590126E0F50111922A952F
:100E5000E9F7611571058105910521F4DD24D3942D
:100E6000D40E19C020E0DD24D394D20E4501820EA9
:100E7000911C27FD9A942AE030E040E050E00E9467
:100E8000CC1BF4016083B901CA012D2D61157105D8
:100E90008105910541F78D2D0D2C000C990B212F0B
:100EA00030E08217930734F4D394F501E80FF91F6B
:100EB0001082F1CFCC2049F026E030E0281B390B1E
:100EC0008BE0289F202D112401C020E0E20E60E07D
:100ED000802F63DF2DDF10E01E1521F080E014DF8E
:100EE0001F5FFACF09DF60E081E0800F56DF20DF6F
:100EF00010E01E1521F080E007DF1F5FFACFFCDE57
:100F00001FEF1D0D8D2D0D2C000C990B2F2D30E09A
:100F1000281739076CF4F501E10FF11D17FDFA955B
:100F20004E2D602F80814BDFFBE0EF0ED12EE8CFFE
:100F3000FF2021F04E2D602F8AE041DF17FD10C009
:100F40002BE0E20EFF24FA94F10EF501E10FF11D02
:100F500017FDFA954E2D602F808131DF1F2DEECFCA
:100F60008E2D2696ECE00C94161CCF92EF920F93E8
:100F7000CF93DF93D22FCC24C394E02E022F21E015
:100F800057DFC82F4BE0480F6D2F8BE018DF46E18D
:100F90004C0F6D2F8CE013DFDF91CF910F91EF900D
:100FA000CF900895CF92EF920F93CF93C22FCC247E
:100FB000C394E02E022F23E03BDF4BE0480F6C2F61
:100FC0008DE0FDDECF910F91EF90CF900895CF93FC
:100FD000DF938DDE80E798DE80EB96DE80E094DEA6
:100FE00080E192DE89DEA4DEC0E2D4E080E08CDE27
:100FF0002197E1F781DEDF91CF9108958FEF9FE890
:101000000197F1F700C0000082EE85DE8FEF9FE8C8
:101010000197F1F700C000006ADE80E775DE8BEE15
:1010200073DE81E871DE8EE66FDE86EC6DDE8FEAC0
:101030006BDE62DECCDF80E091E090930903809369
:10104000080308951092B00085E08093B1001092DB
:10105000B2000895EFE8F2E02FEF3FEF8150C8F0C3
:1010600091912927922F92959227092E96959695E0
:101070009025092E969590259770022E232F9695F0
:1010800007949795302D2927069497953025292781
:10109000E5CFC9010895809139018250DBDFE091ED
:1010A0003901F0E0E357FD4F20813181821793072A
:1010B00011F480E0089583E00895CF93C82F8D3F09
:1010C00090F0809183029091840201969093840223
:1010D000809383028091900280688093900283E0E5
:1010E00080939102C2E08091C1008F7E8093C10005
:1010F0008091CF02882311F0429A439A60938F0225
:1011000081E08C0FA7DFEC2FF0E0E157FD4F8183EA
:1011100092838FE892E090933B0180933A01CD5FF8
:10112000C0933901E091D002F091D10235978081CE
:10113000806280838091C10084FFFCCFCF910895AD
:1011400080910E01823051F48091B2008A3C30F0DF
:1011500085E080930E0180913901089580910E0100
:10116000853019F481E080930E0180E00895CF93DB
:1011700090913901943028F190913901913408F51A
:10118000C82F89DF81111DC020917F02309180021C
:101190002F5F3F4F3093800220937F02CC2321F0BA
:1011A00090918F02C91317C0809185029091860299
:1011B0000196909386028093850280913901835035
:1011C0000AC08091810290918202019690938202DE
:1011D0008093810280E0CF9108951F920F920FB605
:1011E0000F9211242F933F934F935F936F937F93AD
:1011F0008F939F93AF93BF93CF93EF93FF93E09120
:10120000D002F091D102C08180910E01853091F021
:1012100080910E01813039F48091B2008A3C50F007
:101220001092390109C08091B20087FF05C081E0AA
:1012300080930E0107DF1BC005DF8091390181110A
:1012400005C0CC23A1F082E080930E01E09139012A
:1012500081E08E0F80933901F0E0E157FD4FC083AC
:1012600080913901803418F081E080930E01FF9164
:10127000EF91CF91BF91AF919F918F917F916F919E
:101280005F914F913F912F910F900FBE0F901F9044
:1012900018951F920F920FB60F9211248F93809181
:1012A000C1008F7B8093C10081E080930E0180910B
:1012B000C10080618093C1008091CF02882311F02A
:1012C000429843988F910F900FBE0F901F901895E2
:1012D0001F920F920FB60F9211248F939F93AF938B
:1012E000BF93EF93FF93E091D002F091D102A091D0
:1012F0003A01B0913B018C91808380913A019091A9
:101300003B01019690933B0180933A018091390112
:1013100081508093390180913901811112C08091EF
:10132000C00080648093C000E091D002F091D102AF
:10133000359780818F7D80838091C1008064809308
:10134000C100FF91EF91BF91AF919F918F910F904D
:101350000FBE0F901F9018951F920F920FB60F920D
:1013600011248F938FEF8093B2001092B1008F9170
:101370000F900FBE0F901F9018951F93CF93DF9380
:10138000EC01162FDDDE8823A9F0812FF0DE81111C
:1013900003C020E030E002C02FE832E030933D018E
:1013A00020933C012397282F30E081E0C217D30718
:1013B00009F080E0DF91CF911F910895FC018081B9
:1013C0009381908383838181928191838283089525
:1013D00026EC30E03093D1022093D002E0E7F0E039
:1013E0009081916090838093CF0208951092B00015
:1013F0001092B100E0E7F0E080818E7F8083089555
:10140000EFE8F2E024E021839283838314826583F2
:10141000642F85E052CE0895EFE8F2E026E02183C4
:101420009283838374836583642F85E046CE089519
:1014300080918F020895682F88E090E09ECF0895F4
:10144000880F991F059699CF089520913C0190919E
:101450003D01E22FF92FE80FF11DE80FF11D838107
:1014600090E0982F88272481820F911D0895A4E091
:10147000B0E0EDE3FAE00C94041C20913C01909163
:101480003D01E22FF92FE80FF11DE80FF11D8381D7
:101490009481A581B68189839A83AB83BC83CE0175
:1014A00001968CDF69817A818B819C812496E2E0B0
:1014B0000C94201CA4E0B0E0E0E6FAE00C94041CDC
:1014C00020913C0190913D01E22FF92FE80FF11D91
:1014D000E80FF11D83819481A581B68189839A8368
:1014E000AB83BC83CE01019669DF69817A818B81F0
:1014F0009C812496E2E00C94201C80914001826043
:101500008093400110924901109248010895109271
:10151000490110924801809140018E7F8D7F809318
:1015200040010895809140018170089580914001AB
:101530008B7F8093400110924301109242010895E5
:101540006AE070E00E94B81B70934501609344010B
:10155000089590914001892F847092FF02C0E6DFC8
:1015600081E0089580914001877F8093400110922F
:10157000470110924601089590914001892F88708B
:1015800093FF02C0EFDF81E0089593E494BD9BE0F8
:1015900095BD813029F48093410180E887BD08958D
:1015A00088EC87BD82E08093410108951F920F92DD
:1015B0000FB60F9211242F933F934F935F936F9326
:1015C0007F938F939F93AF93BF93EF93FF938091FC
:1015D00041018130C1F420913E0130913F01C901A8
:1015E000019690933F0180933E0121153240D0F443
:1015F0008038910510F080E224C08034910508F411
:1016000083C080E41EC08230F1F420913E0130910D
:101610003F01C901019690933F0180933E0121153E
:10162000304150F010923F0110923E011092410162
:1016300085E085BD14BC68C08115924008F464C083
:101640008DE187BD61C08091400180FF05C010928F
:1016500049011092480121C020914801309149016F
:101660002F5F3F4F3093490120934801203546E4D6
:10167000340730F0109249011092480181600BC08C
:1016800081FF0BC02436310540F0109249011092C1
:10169000480181608D7F809340018091400183FDEE
:1016A00015C02091460130914701A9014F5F5F4F5E
:1016B00050934701409346012C32314038F010924C
:1016C000470110924601886080934001809140015B
:1016D00082FD19C02091420130914301A9014F5F61
:1016E0005F4F509343014093420140914401509118
:1016F00045012417350738F010924301109242013A
:1017000084608093400181D9FF91EF91BF91AF91A7
:101710009F918F917F916F915F914F913F912F9109
:101720000F900FBE0F901F9018950F931F938B0172
:101730009C01DC01CB01905EA34EBF4FBC01CD01EB
:1017400043E0660F771F881F991F4A95D1F7A901BB
:101750009801E4E0220F331F441F551FEA95D1F78B
:101760000E94CC1B215031093093C5002093C40046
:1017700088E98093C1001F910F9108951092C500D0
:101780001092C4001092C1000895429A439808959F
:101790005C9A5A9808955C985A9A089596E1899FA0
:1017A000A001112420E030E0F901E40FF51FE95316
:1017B000FE4F90E290832F5F3F4F26313105A1F716
:1017C00008958F738093C50180EB8093C6010895BF
:1017D000EF92FF920F931F93CF93DF9307EC11E0EB
:1017E00087E792E0F80120E221938E179F07D9F74F
:1017F000E0918101F0918201E480F580C0E0D0E0C9
:10180000D701ED91FC91EC0FFD1F65917491C8011A
:101810000E945A1C22960A5E1F4FC031D10581F7E3
:10182000CDB7DEB7E6E00C941C1C0F931F93CF934B
:10183000DF93C82F8091E20280FD02C080E201C0E8
:1018400084E28093C80160E08C2FA7DA0091C50183
:10185000000F000F05950595002E000C110B8C2F25
:1018600090E00817190709F052C0C0E02C2F30E0B3
:101870008091C501982F9295969596959370809139
:10188000C6018770880F880F892B90E028173907C9
:1018900084F4CF5F46E1409FC001419F900D112429
:1018A00089539E4FFC01E20FF31F60E0808144DA10
:1018B000DDCF2C2F30E08091C601869586958695E8
:1018C00090E02817390784F4CF5F46E1409FC001BC
:1018D000419F900D112489539E4FFC01E20FF31F8D
:1018E00061E0808129DAE5CFC63118F5D1E0DC0F5F
:1018F00086E1809FF001819FF00D1124E953FE4F96
:10190000EC0FF11D60E0808117DACD2FEDCF86E17D
:10191000C89F80011124C0E0D0E0FE01E00FF11F5C
:10192000E953FE4F60E0808107DA2196C631D10588
:10193000A1F7DF91CF911F910F910895CF93C0E050
:101940008C2F73DFCF5FC830D9F78091C5018F63CB
:101950008093C501CF910895EF92FF920F931F934B
:10196000CF93DF93C82F7B018A0118DF86E1C89FE0
:10197000E0011124B701CE0189539E4F0E945A1CE9
:10198000C8010E94611CC81BD90BAC01B801CE0173
:1019900083529E4F0E94511CCDB7DEB7E6E00C94F7
:1019A0001C1C0F931F93CF93C82F8B01F7DEC80128
:1019B0000E94611C46E1C49F90011124AC01B80152
:1019C000C90189539E4F0E94511CCF911F910F91C5
:1019D0000895AAE0B0E0EFEEFCE00C94FE1B6B0172
:1019E0007C0163EE74E087E791E00E945A1C2AE0D4
:1019F0008E010F5F1F4FA801C701B6010E94921C04
:101A0000F80101900020E9F73197CF01801B910B7D
:101A1000F801E80FF91FADE7B1E021E030E03197C0
:101A2000821793072CF040814E932F5F3F4FF7CFE3
:101A300086E0E7E7F1E0A0E1B2E001900D928A953F
:101A4000E1F72A96E8E00C941A1CABE0B0E0EBE278
:101A5000FDE00C94FE1B082F6B01CA01B9012AE0BE
:101A6000AE014F5F5F4F7A010E94921C802F96DE7D
:101A700056E1059F80011124B601C80189539E4F8C
:101A80000E945A1CF70101900020E9F73197AF013D
:101A90004E195F09C801841B950BB70183529E4FF5
:101AA0000E946A1C2B96E8E00C941A1C1F93CF939B
:101AB000DF93142FB1DCC0E0D0E0812FBCDC219695
:101AC000811105C0C03880E7D807B9F78FEFDF91E3
:101AD000CF911F910895A0E0B0E0E1E7FDE00C9404
:101AE000FE1BEC018091E30282FF2AC071DE8B8134
:101AF0008093800110927F0110927E010091F0028C
:101B00001091F102C8010E94611CAC01B8018AEF7A
:101B100091E00E94511C6091E8027091E90280916D
:101B2000EA029091EB0255DF83EC8093C50181E4DA
:101B30008093C60103DF8091E3028B7F8093E302F1
:101B40008091E30280FF58C090917E01911109C0FD
:101B500080917F018F5F80937F01893010F0109218
:101B60007F01E0917F01E630B1F148F0E730C1F14B
:101B7000E830E1F587E48093C5018CEA35C099230C
:101B8000A9F0F0E0E958FE4F80818F5F80838A33AF
:101B900010F080E3808386E0E7E7F1E0A0E1B2E0C7
:101BA00001900D928A95E1F7C1DC20C087E08E0F8D
:101BB000982F9295990F990F907C93609093C501FF
:101BC00086958695E85FEE0FEE0FEE0F8770E82B97
:101BD000E093C6010BC085EC8093C50181E704C08A
:101BE00087E48093C50188E48093C601A7DE8091D5
:101BF000E3028E7F8093E302ACDC882331F1809195
:101C00007E01882311F19091760181E089278093EC
:101C100076018823C9F080917F0197E0980F292FE2
:101C20002295220F220F207C23602093C501292FAB
:101C300026952695885F982F990F990F990F822FD7
:101C40008770892B8093C60179DE8091E30281FF42
:101C50008DC080917F01863059F130F0873009F4D2
:101C600075C0883089F17DC081E090917E0191112D
:101C700080E080937E0180E991E062DC80917F01C9
:101C800097E0980F292F2295220F220F207C2360A6
:101C90002093C501292F26952695885F982F990FA7
:101CA000990F990F822F8770892B8093C60109C0E5
:101CB0006091E4027091E5028091E6029091E70262
:101CC00088DE83E0B2DD4DC08091EF028130B9F44F
:101CD00087E791E00E942B1C0E94C91A6B017C01CE
:101CE0008091EE0240918001B70190E0DFDE8091AB
:101CF000EE0290E040918001B601019624C081116E
:101D000030C087E791E00E942B1C0091EC021091FB
:101D1000ED0220E030E0061717072807390710F416
:101D2000C901B8012091EE0240918001822F90E01C
:101D3000BDDE9091EE02963139F44091800161E070
:101D400070E085E190E0B2DE882359F08BE991E004
:101D500090938201809381018091E302846080935B
:101D6000E3028091E3028D7F8093E302CDB7DEB77B
:101D7000E8E00C941A1CCF92DF92EF92FF92CF937F
:101D8000DF93EC018091E30282FF13C021DD8B81A0
:101D9000809375018091110181508093740180912D
:101DA000E30281608093E3028091E3028B7F809362
:101DB000E3028091E30280FF3AC0809174018F5F5B
:101DC00080937401873010F010927401E0917401D7
:101DD0008E2F90E08730910520F5FC01EC5CFF4FE1
:101DE0000C94EE1B82E88093C50180E304C082E47A
:101DF0008093C50182E78093C60113C082EC809373
:101E0000C50183EAF8CF83E88093C50188E3F3CF67
:101E100083E4EECF83EC8093C5018BEAECCF87E0BF
:101E2000D0DC8CDD8091E3028E7F8093E302809191
:101E3000E30281FF34C0E0917401E63018F0E6302F
:101E4000F1F028C0E093110184E0E89FF001112433
:101E5000E85EFE4FC080D180E280F380B701882722
:101E600099274091750180E290E020DE4091750154
:101E7000B60181E290E01ADEC701B60156DC85E9C1
:101E800091E090938201809381018091E3028460CC
:101E90008093E3028091E3028D7F8093E302DF91E0
:101EA000CF91FF90EF90DF90CF9008951F93CF9345
:101EB000DF93182FC62FD42F4CDB882329F04D2F0A
:101EC0006C2F812F90E09CDA6D2F8C2F90E0B8DA88
:101ED000DF91CF911F9108950F931F93CF93DF93BD
:101EE000D62F890161E0E2DFC82F882361F08FEFF0
:101EF0008D0F873040F480E0A8DA9C0140E050E08C
:101F0000B8018D2FA2DD8C2FDF91CF911F910F9102
:101F10000895A6E0B0E0EFE8FFE00C94011C8C010E
:101F20008091E30282FF11C01092710151DC81E0C7
:101F30008093700182E080936F0181E042DCFEDCDF
:101F40008091E3028B7F8093E30280916F01FF24F5
:101F5000FA94F80E40917101442309F48AC0833049
:101F600041F160F4882391F0823009F07CC0242F85
:101F700030E040E050E06BEE76E027C0853009F4B9
:101F80003BC030F1863009F462C06DC02FEF8FE3A3
:101F900092E0215080409040E1F700C00000609145
:101FA0006E0170E080916D014091710190E07EDDE5
:101FB0005EC062E080E27ADF882309F463C080E0DB
:101FC00079DA9B01AC0162EE76E08F2D3EDD39C0FF
:101FD00061E08BE16BDF882309F454C080E035DADF
:101FE00080936C01813019F04FE157E002C044E268
:101FF00057E064ED76E023C061E089E157DF882394
:1020000009F440C086E0E2E1F1E0DE0111960190C2
:102010000D928A95E1F780E018DA80936B018330A6
:1020200080F4FC01FF27EE0FFF1F81E090E08C0F92
:102030009D1FE80FF91F4081518166EC76E08F2DDE
:102040008BDC80916F018F5F80936F011BC025EB4C
:1020500036E06F2D8AE140DF8823A1F080E0F5D9DA
:1020600080936A01EECF80917001ABDB67DC82E088
:10207000EBCF40E061E08FE119DF18161CF4D8D9EE
:10208000809371018091E30280FF13C08091700101
:102090008F5F80937001873018F081E0809370012A
:1020A000809170018EDB4ADC8091E3028E7F809309
:1020B000E3028091E30281FF60C080917001833070
:1020C00039F140F48130A9F0823009F051C089E83B
:1020D00091E045C08530A9F128F1863009F048C06B
:1020E000F80162818BE991E00E9482058BE991E021
:1020F00036C0609171018FE891E00E948505F8017A
:1021000062818FE891E00E9482058FE891E027C00C
:102110008BE180936D0181E090916C019923E1F056
:1021200080E01AC089E180936D0180916B018F5F1F
:1021300080936E01833010F010926E0110926F0147
:1021400017C08AE180936D0180916A01865F809358
:102150006E018D3398F38AE080936E01EFCF9093F8
:102160008201809381018091E30284608093E30285
:102170008091E3028D7F8093E3022696E5E00C9444
:102180001D1C0F931F93CF93DF93D62F890162E01D
:102190008DDEC82F882369F08FEF8D0F873048F4CC
:1021A00080E065D90E949B1A9B01AC01B8018D2F7C
:1021B0004CDC8C2FDF91CF911F910F91089580916E
:1021C000E30282FF0EC004DB80911001FADAB6DB75
:1021D0008FEB91E00E94BF048091E3028B7F80939C
:1021E000E3020E948504882389F091E02091C101D7
:1021F0003091C201283F310508F490E08091E2025D
:1022000090FB80F98093E20280E00FDB8091E30293
:1022100080FF17C0809110018F5F8093100188307C
:1022200010F081E003C0853018F087E08093100142
:1022300080911001C6DA82DB8091E3028E7F809369
:10224000E3028091E30281FF2DC080911001833071
:10225000A9F038F4813079F08230F9F483EB91E021
:102260000FC08430B9F08730C1F40E94F9040E9495
:10227000E70743D912C08DEA91E002C087EA91E0F6
:1022800090938201809381018091E3028460809326
:10229000E30203C081EA91E0F3CF8091E3028D7FF6
:1022A0008093E3020895BC0185E07BDB85E0BDCA35
:1022B0000895ABE0B0E0EFE5F1E10C94FC1B182FC2
:1022C0006B01BA0180E090E02AE0AE014F5F5F4F02
:1022D0007A010E94921C812F61DA56E1159FC0019C
:1022E0001124B6018D529E4F0E945A1C5C01F701C9
:1022F00001900020E9F731978F010E191F09C601DF
:102300000E94611CA801B7018A0D9B1D0E946A1CD6
:102310002B96EAE00C94181CA4E0B0E0E2E9F1E1AD
:102320000C94021C8A3020F490E3998391E001C060
:1023300090E08E010F5F1F4FB801690F711D4AE0D9
:1023400090E00E94731CF80101900020E9F731979A
:10235000AF01401B510BB80183E192E00E946A1C5F
:102360002496E4E00C941E1CCF93DF93EC01809143
:10237000E30282FF15C08B8180937301109272017A
:1023800027DA80917301C8DF83EC8093C50180E375
:102390008093C601D3DA8091E3028B7F8093E302BE
:1023A0008091E30280FF2DC0809172018F5F809346
:1023B0007201843010F010927201809172018130AC
:1023C00079F048F0823089F08330A9F487E4809373
:1023D000C5018CEA0EC083EC8093C50180E309C07F
:1023E00083E08093C5018CE904C087E48093C50134
:1023F00088E48093C601A2DA8091E3028E7F809305
:10240000E3028091E30281FF0AC080917201813072
:10241000C1F058F0823071F1833019F136C088E094
:102420000E9463058111F1CF35C080917301823024
:1024300060F181508093730193EC9093C50190E318
:102440000BC080917301833600F58F5F8093730119
:1024500093E09093C5019CE99093C6015DDF6EDA2D
:1024600014C06091730170E04B818FE190E01EDB3E
:1024700018165CF485E991E09093820180938101C4
:102480008091E30284608093E3028091E3028D7F78
:102490008093E302DF91CF910895A89543D88111ED
:1024A00005C080910F01882309F4ADC0F894809194
:1024B0000F01882349F01AB817B814B81BB818B818
:1024C00015B810920F0104C00E9495060E945C0688
:1024D00080B7806880BF0E94F90450D95CD955D973
:1024E000299880916900886080936900E99AE19A4F
:1024F000809164008F628093640014BE0FB6F894DC
:10250000A8958091600088618093600010926000BF
:102510000FBE83B7817F846083BF83B7816083BF31
:1025200078948895E99880916400847D8093640014
:1025300098E288E10FB6F894A895809360000FBEEA
:10254000909360001AB817B814B81BB818B815B82B
:10255000569A219A389A529A549A3A9A3B9A0E94D9
:1025600069050E9453060E94FE078FEB91E00E94CE
:10257000BF042FEF8FE79DE0215080409040E1F7AE
:1025800000C0000088E00E94590588E00E946005B4
:1025900081E00E94EF0421E0893F910508F420E0EA
:1025A0008091E20220FB80F98093E20283B78E7F64
:1025B00083BF0E94870AE0918101F09182018281AC
:1025C000833071F018F4813098F018C0843081F4B1
:1025D00064E081EA91E00E94820581EA91E00AC00C
:1025E00063E087EA91E00E94820587EA91E002C0F9
:1025F00089EB91E090938201809381018091E302C5
:1026000084608093E30208958F929F92AF92BF926D
:10261000EF92FF921F93CF93DF93EC018091E3023F
:1026200082FF52C01A811092D6021092D7021092E5
:10263000D8021092D9021092D2021092D3021092B4
:10264000D4021092D5021092DF021092DE02109294
:10265000E1021092E0028091E20280FF299AE0916B
:10266000110184E0E89FF0011124E85EFE4F6081D3
:1026700071818281938159D8ABD8143039F46EE9D5
:1026800076E080E08ED987D881E005C0133011F460
:102690007CD87ED880E00E94E80982E390E00E9426
:1026A000A00A0E94960A109269011092680181E0C6
:1026B0008093670186E08093660183D83FD980913B
:1026C000E3028B7F8093E30240916901442309F484
:1026D000D2C0E0916701209168011E2F121B8E2F3E
:1026E00090E0FC013197E930F10508F0BCC0E55CF1
:1026F000FF4F0C94EE1B28E937E0612F82E041DDAB
:10270000882309F41BC280E00E94370A60936201AB
:102710007093630180936401909365019CC061E0B4
:102720008DE1C4DB882309F409C280E00E94250AF8
:102730007C019093DF028093DE022AE037ED43E2D2
:102740005CE36091620170916301809164019091FA
:102750006501ABD74B015C01B70180E090E017D772
:102760009B01AC01C501B401A0D7E5D6112309F442
:1027700072C09B0140E050E06DE877E0812F65D9A1
:102780006AC023E837E0612F86E0FBDC882309F488
:10279000D5C180E00E94370A6093DA027093DB02B1
:1027A0008093DC029093DD0256C02CE737E0612F66
:1027B00082E292DB882309F4C1C14DC086E039C0B2
:1027C0002EE537E0612F86E2DCDC882309F4B6C110
:1027D00080E00E94370A6093D6027093D7028093FC
:1027E000D8029093D90237C024E537E0612F84E204
:1027F000C8DC882309F4A2C180E00E94370A6093F4
:10280000D2027093D3028093D4029093D50223C056
:102810008FEF810F873050F42091DE023091DF027C
:1028200040E050E06FE477E0812F0FD9809167019D
:102830008F5F8093670182C124E437E0612F86E1D6
:102840004BDB882309F47AC180E00E94250A90932B
:10285000E1028093E002809167018F5F80936701BE
:102860000E94B20A14C080916601821B0E94E10B93
:1028700065D881E0DECF40E061E08FE117DB18161C
:1028800034F40E94B20A0E94180A80936901809170
:10289000E30280FF62C0E091660181E08E0F8093C9
:1028A0006601883008F444C08C3090F00E94E80B38
:1028B0008A81843021F46EE976E080E072D886E087
:1028C0008093660181E0809367011092680130C0B7
:1028D000809168018F5F809368011AEF1E0FE0916D
:1028E0008101F0918201E480F58080E090E0FC01BC
:1028F000ED50FE4F4696DC01A953BE4F26E10190F4
:102900000D922A95E1F78438910589F787E00E94B6
:10291000CE0BE12FF0E03796EE0FFF1FD7018D9120
:102920009C91E80FF91F6591749181E692E0C2D7FE
:1029300080916601853019F486E08093660180916C
:10294000660190916801891B0E94E10B0E949E0C18
:102950008091E3028E7F8093E30280E00E94150C59
:102960008091E30281FFF9C080916601883009F40B
:1029700077C0A8F5863009F444C0873009F0D8C084
:102980006091DA027091DB028091DC029091DD02AD
:10299000D2D56093E4027093E5028093E6029093AF
:1029A000E7026091D2027091D3028091D40290919B
:1029B000D502C1D56093E8027093E9028093EA02E0
:1029C0009093EB021092ED021092EC0281E0809362
:1029D000EF0284E28093EE0284E597E068C08A30DB
:1029E00009F496C008F470C08B3009F0A1C00E94B1
:1029F000F60929980E94CB0B0E94C50B89EB91E048
:102A00008EC06091DA027091DB028091DC029091BD
:102A1000DD0291D56093E4027093E5028093E602B3
:102A20009093E7026091D6027091D7028091D8020C
:102A30009091D90280D56093E8027093E902809367
:102A4000EA029093EB021092ED021092EC0281E008
:102A50008093EF0286E28093EE028EE597E027C036
:102A60008FEF93E0A0E0B0E08093E4029093E50262
:102A7000A093E602B093E7028091DE029091DF021C
:102A8000A0E0B0E08093E8029093E902A093EA020C
:102A9000B093EB028FEF9FEF9093ED028093EC02E7
:102AA0001092EF028DE18093EE028FE497E0909315
:102AB000F1028093F0026091690183E891E00E9445
:102AC000850583E891E02BC01092E4021092E502A4
:102AD0001092E6021092E7028091E0029091E102EA
:102AE000A0E0B0E08093E8029093E902A093EA02AC
:102AF000B093EB028AE590E09093ED028093EC02B4
:102B00001092EF0286E18093EE0284E497E0CFCF4B
:102B10006A8185E991E00E94820585E991E09093C0
:102B20008201809381018091E30284608093E302BB
:102B30008091E3028D7F8093E3020FC00E94BC0A64
:102B4000882309F4A4CE65E077E080E00E94D10CF0
:102B50000E949E0C109269019ACEDF91CF911F9135
:102B6000FF90EF90BF90AF909F908F900895A5E059
:102B7000B0E0ECEBF5E13EC68C018091E30282FF10
:102B800054C08091E20280FF299A0E94E80B87E0FE
:102B90008093C50188E38093C6010E949E0C109229
:102BA0006101109260018FEF80935F018FEB91E0E4
:102BB0000E94BF04F801828180935E01813021F47C
:102BC00040980E94B3052CC0823011F4409A28C06E
:102BD000E091110104E0E09FF0011124E85EFE4F56
:102BE00060817181828193810E94950B80915E0149
:102BF000843021F40E94CB0B11E007C0833021F414
:102C00000E94C50B0E94C80B10E082E390E00E9476
:102C1000A00A0E94960A10925D01812F0E94E80985
:102C20008091E3028B7F8093E3020E948504182F3A
:102C300080915E01813009F50E94D1059C01BC01A3
:102C40006E5F7F4F80E090E06093590170935A016E
:102C500080935B0190935C01275532400CE0263A4B
:102C60003D4F18F422E041E005C022E041E060E081
:102C700070E0CB010E94B507B6C08230C1F51123C8
:102C800009F4B1C08091BF019091C0010E94CB04B2
:102C90004091590150915A0160915B0170915C0122
:102CA0004A015B01A2E0B694A79497948794AA95F1
:102CB000D1F7481959096A097B0996958795969520
:102CC00087956A017B01C80ED91EE11CF11CC70162
:102CD000B601C0925901D0925A01E0925B01F09284
:102CE0005C010CE022E042E00E94D2077CC04091EF
:102CF0005D01442309F46BC080915801882319F0C9
:102D00008130C1F059C062E082E0D0D8882309F454
:102D100053C080E00E94370A6093540170935501BC
:102D20008093560190935701809158018F5F809353
:102D3000580166C261E08DE1B9D8882309F43CC02E
:102D400080E00E94250A7C0140915D0150E06DED1C
:102D500074E082E0AEDAA70167ED74E083E0A9DAFF
:102D600082E00E94150C83E00E94150C2AE037EDEA
:102D700043E25CE3609154017091550180915601EA
:102D80009091570192D44B015C01B70180E090E033
:102D9000FED39B01AC01C501B40187D4CCD380E044
:102DA00090E0CC24C394E12C02E020E040E00E94BB
:102DB00018071092580124C20E94BC0A882399F077
:102DC0000E94E80B0E949E0C10925D010CC040E036
:102DD00061E08FE16BD8181634F40E94B20A0E94A9
:102DE000180A80935D0180916001882309F43DC138
:102DF00030915E018091590190915A0120914E01CC
:102E0000223009F447C028F4222351F02130C9F0C0
:102E100093C0233009F45BC0243009F475C08CC022
:102E2000323029F4833E954008F498C0ECC131302B
:102E300009F0E9C1845A9B4089309F4208F48EC052
:102E4000E2C1323051F48C5891098A3F2FEF92073A
:102E5000FCF021E00797C4F016C0313009F0BDC086
:102E60009C0128543D402C3E4FEF34071CF0253187
:102E7000310564F088599A438C3EEFEF9E0744F089
:102E800021E045970CF020E0822F7DC081E07BC0DF
:102E900080E079C0323051F4825891098A3FFFEFC7
:102EA0009F079CF021E0079774F00CC0313009F0C7
:102EB00094C0845E9C408C3E0FEF900734F021E07C
:102EC00045970CF020E0822F6EC080E06CC032305D
:102ED00051F4845091408A3F1FEF91079CF021E00C
:102EE000079774F00CC0313009F01CC1885F914124
:102EF0008C3E2FEF920734F021E045970CF020E054
:102F0000822F62C080E060C0323029F4089621E050
:102F1000419770F00CC0313009F080C0885893415F
:102F20008C3E3FEF930734F021E045970CF020E012
:102F3000822F56C080E054C0223009F44EC038F4CD
:102F4000222309F460C1213009F447C0EBC02330CB
:102F500009F4E8C0243009F461C0E4C087E698E0D1
:102F6000A2D90E94A60581E080934E0110924A01E9
:102F700010924B0110924C0110924D0188EE93E09B
:102F80000E94A00A2AC0882341F182E598E08BD9EB
:102F90000E94A90A882309F4C5C08DEA91E00E9425
:102FA000880582E00EC08823C1F00E94A90A882308
:102FB00009F4B8C08DE798E076D982E00E94C50A8E
:102FC00083E080934E01AEC0882309F4ABC087E252
:102FD00098E069D984E080934E010E94960AA2C0CD
:102FE0008823E1F00E94A90A882309F49BC082E0AB
:102FF0000E94C50A0E94A60510924E0110924A0135
:1030000010924B0110924C0110924D0181E080937F
:103010005301109260018CE398E0FCC00E94960A74
:1030200080914A0190914B01A0914C01B0914D01CA
:10303000AC01BD014F5F5F4F6F4F7F4F40934A011F
:1030400050934B0160934C0170934D018115904C4E
:10305000A105B10508F466C010924A0110924B0117
:1030600010924C0110924D01CEC0112309F45AC0A8
:1030700080915301811156C08091C3019091C40188
:103080000E94DA0440914F0150915001609151012A
:10309000709152018A019B01E2E0369527951795C0
:1030A0000795EA95D1F7401B510B620B730B969570
:1030B0008795969587956A017B01C80ED91EE11CFC
:1030C000F11CD701C601C0924F01D0925001E0928D
:1030D0005101F092520120915F0131E0320F3093A3
:1030E0005F012034F8F010925F014AE08E010F5F1B
:1030F0001F4FB801F8D385E00E94CE0B68E277E05D
:103100008CE392E0D7D3F80101900020E9F73197E2
:10311000AF01401B510BB80182E492E0DBD385E0A4
:103120000E94150C8091E30280FF2BC08091610109
:103130008F5F80936101823010F010926101809165
:103140006101811105C087E08093C50188E30DC04E
:10315000813069F480915E018150823010F487E8FB
:1031600001C087EC8093C50182EB8093C601109269
:10317000530187E00E94150C8091E3028E7F8093BB
:10318000E3028091E30281FF47C0809161018823BF
:1031900019F0813091F02EC00E94F6090E94CB0BED
:1031A0000E94C50B409A29980E94C7050E94A60557
:1031B0001092600189EB91E00FC090915E01933015
:1031C00011F463E003C0943089F464E08BE991E08A
:1031D0000E9482058BE991E09093820180938101A6
:1031E0008091E30284608093E30204C080936001D5
:1031F00010924E018091E3028D7F8093E3020CC018
:103200000E94B20AF0CD81E08093530110926001D8
:1032100082E198E048D886CF2596ECE007C3E2EF3C
:10322000F2E082E895E0918380838AEF94E09383D3
:1032300082838AEE94E0958384838AE395E0918784
:1032400080878AE495E0938782878AE695E0978372
:1032500086838AE595E0958784878AE295E097875B
:1032600086878AE195E0918B808B8AE095E0938B4D
:10327000828B0895A0E1B0E0EFE3F9E1C3C2BC01A5
:10328000CE01019617D38E010F5F1F4FF801819178
:103290008F01882321F060E00E949C06F7CF6096A2
:1032A000E4E0CCC20F931F93CF93DF9360E080E004
:1032B0000E94CD06C0E0D0E010E0C11522E0D207A8
:1032C000B1F0CE018F739927892B39F401E0010FFA
:1032D00060E0812F0E94CD06102F0E949806CE013B
:1032E0006BD30E9484060E94CB062196E6CF6CE346
:1032F00082E00E94CD0684EA98E0BCDF6CE383E0C4
:103300000E94CD0689E998E0B5DF6CE384E00E9475
:10331000CD0683E998E0AEDF8FEF9FEF29E581507E
:1033200090402040E1F700C00000DF91CF911F9155
:103330000F9108951F920F920FB60F9211240F90C4
:103340000FBE0F901F901895A8D8ACDF68DF2FED47
:1033500030E142EF52E060E089EB91E00E947A05B3
:1033600027EB35E14AEF52E062E083EB91E00E9407
:103370007A0527EB35E14CEF52E061E08DEA91E010
:103380000E947A0527EB35E144EF52E063E087EADB
:1033900091E00E947A0527EB35E146EF52E064E0C8
:1033A00081EA91E00E947A0524E033E148EF52E09F
:1033B00063E08BE991E00E947A0529E83FE04EEF57
:1033C00052E063E085E991E00E947A0524EB31E167
:1033D00040E053E060E08FE891E00E947A052BEB3B
:1033E0003EE042E053E060E089E891E00E947A0527
:1033F0002BE63DE044E053E060E083E891E00E948A
:103400007A0589EB91E0909382018093810180910C
:10341000E30284608093E30288E00E9459058823D8
:1034200029F08091E30281608093E30288E00E94AA
:103430006005882341F081E00E94C50A8091E30283
:1034400082608093E3028091E30280FD03C080915B
:10345000E30281FD0E94870A80918101909182019F
:10346000DC01ED91FC91099518D8D6CF5058BB27B7
:10347000AA270ED0E0C0D1D030F0D6D020F031F461
:103480009F3F11F41EF4C6C00EF4E095E7FBBCC0EC
:10349000E92FE2D080F3BA17620773078407950714
:1034A00018F071F49EF5FAC00EF4E0950B2EBA2FC9
:1034B000A02D0B01B90190010C01CA01A00111243A
:1034C000FF27591B99F0593F50F4503E68F11A16E6
:1034D000F040A22F232F342F4427585FF3CF469577
:1034E00037952795A795F0405395C9F77EF41F1699
:1034F000BA0B620B730B840BBAF09150A1F0FF0F63
:10350000BB1F661F771F881FC2F70EC0BA0F621F4E
:10351000731F841F48F4879577956795B795F7953E
:103520009E3F08F0B3CF9395880F08F09927EE0FD0
:1035300097958795089598D088F09F5790F0B92F68
:103540009927B751A0F0D1F0660F771F881F991FF8
:103550001AF0BA95C9F712C0B13081F09FD0B1E02E
:1035600008959CC0672F782F8827B85F39F0B93F3E
:10357000CCF3869577956795B395D9F73EF49095FA
:103580008095709561957F4F8F4F9F4F0895E89478
:1035900009C097FB3EF490958095709561957F4F9B
:1035A0008F4F9F4F9923A9F0F92F96E9BB27939549
:1035B000F695879577956795B795F111F8CFFAF459
:1035C000BB0F11F460FF1BC06F5F7F4F8F4F9F4F8A
:1035D00016C0882311F096E911C0772321F09EE8E8
:1035E000872F762F05C0662371F096E8862F70E04E
:1035F00060E02AF09A95660F771F881FDAF7880F28
:103600009695879597F9089597F99F6780E870E0F8
:1036100060E008959FEF80EC089500240A94161648
:10362000170618060906089500240A9412161306B0
:10363000140605060895092E0394000C11F488233E
:1036400052F0BB0F40F4BF2B11F460FF04C06F5F5A
:103650007F4F8F4F9F4F089557FD9058440F551F30
:1036600059F05F3F71F04795880F97FB991F61F004
:103670009F3F79F087950895121613061406551F7B
:10368000F2CF4695F1DF08C0161617061806991FE7
:10369000F1CF86957105610508940895E894BB27DC
:1036A00066277727CB0197F908950BD0C4CFB5DFF4
:1036B00028F0BADF18F0952309F0A6CFABCF11247C
:1036C000EECFCADFA0F3959FD1F3950F50E0551FC1
:1036D000629FF001729FBB27F00DB11D639FAA2767
:1036E000F00DB11DAA1F649F6627B00DA11D661FB6
:1036F000829F2227B00DA11D621F739FB00DA11DD7
:10370000621F839FA00D611D221F749F3327A00D90
:10371000611D231F849F600D211D822F762F6A2F2C
:1037200011249F5750408AF0E1F088234AF0EE0FB1
:10373000FF1FBB1F661F771F881F91505040A9F7BE
:103740009E3F510570F060CFAACF5F3FECF3983EEB
:10375000DCF3869577956795B795F795E7959F5F25
:10376000C1F7FE2B880F911D9695879597F90895BF
:10377000AA1BBB1B51E107C0AA1FBB1FA617B70797
:1037800010F0A61BB70B881F991F5A95A9F78095B3
:103790009095BC01CD010895A1E21A2EAA1BBB1B76
:1037A000FD010DC0AA1FBB1FEE1FFF1FA217B3070D
:1037B000E407F50720F0A21BB30BE40BF50B661F23
:1037C000771F881F991F1A9469F7609570958095E7
:1037D00090959B01AC01BD01CF010895EE0FFF1F35
:1037E0000590F491E02D09942F923F924F925F92B1
:1037F0006F927F928F929F92AF92BF92CF92DF9201
:10380000EF92FF920F931F93CF93DF93CDB7DEB765
:10381000CA1BDB0B0FB6F894DEBF0FBECDBF0994F9
:103820002A88398848885F846E847D848C849B8450
:10383000AA84B984C884DF80EE80FD800C811B815E
:10384000AA81B981CE0FD11D0FB6F894DEBF0FBE8D
:10385000CDBFED0108951F93FC0199278827BC0176
:10386000E89411911032E9F3193010F01E30C8F3CA
:103870001B3249F01D3241F4689405C03ED0610FFF
:10388000711D811D911D119110531A30B8F33EF432
:1038900090958095709561957F4F8F4F9F4F1F91A9
:1038A0000895FB01DC0102C005900D92415050408B
:1038B000D8F70895FB01DC0105900D920020E1F797
:1038C0000895FC0105900020E9F7809590958E0FF2
:1038D0009F1F0895FB01DC0102C001900D92415031
:1038E0005040D8F70895BB274A3031F4992322F489
:1038F000BDE2909581959F4F37C0592F482F372FA4
:10390000262F660F771F881F991F660F771F881F46
:10391000991F620F731F841F951F660F771F881FE3
:10392000991F0895BB27FA01A62F6217710581051B
:103930009105330B30FB66F0AA27660F771F881FAF
:10394000991FAA1FA21710F0A21B63953850A9F760
:10395000A05DAA3308F0A95DA19336F7B111B19328
:103960001082CA0119C0BB27FB015527AA27880F5F
:10397000991FAA1FA41710F0A41B83955051B9F7E3
:10398000A05DAA3308F0A95DA193009779F7B11162
:10399000B1931192CB0100C0DC01FC01672F719142
:1039A0007723E1F7329704C07C916D937083629125
:1039B000AE17BF07C8F30895F999FECF92BD81BD38
:0C39C000F89A992780B50895F894FFCF7D
:1039CC000000000200000000C6060000000001011B
:1039DC0001021F071B07160780250000683800002E
:1039EC00004B00000096000000E1000000C2010046
:00000001FF
